:020000040800F2
:1000000000A000208D620108F5620108491701086F
:10001000F5620108F5620108F562010800000000C0
:10002000000000000000000000000000F562010870
:10003000F562010800000000F5620108DBE200083B
:10004000F5620108F5620108F5620108F562010830
:10005000F5620108F562010809FE000805FE0008C6
:10006000F5620108F5620108F5620108F562010810
:1000700065E2000851E200084D260108F56201081A
:100080003DE2000829E20008F5620108F562010876
:10009000F5620108F5620108F562010801FE000839
:1000A000C923010805240108B923010829240108EE
:1000B000F9230108E9230108D9230108F5620108A1
:1000C000F5620108F5620108F5620108F5620108B0
:1000D000F5620108452601083D260108352601087C
:1000E000E9E20008F5620108F5620108F56201081D
:1000F000F5620108F5620108F5620108F562010880
:10010000000000000000000000000000F56201088F
:10011000F5620108F5620108F5620108F56201085F
:10012000F5620108F5620108F5620108F56201084F
:10013000F5620108F56201080000000000000000FF
:10014000F5620108F5620108F5620108000000008F
:10015000000000000000000000000000000000009F
:100160000000000000000000F5620108F5620108CF
:10017000F56201080000000000000000000000001F
:0801800000000000F562010817
:100188002DE9F04F2DED068B884F894B3B60AFB0C2
:1001980000237B6012F088FE18B912F0A9FE0AF05D
:1001A800B1FC0AF049FD834A834D137843F00103FB
:1001B8001370824B4FF47002C3F888200023099310
:1001C8000A932B6843F480332B602B6803F40033C5
:1001D8000A93099B013309930A9B1BB9099BB3F541
:1001E800A04FF2D12B6813F4003318BF01230A93F0
:1001F8000A9B012B00F0A380714EDFF8C091F37BBE
:10020800DFF8F4B1DFF8F4A1003318BF01233B7223
:100218006C4BC9F80C306B6AFB606B6A43F08073F7
:100228006B626B6943F4FC032EAC6B6103238DF89E
:100238006A3041F6FF7324F8503D4FF09040214654
:1002480007F098FF4FF6FF7358462146ADF868301F
:1002580007F090FF5C48214607F08CFF5B48214679
:1002680007F088FF5A48214607F084FF0DF1B808C7
:100278005848214607F07EFF4FF4007228F86C2D8D
:1002880004238DF84E304FF09040022341468DF8FC
:100298004F30049307F06EFF4FF480624146584692
:1002A800ADF84C2007F066FF204609F093FB4A4959
:1002B8001A9AB2FBF1F2494949480A600021102212
:1002C80016F03DF94749484A4A60F02289F8232048
:1002D800072000228A60DFF8289103920860B1683D
:1002E800C9F800109AE8030084E8030069691A98BD
:1002F80041F4802169610821CBF818101BA907F087
:1003080039FF049B8DF86B306B692F484FF400411F
:10031800ADF8681043F4002301218DF86A106B6171
:10032800214607F027FF039A304B314919601046E0
:100338000DF0EEFFD9F800301B0729D468E02D4BEB
:1003480012221A606B686B606B686B606B6843F4B1
:1003580080636B606B6823F47C136B606B6843F499
:10036800E8136B602B6843F080732B602A68124B8C
:100378009401FBD55A6822F003025A605A6842F089
:1003880002025A606B6803F00C03082BFAD133E7BA
:1003980096F89831012B3BD8044A96F89A31D268DE
:1003A80012F0805200F0208632E000BF08040020DE
:1003B800F3A20008182A00200010024000ED00E017
:1003C800302C00200005FA0500080048000C004801
:1003D800001000480014004840420F00301F002061
:1003E800341F002010E000E03F19010058360020BB
:1003F800EBDA000800200240000400481C770108DE
:1004080098340020C24B002283F89A210AF0CEFDCE
:1004180064200DF054FFBF4800214FF48C7216F091
:100428008EF8EB69BC4843F00703EB61AB6943F412
:10043800E123AB616B6943F4C0236B6100F58875F8
:10044800837B416890F80FE003F00702DB0801EBBB
:1004580083039200196A4FF00F0C0EFA02FE0CFA91
:1004680002F221EA02021A62196A10304EEA010207
:10047800A8421A62E4D10022A84900235354013249
:10048800112AF9D1A64AFF2199540133072BF9D132
:10049800A44D00212846102216F051F8A24B2B60DB
:1004A8006B60AB60EB60A14BD9F80050A04A1A60B2
:1004B800A04800213C2216F042F8C5F38019052314
:1004C8004FF0000E9C4A9B481EF802100C2202FBBB
:1004D8000EF21154B9F1000F07D11E3901299FBF3F
:1004E800FF2103F1FF331154DBB20EF1010EBEF10F
:1004F800050FE7D1914A96F805B01370904B9149D2
:1005080083F800B0904BBB62C0330B608F4B904AAE
:1005180003EBCB03A8065B7848BF0123D362002313
:100528008C4A40F2DC5122F813100133082BF7D122
:10053800404600211C2216F002F8DFF82C8215F440
:10054800007A1ABF1994CDF80C80CDF80CA0BBF135
:100558000E0F03D00BF0EF03082B02D101238DF807
:100568005E3002200BF044FD18B14088003018BFFF
:100578000120C5F340038DF85230C5F340338DF8A0
:100588004C30C5F3C03300F001008DF84F3015F43E
:1005980000638DF851008DF8549004D096F88C3192
:1005A800591E4B424B418DF85030C5F300438DF82E
:1005B8005530FB6AB6F84821ADF862201AF1000AF6
:1005C80018BF4FF0010A003318BF01238DF85730C8
:1005D800C5F300538DF85830B6F84A31ADF85C30A1
:1005E800EA04B6F8563148BF494AADF85A30C5F35F
:1005F80080438DF85330B6F8543144BFB2F85021D7
:10060800ADF86220B3F5FA7FADF8603084BF0023FF
:10061800ADF8623005F0010B96F8DE314E4887F8E8
:100628003030C5F3C009002190228DF84DB08DF807
:100638004E908DF856A015F082FF9DF85E30002B85
:100648000CBF00230223BBF1000F02D1B9F1000F48
:1006580000D0013308EB83084FF00009D8F82030A8
:10066800A3F1020A203304933AF8023F4FF6FF72CF
:10067800934200F008829DF85110DAB21B0ADEB2EC
:1006880079B12548354D00EB02104168A94208D1DF
:100698000189B1F5806F00F0F281B1F5006F00F0CB
:1006A800EE819DF8541031B111011B4840582C4976
:1006B800884200F0E4819DF8551079B11101164D7A
:1006C80068186D5827498D4200F0D9814168B1F109
:1006D800904F03D1817B082900F0D1819DF85210F9
:1006E80051B10D4800EB02104168B1F1904F03D1B0
:1006F8000189102900F0C3819DF84F1000293AD0D4
:100708000548164D00EB02104168A9422EE000BFD3
:10071800302C00209C1F0020F89B010818040020A2
:1007280029040020201F0020E9DA000854340020A2
:10073800362E00205834002091AD0108680D0020A5
:10074800780B002030210020442C0020C0A0010894
:10075800080400200C0D0020CC0D002000040048E7
:1007680000040040002C01400477010803D10189EE
:10077800042900F084819DF8501051B1A04800EB85
:1007880002104168B1F1904F03D10189202900F08E
:100798007681199D7DB19A4F296807EB0217786811
:1007A800884208D13989A888884200F06881E88899
:1007B800884200F06481022B02D19DF84C3003E09E
:1007C800012B04D19DF84D30002B00F058819DF885
:1007D80057108B4B170159B19DF85E1041B9A2F122
:1007E8000E01012904D8D9598648814208BF042638
:1007F8009DF85810DD1931B19DF85E1019B9043A09
:10080800032A40F21981012E52D1DFF8088206939B
:10081800D919FF2291F80DE0486888F8782088F8FF
:10082800792001F108020989ADF868104FF0000B32
:1008380002218DF86B1088F87CB01AA9C8F8885086
:100848008DF86AE0059288F834B0C8F838B0C8F86E
:100858003CB0C8F840B0C8F874B088F87AB088F8E6
:100868007BB007F087FC069B059AD85991785A46C1
:1008780007F02AFC28465946324611F027FE624BFB
:10088800C8F88C30614BC8F8903008F18C0108F139
:100898009002C8F894B0284611F06EFE5C4B9A7826
:1008A80003EBC202202151721A7901321A71E2E077
:1008B800022E54D15FFA89F31C2101FB03FC554B2E
:1008C800CDF81CC003EB0C0B01238BF87C3006938E
:1008D8004B4B8BF87D90D9194FF0000891F80DE03B
:1008E80048688BF87E8001F108020989ADF8681024
:1008F8008BF886801AA9CBF888508DF86AE00592A3
:100908008DF86B6007F036FC3D4B059AD859917805
:10091800424607F0D9FB069B28461A46414611F085
:10092800D5FD3C4BDDF81CC03B4ACBF88C2003EBD3
:100938000C018C31394ACBF89020CBF894800A1DF1
:10094800284611F019FE324B9A7803EBC202402177
:100958005172DA780132DA7009F101098BE0032E5D
:1009680068D19DF853302A4E2D4F8BB14FF6FF7248
:1009780000232846082196F8018007F024FC294B1B
:1009880047F82800C360B378192206EBC3032BE0AD
:10099800BDF8602096F80180B2F5FA7F12D9224B93
:1009A800B3FBF2F2284692B2BDF86230082107F094
:1009B8000AFC1E4B47F82800C360B3780D2206EBEB
:1009C800C30311E01A4BB3FBF2F2284692B2BDF80A
:1009D8006230012107F0F7FB124B47F82800C3608B
:1009E800B378092206EBC3035A72B37872780133DD
:1009F80006F8332006EBC30301325D6072703AE0FB
:100A0800F89B010800400140017A0008E17A0008DB
:100A1800CC0D0020080400200D810008D9790008B9
:100A28006C1F0020F17A000800127A00017B000890
:100A380040420F00042E22D1624EBDF85A20624B6C
:100A480093FBF2F2012192B2BDF85C303778284668
:100A580007F0B9FB5D4BB27803EB8703013206EB75
:100A6800C201C3F85C010A234B70337806F83230B0
:100A780001334D603370534A937801339370049B6C
:100A88009A457FF4F1AD4F4A504D117885F87C11A5
:100A98004F49504B0F78A7F11701002602291E7005
:100AA80090469E461AD8AB6A3344D3ED007AF5EEE9
:100AB800407AF1EE10FA02D1EB6A63BB26E0464AAF
:100AC80006EB020C0FCB8CE80F009EF800301036B6
:100AD8000133C02E8EF80030E5D1EDE73F4B13F817
:100AE80037908EF8009003EBC703D3F804A0BAF14F
:100AF800000FE1D04E45DFDA374A330103EB020C31
:100B080053440FCB01368CE80F00F3E7344E3368BB
:100B1800DB0426D41FE0334B334A13F83700107038
:100B280003EBC7035E68002EF0D000238342EDDAA2
:100B3800C3EBC3017218DFF8BC90D2F800A041F8EB
:100B480009A001EB090C9188ACF8041092798CF893
:100B580006200133EAE707F0EF03082B234B20D1E7
:100B680021E09EF80020012AF5D9214B03EB02125F
:100B7800103210339342EED053ED047AB6EE007A79
:100B880067EE877A43ED047A53ED057A67EE877A44
:100B980043ED057A53ED037A67EE877A43ED037ADE
:100BA800E7E70E2F08D11A7842F010021A70182FB2
:100BB80022D10DF029FD1FE01A7822F010021A70D8
:100BC800192FF5E7CC0D002040420F000804002043
:100BD800780B00201F1F0020B00A0020C0A00108C9
:100BE80098340020E0860108BC200020301E002038
:100BF800B80A0020BD2000200DF0EAFC904B98F8C0
:100C080003209A8098F80420DA803368DFF854A229
:100C18008C4F58035EBF8C4B01221A708B4A137895
:100C280043F004031370DAF81C3043F48043CAF825
:100C38001C30DAF8103043F48043CAF81030DAF880
:100C4800143043F48023CAF814307B6A23F4700309
:100C58007B627B6A43F4A0037B627B6A23F0706348
:100C68007B627B6A43F0A0637B627B6A23F07043FC
:100C78007B627B6A43F0A0437B627B6A23F4702328
:100C88007B627B6A43F4A0237B6202234FF0000857
:100C98004FF0030B8DF86C3038464FF46043214613
:100CA8004FF480598DF86DB08DF86E801A938DF8D9
:100CB8006F8008F0FDFF0123384621468DF86C301F
:100CC800CDF868908DF86DB08DF86E808DF86F80D6
:100CD80008F0EEFFDAF8103043F48043CAF8103019
:100CE800DAF8103023F48043CAF81030584B9A8849
:100CF80022F480521204120C9A809A8892B242EA24
:100D080009029A801A8802F4415242F4457242EA72
:100D18000B021A809A8822F470621204120C42F4B0
:100D2800E0629A809A8B22F400621204120C9A8371
:100D380007221A821A8892B242F040021A80C7F833
:100D48001890336803F41073B3F5107F63D0DAF8A2
:100D58001430DFF80C91C5F8809143F48023CAF869
:100D68001430DAF81C30DFF8DC8043F40013CAF8DA
:100D78001C30DAF8303023F01003CAF83030DAF8D3
:100D8800303043F01003CAF83030D8F8203023F060
:100D98007063C8F82030D8F8203043F08063C8F872
:100DA8002030D8F8203023F07043C8F82030D8F825
:100DB800203043F08043C8F820304FF400431F939D
:100DC80002238DF83C3003232EAF8DF83D300123EC
:100DD8008DF83E30402347F8803D00244046394690
:100DE8008DF83F401A941B941C941D941E942094D3
:100DF80008F05EFF8023404639460E9308F058FFFE
:100E08002B7A1B941C941D941E9420941F944C467A
:100E180053B3104B29E0104A1378104918F9010010
:100E28001F2802BFFF2008F8010003F1FF3308F173
:100E38000C0808BFDBB2B8F13C0FEED1137086E79F
:100E4800600D002000040048C00C0020182A002073
:100E580000380040300E5000680D00205834002043
:100E68000054004000100240BB4BBC481A931AA91A
:100E780011F0C5FF2368DFF808B343F001032360CE
:100E8800346804F40063049310231A46002158467A
:100E9800059315F054FB4FF6FF720E9202224FF0A5
:100EA800000804F40049032114408DF83D208DF812
:100EB8003E808DF83F808DF83C10059B0FD04FF099
:100EC800904039460E93012408F0F2FE07238BF870
:100ED80000408BF801808BF803308BF80240B9F1A1
:100EE800000F12D004239E480E93394608F0E0FE06
:100EF8000C238BF8043007238BF8073001238BF879
:100F080005401C448BF80630E4B2049B9BB12023B7
:100F18004FF0904039460E9308F0CAFE02238BF832
:100F28000C3007238BF80F3001238BF80D401C443D
:100F38008BF80E30E4B2DAF82C308A48894F23F463
:100F4800F873CAF82C30DAF82C3043F4D873CAF89E
:100F58002C30DAF8143043F0805343F00203CAF817
:100F6800143008F0BEFC1AA808F090FC7E4B1A93C7
:100F78007E4B1B93012C4FF0000394BF1A4680222E
:100F88001F924FF4807220924FF4806221922022A7
:100F9800384622921AA94FF400521C931E932392AA
:100FA8002493ADF8744008F07EFC3B6843F00103DD
:100FB8003B606F4FBB6823F04053BB60BB6843F096
:100FC8008053BB600A200DF07AF9BB6823F0804398
:100FD800BB60BB68BB60BB6843F00043BB60BA68DA
:100FE800634B002A34DAFAE7013B092B3FF610AAD3
:100FF800DAF84C00206021465846039207F0BAF808
:101008004FF40063CBF818303C200DF058F9039AE0
:10101800924696F89A319A45BFF6F4A9DFF840B19E
:1010280008224FF40063CBF8182078200492ABF81C
:10103800283003930DF038F9049A039BABF8282065
:101048007820CBF818300DF02FF90AF1010AE0E703
:101058009A68484922F040529A609A6842F00052D1
:101068009A608868444A024042F468328A60D968C3
:10107800424A0A4042F40052DA601A6B013C22F0FC
:101088000F0214431C63002101230BEB010290782B
:10109800002800F08A805C1C042B1BF801E0D27841
:1010A800DFF8CCC0E4B20ED803EB4303DCF83070B1
:1010B8005B001F20984027EA00000EFA03F3034361
:1010C800CCF8303031E0092B0ED80620053B4343DD
:1010D800DCF834701F20984027EA00000EFA03F36A
:1010E8000343CCF8343020E00E2B4FF006070ED81F
:1010F800A3F10A007843DCF838801F23834028EAEC
:1011080003070EFA00F33B43CCF838300DE00F3BF1
:1011180007FB03F0DCF83C801F23834028EA030721
:101128000EFA00F33B43CCF83C30BEF1090F1048EF
:1011380028D983698769AEF10A0303EB43034FF0AB
:10114800070E0EFA03FE27EA0E07876187699A40A1
:101158003A43826128E000BF7A25E000005400404D
:10116800000400480804024040010050381A0020DA
:101178000001005000030050E010FCFF07C0FFFD15
:10118800281A0020436947690EF1FF3303EB430334
:101198004FF0380E0EFA03FE27EA0E07476147693B
:1011A80003339A403A4342612346043110297FF4BD
:1011B8006CAF974B9A6842F001029A601A46116820
:1011C800934BC907FBD5DA68924F22F00202DA6026
:1011D800DA6842F00202DA60DA6842F00102DA60A4
:1011E8009A6842F004029A60B7F85C31002B41F02B
:1011F800FF80B7F95E21002A41F0FA80B7F9602133
:10120800002A41F0F58033689B031FD5C8200DF0F4
:1012180056F8AE2007F0D9F908B107F0DAF97E4C94
:1012280085F88401C8200DF04AF87C4BC5F8883150
:1012380000211422204615F082F90223E37010F0F1
:10124800DCFA0DF015F8764B0344A36097F871317A
:101258000493744B74481B6897F86891B3F862B0AC
:10126800BB89059300210C2297F8638197F8724196
:1012780097F810A06D4E7F7C15F061F900211422BB
:101288006B4815F05CF9002385F88C31194686F80F
:101298008D310C2206F5C870069315F050F9654A91
:1012A800C5F89C2123200DF00AF8752001210BAA0E
:1012B8000FF01EF8069B002866D05F4AC6F89421F6
:1012C8005E4AC6F89821432286F8902118460121E3
:1012D8000CAA0FF00DF89DF8303003F07E038DF85E
:1012E800303040B1682B06D1012386F88C311D239C
:1012F80086F8903148E09DF82C3003F07E03682B87
:101308008DF82C303BD10223062085F88C311AAA9F
:10131800D5F89431454D014698479DF86B309DF8B6
:101328006D2003F001035B0002F0010243EA820230
:101338009DF8693003F00103134312D05AB2012A11
:1013480001D1002302E0022A03D1012385F88D315F
:101358001AE003F00303032BF7D003200DF034F851
:1013680012E0D5F894310C2001210EAA98479DF877
:10137800383013F00F03F0D0042BE6D1E1E7702BDF
:1013880004BF042385F88C31284E2D4996F88C210A
:101398000023022A0B7012D1254B2A4818602A48CC
:1013A80058602A48D8602A48186104230B702949D4
:1013B800294D08682A7040F001030B6003E0012002
:1013C8000DF002F869E142460A2A28BF00220123EB
:1013D800934040F2B23E03EA0E0EBEF1000F43D135
:1013E80013F04D0F40D0104B1C4A1A601C4A5A602B
:1013F80096F88D21002A0CBF6F226E221A72194BA3
:1014080004221A70032318436B70086033E000BF8E
:1014180000010050302C002084210020C02D002025
:10142800404B4C007C2100206C3500200804002033
:10143800FC35002034770108F90201082704010867
:101448004C0900207106010889010108750101088D
:1014580090C1793D6835002085000020D506010837
:10146800D10101087F360020012A4FF00008AAD8D0
:10147800AA4B83F80080042C6FD84FF0010808FAB3
:1014880004F313F016056FD113F0090F63D00A2087
:101498000CF015FF7720A02142460EAB06F084FF22
:1014A800002861D077201E21424606F0F9FF4FF44C
:1014B8002F600CF0F9FEA5F160010024C9B20222E8
:1014C8001AAB77208DF868408DF8694006F06CFFFC
:1014D8009DF869309DF8682043EA0222904B03F595
:1014E800D0716A520235102DE5D1B3F8AE2102F061
:1014F8000F0502F47F42A3F8AE21012023462146BE
:10150800DFF81CE221F001047444B4F8A041002C77
:1015180018BF002011F0010F03D0E4B26340082483
:1015280002E083EA1423FAE713F4004F18BF83F4A8
:10153800C053013C4FEA4303F6D101311029DFD1F2
:1015480077492A43A1F8AE2170B9C3F303339D420A
:1015580000F0EE8608E0012C06D0724B724A9C70AF
:10156800136843F0040313606F4C2368980702D58F
:101578006E4B1B6898476E4ABAF1000F0DD0B9F14F
:10158800000F07F1FF37FFB20CBF7D234FF47A73CA
:1015980086F8B07107FB033303E0614B83F8B0A111
:1015A800059B1360634B48461B689847DDF810801D
:1015B800614F0023B8F1020F3B7006D0B8F1030F5A
:1015C8001DD0B8F1000F40F0C5862EAB002203F8FD
:1015D800502D5A4AC6F8B4211E200A21012206F0CD
:1015E800E3FE60B19DF86830482B08D1544B554A4A
:1015F8001A60554A5A6004233B70022318E02EAB48
:10160800002503F8505D0C202946012206F0CCFE87
:1016180058B19DF86830482B40F05987484B4B4AE1
:101628001A604B4A5A60032302E0054600F04FBF98
:101638003C4AD370236843F008032360454B93F872
:1016480058210AB144490A7093F859210AB133491B
:101658000A7093F85A3103B13B7023683F4913F07D
:10166800080F00F07E860FFA8BF0642290FBF2F3ED
:1016780002FB130212B207EE902AB8EEE77A07EEE1
:10168800903ADFED376AF8EEE77AE7EE267AB2EEBF
:10169800047A67EE877AC1ED007A324A137843F00C
:1016A80002031370304B08229A610A242E4DAB8A2C
:1016B8009BB283F00803AB8219200CF000FE0120D6
:1016C8000CF026FE19200CF0FAFD013C00200CF06D
:1016D8001FFE14F0FF04E9D10823AB61144B1F6807
:1016E800224B1A6892F90C201D4652B90E4F3B68DE
:1016F800190741D5124B1B6898471D4B01221A70D8
:101708003AE02B681B4893ED020A204439462434FA
:1017180008F01BFEB4F5907FF3D1E7E77F36002091
:101728000804002085000020683500206C35002062
:101738002C1E0020FC3500207E3600204C77010846
:10174800242800205D04010819020108A3030108E8
:101758000F030108302C00204C090020580A0020F3
:101768008988883C182A002000040048AC0A002018
:1017780050280020A00B0020BD4B9FEDBE8A1B689F
:10178800BD4C1B7B00EE103AB8EEC00A20EE080AEA
:1017980009F056F9B94B9FEDBA7A83ED000AB94BB7
:1017A800D3ED047AB84B67EE887AC3ED007AB74B6D
:1017B8001B8807EE903AF8EEE77AB54BC7EE277A22
:1017C8009FEDB47AC7EE877AC3ED007A0CF05EFF1E
:1017D8002046FF211C2214F0B2FE3D68AE4B0122C8
:1017E80015F0020F1A701FBF627003221A700222CE
:1017F80018BFA2706A0748BF1A784FF0000121701D
:1018080041BF511C19700321A1541A782046511C5C
:10181800C9B24FF01B0E15F00A0F1970964C00F85C
:1018280002E00CD004256554911CC9B20525655405
:10183800151D99490332D2B20D700621A154974C57
:1018480021688D0641BF1A78551C1D70072548BFB1
:1018580085540A0608D51A7809258554951C01323D
:10186800D2B21D700A2585548D4D95F805E00EF00D
:10187800EF02082A02D0BEF10E0F08D11A7802F141
:10188800010C83F800C04FF00B0C00F802C01A7866
:1018980011F4803F4FF00C0800F8028002F1010CAF
:1018A8001CBFDFF8F48102325FFA8CFC83F800C0B9
:1018B8001FBF88F80020704A4FF00E0802F80C800D
:1018C8004A0741BF1A7802F1010C83F800C04FF0B3
:1018D800100C48BF00F802C01A7802F1010C5FFA38
:1018E8008CFC4FF0120811F4806F83F800C000F8E8
:1018F80002800ED095F83082B8F1000F09D0DFF8D9
:101908009881023288F800205B4A4FF0130802F8E9
:101918000C808A0541BF1A7802F1010C83F800C0D7
:101928004FF0150C48BF00F802C0BEF1180F14D1D3
:101938001A784FF0160C00F802C002F1010C5FFA99
:101948008CFC4FF0170800F80C8002F1030C0232EF
:10195800D2B283F800C000F802E00A0341BF1A7847
:1019680002F1010E83F800E04FF0190E48BF00F8AD
:1019780002E0CA0541BF1A78511C19701A2148BFE4
:1019880081541A78511C1970142383540021982209
:10199800444814F0D4FD10F0EAFF434B4349DFF804
:1019A80024C11960424BB5F852214248CCF80010C6
:1019B80041491A800023414AD0F800E00B70B5F87D
:1019C800A011138093701FFA81FC0EF185028146E5
:1019D800DFF8F4803A48D8F800A0DFF8F0B020F833
:1019E80013C00AF5967A4BF823A00133122BCDF8D1
:1019F8001080EDD1D4F800A01AF4805F08BFB5F8C4
:101A0800A6C1A0F806C00EF1D50E1378B3B9937825
:101A180092F803C0634511D20BB1013B01E00CF110
:101A2800010392F801C003EB830303EB830303F57F
:101A380061730CF1040C9BB220F81C30043272451F
:101A4800E3D11AF0080F00F0078195F898010728EC
:101A580000F2FC80DFE810F008003C0043006E0054
:101A68008700A700A700E00045F2F05232E000BF6F
:101A7800200A002035FA8E3CB11A00205C0A0020AA
:101A88000AE81C41FC350020480A00200400002018
:101A9800F827002000401C46B01A00209834002087
:101AA800302C0020982B0020340F0020C02D00205F
:101AB800380F00207C210020860E00207C1A002090
:101AC800742B00206C1A0020781A0020D00E0020F9
:101AD80042F6F822894B1A8010F0F5FFB5E0874BE3
:101AE80042F6F8221A8009010A2391FBF3F1002338
:101AF800A1F5B061824A42F823100133122BF9D1C3
:101B0800804A81491160814A402013700AF04AFBDB
:101B1800002800F09B8095F8993190F90000002B7F
:101B280014BF0723062301228DE80C004021784AC0
:101B3800784B85E0714B42F6F8221A80714B764A51
:101B48001A60724B102240201A700AF02BFB0028F2
:101B58007CD001234FF0000C90F900006F4A8DE80B
:101B6800081040216AE0654B42F6F8221A80654B5E
:101B78006B4A1A60654B082240201A700AF012FB63
:101B8800002863D001234FF0000E90F90000654A49
:101B98008DE8084040214FF4E1330AF0D9F9624B4F
:101BA800C3F8B8014EE0554B604942F6F8221A8056
:101BB800564B5F4A4FF00C0E83F800E00023137079
:101BC8005C4A0B70062813700BD05B4B1B221A70F3
:101BD8005A4B83F800E05A4B05221A704FF4E13A49
:101BE80009E0554BDFF884A121221A70534B83F882
:101BF80000E0534B1870434B524A1A6040200AF0D9
:101C0800D1FA18B30121002390F900004E4A8DE85B
:101C18000A004021534613E03A4B4C4A1A603B4BAA
:101C28000A2240201A700AF0BDFA78B10122002376
:101C380090F900008DE80C00454A40214FF4E1334B
:101C48000AF086F9003018BF012028B9082008F0EA
:101C58001FFF2C4B3F4A1A602268530441BF2B4B8D
:101C680012211970274B44BF3B49196042F2010306
:101C7800134002F0010102F4005093B11F4B44F6E7
:101C8800206EA3F800E028B1204B082018701D4BE7
:101C98003248186029B11D4B0C211970194B304975
:101CA8001960100640F19F804FF0000BDFF8C0A0CC
:101CB8002C4B2D48C6F8BC315946152205938AF895
:101CC80001B0CAF804B0CAF808B014F038FC059B93
:101CD800DFF8A080053B5846C8F800300BF026FB1B
:101CE800049B02201B68CAF80C300AF05BFAC6464F
:101CF800002841D1802008F0CBFE6CE0840A002047
:101D0800B018002064000020259500084C340020FD
:101D1800FD970008A086010011950008519700085A
:101D2800F994000805970008080400203E180020D0
:101D38006519002064190020661900203D1800204C
:101D4800671900200D940008D9950008019400082F
:101D58008D9500088995000859950008799500081F
:101D680069950008362E0020C805002090D0030091
:101D780054280020742800209AF8013090F805C0F3
:101D8800C64A0C2101FB03214978614504D001337F
:101D9800DBB2042BF4D900238AF80130DEF80030D6
:101DA80090F900001B78002B9AF801304FF00C0EC8
:101DB8000EFB032214BF0321012153780091002256
:101DC800019202210AF0C4F8B54B1860002891D09E
:101DD80001200BF0ABFAD9F80000B24B00F5CB723A
:101DE8001A600DF04BFD236813F4007F0DF16809AC
:101DF80070D0DFF80CB3039BCBF80030AA4B5A69BC
:101E080042F480225A619A6942F001029A61039B66
:101E18001B88ADF8303002238DF83330039B4FF028
:101E2800010A58688DF832A00CA906F0A3F9DBF86E
:101E380000304FF000081A89D868ADF830200CA996
:101E48008DF8328006F096F9DBF800305046197D9F
:101E580010F0C0FFDBF80030186907F00BFDDBF865
:101E680000301B691A93484610238DF86D308DF8A1
:101E78006C808DF86EA010F047FCDBF800305B7DBD
:101E88008DF838300EA803238DF839308DF83A8054
:101E98008DF83BA010F01AFC049B844A1B683C3B5D
:101EA80013603B6843F010033B604FF4C873A6F817
:101EB800D6317F4BC8221A80E123A6F8D8317D4B52
:101EC8007D4A1A607D4B40F271121A807C4B4FF0AC
:101ED800FF321A607B4A7C4B13607C4A7C4F80330C
:101EE800136023680026D9033E7040F1B38010F0D8
:101EF8008FF8DFF810C2DFF8B0A1CDF814C040F2B7
:101F08002A334FF001081A4660463146049387F891
:101F1800008014F014FB6F4A6F491160DAF814203E
:101F28006E4F4FF0904042F40032CAF81420426AD3
:101F380022F00F024262426A032142F00602426224
:101F48004FF4807B02228DF835100CA98DF83420CF
:101F580003928DF83660CDF830B08DF8378007F0F1
:101F6800A7FEDAF81810039A41F40061CAF81810AD
:101F7800398821F45C710904090C39801D21F96242
:101F880038463A850EA93E866022C7F814800E921C
:101F9800ADF83E601096ADF84460ADF84660ADF817
:101FA8004860ADF84A60ADF83C8010F0D6FEBA69DA
:101FB80042F00802BA617A6C42F400427A64DAF8B4
:101FC800142042EA0802CAF81420AAF6E47A504615
:101FD80007F087FC484607F059FC049B404AADF8D7
:101FE80074308023DDF814C01A92494610221F93DA
:101FF80050464FF40053CDF86CC01C9223931E96A4
:10200800CDF880B021962296249607F04CFCFB6808
:1020180043F40073FB60DAF8003043F00203CAF8B7
:1020280000300BA80C238DF82C308DF82D808DF8FE
:102038002E608DF82F8010F049FB3146294B1A6825
:10204800294B43F8212001312029F7D10EF076FBE6
:102058000EF074FB23685A0540F18E80234F244B01
:10206800D7F80485C3F8008004200AF09BF80421FF
:10207800C7F808050AF072F81E4B87F80C05082007
:10208800C3F800800AF08EF81B4B1C4E186008211C
:102098000AF064F8002187F80D0535E098880108F2
:1020A800802100208C0F0020001002401C280020F6
:1020B800DC270020D42700205E836C3FE427002023
:1020C800D8270020881B0020702E0020CC2100205B
:1020D800E81A0020201F00208DFF0008002C014076
:1020E800342C014064770108EA1A00200804002013
:1020F8000C1700205C170020A81700202C170020C0
:1021080020280020E20500202C22304614F017FA7F
:102118008E2373704FF07C0BE0234FF07D0AF37031
:1021280086F800B086F82BA0924E2C22002130466B
:1021380014F005FA8A2373702020A023F37086F820
:1021480000B086F82BA0C7F810850AF02BF82021DC
:10215800C7F814050AF002F887F818051020C7F820
:102168001C850AF01FF81021C7F8200509F0F6FFB2
:1021780087F8240512F05AFC7F4A138823F040039D
:102188001B041B0C1380138823F038031B041B0C3F
:10219800138013889BB243F04003138000269F23CB
:1021A80032208DF838308DF839608DF83A608DF826
:1021B8003B600CF084F88DF86960704E4FF48057DE
:1021C8000422378548460EA910F060FAB7619DF8D9
:1021D8006A209DF86930120242EA03429DF86B308A
:1021E8001A43674B9A42674B17D008D866498A4208
:1021F8000CD001F51A4102318A4209D01CE063492A
:102208008A4205D001318A4207D015E0202200E039
:1022180080221A804FF4807202E04FF480721A8094
:102228005A809A88198812029A604A43DA60584A92
:10223800012182F8251504E000221A805A809A604C
:10224800DA60DE6816B3F60AB0464FF0000AB24507
:1022580009DA0AEB06077F10F802494610220EF049
:102268007FFB0F2807DC0DF05BFD494B4FEAC822C6
:10227800C3F828250AE0002359F82320013274D135
:102288000133042BF8D1B8463E46E0E72168414BBC
:1022980011F4002218BF01221A706B79052B02BFB6
:1022A8003D4B4FF4C8721A803C4B4FF47A721A8037
:1022B8003B4BC8221A803B4A137843F0080313703B
:1022C800394A137823F00203137040F602030B40D7
:1022D800A3B1364B364A1A60364B374803221A7078
:1022E800364B01221A70364A00231380354AB7EE5E
:1022F800000A4CF25031138008F027F823689B033A
:1023080041BF314B04221A71DA7844BF42F001020E
:10231800DA70AB6823602D4B01221A702C4A1378AF
:1023280063F07F0313702FB0BDEC068BBDE8F08F10
:10233800284A42F2107313805380274B5360274B6F
:102348009360274BD360274B1361274B53610324BA
:10235800FFF703B9B8F1010F7FF670A99846FFF7A8
:1023680027B900230B60FFF798B907F1010A374630
:102378008AE700BF601700200038004000040048CA
:1023880018BA200044000020152020001740EF0054
:1023980008040020690D0020460F00207036002038
:1023A80076360020301E00207B360020201A0020C0
:1023B800B22D002066350020441A00208900002034
:1023C8002C3500202E35002084210020C00C002050
:1023D800182A0020BC2600201D040108E902010873
:1023E80013040108D9020108B5FF000835FA8E3C2C
:1023F8001BB208EE103AB7F95E315FED047A384A3D
:1024080009EE103AB7F96031B8EEC88A08EE903A8A
:1024180028EE278AB8EEC99AF8EEE88A0021B0EECD
:10242800480A29EE279A68EEA78A117008F008FB77
:10243800F0EE409AB0EE480A08F0A0FAB0EE408AF2
:10244800B0EE490A08F0FCFAB0EE40AAB0EE490A2C
:1024580008F094FAF0EE40AAB0EE680A08F0F0FA34
:10246800B0EE409AB0EE680A08F088FA60EE296A81
:1024780068EE097AF0EE665AE7EEAA5A194B29EE89
:10248800296A28EE007AC3ED035AF0EE465A2AEE7E
:10249800400AE7EE6A5AE6EEAA7AA6EE6A7A29EECA
:1024A8000A9A83ED010A28EE4A8A2AEE290A83ED60
:1024B800009AC3ED02AAC3ED045A83ED058A83EDA1
:1024C800067AC3ED077A83ED080AFEF79CBEB8F1D9
:1024D800010F7FF6B3A84FF000083D70FFF775B8FD
:1024E80038000020FC1900202DE9F04FB14CB24E05
:1024F8002378B24D0E2B98BFB14A2DED0E8B9CBFA1
:10250800342101FB032391B098BF9F6A337C049662
:1025180088BF002793B923780E2B13D9002116E022
:1025280098470028F7D10BF0A3FEA64B1B68FB1AAF
:102538001844A54B1B6864339842ECD2EB68002B17
:10254800EED1F0E79E4A342101FB0323996A9F4CA0
:102558009F4BDFEDA08AA0488AB207EE902AF8EEDA
:10256800676AD4ED017A1A8026EEA87A9B4B01801F
:10257800F5EE407AF1EE10FA83ED007A04BF984B3D
:10258800636094ED016AD4ED007A37EE066A76EE60
:10259800E76A87EE067AE7EE267AC4ED007AFCEE63
:1025A800E77ACDED057ABDF81430A381D31A4380BC
:1025B8006B688C48984748B98B4A8C4D136813F060
:1025C800020F164640F01C8100F070BC00237F4DBE
:1025D800874F05F10E0232F9132047F82320013303
:1025E800032BF4D1384639462A7E6B6107F09CFBF1
:1025F80095ED078AB5EE408AF1EE10FA12D17D4BBF
:102608007D4E1A889846002A00F0B280D4F890309F
:102618001B78A6F1480908EE103AA6F13C054FF0E0
:10262800000B63E095F82030ABB96B616569674EC4
:10263800022D0DDC06F12403242000FB0530624B3B
:10264800B0EE480A1968013507F07FFE7561EDE7BD
:10265800012386F8203094F82030002BCFD05B4B34
:1026680000225A616569594E022DC8DC57F82520A9
:1026780007EE902A06F12403242000FB0530B8EE6B
:10268800E70A07F039FE14F069F947F82500013523
:102698007561E7E7D5ED006A07EE103A37EEE66AAE
:1026A800B8EEC77A86EE077A36EE877AD5ED026AF3
:1026B80085ED017A77EEC77A85ED007AE6EE276A2E
:1026C800F0EE667AC5ED036AC5ED026A00230129BA
:1026D80047F80A3046F80A302AD00BF1010BBBF153
:1026E800030F09F1040905F114054ED0B8F80010DC
:1026F80057F82B20B1F57A7F02BF0023C9F80030C4
:102708002B61D9F800301344C9F800302B6907EE63
:10271800902A0133012B4FEA8B0AF8EEE77A2B61F6
:10272800B8D10023C5ED017AC5ED007AAB60CDE7DD
:102738002B69012BC3BF03F1FF3300EE103AD5ED2F
:10274800037A9FED2E0AC4BFB8EEC00A87EE800A4E
:1027580014F0ECFA18EE103A63B1F8EEC87AB4EE59
:10276800E70AF1EE10FA05DD4FF47A73A8F80030A5
:10277800002314E0D9F800304FF47A7103F5FA73A6
:1027880093FBF1F346F80A30A7E7B8F800000128F0
:1027980001D10BF0DBFDB8F80030013BE6E757F854
:1027A800232056F82310521A47F823200133032B0D
:1027B800F5D101E784000020302C0020FC350020F2
:1027C8008C000020BC2700202C1E0020340900208B
:1027D80078360020BD378635600D00201036002081
:1027E80083F9223E42090020683500202036002067
:1027F800101E002070360020100A00200000000083
:10280800A94B1B78002B00F051830BF031FDD4F855
:10281800E830D4F8ECB0C4F8E800C31A9BF80070AC
:10282800A24809EE103A00234FEA430EDFF8B892A7
:102838009FB355F8232007EE902AF8EEE76AD0ED0B
:10284800017AB8EE497AF5EE407AF1EE10FA27EE01
:10285800287A0DD107EE907A9FED956AF8EEE77A1F
:1028680027EE866AF7EE007AC7EE867AC0ED017A1F
:1028780090ED016AD0ED007A37EE066A76EEE76AE7
:1028880087EE067AE7EE267AC0ED007AFDEEE77A63
:1028980017EE901A29F80E1003E055F8231029F8BE
:1028A80013100133032B00F10C00BDD1B9F80270ED
:1028B800B9F80050B9F804807E49306817FB07FA68
:1028C80015FB05AA18FB08AA642303FB0AF3B1F851
:1028D80000A001070AFB0AFA93FBFAFAAAF15203CD
:1028E800059306D5744A116819B1516809B19368FE
:1028F80073BB724B1A7802F0100169B310F0200311
:102908002AD002F002023AB36D4B1B78042B23D96C
:102918006C4B1B88B3F5967F1ED36B4BB3F9043011
:1029280007EE903A694B1B88B8EEE77A07EE903AC3
:10293800F8EEE77AB2EE048A87EE888A01264FF02D
:10294800000A77EE487A9FED628A27EE888A07E0C8
:1029580000264FF0010A01E00026B2469FED5D8A8D
:102968005D4994ED455A91ED026AF8EE497AB8EE60
:10297800C66A67EEA88AD1ED007AB8EEE77AD1ED9B
:10298800017A4D49F8EEE77A27EE05AA27EE85BACF
:1029980066EE05AA2BEE0B0AD1ED00DA91ED01EAFD
:1029A80091ED02DAAAEE0A0AAAEEAA0A14F0BEF912
:1029B800F0EE40CA16B3DFED497AB4EEE78AF1EEDD
:1029C80010FA04DDDFED3A7A38EE678AF3E7DFEDD7
:1029D800447AB4EEE78AF1EE10FA04D5DFED347AE2
:1029E80038EE278AF3E7B6EE000A28EE000A07F069
:1029F800C5FF9FED38CA30EE0CCA01E09FED35CA1D
:102A0800DFED34BA374EF7EE009ABAF1000F71D005
:102A1800F8EEEDDAB8EECE8A2DEEAD0AB8EECDDAE4
:102A2800A8EE080ADFED317AADEE0D0AB4EEE70A3A
:102A3800F1EE10FA5EDD14F079F989EE800AD6ED30
:102A4800017AD6ED006A28EE008A2DEE807A68EECB
:102A5800277A2DEE000AE6EE877AD6ED026AE6EED0
:102A6800807AD6ED046A28EE268AD6ED036AA6EEA9
:102A7800878A96ED057AA7EE008AB0EE6BDA28EE23
:102A8800080AA7EEA70A14F051F9D6ED067A20EE47
:102A9800480AA7EE80DAD6ED077AE7EE80BAD6EDD7
:102AA800087AA7EE80CA27E054360020240A0020BE
:102AB800DB0FC9400400002034280020301E00200D
:102AC8001817002014170020081E00201C0D0020D5
:102AD80035FA8E3C00000000101E0020DB0F494034
:102AE800DB0F49C040210020F61600200AD7233CFE
:102AF800C2B8B23EB0EE6BDA059B262B3ED82DB29B
:102B080007EE905A3FB2B8EEE78A07EE907A28EEC1
:102B1800080AF8EEE7DA0FFA88F807EE908AADEEC1
:102B2800AD0AB8EEE7EA5FED0F7AAEEE0E0AB4EE44
:102B3800E70AF1EE10FA21DD14F0F8F889EE800AC0
:102B4800D6ED076A96ED087A2EEE00EA6DEE80DA89
:102B580066EECE7A28EE008AEDEE877A27EE487A7E
:102B68003DEE27DAD6ED067AAEEE277A67EEED7AF5
:102B78007BEE87BAE8EE267A3CEE27CADBED017ACF
:102B8800F5EEC07AF1EE10FA4FF000021FDD1FEDEE
:102B9800287AF4EEC7CAF1EE10FA1ED567EE8D6AF0
:102BA80094ED467AA6EEA87A67EEAB6A84ED467A8B
:102BB80094ED477AA6EEA87A67EE8C7A84ED477A88
:102BC80094ED487AA7EEA87A84ED487A05E0C4F82F
:102BD8001821C4F81C21C4F82021D34DDBED027A5A
:102BE8002A7852070CD4D14A116844F61F629142E0
:102BF800B7EE005AB2EE047A98BFB0EE475A01E039
:102C0800B7EE005A27EE855AD4ED486A94ED467A15
:102C1800D4ED477ADFF84C83C54A98ED004ADFF8CF
:102C280048A3D2ED003AC34F0592E5EE0C6AA5EE33
:102C38000D7AE5EE2B7A3AEEA66AF6EE006A68EEB1
:102C4800A66A7BEE277A3AEE077A67EEA65A27EE4F
:102C5800267A66EE266A25EEC45A24EE260ADAEDAE
:102C6800007AD7ED004A9FEDB48AA7EEC75AA3EEC3
:102C7800870AB1EE646AA6EE265AA6EE250A26EE63
:102C8800E76A37EE800AA3EEA56A67EEA57A33EE07
:102C9800855AA4EE876AE3EEA67A8AED000A20EE4A
:102CA800000A34EE066AA5EE050AE4EE477AA6EEB7
:102CB800060A74EEA77A82ED005AA7EEA70A88EDF5
:102CC800006AC7ED007A14F031F889EE800A059A97
:102CD800D2ED007AD7ED009A67EE807AC2ED007ADD
:102CE800DAED007A67EE807ACAED007AD8ED007ADC
:102CF80067EE807A29EE800AC8ED007A87ED000A2F
:102D08000BF0C4FCD6ED080A96ED070A8B4F07F0C6
:102D1800C3FD20EE080A13F021FE96ED060A38805E
:102D2800B1EE400A07F085FDDFED857A37EEC00A7F
:102D380020EE080A13F012FED6ED000A96ED030AFB
:102D4800788007F0A9FDD4ED497AE0EE487AB0EE34
:102D5800670A13F003FE82B21304B9F90030D6ED06
:102D6800085AD4ED4A7A96ED010A96ED065A58BFEC
:102D7800BA8006EE103AB9F90230724A07EE103AF4
:102D8800B8EEC77AB8EEC66AF4EEE75AB9F9043075
:102D9800D6ED007A117827EE000A06EE903AA7EEF3
:102DA800860A44BF00F56160B880F8EEE66AD6EDA1
:102DB800027A9BF80130A7EEA60AD6ED077A67EEED
:102DC800277AF1EE10FAE5EE067ACCBF41F0080159
:102DD80021F00801012BE5EEA67A1170D6ED045A10
:102DE80027EE257AD6ED035AA5EE867A96ED056A82
:102DF800A6EE267AF1EE479A18D12B785F070FD402
:102E0800D4F82C31402293FBF2F29B1A07EE103AC9
:102E1800B8EEC77A37EE277ABDEEC77A84ED4B7ADB
:102E2800D4F82C31402293FBF2F301E0464B1B8887
:102E380094ED4C8A07EE103AB8EEC77A77EEC77A67
:102E480094ED4D7A38EE877A77EEC87AC8EE878A9D
:102E5800A8EEA78A84ED4C8A13F080FDD4F8385187
:102E68003A4C297807F0D6FC2368B0EE690A184472
:102E7800206013F073FD297807F0CCFC6368B0EE8E
:102E8800480A1844606013F069FD697807F0C2FCCD
:102E9800A3682F4A184419EE101A1368A060194441
:102EA80011602C4A13680133136003E000232B6080
:102EB8006B60AB60284BB3F90610284BD3F800E0E1
:102EC800BEF80A2091420FDBB1F5FA6F9EF8075061
:102ED800BDBF8B1A6B43A2F5FA65C5F16405BCBF8B
:102EE80093FBF5F5643500E06425049BB3F8A0C1B5
:102EF8001B4B1B680593049B059E93F962319BB29B
:102F080006930022144B33F91280CCEB080303F22A
:102F1800F31440F2E63084424FEA420926D8002BE7
:102F2800B8BF5B4224E000BF7B360020781A00203F
:102F3800400000203C2100204C3D0F44081E00208A
:102F4800DB0FC93F301E002004000020EC270020C2
:102F58005C360020E8270020742B00206035002014
:102F68007C21002038210020342100204FF4FA73FE
:102F7800022A04934FF06400059B2ED093F81D415C
:102F88002CB1049BA342CCBF1B1B00230493049BBE
:102F9800B44C93FBF0F76FF0630B34F817A00BFBFE
:102FA800073B0137B04B34F917400FFA8AF7E41B97
:102FB80004FB0BF494FBF0F4544423F809400EEBA3
:102FC8000204049B24796343A84C93FBF4F3643311
:102FD8009BB26B4393FBF0F030E093F81E412CB1A9
:102FE800049BA342CCBF1B1B00230493049BA04C4F
:102FF80093FBF0F06FF0630A0AFB003B04EB400719
:1030080004EB4000B7F93C71B0F93E01BDF8183047
:10301800C01B00FB0BFB9BFBFAFBC7EB0B0717FB6B
:1030280003F7914B9F80049B9EF80600002BB8BFC6
:103038005B4243438D4893FBF0F0643073788D4CCA
:103048006427434393FBF7F3A3548B4CF37A43432E
:1030580093FBF7F3A354737D834C5843874B90FB42
:10306800F7F0022A9854864B0ED1E0459F700EDB8C
:10307800844BB3F8A2219142984614DBB1F5FA6F5C
:10308800A8BF4FF4FA610FE0E0459D5404DA34F824
:1030980009305B4224F809300132032A06F101069F
:1030A8007FF430AFE4E71146774F6F4D891A4FF43C
:1030B8007A736FF063005943C2F5FA626423B1FB77
:1030C800F2F191FBF3F237F8126000FB02110132C2
:1030D80030B237F91220121A514391FBF3F33344FB
:1030E800E3806A4B1B885E0639D5694BDFED697A48
:1030F800B3F904300A2293FBF2F3674A12889B1A49
:103108001BB208EE103AB8EEC88A28EE278AB0EE4D
:10311800480A07F095FCF0EE408AB0EE480A07F03E
:103128002DFCB5F9023006EE903AB5F90030F8EE0C
:10313800E66A07EE903A20EE667AF8EEE77AA7EEAE
:10314800A87A67EE807ABDEEC77AE6EEA87A17EE1F
:10315800103AFDEEE77A2B8017EE903A6B804F4BD2
:103168001A78550703D54E4B08221A853DE04D497C
:103178000968C8075CBF42F001021A704A4A12780F
:10318800110758BF1A7849495CBF22F001021A702A
:10319800474A126812F0040F02D04648008870B9F6
:1031A8004548008808B1920709D4444A1288003279
:1031B80018BF01221AB942480088632806D902229A
:1031C8000A701A7822F001021A7005E01B78DF07EE
:1031D80056BF02230A700B700BF04AF8394B1B6874
:1031E800C01A002801DB06F0EFFE374B9B680BB1D5
:1031F8003648984798F89E31002B00F08F801C4B7A
:10320800B3F850019B89B0FBF3F0194B461CB6B2DA
:10321800A3F852612E4B1B78002B5BD0144BB3F8EC
:1032280054A10023124F34F813C007F5AF7E07F5F9
:10323800AB793EF8132039F813102EF813C0C2EBFF
:103248000C0B11FB0AF132B291FBF2F25A4429F845
:1032580013200133042BE5D11D4BA7F8540100229C
:103268001A703EE0A61B0020001E00200CFEFFFF87
:1032780034090020041F00207E0A00201C1F0020A3
:103288001C1E0020302C00208E1B0020A81A0020B5
:10329800081E002035FA8E3C860F00207B36002061
:1032A80000040048AC1A0020301E0020A01A00209C
:1032B8006835002076360020460F00207036002042
:1032C80064350020A41A0020FC350020820A002062
:1032D8001C100020944B944AB3F85431013BA2F8D7
:1032E8005431914AB2F8540103B2002B4FF0000355
:1032F80012DDB2F952618D4931F81320083112FB01
:1033080000F231F8131092FBF6F28A1A24F813200F
:103318000133042BEFD101E0A2F85431844B854FDF
:10332800DFF8589201221A703A6812F0080F3BD061
:10333800A088814900F10E039BB21C2B7F4BB3F987
:1033480004302DD87E4E3688760729D509880A2676
:1033580093FBF6F35B1A9BB29EB231B2B331BCBF9A
:1033680003F5B4739EB233B2B32BC4BFA6F5B473DE
:103378009EB2744B98F862111B781D0714D549B298
:10338800494216FB01F3D9F80010497A9BB213FBA6
:1033980001F36FF01D0193FBF1F31844A08003E0E3
:1033A8000A2093FBF0F30B8012F0140F5E4E6BD0E3
:1033B800634B1B8803F40273002B65D0614B1B78A9
:1033C80003F0100303F0FF0E4BB15F4B98F9002296
:1033D800B3F90010638801FB0233638054E0D6F828
:1033E80068215A4BD1785A489278B0F90000B3F95D
:1033F8000630F1B11D1A85EAE571A1EBE57191423C
:103408000DDD54498342C1F800E04FF0010186F810
:103418006C11C8BF5242E18892B20A4433E096F870
:103428006C311BB34C4B86F86CE11A684B4B1A6035
:103438001CE01B1A83EAE37EAEEBE37E96450ADDC9
:10344800022293FBF2F3464A1360464A01231370A3
:1034580086F86C310AE096F86C313BB13E4B86F841
:103468006C111A683D4B1A603E4B1970364BD6F8F2
:1034780070111B680A8849880344934203DB8B4216
:10348800A8BF0B461A46E280374B1B78ABB12F4BCF
:10349800B3F90620B8F8A2319A420EDC334B5B79B7
:1034A800012B01D0192B02D198F8F6212AB90E2B3D
:1034B80003D0082B1CBF0023A380D9F8003093F851
:1034C80024A1BAF1000F5FD01D4B1B889B075BD06E
:1034D800274BDFED287A93ED080AB4EEE70AF1EE00
:1034E80010FA4DD907F0A5F90F4BD3ED5D7A20EE10
:1034F800270A13F033FAB0F5617FA8BF4FF4617063
:1035080007EE900AB8EEE70ADFED1B7A80EE270A8D
:1035180007F034FA07EE90AAF8EEE77A27EE800A69
:1035280013F01CFA80B22CE0340900208A0A00202B
:103538001D10002068350020840F0020081E002080
:10354800A81A0020301E002014280020742B002008
:103558001E10002010280020CC170020082800206A
:10356800603600201828002002000020302C00209F
:10357800402100208FC2753CEFB6B0447C2100206A
:103588000020E3881844E0803B689F0640F1A9804A
:10359800BA4B1B8803F03003002B00F0A280B84B15
:1035A8001B78DD0740F19D80B64BDFEDB77AB3F9A4
:1035B8000430DFF818A30A2293FBF2F308EE103A5E
:1035C800B8EEC88A28EE278AB0EE480A07F0D6F97E
:1035D800F0EE408AB0EE480A07F032FAAB4BAC493D
:1035E8001B6893F803C0B0EE409AB2EE048ABCF1AF
:1035F800000F52D0DFF8D8B2B1F90200BBF8027060
:10360800CDF814C03BB2C01A04910CF0DBF8DDF819
:1036180014C00499CCF1000290425B4603DB60457C
:10362800A8BF604600E0104638441F8806921FFA7B
:1036380080FBB1F90000A3F802B039B2401A049334
:10364800CDF814C00CF0BEF8069A049B904205DB36
:10365800DDF814C060450246A8BF62461744BFB2F1
:103668001F803FB207EE107A0FFA8BF307EE903AFD
:10367800B8EEC70AF8EEE77A28EEC07A20EE090A13
:10368800A7EE897AA7EEA80A87EE087ABDEEC77A70
:1036980017EE103AAAF800301BE0B1F9023007EE35
:1036A800103AB1F9003000EE103AB8EEC00AB8EEA0
:1036B800C77A68EEC07A20EE090AE7EE097AA7EE23
:1036C800280AC7EE887AFDEEE77A17EE903AAAF84C
:1036D800003080EE080AFDEEC07A17EE903AAAF89C
:1036E80002306C4BD9F80000B8F8742100936A4B8B
:1036F8001F686A4B196800F16403B847684BDB78A8
:103708000493684B93F800E0674BBEF1030F16D99A
:10371800D6F878219788B7F5FA7F10D2B4F9040063
:10372800B3F904C080EAE075A5EBE07579424A1B5D
:10373800944503DB7A196245A8BF62469A805B4AC2
:10374800116811F0006109D1E4885F88B3F800C0FE
:10375800D6F87881B3F90490554875E10021B3F89B
:1037680002C0B3F80080B3F904A05248D6F87891A3
:103778000A460E46764539D299F9023090ED016A2B
:103788005B420AFB03F307EE903A0FFA8CF306EE5E
:10379800903A0FFA88F3B8EEE77A07EE903AF8EE27
:1037A800E77AF8EEE66A67EE867A90ED026AE6EE68
:1037B800867A09AF0FFA82FBD0ED036AE7EE267A24
:1037C800FDEEE77ACDED057ABDF8143027F816300E
:1037D8001FB25F4504DC0FFA81FB5F4502DB13462D
:1037E8001A460B46013610301946C3E7324BDFF84C
:1037F800E490521A196811F4805F92B298466BD01F
:103808002E4B1B7813F0040F2D4B02BFD3F8401238
:10381800098AA3F83C12D3F840322A491C8A2A4B59
:10382800CF88D3F800E02649BEF806303EB2E01A49
:10383800864205DCD9F80030BEF800601C8807E035
:1038480023449E4207DBD9F80030BEF802405E8868
:10385800A1F83C7245E0B1F93C328342D9BFBEF8C9
:103868000060D9F80030D9F80030BEF80240D5BF62
:103878001C885E883746274633E000BFA81A002018
:10388800301E0020081E002035FA8E3C8C0F0020C8
:1038980018100020C02D0020800000206035002076
:1038A8007C1A00201F1F0020641E0020AC1A002074
:1038B800B80A0020B00A0020983400207B36002087
:1038C80034090020742B0020B42000207236002018
:1038D80014100020B8200020D9F80030E7885E884E
:1038E8001C88DFF824A3BE49B0B21FFA84FBCBEBD7
:1038F800000312B21BB29A423EDD07EE902AB8EEE0
:10390800E78A07EE903AF8EEE77A012087EE888A90
:10391800087000229AF800108A4214D209A9079365
:1039280031F912300691059200EE103AB8EEC00A4D
:1039380020EE080A13F012F8059A0699079B21F859
:1039480012000132E6E7A74A9FEDA77AD2F878215C
:10395800527807EE902AF8EEE77AC7EE877AB4EE47
:10396800E78AF1EE10FA11DD022493FBF4F30BEB76
:103978000304A4B2264609E00226002392FBF6F2CD
:103988000BEB0204861A0B70A4B2B6B2D8F800305A
:103998009AF800B0D9F8001003F480530693914BBD
:1039A800B3F93C82D3F840320593904BD3F800C06A
:1039B80000225A4580F0038109AB33F812003BB26C
:1039C80007EE903A8A4B03EB021393ED007AF8EE78
:1039D800E77A23B267EE877AFDEEE77A17EE90EA88
:1039E8009E4503DB33B27345A8BF73460344049D69
:1039F80080489BB220F812304FEA420E1BB215B134
:103A0800B1F8049014E0069D85B1059DBCF806A0A8
:103A1800B5F81090CAEB0909C84504DCB1F8009064
:103A2800BCF800A006E0BCF8029001E0B1F80090F4
:103A3800B1F802A04B4503DB5345A8BF534699464E
:103A480020F80E900132B4E7714500F11000694B7F
:103A580030D298F9022050ED045A524209FB02F282
:103A680007EE902A0FFA8CF206EE902A22B206EEA2
:103A7800102A3AB2B8EEE77A07EE902AF8EEE77A1B
:103A8800B8EEC66A67EEA57A50ED065AE6EE257AD4
:103A9800F8EEE66A10ED056AE6EE867A50ED036AFE
:103AA800E7EE267AFDEEE77A17EE902A23F8112042
:103AB8000131C9E71A880121714514B207D233F9D7
:103AC80011209442B8BF1446A2B20131F4E74A4922
:103AD800D6F878910968D6F840C248888442C8BFA9
:103AE800101A464A176807F480520592444AB2F9F8
:103AF80006403E4A16683F4ACCBF80B2002007F015
:103B0800100703EB4E0A524559D01388059D1B1A1E
:103B18009BB222F8023B55B399F800E0BEF1000FC2
:103B28000AD1BCF81080B6F806E0CEEB080B5C456D
:103B380002DDC644744515DBBCF810E07445CBBF04
:103B4800B6F802E0B1F804E0B1F80280B6F80080F7
:103B58001BB2734503DB4345A8BF43469E4622F884
:103B680002ECD0E74445CCBF7388338824E0049D39
:103B7800B1F802E04DB132F9028C8B8898451BDB15
:103B8800F0454346A8BF734616E0B1F800801BB263
:103B9800434503DB7345A8BF7346984622F8028C59
:103BA800BCF812309C42AEDA0FB18B8804E099F869
:103BB8000030002BA7D10B8822F8023CA3E711495B
:103BC8000A7802F0040202F0FF038B46F2B10548BE
:103BD80090F84432013BDBB2182B00F2398121E026
:103BE800311E0020340900200000C842B420002003
:103BF800B00A0020541F0020B8200020983400206C
:103C0800742B00207B3600201F1F0020BA4A127830
:103C18009342DCD2B94931F81300B94921F81300AD
:103C28000133F5E701229A40B64B1340002B00F010
:103C38000F81B54BB5491B8813F4807F08D0B44B6E
:103C48001A88ADF824205A88ADF826209B8815E0FC
:103C5800B04B1A88ADF824205A88ADF82620AE4A11
:103C68009B881268ADF82830D40409D5D0F84022D2
:103C7800B1F90640128A944202DA5B42ADF8283064
:103C8800A64CB4F902304FF47A7203F5E16353435A
:103C98004FF4616093FBF0F3A3F5FA73ADF83C3091
:103CA800B4F9003003F5E1635A43954B92FBF0F207
:103CB8001B88A3F2DC53ADF82A30994BA2F5FA72AF
:103CC800D3F84032ADF83E201B8A0A88D21AADF8E4
:103CD8002C204A88D21AADF82E208A88D21AADF83C
:103CE8003020CA88D21AADF832200A89D21AADF823
:103CF80034204A89D21AADF836208A89D21AADF80A
:103D08003820CA89D31AADF83A300023854A0021F1
:103D180022F813100133082BF8D1834A834B126819
:103D28000492834A1B78126882490592824D0722C1
:103D380002FB0318414572D00B7833B103F1150229
:103D480001239340049A134065D011F806EC059BB3
:103D580011F805AC11F8034C11F801CCCEEBCE07E5
:103D680003EB47076420B7F90020B7F902309B1A24
:103D78009BB211F9022C4FEA53095A434FEA4A06FB
:103D880092FBF0F210A8C9EB020292B2064414B9F1
:103D980036F81C0C0CE0B5F9000036F91C6CB04282
:103DA80008DA0444844203DBA6423046A8BF204612
:103DB800288008E007DD041BB44203DB8442A8BF67
:103DC800044626462E80D7F80A4011F9046C0120D3
:103DD80000FA0AF02042288812B216FB00F014BF3D
:103DE8004FF0FF340124642690FBF6F090420ADB82
:103DF8004FFA8CF25A4392FBF6F2C9EB020212B266
:103E08008242A8BF0246474B33F81E9002FB049437
:103E180023F81E4000E02B80023507318AE7444B27
:103E2800464E1F6800250E2202FB057236F8023F37
:103E380092F90640E8B214FB03F3642493FBF4F40C
:103E480034800AF009FC01352044082D3080EAD17D
:103E5800314F344D3B68364E13F0200F32D00020DE
:103E68000AF0FAFB2880044601200AF0F5FB2E4BE5
:103E780068801B68190625D5294B284AD3F868326B
:103E88001B78012B22D13168138891F914E0B2F91B
:103E980002201EFB03F34FF0320C93FBFCF31FFAD6
:103EA80083FE91F906305B4253436FF0310193FB77
:103EB800F1F10EEB0102A11893FBFCF37344298086
:103EC80018446880D6F800E000233DE0D6F800E00A
:103ED80053889EF9061011FB03F1322391FBF3F18D
:103EE8002144298011889EF9142012FB01F292FBCB
:103EF800F3F21044E5E700BF1F1F002064210020F3
:103F0800541F002099209801A81A0020742B002023
:103F1800001E0020641E002098340020081E002087
:103F2800340900200C0D0020AC1A0020BC20002011
:103F3800D0210020C32000207A0B00200A0D002089
:103F48000133082B2A5311D00E2101FB03E135F967
:103F58001300B1F90020B1F9021090424FEA43046E
:103F6800EEDB0AB28242A8BF0246E9E7A64CD4F8C3
:103F780078A19AF90C30A3B994F8448208F1FF3378
:103F8800182B76D8DFE803F0397575537575754CBD
:103F980075757575755D7575757575536975755D27
:103FA8003900DFF884924FF0000839F9023F00EE3B
:103FB800103A964B242000FB0830B8EEC00A06F0F1
:103FC8009BF912F0CBFC33680E2280B202FB083258
:103FD800A9F80000B2F90030B2F9022000B2984204
:103FE80003DB13B28342A8BF034608F10108B8F106
:103FF800080FA9F80030D8D1BEE79AF8063013B1F7
:104008000020698908E09BF8003003F0040303F0FE
:10401800FF00002BF4D1014604F0A0F8012629E0A6
:104028000020E98804F09AF80120298905E0002099
:10403800298904F093F86989012004F08FF8022691
:1040480018E00226B01E35F81610C0B2013604F08A
:1040580085F8082EF6D106260CE00326F01E35F862
:104068001610C0B2013604F079F8072EF6D10426EE
:1040780000E000263B689A0602D4B8F1050F0AD181
:104088003046298804F06AF8701CC0B2698804F0C8
:1040980065F80236F6B23B68DB0205D494F88C3337
:1040A8007BB10AF021FA0CE0DFF880810025701955
:1040B800C0B238F8021F04F051F80D2DEED00135CA
:1040C800F5E7534B1878002840F0C3813B681D037F
:1040D80040F1BF814F4D2B78033B052B1FD84E4B2A
:1040E80093F8143833B1012B09D10BF057FEC0F106
:1040F8007F0004E0D4F8900303689B689847D4F8DD
:10410800943394F898231344B3F5807FA8BF4FF4F1
:1041180080738342D4BFC4F89433C4F894032B78D3
:10412800023B092B00F28581DFE813F00A00150035
:104138004B0082009800B100C3003C0159016401A2
:104148000023C4F89433C4F89C33344B1B68C4F878
:10415800A03303236CE1314B1A68D4F8A0336433DD
:104168009A4240F2668140200FF068F9002840F03A
:1041780060814FF040082A4BD4F89C23224F985C6A
:104188001E4678B108F054F9D7F89433013BC7F8C4
:104198009433D7F89C33B8F1010803F10103C7F849
:1041A8009C33E8D1D4F89C23174BB25C002A40F02A
:1041B8004081C3F89C234FF0FF32C3F8A0230423A7
:1041C80036E126230093174B019303F10C02029268
:1041D8004920A3F10A025021023308F019FD0028F2
:1041E80040F027813B684FF0FF3213F080030FBF88
:1041F800C4F89C33C4F89C03C4F8A023052304BF67
:10420800C4F8A023072313E134090020A00B0020E1
:104218007D360020690D0020302C0020781A0020FF
:10422800E8770108527801080A0D00207A2B00204F
:104238008A4A02230021009301910291482002F149
:10424800080308F0E5FC002840F0F3804FF0FF3346
:10425800C4F8A033C4F89C030623E9E0804B01931B
:1042680003F10C02072602920096A3F108024720E8
:104278000021043308F0CCFC002840F0DA804FF02D
:10428800FF33C4F89C03C4F8A0332E70D1E0754AFC
:1042980005230021009301910291532002F10803A4
:1042A80008F0B6FC002840F0C480C4F89C0308233A
:1042B800BEE040200FF0C2F8002840F0BA80D4F8E1
:1042C8009C330D2B00F2BB80DFE803F0070B0E12C6
:1042D80019202C31363A3E4C575B63480FF016FADA
:1042E8005AE0624862491AE062486349634A51E009
:1042F800634B644893F8121893F813284AE0624B0A
:10430800624893E8060008331B6833E05C4B60485A
:1043180093F8EC270C2101FB023393F8EE170FF00A
:10432800F5F939E0564B5B48B3F84411F7E7544BBD
:104338005948B3F84611F2E7584B59481969EEE75E
:10434800584B59481988EAE7D4F8A433D80404D557
:104358004B4B564893F88211E1E7554B0C22C3F8B2
:104368009C2319E0464B534893F8861193F887210C
:1043780093F885310FF0CAF90EE04F48B4F8A81346
:10438800CDE73B68190507D53D4B4C48B3F88A1172
:10439800B3F988210FF0BAF9D4F89C330133C4F883
:1043A8009C3346E0464B1B689A0115D5B4F8AC33EC
:1043B8003F4E8BB9D6F8B0330993424B0E201B6899
:1043C8000A9309A908F01EF94FF48053A6F8AA33F6
:1043D8000A232B7008F06EF908F0F6F829E094F833
:1043E800B433002BF6D0364B1B689B01F2D409235B
:1043F8002B70F1E7344B1A68D4F8A033C8339A42CB
:1044080004D91F4B93F814688EB904E00FF05CF8D8
:104418000028F6D10DE0D4F8900307F086FD94F853
:10442800B533C4F89063022B01D10EF0A0FA012332
:104438002B700FF033F860B101232B7009E00FF0F7
:1044480043F80028F5D04FF48053A4F8AA330A2380
:10445800EEE711B0BDEC0E8BBDE8F08F107A0108C5
:10446800287A0108747A0108089D0108229D01082C
:10447800379D01083F9D0108539D01085F9D010874
:10448800302C0020689D0108ACF7FF1F799D0108BA
:104498008D9D0108979D0108A69D0108FC35002007
:1044A800B59D010804000020C59D0108CF9D0108A5
:1044B80034090020DC9D0108F59D0108009E0108D3
:1044C800AC1A0020BC270020781A00202DE9F04FF4
:1044D8002DED028BA54EAFB034780096002C00F07D
:1044E800EE80A34B1868002802F0E78009F07EFEF2
:1044F800A04C206809F0D4FF002802F0DE80206874
:104508009D4C09F0CAFF092801D03F284FD14FF030
:1045180000082568994F46462DB1994839682A46BA
:1045280012F05AF810B9B84606B93E46954B1037FE
:104538009F42F1D33746EEB1D6F800C0D8F800A0B4
:1045480023681CF803E01AF80300704512D15A1CBE
:104558008B4958B92D2B09D8DFF81CE2CEF800207A
:104568004FF0200E01F803E0885403E001F803E05F
:104578002260E5E723680BB146450FD082480FF06B
:1045880099FE474507D857F8100B0FF093FE0920FE
:104598000FF02BFDF5E707F0AFFC002523689D42DF
:1045A800A6D2774B585D0FF020FD0135F6E723685A
:1045B800002B42F00780042842F0588070480AF027
:1045C8005BFB02F07AB8DFF8E8A1DAF8000009F03E
:1045D80067FF00285DD0DAF8000009F05EFFDBF81D
:1045E800003093F848100646002940F084802428BB
:1045F80040F0E280012283F84820DBF8002092F89E
:1046080048000628DFD192F84930502B01F033805A
:1046180000F2B481342B00F0348500F25181242B50
:1046280000F0C38600F21E81032B00F06E8240F278
:10463800F980052B40F00B811A200FF0C1FC4FF0D8
:104648000009524B13F8090009F101090FF075FC34
:10465800B9F10B0FF5D14FF000094D4B13F80900D4
:1046680009F101090FF069FCB9F1080FF5D14FF014
:104678000009484B13F8090009F101090FF05DFC26
:10468800B9F1070FF5D10FF067FC2B68002283F80A
:104698004820D8F8000009F0A9FD3F4B93F87E3078
:1046A8004BB1385907F036FC09F06EFF06F000FAF6
:1046B8003A4B3B4ADA604C34982C01F0FE87394F6C
:1046C800E359E219002BF6D0DFF8E490364DC9F82B
:1046D8000030079300238DF82130DFF8D8802A6056
:1046E8001423324A8DF8203006AB0692C8F8003001
:1046F800AB46019267E7012904D14D2814BF002277
:10470800022278E7022904D13C2814BF00220322A0
:1047180071E703290CD140284FF0000102D983F832
:1047280048106AE758711971D9719871042262E7C3
:10473800042907D1997983F8490080EA01029A711E
:10474800052258E705297FF458AF58791979884226
:10475800987906D970409871481C18710B441E72DC
:104768004BE7B0420CBF0622002244E77D3600200A
:104778005835002078350020C82100203C840108E5
:10478800982100201C8601081D9F0108539D0108DF
:104798005F9D0108379D0108EC0C002000ED00E04A
:1047A8000400FA05982B00204C350020B5E40008D9
:1047B8005435002050350020D9490B7803F0040304
:1047C80003F0FF0E002B7FF418AF232EDAF8000059
:1047D8001BD1009A029101231370D24B019A1860E1
:1047E800D14B1860986010201873D0485A6083F82D
:1047F8000DE004330360CE480FF05CFD07F07CFB4E
:1048080002990B7843F002030B70CA4B1B681B78A4
:10481800B34201BFC84BC94A1A60C94B04BFC94A51
:10482800DA60EAE6012B00F06481022B40F0B487DD
:1048380004200FF0C5FB43200FF07FFB4C200FF046
:104848007CFB46200FF079FB4C2000F08ABFC0F0BB
:104858008581222B40F0A08750200FF0B1FB4FF04C
:10486800000AEDE32C2B00F0CE8518D8282B00F099
:10487800B1852A2B00F0C185262B40F08D87B24EDA
:1048880006200FF09DFBB6F85C010FF09CFBB6F814
:104898005E010FF098FBB6F8600100F022BF302BE4
:1048A80000F05D86322B00F0F2852E2B40F07487E5
:1048B800A54E40200FF084FB06F1400A00F03EBEF2
:1048C800422B00F0FD8520D83A2B00F075820BD8DA
:1048D800362B00F01686382B40F05E8704200FF048
:1048E8006FFB994E00F067BD3D2B00F09882402B7E
:1048F80000F0D4853B2B40F04F8701200FF060FB80
:10490800924B1B68187800F02CBF492B00F093825B
:104918000FD8462B00F07286472B00F08386452B74
:1049280040F03A8713200FF04BFB4FF0000900F0DE
:10493800C6BE4D2B00F086854F2B00F0AE864B2B64
:1049480040F02A87804E08200FF03AFB96F8E001E5
:104958000FF0F3FA96F8E1010FF0EFFAB6F8E2017A
:104968000FF031FB96F8E4010FF0E7FAB6F8E6012C
:104978000FF029FB96F8E80100F0F3BE722B00F067
:10498800168455D8692B00F0F6812DD8652B00F0D8
:10499800228115D8522B00F08D86642B40F0FC86BE
:1049A80007200FF00DFBE7200FF0C7FA664B587988
:1049B8000FF0C3FA00200FF0C0FA042000F08DBEFB
:1049C800672B00F0528100F2C68112200FF0F8FA2E
:1049D8005F4B1B88B3F5806F8CBF4FF0080A4FF010
:1049E800010A4FF000091FE16D2B00F0DB8115D89B
:1049F8006B2B4D4E00F0538440F23084554E062008
:104A08000FF0DEFA30880FF0DEFA70880FF0DBFA6C
:104A1800B6F904300A2093FBF0F0FAE16F2B00F0AE
:104A28001182C0F0CE81702B00F0648200F0B4BE19
:104A38007D2B00F05A8629D8762B00F0408409D8BF
:104A4800742B00F0478340F2EB832F200FF0B8FA65
:104A5800414EEDE2782B00F01881C0F082837C2B68
:104A680040F09A86384E08200FF0AAFAB6F84C01A2
:104A78000FF0A9FAB6F84E010FF0A5FAB6F85001F2
:104A88000FF0A1FAB6F8520100F02BBEA42B00F0EB
:104A98003F8417D8962B73D0A02B00F078847E2BF8
:104AA80040F07A86284E03200FF08AFA96F85801CB
:104AB8000FF043FA96F859010FF03FFA96F85A01A9
:104AC80000F04FBEF12B00F02081FE2B00F04E8449
:104AD800F02B40F061861D4E04200FF071FA336808
:104AE800B3F866000FF06FFA3368B3F8640000F0AB
:104AF800F8BD03200FF064FA00200FF01EFA012021
:104B08000FF01BFA102000F02CBE18460FF058FAD0
:104B180001200FF012FA0C200FF00FFA00F0CDBDB3
:104B28007B36002078350020EC0C0020583500201A
:104B38004D9F010854340020FC9F0020EFBEADDEDD
:104B480000ED00E00400FA05302C00207C21002054
:104B580004000020081E00209B7A010806200FF0A0
:104B68002FFA53200FF0E9F952200FF0E6F946200A
:104B78000FF0E3F933200FF0E0F9002000F0B1BDA9
:104B88000E200FF01DFAC74B18880FF01CFA03F01F
:104B9800B0FD0FF018FAC44B1B68C3F3C000C3F391
:104BA8008002800040EA4200C3F340021043C3F38E
:104BB800401240EAC20003F0100318430FF003FA52
:104BC80005F028FA0FF008FAB84B93F8EC070FF045
:104BD800B4F9B74BEDE00B200FF0F2F9B14B1888A0
:104BE8000FF0F1F903F085FD0FF0EDF9AE4B1B68FE
:104BF800C3F3C000C3F38002800040EA4200C3F35D
:104C080040021043C3F3401240EAC20003F010030D
:104C180018430FF0D8F905F0FDF90FF0DDF9A34BB3
:104C280093F8EC0700F09DBDA24B33F9190090FBF7
:104C3800FAF009F1010980B20FF0C5F9B9F1030FD3
:104C4800F2D19D4E30880FF0BEF9B0880FF0BBF955
:104C580030899A4E0FF0B7F930880FF0B4F9B08860
:104C68000FF0B1F9308900F03CBD10200FF0A8F921
:104C78004FF00009924B13F8090009F101090FF0F0
:104C88005CF9B9F1100FF5D1FDE470200FF098F937
:104C98004FF0000B8B4E4FF00E09336809FB0BF9F0
:104CA8004B440BF1010BB3F825010FF08CF9336875
:104CB8004B44B3F827010FF086F933684B44B3F837
:104CC80029010FF080F933684B4493F82B010FF05A
:104CD80034F933684B4493F82C010FF02EF93368FC
:104CE8004B4493F82D010FF028F933684B4493F89F
:104CF8002E010FF022F933689944D9F82F010FF0EB
:104D08006BF9BBF1080FC5D1BDE47020674E0FF0F9
:104D180057F906F1700A96F8D4000FF00EF996F8D4
:104D2800D5000FF00AF996F8D6000FF006F996F8B4
:104D3800D7000FF002F996F8D8000FF0FEF896F8B1
:104D4800D9000FF0FAF8073696F8D3000FF0F5F807
:104D58005645E0D197E410200FF032F94FF00009E2
:104D6800594B33F8190009F101090FF02CF9B9F181
:104D7800080FF5D187E4554E3078400000F0FE006A
:104D88000FF01EF94FF00009B2469AF80030994525
:104D9800BFF479AC4E4B33F819000FF014F909F150
:104DA8000109F2E70FF00CF94A4B18680FF014F9F3
:104DB800494B188800F095BC04200FF001F9474BC7
:104DC800F1E207200FF0FCF8454B1888FF28A8BF30
:104DD800FF20C0B20FF0B1F8424B18684FF6FF79C8
:104DE8004845A8BF484620EAE07080B20FF0EBF8CB
:104DF8003D4B18880FF0E7F82C4B93F88D213B4B6F
:104E080018684AB10A2358434845A8BF484620EACB
:104E1800E07080B200F065BC00F30F00F9E7234EA4
:104E280002200FF0CDF896F8EC010FF086F896F80E
:104E3800EB0100F096BC02200FF0C2F81B4B9889DA
:104E480000F04FBC2A4E0B200FF0BAF833681878E0
:104E58000FF073F8336858780FF06FF84FF0000BC5
:104E6800B246DAF80030224E5B440BF1010B187998
:104E78000FF063F8BBF1030FF3D13368D8790FF063
:104E88005CF8336898780FF058F83368D8780FF0E2
:104E980054F8336858890FF096F83368187A00F098
:104EA80060BC00BF7836002068350020302C002018
:104EB80064350020F6160020101E0020342800203B
:104EC8000C0D00207C210020541F00204C340020B1
:104ED800742B0020CC170020FC160020D8270020B7
:104EE800681A0020241A0020D0170020101700206C
:104EF800603500201E200FF063F8D14B1A68127835
:104F0800022A4FF0000A994679D1D9F8003003EB0C
:104F18008A0393ED080AB2EE048A20EE080A11F01B
:104F28001DFD80F30800C0B20FF007F8D9F8003073
:104F3800DFEDC47A03EB8A0393ED0B0A20EE270A10
:104F480011F00CFD80F30800C0B20EF0F6FFD9F89E
:104F58000030DFEDBD7A03EB8A0393ED0E0A20EEF5
:104F6800270A11F0FBFC80F30800C0B20AF1010A1D
:104F78000EF0E3FFBAF1030FC7D1BAF1070FD9F862
:104F8800003025D193ED110A20EE080A11F0E6FC55
:104F980080F30800C0B20EF0D0FFD9F8003093EDCE
:104FA800120A20EE080A11F0D9FC80F30800C0B2FA
:104FB8000EF0C3FFD9F8003093F84C3000EE103AE9
:104FC800B8EE400A11F0CAFC80F30800C0B20DE048
:104FD800534458780EF0B1FFD9F800305344D87ACA
:104FE8000EF0ABFFD9F800305344587D0AF1010A9E
:104FF8000EF0A3FFBAF10A0FBFD1FFF744BBD9F8EF
:105008000030534458780EF098FFD9F800305344D4
:10501800D87A0EF092FFD9F8003053440AF1010A09
:10502800587D0EF08AFFBAF10A0FE8D1FFF72BBBC3
:1050380016F8010F00283FF426AB0EF07EFFF7E7C5
:105048007F4B1B6803EB8A09804B99F885200C215C
:1050580001FB02330AF1010A93F838000EF06DFFE4
:1050680099F886000EF069FF99F887000EF065FF41
:1050780099F888000EF061FFBAF1140FE0D1FFF73C
:1050880002BB48200EF09CFF4FF0000A6C4B1A68D8
:10509800062303FB0A290AF1010A99F8DA000EF03F
:1050A8004CFF99F8D5000EF048FF99F8D6000EF09D
:1050B80044FF99F8D7000EF040FF99F8D8000EF099
:1050C8003CFF99F8D9000EF038FFBAF10C0FDDD18A
:1050D800FFF7D9BA4FF0000A01264FF000095C4BE0
:1050E8001B78994534DA5B4B19F803E04FF0000B55
:1050F800564801900C2300F1300C03FB0BF313F816
:105108000CC0F44507D10344586B11F05CFA84468F
:105118003EB9334607E00BF1010BBBF11D0FE7D198
:1051280013E0824411E063450FDA019ACDF80CC010
:105138000C2000FB0B200293406BC05C0EF0FDFEC0
:10514800029BDDF80CC00133EDE709F10109C6E760
:10515800002E3FF498AA5FFA8AF00EF031FF00267D
:10516800BBE73B4E30780EF02BFF4FF00009B246FC
:105178009AF800309945BFF486AA364B19F803E02F
:10518800002132480C2200F1300C02FB01F313F825
:105198000C20724505D1034493F838000EF0CDFE7B
:1051A80002E001311D29ECD109F10109E0E72A4E9D
:1051B80016200EF005FFB6F8A0010EF004FFB6F8B1
:1051C80044010EF000FFB6F846010EF0FCFEB6F8FA
:1051D80048010EF0F8FEB6F8E2010EF0F4FE96F87B
:1051E80001020EF0AAFE00200EF0A7FE96F80202B9
:1051F8000EF0A3FE96F88D010EF09FFE96F89B0127
:105208000EF09BFE00200EF098FE0D4B1B680A2046
:10521800B3F9623093FBF0F080B20EF0D4FECAE02E
:1052280008200EF0CDFE4FF001095FFA89F009F170
:1052380001090EF082FEB9F1090FF6D1FFF723BA82
:105248007C2100200000C84200007A449C7A0108B2
:10525800B01A0020B11A0020302C002010200EF0C7
:10526800AFFED24BDFF88C93187800F002000EF0F6
:1052780064FECF4B18780EF060FED9F800000EF0EF
:10528800ABFED9F804000EF0A7FECA4B18880EF042
:105298009AFEC94B18880EF096FE308E21E2052042
:1052A8000EF08EFEC54B18880EF08DFEC44B188884
:1052B8000EF089FE96F8320000F0010051E20EF07F
:1052C8001FFE834612200EF07BFEBBF1000F01D1BA
:1052D800BC4B03E0BBF1100F04D1BB4BD3F800A0CB
:1052E8005E6801E00026B24658460EF026FE50469B
:1052F8000EF072FE30460EF06FFEB44B18680EF0DA
:105308006BFE00200EF05FFE00200EF05CFED4E184
:10531800AF4E96F8330080000130C0B20EF050FE58
:1053280096F833000EF009FE4FF00009B3469BF8DB
:1053380033309945BFF4A7A9A64E16F809000EF018
:10534800FCFD06F1100306F1300A13F809000EF00F
:10535800F4FD06F1200313F809000EF0EEFD1AF82B
:1053680009000EF0EAFD09F10109E0E708200EF056
:1053780027FE4FF00009984B33F8190009F101098D
:105388000EF021FEB9F1040FF5D1FFF77CB90C201E
:105398000EF016FE914B18680EF01EFE904B186822
:1053A8000EF01AFE8F4B186897E104200EF008FEE5
:1053B8008D4B986891E196F882010EF0BEFD96F843
:1053C80086010EF0BAFD96F885010EF0B6FD96F846
:1053D8008701C6E1844E07200EF0F2FDB6F8880179
:1053E8000EF0F1FDB6F88A010EF0EDFD96F88C018D
:1053F8000EF0A3FDB6F88E0173E101200EF0E0FD7A
:10540800794B5879ADE1784E0C200EF0D9FD96F81D
:1054180098010EF092FDB6F8A4010EF0D4FDB6F88E
:10542800A0010EF0D0FDB6F8A2010EF0CCFD96F862
:105438009A010EF082FDB6F8A6010EF0C4FDB6F88A
:10544800A8014EE1DFF8B091684E99F8000000EB32
:105458004000C0B20EF0B4FD4FF0000B99F80030D8
:105468009B4506F10206BFF40EA916F8020C0EF0D1
:1054780064FD16F8010C00EB800000EB800000F2E0
:10548800EE2080B20EF09FFD0BF1010BE6E7012044
:105498000EF096FD544B93F89B0162E108200EF044
:1054A8008FFD4FF00009504B4B4409F1010993F867
:1054B80090010EF042FDB9F1080FF4D1FFF7E3B8FF
:1054C800494E10200EF07CFD70790EF036FDB06864
:1054D8000EF082FD96F898010EF02FFDB6F85C01EB
:1054E8000EF071FDB6F85E010EF06DFDB6F86001C4
:1054F8000EF069FDB6F888010EF065FDB6F88A0170
:10550800EFE0334BDFF8E09093F87C00C0EBC0008D
:10551800C0B20EF055FD09F1280A99F808020023D7
:10552800334AD25C904200F020810C333C2BF7D1F7
:1055380009F10809D145F0D1FFF7A5B8B6F8C002BE
:105548000EF041FD96F8C2020EF0F7FC043696F80C
:10555800BF020EF0F2FC5645F0D1FFF794B8E020F8
:10556800214E0EF02DFD06F1800AB6F8420200F039
:105578003F000EF028FDB6F84202C0F386100EF088
:1055880022FD96F8400200090EF0D7FC96F840027A
:1055980000F00F000EF0D1FC043696F83D020EF034
:1055A800CCFC5645E1D1FFF76EB800BF301E002095
:1055B8001817002016170020141700208C17002039
:1055C8008E170020D4170020900F002008280020F4
:1055D800EC0C0020200D0020600D0020ACF7FF1F10
:1055E800B0F7FF1FB4F7FF1F302C0020DA2D002082
:1055F800583400201C1700204C3400200D200EF0D9
:10560800DFFC0BF079F9D94E40F00200C0B20EF081
:1056180094FC30880EF0E0FCF0680EF0DDFC0AF037
:10562800C9FA5AE00EF080FC824684200EF0C8FCCD
:1056380050460EF0D1FCCD4BDA680AF18003934254
:105648008CBFCAEB02094FF080090DF1380B0AF044
:1056580067FB50464A4659460BF082F94FF000095D
:105668008246D145BFF60FA81BF809000EF065FC6D
:1056780009F10109F5E7BE4E04200EF0A1FC012056
:105688000EF05BFC96F814080EF057FC96F812081A
:105698000EF053FC96F8130863E00B200EF090FC14
:1056A80000200EF04AFC00200EF047FC00200EF00F
:1056B80044FC0EE001200EF083FC002051E0AD4BCD
:1056C80013F8090009F101090EF037FCB9F10B0FC5
:1056D800F5D100200EF080FC00200EF07DFCFEF7D6
:1056E800D2BF0EF070FCFEF7CEBFA34E03200EF023
:1056F80067FC336893F81D010EF01FFC336893F8BC
:105708001E010EF01AFC336893F81F0129E040F2DD
:105718004D85F22B00F0D18540F2F985F32B40F04E
:1057280046870EF0EDFBFF28944E40F07F864FF041
:10573800000906F180004946602286F87F9010F043
:10574800FEFE8DF817909DF8173096F8E220DFF8E6
:105758002C929A4200F2FD8501200EF031FC99F856
:105768007F000EF0EAFBFEF78EBF0EF0E6FBB9F8FD
:105778000A020EF028FC99F80C020EF0DEFB99F8EC
:105788000D020EF0DAFB99F80F020EF0D6FB99F82D
:105798000E020EF0D2FBCBE6512B32D1774B93F8A9
:1057A8007D30012B28D80EF0ABFB714E86F814081B
:1057B8000EF0A6FB86F812080EF0A2FB86F8130876
:1057C8001AE000F27784CD2B00F0578240F25F8216
:1057D800D02B00F0B38340F2BD83D12B00F00784B7
:1057E800D22B40F0EB86664B1B7803F0040303F0E2
:1057F800FF09002B00F0398400200EF0E1FBFEF7D2
:1058080042BF00F23282372B33D153794FF0070968
:10581800B3FBF9F9C9EBC9029B1A13F0FF0F02D0C9
:105828000DF012FAE8E75FFA89F909F1FF395FFA32
:1058380089F9B9F1FF0FDFD00EF062FB5FFA80FB48
:105848004FFA8BF006F0D4FB06460028E8D080F823
:1058580000B00EF05FFB70800EF052FB30710EF05E
:105868004FFB70710EF04CFBF0710EF049FBB071FC
:10587800DBE700F238812B2B04D10EF041FB3C4BC7
:105888005871B9E700F28880252B07D1384B0022E0
:105898009A600EF049FB05F003F9ADE740D8232BD9
:1058A80040F08C860EF02CFB13288346B8D8DFF81E
:1058B800C8A0DAF800600EF023FB002231490C235F
:1058C800534301EB030E9EF838E0864524D10B4480
:1058D8000FFA8BFB06EB8B0993F8303089F885308B
:1058E8000EF00EFB89F886000EF00AFB89F8870097
:1058F8000EF006FB244B254A1A6089F88800244BD1
:10590800DAF8000018600021853006F0DBFC214B36
:1059180080F0010018706FE701321D2ACED17FE7B1
:10592800272B0DD10EF0F6FA114EA6F85C010EF0F9
:10593800F1FAA6F85E010EF0EDFAA6F860015BE751
:10594800292B40F03B860EF0E5FA094EA6F88801AF
:105958000EF0E0FAA6F88A010EF0D2FA86F88C0169
:105968000EF0D8FAA6F88E0146E700BF44000020E2
:10597800302C0020539D01087C210020EC0C0020D5
:105988007B3600209C7A0108800F0020742D0020AF
:105998009434002002000020312B34D10EF0B0FAEC
:1059A8001F2881463FF63CAF2B685B79082B7FF4B4
:1059B80037AF0EF0AFFACA4E09F1900906EB890A23
:1059C80000F03F00AAF802000EF0A4FABAF802307C
:1059D800800100F4FE501843AAF802000EF090FA75
:1059E800000106F829000EF08BFA16F8293000F0AD
:1059F8000F00184306F829000EF082FA8AF8010011
:105A08000CF006FBF8E63CD82D2B22D10EF078FAE4
:105A1800B34E86F898010EF07DFAA6F8A4010EF0B0
:105A280079FAA6F8A0010EF075FAA6F8A2010EF010
:105A380067FA2B6886F89A015B79082B7FF6DCAE4B
:105A48000EF068FAA6F8A6010EF064FAA6F8A80106
:105A5800D2E62F2B40F0B285DFF8849209F1400A94
:105A68000EF058FAA9F8C0020EF04AFA89F8C202F4
:105A78000EF046FA09F1040989F8BF02D145EFD1C1
:105A8800BAE6332B05D10EF03BFA954B83F89B0110
:105A9800B2E6352B40F092850EF032FA0B2882469A
:105AA8003FF6BEAE8F4B1E680EF02AFA03283FF66B
:105AB800B7AE062303FB0A6989F8DA000EF020FA6C
:105AC80089F8D5000EF01CFA89F8D6000EF018FAFD
