:020000040800F2
:1000000000500020A9590108495A01084D3E010835
:10001000495A0108495A0108495A010800000000DC
:10002000000000000000000000000000495A010824
:10003000495A010800000000495A010867DD00081C
:10004000495A0108495A0108495A0108495A010800
:10005000495A0108495A0108DD780008DB78000890
:10006000495A0108495A0108495A0108495A0108E0
:10007000F1DC0008DDDC00085DEC0008495A0108ED
:10008000C9DC0008B5DC0008495A0108495A0108D2
:10009000495A0108495A0108495A0108D978000803
:1000A000495A010829EA0008495A010839EA0008B2
:1000B0001DEA00080DEA0008FDE9000831680008A3
:1000C00035680008296800082D680008495A0108A9
:1000D000495A010851EC000845EC000839EC0008C9
:1000E00075DD0008495A0108495A0108000000005E
:1000F0000000000000000000000000000000000000
:0C01000000000000000000005FF808F1A3
:100110002DE9F04FA84C97B02378A84E0E2B9FBF27
:10012000A74A342101FB03239D6AA64B88BF002503
:100130001B7C93B923780E2B13D9002716E0984720
:100140000028F7D10DF0DEFD9F4B1B68EB1A184419
:100150009E4B1B6864339842ECD2F368002BEED1BF
:10016000F0E7974A342101FB03239F6A984BBDB205
:100170001D80284614F050FE9649824614F0A4FED5
:10018000954C964B804618600021606815F030F859
:1001900008B1934B63604046616814F08DFD0146E1
:1001A000404614F045FFD4F800908046494650463A
:1001B00014F080FD0146404614F086FE0146484694
:1001C00014F07AFD206015F06BF8864B80B22D1A82
:1001D000A0811F805D8084487368984748B9834B2D
:1001E000834E1A68049312F0020F40F0218100F050
:1001F00017BE0023784D7F4E05F10E0232F9132011
:1002000046F823200133032BF4D16B617A4B30463F
:1002100031461A7810F0C6FBD5F818800021404608
:1002200014F0E6FF78B1754F3B88002B00F0B680E4
:10023000D4F88C30DFF8C8811B7808F10C050493E2
:100240004FF000096FE02B7F9BB96B616569624FCE
:10025000022D0CDC07F12003242101FB05315B4B4F
:1002600040461A68013507F09CFF7D61EEE70123E7
:100270003B77237F002BD6D0574B00225A6165690C
:10028000554F022DCFDC56F8250014F0C9FD07F1BB
:100290002003242101FB053107F050FF17F0BEFEBB
:1002A00046F8250001357D61E9E7D5F800C00893DF
:1002B0006146CDF818C0079014F0FCFC089B8346FB
:1002C000184614F0ADFD0146584614F0B1FEDDF8B5
:1002D00018C00146604614F0EFFC0346079A194621
:1002E00068601046069314F0E5FC0146584614F089
:1002F000EBFDA96814F0E0FC069BE8602B60A860A9
:10030000DFF800B1002346F80A304AF80B30059BAD
:10031000012B26D009F10109B9F1030F08F10408F6
:1003200005F1140570D03B8856F82900B3F57A7FA3
:10033000059302BF0023C8F800302B61D8F80030C5
:100340004FEA890A0344C8F8003014F069FD2B69AC
:100350000133012B2B61A8D1002368602860AB60BA
:10036000CEE72869012807DD013814F059FD014660
:10037000E86814F05DFE00E0002018F015F8049A1B
:1003800072B10590104614F04BFD059B01461846CE
:1003900014F056FF20B14FF47A733B8000233BE00A
:1003A000D8F800304FF47A7203F5FA7393FBF2F346
:1003B0004BF80A30AEE700BF780300207419002024
:1003C0006C000020D42D0020FC270020301A0020D3
:1003D0004A360020BD378635E4080020042B002073
:1003E00083F9223E080D0020F2080020281A002080
:1003F000F4350020242100209D19002044360020DF
:1004000074090020BC0900203888012801D10DF0B2
:10041000DFFC3B88013BC0E7964956F8232051F8A2
:100420002310521A46F823200133032BF4D1D6E6C9
:10043000914B1B78002B00F0F3840DF063FCD4F893
:10044000E4308E4DC31A0693D4F8E830C4F8E400C3
:100450001F7805934FF0000A4FEA4A030793002FD5
:100460003AD056F82A0014F0DBFC8346069814F0C4
:10047000D3FC834914F028FD00218146686814F0FC
:10048000B7FE58B1384614F0CBFC7E4914F01CFD81
:1004900001464FF07E5014F0CBFD68604846696815
:1004A00014F00AFC0146484614F0C2FDD5F800805D
:1004B00081464146584614F0FDFB0146484614F07B
:1004C00003FD0146404614F0F7FB286014F0C2FE1D
:1004D0006D4A079BD05204E056F82A106A4A22F867
:1004E0001A100AF1010ABAF1030F05F10C05B3D194
:1004F0006549B1F802A0B1F800900FFA8AF25243B0
:100500000FFA89F303FB03228B8864210993BDF959
:10051000243003FB032301FB03F25C4B1B885B438A
:1005200092FBF3F3523B0B93049B1B68180706D511
:10053000574A116819B1516809B192687ABB554A96
:10054000127802F0100101F0FF0561B313F02005ED
:1005500029D002F0020303F0FF0523B34E4B1B78B2
:10056000042B1FD94D4B1B88B3F5967F1AD34C4BE8
:100570000026B3F9040014F053FC4A4B05461888D2
:1005800014F04EFC484914F053FD0146284614F07F
:1005900091FB464914F098FC0125804606E00025B1
:1005A000012601E000252E464FF00008069814F0C1
:1005B00033FC334914F088FC3D4FD4F810410490CB
:1005C000386814F02DFC214614F07EFC0790786802
:1005D00014F026FC214614F077FC0890B86814F05B
:1005E0001FFC214614F070FC294A83460798536883
:1005F00001460A931768946814F066FC0C900898FA
:10060000014614F061FC0C9A0146104614F054FBAC
:1006100059460C90584614F057FC0C9A0146104667
:1006200014F04AFB17F0C0FE0C90002D46D0404657
:10063000204914F005FE28B14046124914F03AFB57
:100640008046F4E740461C4914F0DCFD28B14046E2
:100650000C4914F031FB8046F4E74FF07C514046E2
:1006600014F032FC08F0E4F8002114F025FB0546F4
:1006700025E000BFBC09002028360020D00900205A
:10068000BD378635DB0FC940FE0F00200800002073
:100690006C28002040210020201000201C10002089
:1006A0001C210020C40C00200000204135FA8E3CA3
:1006B00024210020DB0F4940DB0F49C00025002E1C
:1006C00000F0A180384614F0ABFB07460A9814F0FE
:1006D000A7FB0646204614F0A3FB394604463846DD
:1006E00014F0F2FB31468046304614F0EDFB014633
:1006F000404614F0E1FA21468046204614F0E4FB1F
:100700000146404614F0D8FAA349804614F098FDFB
:10071000002878D0404617F047FE01464FF07E5043
:1007200014F086FC80463846414614F0CDFB414625
:100730000A90304614F0C8FB41460646204614F0A5
:10074000C3FB964F044639680A9814F0BDFB7968DC
:100750000D90304614F0B8FB0D9B0146184614F07E
:10076000ABFAB9680D90204614F0AEFB0D9B014624
:10077000184614F0A1FAF9680D900A9814F0A4FB39
:1007800039698046304614F09FFB0146404614F01C
:1007900093FA79690646204614F096FB01463046E6
:1007A00014F08AFA0D9B04461946184614F08CFB87
:1007B00021460646204614F087FB0146304614F0D9
:1007C0007BFA17F0F1FD0146204614F07DFB00F1A5
:1007D0000048B969404614F077FB002114F06CFA28
:1007E000F9690646404614F06FFB002114F064FAE4
:1007F000396A0446404614F067FB0146284614F067
:100800005BFA054601E0002426460B9B262B00F2EE
:1008100086800FFA89F014F003FB81460FFA8AF004
:1008200014F0FEFA0746BDF9240014F0F9FA49461F
:100830008046484614F048FB39468246384614F054
:1008400043FB0146504614F037FA41468246404683
:1008500014F03AFB0146504614F02EFA4E498246F7
:1008600014F0EEFC00285AD0504617F09DFD0146CA
:100870004FF07E5014F0DCFB82464846514614F09F
:1008800023FB51468146384614F01EFB514607466D
:10089000404614F019FB414B82461A6A384611460D
:1008A000D3F81C800A920B9314F00EFB414609907A
:1008B000504614F009FBDDF824C00146604614F0F0
:1008C000F9F90146304614F0F7F90B9B06469B698F
:1008D00050461946099314F0F7FA0A9A82461146CF
:1008E000484614F0F1FA0146504614F0E3F9014687
:1008F000204614F0E1F941460446484614F0E4FA73
:10090000099B80461946384614F0DEFA01464046F7
:1009100014F0D0F90146284614F0CEF90546059B9F
:100920004FF00009D3F804804946404614F088FC93
:100930001B4F002838D00C981A4914F063FC00288B
:1009400038D03146404614F0BFFA049914F0BCFA8E
:100950000146D7F8140114F0AFF92146C7F8140185
:10096000404614F0B1FA049914F0AEFA0146D7F8F3
:10097000180114F0A1F92946C7F81801404614F0EF
:10098000A3FA049914F0A0FA0146D7F81C0114F058
:1009900093F9C7F81C010DE00AD7233CD0230020AF
:1009A000E4080020C2B8B23EC7F81491C7F8189105
:1009B000C7F81C91059B9868064B1B78590705D40E
:1009C000054B1A6844F61F639A4207D94FF07E51CF
:1009D00005E000BF53360020A0260020A34914F0F4
:1009E00073FA3146804614F06FFAD7F8141114F0F8
:1009F00063F90146079814F05FF921460646404620
:100A000014F062FAD7F8181114F056F90146089854
:100A100014F052F929468146404614F055FAD7F8A9
:100A20001C1114F049F90146584614F045F94FF0ED
:100A30007C510546049814F047FA04463046214696
:100A400014F042FA21460646484614F03DFA214683
:100A50008046284614F038FA854B8246D3F8009039
:100A6000844B31461F68844B09F100401D6814F027
:100A70002BFA41460790384614F026FA079B0146A8
:100A8000184614F017F951460790284614F01CFA3E
:100A9000079B0146184614F00DF9784C0146D4F82E
:100AA00000B0584614F008F93146206009905846C5
:100AB00014F00AFA51460790384614F005FA079BDD
:100AC0000146184614F0F8F841460790284614F0FD
:100AD000FBF9079B0146184614F0ECF8014648461E
:100AE00014F0EAF8624B414618600890584614F03A
:100AF000EBF951460790484614F0E6F9079B01468A
:100B0000184614F0D7F831460790284614F0DCF95F
:100B1000079B0146184614F0CFF80146384614F0FA
:100B2000CBF8544A514610600790584614F0CCF95F
:100B300041468246484614F0C7F90146504614F033
:100B4000BBF831468046384614F0BEF901464046AF
:100B500014F0B0F80146284614F0AEF8DDF824C0D1
:100B6000454B614618600546604614F0ADF9089A99
:100B700006461146104614F0A7F90146304614F017
:100B80009BF8079B06461946184614F09DF9014646
:100B9000304614F091F829460646284614F094F998
:100BA0000146304614F088F817F0FEFB01464FF07E
:100BB0007E5014F03DFA05462068294614F084F969
:100BC0002B4B20602946186814F07EF9284B2946E3
:100BD0001860284B2A4C186814F076F9254B2946E2
:100BE0001860254B274D186814F06EF9224B1860D9
:100BF0000DF0E2FA216AE06907F098FD224914F04D
:100C000063F917F00BFA2880A06900F1004007F0A3
:100C100050FD01461D4814F04DF81B4914F054F9DD
:100C200017F0FCF921686880E06807F07FFD16493D
:100C300000F1004014F048F9154B196814F03CF825
:100C400017F0ECF983B21A044ABF00F56160AB807B
:100C5000A880266A0F4D3046D5F8201114F0F0FA1E
:100C60000D4B1A78D0B142F0080219E00000204183
:100C7000C4230020C8230020CC2300202C00002007
:100C8000D02300201C2100204C3D0F44DB0FC93F26
:100C9000401A0020E40800204021002022F0080231
:100CA000964F1A70B7F9000014F0BAF88146B7F9F8
:100CB000020014F0B5F88046B7F9040014F0B0F85B
:100CC00021680746484614F0FFF8616882464046AE
:100CD00014F0FAF80146504613F0EEFFA168824680
:100CE000384614F0F1F80146504613F0E5FFA169CB
:100CF0008246484614F0E8F8E1698346404614F01D
:100D0000E3F80146584613F0D7FF3946834630468C
:100D100014F0DAF80146584613F0CEFFE1680646B3
:100D2000484614F0D1F821698146404614F0CCF8C9
:100D30000146484613F0C0FF61698046384614F00A
:100D4000C3F80146404613F0B7FF059B00F100478A
:100D50005B78012B18D16A4B1B785B070ED4D5F852
:100D60002401402390FBF3F3C01A14F059F83146E4
:100D700013F0A2FF14F06EFAC5F82401D5F824018F
:100D8000402390FBF3F001E05E4B188814F048F824
:100D90000146304613F08EFFD5F82C110646049814
:100DA00013F08AFF0146049814F042F9D5F828415F
:100DB00080462146304613F07DFF0146404614F040
:100DC00083F80146204613F077FFC5F82801064650
:100DD000504617F023F9D5F830514B4C297807F0DD
:100DE00059FC236818442060384617F017F9297811
:100DF00007F050FC636818446060304617F00EF945
:100E0000697807F047FCA368404A184406991368BC
:100E1000A060194411603E4A13680133136003E077
:100E2000002333607360B3603A4BB3F906103A4B5A
:100E3000D3F800E0BEF80A2091420FDBB1F5FA6F5B
:100E40009EF80750BFBF8B1A6B43A2F5FA6593FB60
:100E5000F5F5ACBFC5F16405643500E064252F4BA2
:100E60002F4AB3F8A0C193F9623112689BB2049281
:100E700016460593002240F2E630264B4FEA42091F
:100E800033F91280CCEB080303F2F314844203D845
:100E9000002BB8BF5B4201E04FF4FA73022A049CB6
:100EA0004FF0640044D094F81D411CB1A342CCBF64
:100EB0001B1B002393FBF0F71A4C6FF0630B34F805
:100EC00017A00BFB073B013734F917400FFA8AF7DD
:100ED000E41B04FB0BF494FBF0F4134F544427F889
:100EE00009400EEB020424796343104C93FBF4F3A6
:100EF00064339BB26B4393FBF0F046E0FE0F00209F
:100F000053360020080000202C2800203036002016
:100F100028280020182D00208C1A0020D42D002015
:100F2000F81A002026220020142100200CFEFFFFCA
:100F300094F81E411CB1A342CCBF1B1B002393FBA2
:100F4000F0F0AD4C6FF0630A0AFB003B04EB400786
:100F500004EB4000B7F93471B0F93601002BA0EB77
:100F6000070000FB0BFB9BFBFAFB0598C7EB0B078D
:100F700007FB00F7A148B8BF5B4287809EF80600D8
:100F800043439F4893FBF0F06430737864274343F6
:100F900093FBF7F39B4C022AA354F37A9A4C00FB81
:100FA00003F393FBF7F3A354737D944C00FB03F01E
:100FB00090FBF7F0954B9854954B0DD1E0459F7001
:100FC0000DDB944DB5F8A221914214DBB1F5FA6F17
:100FD000A8BF4FF4FA610FE0E0459D5404DA34F8FD
:100FE00009305B4224F809300132032A06F1010678
:100FF0007FF441AFE5E71146891A4FF47A735943FC
:10100000C2F5FA62B1FBF2F1642391FBF3F2DFF86F
:1010100054E26FF063003EF8127000FB02110132DF
:101020003EF9122038B2121A514391FBF3F33B44BC
:10103000E380794B714E1B885F063FD5774B0A20C2
:10104000B3F9043093FBF0F0754B1B88C01A00B263
:1010500013F0E6FE734913F037FF074607F05CFC18
:101060008046384607F0E4FB0746B6F9020013F065
:10107000D7FE8146B6F9000013F0D2FE4146824603
:1010800013F022FF39468346484613F01DFF014600
:10109000584613F00FFE14F0DDF841463080484604
:1010A00013F012FF39468046504613F00DFF0146FB
:1010B000404613F001FE14F0CDF870805A4B1A78B8
:1010C000500703D5594B08225A613CE0584909683A
:1010D000C9075CBF42F001021A70564A564912789D
:1010E00012075EBF1A7822F001021A70534A126882
:1010F00012F0040F02D05248008870B9514800889D
:1011000008B1970709D4504A1288003218BF01224B
:101110001AB94E480088632806D902220A701A7844
:1011200022F001021A7005E01B78DE0756BF022389
:101130000A700B700CF0E6FD454B1B68C01A0028C6
:1011400001DB0DF07BFF434B9B680BB14248984796
:1011500095F89E31284F002B00F08880BB89B7F8A6
:101160004801B0FBF3F03D4B461C1B78B6B2A7F824
:101170004A611BB3B7F94CA10023DFF87CE034F8D7
:1011800013800EF5AB7C3CF813200EF5A779C2EB6B
:10119000080B39F913202CF813800AFB02F132B244
:1011A00091FBF2F25A4429F813200133042BE4D1C5
:1011B0002A4B00221A70AEF84C0104E0B7F84C310B
:1011C000013BA7F84C310C4A0023B2F94C0100282E
:1011D0004ADDB2F94A612249A1F1080232F913202D
:1011E00031F81310424392FBF6F28A1A24F81320C6
:1011F0000133042BEFD139E0E40800201421002052
:101200000CFEFFFFDC2A0020260A0020F42A002022
:1012100030210020D42D0020D02600201C210020C9
:10122000220F002035FA8E3C53360020000C01407E
:10123000D426002040210020C8260020281A0020A3
:101240004C360020E20E0020443600200A27002001
:10125000CC260020741900202A0A0020B80F002094
:101260003A0A00200E220020A2F84C31A74EA84BCB
:101270003168012208071A7041D5A088DFF8E8E23A
:1012800000F10E039BB21C2BA24BB3F9043031D8F2
:10129000A14A128852072DD50A2293FBF2F2BEF81A
:1012A0000030D21A92B293B20FFA83FE1EF1B30F3E
:1012B000BCBF02F5B4739BB2DFF864E21AB2B32A82
:1012C0009EF800E0C4BFA3F5B4739BB21EF0080FF4
:1012D00095F8622113D052B2524253438F4A1BB247
:1012E0001268527A53436FF01D0293FBF2F31844D5
:1012F000A08004E00A2293FBF2F3AEF8003011F074
:10130000140FDFF8689271D0834B1B8803F40273CB
:10131000002B6BD0824B1B7803F0100303F0FF0E01
:1013200043B1804B95F900121A68638801FB0233C0
:1013300063805BE0D9F860317B4AD9787B489B7841
:1013400029B3B0F90010B2F90600421A002AB8BF5A
:1013500052429A420EDD764A8842C2F800E04FF0CF
:10136000010289F86421C8BF5B42E2889BB2134442
:10137000E3803BE099F864312BB16E4B89F864E16E
:101380001A686D4B1A60674B1B680B4423E0B0F979
:101390000000B2F90620121A82EAE27EAEEBE27E8B
:1013A0009E450ADD022392FBF3F2644B1A60644A05
:1013B0000123137089F864310AE099F864313BB174
:1013C0005C4B89F864111A685B4B1A605C4B1970AE
:1013D000544B1B680344D9F868110A884988934222
:1013E00003DB8B42A8BF0B461A46E280554B1B78A5
:1013F000ABB14D4BB3F90620B5F8A2319A420EDCE1
:10140000514B5B79012B01D0192B02D195F8F621B4
:101410002AB90E2B03D0082B1CBF0023A3803F4BFF
:101420001B6893F824A1BAF1000F2FD03A4B1B8808
:101430009B072BD0454B4649D3F82080404613F0FC
:10144000EBFEF8B9404607F034F9D7F86C1113F009
:101450003BFD16F0E3FDB0F5617FA8BF4FF461706E
:1014600013F0DEFC3B4913F0E3FD07F0E1F907461A
:10147000504613F0D5FC394613F026FD16F0CEFD8C
:1014800080B200E00020E3881844E08033689F06C3
:1014900040F1CD80204B1B8803F03003002B00F07F
:1014A000C6801F4B1B78DE0740F1C180194BB3F992
:1014B00004000A2390FBF3F013F0B2FC264913F06A
:1014C00003FD064607F0B4F98046304607F024FADB
:1014D000224B07461B68224AD978224E002973D036
:1014E000DFF88CB0B2F90200BBF802A005910FFA48
:1014F0008AF3C01A04920CF06DFF0599049A4B42CE
:10150000984237DB8842A8BF084634E0281A0020FA
:10151000B90F00201C210020D0260020F81A00203E
:101520004021002054280020182D0020BA0F002050
:1015300050280020D41000204828002034360020F5
:101540005828002006000020D42D0020D0230020A1
:101550008FC2753CEFB6B04435FA8E3C280F0020A0
:101560003A0F002046360020200F0020E40800201B
:10157000360F00201846BBF800C08244B2F90000C4
:101580000FFA8CF21FFA8AFA801A0693CDF810C06F
:101590000591ABF802A00CF01DFF069BDDF810C012
:1015A000984204DB059903468842A8BF0B46634472
:1015B0009BB2ABF800300FFA8AF0049313F030FCC2
:1015C000049B834618B208E0B2F90200049213F0BB
:1015D00027FC049A8346B2F9000013F021FC394637
:1015E0008246584613F070FC41460490504613F072
:1015F0006BFC049B0146184613F05CFB9C4913F0FE
:1016000017FD13F027FE41463080584613F05CFC6E
:1016100039468046504613F057FC0146404613F0C9
:101620004BFB934913F004FD13F014FE7080914BB3
:10163000B5F874211868904B0093904B1D68904B3F
:10164000196800F16403A8478E4B8F49DB78049337
:101650008E4B1E78032E15D9D9F870319D88B5F5BB
:10166000FA7F0FD2B4F90400B1F904700028B8BFB2
:1016700040426A42131A9F4203DB2B18BB42A8BFA9
:101680003B468B80824B1B6813F000620BD1D9F86C
:101690007001E3884F88B1F800800590B1F904A08B
:1016A0007C4D144669E10B88002705933D46D9F827
:1016B0007031B946B1F802A0B1F904B0DFF8F48195
:1016C0000693B14541D20FFA8AF013F0A9FBD8F87E
:1016D000081013F0F9FB0790BDF9140013F0A0FBFC
:1016E000D8F8041013F0F0FBDDF81CC0014660468A
:1016F00013F0E2FA069B079093F9020040420BFBBD
:1017000000F013F08DFBD8F80C1013F0DDFBDDF8C2
:101710001CC00146604613F0CFFA13F09BFD0FA9E1
:1017200080B221F819000FFA85FE01B2714504DC80
:101730000FFA87FE714502DB28460546384609F157
:10174000010908F110080746BBE7534BED1B1A6867
:10175000ADB212F4805F0593DFF85CA138D04F4A38
:101760004F4E127812F0040F4D4A02BFD2F83812D1
:10177000098AA2F83412D2F838224A49108A4A4A11
:10178000B1F8068014680FFA88F7E288811A8F4250
:1017900004DCDAF800202788148806E00244974227
:1017A00006DBDAF8002064885788A6F8348215E052
:1017B000B6F934228A42D9BF2788DAF80020DAF84D
:1017C00000206488D9BF1488B8465788A04605E031
:1017D000DAF80020B4F8068057881488BAB21FFAE5
:1017E00084F9C9EB0206B6B20FFA85FB30B2834525
:1017F000264D2E4962DD01220A7013F011FB06907E
:10180000584613F00DFB069A0146104613F010FCE3
:101810008346002229788A4214D20DF13C0C3CF90F
:101820001200CDF81CC0069213F0FAFA594613F0D4
:101830004BFB16F0F3FB069ADDF81CC02CF81200E7
:101840000132E7E7164AD2F87021507813F0E8FA2F
:10185000174913F0EDFB0146584613F0F1FCB8B3FD
:1018600036B2022496FBF4F44C44A4B227462FE08F
:1018700000002041F81A0020642F002060000020A2
:101880008C1A0020A426002074210020A022002011
:10189000D4260020600A0020502900205336002062
:1018A000E4080020182D00204423002041210020BE
:1018B0000000C842580A0020482300200020087079
:1018C00002209BFBF0F009EB0004171AA4B2BFB290
:1018D000059BDAF800601B6895F8009003F48053CC
:1018E0000693A34B0025B3F934A2D3F838320593FD
:1018F000A04BD3F800B04D4580F007810FAB33F813
:1019000015200FFA88F0079213F08AFA9A4B2901F2
:10191000C95813F0D9FA13F09DFC23B29842079AE4
:1019200003DB3BB28342A8BF034613440498934AA7
:101930009BB222F8153069001BB208B1B08811E0E3
:10194000069870B10598BBF806E0008ACEEB00005F
:10195000824503DC3088BBF800E005E0BBF80200FC
:1019600000E03088B6F802E0834203DB7345A8BF8D
:101970007346184650520135BDE7B44205F11005D3
:10198000DFF8F8B13BD218B2079313F049FA55F8D3
:10199000181C13F099FA069038B213F041FA55F872
:1019A000101C13F091FA069A0146104613F084F9C0
:1019B00006900FFA88F013F033FA55F8141C13F060
:1019C00083FA069A0146104613F076F9059B0690B5
:1019D00093F9020040420AFB00F013F021FA55F897
:1019E0000C1C13F071FA069A0146104613F064F9C4
:1019F00013F030FC079B2BF814000134BDE7BBF853
:101A000000300121B1421AB207D23BF91130013145
:101A10009A42B8BF1A4693B2F4E75949D9F870818F
:101A20000968D9F838C248880BEB46098242C8BF1A
:101A3000181A544B514A1F68C8BF80B207F480532C
:101A40000593514BD8BF0020B3F90640494B07F02E
:101A500010071D684A4558D01388059E1B1A9BB273
:101A600022F8023B4EB398F800A0BCF810E0BAF19F
:101A7000000F08D1B5F806A0CAEB0E0B5C4502DDDD
:101A8000F244544514DB7445CCBFB5F802E0B1F81C
:101A900004E01BB2CCBFB1F802A0B5F800A07345BA
:101AA00003DB5345A8BF53469E4622F802ECD1E71C
:101AB0007445CCBF6B882B8824E0049EB1F802E00B
:101AC0004EB132F902AC8B889A451BDBF245534686
:101AD000A8BF734616E0B1F800A01BB2534503DB64
:101AE0007345A8BF73469A4622F802ACBCF8123080
:101AF0009C42AFDA0FB18B8804E098F80030002BDD
:101B0000A8D10B8822F8023CA4E720490A788B462A
:101B100002F0040202F0FF0342B1154890F83C3293
:101B2000013BDBB2182B00F23D810BE0184A127822
:101B30009342F2D2174931F81300104921F81300EB
:101B40000133F5E701229A40134B1340002B00F0BC
:101B50002981124B0C491B8813F4807F22D0104B33
:101B60001A88ADF83C205A889B88ADF83E202FE0BB
:101B7000E408002044230020580A002058220020B6
:101B80004823002050290020182D00205336002023
:101B9000A0220020901A002099209801D026002031
:101BA00014210020B44B1A88ADF83C205A889B8839
:101BB000ADF83E20B14AADF840301268D40409D5E2
:101BC000D0F83822B1F90640128A944202DA5B4218
:101BD000ADF84030AA4D4FF47A72B5F902304FF4A7
:101BE000616403F5E163534393FBF4F3A3F5FA73E4
:101BF000ADF85430B5F9003003F5E1635A4392FB78
:101C0000F4F2A04BA2F5FA721B88ADF85620A3F2AD
:101C1000DC53ADF84230D0F838320A881B8AD21A29
:101C2000ADF844204A88D21AADF846208A88D21AE4
:101C3000ADF84820CA88D21AADF84A200A89D21ACB
:101C4000ADF84C204A89D21AADF84E208A89D21AB2
:101C5000ADF85020CA89D31AADF8523000238A4A11
:101C6000002122F813100133082BF8D1874B884943
:101C70001B68884D0493884B1B680593874B1B7822
:101C8000C3EBC30301EB0308414573D00B7833B1B9
:101C900003F1150201239340049A134066D0059B7B
:101CA00011F806EC0E2707FB0E37B7F90020B7F93D
:101CB000023064209B1A11F9022C9BB25A4392FB0A
:101CC000F0F211F805AC4FEA530911F8034CC9EBD7
:101CD00002024FEA4A0616A892B211F801CC064455
:101CE00014B936F81C0C0CE0B5F9000036F91C6C80
:101CF000B04208DA0444844203DBA6423046A8BF5F
:101D00002046288008E007DD041BB44203DB844240
:101D1000A8BF044626462E80D7F80A40012000FAC4
:101D20000AF02042B5F9006011F9040C12B200FB70
:101D300006F04FF0640690FBF6F014BF4FF0FF344E
:101D4000012490420ADB4FFA8CF25A4392FBF6F2DE
:101D5000C9EB020212B28242A8BF02464A4B33F8D4
:101D60001E9002FB049423F81E4000E02B800235F5
:101D7000073189E7484B4A4E1F6800250E2303FBB5
:101D8000057393F9064036F9023FE8B263436424D1
:101D900093FBF4F434800CF0F5F901352044082D60
:101DA0003080EBD1354F384D3B683B4E13F0200F60
:101DB00033D000200CF0E6F92880044601200CF016
:101DC000E1F9324B68801B68190626D5354B2C4A41
:101DD000D3F860321B78012B23D13168B2F900307F
:101DE00091F914E04FF0320C03FB0EF393FBFCF37C
:101DF0001FFA83FE91F90630B2F902205B42534389
:101E00006FF0310193FBF1F193FBFCF30EEB010258
:101E1000A1187344298018446880D6F800E0002394
:101E200019E0D6F800E0B2F902309EF906105943E5
:101E3000322391FBF3F1214429809EF91440B2F939
:101E4000001001FB04F292FBF3F21044E4E70133CB
:101E5000082B2A5328D00E2101FB03E135F913008A
:101E6000B1F900205C009042B1F90210EFDB0AB238
:101E70008242A8BF0246EAE77421002050290020D0
:101E80001C21002058220020B40C0020D426002061
:101E900053230020220B0020F41A00204C230020A2
:101EA000B20C0020E4080020A64CD4F870A19AF9E6
:101EB0000C30A3B994F83C8208F1FF33182B74D886
:101EC000DFE803F0377373517373734A737373737B
:101ED000735B7373737373516773735B3700DFF8EE
:101EE00084924FF0000839F9020F12F099FF964BD7
:101EF000242101FB083106F021F916F08FF8326831
:101F00000E2303FB082280B2A9F80000B2F90030CA
:101F100000B29842B2F9022003DB13B28342A8BF99
:101F2000034608F10108B8F1080FA9F80030DAD12A
:101F3000C0E79AF8063013B10020698908E09BF8E1
:101F4000003003F0040303F0FF00002BF4D101463E
:101F500005F0B6FC012629E00020E98805F0B0FC78
:101F60000120298905E00020298905F0A9FC69895B
:101F7000012005F0A5FC022618E00226B01E35F867
:101F80001610C0B2013605F09BFC082EF6D10626CD
:101F90000CE00326F01E35F81610C0B2013605F02D
:101FA0008FFC072EF6D1042600E000263B689A0637
:101FB00002D4B8F1050F0AD13046298805F080FC1B
:101FC000701CC0B2698805F07BFC0236F6B23B6833
:101FD000DB0205D494F884337BB10CF018F80CE0E4
:101FE000DFF8848100257019C0B238F8021F05F0AF
:101FF00067FC0D2DEED00135F5E7544B187800281D
:1020000040F0C5813B681D0340F1C181504D2B78E4
:10201000033B052B1FD84F4B93F8143833B1012BDA
:1020200009D10CF0B3FCC0F17F0004E0D4F88803C0
:1020300003689B689847D4F88C3394F89023134432
:10204000B3F5807FA8BF4FF480738342D4BFC4F838
:102050008C33C4F88C032B78023B092B00F2878168
:10206000DFE813F00A0015004C0084009A00B3006A
:10207000C5003E015B0166010023C4F88C33C4F83F
:102080009433354B1B68C4F8983303236EE1324B0D
:102090001A68D4F8983364339A4240F26881402039
:1020A0000FF0EEFC002840F062814FF040082B4B0F
:1020B000D4F89423234F985C1E4680B108F020F991
:1020C000D7F88C33B8F1010803F1FF33C7F88C332C
:1020D000D7F8943303F10103C7F89433E7D1D4F868
:1020E0009423184BB25C002A40F04181C3F894233A
:1020F0004FF0FF32C3F89823042337E126230093DF
:10210000174B492003F10C02019302925021A3F1D5
:102110000A02023308F0E4FC002840F028813B6802
:102120004FF0FF3213F080030FBFC4F89433C4F8AC
:102130009403C4F89823052304BFC4F89823072305
:1021400014E100BFE4080020480B002052360020B4
:10215000100D0020D42D0020A0260020F08E0108B4
:102160005A8F0108B20C00201E2D0020894A02233C
:102170000021009301910291482002F1080308F028
:10218000AFFC002840F0F3804FF0FF33C4F89833E1
:10219000C4F894030623E9E07F4B072603F10C0201
:1021A000019302920096A3F1080247200021043314
:1021B00008F096FC002840F0DA804FF0FF33C4F8B6
:1021C0009403C4F898332E70D1E0744A052300219B
:1021D000009301910291532002F1080308F080FC62
:1021E000002840F0C480C4F894030823BEE04020D7
:1021F0000FF046FC002840F0BA80D4F894330D2B41
:1022000000F2BB80DFE803F0070B0E1219202C311F
:10221000363A3E4C575B62480FF098FD5AE06148F1
:1022200061491AE061486249624A51E0624B634881
:1022300093F8121893F813284AE0614B614893E829
:10224000060008331B6833E05B4B0C2193F8EC2746
:102250005D4801FB023393F8EE170FF077FD39E08C
:10226000554B5A48B3F84411F7E7534B5848B3F865
:102270004611F2E7574B58481969EEE7574B584853
:102280001988EAE7D4F89C33D80404D54A4B55485A
:1022900093F88211E1E7544B0C22C3F8942319E020
:1022A000454B524893F8861193F8872193F885316E
:1022B0000FF04CFD0EE04E48B4F8A013CDE73B689C
:1022C000190507D53C4B4B48B3F88A11B3F988215F
:1022D0000FF03CFDD4F894330133C4F8943346E056
:1022E000454B1B689A0115D5B4F8A4333E4E8BB903
:1022F000D6F8A8330E200F93404B0FA91B681093FC
:1023000008F0E8F84FF48053A6F8A2330A232B70A4
:1023100008F038F908F0C0F829E094F8AC33002B45
:10232000F6D0354B1B689B01F2D409232B70F1E7E3
:10233000334B1A68D4F89833C8339A4204D91E4BE9
:1023400093F814688EB904E00FF0E0FB0028F6D192
:102350000DE0D4F8880307F01BFF94F8AD33C4F800
:102360008863022B01D111F0AEFE01232B700FF018
:10237000B7FB60B101232B7009E00FF0C7FB002809
:10238000F5D04FF48053A4F8A2330A23EEE717B038
:10239000BDE8F08F18910108309101087C91010887
:1023A00088B40108A2B40108B7B40108BFB4010899
:1023B000D3B40108DFB40108D42D0020E8B401082B
:1023C000E8F7FF1FF9B401080DB5010817B50108BA
:1023D00026B501087419002035B501080800002051
:1023E00045B501084FB50108E40800205CB50108B7
:1023F00075B5010880B50108D4260020FC2700200F
:10240000A02600202DE9F04FA04BAFB01C7801931F
:10241000002C00F0E4809E4B1868002802F04780F2
:102420000BF02EFC9B4C20680BF0CDFD002802F039
:102430003E8020680BF0C4FD0928974C01D03F284E
:1024400052D10027B8462568944E2DB19448316882
:102450002A4615F023FC20B93746B8F1000F00D109
:10246000B046904B10369E42EFD34646B8F1000F6F
:102470001DD0D8F800C0D7F8009023681CF803E0FE
:1024800019F80300704512D15A1C854958B92D2BF3
:1024900009D8DFF804E2CEF800204FF0200E01F852
:1024A00003E0885403E001F803E02260E5E72368D5
:1024B0000BB1B8450FD07C480CF0ECFFBE4207D8FA
:1024C00056F8100B0CF0E6FF09200CF010FFF5E7B2
:1024D00007F02CFE002523689D42A3D2704B585D67
:1024E0000CF005FF0135F6E72368002B41F0648707
:1024F000042841F0B5876A480AF008FA01F0D7BF0E
:102500003068DFF8C4A10BF05EFD002850D0DAF887
:1025100000000BF055FDDBF80030024693F8481040
:10252000002978D1242840F0D780012283F8482060
:10253000DBF8002092F848000628E1D192F84930F3
:10254000502B00F0DE8700F2A881342B00F00185CB
:1025500000F24681242B00F0788600F21381032BD1
:1025600000F05F8240F2EF80052B40F001811A20DD
:102570000CF0A8FE00264D4B985D01360CF059FE7C
:102580000B2EF8D100264A4B985D01360CF051FE17
:10259000082EF8D10026474B985D01360CF049FE15
:1025A000072EF8D10CF056FE2B68002283F8482045
:1025B000414B18680BF064FB404B93F87D3053B1EE
:1025C00058F8040007F0C0FD0BF074FD06F0D6F9D2
:1025D0003B4A3C4BDA604C34982C01F06887DFF8BA
:1025E000F48054F8083004EB0802002BF3D0364E88
:1025F000079333600023354D354F8DF82130DFF8D8
:10260000B89014238DF8203006AB2A600697C9F8DD
:102610000030AB4674E7012904D14D2814BF0022D5
:10262000022283E7022904D13C2814BF002203229E
:102630007CE703290CD140284FF0000102D983F830
:10264000481075E758711971D971987104226DE7B6
:10265000042906D1997983F849004A409A710522E4
:1026600064E705297FF464AF58791979884298792D
:1026700006D950409871481C18710B441A7257E7DC
:1026800090420CBF0622002250E700BF52360020C5
:1026900004270020881A0020F01A00200099010861
:1026A000C01A0020E09A01089DB60108D3B40108C1
:1026B000DFB40108B7B40108FC260020940C002008
:1026C0000400FA0500ED00E000270020F8260020B5
:1026D000D3DF00083C2D0020D7490B7803F004031A
:1026E00003F0FF0E002B7FF423AF232ADAF800005B
:1026F0001CD10292019A01231370D04B03911860F0
:10270000CF4B1860986010201873CE485F6083F834
:102710000DE004330360CC480CF0BCFE07F006FD6E
:102720000399029A0B7843F002030B70C74B1B68A6
:102730001B78934201BFC64AC64B1A60C64A04BF03
:10274000C64BDA60F4E6012B00F05F81022B40F00B
:10275000648704200CF0B6FD43200CF06AFD4C2089
:102760000CF067FD46200CF064FD4C2000F03ABFF1
:10277000C0F08081222B40F0508750200CF0A2FD49
:102780000027C7E32C2B00F08E8518D8282B00F0EB
:1027900071852A2B00F08185262B40F03E87B04EB4
:1027A00006200CF08FFDB6F85C010CF08EFDB6F83B
:1027B0005E010CF08AFDB6F8600100F0D5BE302B4A
:1027C00000F01386322B00F0AE852E2B40F02587CB
:1027D000A34E40200CF076FD06F1400700F0F4BD5A
:1027E000422B00F0B68520D83A2B00F066820BD839
:1027F000362B00F0CF85382B40F00F8704200CF0EB
:1028000061FD974E00F027BD3D2B00F08982402BE3
:1028100000F090853B2B40F0008701200CF052FD2A
:10282000904B1B68187800F0DDBE492B00F08482C5
:102830000ED8462B00F0FF85472B00F03D86452B38
:1028400040F0EB8613200CF03DFD002600F07DBE2D
:102850004D2B00F047854F2B00F065864B2B40F049
:10286000DC867F4E08200CF02DFD96F8E0010CF080
:10287000E0FC96F8E1010CF0DCFCB6F8E2010CF0AB
:1028800024FD96F8E4010CF0D4FCB6F8E6010CF057
:102890001CFD96F8E80100F0A5BE722B00F0E6835F
:1028A00052D8692B00F0EC812AD8652B00F02181E9
:1028B00015D8522B00F04486642B40F0AE860720DA
:1028C0000CF000FDE7200CF0B4FC654B58790CF0DF
:1028D000B0FC00200CF0ADFC042000F041BE672BE2
:1028E00000F0508100F2BF8112200CF0EBFC5E4B37
:1028F00000261B88B3F5806F8CBF0827012722E1D3
:102900006D2B00F0D08115D86B2B4D4F00F0228439
:1029100040F20284554E06200CF0D4FC30880CF0B6
:10292000D4FC70880CF0D1FCB6F904300A2093FB7B
:10293000F0F0EFE16F2B00F00682C0F0C381702B46
:1029400000F05C8200F069BE7D2B00F0118629D872
:10295000762B00F00F8409D8742B00F0208340F20E
:10296000BE832F200CF0AEFC414ECBE2782B00F062
:102970001581C0F059837C2B40F04F86384E0820DB
:102980000CF0A0FCB6F84C010CF09FFCB6F84E0120
:102990000CF09BFCB6F850010CF097FCB6F8520115
:1029A00000F0E2BDA42B00F00D8417D8962B74D054
:1029B000A02B00F03C847E2B40F02F86284E032075
:1029C0000CF080FC96F858010CF033FC96F8590195
:1029D0000CF02FFC96F85A0100F004BEF12B00F029
:1029E0001C81FE2B00F01584F02B40F016861D4E46
:1029F00004200CF067FC3368B3F866000CF065FC4B
:102A00003368B3F8640000F0AFBD03200CF05AFC4B
:102A100000200CF00EFC01200CF00BFC102000F04C
:102A2000E1BD18460CF04EFC01200CF002FC0C201D
:102A30000CF0FFFB00F087BD53360020881A002001
:102A4000940C002004270020CDB60108481A00206D
:102A5000EFBEADDEF04F00200400FA0500ED00E00F
:102A6000D42D0020F81A0020080000201C2100208E
:102A7000A391010806200CF025FC41200CF0D9FBA5
:102A800046200CF0D6FB4E200CF0D3FB41200CF07E
:102A9000D0FBC44B187800F067BD0E200CF012FC80
:102AA000C14B18880CF011FCC04B188880B20CF098
:102AB0000CFCBF4B1B68C3F3C000C3F38002800053
:102AC00040EA4200C3F340021043C3F3401240EA1D
:102AD000C20003F0100318430CF0F7FB0CF0D2FA1D
:102AE0000CF0FCFBB34B93F8EC070CF0A2FBB24BE1
:102AF000E0E00B200CF0E6FBAB4B18880CF0E5FB9C
:102B0000AA4B188880B20CF0E0FBA94B1B68C3F3FA
:102B1000C000C3F38002800040EA4200C3F34002D9
:102B20001043C3F3401240EAC20003F010031843FD
:102B30000CF0CBFB0CF0A6FA0CF0D0FB9D4B93F8FD
:102B4000EC0700F04FBD9D4B33F91600013690FBAA
:102B5000F7F080B20CF0B9FB032EF4D1984E308818
:102B60000CF0B3FBB0880CF0B0FB3089954E0CF044
:102B7000ACFB30880CF0A9FBB0880CF0A6FB3089C8
:102B800000F0F2BC10200CF09DFB00268E4B985DEF
:102B900001360CF04EFB102EF8D103E570200CF03E
:102BA00091FB4FF000090E2606FB09F6874F09F14D
:102BB00001093B683344B3F825010CF086FB3B6800
:102BC0003344B3F827010CF080FB3B683344B3F87F
:102BD00029010CF07AFB3B68334493F82B010CF08D
:102BE00028FB3B68334493F82C010CF022FB3B6834
:102BF000334493F82D010CF01CFB3B68334493F8ED
:102C00002E010CF016FB3B681E44D6F82F010CF089
:102C100065FBB9F1080FC6D1C4E470200CF052FB7B
:102C2000644E06F1700796F8D4000CF002FB96F89B
:102C3000D5000CF0FEFA96F8D6000CF0FAFA96F8E9
:102C4000D7000CF0F6FA96F8D8000CF0F2FA96F8E5
:102C5000D9000CF0EEFA073696F8D3000CF0E9FA3A
:102C6000BE42E0D19EE410200CF02CFB0026584B15
:102C700033F8160001360CF028FB082EF7D191E44A
:102C8000544F00263878400000F0FE000CF01AFB8C
:102C90003B789E42BFF486AC4F4B33F816000CF0E5
:102CA00014FB0136F4E70CF00DFB4C4B18680CF0EC
:102CB00015FB4B4B188800F057BC04200CF002FBAE
:102CC000484BC0E24FF6FF7607200CF0FBFA464B6C
:102CD0001888FF28A8BFFF20C0B20CF0AAFA434B07
:102CE0001868B042A8BF304620EAE07080B20CF00D
:102CF000ECFA3F4B18880CF0E8FA2E4B93F88D2134
:102D00003C4B18684AB10A235843B042A8BF30462A
:102D100020EAE07080B200F027BC00F30F00F9E772
:102D2000244E02200CF0CEFA96F8EC010CF081FA59
:102D300096F8EB0100F056BC02200CF0C3FA1D4BD4
:102D4000988900F011BC2C4E0B200CF0BBFA3368B4
:102D5000374618780CF06DFA33684FF00009587850
:102D60000CF067FA3B68244E4B44187909F10109CD
:102D70000CF05FFAB9F1030FF4D13368D8790CF095
:102D800058FA336898780CF054FA3368D8780CF015
:102D900050FA336858890CF098FA3368187A00F0C2
:102DA00021BC00BF503600204A3600200E270020EC
:102DB000281A0020D42D00200A270020FE0F002012
:102DC000242100206C280020B40C0020F81A0020D8
:102DD00058220020F0350020182D0020D4100020AB
:102DE0000410002018280020CC2900208829002069
:102DF000D8100020181000208C1A0020BE4E1E2073
:102E00000CF060FA336800271B78022B66D1336818
:102E100007F1080253F82200B84912F055F815F0EE
:102E2000FDF880F30800C0B20CF003FA3368B4492F
:102E300003EB8703D86A12F047F815F0EFF880F338
:102E40000800C0B20CF0F5F9336807F10E0253F830
:102E50002200AC4912F038F815F0E0F880F30800D1
:102E6000C0B201370CF0E5F9032FD0D1072F33683A
:102E700021D1586CA14912F027F815F0CFF880F352
:102E80000800C0B20CF0D5F933689C49986C12F078
:102E90001BF815F0C3F880F30800C0B20CF0C9F9B4
:102EA000336893F84C0011F0B7FF15F0B7F880F3D2
:102EB0000800C0B20BE03B4458780CF0BAF9336814
:102EC0003B44D87A0CF0B5F933683B44587D013760
:102ED0000CF0AFF90A2FC9D1FFF764BB33683B444C
:102EE00058780CF0A6F933683B44D87A0CF0A1F975
:102EF00033683B44587D01370CF09BF90A2FEDD124
:102F0000FFF750BB16F8010F00283FF44BAB0CF055
:102F100090F9F7E7784B0C211E687B4B06EB870690
:102F200096F88520013701FB023393F838000CF046
:102F300080F996F886000CF07CF996F887000CF082
:102F400078F996F888000CF074F9142FE2D1FFF7A5
:102F500029BB48200CF0B6F90027674B1E680623F2
:102F600003FB076696F8DA000CF063F996F8D500D3
:102F70000CF05FF996F8D6000CF05BF996F8D700E4
:102F80000CF057F996F8D8000CF053F9013796F881
:102F9000D9000CF04EF90C2FDFD1FFF703BB002650
:102FA0004FF0010A4FF0000B584B1B789B4531DA6C
:102FB000574B4FF000091BF803200C2303FB09F3C8
:102FC000514F07F13001595C914209D13B44586B94
:102FD00014F05BFE0146BAF1000F07D1534607E03B
:102FE00009F10109B9F11D0FE7D110E006440EE027
:102FF0008B420CDA0C2202FB0972526B0391D05CFB
:1030000002930CF016F9029B03990133F0E70BF1E0
:10301000010BC9E7BAF1000F3FF4C4AAF0B20CF0FB
:1030200051F94FF0000ABDE7384F002638780CF010
:1030300049F93B789E42BFF4B5AA354B002116F8FA
:1030400003E00C2202FB01F32F4800F1300C13F8CF
:103050000C20724505D1034493F838000CF0E9F8D0
:1030600002E001311D29ECD10136E2E7294E16209C
:103070000CF028F9B6F8A0010CF027F9B6F84401D5
:103080000CF023F9B6F846010CF01FF9B6F8480128
:103090000CF01BF9B6F8E2010CF017F996F80102F2
:1030A0000CF0C7F800200CF0C4F896F802020CF0FF
:1030B000C0F896F88D010CF0BCF896F89B010CF066
:1030C000B8F800200CF0B5F80B4B0A201B68B3F9D8
:1030D000623093FBF0F080B20CF0F7F8BBE0082010
:1030E0000CF0F0F80126F0B201360CF0A2F8092E2F
:1030F000F9D1FFF757BA00BFF81A002000002041AD
:103100000000C84200007A44A4910108D82600209B
:10311000D9260020D42D002010200CF0D3F8D04B5D
:10312000D04E187800F002000CF083F8CE4B1878DF
:103130000CF07FF830680CF0D1F870680CF0CEF825
:10314000CA4B18880CF0C1F8C94B18880CF0BDF8B0
:10315000388E09E205200CF0B5F8C64B18880CF043
:10316000B4F8C54B18880CF0B0F897F8320000F0AE
:10317000010037E20CF03EF8814612200CF0A2F874
:10318000B9F1000F01D1BD4B03E0B9F1100F03D12C
:10319000BB4B1F685E6801E00026374648460CF0CE
:1031A00048F838460CF09AF830460CF097F8B54BD2
:1031B00018680CF093F800200CF087F800200CF051
:1031C00084F8C0E1B04F002697F83300B94680007C
:1031D0000130C0B20CF076F897F833000CF029F803
:1031E00099F833309E42BFF4DDA9A84FB85D0CF0CA
:1031F00020F807F11003985D0CF01BF807F120038D
:10320000985D30370CF015F8B85D0CF012F8013607
:10321000E6E708200CF056F800269D4B33F8160020
:1032200001360CF052F8042EF7D1FFF7BBB90C2091
:103230000CF048F8974B18680CF050F8964B18684B
:103240000CF04CF8954B18688AE104200CF03AF821
:10325000934B986884E196F882010BF0EAFF96F8A8
:1032600086010BF0E6FF96F885010BF0E2FF96F879
:103270008701B7E18A4E07200CF024F8B6F88801E0
:103280000CF023F8B6F88A010CF01FF896F88C01C0
:103290000BF0CFFFB6F88E0166E101200CF012F8BA
:1032A0007F4B58799EE17E4E0C200CF00BF896F87F
:1032B00098010BF0BEFFB6F8A4010CF006F8B6F8C2
:1032C000A0010CF002F8B6F8A2010BF0FEFF96F890
:1032D0009A010BF0AEFFB6F8A6010BF0F6FFB6F8B8
:1032E000A80141E16F4E704F30784FF0000900EBBC
:1032F0004000C0B20BF0E6FF337802379945BFF4C7
:1033000051A917F8020C0BF094FF17F8010C09F102
:10331000010900EB800000EB800000F2EE2080B29B
:103320000BF0D3FFE8E701200BF0CCFF5C4B93F8E8
:103330009B0157E108200BF0C5FF0026584B334492
:1033400093F8900101360BF074FF082EF6D1FFF7C9
:1033500029B9534E10200BF0B5FF70790BF069FFBF
:10336000B0680BF0BBFF96F898010BF062FFB6F85F
:103370005C010BF0AAFFB6F85E010BF0A6FFB6F8F1
:1033800060010BF0A2FFB6F888010BF09EFFB6F8C3
:103390008A01E9E0454B424E187806F12807C0EB58
:1033A000C000C0B20BF08EFF96F808020023404A1E
:1033B000D25C904200F01A810C333C2BF7D10836D6
:1033C000BE42F1D1FFF7EEB8B6F8C0020BF07DFFB8
:1033D00096F8C2020BF02DFF043696F8BF020BF0F0
:1033E00028FFBE42F0D1FFF7DDB8E0200BF06AFF06
:1033F0002B4E06F18007B6F84202043600F03F007B
:103400000BF063FFB6F83E02C0F386100BF05DFFD1
:1034100096F83C0200090BF00CFF96F83C0200F015
:103420000F000BF006FF96F83D020BF002FFBE42C4
:10343000E1D1FFF7B7B80D200BF044FF0EF016FEF8
:103440001C4E40F00200C0B20BF0F3FE30880BF0CF
:1034500045FFF0680BF042FF0BF0A0F980E000BFE1
:103460004021002024100020201000201E100020E9
:103470001C1000209410002096100020DC1000206A
:103480002C0F002048280020940C0020C80C00209D
:10349000080D0020E8F7FF1FECF7FF1FF0F7FF1FF4
:1034A000D42D0020F03500207E2F00201C17002096
:1034B0004C1A00201C0000200BF0B2FE07468420AE
:1034C0000BF000FF38460BF009FFC54B0DF1380932
:1034D000DE6807F18003B3428CBFF61B80260BF039
:1034E00017FA38463246494604F048FD074600269A
:1034F000BE42BFF657A819F806000BF09AFE013637
:10350000F6E7B84E04200BF0DDFE01200BF091FE33
:1035100096F814080BF08DFE96F812080BF089FE51
:1035200096F813085EE00B200BF0CCFE00200BF0A9
:1035300080FE00200BF07DFE00200BF07AFE0BE0F9
:1035400001200BF0BFFE00204CE0A74B985D013638
:103550000BF06FFE0B2EF8D100200BF0BFFE002009
:103560000BF0BCFEFFF71EB80BF0AFFEFFF71AB86A
:103570009E4E03200BF0A6FE336893F81D010BF05E
:1035800058FE336893F81E010BF053FE336893F82E
:103590001F0127E040F2FF84F22B00F07D8540F20E
:1035A0009E85F32B40F0FD860BF024FEFF28904F04
:1035B00040F01E86002607F180003146602287F821
:1035C0007E6014F01EFB8DF817609DF8173097F899
:1035D000E220874E9A4200F2A38501200BF072FE92
:1035E00096F87E000BF025FEFEF7DCBF0BF021FE07
:1035F000B6F80A020BF069FE96F80C020BF019FE01
:1036000096F80D020BF015FE96F80F020BF011FE66
:1036100096F80E020BF00DFED1E6512B32D1744B11
:1036200093F87C30012B28D80BF0E4FD6D4E86F822
:1036300014080BF0DFFD86F812080BF0DBFD86F8AE
:1036400013081AE000F23884CD2B00F0438240F2D8
:103650004B82D02B00F07B8340F28583D12B00F08E
:10366000CD83D22B40F0A486624B1B7803F0040379
:1036700003F0FF06002B00F0FB8300200BF022FE7E
:10368000FEF790BF00F21E82372B2ED1537907260A
:10369000B3FBF6F6C6EBC6029B1A13F0FF0F02D07F
:1036A0000CF0B8FEE9E7F6B2013EF6B2FF2EE4D028
:1036B0000BF0A0FD5FFA80F94FFA89F00AF0D8F913
:1036C00007460028ECD080F800900BF09FFD788032
:1036D0000BF090FD38710BF08DFD78710BF08AFDC9
:1036E000F8710BF087FDB871DEE700F230812B2B0B
:1036F00004D10BF07FFD3B4B5871BEE700F2868092
:10370000252B08D1374E0023B3600BF089FDB36839
:103710001843B060B1E73ED8232B40F049860BF048
:1037200069FD13280646BBD8304FD7F800900BF040
:1037300061FD00210C2202FB01F3DFF8CCE00EEB6F
:10374000030292F83820824221D1734493F830303A
:1037500009EB860686F885300BF04CFD86F886006E
:103760000BF048FD86F887000BF044FD224A234BFE
:1037700086F888001A603868214B0021186085306F
:103780000AF03EFA1F4B80F00100187075E7013116
:103790001D29CFD184E7272B0DD10BF037FD114E1A
:1037A000A6F85C010BF032FDA6F85E010BF02EFDD1
:1037B000A6F8600161E7292B40F0FA850BF026FDA1
:1037C000084EA6F888010BF021FDA6F88A010BF03F
:1037D00011FD86F88C010BF019FDA6F88E014CE75F
:1037E0001C000020D42D0020D3B40108F81A0020BA
:1037F000940C002053360020182F00201C0F0020AE
:103800004C29002006000020A4910108312B30D162
:103810000BF0F0FC1F2806463FF642AF2B685B79A1
:10382000082B7FF43DAF0BF0F1FCDFF8649390368A
:1038300009EB860700F03F0078800BF0E7FC7B88FF
:10384000800100F4FE50184378800BF0D3FC000197
:1038500009F826000BF0CEFC19F8263000F00F0016
:10386000184309F826000BF0C5FC78700DF006FE31
:1038700003E73AD82D2B22D10BF0BCFCC44E86F8BE
:1038800098010BF0C3FCA6F8A4010BF0BFFCA6F84E
:10389000A0010BF0BBFCA6F8A2010BF0ABFC2B685F
:1038A00086F89A015B79082B7FF6E7AE0BF0AEFC49
:1038B000A6F8A6010BF0AAFCA6F8A801DDE62F2BBE
:1038C00040F07685B24E06F140070BF09FFCA6F85B
:1038D000C0020BF08FFC86F8C2020BF08BFC0436A2
:1038E00086F8BF02BE42F0D1C7E6332B05D10BF0FC
:1038F00081FCA74B83F89B01BFE6352B40F0588530
:103900000BF078FC0B2807463FF6CAAEA14B1E68A9
:103910000BF070FC03283FF6C3AE062303FB0766DB
:1039200086F8DA000BF066FC86F8D5000BF062FC36
:1039300086F8D6000BF05EFC86F8D7000BF05AFC38
:1039400086F8D8000BF056FC86F8D90095E6432B94
:1039500023D10BF04FFC8E4E0023B36070710BF03F
:103960005FFCB3681843B0600BF044FC86F8980124
:103970000BF04CFCA6F85C010BF048FCA6F85E01CD
:103980000BF044FCA6F860010BF040FCA6F888019F
:103990000BF03CFCA6F88A016FE63BD83C2B09D122
:1039A0007C4E37680BF026FC3870336818780AF0C4
:1039B0009DFC62E614D8392B40F0FA840BF01AFC17
:1039C000734E86F882010BF015FC86F886010BF029
:1039D00011FC86F885010BF00DFC86F887014CE69A
:1039E0003E2B09D10BF006FC694E86F8EC010BF07A
:1039F00001FC86F8EB0140E6412B40F0D98400261B
:103A00000BF0F8FB624B33440136082E83F890012B
:103A1000F6D132E64A2B04D10BF0F8FB5C4B9881CF
:103A20002BE60CD8442B04D15B4B012283F87D207C
:103A300023E6482B40F0BC840AF0B8FF1DE64C2B6F
:103A400019D10BF0D7FB524E86F8E0010BF0D2FBF8
:103A500086F8E1010BF0DAFBA6F8E2010BF0CAFBF5
:103A600086F8E4010BF0D2FBA6F8E6010BF0C2FBEE
:103A700086F8E80101E64E2B40F09A840BF0BAFB81
:103A8000112807463FF60CAE0BF0B4FB404ED4377E
:103A900006EB470398700BF0B9FB40F2ED23984218
:103AA00005DD40F6CA039842A8BF184601E040F27F
:103AB000EE20A0F2EE20192390FBF3F006EB470670
:103AC000F070DAE5D32B7FF4BDAD0BF09FFB334BE9
:103AD0001880D2E5324B1B785B073FF5CEAD314BFA
:103AE0004FF4C8721A80C8E5C92B25D10BF082FBB0
:103AF0002D4B1A7810B142F0020201E022F00202CE
:103B00001A700BF077FB294B294E18700BF088FBCD
:103B100030600BF085FB70600BF078FB254B188054
:103B20000BF074FB244B1C4A188092F8323043F09F
:103B3000020382F83230A0E544D8C82B40F0388424
:103B400056797608122E3FF6ABAD0027B74206D263
:103B50000BF05CFB0EAB23F817000137F6E732469B
:103B60000023B34207DA0EA931F81300134921F8F4
:103B700013000133F5E7122A05D0104B002123F87A
:103B800012100132F7E70E4B01221A7075E500BFE3
:103B9000D42D0020F81A0020940C0020200F0020C3
:103BA00053360020E20E002040210020201000208B
:103BB000241000201E1000201C100020CC25002006
:103BC000A52A0020CA2B40F08180AF4E0027336821
:103BD0001B78022B61D1D6F800900BF00BFB11F093
:103BE0001BF9AA4911F024FA07F1080A49F82A003A
:103BF000D6F800900BF0FEFA07F10A0309EB8309EF
:103C000011F00AF9A24911F013FAC9F80400D6F824
:103C100000900BF0EFFA11F0FFF89E4911F008FA4E
:103C200007F10E0A0137032F49F82A00D3D1072FD5
:103C3000D6F800901AD10BF0DDFA11F0EDF89349A7
:103C400011F0F6F9C9F84400D6F800900BF0D2FA5A
:103C500011F0E2F88D4911F0EBF9C9F84800D6F8F7
:103C600000900BF0C7FA89F84C0012E00BF0C2FA92
:103C7000B94489F80100D6F800900BF0BBFAB944BA
:103C800089F80B00D6F800900BF0B4FAB94489F823
:103C9000150001370A2FCAD1EFE4D6F800900BF0D7
:103CA000A9FAB94489F80100D6F800900BF0A2FAFD
:103CB000B94489F80B00D6F800900BF09BFAB94490
:103CC00001370A2F89F81500E7D1D6E4CC2B40F054
:103CD0006F835379092B7FF6E3AC6F4E37680BF097
:103CE00089FA387037680BF085FA78700BF082FA31
:103CF00033686428A8BF642018710BF07BFA33681E
:103D00006428A8BF642058710BF074FA3368FF2848
:103D1000A8BFFF2098710BF06DFA3768642828BFA0
:103D20006420F8710BF066FAB87037680BF062FA2D
:103D3000F87037680BF06AFA2B6878815B790A2B88
:103D40007FF69BAC36680BF055FA307295E4534B16
:103D50001B785A073FF591AC0DF038FC04F038FEA3
:103D600004F0DCFE89E4CE2B0AD14C4B1B785F07B4
:103D70003FF583AC4A4A137843F0040313707CE4A4
:103D8000CF2B40F015830BF041FA6FF4AF6143186D
:103D90009BB2444EC62B98BFA6F8A0010BF036FA92
:103DA000A6F844010BF032FAA6F846010BF02EFA01
:103DB000A6F848010BF02AFAA6F8E2010BF01AFA6D
:103DC00086F801020BF016FA0BF014FA86F80202DC
:103DD0000BF010FA86F88D010BF00CFA86F89B01B7
:103DE0000BF008FA284B1F680BF010FA00EB80006C
:103DF0004000A7F862000BF0FDF9E2E50BF0FAF9DC
:103E000082460BF00DFA81460BF00AFA07460BF0DA
:103E100007FA06460BF0FAF90BF0F8F90BF0EAF99D
:103E2000BAF1000F11D1204B1020C3F800905F6051
:103E300004F07CFD1A4A137843F001031370002E3E
:103E40003FF41BAC194B1E6017E4BAF1100F7FF45E
:103E500014AC174BC3F800905F600EB1134B1E609B
:103E60001348144B0222011D1A700AF0C5FA04E42B
:103E70000BF0C0F90B4B022883F8EC077FF66EAF0E
:103E800083F8EC676AE700BFF81A002000002041C1
:103E90000000C84200007A448C1A002053360020EB
:103EA00040210020D42D0020DC10002048280020D4
:103EB0002C0F0020240F0020DB2B7FF46BABC04BBA
:103EC0001E211B682827D9721973322119710F21FD
:103ED0005971222199710E21197435219976192170
:103EE000D9712121012617224FF02D0E5F709F708E
:103EF00059745F72532178271E705A759A7583F82A
:103F00000DE05522D9769F72142183F814E09E7734
:103F10004FF4FA7783F85460DFF8D0E2A94E0A2014
:103F2000DA70197200226421A3F84E700027DA7546
:103F30009A731A76DA735A761F6598741977C3F8EC
:103F400020E0DE621E635E639F4EA04F1E64A04EA3
:103F50009F635E649F4EDF6383F85B209E4F4FF448
:103F6000E1729E64A3F85C204B261022C3F824E083
:103F70009F6283F84C6083F8550083F8560083F8FD
:103F8000570083F8581083F8591083F85A1083F8B3
:103F90005E20FFF772BBD62B0AD100260BF036F954
:103FA0008E4B23F816000136082EF7D1FFF765BBBC
:103FB00048D8D42B40F0FC8153790F2B7FF470ABA1
:103FC0000BF018F9072806463FF66AAB7C4FD7F886
:103FD00000900BF01BF90E235E43B144A9F82501B4
:103FE000D7F800900BF012F9B144A9F82701D7F8DF
:103FF00000900BF00BF9B144A9F82901D7F8009013
:104000000BF0F8F8B14489F82B01D7F800900BF0C9
:10401000F1F8B14489F82C01D7F800900BF0EAF8D8
:10402000B14489F82D01D7F800900BF0E3F8B144C2
:1040300089F82E013F680BF0F3F83E44C6F82F01D3
:10404000FFF71BBBD92B12D10BF0E0F8644EA6F89A
:104050004C010BF0DBF8A6F84E010BF0D7F8A6F8F0
:1040600050010BF0D3F8A6F85201FFF706BBDA2B8C
:1040700040F09E81524E37680BF0BCF887F81D0166
:1040800037680BF0B7F887F81E0136680BF0B2F806
:1040900086F81F01FFF7F1BA0BF0ACF80F280646BF
:1040A0003FF6FEAA0BF0A6F84E4BC6EBC6061E4422
:1040B00030710BF09FF870710BF09CF8B0710BF041
:1040C00099F8F0710BF096F830720BF093F870726B
:1040D0000BF090F8B0720AF02DF8FFF7CEBADC2B97
:1040E0000ED10BF087F83E4E86F858010BF082F89F
:1040F00086F859010BF07EF886F85A01FFF7BDBA31
:10410000EF2B40F055812E4E37680BF07FF8A7F863
:10411000660036680BF07AF8A6F86400FFF7ADBACF
:104120009DF8173006EBC30393F8E930D8073FD565
:104130009DF8173006EBC30393F8E8202A4B33F9B8
:104140001230002B34DD9DF8173096F87E9006EB88
:10415000C303D3F8EC304FEAC90158689DF8173013
:1041600006EB010E06EBC306D6F8EC30CEF8800065
:104170001A890026AEF8862092B20123B34013407C
:1041800003D10136102EF8D100E033463944A1F8AE
:10419000843048238DF83A300EA9012309F1010932
:1041A000ADF838208DF83B3003F08DFC87F87E9019
:1041B0009DF817300133DBB28DF81730FFF705BAE1
:1041C000F81A0020CDCCCC3E0AD7233C8FC2F53C58
:1041D0000000A0400000404000006040901A002015
:1041E000D42D0020A42E0020582200203333B33FCA
:1041F00097F87E20AF4E9042BFF452AA0290002062
:104200000BF060F80BF026F8D9F8000009F038FD43
:104210002A68106805F098FFA74A10680AF0CAFFDC
:1042200009F0BEFD72B6A54F4FF480624FF4007ADC
:104230007A614FF0010BC7F814A03846ADF838206A
:104240000EA948228DF83A208DF83BB003F03BFCD4
:10425000102238460EA98DF83A208DF83BB0ADF803
:1042600038A003F030FC029B4FEAC30906EB0901BA
:10427000B1F88430D1F880C0D8080CEB8002C6F8C1
:1042800058215CF8202003F00703C6F85C219B004E
:10429000C6F860210F229A40D243D6F860E10BFAAB
:1042A00003FB02EA0E0EC6F860E1D6F85CE102EA12
:1042B0000E02C6F85C21D6F860214FF0080E0EFA07
:1042C00003FE4EEA0202C6F86021D6F85C214BEAF2
:1042D0000202C6F85C21D6F85C31B1F886204CF8B1
:1042E0002030D1F880301A61C7F810A0BB6859059A
:1042F000FCD4704B0826D3F85C11D3F858219A46A9
:10430000116003EB0902D2F88000B2F886104FF476
:10431000007241617A616A4A16611026566140F660
:104320000556BB685A0503D4002EFAD0013EF8E7C3
:1043300048230161ADF838108DF83A300EA90123F9
:104340008DF83B3003F0BFFB5D4B10221A61B6B114
:10435000BB685A485B05CCD50AEB0902D2F880301D
:10436000B2F886209B684FF400711A42544B4FF00C
:10437000080215BF016141611A615A61E8E74F4ABD
:104380004FF40071116108221A6162B60A2009F027
:10439000E0FC0FF098FE2B68F32283F84920FFF72A
:1043A0006CB9FA2B04D1474B1B785E077FF5D6AC6E
:1043B0000CF030F8FEF7F6B80C2803D142480BF0A9
:1043C00069F849E00A2801D00D2864D13F4D4048E2
:1043D0000BF060F82846232113F049FC08B1401B7C
:1043E000206023687BB35A1EA95C202901D11346A3
:1043F000F8E7364A00212360D154364B364DD3F8C6
:104400000080D5F80090314F484613F03EFC064638
:1044100049463246384613F041FC304A20B9BB5D6C
:1044200043445B78580703D010359542E9D306E042
:10443000954204D2701CEB683844984702E0284843
:104440000BF028F80023214800213022236013F0CC
:10445000D8FB019B1B7853B305F068FEFDF7E2BF64
:104460000C28ABD07F2804D1FDF7DCBF2F2B3DF605
:10447000D9AFA0F12002D2B25E2A3DF6D3AF13B974
:1044800020283DF4CFAF5A1C2260104AD0540AF0C5
:104490002EFFFDF7C7BF7F28E8D10C4A013B002162
:1044A00010482360D1540AF0F5FFFDF7BBBF2FB0D1
:1044B000BDE8F08F940C0020002700200008014088
:1044C000000C014053360020A2B60108C01A00209B
:1044D00008C501087C03002000990108E09A010842
:1044E000ADB60108C9B601089B492DE9F04F0A682D
:1044F0009A4C02F59C4320332360994B8BB01E7875
:104500000491DFF89092C6B1964909688A4240F258
:10451000FA80013E1E70F6E0D9F80030072D98BFF2
:10452000595D914B88BF29461B6890489847032DD9
:104530000AD904EB4505A88001368C4BF5B21A78F0
:104540001846AA42E8D820E0D9F8002005F10E0369
:1045500002EB8303D9881A890028EAD04FF47A73D2
:10456000401A5843531A90FBF3F040F6C90300F584
:104570007A70984205DC40F2EE239842B8BF1846A4
:1045800001E040F6CA0080B2D3E742F20107784B5F
:10459000784A1B681F40B7FA87F7774B7F091B687B
:1045A0002FB994F82810117074494D780D70167851
:1045B0001EB1724A167886F0010694F82AB00321DB
:1045C000BBFBF1F101EB41010F22C1EB0B0184F8C0
:1045D0002920C9B290F800A0D9F80020DFF8B881EE
:1045E00003910025554551DA1EB1654931F8150092
:1045F00000E03046D18ADFF8A4E1814202D8118B75
:1046000081421ED25EF825005449834203D25D499F
:1046100031F8150019E0E8B20692059307910AF007
:10462000B3FC032D059B069A0FDC07994FF0010C94
:1046300091F829E00CFA05FC2EEA0C0E81F829E02D
:1046400003E003F596714EF82510C7B9039928F8D1
:10465000110094F8BC1031B9BBF1020F0FD93F49DA
:10466000012081F8BC00B8F80010B8F80200084436
:10467000B8F80410084480B20321B0FBF1F04149BE
:1046800008F1060821F815000135ABE794F8292058
:104690003949A2F10F067242724184F8BD203A4BAB
:1046A00092B13A4A1268550103D5314A1268D005D1
:1046B0000AD40A689A60DB68D21AC82A1ED9324B1B
:1046C000012283F8212019E02C4A0120507010703B
:1046D0000A689968DA605B68521A9A4282BF2A4B6C
:1046E000002283F821200025554507DAE8B20AF0B8
:1046F0004BFC244B23F815000135F5E794F82A30DC
:10470000013384F82A301A4E3368D90405D51F4B7B
:104710001B68DA0701D40FF065FBD9F80020049B71
:10472000D07A1F6800283BD01649537B013831F8F6
:1047300010001BB1C0F53B60083080B200B2A0F59C
:104740007A70B0F57A7FA8BF4FF47A7020EAE070F3
:1047500010F066FB0E4958E0FC270020F80D002001
:104760009C2600209826002054000020F0350020D0
:104770005029002008170020A02600200400002057
:10478000FC0D0020182D0020A4260020D426002097
:1047900000007A4494260020240E00206C0E002095
:1047A00033681B043AD5D4F8C030AE4DFB1A002B49
:1047B00034DB07F59C432033C5F8C030AA4B127B8D
:1047C0005979AA4B33F8113095F8C4109BB293FB7A
:1047D000F2F3013101F00F0285F8C4202A4482F877
:1047E000C5300346A24A825C0130134410289BB2B4
:1047F000F8D11BB293FBF0F000B26428A8BF64208C
:1048000020EAE07010F00CFB9A4910F011FC9A4974
:1048100010F05AFB10F044FD984B18803368984D07
:1048200013F4807F00F0FF80964BDFF85C929F428C
:1048300005D999F8022012B9012289F8022099F8C5
:104840000220002A00F0EF808F4A95F8008092F84D
:1048500021708E4A07F1FF3E9246DEF10007116893
:1048600047EB0E07002FC1F38063C8F38008039362
:1048700014BF4FF0000B4FF0030B99F82020052ACE
:1048800000F2CB80DFE802F0034C608695B2B8F10D
:10489000000F38D0D4F8D800B4F8DC1009F0C1F912
:1048A000012809D17A497B4A09681268C9886420BD
:1048B00000FB0122C9F81020039B5BB1744A126807
:1048C00012793AB10EF006FE032289F820204FF447
:1048D0007A7236E0002F40F0A0806E4AD9F81010AE
:1048E0001068694A88420AD904920EF0F3FD049ACE
:1048F000032182F8201040F6B831D161BDE70121D3
:1049000082F82010B9E7039B4FF4806013B104F0E4
:104910001DF801E004F00AF80022C9F810207CE03C
:10492000002F58D15A4A1268127A012A02D00EF08A
:10493000D1FDA2E70EF0CEFD032289F8202040F63B
:10494000B832C9F81C2098E727B1052289F8202041
:10495000012000E03846B8F1000F0CD0D4F8D82080
:104960004FF0020B118A4C4A1180518091804849C6
:1049700009684988D180474A1168D9F814209142C2
:1049800002D8B8F1000F45D147F23052C9F81C20C7
:10499000032221E02A7842F002022A700FF022FA64
:1049A0003C4AD9F81C1012680A44C9F8182004229D
:1049B00012E0384A9FB11168D9F8182091422CD9D9
:1049C000364A92781AB9DAF80020D00725D42A7826
:1049D00022F002022A70052289F820204DE7126891
:1049E000D9F81C100A44C9F8182016E02849294AA9
:1049F00009681268C988642000FB01224FF48060B6
:104A0000C9F81020002289F8202089F8032003F03B
:104A10008DFF32E700287FF430AFBBF1000F02D0EA
:104A2000584609F0D5F9DFF878801B4FB8F85211D5
:104A300008F5C87009F0F5F8B8F8A031B7F9022008
:104A400003F10B0191428146C3462BDB0B3B9342A2
:104A500028DCB7F90020914224DB9342CCBF00232D
:104A6000012320E0F80D00208C2900209C29002043
:104A7000BD0E00200000C84200C07F44D8100020B6
:104A800053360020404B4C00A4260020D4260020A2
:104A9000402B0020A0260020182D0020040000201C
:104AA000D42D00200023B9F1000F0FD1934A1268D2
:104AB000110111D5924AD27872B92A7852070BD5D2
:104AC00023B1904A137843F0200303E08D4A137812
:104AD00023F0200313700BE00EF0F2FC8A498B4B9D
:104AE0000020002208601A6048605A6088609A605E
:104AF0002B78580735D53368D90632D5814B1B78CA
:104B0000DA062ED4824B9B7893B19BF8EC31B9F145
:104B1000000F15D17BB17F4B1A68D4F8E0309B1A97
:104B2000002B08DA0FF05EF97B4B83F8E49018E075
:104B3000B9F1000F0DD1102009F04AF901230EE060
:104B40003BB1744A4FF47A71126801FB0323C4F835
:104B5000E03094F8E43023B109F022F9002384F81E
:104B6000E4309BF8EA310022039313469BF8EB01F3
:104B7000BBF8A2E1BBF8A4C137F912109B0871453C
:104B8000C4BF63F07F03DBB201326145B8BF43F0BD
:104B90004003042AF0D194F8E5205F499A4205D1F8
:104BA00091F8E620F92A04D8013200E0002281F8C9
:104BB000E62084F8E530564BDFF840819A789A4633
:104BC000E2B9D8F80030DB0708D5B9F1000F15D1EC
:104BD0002B78D80712D50EF039FF0FE02B78590744
:104BE0000CD54E4B1B784BB1454BDB7833B910B12C
:104BF0000FF0F8F802E0B9F1000FF9D094F8E630C0
:104C0000454A142BDFF8249140F0A280039B003327
:104C100018BF012303939AF8023063B392F8E5308A
:104C20005F2B11D12B7803F0040303F0FF0113B1C4
:104C30000FF0D8F808E00B200591049209F0C8F8AD
:104C4000049A059982F8E610039BA3B194F8E53025
:104C50007D2B10D12B7803F0040303F0FF0213B176
:104C60000FF0C0F807E00B20049209F0B1F82A4BCE
:104C7000049A83F8E6202B7803F0040303F0FF0185
:104C8000002B65D194F8E530234A572B10D1244BE3
:104C90004FF47A721A8033681A0601D509F042FC83
:104CA000204B1B685B0753D51F4B0A221A804FE02D
:104CB0003068400717D55A2B15D192F8E7302BB141
:104CC000012382F8E71082F8E83041E092F8E930F9
:104CD00083F0010382F8E9300BB10C2000E00D20D5
:104CE00009F076F834E05D2B00F0F7845B2B00F0E0
:104CF000F6845E2B1CD1032000F0F2BCD4260020E9
:104D0000A42600204021002034210020F82A002081
:104D100004000020A0260020F80D00200817002025
:104D200044360020281A00204C360020F81A0020B3
:104D3000562B01D104F0ACF89AF80230002B00F0A9
:104D4000E38494F8E5306F2B40F0D9840EF07EFEBA
:104D500033685B0737D594F8E930A94A93B12B78CB
:104D600058070FD5B7F90610BBF8A231994209DDF3
:104D7000D8F8003013F0010302BF3221A2F8EC1082
:104D800082F8E930D8F80030D9030DD594F8EE2038
:104D90009B4B2AB993F8E72012B93222A3F8EC20F2
:104DA000012384F8EE300EE094F8E730944A53B1D2
:104DB0002B7803F0040303F0FF0123B9012382F8E9
:104DC000E71082F8E830D9F800900023C8F80030E6
:104DD00009F1870709F1D70A3A787B7817F8010CAF
:104DE0009A420DD2394608F0E7FE48B117F8022C76
:104DF000012303FA02F2D8F800301343C8F8003058
:104E000004375745E8D17F4B1B785BB17E4BDFF809
:104E100014A21A68984612F0020FDFF80C9240F0C4
:104E2000AF82A7E209F1D50709F21D197A78BB789C
:104E300038789A4228D2791C08F0BEFE20B37879DF
:104E40000C2202FB0042D2F8F830BB421CD0C2F860
:104E5000F870397902F1F00382F8F01000215960FE
:104E6000FA785A70FA780C2A4FF0010204BF9A704F
:104E70000322DA7094F8202118BF9970012383402F
:104E800022EA030384F8203106374F45CED15F4B29
:104E90005F4FD3F800805F4B1B6804935E4B1B7819
:104EA00005930023039397F80090B9F1000F00F0E9
:104EB0005982D7F80330049AD31A002B0CDB02F581
:104EC000FA73039AC7F803300123934094F8202122
:104ED00022EA030384F82031059B002B00F0428274
:104EE00017F8012C7B780432D2B2002B40F0EF810E
:104EF0004A4B33F912204A4BB3F8A03103F1C801F1
:104F00008A4202DD97F802A016E0C83B9A4204DA12
:104F100097F802C0CCF1000A0EE0039A01239340F7
:104F200094F8202122EA030384F82031049B03F53E
:104F3000FA73C7F8033015E2039A94F8203113414D
:104F4000DA0700F10F82BAF1000FCCBF0220012076
:104F500008F064FF09F1FF33252B00F2FB81DFE845
:104F600013F026002E003D0065007D008600A000A5
:104F7000BC00D800E200ED00F90165007400860075
:104F8000A000BC009600B100CD001D012701310139
:104F900095019F01A9018B013B0145014F01590179
:104FA00063016D0177018101F80003010E01002307
:104FB0000093FA23019340460021012207E00023D9
:104FC00000936423019308F101000021022253465B
:104FD0000BF0DAF9404608F0D5FDBBE10023009361
:104FE0006423019308F103005346002103220BF0D0
:104FF000CBF9034B4046D3F8241108F07BFDA9E11F
:10500000F80D002052360020D42600208C1A0020F3
:10501000E90E0020A026002008170020182D0020EF
:10502000D42D0020281A0020D02600200023009331
:105030006423019308F1050000210D2253460BF073
:10504000A3F9B9F10D0F00F08581002300936423CB
:10505000019308F1040000210E2234E100230093A3
:10506000FF23019308F10600002105222BE19F4B4D
:105070000F2219689E4B881C0093C823019324318A
:1050800053460BF081F9B9F10F0F00F06381974B94
:1050900012221968964B481C0093C82301932031B3
:1050A00011E1924B10221968924B01F10C00009310
:1050B000C8230193303153460BF066F9B9F1100F54
:1050C00000F04881894B132219688A4B01F10B00CB
:1050D0000093C82301932C31F5E0844B1122196809
:1050E000854B01F116000093C82301933C315346D0
:1050F0000BF04AF9B9F1110F00F02C817B4B14220F
:1051000019687D4B01F115000093C82301933831D4
:10511000D9E0764B09221968754BC81C0093C82347
:1051200001932831CFE0714B0A221968714B01F1CC
:105130000D000093C82301933431C4E06B4B0B2264
:1051400019686D4B01F117000093C823019340319A
:10515000B9E0664B24221968654B01F10800009301
:10516000C82301934431AEE0604B25221968604B9F
:1051700001F112000093C82301934831A3E05B4B77
:1051800000221868002103780092022B4FF0C80318
:1051900001930CBF4C301C30262294E0534B00216D
:1051A000186800230093C8230193043015228AE075
:1051B0004E4B0021186800230093C82301930E3042
:1051C000162280E0494B0021186800230093C82371
:1051D00001931830172276E0444B00211868002311
:1051E0000093C823019305301C226CE03F4B002143
:1051F000186800230093C82301930F301D2262E03A
:105200003A4B0021186800230093C823019306300D
:105210001E2258E0354B0021186800230093C82354
:10522000019310301F224EE0304B002118680023FC
:105230000093C82301931A30202244E02B4B002115
:10524000186800230093C8230193073021223AE015
:10525000264B0021186800230093C82301931130C6
:10526000222230E0214B0021186800230093C8233C
:1052700001931B30232226E01C4B002118680023D9
:105280000093C823019309301B221CE0174B002117
:10529000186800230093C82301930A30182212E0F3
:1052A000124B0021186800230093C8230193143087
:1052B000192208E00D4B0021186800230093C82331
:1052C00001931E301A2253460BF05EF842E0012B88
:1052D00040D10A4BB87833F91230B3F5617F0FDB58
:1052E00040F633029342A8BF13460BE04C2900203E
:1052F000000020410000C84200007A44182D002020
:105300004FF46173B9F10C0F24D14FF4966292FB04
:10531000F0F0A3F5617393FBF0F3B449DBB20A78C4
:105320009A4217D0042B34BF1A4602220A7009FB96
:1053300002B2AF4902F2EE720A6006930CF001F974
:10534000069B4846194608F087FC069B581CC0B2CD
:1053500008F064FD039A0123934094F8202113433D
:1053600084F82031039B0C370133042B03937FF423
:105370009AAD4BE53368DB0511D59E4BDB7873B1F5
:10538000DAF800309F070AD5B9F8003013F00107AA
:105390000AD10EF095F8012003F0D8FA04E00120BC
:1053A00003F0C4FA012300E00023D8F800205007DE
:1053B0000DD563B1012003F0B9FAB9F800309907AF
:1053C00008D40EF07DF8022003F0C0FA02E00220BB
:1053D00003F0ACFAB9F80030874A13F0030F4FF02E
:1053E000100114BF51611161DAF8002012F00A0FA8
:1053F00030D0D8F80020D2060DD55F070ED4042097
:1054000003F0A4FA7D4B0A22B3F9043093FBF2F3C4
:10541000A4F8283102E0042003F088FAD8F800301C
:10542000980607D5B9F80030590606D4402003F095
:105430008DFA02E0402003F079FAD8F800305A06DD
:1054400041BF6E4B0A22B3F9043093FBF2F348BF1D
:10545000A4F82A31DAF800309B0609D4D8F80030D5
:105460001F0540F19B804FF4807003F06FFA99E0C4
:10547000634B1B78980755D5624B1B78042B51D989
:10548000D8F8003013F4007B0FD0B9F80030D906FB
:105490003CD4102003F05AFA202003F047FA5A486F
:1054A000011D08F0A9FF02232CE0B9F8007007F0F5
:1054B0001007BFB22FB1102003F038FA012784F88B
:1054C0002CB1D8F800305A0514D5D4F830314F49F2
:1054D0005A89B1F90030DFF838B1002BB8BF5B4210
:1054E000934207DAB1F90230002BB8BF5B42934216
:1054F000C0F25D81B9F800309B0608D5202003F08A
:1055000015FA002384F82C31012700E0002794F8D5
:105510003C31BBB90E2008F05BFC3D4B012283F807
:105520003C210FE0B9F8003003F03003002B95D098
:10553000102003F0FBF9202003F0F8F9002384F891
:105540002C3101E0002F89D000221746314B00207A
:1055500023F81700304B191D03F10A0E21F817002C
:10556000002142F80E109644CEF80400CEF8081040
:1055700023F8170003F1320E5A3342F80E10D150BF
:1055800096441344CEF80400CEF808105860996091
:105590001432002F7FF462AF0127D7E74FF48070F9
:1055A00003F0C4F91D4B5A791F46082A01D00E2A70
:1055B00002D1402003F0BAF933685E0536D597F87A
:1055C00030321BB92B7813F0040F03E0D8F8003009
:1055D00013F4002F26D0124B00221A703C2006F044
:1055E000A1FE18B309F0E6FDF8E700BF0827002088
:1055F0008C1A0020A4260020000C01401C21002051
:105600004021002020100020DC1000201421002068
:10561000F80D002046360020360F0020D42D002043
:10562000441A00200EF03AF90EF04DFD012384F8E3
:10563000C03194F8C1310BB3DAF800305D071DD5E5
:10564000D8F80030180703D4082003F06FF915E0EC
:10565000B9F8005005F00805ADB27DB9082003F097
:1056600075F9614B1A68614B1A60614BDA88614BBE
:10567000A3F8C221604B1D60604B1D6094F8C131DE
:10568000002B00F0AD80DAF80030D90640F1A88098
:10569000D8F800309A0206D44FF400700BB0BDE881
:1056A000F04F03F043B9B9F8004004F40074A4B219
:1056B000002C40F095804FF4007003F047F94A4BFE
:1056C0001A684A4B1A604A4BDA884A4BA3F8C2213F
:1056D000494B1C60494B1C6082E0012000E0022025
:1056E0005FFA80FA0AF1FF338BF8EC3703F070F9B8
:1056F00003F014FA504608F091FBFFF729BB039A18
:1057000012B17E2B3FF422AB94F8E530972B06D1F3
:10571000384B4FF4C872A3F8EA20FFF719BBA72B48
:1057200006D1374A137843F004031370FFF710BB18
:105730000022BB2B099201D1022303E0B72B04D135
:105740004FF6FE73ADF8263009E0BE2B01D10223DF
:1057500003E0BD2B1AD14FF6FE73ADF82430D9F813
:105760000030BDF82410B3F864200A44A3F8642084
:10577000BDF82610B3F866200A44A3F8662003F0AB
:1057800087FB002384F8E630FFF7E2BA792B04D1D7
:105790001C4AD37823F0010306E07A2B7FF4D8AAC1
:1057A000184AD37843F00103D370FFF7D1BAB9F8A0
:1057B00000309B063FF5ABAE202003F0C7F8124B3C
:1057C0000BF59A701A685B680BF59C710127CBF892
:1057D0003421CBF8383108F00FFE8BF82C7196E6A7
:1057E0000BB0BDE8F08F00BFD41000204828002087
:1057F000182D0020F80D00205028002054280020EB
:1058000040210020AC1A0020241000209148F0B55F
:105810000368914A9C8AA4B2E1B211F0010F2ED024
:10582000198821F400610904090C1980198889B2CA
:1058300041F48061198000211170517899B19178FB
:1058400011B9D178FF290ED1012191701179022966
:1058500001BF198889B241F400611980517941F082
:1058600001011982E1E0517901F0FE011982D3783A
:10587000FF2B00F0DA80784BFF211970D5E08E07FE
:105880003AD5BFF35F8F1479E4B2012C13D151786C
:1058900089B1917879B1198821F480610904090CE2
:1058A0001980BFF35F8F198B1988947189B241F405
:1058B000007119801BE0198BBFF35F8F1479664963
:1058C000022C0AD14C7844B1897831B1198821F47D
:1058D00080610904090C1980A1E014795E49032C48
:1058E00005D14C781CB18978002940F098809988BE
:1058F00089B241F4806197E04D0756D5012191713D
:105900005178002937D09178002934D011791C883A
:10591000022911781DD924F480642404240C1C80ED
:105920001E8A9568CCB2F6B249B26E54198889B213
:1059300041F4007119800168A31C13700B8A0134B3
:10594000DBB264B22B558B889BB243F480638B80AF
:1059500026E0A4B244F400741C801D8A9668CCB280
:10596000EDB249B275541B8A611C49B2DBB20334F3
:105970007354147014E09178374C09B9217B41B10C
:10598000198889B241F400711980137801331370BA
:1059900006E0198889B241F4807119800123A3704F
:1059A00001680B88DB05FCD43FE001F0400101F009
:1059B000FF05E1B114781F8A9668E5B2691C64B2EC
:1059C000FFB23755C9B21679117049B2CC1CA64244
:1059D00001BF9C8824F480642404240C08BF9C80AC
:1059E00013798B4221D11C4B02351D701DE0270617
:1059F0001BD511784CB2661C0AD0156901312C5D9B
:105A0000C9B21C821479117049B28C420DD106E0E2
:105A1000D17815701982517809B9117929B9998805
:105A200021F480610904090C9980137992F90040EE
:105A300001339C4208490CD100238B708B7933B120
:105A400001688B8823F440731B041B0C8B8000239C
:105A50001375F0BD942A0020BC0F00202DE9F04FF3
:105A600087B06C4C02916C4922888E690546C2EB66
:105A700026135B435200C2EBE602B4F902601B132B
:105A80005643B4F90420B4F90A0053439B1303EBC3
:105A9000E62606EB860380331B12B6F5FA384FEA8A
:105AA000E6770493CB6947F1FF39A8FB08AB039372
:105AB00008FB09F3B4F908200BEB430BE389A6615B
:105AC0000593D31708FB03F102FB0911A8FB02237E
:105AD0000B44C1171F030AFB01F300FB0B33AAFBA6
