:020000040800F2
:1000000000A00020DD71010845720108D923010814
:1000100045720108457201084572010800000000A0
:100020000000000000000000000000004572010810
:100030004572010800000000457201088F0F010899
:1000400045720108457201084572010845720108B0
:100050004572010845720108819E00087D9E0008D6
:100060004572010845720108457201084572010890
:100070001D0F01080D0F0108E7FD0008457201087A
:10008000FD0E0108ED0E01084572010845720108D8
:10009000457201084572010845720108799E000801
:1000A000553B0108913B0108473B0108B53B01085E
:1000B000853B0108753B0108653B01084572010855
:1000C0004572010845720108457201084572010830
:1000D00045720108D93D0108CD3D0108C13D010827
:1000E0009D0F01084572010845720108457201081B
:1000F0004572010845720108457201084572010800
:10010000000000000000000000000000457201082F
:1001100045720108457201084572010845720108DF
:1001200045720108457201084572010845720108CF
:10013000457201084572010800000000000000003F
:10014000457201084572010845720108000000006F
:10015000000000000000000000000000000000009F
:10016000000000000000000045720108457201080F
:1001700045720108000000000000000000000000BF
:080180000000000045720108B7
:100188002DE9F04F8D4E8E4B2DED068B33608D4B48
:100198001B780020702BAFB0706004D00DF0F0F821
:1001A8000CF064FE03E00EF009FF0028F6D00CF016
:1001B80057FF854A854D137843F001031370844B2C
:1001C8004FF47002C3F88820002309930A932B6820
:1001D80043F480332B602B6803F400330A93099BA4
:1001E800013309930A9B1BB9099BB3F5A04FF2D1C0
:1001F8002B6813F4003318BF01230A930A9B012BC1
:1002080000F0A580B37A724FDFF80892DFF8088211
:10021800003318BF012333726E4BFB606B6AF360C7
:100228006B6A43F080736B626B6943F4FC032EAC1A
:100238006B6103238DF86A3041F6FF7324F8503D53
:100248004FF09040214608F0C7FC4FF6FF73484630
:100258002146ADF8683008F0BFFC5F48214608F039
:10026800BBFC5E48214608F0B7FC5D48214608F013
:10027800B3FC5C48214608F0AFFC04234FF0020AA7
:100288008DF86A304FF090404FF400732146ADF876
:1002980068308DF86BA008F09FFC4FF4806321460E
:1002A8004846ADF8683008F097FC20460CF016FA7E
:1002B8004D4A1A9BB3FBF2F34C4A4D481360002198
:1002C800102217F018F94B4B4B4A5A60F02287F866
:1002D80023204FF0000B0722C3F808B01A60474BE1
:1002E800474F1B683B606B698DF86BA0012243F494
:1002F80080238DF86A2003926B610823A8F80430E4
:10030800ADF86830C8F800904846C9F8183021465A
:1003180008F062FC4FF40043ADF868306B69039A4B
:100328008DF86A2043F400238DF86BA02A486B618E
:10033800214608F051FC334B334A1A60584610F0F6
:100348003FFE3B6813F0080FC34629D16BE02F4BE3
:1003580012221A606B686B606B686B606B6843F4A1
:1003680080636B606B6823F47C136B606B6843F489
:10037800E8136B602B6843F080732B602A68134B7B
:100388009101FBD55A6822F003025A605A6842F07C
:1003980002025A606B6803F00C03082BFAD131E7AC
:1003A8001B4B1A7A012A9A463DD8044A9B7AD2688E
:1003B80012F0805800F01A8635E000BFD8030020FC
:1003C8008DE5000800F00308A83000200010024066
:1003D80000ED00E00005FA0500080048000C0048A0
:1003E800001000480014004840420F00002C002074
:1003F800042C002010E000E03F1901002820002014
:100408007C330020F4390020E30B0108002002406F
:10041800803300200004004804370020554B002298
:100428009A720CF0A3FF642010F0A3FD002152483B
:100438004FF48C7217F05FF8EB69504943F00703EB
:10044800EB61AB6943F4E123AB616B6943F4C0230F
:100458006B6101F5887E8B7B4868CD7B03F00702D2
:10046800DB0800EB83039200186A4FF00F0C9540ED
:100478000CFA02F220EA02021A62186A103145EAFE
:10048800000271451A62E6D100223D490023535407
:100498000132112AF9D13B4AFF2199540133072B24
:1004A800F9D1394D00212846102217F024F8374B8E
:1004B8002B606B60AB60EB603D6835483C220021E7
:1004C80017F019F8C5F38017052300223149DFF822
:1004D800C0E0505C0C21514301F80E0047B91E38AA
:1004E80001289FBFFF2003F1FF3301F80E00DBB2A4
:1004F8000132052AEAD186F82830274BF362274BC8
:10050800274A1A60274B284A93F80080274902EBAC
:10051800C8025378AA0648BF01230B630022244B64
:1005280040F2DC5123F812100132082AF7D11C22BC
:1005380013A8002116F0DFFF15F400721DBF1D4B34
:10054800199403930392B8F10E0F03D008F0EF0348
:10055800082B02D101238DF85E300023164901EBE8
:10056800C30191F90200022828D18B88003318BFF3
:10057800012327E080330020E82C0020DCA90108B3
:10058800E8030020F9030020F02B0020E10B01080C
:10059800D03300207A9B010860200020982C00208E
:1005A8002021002000200020808D0108D803002091
:1005B80038090020D4860108A63300200133052B12
:1005C800CCD100238DF85230C5F340038DF8533059
:1005D800C5F340338DF84C30C5F3C0338DF84F3038
:1005E80015F400638DF8557004D0B24B9B7A5F1EEA
:1005F8007B427B418DF85030C5F300438DF856306F
:10060800336BAD48003218BF0122003318BF0123F5
:100618008DF85830C5F300538DF85930A74B8DF835
:100628005720DA88ADF85C205A89ADF85A20C5F30E
:10063800804205F00108C5F3C0078DF85420ED0489
:100648001A899B88ADF8623048BF9D4BADF8602091
:1006580044BF9B88ADF86230B2F5FA7F88BF0023AB
:100668004FF090024FF0000188BFADF862308DF86E
:100678004D808DF84E7016F03EFF9DF85E30002BD1
:100688000CBF00220222B8F1000F00D107B10132DD
:100698008C4B03EB82034FF000099B69A3F1020A1C
:1006A800203304933AF8023F4FF6FF72934200F06A
:1006B800EC819DF85110DAB21B0ADEB279B182489A
:1006C80000EB02104168B1F1904F08D10189B1F5F2
:1006D800804F00F0D681B1F5004F00F0D2819DF82F
:1006E800521079B17848794D00EB02104168A9425F
:1006F80008D10189B1F5806F00F0C381B1F5006FB1
:1007080000F0BF819DF8551031B111016E48405875
:100718006F49884200F0B5819DF8561079B11101F2
:10072800694D68186D586B498D4200F0AA8141687F
:10073800B1F1904F03D1817B082900F0A2819DF887
:10074800531051B1604800EB02104168B1F1904F6D
:1007580003D10189102900F094819DF84F1051B1FF
:1007680059485A4D00EB02104168A94203D101894A
:10077800042900F086819DF8501051B1524800EBD1
:1007880002104168B1F1904F03D10189202900F08E
:100798007881199D7DB14C4F296807EB021778685D
:1007A800884208D13989A888884200F06A81E88897
:1007B800884200F06681022B02D19DF84C3003E09C
:1007C800012B04D19DF84D30002B00F05A819DF883
:1007D80058103D4B170159B19DF85E1041B9A2F16F
:1007E8000E01012904D8D9593B48814208BF042683
:1007F8009DF85910DD1931B19DF85E1019B9043A08
:10080800032A40F21B81012E6ED1DFF8D8800693AF
:10081800D919FF2291F80DE0486888F8782088F8FF
:10082800792001F108020989ADF868104FF0000B32
:1008380002218DF86B1088F880B01AA9C8F88C507E
:100848008DF86AE0059288F834B0C8F838B0C8F86E
:100858003CB0C8F840B0C8F874B088F87AB088F8E6
:100868007BB088F87CB008F0B7F9069B059AD85990
:1008780091785A4608F05AF928465946324613F0F4
:10088800EBF9164BC8F89030154BC8F8943008F1BE
:10089800900108F19402C8F898B0284613F032FA8B
:1008A800054B9A7803EBC202202151721A79013262
:1008B8001A71E2E0DC1E002094090020B02B002011
:1008C800002E0020D4860108DCA901080004004895
:1008D80000040040002C014000400140F987000856
:1008E80079890008D8030020022E54D15FFA89F3D1
:1008F8001C2101FB03FCB54BCDF81CC003EB0C0B12
:1009080001238BF880300693B14B8BF88190D9196D
:100918004FF0000891F80DE048688BF8828001F1EB
:1009280008020989ADF868108BF88A801AA9CBF8F3
:100938008C508DF86AE005928DF86B6008F04CF9E0
:10094800A34B059AD8599178424608F0EFF8069BD0
:1009580028461A46414613F07FF99C4BDDF81CC027
:100968009C4ACBF8902003EB0C0190319A4ACBF8C3
:100978009420CBF898800A1D284613F0C3F9974BAA
:100988009A7803EBC20240215172DA780132DA70A8
:1009980009F1010971E0032E4ED19DF854308F4EB4
:1009A8008F4F8BB14FF6FF7200232846082196F827
:1009B800018008F03AF98B4B47F82800C360B378F8
:1009C800192206EBC3032BE0BDF8602096F80180DE
:1009D800B2F5FA7F12D9844BB3FBF2F2284692B2F1
:1009E800BDF86230082108F020F9804B47F828004C
:1009F800C360B3780D2206EBC30311E07C4BB3FB55
:100A0800F2F2284692B2BDF86230012108F00DF9E1
:100A1800744B47F82800C360B378092206EBC30378
:100A28005A72B3787278013306F8332006EBC303A1
:100A380001325D60727020E0042E22D1674EBDF84D
:100A48005A206B4B93FBF2F2012192B2BDF85C3055
:100A58003778284608F0E9F85C4BB27803EB87034F
:100A6800013206EBC201C3F860010A234B703378E8
:100A780006F8323001334D603370584A93780133A9
:100A88009370049B9A457FF40DAE544A4F4E1278EA
:100A980086F88021574A584B1778A7F11701002587
:100AA80002291D7092469E461AD8F36A2B44D3ED4C
:100AB800007AF5EE407AF1EE10FA02D1336B73BB8F
:100AC80026E04E4A05EB020C0FCB8CE80F009EF88F
:100AD800003010350133C02D8EF80030E5D1EDE738
:100AE800474B13F837808EF8008003EBC703D3F821
:100AF8000490B9F1000FE1D04545DFDA3F4A2B01F8
:100B080003EB020C4B440FCB01358CE80F00F3E7E5
:100B18003C4B1A6812F4805F984626D11FE03A4B86
:100B28003A4A13F83700107003EBC7035D68002DCD
:100B3800EED000238342EBDAC3EBC3016A18DFF877
:100B4800D880D2F8009041F8089001EB080C918801
:100B5800ACF8041092798CF806200133EAE707F024
:100B6800EF03082B2A4B20D121E09EF80020012A10
:100B7800F5D9284B03EB0212103210339342EED012
:100B880053ED047AB6EE007A67EE877A43ED047A7D
:100B980053ED057A67EE877A43ED057A53ED037ACC
:100BA80067EE877A43ED037AE7E70E2F08D11A78C4
:100BB80042F010021A70182F30D110F088FB2DE087
:100BC8001A7822F010021A70192FF5E7D8030020BE
:100BD800DCA90108718B0008D1870008940900205E
:100BE800B42C0020B989000800127A00C9890008CD
:100BF80040420F0000200020E42C0020A00B002021
:100C0800808D01087C330020B0970108242C002037
:100C180034340020A80B0020252C002010F010FCF4
:100C2800D8F80030DFF8C492A64DA74F58035EBF2E
:100C3800A64B01221A7099F8003043F0040389F892
:100C48000030EB6943F48043EB612B6943F4804344
:100C58002B616B6943F480236B617B6A23F4700317
:100C68007B627B6A43F4A0037B627B6A23F0706338
:100C78007B627B6A43F0A0637B627B6A23F07043EC
:100C88007B627B6A43F0A0437B627B6A23F4702318
:100C98007B627B6A43F4A0237B6202234FF0000B44
:100CA8004FF460428DF86C303846032321468DF8A6
:100CB8006D3005931A928DF86EB08DF86FB00BF009
:100CC8007BFE01214FF48052059B8DF86C1038464D
:100CD80021461A9204928DF86D308DF86EB08DF819
:100CE8006FB00BF069FE2B697949049A43F480438D
:100CF8002B612B6923F480432B618B8823F4805369
:100D08001B041B0C8B808B889BB243F480538B8015
:100D18000B8803F4415343F4457343F003030B80FA
:100D28008B8823F470631B041B0C43F4E0638B80F3
:100D38008B8B23F400631B041B0C8B8307230B8210
:100D48000B889BB243F040030B80BA61D8F800309F
:100D580003F41073B3F5107F5CD05E4A5E4B1360EA
:100D68006A69049342F480226A61EA69DFF858B13B
:100D780042F40012EA612A6B22F010022A632A6BFD
:100D880042F010022A63DBF8202022F07062CBF8D0
:100D98002020DBF8202042F08062CBF82020DBF80E
:100DA800202022F07042CBF82020DBF8202042F0EF
:100DB8008042CBF820204FF400421F9202228DF887
:100DC8003C2003222EAF8DF83D2001228DF83E20D5
:100DD800402247F8802D0024584639468DF83F4078
:100DE8001A941B941C941D941E9420940BF0E4FDFB
:100DF8008022584639460E920BF0DEFD049B327A6B
:100E08001B941C941D941E9420941F941C46AAB1F4
:100E1800324B14E096F828205B46314958561F2873
:100E280002BFFF20585402F1FF3203F10C0308BF40
:100E3800D2B23C2BF1D186F828208EE7294B2648E0
:100E48001A931AA911F0A3FE226842F00102226047
:100E5800D8F8004004F40043049304F400630593B5
:100E6800214B07934FF0100C624618460021CDF82D
:100E780018C016F040FB4FF6FF7203210E92079B35
:100E88008DF83C1002224FF0000B14EA02018DF895
:100E98003D208DF83EB08DF83FB01C46DDF818C0F7
:100EA80026D04FF090403946CDF838C00BF084FD7D
:100EB8000123072284F801B02370E270A3709B46D7
:100EC80017E000BF0010024000040048A80D0020F1
:100ED80000380040F437002000540040300E500025
:100EE800D03300207A25E000F21E0020A830002030
:100EF8008B46049B8BB1042299480E9239460BF01D
:100F08005BFD0C2222710722E27101220BEB020326
:100F180084F805B0A2715FFA83FB059B93B1202288
:100F28004FF0904039460E920BF046FD0222227394
:100F38000722E27301220BEB020384F80DB0A273BF
:100F48005FFA83FBEA6A8748864C22F4F872EA6201
:100F5800EA6A42F4D872EA626A6942F0805242F060
:100F680002026A610BF041FB1AA80BF013FB7E4AE0
:100F78001A927E4A1B92BBF1010F4FF0000294BFF8
:100F8800114680211F914FF4807120914FF48061A8
:100F98002191202122914FF40051204623911AA932
:100FA8001C921E922492ADF874B00BF000FB2268DC
:100FB80042F0010222606E4CA26822F04052A26008
:100FC800A26842F08052A2600A200FF0D2FFA26805
:100FD80022F08042A260A268A260A26842F00042A9
:100FE800A260A168624A002934DAFAE7013B092BBA
:100FF8003FF619AA5F4B186820602146484607F05B
:10100800EBFD4FF40063C9F818303C200FF0B1FF36
:101018009AF80A309845BFF601AADBF80030BBF809
:101028000420DFF83C919A614FF40063A9F8283056
:10103800782003930FF092FFDBF80020BBF8041030
:10104800039B11857820C9F818300FF087FF08F145
:101058000108DDE79168484821F0405191609168A6
:1010680041F00051916084684449214041F468315D
:101078008160D0684249014041F40051D160146B4D
:101088000BF1FF3324F00F042343136300200123E3
:101098003C4942189478002C00F08C805C1C042B8E
:1010A80010F801E0D5783249E4B20ED803EB4303D7
:1010B8000A6B5B004FF01F0C0CFA03FC22EA0C02CF
:1010C8000EFA03F313430B6332E0092B10D84FF0E9
:1010D800060C053B0CFB03F34A6B4FF01F0C0CFA94
:1010E80003FC22EA0C020EFA03F313434B631FE0DE
:1010F8000E2B4FF0060B0DD80A3B0BFB03FB8A6B3C
:101108001F2303FA0BF322EA03020EFA0BF31A4326
:101118008A630DE00F3B0BFB03F2D1F83CC01F23A1
:1011280093402CEA030C0EFA02F24CEA0203CB635A
:10113800BEF1090F0E4927D98B698A69AEF10A03F6
:1011480003EB43034FF0070E0EFA03FE22EA0E02EA
:101158008A618A6905FA03F313438B6129E000BFAA
:10116800000400480804024040010050021F00200B
:10117800000100502C87010800030050E010FCFF1C
:1011880007C0FFFDF21E00204B694A690EF1FF33CC
:1011980003EB43034FF0380E0EFA03FE22EA0E0269
:1011A8004A61D1F814E0DA1C05FA02F343EA0E03A7
:1011B8004B612346043010287FF46AAF974B9A6836
:1011C80042F001029A601968944AC907FBD5D368AE
:1011D80023F00203D360D36843F00203D360D368DB
:1011E80043F00103D360936843F0040393608C4A8F
:1011F800B2F9003099B2002940F0D287B2F9021052
:10120800002940F0CD87B2F90410002940F0C887C2
:10121800D8F800309B031CD5C8200FF0AAFEAE20DA
:1012280007F005FF08B107F006FF7E4C86F881013C
:10123800C8200FF09EFE00211422204616F05BF90C
:101248000223E3700EF001F90FF06CFE764B0344B5
:10125800A360764A764D1388D17892786878049599
:10126800DFF810B24AB100280CBF7D234FF47A731F
:101278004A1E86F882214B4301E086F8822100212C
:101288000C226C4C6C48CBF80030002516F033F972
:1012980000211422694816F02EF9294686F8835150
:1012A8000C2284F8845104F5C47016F024F9644AB9
:1012B800C6F8942123200FF05CFE752001210BAAAB
:1012C80012F02EFB002866D05E4AC4F88C215E4AD4
:1012D800C4F89021432284F88821284601210CAAC9
:1012E80012F01EFB9DF8303003F07E038DF830308D
:1012F80040B1682B06D1012384F883311D2384F87B
:10130800883148E09DF82C3003F07E03682B8DF877
:101318002C303BD10223062086F883311AAAD6F84E
:101328008C31014698479DF86B309DF86D2003F08D
:1013380001035B0002F0010243EA82029DF8693072
:1013480003F00103134312D05AB2012A01D100233A
:1013580002E0022A03D1012386F884311BE003F05E
:101368000303032BF7D003200FF080FE13E0314B6B
:101378000C20D3F88C3101213A4698479DF8383033
:1013880013F00F03EFD0042BE5D1E0E7702B04BF77
:10139800042386F8833196F883212C490023022AF6
:1013A8000B7015D1254B2A4818602A4858602A48DE
:1013B800D8602A48186104230B702949294C086809
:1013C800227040F001030B601A4B93F8983103E048
:1013D80001200FF04BFE32E10A2B1A4628BF0022EB
:1013E8000123934040F2B2351D40002D44D113F043
:1013F8004D0F41D0104B1C4A1A601C4A5A6096F88F
:101408008421002A0CBF6F226E229A72184B042284
:101418001A70032318436370086033E0000100501A
:101428002C09002014200020404B4C0014090020F7
:10143800400A0020D8030020E83700207C3500202F
:10144800FC86010829390108D53801080D3B002020
:10145800393A0108313801081D38010890C1793D31
:10146800E4370020640300209D3A01087938010818
:10147800143900203C350020012A4FF00003ABD876
:10148800904A137096F89A31042B6FD8012505FA03
:1014980003F212F0160470D112F0090F64D00A207A
:1014A8000FF067FD7720A0212A463B4607F0AEFCE7
:1014B800002862D077201E212A4607F023FD4FF42A
:1014C8002F600FF04BFDA4F160010027C9B2022282
:1014D8001AAB77208DF868708DF8697007F096FC64
:1014E8009DF868209DF86930774943EA022301F5A1
:1014F800CE72A3520234102CE5D1B1F8AA2102F021
:101508000F0002F47F42A1F8AA2101243B46394684
:101518006D4F21F0010EBE44BEF89CE1BEF1000FF4
:1015280018BF0024CD0706D55FFA8EFE83EA0E03A6
:101538004FF0080E02E083EA1E23F9E71D0448BFB6
:1015480083F4C053BEF1010E4FEA4303F6D10131D3
:101558001029DDD10243A7F8AA2174B9C3F30333D4
:10156800984200F0018608E0012B06D0574A937094
:10157800574A136843F004031360554C23689B07CC
:1015880005D554484FF48073038103689847049A3B
:10159800514B50781B68984796F899614F4D002336
:1015A800022E2B7004D0032E1DD0002E40F0EE85A5
:1015B8002EAB002203F8502D434A4949C2F8AC111A
:1015C8001E200A21012207F021FC60B19DF8683035
:1015D800482B08D1434B444A1A60444A5A600423B2
:1015E8002B70022319E02EAB002703F8507D0C2046
:1015F8003946012207F00AFC002800F040869DF8D1
:101608006830482B06D1374B394A1A60394A5A6034
:10161800032302E0384600F032BE2C4AD370236818
:1016280043F008032360344B1A780AB133490A702F
:101638005A780AB123490A709B7803B12B7099F83C
:10164800003043F0020389F800302D4B1A6899885E
:1016580091610A241D462A68A988938A284E4B401E
:101668009BB2938219200FF084FC01200FF0A8FC94
:1016780019200FF07EFC013C00200FF0A1FC14F0B3
:10168800FF04E8D13368B2889A619AF90C30DBF824
:10169800005053B90E4C23681F0737D5114B1B68F0
:1016A8009847184B01221A7030E017489AED020A41
:1016B8002044294624340DF07BF8B4F5907FF4D10A
:1016C800E8E700BF14390020D80300206403002095
:1016D800E4370020E83700207C350020C82A0020A5
:1016E80014870108AC2A002099BA0008FBB8000842
:1016F80029BA000895B90008240900200D3B0020EC
:1017080004370020E82A0020880C0020AF4B9FED0A
:10171800B08A1B681B7B00EE103AB8EEC00A20EEB8
:10172800080A0DF0BFFBAB4B9FEDAB7A83ED000AC7
:10173800AA4BD3ED047AAA4B67EE887AC3ED007AF8
:10174800A84B1B8907EE903AF8EEE77AA64BC7EE4E
:10175800277A9FEDA67AC7EE877AC3ED007A0FF055
:101768008BFE2268D8F8001012F0020F0CBF01237C
:101778000723560748BF43F0080343F0006312F0FD
:101788000A0F18BF43F070038D06994D049548BFA2
:1017980043F080030806287800F0EF0248BF43F4BE
:1017A800C063082A01D00E2801D143F40063CA039C
:1017B8004CBF43F4A04343F480534F0748BF43F45E
:1017C80080334E0543F4802204D58A4E36780EB114
:1017D80043F440228D0548BF42F40012182808BF80
:1017E80042F0E072080348BF42F00072C90548BFE2
:1017F80042F0806242F4801600274FF0010808FA90
:1018080007F818EA060FF8B204D00BF07BFA08B90B
:1018180026EA080601371C2FEFD1774B77481E6060
:101828000021482215F067FE002148227448754FB0
:1018380015F061FE13F00EFA734A74490023138001
:101848009370734A0B70398A12681FFA81FC714DC4
:1018580071482E68DFF8F8E120F813C006F596768F
:101868004EF823600133122BA846F0D16B4E356831
:10187800EB0458BFB7F816C0A0F806C002F1500C28
:101888001378F3B992F80290D378994519D2B9F13F
:10189800000F08D009F1FF3909EB890909EB89091B
:1018A80009F5617306E0013303EB830303EB83035C
:1018B80003F5617392F8019009F104099BB220F8CD
:1018C800193004326245DBD12B0740F11A8197F8B1
:1018D80008E0BEF1070F00F20E81DFE81EF00800F5
:1018E8000B0012003C005600BB00BB00F20045F2A2
:1018F800F05201E042F6F822494B1A8010F0EFFF4F
:10190800F8E0474B42F6F8221A8009010A2391FBB6
:10191800F3F10023A1F5B061424A42F823100133E4
:10192800122BF9D1404A41491160414A40201370B5
:101938000FF0D0F9002800F0DE807B7A90F90000E3
:10194800002B14BF0723062301228DE80C00402139
:10195800384A394BC9E0324B42F6F8221A80324BEA
:10196800364A1A60324B102240201A700FF0B2F932
:10197800002800F0C08001234FF0000990F9000012
:101988002F4A8DE808024021ADE0254B42F6F822A7
:101998001A80254B2B4A1A60254B082240201A70C2
:1019A8000FF098F9002800F0A68001234FF0000CF2
:1019B80090F90000244A8DE8081040214FF4E133E3
:1019C8000FF0BBFB214BC3F8B00190E00C0B0020DB
:1019D80035FA8E3C480B00200AE81C417C35002073
:1019E800340B0020E8370020842A002000401C46E1
:1019F80000200020C00F00203409002020370020DC
:101A08006837002080330020601F0020330E00203C
:101A1800A41400205C1F00200C3100207C3300201F
:101A2800600B00206C1D0020680000205DC10008CC
:101A3800A033002005C50008A086010049C10008A0
:101A480059C4000831C100080DC40008D80300209B
:101A58007C0E00204B4B4C484C494D4D42F6F82229
:101A68001A804C4B4C4A0C271F70BEF1060F4FF0E2
:101A7800000303700B70137009D01B232B70474BA6
:101A88001F70474B05221A704FF4E13707E02123F6
:101A98002B70424B1F70424B424F83F800E0424B81
:101AA800424A1A6040200FF015F920B301234FF085
:101AB800000E90F900003E4A8DE8084040213B4660
:101AC80013E0394B3B4A1A60324B0A2240201A7005
:101AD8000FF000F978B10123002790F90000364A89
:101AE8008DE8880040214FF4E1330FF026FB0030E9
:101AF80018BF012028B908200DF0DCF92A4B2F4A1D
:101B08001A603268550409D51E4B44F620611980C5
:101B1800204B12211970244B2949196042F2010304
:101B2800134002F0010102F400508BB1154B44F64A
:101B380020671F8028B1174B082018701A4B2148BE
:101B4800186029B1134B0C211970174B1E491960E5
:101B580010066ED500251D4F1D487D70294615229B
:101B68007D60BD6015F0C7FC284607F001FED8F877
:101B78000030FB6002200FF0ADF858BB80200DF05C
:101B880099F952E0600B0020FA1C0020211E002069
:101B9800221E0020A0330020201E0020F91C002057
:101BA800231E002090D003006800002045C00008D4
:101BB800E1C2000839C0000895C20008C1C1000888
:101BC80091C10008B1C10008A1C10008EC2A002099
:101BD8008C05002090F805E07B78CA490C2202FBAE
:101BE80003125278724504D00133DBB2042BF4D9C6
:101BF80000237B70C44B7A781B7890F90000002B87
:101C08004FF00C0303FB021314BF03250125002228
:101C18005B780095019202210FF08FFABB4B186098
:101C28000028ABD0012007F0A3FDB94B186807F0D6
:101C38004DFE336813F4007F1AAF6AD0B54D039B8D
:101C48002B60B54B5A6942F480225A619A6942F076
:101C580001029A61039B1B88ADF8303002238DF88E
:101C68003330039B4FF0010A58688DF832A00CA955
:101C780006F0B2FF2B684FF0000B1A89D868ADF850
:101C880030200CA98DF832B006F0A6FF2B6850461C
:101C9800197D10F067FF2B6818690AF06FFC2B6834
:101CA8001B691A93384610238DF86D308DF86CB087
:101CB8008DF86EA010F004FC2B685B7D8DF8383031
:101CC8000EA803238DF839308DF83AB08DF83BA073
:101CD80010F0D8FBD8F80030904A3C3B13602368DA
:101CE80043F0100323608E4B4FF4C872A3F8CA2147
:101CF8008C4AC8211180E122A3F8CC218A4B8B4A57
:101D08001A608B4B40F271121A808A4B4FF0FF32E7
:101D18001A603368884D0024D9032C7040F1BA80CA
:101D28004FF001090FF07EFD85F80090834DDFF834
:101D3800E8A1DFF8288240F22A331A4621462846CD
:101D4800059315F0D8FB7E4A7E491160DAF8142015
:101D58004FF0904042F40032CAF81420426A22F050
:101D68000F024262426A032142F0060242624FF4C5
:101D7800807B02228DF835100CA98DF8342003924F
:101D88008DF83640CDF830B08DF837900AF014FE53
:101D9800DAF81810039A41F40061CAF81810B8F874
:101DA800001021F45C710904090CA8F800101D2129
:101DB800C8F82C104046A8F828200EA9A8F83040EA
:101DC8006022C8F814900E92ADF83E401094ADF819
:101DD8004440ADF84640ADF84840ADF84A40ADF84B
:101DE8003C9010F082FED8F8182042F00802C8F89B
:101DF8001820D8F8442042F40042C8F84420DAF801
:101E0800142042EA0902CAF81420AAF6E47A5046D5
:101E18000AF0EBFB38460AF0BDFB059B4A4AADF8D1
:101E2800743080231A921F9310224FF400535046A7
:101E3800394623931B951C921E94CDF880B02194AB
:101E4800229424940AF0B3FBD8F80C3043F40073BE
:101E5800C8F80C30DAF8003043F00203CAF8003052
:101E68000BA80C238DF82C308DF82D908DF82E4072
:101E78008DF82F9010F006FB344A0021A318A152C8
:101E88000434FF22802C9A70DA70F5D109F0E9FF4A
:101E980009F0E7FF33685A0540F1878004200EF007
:101EA80019FFDFF87CA02A4CCAF8F80404210EF0C8
:101EB80007FF8AF8FC0408200EF00CFF254B0821C8
:101EC80018600EF0FDFE00218AF8FD042C22204641
:101ED80015F011FB8E2363704FF07C09E0234FF05F
:101EE8007D08E37084F8009084F82B801A4C2C222B
:101EF8000021204615F0FFFA8A2363702020A023D2
:101F0800E3702DE0289A01080C2B002010200020F7
:101F1800942A0020A82A002000100240A42A0020A9
:101F2800D8030020682A0020602A00205E836C3FC6
:101F3800702A0020642A002044390020A6050020C9
:101F4800F02B0020DFB60008342C01404639002071
:101F580038100020B010002069100020002C01402B
:101F680084F8009084F82B800EF0B4FE2021CAF883
:101F780000050EF0A5FE8AF8040510200EF0AAFE52
:101F88001021CAF808050EF09BFE8AF80C054FF4DC
:101F980080700EF09FFE4FF48071CAF810050EF0A5
:101FA8008FFE8AF8140513F035FCB84A138823F01D
:101FB80040031B041B0C1380138823F038031B04F5
:101FC8001B0C138013889BB243F04003138000243A
:101FD8009F2332208DF838308DF839408DF83A40FB
:101FE8008DF83B400EF0C5FF8DF86940A84C4FF4C2
:101FF80080580422A4F8288038460EA910F012FA56
:10200800C4F818809DF86A209DF86930120242EAE7
:1020180003429DF86B301A439E4B9A429E4B17D051
:1020280008D89E498A420CD001F51A4102318A42E9
:1020380009D01CE09A498A4205D001318A4207D06A
:1020480015E0202200E080221A804FF4807202E01E
:102058004FF480721A805A809A88198812029A60FE
:102068004A43DA608F4A012182F8151504E00022FC
:102078001A805A809A60DA60DC6824B3E40AA146C0
:102088004FF0000AA2450BDA0AEB04084FEA680889
:102098004FEAC8203946102209F08EFF0F2807DCC6
:1020A80007F070FE7F4B4FEAC922C3F818250AE0F3
:1020B800002357F8232001326ED10133042BF8D1C5
:1020C800C1464446DEE73168774B11F4002218BF59
:1020D80001221A70049B1B78052B02BF734B4FF427
:1020E800C8721A80724B4FF47A721A80714BC822E8
:1020F8001A80714A137843F0080313706F4A1378F3
:1021080023F00203137040F602030B408BB16C4BB3
:102118006C4803221A706C4B01221A706B4A002318
:1021280013806B4AB7EE000A4CF2503113800CF062
:102138003FFB33689B0341BF664B05221A71DA786F
:1021480044BF42F00102DA70634B1B683360634B93
:1021580001221A70624A137863F07F0313702FB05C
:10216800BDEC068BBDE8F08F5E4B42F210721A8010
:102178005A805D4A5A605D4A9A605D4ADA605D4AF3
:102188001A615D4A5A610323FFF7F0B9012E7FF601
:102198004AAA1E46FFF702BA08F1010AA04690E7CC
:1021A8005649002008701BB207EE903AB2F9023087
:1021B80009EE103AB2F90430B8EEE78ADFED507A4A
:1021C80008EE903A28EE278AB8EEC99AF8EEE88A1F
:1021D800B0EE480A29EE279A68EEA78A0CF062FE4C
:1021E800F0EE409AB0EE480A0CF0FAFDB0EE408AE4
:1021F800B0EE490A0CF056FEB0EE40AAB0EE490A1D
:102208000CF0EEFDF0EE40AAB0EE680A0CF04AFEC3
:10221800B0EE409AB0EE680A0CF0E2FD60EE296A72
:1022280068EE097AF0EE665AE7EEAA5A354B29EEBF
:10223800296A28EE007AC3ED035AF0EE465A2AEED0
:10224800400AE7EE6A5AE6EEAA7AA6EE6A7A29EE1C
:102258000A9A83ED010A28EE4A8A2AEE290A83EDB2
:10226800009AC3ED02AAC3ED045A83ED058A83EDF3
:10227800067AC3ED077A83ED080AFEF7C9BF012E77
:102288007FF6D1A900262870FFF792B900380040E0
:102298000004004818BA20004C0000201520200037
:1022A8001740EF00D803002027090020F20E002075
:1022B800EC0E0020043A002034340020103B0020AB
:1022C800E23700200C1F00208D000020CC360020B3
:1022D800CE3600201420002028200020A80D002041
:1022E800A830002048290020CB38010819390108F6
:1022F800C1380108093901085D3601084400002089
:1023080035FA8E3CB81E00202DE9F04FAE4B1F78F1
:1023180093B09946002F6BD0AC4B1868002801F099
:10232800C6870EF0D3FDAA4C20680EF069FF00287E
:1023380001F0BD872068A74C0EF05FFF092801D087
:102348003F2849D14FF000082768A34D46462FB1D2
:10235800A24829683A4615F01BF910B9A84606B9EB
:102368002E469F4B10359D42F1D3C6B1D6F800E0FA
:10237800D8F800C023681EF803501CF80300A842D0
:102388000DD15A1C954938B92D2B05D8914D2A6085
:102398002025CD54885402E0CD542260EAE7236812
:1023A8000BB146450FD08F4812F0D8FD464507D8E7
:1023B80056F8100B12F0D2FD092012F0A7FCF5E731
:1023C80008F0FCFA002723689F42ACD2834BD85D03
:1023D80012F09CFC0137F6E72368002B41F0EC86ED
:1023E800042841F03D877D480BF050FC01F05FBFA9
:1023F8007D4E751E06F1010855F8093C002B01F0C9
:102408007D8655F8090C0EF0FBFE002801F0598670
:1024180055F8090C0EF0F1FE15F8053C013B044691
:10242800042B04D8DFE803F0070C111B1F00242835
:102438003BD1012336E04D2814BF0023022331E0AD
:102448003C2814BF002303232CE040284FF000034E
:102458009EBF05F8043C05F8030C042322E005F8A8
:10246800020C05231EE015F8042C15F8033C9A42CB
:1024780009D2531C5D4905F8043C482303FB0713A4
:102488001A44107242E015F8022C691E5A4013F1E2
:10249800FF3303D311F8010B4240F8E794420CBF15
:1024A8000623002305F8053C30E0DFF870A19AF810
:1024B800003013F0040229D1232C55F8091C1AD135
:1024C800012389F80030424B49481960494B5A7337
:1024D80010221A733D4A58601960996046480433BF
:1024E800136012F03BFD08F069FA9AF8003043F0E7
:1024F80002038AF80030414B1B78A34201BF404BCE
:10250800404A1A60404B04BF404ADA6015F8053C5F
:10251800062B7FF476AF15F803EC3D4A482303FBFE
:1025280007E303EB020E3B4A15F8023CCDF810E036
:1025380007CA05F1FF3A1FFA83FB4FF0000C06ACFF
:10254800572BCDF80CA084E80700ADF814B0ADF80F
:1025580016C0ADF820B0CAEB0E0A00F0748500F280
:102568009A80372B00F0C8845CD82D2B00F0248487
:1025780014D8252B00F0018404D8232B00F06B819C
:1025880000F092BD292B00F003842B2B40F08C85A2
:10259800039515F8012C204B01F0CFBC312B00F02E
:1025A8000A8508D82F2B40F07F85DFF874A0002417
:1025B800D34600F0E2BC332B00F05484352B00F0F6
:1025C800818100F071BD00BF0F3B0020B4370020AF
:1025D800FC3700205C200020FC9401082C200020FF
:1025E800EC960108ECAA01082A37002020370020C1
:1025F800D5120108F40800201CAB0108A6330020FE
:10260800FC9F0020EFBEADDE00ED00E00400FA05FF
:1026180028370020AC87010800200020103B00204C
:10262800D4140020432B00F02F841ED83C2B00F03C
:10263800F08011D8392B40F03785B94B15F8012CAB
:102648001A7016F8012C1A716A78DA70EA1C03926B
:10265800AA785A7101F0E5BC3E2B00F0C980412BE5
:1026680040F02285002300F004BC4A2B00F0CA8009
:1026780009D8442B00F0F684482B40F0158507F064
:10268800CFFB01F0CEBC4E2B00F0C583512B00F0E0
:10269800BB8200F009BDD22B5FD020D8CD2B00F033
:1026A80092820FD8C92B00F0C48203D8C82B67D0F8
:1026B80000F0FABCCA2B00F0B680CC2B00F04C819D
:1026C80000F0F2BCCF2B00F09081C0F08782D02BB5
:1026D80000F07182D12B00F0DE8200F0E5BCDA2B2D
:1026E80000F04D8218D8D42B00F0DD8141D3D62BD1
:1026F80000F0CD81D92B40F0D78403A80BF0FCFF64
:10270800884C208003A80BF0F7FF608003A80BF02B
:10271800F3FFA08001F085BCEF2B5AD015D8DB2B36
:1027280000F04482DC2B40F0BF847F4B15F8012C6D
:1027380083F8302016F8012C83F831206A78CDF818
:102748000C8083F8322001F06CBCF22B00F0F88189
:10275800FA2B00F04E8200F0A7BC744B1B78590787
:1027680001F15F8415F8010C03950AF0F1FD01F001
:1027780058BC03A80BF0C0FF6D4B188001F051BC8A
:10278800CAF3470ABAF1120F01F24D8400245445E6
:1027980007D203A80BF0B0FF09AB23F814000134EB
:1027A800F5E752460023534507DA09A931F8130023
:1027B800604921F813000133F5E7122A05D05D4B73
:1027C800002123F812100132F7E701245A4B00F0D8
:1027D8004BBC5A4C03A8D4F800A00BF08DFFAAF804
:1027E800020003A824680BF087FF208001F019BCC1
:1027F800534B15F8012C9A7016F8012C03965A7051
:1028080001F00FBC03A80BF077FF474B188401F0C9
:1028180008BC4C4B15F8010C1B680395987710F011
:1028280007FF01F0FEBB474B1A68531E02F109016E
:10283800039A501C0390104610F8024B03F8014FFE
:10284800039050789872D01C039092781A758B4236
:10285800EED101F0E6BB15F8013C0395132B01F30B
:10286800E283394C16F801EC2068039600223749B8
:1028780001EBC20191F805C0F4451ED11BB20979DC
:1028880000F8231000EB8302039B591C03911B786B
:102898005370039B591C03911B789370039B591C1D
:1028A80003911B78D370206800210EF0E9FA284BB9
:1028B80080F00100187001F0B4BB01321C2AD6D197
:1028C80001F0B1BB15F8013C03950B2B01F3AB8369
:1028D80016F8010C1F4A03960428116801F3A38314
:1028E80003EB430301EB4302CDF80C805071687889
:1028F80001F81300039B591C03911B785370039B29
:10290800591C03911B789370039B591C03911B78E6
:10291800D370039B591C03911B78137101F081BB81
:10292800DC1E0020002E0020F4080020103B0020B0
:102938002A0F0020B41D0020C5360020941F002057
:10294800DD0E0020942A0020A41400205C930108C6
:102958000200002094150020BAF1090F41F36383A7
:10296800DFF8DCB315F8013CDBF800400395237071
:10297800039B5A1C03921B78637004F1030E002218
:10298800039B591C0391022A18780CBF4FF0FF0CC7
:102998004FF0640C604502F1010228BF6046032A2B
:1029A8000EF8010FECD19A1C03925A78642A28BFBA
:1029B800642203330393E2714B78A370039B12A83C
:1029C8005A1C40F83C2D1B78E3700BF095FEBAF1C9
:1029D8000A0F608101F02583039BDBF80020591C56
:1029E80003911B78137201F01CBB03A80BF084FE43
:1029F8006FF4AF628318DFF84CA3C04CC62B98BFA6
:102A0800AAF8100003A80BF077FE208003A80BF0AB
:102A180073FE608003A80BF06FFEA08003A80BF084
:102A28006BFEB74BB7495880039BB74C5A1C0392AF
:102A38001A4612F8030B03929A784A701A1D0392E9
:102A4800DA78E2721A79087006330393AF4B8AF882
:102A58000B2003A8D3F82CA00BF04EFE039B00EB31
:102A680080005A1C4000AAF8000003921A4612F887
:102A7800021B03925A782271DA1C03929A78E27048
:102A88001A1D0392DB782170637101F0CABA002421
:102A980003A80BF031FE9E4B23F814000134082CD8
:102AA800F6D101F0BEBABAF10F0F41F0BC8215F8A9
:102AB80001AC0395BAF1070F01F2B582DFF888B2CD
:102AC80003A8DBF8002000920BF016FE0E2303FB90
:102AD8000AF4009ADBF80030105303A800930BF0B7
:102AE8000BFE009B23445880DBF80030009303A8BA
:102AF8000BF002FE009B039A234411469880DBF8F2
:102B08000000531C0393CAEBCA0300EB430311F8FC
:102B180002EB83F806E003915178D971D31C039333
:102B280003199178197203F10804131D0393D378DC
:102B3800637003A80BF0CAFDC4F8020001F071BA73
:102B480015F8013C03950F2B01F36D82714916F8B6
:102B5800010CC3EBC3028B1888546A785A70AA78A0
:102B68009A70EA78DA702A791A716A795A71EA1DC4
:102B78000392AA799A710EF0AAFB01F052BA664B39
:102B880003951C6815F8013C2370039B5A1C03929B
:102B98001B786370039B12A85A1C40F83C2D1B78C5
:102BA800A3700BF0A9FDE08001F03BBA5B480CF084
:102BB800E6F901F036BA5A4B1B785B0701F131820E
:102BC8000AF0DEFB1AE0564B1B785C0701F12982FC
:102BD800544B4FF4C8721A8001F023BA504B1B783B
:102BE800580701F11E82504A137843F0040300F09D
:102BF80020BF4B4B1B78590701F115820AF036F9B3
:102C08000AF02EFA01F00DBA404B93F83320012A4E
:102C180001F2098215F8012C83F8362016F8012CE8
:102C280083F834206A78CDF80C8083F8352001F0D9
:102C3800F8B915F8012C3C4B1AB11A7842F0020287
:102C480002E01A7822F0020212AC1A7044F83C6DC5
:102C5800364B16F8012C1A7020460BF037FDDFF8BA
:102C6800ECA0CAF8000020460BF030FDCAF80400BA
:102C780020460BF041FD2E4B188020460BF03CFD02
:102C88002C4B224A188092F8373043F0020382F81E
:102C9800373001F0C6B912AC15F8011C44F83C5D98
:102CA800204601910BF012FD009020460BF00EFD1E
:102CB800834620460BF00AFD824620460BF01CFD99
:102CC80020460BF019FD039B0199009A01330393E9
:102CD80000293DD1184B102083E804080AF07CF83D
:102CE800114A137843F001031370BAF1000F01F091
:102CF8009881124BC3F800A001F093B9B02B0020C3
:102D0800DD3900200C2B0020DC1E0020F4080020F8
:102D1800E21F002020210020EC0F002078CC0108C1
:102D2800103B0020F20E0020343400202410002034
:102D38002210002020100020DC100020902A002003
:102D4800B837002080330020FC1F00202810002006
:102D5800102941F06681C64B83E80408BAF1000FD8
:102D680002D0C44BC3F800A0C148C34B0222011DC6
:102D78001A7006F061FD01F054B9C04C03A8C4F8FC
:102D880000C00BF0A3FC23681843206001F049B988
:102D980003A80BF0B1FCBA4CE08003A80BF0ACFC24
:102DA800039B20815A1C03921B78A37203A80BF083
:102DB800A3FCA08101F035B912ACDFF8CCA244F82D
:102DC8003C5D15F8013C8AF8083020460BF094FC6D
:102DD800AAF8140020460BF08FFCAAF81000204631
:102DE8000BF08AFC039BAAF812005A1C03921B786A
:102DF8008AF80A30049B9B1A012B41F31281204662
:102E08000BF07AFCAAF8160020460BF075FCAAF81D
:102E1800180001F006B915F801AC0395BAF1110FC5
:102E280001F3018112A8974C16F8013C04F81A30F6
:102E380040F83C6D0BF060FC40F2ED23984205DD54
:102E480040F6CA039842A8BF184601E040F2EE20B7
:102E580004EB4A04A0F2EE20192390FBF3F0607013
:102E680001F0DFB8884B15F8012C0395DA7201F0F0
:102E7800D8B8039A511C03911178834A99540133A5
:102E8800082BF6D101F0CDB812ACDFF8F0A144F868
:102E98003C5D7E4B15F8012CCAF800C020461A701C
:102EA8000BF014FCDAF800301843039BCAF8000052
:102EB8005A1C03921A78744BDFF8E4A11A72204660
:102EC8000BF01AFCAAF8380020460BF015FCAAF8FB
:102ED8003A0020460BF010FCAAF83C0020460BF004
:102EE8000BFCDFF89CA1AAF8060020460BF004FCB6
:102EF800AAF8080001F095B807239AFBF3F3C3EB8F
:102F0800C3039A4541F08F80039A049B9B1A062BB2
:102F180041F38780531C0393127800235C4C04EB25
:102F2800C304A1788A4217D1A27003A80BF0E4FB6E
:102F3800039BA0805A1C03921A4612F8021B0392A4
:102F4800A1715A78E271DA1C03929A7862721A1D9A
:102F58000392DB782372D7E70133052BDED101F02A
:102F680062B82BF824000134102C8AF802108AF871
:102F780003300AF1040A01F05480039A049B9B1A57
:102F8800032B41F34E8003A80BF0B6FB039B5A1C9E
:102F980003921A46B0F5B47F12F8021B03925B78CD
:102FA8004FEA8402DDDB0BEB020100232BF8023031
:102FB8004B8001F038B8BAF1080F039515F801BC39
:102FC80041F03180BBF11F0F01F32D8003A80BF0F6
:102FD80093FB044603A80BF08FFBDFF8C8E0039BC4
:102FE80004F03F0444EA80140EEB8B0019465A1C87
:102FF8000392448011F8024B03915A7802F00F02B1
:1030080042EA04120EF82B20DA1C03929B784370D4
:103018000EF008FC01F005B819465A1C039211F885
:10302800022B0391D81C597803909B780F2B00F240
:10303800FA87052A0ED8052900F2F587062000FB35
:10304800021214495354039BC3EB0E02022AE3DC19
:1030580000F0E7BF062A40F0E687072900F2E38779
:103068000D4AEFE70D4B01241C7000F0DEBF00BFD6
:10307800340F0020902A00202E0F00202820002046
:10308800DC1E0020301F002080330020002000209C
:10309800A6330020A8140020CC1400200C3A0020ED
:1030A800F408002014150020562B00F0548600F276
:1030B800AA80362B00F0FA854ED8242B00F05E85C6
:1030C80017D8032B00F0CE8109D8012B00F091818D
:1030D800022B40F085872046CD490422DDE3052BED
:1030E80000F0D581C0F0CA81222B40F079870024F6
:1030F800DAE32E2B00F0EE851FD82A2B00F054853A
:103108002C2B00F05485282B40F06A87DFF844A365
:103118002046BAF806100BF018FB2046BAF808103B
:103128000BF013FB069B9AF80A20591C06911A709B
:103138002046BAF80C1000F0EBBE322B00F07B856D
:10314800342B00F0D483302B40F04A87DFF808A3F3
:103158000AF1800B00F0DABD452B00F0A5861FD8D8
:103168003B2B00F09D8309D8382B00F00B853A2BB8
:1031780040F036872046A74B00F002BD402B00F0F8
:103188005D85422B00F065853D2B40F02987069A26
:10319800A14B501C9978069011705A7800F0CABE5D
:1031A8004D2B00F02A850CD8472B00F04086C0F044
:1031B8002586492B40F01487984B2046198C00F03F
:1031C800A7BE502B00F05686522B00F068864F2B76
:1031D80040F00687069B4FF0000A5A1C069283F8B7
:1031E80000A0069B5A1C069283F800A0069B5A1C56
:1031F80006922046514683F800A00BF092FA20462A
:10320800514600F05CBE732B00F0D18300F2908031
:103218006A2B00F0D58311D8662B00F0AB8104D857
:10322800642B00F04281652BA7E0682B00F04982EF
:1032380000F2568220467A4910222EE36E2B00F0C7
:1032480071820DD86C2B00F05B8240F2E083754BE5
:10325800204619680BF065FA2046734B00F07FBCD6
:10326800702B00F0FC82C0F0BF82722B40F0B88651
:10327800DFF8E8B1DFF8E8A1BBF8101020460BF042
:1032880064FABAF8001020460BF05FFABAF8021098
:1032980020460BF05AFABAF80410DFF8B8A1204615
:1032A8000BF053FA614B204659880BF04EFA069AF8
:1032B8005F4B501C19780690117006994A1C0692AB
:1032C80000220A705978069B581C06901970069BB4
:1032D8009AF80B10581C06901970069B9BF80B1057
:1032E800581C06901970069B591C06911A704B4B76
:1032F800DB6A0A21B3F9003093FBF1F1204689B269
:103308000BF023FA069B9AF80020591C06911A70B4
:10331800069B9AF80420591C06911A70069B9AF885
:103328000320591C06911A709AF8052000F002BE75
:103338007E2B00F0F08515D8772B00F0258307D871
:10334800752B00F0A78200F276834FF0000A00E3A5
:103358007C2B00F0B78500F2C585782B40F04086BD
:1033680000223CE1F02B00F0EF8335D8A02B00F0D1
:10337800F883A42B00F0AA83962B40F031862D4BBE
:10338800204619880BF0E1F92B4B1A682B4B9A420F
:103398000CBF2B4B2B4B1988204689B20BF0D5F963
:1033A800294B1B68C3F3C001C3F38002890041EABB
:1033B8004201C3F340021143C3F3401241EAC20180
:1033C80003F01003194320460BF0BFF91F4B0021EF
:1033D800B3F800E00B467CE0F52B00F0B085FE2B3F
:1033E80000F0A483F12B40F0FB85194B03F1700129
:1033F8003EE1069A511C069100211170069A511C53
:1034080006911370069B5A1C0692132200F095BD74
:1034180054AB0108642A0020DD0E0020F4080020C7
:1034280038090020D410002000100020DD390020C9
:103438000C2B00200A3A0020F437002000540040EA
:10344800F8370020FA370020E43700200C34002039
:1034580021210020DC1E00201515002080330020CB
:10346800B02B0020069B5A1C069201221A70069B5C
:103478009A1806920D221A7000F011BD2046C04914
:1034880004220BF044F92046002100F041BD2046FB
:10349800BC490B220BF03BF92046BB4908220BF034
:1034A80036F92046B9490722F7E1069B5A1C0692CD
:1034B800E7221A70B64B1A78069B591C06911A70A7
:1034C800069B5A1C069200221A702046042100F01E
:1034D800F6BCB04AD056421C0BD04FF2FF721A41CC
:1034E800D20706D54EFA03F2D20742BF0122824024
:1034F800114301330C2BECD1A74BD3F800E0002289
:103508000123A6489340184018B113EA0E0F18BFBC
:1035180019430132202AF3D1A14B1B785807A14B3C
:10352800D3F840A04FF000038E46184648BF41F03C
:10353800010E1946012202FA03FC1CEA0A0F05D003
:103548001CEA0E0F1CBF82401143013001331C2BB3
:10355800F0D120460BF0E5F8934B1A78069B591CDE
:1035680006911A70BDF91430962B40F05A85204602
:103578008E4BF4E28E4B1B89B3F5806F8CBF4FF0F6
:10358800030B4FF0000B4FF0000A8A4B33F91A1067
:1035980041FA0BF1204689B20AF1010A0BF0D5F87D
:1035A800BAF1030FF1D14FF0000A834B204633F8EC
:1035B8002A100AF1010A0BF0C8F8BAF1030FF4D186
:1035C8004FF0000A7D4B204633F82A100AF1010A11
:1035D8000BF0BBF8BAF1030FF4D100F022BDDFF80D
:1035E80000B200920E2303FB02FADBF8001020461B
:1035F80031F80A100BF0A9F8DBF8003053442046E4
:1036080059880BF0A2F8DBF800305344204699881B
:103618000BF09BF8DBF8003053449979069B581C53
:1036280006901970DBF800305344D979069B581C72
:1036380006901970DBF800305344197A069B581C21
:1036480006901970DBF800305344597A069B581CD1
:1036580006901970DBF8003053442046D3F80A105E
:103668000BF05FF8009A0132082AB8D100F0D9BCF3
:10367800069A13F8010C541C06941070069A1878D0
:10368800541C06941070069A5878541C06941070AE
:10369800069A9878541C06941070069AD878541C88
:1036A80006941070069A1879541C06941070069A9D
:1036B80058790733541C8B4206941070D8D100F007
:1036C800B0BC4FF0000A3E4B204633F81A100AF1FE
:1036D800010A0BF03AF8BAF1080FF4D100F0A1BCD6
:1036E8004FF0000A374B1B789A4580F29A84364B84
:1036F800204633F81A100BF028F80AF1010AF1E70E
:10370800DFF8E0A02046BAF800100BF01EF8BAF86F
:10371800021020460BF019F8BAF904300A2193FB7D
:10372800F1F12AE0294B069A1B88FF2B02F10101CF
:10373800A8BFFF2306911370254B19684FF6FF7A2F
:103748005145A8BF514621EAE171204689B20AF0E5
:10375800FCFF204B204619880AF0F7FF1E4BDA7A47
:103768001E4B19683AB10A2359435145A8BF51461F
:1037780021EAE17101E001F30F01204689B2C7E3B4
:1037880059AB01085EAB01086AAB010873AB0108CD
:1037980000200020B887010830340020C0F11F0A3B
:1037A800103B0020F4080020E01F0020E037002034
:1037B800E8370020FA0F002024340020BC2A00201B
:1037C8009C2C0020A03300200C310020F01E00208B
:1037D800EC1E0020D8100020DC1E00201C10002049
:1037E800FC1F002044340020A74B1A681178069A61
:1037F800501C069011701A685178069A501C069051
:10380800117000221968DFF880A21144013208798A
:103818000699032A01F1010ECDF818E00870F1D1DC
:10382800DAF80030DA79069B591C06911A70DAF832
:1038380000309A78069B591C06911A70DAF8003005
:10384800DA78069B591C06911A70DAF8003020467F
:1038580059890AF07AFFDAF800301A7A6AE3002305
:103868008A4A1168C85C06994C1C0694087011684D
:103878001944887A06994C1C0694087012681A44F0
:103888000133117D069A0A2B02F10100069011708E
:10389800E6D1C6E37E4920462F220AF038FFC0E36E
:1038A8007A4B1B689A7F45E37A4B1B6813F8240010
:1038B80003EB840A09F026FA069B4279591C069103
:1038C8001A70069B9AF80120591C06911A70069BDB
:1038D8009AF80220591C06911A70069B9AF8032040
:1038E8000134591C142C06911A70DDD199E300217A
:1038F800694B069C186806224A43831804F1010C98
:1039080093F805E0CDF818C084F800E0805C069ACA
:10391800541C06941070069A5878541C069410701B
:10392800069A9878541C06941070069AD878541CF5
:10393800069410701A79069B0131581C0C290690C0
:103948001A70D5D16DE30AF1010ABAF11C0F00F023
:103958006883524A0123126C03FA0AF31342F2D025
:103968005FFA8AF009F0CEF9D0F800B0584613F0A3
:1039780006FE5946024620460AF0C9FE069B5A1C16
:1039880006923B221A70DEE70024444A0123126C97
:10399800A340134207D0E0B209F0B4F9069B42797C
:1039A800591C06911A7001341C2CEED139E30123FD
:1039B800069A511C069113700133092BF8D130E394
:1039C800374B069A1B78DFF800A1511C03F002035D
:1039D80006911370334B1A78069B591C06911A707E
:1039E8002046DAF800100AF09CFE2046DAF80410A7
:1039F8000AF097FE2C4B204619880AF0A6FE2B4B9E
:103A0800204619880AF0A1FE2046294BA7E0294B39
:103A1800204619880AF099FE274B204619880AF093
:103A280094FE1E4B069A93F83730511C03F001039D
:103A380006911370F5E215F8013C03950BB91F4A7E
:103A480002E0102B03D11E4A92E8020402E04FF074
:103A5800000A5146069A501C0690137020460AF038
:103A680060FE204651460AF05CFE164B2046196857
:103A78000AF057FE204600210AF067FE2046002182
:103A88000AF063FE0BE200BFB8370020942A00203A
:103A9800C4870108A414002094150020F40800200D
:103AA8003434002024100020221000202010002090
:103AB800EC1000209610002098100020DC10002048
:103AC800340F0020902A002028100020069BB94AB5
:103AD800581C92F85410069019701046002390F85C
:103AE8005420934280F29D820699B34A01F1010E57
:103AF8009C5CCDF818E00C7002F110015C5C069932
:103B080001F1010ECDF818E00C7002F120013032FD
:103B18005C5C069901F1010ECDF818E00C70995C17
:103B2800069A541C069401331170D8E74FF0000A26
:103B3800A24B204633F81A100AF1010A0AF005FED2
:103B4800BAF1040FF4D16CE2DFF8A8A2DAF8003079
:103B5800204659880AF0F9FDDAF80030204619881D
:103B6800D6E1974B204619680AF0DBFD954B2046B5
:103B780019680AF0D6FD2046934B01E0934B204686
:103B880019689CE1069A924B501C1978069011709E
:103B9800069A1979501C06901170069AD978501C0B
:103BA800069011705A79C5E18A4B1A78C2E1DFF89C
:103BB80030A2069B9AF80820591C06911A702046D4
:103BC800BAF814100AF0C1FD2046BAF810100AF02D
:103BD800BCFD2046BAF812100AF0B7FD069B9AF809
:103BE8000A20591C06911A702046BAF816100AF0D5
:103BF800ACFD2046BAF818108AE14FF0000A764B5F
:103C08001B789A4580F20D82744B13F81A1003EB57
:103C18004A02069B581C06901970517801EB8101E5
:103C280001EB810101F2EE21204689B20AF08DFDF7
:103C38000AF1010AE3E76A4BDA7A7BE10023684A72
:103C4800995C069A0133501C082B06901170F6D126
:103C5800E7E1604BDFF85CA11A78069B591C0691D6
:103C68001A705A4B204619680AF05BFD5C4B1A7AA9
:103C7800069B591C06911A70BAF8381020460AF0AB
:103C880064FDBAF83A1020460AF05FFDBAF83C1015
:103C9800DFF83CA120460AF058FD2046BAF8061085
:103CA8000AF053FD2046BAF8081031E1DFF848A1C0
:103CB8000AF1280B9AF8022000234A49C95C8A4273
:103CC80000F046820C333C2BF7D10AF1080ADA459A
:103CD800F0D1A6E14FF0000A434B204633F80A1012
:103CE8000AEB030B0AF031FD069B9BF80220591CD6
:103CF80006911A70069B9BF803200AF1040A591CC6
:103D0800BAF1400F06911A70E6D18AE1BAF80110AB
:103D1800204601F03F010AF018FDBAF801102046CC
:103D280089090AF012FD069A1AF8013C511C1B0970
:103D380006911370069A1AF8013C511C03F00F0300
:103D480006911370069B1AF8042B591CDA45069144
:103D58001A70DBD165E10022244B062000FB0230FB
:103D6800002306994C1C06940A7006994C1C06946C
:103D78000B700699C45C013301F1010E062BCDF8D6
:103D880018E00C70EDD10132062AE5D10023069A1D
:103D9800511C069106211170069A511C0691137048
:103DA800134A995C069A0133501C082B069011702F
:103DB800EDD136E1F4080020490900208A090020E5
:103DC800ACF7FF1FB0F7FF1FB4F7FF1F2820002034
:103DD800DC1E002000200020A0330020301F00201F
:103DE80080330020D0330020D4140020A8140020F1
:103DF800CC140020941F0020A633002008F0A8F857
:103E0800069BDFF810A35A1C40F0020006921870B7
:103E1800BAF8001020460AF084FCDAF80C102046A4
:103E28000AF07FFC05F0F6FE0146204647E003A8AD
:103E38000AF04CFC8246514620460AF072FCDDF836
:103E480018B0079CB34BCBEB0404802CDB68A8BFED
:103E580080240AEB04029A4288BFCAEB030405F0E7
:103E680091FF50465946224608F0A6F8069B18448A
:103E78000690D6E0069B5A1C069201221A70069AF2
:103E8800A54B501C93F8361006901170069A93F8BB
:103E98003410501C0690117093F835204AE0069BA8
:103EA8005A1C0692002248E020469C490B220AF040
:103EB8002EFC204600210AF034FC204600210AF09E
:103EC80030FCAEE0DFF884A22046BAF800100AF011
:103ED8003CFC2046BAF802100AF037FC2046BAF833
:103EE800041015E08E4B1A681178069A501C06903B
:103EF80011701A685178069A501C069011701A6849
:103F08009178069A501C069011701B68D988204633
:103F18000AF01BFC85E0069A7F4B501C93F8301082
:103F280006901170069A93F83110501C0690117083
:103F380093F83220069B591C06911A7071E0794853
:103F4800794C0021C02213F0D6FA4FF0000EF34648
:103F5800714A92F8A2309E4536DA637AD9072FD58E
:103F6800227A724B33F91230002B29DDE0686D4B51
:103F78004168B0F808C04FEA0B1203EB020A9950E7
:103F8800AAF806C04FF0000A012000FA0AF010EA69
:103F98000C0001D0504604E00AF1010ABAF1100FF2
:103FA800F2D1134403F1080298800220D872042049
:103FB800A3F808C098729B685360012393719B44CF
:103FC8000EF1010E0834C3E7594B5FFA8BF11970F3
:103FD800069B581C06901970012382F8303120E0A6
:103FE800194654480AF0D4FF0146002800F0D28050
:103FF8004A880698504B079C93F800E04968C2F33A
:104008000B03241A9C42A8BF1C46120448BF0EFB8F
:104018000311224613F00EFB002C06DB069B1C4402
:104028000694012401E04FF0FF34ADF82240002C43
:1040380044D0069B079355F8090C404B06930DF0A6
:1040480074F8069B079C55F8090CE41A24238DF88C
:1040580024304D238DF82530BDF922308DF82740C6
:10406800002BB4BF21233E238DF8263009A9BDF8C3
:1040780020308DF8283005220DF00AF99DF828A087
:104088009DF82730002C8AEA030A0EDD224655F8EF
:10409800090C06990DF0FCF8069B1C44A34204D0B9
:1040A80013F8012B8AEA020AF8E755F8090C514679
:1040B8000DF0CCF855F8090C0DF032F8002305F88E
:1040C800053C154B93F8302152B1002255F8090CE4
:1040D80083F830210DF083F855F8090C10F042FAF6
:1040E800174B1B7853B155F8090C0DF078F80DF003
:1040F80085F908F091FE134B134ADA60012F06F197
:10410800480605F1480508F1480800F0D080012765
:10411800FEF772B94C000020F40800205EAB0108DD
:10412800EC0F00203C380020940900209C2C002033
:10413800EC3600204DC20008E01F00200D3A002098
:104148000C3A002000ED00E00400FA05002E0020E3
:10415800069B591C06911A70BAF8041020460AF0FA
:10416800F4FA069B9AF80620591C06911A70069BC9
:104178009AF80720591C06911A70069B9AF809208C
:10418800591C06911A70069B9AF80820591C06912A
:104198001A709AE54748BDF914100AF0F9FE00288C
:1041A8003FF441AF444B03991B7852460AF0C6FED0
:1041B800039B5344039334E70C2803D13F4810F082
:1041C800CDFE49E00A2801D00D2864D13C4D3D4878
:1041D80010F0C4FE2846232113F0C3F908B1401B90
:1041E800206023687BB35A1EA95C202901D113469D
:1041F800F8E7334A23600021D154334B334DD3F8C9
:104208000080D5F800A02E4F504613F0B8F90646A6
:1042180032463846514613F0BBF92D4A20B9BB5DEA
:1042280043445B78580703D010359542E9D306E03C
:10423800954204D2701CEB683844984702E0254840
:1042480010F08CFE00231E4823600021302213F05A
:1042580052F999F8003053B306F0B0FBFEF763B893
:104268000C28ABD07F2804D1FEF75DB82F2B3EF683
:104278005AA8A0F12002D2B25E2A3EF654A813B979
:1042880020283EF450A85A1C22600D4AD05410F041
:104298003DFDFEF748B87F28E8D1013B084A0E48A3
:1042A80023600021D15410F059FEFEF73CB813B03A
:1042B800BDE8F08F71C20008E01F0020F1AA0108D4
:1042C8002C200020B0BD010868030020FC940108E0
:1042D800EC960108FCAA010818AB01082DE9F04F7B
:1042E800C14CC24D23682DED0E8B5E6AC04B9B7886
:1042F80097B043BB2368BF4C586ADFEDBF8ABF4BFA
:1043080082B207EE902AF8EE676AD4ED017A1A8035
:1043180026EEA87ABA4BF5EE407AF1EE10FA83ED64
:10432800007A14D1B74B636011E098470028E1D1B7
:104338000CF0F8FDB44B1B68F31A1844B34B1B6818
:1043480064339842D6D2EB68002BEED1F0E794EDB7
:10435800016AD4ED007AAE49A64F088037EE066AA6
:1043680076EEE76A87EE067A07F10E00E7EE267A20
:10437800C4ED007AFCEEE77ACDED047ABDF8103092
:10438800A381D31A4B806B68984748B9A14BA24DBB
:104398001A6812F0020F9A4640F0D88000F05EBC0E
:1043A8009E4EB7F90E303360B7F910307360B7F925
:1043B8001230B3609A4B30461A78314608F038FB11
:1043C800FB8A83B9974FDFF870923B88002B00F087
:1043D8009D80237DA9F1480808EE103AA9F13C0513
:1043E8004FF0000A52E03D7E1C377DB9E38A00EEAB
:1043F800103A864B7819B8EE400A196824350AF045
:10440800D7F96C2DF2D17B4B01221A76002556F88C
:10441800253007EE903A242000FB0570B8EEE70A35
:104428000AF09DF913F082FA46F825000135032DAC
:10443800EDD1C7E7D5ED006A07EE103A37EEE66A28
:10444800B8EEC77A86EE077A36EE877AD5ED026A35
:1044580085ED017A77EEC77A85ED007AE6EE276A70
:10446800F0EE667AC5ED036AC5ED026A0023012AFB
:1044780046F80B3049F80B3029D00AF1010ABAF195
:10448800030F08F1040805F114054CD03A8856F8D2
:104498002A10B2F57A7F02BF0023C8F800302B61DA
:1044A800D8F800300B44C8F800302B6907EE901A92
:1044B8000133012B4FEA8A0BF8EEE77A2B61B9D169
:1044C8000023C5ED017AC5ED007AAB60CEE72B6914
:1044D800012BC3BF03F1FF3300EE103AD5ED037A89
:1044E8009FED510AC4BFB8EEC00A87EE800A13F0E8
:1044F80005FC18EE103A5BB1F8EEC87AB4EEE70A9C
:10450800F1EE10FA04DD4FF47A733B80002312E0D9
:10451800D8F800304FF47A7203F5FA7393FBF2F38C
:1045280049F80B30A9E73888012801D10CF064FD5F
:104538003B88013BE9E756F8232059F82310521A23
:1045480046F823200133032BF5D11FE7374B1B789F
:10455800002B00F083830CF0E5FCD4F8DC30D4F8B1
:10456800E0B0C4F8DC00C31A314A9BF8000009EE39
:10457800103A00235E00DFF8C48055F823100028A5
:104588005ED007EE901AF8EEE76AD2ED017AB8EE3F
:10459800497AF5EE407AF1EE10FA27EE287A0DD135
:1045A80007EE900A9FED236AF8EEE77A27EE866A0F
:1045B800F7EE007AC7EE867AC2ED017A92ED016ACB
:1045C800D2ED007A37EE066A76EEE76A87EE067A6B
:1045D800E7EE267AC2ED007AFDEEE77A17EE901A3A
:1045E80028F806102EE000BF482A00207C3500205D
:1045F800140900202C0A0020BD3786350A3A00200D
:104608009C35002083F9223EE83900203C35002003
:104618008A090020E43700200839002024340020CB
:104628000D3B0020EC0E0020000000004039002067
:10463800100B0020DB0FC940FC0A0020FA0F0020F5
:1046480028F813100133032B02F10C0292D1B8F8A9
:104658000260B8F80050B8F80470C34ADAF80010DD
:10466800059216FB06F915FB059917FB07996423B4
:1046780003FB09F3B2F8089011F0080F09FB09F9D8
:1046880093FBF9F9A9F15203049306D0B74A1368CA
:104698001BB153680BB193687BBBB54B1A7802F01A
:1046A800100078B311F020032CD002F002024AB3B4
:1046B800B04B1B78042B25D9AF4B1B88B3F5967FDD
:1046C80020D3AE4BB3F9043007EE903AAC4B1B88BD
:1046D800B8EEE77A07EE903AF8EEE77AB2EE048A97
:1046E80087EE888A4FF0010A4FF0000977EE487A82
:1046F8009FEDA48A27EE888A09E04FF0000A4FF060
:10470800010902E04FF0000AD1469FED9F8A9F49B8
:1047180094ED425A91ED026AF8EE497AB8EEC66A0B
:1047280067EEA88AD1ED007AB8EEE77AD1ED017A82
:104738008E49F8EEE77A27EE05AA27EE85BA66EEE7
:1047480005AA2BEE0B0AD1ED00DA91ED01EA91ED05
:1047580002DAAAEE0A0AAAEEAA0A13F0CFFAF0EED3
:1047680040CABAF1000F22D0DFED897AB4EEE78AA9
:10477800F1EE10FA04DDDFED877A38EE678AF3E7A9
:10478800DFED857AB4EEE78AF1EE10FA04D5DFEDB5
:10479800817A38EE278AF3E7B6EE000A28EE000A97
:1047A8000AF01EFB9FED78CA30EE0CCA01E09FEDBF
:1047B80076CADFED75BADFF8F4A1F7EE009AB9F121
:1047C800000F4BD0F8EEEDDAB8EECE8A2DEEAD0A3A
:1047D800B8EECDDAA8EE080ADFED707AADEE0D0A74
:1047E800B4EEE70AF1EE10FA38DD13F087FA89EE35
:1047F800800ADAED017ADAED006A28EE008A2DEEF9
:10480800807A68EE277A2DEE000AE6EE877ADAEDEE
:10481800026AE6EE807ADAED046A28EE268ADAED94
:10482800036AA6EE878A9AED057AA7EE008A28EE33
:10483800080AA7EEA70A13F061FADAED067A20EE65
:10484800480AB0EE6B8AA7EE808ADAED077AE7EEBF
:1048580080BADAED087AA7EE80CA01E0B0EE6B8A7A
:10486800049B262B3DD82BB207EE103A33B206EE46
:10487800903A3BB200EE103AB8EEC7EAB8EEC0DAAA
:10488800F8EEE6DA2EEE0E0ADFED447AADEEAD0A6A
:10489800ADEE0D0AB4EEE70AF1EE10FA21DD13F0E1
:1048A8002DFA89EE800ADAED075A9AED086A2EEE9B
:1048B800007A6DEE806A2DEE000A65EEC07AE6EEAB
:1048C800867A26EE476A38EE278ADAED067AA0EE6F
:1048D800276A67EEE67A7BEE86BAE7EE257A3CEE43
:1048E80027CADBED017AF5EEC07AF1EE10FA4FF047
:1048F80000021FDD9FED2A7AF4EEC7CAF1EE10FA26
:104908001ED567EE886A94ED437AA6EEA87A67EE1C
:10491800AB6A84ED437A94ED447AA6EEA87A67EE02
:104928008C7A84ED447A94ED457AA7EEA87A84EDE2
:10493800457A05E0C4F80C21C4F81021C4F8142104
:10494800184DDBED027A2A78530731D4164A1168DC
:1049580044F61F629142B7EE005AB2EE047A98BF4D
:10496800B0EE475A26E000BFE8370020BC2A0020F6
:10497800343400202410002020100020443400206B
:10498800EC10002035FA8E3C000000002434002092
:10499800DB0F4940DB0FC940DB0F49C00AD7233C76
:1049A800C2B8B23E103B00205C1F0020142E00202D
:1049B800B7EE005A27EE855AD4ED456A94ED437A4E
:1049C800D4ED447AC04FC14A97ED004ADFF83493DA
:1049D800D2ED003ABE4E0492E5EE0C6AA5EE087AD6
:1049E800E5EE2B7A3AEEA66AF6EE006A68EEA66A5B
:1049F8007BEE277A3AEE077A67EEA65A27EE267AF2
:104A080066EE266A25EEC45A24EE260AD9ED007A07
:104A1800D6ED004A9FEDAF8AA7EEC75AA3EE870AE4
:104A2800B1EE646AA6EE265AA6EE250A26EEE76AD5
:104A380037EE800AA3EEA56A67EEA57A33EE855AAB
:104A4800A4EE876AE3EEA67A89ED000A20EE000A52
:104A580034EE066AA5EE050AE4EE477AA6EE060AE3
:104A680074EEA77A82ED005AA7EEA70A87ED006ACE
:104A7800C6ED007A13F042F989EE800A049AD2ED65
:104A8800007AD6ED009A67EE807AC2ED007AD9ED09
:104A9800007A67EE807AC9ED007AD7ED007A67EE82
:104AA800807A29EE800AC7ED007A86ED000A0CF0BC
:104AB800E3FCDAED080A9AED070A874E0AF01EF9B8
:104AC80020EE080A12F032FF9AED060A3080B1EEA5
:104AD800400A0AF0E0F8DFED817A37EEC00A20EEEE
:104AE800080A12F023FFDAED000A9AED030A708033
:104AF8000AF004F9D4ED467AE0EE487AB0EE670A97
:104B080012F014FFB8F90030DAED085AD4ED477AFC
:104B18009AED010A9AED065A06EE103AB8F90230F3
:104B280007EE103AB8EEC77AB8EEC66AF4EEE75A5E
:104B3800B8F90430DAED007A27EE000A06EE903A6A
:104B4800A7EE860A82B21704F8EEE66ADAED027A70
:104B580058BFB280A7EEA60A48BF00F56160604A58
:104B6800DAED077A48BFB08067EE277A11789BF8AC
:104B78000130E5EE067AF1EE10FAE5EEA67ACCBF42
:104B880041F0080121F00801DAED045A117027EE0E
:104B9800257ADAED035AA5EE867A012B9AED056A95
:104BA800A6EE267AF1EE479A18D12B7859070FD43A
:104BB800D4F82031402293FBF2F29B1A07EE103A08
:104BC800B8EEC77A37EE277ABDEEC77A84ED487A11
:104BD800D4F82031402293FBF2F301E0059B1B89B6
:104BE80094ED498A07EE103AB8EEC77A77EEC77A9D
:104BF80094ED4A7A38EE877A77EEC87AC8EE878AD3
:104C0800A8EEA78A84ED498A12F090FED4F82C51B8
:104C1800344C29780AF030F82368B0EE690A184451
:104C2800206012F083FE29780AF026F86368B0EE57
:104C3800480A1844606012F079FE69780AF01CF896
:104C4800A368294A184419EE101A1368A060194479
:104C58001160264A13680133136003E000232B60B8
:104C68006B60AB60224BB3F90610224B1F687A8940
:104C780091420EDBB1F5FA6FFD79BDBF8B1A6B431C
:104C8800A2F5FA65C5F16405BCBF93FBF5F564357B
:104C980000E06425184BB3F810E0184B1B68059327
:104CA800174B06931E680022114B33F912C0CEEB46
:104CB8000C03002B4FEA4208049325DDB3F5FA7F75
:104CC800A8BF4FF4FA7326E00C2E00205C000020E9
:104CD800102E00204C3D0F4444340020DB0FC93F08
:104CE80034340020782A0020EC390020742A00206F
:104CF8000C310020B837002080330020EC0F002052
:104D0800942A0020082E0020CCEB0E03B3F5FA7F7E
:104D1800A8BF4FF4FA73022A04934FF06400059B6E
:104D28002ED01C782CB1049BA342CCBF1B1B0023A4
:104D38000493049BC44C93FBF0F96FF0630B34F8B5
:104D480019A00BFB093B09F10109C04B34F91940C3
:104D58000FFA8AF9C9EB040404FB0BF494FBF0F492
:104D6800544423F80840BC18049B24796343B84C86
:104D780093FBF4F364339BB26B4393FBF0F02DE0A9
:104D88005C782CB1049BA342CCBF1B1B002304936B
:104D9800049BDFF814A393FBF0F06FF063093AF972
:104DA800104009FB003B0130059B3AF91000001B3D
:104DB80000FB0BFB9BFBF9FBC4EB0B0493F904B062
:104DC800A24B1BFB04F49C80049BB879002BB8BF52
:104DD8005B4243439E4893FBF0F0643033789D4C2C
:104DE8004FF06409434393FBF9F3A3549A4CB37A05
:104DF800434393FBF9F3A354337D944C5843974BA7
:104E080090FBF9F0022A9854954B0ED1F44583F89B
:104E180002900DDB934B04935A8A914214DBB1F54F
:104E2800FA6FA8BF4FF4FA610FE0F4459D5404DA15
:104E380034F808305B4224F808300132032A06F1BE
:104E480001067FF431AFE5E71146874F7F4D891A98
:104E58004FF47A736FF063065943C2F5FA6264231C
:104E6800B1FBF2F191FBF3F237F8120006FB0211E5
:104E7800013206B237F91220921B514391FBF3F32A
:104E88000344E380794B1B885A0639D5784BDFED0C
:104E9800797AB3F904300A2293FBF2F3764A12883E
:104EA8009B1A1BB208EE103AB8EEC88A28EE278A79
:104EB800B0EE480A09F0F6FFF0EE408AB0EE480A74
:104EC80009F08EFFB5F9023006EE903AB5F90030D8
:104ED800F8EEE66A07EE903A20EE667AF8EEE77AA0
:104EE800A7EEA87A67EE807ABDEEC77AE6EEA87AD2
:104EF80017EE103AFDEEE77A2B8017EE903A6B80AA
:104F0800049B5E4D9B7B002B51D0AB89B5F83411C7
:104F1800B1FBF3F15A4B481C1B7880B2A5F8360157
:104F28001BB3B5F838B10023544E34F813C006F556
:104F3800A17E06F59D793EF8137039F813202EF8F6
:104F480013C0C7EB0C0712FB0BF20FFA80FA92FBA7
:104F5800FAF2174429F813700133042BE4D1484BB3
:104F6800A6F8381100221A7004E0B5F83831013B70
:104F7800A5F83831414AB2F8380103B2002B4FF096
:104F8800000312DDB2F936613E4931F813200831C9
:104F980012FB00F231F8131092FBF6F28A1A24F889
:104FA80013200133042BEFD101E0A2F83831364B3E
:104FB80001221A70354B9B680BB135489847354F1D
:104FC800354E3B68294813F0080F73D0A28833493F
:104FD80002F10E039BB21C2B254BB3F9043065D8A4
:104FE800B0F800E01EF0040F60D009884FF00A0EF8
:104FF80093FBFEF35B1A9BB21FFA83FE0FFA8EF146
:10500800B331BCBF03F5B4731FFA83FE0FFA8EF3F6
:10501800B32BC4BFAEF5B4731FFA83FE204B1B68D5
:105028001979204B1B781B0744D549B249421EFB0E
:1050380001F33168097A9BB213FB01F31E2193FB3C
:10504800F1F3D31AA38035E0E22B00200E340020C0
:105058000CFEFFFF543400205C0B0020D8340020E5
:105068003835002080330020BC2B00200C34002071
:105078004434002035FA8E3C2C0F00202C0A0020E6
:10508800C20F0020660B0020C30F00207C350020D3
:10509800760B0020E4370020942A00202A0F0020F5
:1050A800EC0F002034340020D42B00200A2293FB7C
:1050B800F2F30B80A04B1B68DA026BD5B0F80090B6
:1050C80009F400691FFA89F9B9F1000F4ED19B4B19
:1050D8001B785B074AD54FF4006007F08DFE3168F6
:1050E8008B7F022B964B04BF012283F84C21D5F805
:1050F800502118BF83F84C9110894FF47A734343B9
:105108009048008893FBF0F38F485B429BB290F87D
:1051180000E0A5F854310D460021D67810780EB17C
:10512800B04204D8BEF1030F03D8022901D10026EA
:10513800D6702E78864238BF2870814815F8016BE2
:1051480000F5AB7CB6012CF8116000F5AE764FF097
:10515800000C26F811C000F5B176013226F811309E
:1051680001310329D9D1012380F86831774B1B8895
:1051780018051AD4714B1B7803F0040303F0FF06DB
:105188009BB96F4D95F868317BB108F0EFF885F859
:1051980068610AE00388190507D5684B1B785A0728
:1051A80003D54FF4006007F017FE3B68644E13F018
:1051B800140F6FD0654B1B8803F40273002B69D062
:1051C800634B1B7803F0100303F0FF0543B1614BF9
:1051D80096F969211968638801FB0233638059E0F5
:1051E8005D4B5E4A1B685E48D9789B7809B3B2F973
:1051F80006E0B0F90010C1EB0E0080EAE072A2EB05
:10520800E0729A420BDD574A1560012286F86A213E
:105218008E45E288C8BF5B421344E3803AE096F8C3
:105228006A313BB3504B86F86A511A684F4B1A6083
:1052380020E0B0F90000B2F90620121A82EAE27002
:10524800A0EBE27098420ADD022392FBF3F2484B8E
:105258001A60484A0123137086F86A310AE096F802
:105268006A313BB1404B86F86A111A683F4B1A60A5
:10527800404B1970404B4149B3F90020354B1B682E
:1052880013440A884988934203DB8B42A8BF0B4624
:105298001A46E2803A4BDFF8F8B01B78DFF8F49052
:1052A800ABB12E4BB3F90620BBF812309A420EDC94
:1052B80099F80030012B01D0192B02D199F806205A
:1052C8002AB90E2B03D0082B1CBF0023A380D6F8C5
:1052D8006C319D78002D63D01C4B1B889B075FD0D9
:1052E800284BDFED297A93ED080AB4EEE70AF1EED0
:1052F80010FA51D909F0CFFC114BD3ED5C7A20EEAE
:10530800270A12F013FBB0F5617FA8BF4FF4617054
:1053180007EE900AB8EEE70ADFED1C7A80EE270A5E
:1053280009F05EFD07EE905AF8EEE77A27EE800A5C
:1053380012F0FCFA80B230E030340020103B00203C
:105348002C0A00200A3A0020E42C00200C3400200B
:10535800343400209C2A0020EC0F00200C3100205F
:10536800C40F0020982A0020D4100020902A002082
:10537800F0390020A02A0020C60F0020B02B002002
:1053880002000020142E00208FC2753CEFB6B044F6
:1053980080330020002000200020E3881844E080AB
:1053A8003B689F0640F19E80C54B1B8803F0300385
:1053B800002B00F09780C34B1B78DD0740F19280EB
:1053C800C14BDFEDC27AB3F90430DFF858830A2203
:1053D80093FBF2F308EE103AB8EEC88A28EE278A53
:1053E800B0EE480A09F0FCFCF0EE408AB0EE480A3C
:1053F80009F058FDB64BB7491B68DA78B0EE409A09
:10540800B2EE048A002A49D0B34FB1F902007D8870
:1054180007922BB2C01A059104F0FCF9079A059976
:1054280053429842BA4603DB9042A8BF104600E0B8
:1054380018464719BAF80050B1F90000079329B285
:10544800BFB2401A0592AAF8027004F0E3F9079B6C
:10545800984204DB059A90420346A8BF13461D44B0
:10546800ADB2AAF800502DB207EE105A3FB2B8EE0E
:10547800C70A07EE907A28EEC07AF8EEE77A20EEAF
:10548800090AA7EE897AA7EEA80A87EE087ABDEE80
:10549800C77A17EE103AA8F800301BE0B1F90230CD
:1054A80007EE103AB1F9003000EE103AB8EEC00A33
:1054B800B8EEC77A68EEC07A20EE090AE7EE097AF4
:1054C800A7EE280AC7EE887AFDEEE77A17EE903A3B
:1054D800A8F8003080EE080AFDEEC07A17EE903A80
:1054E800A8F802307D4B5A89049B00937C4B1D68B9
:1054F800069B18687B4B19687B4B1B68A8477B4B3E
:105508007B4DDB7805937B4B1B78032B17D9B9F8B8
:105518000470B7F5FA7F12D2B4F90400B5F904E0C3
:1055280080EAE07CACEBE07C7942CCEB010296456A
:1055380004DB07EB0C027245A8BF7246AA806E4ACC
:10554800116811F000610CD199F90200B5F9042035
:105558006F88B5F800E0E688404202FB00F567482E
:1055680058E199F90280B5F90420B5F802E0B5F8D8
:1055780000C0634D0020C8F1000802FB08F801468E
:1055880007469F4236D207EE908A0FFA8EF206EE51
:10559800902A0FFA8CF2B8EEE77A07EE902A95ED8A
:1055A800016AF8EEE77AF8EEE66A67EE867A95ED34
:1055B800026AE6EE867A0DF13C090FFA81FAD5ED1A
:1055C800036AE7EE267AFDEEE77ACDED047ABDF8B8
:1055D800102029F817200FFA82F9D14504DC0FFAB8
:1055E80080FAD14502DB0A461146024601371035DA
:1055F8001046C6E70B1A9FB2424B434D1A6812F485
:10560800805F99462DD0414B1B7813F0040F404B17
:1056180008BF1A8AB3F810E03E4B08BFA6F8342238
:105628001B683D4AD888D4883C4A21B2C0EB0E0397
:10563800994202DC10882A8804E07044814204DB25
:1056480068885288A6F834420EE0B6F934129942B6
:10565800D5BF108852882A886888D4BF0446144663
:1056680002E0E4882A886888224E1FFA82F880B20D
:10567800C8EB000A3BB20FFA8AFA5345284A5BDDA9
:1056880007EE903A07EE10AAF8EEE77AB8EEC78A66
:10569800012188EE278A1170002733789F4243D270
:1056A8000DF13C0B3BF9173000EE103AB8EEC00A8A
:1056B80020EE080A12F03AF92BF817000137ECE748
:1056C8000C340020343400204434002035FA8E3C59
:1056D800300F0020BC0F0020B80F00201409002054
:1056E80060030020B8370020941F0020601F0020AE
:1056F800DC340020E42C002030340020AC0B0020E7
:10570800A00B00207C330020B02B0020103B002091
:1057180080330020EC0F00200C310020002E0020E8
:1057280035340020063A002002229AFBF2F308EBF7
:10573800030292B204920AE000211170022193FB45
:10574800F1F308EB0302C31A9BB292B20493D9F89F
:105758000030AC4896F800E0B5F804806F882E88D1
:1057680003F480530893A84BB3F93492A74B1B8AD0
:105778000693A74B1B680793A64BB3F800A0B3F892
:1057880002C00025754580F009810FAB33F815B0CC
:1057980023B207EE903AA04B03EB051393ED007A82
:1057A800F8EEE77A13B267EE877AFDEEE77A17EE3E
:1057B800901A994205DBBDF910309942A8BF1946E5
:1057C8000B465B4405999BB220F8023F1BB219B106
:1057D800434517DA43461AE0089989B10799B1F8A1
:1057E80006B00699CBEB010BD94505DCB3420DDBBE
:1057F8005345A8BF53460AE0634503DA634606E00B
:10580800B34203DBBB42A8BF3B4600E033460380FC
:105818000135B7E79942814C2DD20FFA8EF207EE87
:10582800102A32B206EE902A3AB207EE902A10ED0C
:10583800016AF8EEE77AF8EEE66A67EE867A10ED26
:10584800036AE6EE867A0246103050ED066AB8EE34
:10585800C77AE7EE267A07EE105AD2ED006AB8EE5C
:10586800C77AE7EE267AFDEEE77A17EE902A24F853
:1058780011200131CEE72188012098420AB207D2CF
:1058880034F910108A42B8BF0A4691B20130F4E7E1
:10589800634899F801804488BBF81070A242614AB5
:1058A800126802F480500B905F48B0F906505848CF
:1058B800006804905748B0F80090B0F802E01FFA6A
:1058C80089F0079056481FFA8EF6B0F800C0069681
:1058D80002F0100286880C921FFA8CF20A92B2B279
:1058E80009924E4ABBF812000890C8BF091B02EB88
:1058F8004303CCBF89B200210D930D9B9A424DD032
:1059080013880B985B1A9BB222F8023B00B3B8F1DC
:10591800000F09D10498B0F806A0CAEB070B5D4543
:1059280002DDBA4455450CDBBD421BB203DD7345AD
:1059380014DA73462FE0B34214DB4B45A8BF4B463D
:1059480029E0BD42CCBFBDF81830BDF81C3022E0BC
:10595800059848B132F9023CB34203DBA342A8BF21
:10596800234618E0334616E01BB2634503DBA34227
:10597800A8BF234600E0634622F8023C089B9D42EC
:10598800BBDA0C9B13B1BDF8243004E0B8F1000F6A
:10599800B3D1BDF8283022F8023CAEE723490A7893
:1059A80002F0040202F0FF038B463AB1204B1B7849
:1059B800013BDBB2182B00F242810BE01D4A127842
:1059C8009342F3D21C4931F81300144921F813000B
:1059D8000133F5E701229A40184B1340002B00F0E1
:1059E8002E81174B10491B88084813F4807F2BD051
:1059F800144B1A88ADF83C205A88ADF83E209B8895
:105A080036E000BF9A2C00202C0A002080330020AA
:105A1800EC0F0020002E0020A00B00209C2C002062
:105A2800B02B00207C3300200C310020103B0020DC
:105A380000200020E42C0020E21F0020992098017B
:105A48000C3400200E340020B14B1A88ADF83C20ED
:105A58005A88ADF83E20AF4A9B881268ADF84030AE
:105A6800D40407D5B1F90640028A944202DA5B42AF
:105A7800ADF84030A84DB5F902304FF47A7203F50D
:105A8800E16353434FF4616493FBF4F3A3F5FA73B2
:105A9800ADF85430B5F9003003F5E1635A439F4B34
:105AA80092FBF4F21B88A2F5FA72A3F2DC53ADF86C
:105AB8005620ADF842300A88038AD21AADF844203D
:105AC8004A88D21AADF846208A88D21AADF84820FA
