:020000040800F2
:1000000000500020E5510108855201080929010826
:100010008552010885520108855201080000000040
:1000200000000000000000000000000085520108F0
:10003000855201080000000085520108A3CE000887
:100040008552010885520108855201088552010830
:100050008552010885520108E9720008E77200081C
:100060008552010885520108855201088552010810
:1000700031CE000821CE0008B5FA000885520108EB
:1000800011CE000801CE00088552010885520108F2
:10009000855201088552010885520108E572000861
:1000A0008552010881F800088552010891F800087E
:1000B00075F8000865F8000855F80008D15B0008DD
:1000C000D55B0008C95B0008CD5B000885520108BC
:1000D00085520108A9FA00089DFA000891FA000863
:1000E000B1CE0008855201088552010800000000C9
:1000F0000000000000000000000000000000000000
:0C01000000000000000000005FF808F1A3
:100110002DE9F04FA54EAFB034780096002C00F0DA
:10012000ED80A34B1868002801F0C1860CF030FE6A
:10013000A04C20680DF007F8002801F0B886206870
:100140000CF0FEFF09289C4C01D03F284BD14FF00A
:1001500000094D462768994E2FB1994831683A46B3
:1001600017F0F4F910B9B14605B93546954B10367C
:100170009E42F1D3D5B12E68D9F80080236816F8D5
:1001800003E018F80300704510D15A1C8C4948B997
:100190002D2B07D8884E4FF0200E01F803E0326077
:1001A000885403E001F803E02260E7E723680BB11D
:1001B0004D450FD0844811F033FF4D4507D855F811
:1001C000100B11F02DFF092011F0BCFDF5E70BF02D
:1001D0008DFD002723689F42AAD2794BD85D11F08C
:1001E000B1FD0137F6E72368002B41F0CF850428E5
:1001F00041F0368672480AF039FA01F058BE019B88
:10020000DFF8E0A118680CF09EFF00285DD0DAF856
:1002100000000CF095FFDBF80030064693F848101C
:10022000002940F08780242840F0E680012283F8EE
:100230004820DBF8003093F84820062ADFD193F8F5
:100240004900502800F0148700F2BD81342800F0E6
:10025000BC8400F25881242800F0AD8500F223818F
:10026000032800F0C58240F2FD80052840F00F8190
:100270001A2011F005FD4FF00008544B13F8080048
:1002800008F1010811F0B7FCB8F10B0FF5D14FF0F0
:1002900000084F4B13F8080008F1010811F0ABFCFF
:1002A000B8F1080FF5D14FF000084A4B13F80800D9
:1002B00008F1010811F09FFCB8F1070FF5D111F01A
:1002C000ABFC2B68002283F84820434D38680CF0C3
:1002D0005FFD95F830306BB159F804000CF025FF44
:1002E0000CF0E2FF0EF03CFF002385F830303B4A73
:1002F0003B4BDA604C34982C01F0D985DFF8F49050
:1003000054F8093004EB0902002BF3D03549364D7F
:100310000B60079300232A608DF82130334A1423A1
:10032000334F8DF8203006AB06923B60AB4601910F
:10033000904664E7012904D14D2814BF002202220F
:1003400075E7022904D13C2814BF002203226EE77E
:1003500003290CD140284FF0000102D983F848103E
:1003600067E758711971D971987104225FE7042900
:1003700007D1997983F8490080EA01029A71052230
:1003800055E705297FF455AF58791979884298794E
:1003900006D970409871481C18710B441E7248E7CA
:1003A000B0420CBF0622002241E700BFEA31002024
:1003B000802700209C270020201C002074BB0108FF
:1003C000F01B002064BD0108D4BE01083CBF010839
:1003D00048BF010851BF0108700900200400FA0558
:1003E00000ED00E07827002070270020A7D100084A
:1003F000742700201C310020D9490B7803F0040336
:1004000003F0FF0E002B7FF414AF232EDAF8000068
:100410001BD1009A01231370D24B02911860D24B6A
:100420001860986010201873D048C3F8048083F8CF
:100430000DE004330360CE4811F0F2FD0BF056FCE2
:1004400002990B7843F002030B70CA4B1B681B78B0
:10045000B34201BFC84AC94B1A60C94A04BFC94B5D
:10046000DA60E6E6012800F0B781022840F0CB868A
:10047000042011F005FC422011F0BDFB542011F0C6
:10048000BAFB462011F0B7FB4C2000F0A1BEC0F033
:10049000BA81222840F0B786BB4E502011F0F0FB05
:1004A00006F1500A76E32C2800F0B48419D82828E5
:1004B00000F096842A2800F0A784262840F0A3861E
:1004C000DFF8C482062011F0DBFBB8F8CC0111F094
:1004D000DAFBB8F8D00111F0D6FBB8F8D40100F07F
:1004E00064BE302800F05C85322800F0D9842E28C4
:1004F00040F08986DFF89082402011F0C1FB08F1BE
:10050000400A00F03BBD422800F0F88421D83A2888
:1005100000F07F820CD8362800F01485382840F08F
:100520007286042011F0ACFBDFF85C8200F049BC5D
:100530003D2800F0A082402800F0B9843B2840F01C
:100540006286012011F09CFB904B1B68187800F02C
:100550003FBE492800F09A820FD8462800F048850F
:10056000472800F05C85452840F04D86132011F0A7
:1005700087FB4FF0000800F0A0BD4D2800F06A8412
:100580004F2800F088854B2840F03D86DFF8F88141
:10059000082011F075FB98F8920211F02CFB98F8E6
:1005A000930211F028FBB8F8940211F06CFB98F854
:1005B000960211F020FBB8F8980211F064FB98F84D
:1005C0009A0200F005BE6F2800F0668267D86528A1
:1005D00000F03C8133D85C2800F0D58507D852283C
:1005E00000F066855A2800F0AE8500F00CBE602849
:1005F00000F0DF85642800F019815E2840F0038652
:10060000DFF88881082011F03BFBD8F80030D88C47
:1006100011F039FBD8F80030188D11F034FBD8F800
:100620000030588D11F02FFBD8F8003093F82400DB
:1006300011F0E1FA544B93F8150200F0C9BD692896
:1006400000F0C78113D8672800F04B8100F2B18118
:10065000122011F015FB4E4B4FF000081B88B3F52C
:10066000806F8CBF4FF0080A4FF0010A18E16D2827
:1006700000F0C68100F2D2816C2840F0C485454E5E
:10068000062011F0FDFA308811F0FDFA708811F0A3
:10069000FAFAB6F904300A2093FBF0F0E6E17C2880
:1006A00000F01D851FD8742800F0B2820DD8722882
:1006B00000F01C8300F25083702840F0A4851E20B7
:1006C00011F0DEFA4FF0000818E2772800F0E78218
:1006D000782800F01681752840F095852F2011F0BC
:1006E000CFFA2D4E21E2A02800F057835ED87E2855
:1006F00000F01985C0F00785962840F084850D200C
:1007000011F0BEFA254B188811F0BDFA244B188859
:1007100080B211F0B8FA234B1B68C3F3C000C3F3D7
:100720008002800040EA4200C3F340021043C3F35A
:10073000401240EAC20003F01003184311F0A3FA7C
:1007400011F082F911F0A8FA0F4B93F8460411F05A
:1007500052FA154B18886428A8BF642000F025BD04
:10076000EC3100209C270020700900208027002009
:1007700004BF0108B0170020EFBEADDEF04F00202F
:100780000400FA0500ED00E01C2C00207C2700206E
:1007900008000020182B00209B9B0108E23100205C
:1007A000F426002090170020F2260020F12800F007
:1007B000DA80FE2800F0E082F02840F02485DFF89F
:1007C0008083042011F05CFAB8F8EE0111F05BFAB6
:1007D000B8F8EC0100F0E9BC032011F051FA002058
:1007E00011F009FA012011F006FA102000F0F0BC17
:1007F00011F046FA022011F0FEF9092011F0FBF980
:10080000012000F0E5BC062011F03AFA412011F079
:10081000F2F9462011F0EFF94E2011F0ECF94120E9
:1008200011F0E9F9C54B187800F0BFBC072011F0B2
:1008300027FAE72011F0DFF9C14B587911F0DBF905
:10084000002011F0D8F9042000F045BC0B2011F075
:1008500017FABC4B188811F016FABB4B188880B2F7
:1008600011F011FAB94B1B68C3F3C000C3F3800247
:10087000800040EA4200C3F340021043C3F3401239
:1008800040EAC20003F01003184311F0FCF911F024
:10089000DBF811F001FAAA4B93F8460400F098BC7B
:1008A000AB4B53F8280008F1010890FBFAF080B236
:1008B00011F0E9F9B8F1030FF2D1A64E308811F02A
:1008C000E2F9B08811F0DFF93089A34E11F0DBF9BD
:1008D000308811F0D8F9B08811F0D5F9308900F0DE
:1008E00064BC102011F0CCF94FF000089B4B13F8BA
:1008F000080008F1010811F07EF9B8F1100FF5D1E8
:10090000DDE48F4E702011F0BBF9B3464FF0000AC2
:10091000B6F8580111F0B7F9B6F85A0111F0B3F969
:10092000B6F85C0111F0AFF996F85E0111F063F9C9
:1009300096F85F0111F05FF996F8600111F05BF92C
:1009400096F8610111F057F90E2303FB0AB30AF17F
:10095000010AD3F8620111F09FF9BAF1080F06F10C
:100960000E06D5D1ABE4702011F08AF9744E06F171
:10097000700A96F8E80011F03EF996F8E90011F0D7
:100980003AF996F8EA0011F036F996F8EB0011F012
:1009900032F996F8EC0011F02EF996F8ED0011F00E
:1009A0002AF9073696F8E70011F025F95645E0D107
:1009B00085E4102011F064F94FF00008684B13F83B
:1009C000080008F1010811F016F9B8F1100FF5D17F
:1009D00075E4644E4FF000083078B246400000F0F5
:1009E000FE0011F04DF99AF800309845BFF467AC5D
:1009F0005D4B33F8180011F046F908F10108F2E7F1
:100A0000062011F03DF9594B186811F045F9584B83
:100A100040E0042011F034F9564BCAE14FF6FF785C
:100A2000072011F02DF9544B1888FF28A8BFFF208C
:100A3000C0B211F0E0F8514B18684045A8BF4046DD
:100A400020EAE07080B211F01EF94D4B188811F0C9
:100A50001AF93B4B93F81B224A4B186842B10A2300
:100A600058434045A8BF404620EAE07080B29CE36E
:100A700000F30F00FAE7324E022011F001F996F868
:100A8000870211F0B8F896F88602A1E3022011F06F
:100A9000F7F83D4B188888E33C4E0C2011F0F0F835
:100AA0003368B246187811F0A6F833684FF0000B9F
:100AB000987811F0A0F8DAF80030344E5B44587999
:100AC0000BF1010B11F097F8BBF1030FF3D1336871
:100AD000187A11F090F83368D87811F08CF83368F0
:100AE000187911F088F83368588911F0CCF8336818
:100AF000587A11F080F83368587869E3244E3368E7
:100B00004344587811F077F833684344D87A11F0A9
:100B100072F833684344587D08F1010811F06BF80E
:100B2000B8F10A0FEAD1FFF7CABB16F8010F002887
:100B30003FF4C5AB11F05FF8F7E700BFE8310020E4
:100B40001C2C0020E2310020F42600209017002009
:100B5000BC0E0020202B0020D42A00209009002069
:100B6000C41C0020B8310020D02B0020A82A00206F
:100B7000C80E0020802A0020001B0020B81A002088
:100B80005E0F0020DC0E002098170020600E002071
:100B90007C27002096F84724CE4B0C2101FB023322
:100BA00093F8380011F027F896F8480411F023F86C
:100BB00096F8490411F01FF8043696F8460411F02F
:100BC0001AF85645E6D1FFF77ABB5A2011F058F8CB
:100BD000C14E06F15A0A96F89C0411F00CF896F8EA
:100BE000970411F008F896F8980411F004F896F8B4
:100BF000990411F000F896F89A0410F0FCFF0636FC
:100C000096F8950410F0F7FF5645E4D1FFF757BB6F
:100C10004FF0000A01264FF00008B04B1B789845B2
:100C200034DAAF4B4FF0000B18F803E00C2303FB52
:100C30000BF3A84800F1300C13F80CC00190F445F8
:100C400007D10344586B16F078FC84463EB933460E
:100C500007E00BF1010BBBF11E0FE7D113E082445B
:100C600011E063450FDA019A0C2000FB0B20406B6A
:100C7000CDF80CC0C05C029310F0BDFF029BDDF804
:100C80000CC00133EDE708F10108C6E7002E3FF480
:100C900016AB5FFA8AF010F0F3FF0026BBE7DFF82F
:100CA0003CA24FF000089AF8000010F0E9FF9AF813
:100CB00000309845BFF403AB894B002118F803E0DE
:100CC0000C2202FB01F3834800F1300C13F80C20D6
:100CD000724505D1034493F8380010F08CFF02E010
:100CE00001311E29ECD108F10108E0E7DFF8E881C5
:100CF000162010F0C5FFB8F8400210F0C4FFB8F895
:100D0000D00010F0C0FFB8F8D20010F0BCFFB8F867
:100D1000D40010F0B8FFB8F8940210F0B4FF00202F
:100D200010F069FF002010F066FF002010F063FF54
:100D300098F81B0210F05FFF98F83C0210F05BFF80
:100D4000002010F058FFB8F9EA310A2093FBF0F0C8
:100D500080B210F098FF34E0082010F091FF4FF0BF
:100D600001085FFA88F008F1010810F044FFB8F1BB
:100D7000090FF6D1FFF7A3BA082010F081FF4FF05A
:100D80000008584B33F8180008F1010810F07BFFF9
:100D9000B8F1040FF5D1FFF792BA0C2010F070FFF4
:100DA000514B186810F078FF504B186810F074FF22
:100DB0004F4B18688FE1042010F062FF464B986893
:100DC00089E198F80E0210F016FF98F8120210F060
:100DD00012FF98F8110210F00EFF98F81302F7E1D5
:100DE000DFF8F480072010F04BFFB8F8160210F07F
:100DF0004AFFB8F8180210F046FF98F81A0210F0EF
:100E0000FAFEB8F81C02D0E1012010F039FF324B95
:100E10005879DDE1DFF8C0800C2010F031FF98F840
:100E2000380210F0E8FEB8F8440210F02CFFB8F8D1
:100E3000400210F028FFB8F8420210F024FF98F8A2
:100E40003A0210F0D8FEB8F84C0210F01CFFB8F8C7
:100E50004E02AAE1DFF89C80DFF89CA098F8000021
:100E60004FF0000B00EB4000C0B210F009FF98F803
:100E700000300AF1020A9B45BFF421AA1AF8020CBD
:100E800010F0B9FE1AF8010C0BF1010B00EB800019
:100E900000EB800000F2EE2080B210F0F4FEE6E7F6
:100EA000012010F0EDFE0C4B93F83C0290E108207D
:100EB00010F0E6FE4FF00008074B434493F8300271
:100EC00008F1010810F097FEB8F1080FF4D1FFF710
:100ED000F6B900BF9C9B01081C2C00205027002065
:100EE00051270020D81A0020E8F7FF1FECF7FF1F5A
:100EF000F0F7FF1FB83100206C2E0020DFF8E483EC
:100F0000102010F0BDFE98F8050010F074FED8F81F
:100F1000080010F0C1FE98F8380210F06CFEB8F826
:100F2000CC0110F0B0FEB8F8D00110F0ACFEB8F86B
:100F3000D40110F0A8FEB8F8160210F0A4FEB8F81C
:100F4000180232E1E34BDFF89C83187808F1280A95
:100F5000C0EBC000C0B210F093FE98F89E020023D0
:100F6000DD4AD25C904200F037810C333C2BF7D144
:100F700008F10808D045F0D1FFF7A1B9B8F85C0333
:100F800010F081FE98F85E0310F035FE08F10408B9
:100F900098F85B0310F02FFED045EFD1FFF78FB923
:100FA000E02010F06DFEDFF83C8308F1800AB8F80D
:100FB000DE0208F1040800F03F0010F064FEB8F80B
:100FC000DA02C0F3861010F05EFE98F8D80200092D
:100FD00010F011FE98F8D80200F00F0010F00BFE90
:100FE00098F8D90210F007FED045E0D1FFF767B9B5
:100FF0000D2010F045FE0EF0D5FEDFF8E08240F047
:101000000200C0B210F0F7FDB8F8000010F044FE86
:10101000D8F80C0010F040FE0EF0ECFA5BE010F097
:10102000E1FD8246842010F02BFE504610F034FE85
:10103000AA4B0DF1380BDA680AF1800393428CBF9A
:10104000CAEB02084FF080080EF08EFB5046424675
:1010500059460EF0DBFE82464FF00008D045BFF641
:101060002EA91BF8080010F0C6FD08F10108F5E7ED
:10107000DFF87082042010F003FE012010F0BBFDA9
:1010800098F8F30410F0B7FD98F8F10410F0B3FDF0
:1010900098F8F2049CE00B2010F0F2FD002010F014
:1010A000AAFD002010F0A7FD002010F0A4FD0EE026
:1010B000012010F0E5FD00208AE0894B13F80800BC
:1010C00008F1010810F097FDB8F10B0FF5D10020E1
:1010D00010F0E2FD002010F0DFFDFFF7F0B8DFF8C0
:1010E0000482082010F0CCFDB8F8DA0010F0CBFD37
:1010F000B8F8DC0010F0C7FDB8F8DE0010F0C3FD52
:10110000B8F8E00051E0DFF8DC81032010F0B8FD12
:1011100098F81E0210F06FFD98F81F0210F06BFD9A
:1011200098F8200254E0DFF8BC81032010F0A8FDFD
:1011300098F8C90110F05FFD98F8CA0110F05BFD46
:1011400098F8CB0144E0DFF89C81062010F098FD70
:10115000B8F8DC3123B1082010F04DFD012005E086
:1011600098F8DE0110F047FD98F8E40110F043FD17
:1011700098F8E70010F03FFD98F8E60010F03BFD0E
:10118000B8F8E20011E0052010F07AFD554BDFF8C9
:101190005C8193F8DF0110F02EFDD8F80030188C38
:1011A00010F071FDD8F80030588C10F06CFDFFF78E
:1011B00086B8DFF83081032010F062FD98F8D9017D
:1011C00010F019FD98F8E80110F015FD98F8E70106
:1011D00010F011FDFFF773B810F00DFDB8F8A00284
:1011E00010F051FD98F8A20210F005FD98F8A30246
:1011F00010F001FD98F8A50210F0FDFC98F8A4028B
:1012000010F0F9FCB4E65B2816D110F0D5FCDFF83D
:10121000D48088F8DE0110F0CFFC88F8E40110F0EB
:10122000CBFC88F8E70010F0C7FC88F8E60010F067
:10123000CFFCA8F8E2000CE010D9D22840F0998247
:10124000294B1B7803F0040303F0FF08002B00F088
:101250007782002010F014FDFFF731B8372847D10E
:101260005B794FF00708B3FBF8F8C8EBC8029B1A8C
:1012700013F0FF0F02D007F065F8EAE75FFA88F88D
:10128000B8F1000FE5D010F097FC5FFA80FB4FFA41
:101290008BF00BF05DFC82460028ECD080F800B0AB
:1012A00010F096FCAAF8020010F086FC8AF8040000
:1012B00010F082FC8AF8050010F07EFC8AF8070026
:1012C00010F07AFC08F1FF385FFA88F88AF8060017
:1012D000D6E700BF821C0020B41700208C0000203D
:1012E0003CBF01081C2C0020EC3100207C27002092
:1012F00000F221812B2804D110F05EFCD24B5871F2
:10130000A7E770D8252807D1CF4B00229A6010F0AC
:1013100069FC0DF01DFF9CE73ED8232840F0328584
:1013200010F04AFC13288046A5D810F045FC002296
:101330000C235343C54901EB030E9EF838E0864564
:1013400026D10B44DFF800A393F8303008F58878F5
:101350000AEB880888F8073010F02EFC88F808009F
:1013600010F02AFC88F8090010F026FCB84BB949A7
:101370001A680AF1D0030B60B74B88F80A00002006
:101380001A6012F0A3FBB54B80F00100187060E703
:1013900001321E2ACCD16EE727280ED110F018FC9E
:1013A000DFF8A482C8F8CC0110F012FCC8F8D00114
:1013B00010F00EFCC8F8D4014BE7292840F0E28475
:1013C00010F006FCDFF88082A8F8160210F000FC8E
:1013D000A8F8180210F0F0FB88F81A0210F0F8FBD9
:1013E000A8F81C0235E7312834D110F0E5FB1F289E
:1013F00080463FF640AF2B685B79082B7FF43BAF0C
:1014000010F0E6FB904B08F1B60803EB880800F0FB
:101410003F00A8F8060010F0DBFBB8F806308001AA
:1014200000F4FE501843A8F8060010F0C5FB0001B8
:1014300088F8040010F0C0FB98F8043000F00F00AA
:10144000184388F8040010F0B7FB88F805000EF088
:1014500043F8FEE63DD82D2823D110F0ADFBDFF890
:10146000E88188F8380210F0B3FBA8F8440210F0C5
:10147000AFFBA8F8400210F0ABFBA8F8420210F056
:101480009BFB2B6888F83A025B79082B7FF6E1AE6C
:1014900010F09EFBA8F84C0210F09AFBA8F84E0240
:1014A000D7E62F2840F06E84DFF89C8108F1400ACF
:1014B00010F08EFBA8F85C0310F07EFB88F85E034A
:1014C00010F07AFB08F1040888F85B03D045EFD1EF
:1014D000BFE6332805D110F06FFB5B4B83F83C026D
:1014E000B7E6352840F04E8410F066FB0E288246A1
:1014F0003FF6C1AE10F060FB03283FF6BCAE524B86
:101500004FF0060808FB0A3888F89C0410F054FBDA
:1015100088F8970410F050FB88F8980410F04CFB02
:1015200088F8990410F048FB88F89A0410F044FBFE
:1015300088F89B048DE6442804D1494B012283F8A6
:10154000302086E600F294803E280AD110F034FB69
:10155000DFF8F48088F8870210F02EFB88F8860206
:1015600077E637D8392812D110F026FBDFF8D8807B
:1015700088F80E0210F020FB88F8120210F01CFB15
:1015800088F8110210F018FB88F8130261E63C2875
:1015900040F0F883DFF8B880D8F800A09AF800B0DF
:1015A00010F00AFB18B10228A8BF022000E00120B9
:1015B0008AF80000D8F800302A4A1B78022B14BFA2
:1015C00029492A499B4511603FF443AE002010F0A1
:1015D0006CFB3EE641280DD14FF0000810F0ECFA0C
:1015E000194B434408F10108B8F1080F83F83002A1
:1015F000F4D12EE6432840F0C58310F0DDFADFF881
:1016000048800023C8F8083088F8050010F0EAFA8E
:101610000DF09EFD10F0D0FA88F8380210F0D8FADC
:10162000C8F8CC0110F0D4FAC8F8D00110F0D0FA04
:10163000C8F8D40110F0CCFAA8F8160210F0C8FAD5
:10164000A8F8180205E600BF1C2C00209C9B01088E
:101650007C270020640E0020680E0020020000207D
:1016600070090020B8000020AD30010805340108E1
:101670004C281AD110F0A0FADFF8908388F8920273
:1016800010F09AFA88F8930210F0A2FAA8F89402DF
:1016900010F092FA88F8960210F09AFAA8F89802D8
:1016A00010F08AFA88F89A02D3E50AD8482802D1BD
:1016B0000EF0A8F8CDE54A2840F0648310F088FACF
:1016C00085E74E2825D110F077FA112882463FF69B
:1016D000D2AD10F071FADFF834830AF5947A08F885
:1016E0001A0010F075FA40F2ED23984205DD40F63D
:1016F000CA039842A8BF184601E040F2EE20A0F2CB
:10170000EE20192390FBF3F008EB4A0888F801005B
:101710009FE5512840F03683BB4B1B78012B3FF6E9
:1017200098AD10F049FADFF8E48288F8F30410F07D
:1017300043FA88F8F10410F03FFA88F8F20488E5DB
:1017400010F03AFAB14B012883F846040CD983F81B
:10175000468409E0D02840F01583AD4B1B785A072A
:101760003FF577AD0CF03EFC0DF02EFD0CF06AFA63
:101770006FE500F25B81CA281ED14FF00008DFF848
:10178000A4A2DAF800B010F017FAC3448BF80100F5
:10179000DAF800B010F010FAC3448BF80B00DAF856
:1017A00000A010F009FAC24408F10108B8F10A0FCC
:1017B0008AF81500E3D14CE579D85F281FD1DFF80E
:1017C0006482D8F800A010F003FAAAF82600D8F82E
:1017D00000A010F0FDF9AAF82800D8F800A010F039
:1017E000F7F9AAF82A00D8F8008010F0E5F988F88F
:1017F000240010F0E1F9854B83F8150229E516D88D
:101800005D2840F0BF8210F0D7F9DFF818827F4BD7
:10181000D8F800A083F8DF0110F0DAF9AAF8200068
:10182000D8F8008010F0D4F9A8F8220011E561285A
:101830000ED110F0C1F9DFF8D48188F8D90110F089
:10184000BBF988F8E80110F0B7F988F8E70100E57E
:10185000C82840F0978293F805804FEA5808B8F1FD
:10186000120F3FF608AD4FF0000AC24507D210F044
:10187000AFF90EAB23F81A000AF1010AF5E7424668
:101880000023434507DA0EA931F81300614921F816
:1018900013000133F5E7122A05D05E4B002123F82F
:1018A00012100132F7E75C4B01221A70D1E4CE2806
:1018B0000AD1574B1B785E073FF5CBAC574A1378DC
:1018C00043F004031370C4E465D8CC2856D15B7987
:1018D000092B7FF6D0ACDFF85081D8F800A010F0CB
:1018E0006BF98AF80000D8F800A010F065F98AF8C2
:1018F000020010F061F9D8F800306428A8BF642015
:10190000587110F059F9D8F800306428A8BF642045
:10191000987110F051F9D8F80030FF28A8BFFF20C7
:10192000D87110F049F9D8F800A0642828BF6420C5
:101930008AF8080010F040F98AF80300D8F800A0EF
:1019400010F03AF98AF80400D8F800A010F040F935
:101950002B68AAF80A005B790A2B05D9D8F800A0F1
:1019600010F02AF98AF809002B685B790B2B7FF6B7
:1019700070ACD8F8008010F01FF9C7E6CD2840F011
:101980000182234B1B785B073FF563AC244B4FF47C
:10199000C8721A805DE4CF287FF4DCAE10F018F92D
:1019A0006FF4AF6143189BB2DFF86080C62B98BF1D
:1019B000A8F8400210F00CF9A8F8D00010F008F9CF
:1019C000A8F8D20010F004F9A8F8D40010F000F93B
:1019D000A8F8940210F0F0F810F0EEF810F0ECF81F
:1019E00010F0EAF888F81B0210F0E6F888F83C02DC
:1019F00010F0E2F810F0ECF800EB80004000A8F8DE
:101A0000EA0110F0D9F8B3E59C1C00201C2C002042
:101A1000EC310020401900200D260020600F00202E
:101A2000180E00207C270020600E0020DB2847D104
:101A3000D94B2D221B6832215A705A731422DA7541
:101A400000229A731A76DA735A7622229A710E223B
:101A50001A7435229A761922DA7121225A74532285
:101A6000DA7637229A721A754B229A774FF4FA7205
:101A700012205A85B4224FF0010E4FF0280C5875F1
:101A8000997098751971502019729974DA846421CB
:101A90004FF00F08232283F800E083F80BC083F88F
:101AA0000CC0D87083F80580197783F809C0588472
:101AB0001A85198483F824E083F82DE0FFF7C9BB69
:101AC00075D8D6280DD14FF0000810F081F8B34B2F
:101AD00023F8180008F10108B8F1080FF5D1FFF755
:101AE000B8BB3BD8D32805D110F072F8AC4B1880A6
:101AF000FFF7AFBBD42840F045815B790F2B7FF413
:101B0000BAAB10F059F8072882463FF6B4AB10F094
:101B10005FF8A44B4FF00E0808FB0A38A8F85801EC
:101B200010F056F8A8F85A0110F052F8A8F85C0125
:101B300010F042F888F85E0110F03EF888F85F0176
:101B400010F03AF888F8600110F036F888F8610172
:101B500010F048F8C8F86201FFF77BBBD92813D111
:101B600010F036F8DFF83C82A8F8DA0010F030F810
:101B7000A8F8DC0010F02CF8A8F8DE0010F028F827
:101B8000A8F8E000FFF765BBDA2840F0FB8010F012
:101B900013F8DFF8108288F81E0210F00DF888F8AC
:101BA0001F0210F009F888F82002FFF752BBF22854
:101BB00029D110F001F80F2880463FF65CAB0FF0FA
:101BC000FBFF784BC8EBC808984488F8E8000FF092
:101BD000F3FF88F8E9000FF0EFFF88F8EA000FF054
:101BE000EBFF88F8EB000FF0E7FF88F8EC000FF050
:101BF000E3FF88F8ED000FF0DFFF88F8EE000BF050
:101C000095FBFFF726BB20D8DC280FD10FF0D4FFBF
:101C1000DFF8908188F8C9010FF0CEFF88F8CA017B
:101C20000FF0CAFF88F8CB01FFF713BBEF2840F095
:101C3000A9800FF0CDFFDFF86C81A8F8EE010FF05E
:101C4000C7FFA8F8EC01FFF704BBF52840F093802C
:101C5000012010F015F84FF00008534BDFF860A199
:101C6000C0225248414683F800808AF8008015F06F
:101C700021FC52468DF817804D4B9DF8171093F8B4
:101C80003600884264D99DF8171003EBC10191F822
:101C90003910C90755D59DF8171003EBC10191F80C
:101CA0003800444931F9101000294ADDDFF8FCB052
:101CB0009DF81700D8469DF817E003EBC00003EB32
:101CC000CE031178C06BDB6B406809011B890BEBFD
:101CD000010CACF806304BF801009BB24FF0000C41
:101CE0004FF0010E0EFA0CFE1EEA030E05D10CF1A8
:101CF000010CBCF1100FF3D100E0E64608EB010C3B
:101D0000ACF8083002238CF80B3048238CF80A30EA
:101D1000DCF808300831CCF80C30102341448CF842
:101D20000E30ACF804E0019205F0DDFB019A137867
:101D300019018844B8F806005BF801100133086106
:101D400013709DF817300133DBB28DF8173093E72D
:101D50009AF800000FF04FFF0FF05EFF38680BF0AD
:101D600017F82B6818680BF0E0F92868396808F054
:101D700007F9FFF76EBAFA2804D10F4B1B78580702
:101D80007FF5F2AC06F0DEFAFEF799BA0C2819D10D
:101D90000A4810F045F95FE07C27002084270020E6
:101DA0006C0E00201C2C002089000020181B002035
:101DB00070090020C41C0020EC310020D9BE0108AD
:101DC000EB1B00200A2801D00D2864D1394D3A4878
:101DD00010F026F92846232115F0A1FB08B1401B7D
:101DE000206023687BB35A1EA95C202901D11346C9
:101DF000F8E7304A00212360D154304B304FD3F8FC
:101E00000090D7F800A02B4E504615F096FB0546E3
:101E100051462A46304615F099FB2A4A20B9735D8F
:101E20004B445B78580703D010379742E9D306E05C
:101E3000974204D2681CFB683044984702E022486D
:101E400010F0EEF800231B4800213022236015F02B
:101E500031FB009B1B7853B309F048FFFEF768B9CC
:101E60000C2895D07F2804D1FEF762B92F2B3EF6BF
:101E70005FA9A0F12002D2B25E2A3EF659A913B999
:101E800020283EF455A95A1C22600A4AD0540FF06B
:101E900059FFFEF74DB97F28E8D1064A013B0021E2
:101EA0000A482360D15410F0BBF8FEF741B92FB0B7
:101EB000BDE8F08FF01B0020E5CE0108D80300201C
:101EC00074BB010864BD0108E4BE010800BF01083D
:101ED0002DE9F04FAD4B9FB01B68AD4C9F6A0AF0E7
:101EE000AFFF2368AB4EC01A30800AF0A9FFAA4D9D
:101EF00020602B78012B01BF3288A84B1A80A84A9A
:101F000004BF12885A800AF09BFF0646A54BDB6887
:101F10006BB117A898479DF85C3043B12B78072B1D
:101F200010D10AF08DFF9D4B801B18800AE00AF04B
:101F300087FF9D4A23681268FB1A1844503290426A
:101F4000E4D3EBE72379002B00F0A2850AF078FFB9
:101F5000964D074695F8463233B1C3EB431203EB77
:101F60008203DB009BB201E0894BDB88904A166854
:101F7000874AB3FBF6F68F4B06F101081B781FFA70
:101F800088F8A4F808809BB34FF000098A4B4846B4
:101F900033F9191010F032FC884B43F8290009F18D
:101FA0000109B9F1030FF1D1B4F90AA0002378486F
:101FB000814A00F1140E32F813C03EF8132000F1EC
:101FC0000C09C2EB0C0B39F913202EF813C00AFBD5
:101FD00002F10FFA88F291FBF2F25A4429F8132029
:101FE0000133042BE3D1734B00221A70468102E0C7
:101FF0005389013B5381B4F90A00654A00284FF028
:10200000000323DDB2F908E06D496E4EA1F108022C
:1020100032F9132031F81310424392FBFEF28A1A70
:1020200026F813200133042BEED1B6F9001000205E
:1020300010F0E4FBDFF8BC81B6F90210C8F800002C
:10204000012010F0DBFBC8F8040000E05381554A82
:10205000936891460BB15C4898475C4B534E1868A7
:1020600010F0080F44D05449DFF88CC1B1F804E0F7
:102070000EF10E039BB21C2B554BB3F9043032D832
:10208000544A128852072ED50A2293FBF2F2BCF86A
:102090000030D21A92B293B20FFA83FC1CF1B30F44
:1020A000BCBF02F5B4739BB2DFF830C11AB2B32AD9
:1020B0009CF800C0C4BFA3F5B4739BB21CF0080F1A
:1020C00096F8D82114D052B252425343424A1BB21E
:1020D0001268527A53436FF01D0293FBF2F39E4451
:1020E000A1F804E004E00A2293FBF2F3ACF800301C
:1020F00010F0140F00F0B480364B1B8803F4027309
:10210000002B00F0AD80354B2B4A1B7803F01003F9
:1021100003F0FF0C43B1324B96F9900219685388D3
:1021200000FB013353809BE0236A194993F803E0D5
:102130002C48DFF8C8809B78BEF1000F60D0B8F95A
:1021400000E0B0F90680CEEB08000028B8BF40429E
:1021500098420EDD2448F045C0F800C04FF0010061
:1021600081F82400C8BF5B42D1889BB20B44D38066
:1021700076E091F824302BB11C4B81F824C018680C
:102180001B4B1860164B1B6873445FE0642A0020E9
:10219000080A0020E2310020D61A0020D81A0020B8
:1021A000F2260020DC160020981700201C2C0020AE
:1021B000F82A0020700E00204E2B0020FC2A002060
:1021C0001C0A0020102B0020240A00209017002059
:1021D000182B0020482700207C270020600F0020BB
:1021E000C02A0020D02B0020BC2A0020A82A0020D2
:1021F000B42A0020082B00206C0E00207A0E00204C
:10220000B8F900C0B0F90600CCEB000080EAE07835
:10221000A8EBE07898450ADD022390FBF3F08A4BA7
:1022200018608A480123037081F824300BE091F88C
:10223000243043B1864B81F824E01868854B186040
:10224000824B83F800E0844B1B686344A06A0188DA
:1022500040888B4203DB8342A8BF03461946D180E6
:102260007E4B1B78EBB17E4BB3F90620B6F84232B9
:102270009A4216DC7B4B5B79012B01D0192B02D1E2
:1022800096F88B226AB90E2B0BD0082B09D0764A10
:1022900000239380754A9380754A00239360754AA2
:1022A000936096F80C82B8F1000F2FD0724B1B8808
:1022B00098072BD0714B7249D3F820A0504611F0EB
:1022C000AFFFF0B9504615F0B1FBE16A11F000FE26
:1022D00015F032FBB0F5617FA8BF4FF4617011F0CB
:1022E000A3FD684911F0A8FE0CF099FE8246404615
:1022F00011F09AFD514611F0EBFD15F01DFB80B277
:1023000000E00020594AD3881844D0805E4B1878EA
:10231000002840F0B2835D4B1A689A4612F4002FF1
:1023200000F0AB835A4A13789046033B052B1AD82A
:1023300096F8F33433B1012B08D10DF053FAC0F104
:102340007F0003E0206B03689B689847636B94F8F9
:1023500038201344B3F5807FA8BF4FF480738342C5
:10236000D4BF6363606398F80030023B092B00F22E
:102370007E83DFE813F00A00120040007C037C0338
:102380005700990030035403600300236363E36341
:10239000404B1B682364032367E33E4B1A68236C9E
:1023A00064339A4240F2638340200CF059F80028CD
:1023B00040F05D834FF04009374BE26B374E985C3D
:1023C0001D4660B106F09AFF736BB9F1010903F184
:1023D000FF337363F36B03F10103F363ECD1E26B3F
:1023E0002E4BAA5C002A40F04283DA634FF0FF32A2
:1023F0001A64042339E32A230093294B492003F16B
:102400000C02019302925021A3F10A02023307F059
:10241000B3FA002840F02B834FF0FF332364E063CE
:10242000072322E31F4A0523002100930191029113
:10243000532002F1080307F09FFA002840F01783A9
:10244000E063082311E300BFD0310020C42A00203C
:10245000A82A0020B42A0020C02A00200200002060
:10246000D02B00201C2C0020102B00204E2B0020F5
:10247000082B0020FC2A0020482700203C1E0020BA
:102480008FC2753CEFB6B044EA310020F826002038
:102490009C1C0020EC260020349D0108080A002026
:1024A0009E9D01088C9F010840200BF0D9FF002859
:1024B00040F0DD82E36B342B01F22E81DFE813F074
:1024C000350038003D00410047004B004F005300ED
:1024D000570062006A006E007B007F008E009D0046
:1024E000AC00BB00CA00D900E800F7000A011301E4
:1024F00020012D013A014701540161016E017B0168
:10250000840193019C01AD01B601BF01C8013402F1
:10251000450249024D0251025D0267026B026F02E1
:10252000730277027B027F028302CE48CE494CE2DF
:10253000CE48CF49CF4AD04B52E1D048D049D14ABA
:1025400036E0D14896F8F11496F8F22430E0CF48FE
:10255000B6F8D01039E2CE48B6F8D21035E2CD4800
:10256000D9F8101031E2CC4BCC4819882DE2636CBD
:10257000D90403D5CA4896F80E1226E2C94B0A229E
:10258000DA6324E2C84896F8121296F8132296F8F5
:10259000113225E1C548B4F8481016E2DAF80030E7
:1025A0001A0540F11482C248B6F81812B6F916227C
:1025B0000CF0CAF80BE2BF4BBF48196805E295F86A
:1025C000462454235343EA1892F8CC230C2101FBF0
:1025D00002331D44B94895F8CE13F6E195F8462428
:1025E00054235343EA1892F8CC230C2101FB023305
:1025F0001D44B34895F8D013E7E195F846245423D9
:102600005343EA1892F8CC230C2101FB02331D44FA
:10261000AC4895F8CF13D8E195F84624542353439A
:10262000EA1892F8CC230C2101FB02331D44A64882
:1026300095F8D713C9E195F8462454235343EA1873
:1026400092F8CC230C2101FB02331D449F4895F8DE
:10265000D113BAE195F8462454235343EA1892F86B
:10266000CC230C2101FB02331D44994895F8D21369
:10267000ABE195F8462454235343EA1892F8CC234F
:102680000C2101FB02331D44924895F8D6139CE1BE
:1026900095F8462454235343EA1892F8CC230C218E
:1026A00001FB02331D448C48B5F8D8138DE195F831
:1026B000462454235343EA1892F8CC230C2101FBFF
:1026C00002331D44854895F8D31395F8D42395F823
:1026D000D53385E096F84634542202FB03668048E1
:1026E00096F89E1371E195F84634542202FB035587
:1026F0007C4895F89F1395F8A92395F8B3336FE0BC
:1027000095F84634542202FB0355774895F8A013F8
:1027100095F8AA2395F8B43362E095F8463454222C
:1027200002FB0355714895F8A11395F8AB2395F872
:10273000B53355E095F84634542202FB03556C48F6
:1027400095F8A21395F8AC2395F8B63348E095F8C0
:102750004634542202FB0355664895F8A31395F8B6
:10276000AD2395F8B7333BE095F84634542202FB8D
:102770000355614895F8A41395F8AE2395F8B8333E
:102780002EE095F84634542202FB03555B4895F839
:10279000A51395F8AF2395F8B93321E095F84634A1
:1027A000542202FB0355564895F8A61395F8B0231A
:1027B00095F8BA3314E096F84634542202FB0366C7
:1027C000504896F8A71300E195F84634542202FBCE
:1027D00003554D4895F8A81395F8B22395F8BC33E6
:1027E0000BF0B2FFF3E096F84634542202FB036686
:1027F0004648B6F8C813E8E095F84634542202FB80
:102800000355B5F8C00311F00FFB414911F060FB0F
:1028100011F024FD01463F48D7E096F84634542293
:1028200002FB03663C4896F8CA13CEE096F846349D
:10283000542202FB0366394896F8CB13C5E096F89C
:102840004634542202FB03663548B6F8C413BCE094
:1028500096F84634542202FB03663248B6F8C61393
:10286000B3E000BF58C0010869C0010875C0010885
:102870009DC0010851BF0108A3C00108A8C00108FC
:102880003CBF010848BF0108BCC00108CDC0010819
:10289000DCC00108EBC0010808000020FBC00108F3
:1028A00005C10108080A002012C101082BC1010856
:1028B00036C101089817002049C1010855C1010817
:1028C0005FC1010869C1010876C1010883C101081F
:1028D0008DC1010898C10108A5C10108B7C101084F
:1028E000C6C10108D7C10108E8C10108FAC1010841
:1028F0000AC201081AC201082AC201083BC2010823
:102900004CC201085EC201084EC2010868C201083B
:102910000000C84277C2010885C201089CC20108B4
:10292000ABC20108C7C2010895F84634542202FB25
:102930000355B5F8BE0311F077FAA24911F0C8FAB1
:1029400011F08CFC0146A0483FE0A04896F81E120A
:102950003BE09F4896F81F1237E09E48B6F8DC111E
:1029600033E096F8DF0111F05FFA964911F0B0FA02
:1029700011F074FC0146984827E09249D6F8F0011E
:1029800011F0A6FA11F06AFC014694481DE0944843
:1029900096F8D91119E0934896F8E81115E0924895
:1029A00096F8E71111E0914896F885120DE09048ED
:1029B00096F8151209E08F4896F8461205E08E4801
:1029C000B6F84A1201E08D48B1680BF0BDFEE36B2A
:1029D0000133E3634BE08A4B1B689B011CD5B4F8C1
:1029E0004C30884DC3B9884BD5F8509045201E68AF
:1029F00006F084FC0E2006F081FC48460BF018FE21
:102A000030460BF015FE4FF48053A5F84A300A23E8
:102A100088F8003006F0F6FC06F090FF27E094F806
:102A20005430002BF6D0764B1B689E01F2D409235C
:102A300088F80030F0E7754B1A68236CC8339A4267
:102A400003D996F8F3547DB904E00BF04FFD00284C
:102A5000F7D10CE0206B0AF067F894F85530256345
:102A6000022B01D111F04AF8012388F800300BF055
:102A700027FD10B1012388F80030654B1B78072B28
:102A800004D10AF0DDF9634BC01B58800023237189
:102A9000614B17AD5B6828469847002800F05581C8
:102AA0005B4B187800235D4E032804BF56F8237053
:102AB00058494FEA830208BF21F8137035F9131003
:102AC0000133032BB150EED1554B5448554F1A7872
:102AD000014606F003FA3B88002B00F0C880A36D86
:102AE000DFF848811B7808F10C0504934FF00009CA
:102AF0003B8856F8290005934B4B4FEA890A1A6820
:102B00004FF47A73B3FBF2F3C3EB431203EB82038C
:102B1000DB00059A9BB29A4202BF0023C8F800303E
:102B20002B61D8F800300344C8F8003011F07CF96C
:102B30002B690133012B2B6104D1002368602860CD
:102B4000AB602AE0D5F800C008936146CDF818C004
:102B5000079011F0B3F8089B8346184611F064F90A
:102B60000146584611F068FADDF818C00146604683
:102B700011F0A6F80346079A1946686010460693B6
:102B800011F09CF80146584611F0A2F9A96811F01D
:102B900097F8069BE8602B60A860DFF894B00023EC
:102BA00046F80A304AF80B30059B012B74D128698E
:102BB00001283FDD013811F037F90146E86811F0CE
:102BC0003BFA38E00000C842DDC20108F1C201084A
:102BD000EDC20108FDC2010809C301081CC30108B8
:102BE0002AC301083AC301084BC301085BC30108AB
:102BF00074C301088DC30108A3C30108C0C3010841
:102C00004C270020080A0020C8310020EC260020B4
:102C1000D61A0020D81A0020DC160020202B002015
:102C200005170020E031002098170020640A0020DA
:102C3000AC0A0020002015F0D5F80499AB4BC1B1C7
:102C400005900846069311F0EFF8059A01461046E4
:102C500011F0FAFA069B60B11A684FF47A73B3FB6D
:102C6000F2F3C3EB431203EB8203DB003B80002350
:102C700024E01A684FF47A73B3FBF2F3C3EB431208
:102C800003EB8203DB00D8F800209BB202EB530277
:102C900092FBF3F34BF80A3009F10109B9F1030F84
:102CA00008F1040805F114057FF422AF38880128E3
:102CB00001D10AF027F93B88013BD7E78C4D56F844
:102CC000232005F1A40151F82310521A46F82320BD
:102CD0000133032BF2D1D5F8B0800021404611F02A
:102CE0008BFA90BB95F8B45095B9804B1A681F4683
:102CF00072B1DFF8FC91404609F1B80129443A6805
:102D00001C350BF0C0FE542DF3D1012389F8B430EB
:102D100094F8B430774FA3B1002556F8250011F090
:102D200083F8754B1C2101FB05310BF081FE47F840
:102D3000250014F001FE46F825000135032DECD1E5
:102D400003E0F06811F070F8F86094F80C312BB1E2
:102D5000674A013B82F80C3100F0EABC674D95F8F8
:102D6000DF3123B195F8E431013BDBB200E0012310
:102D700084F80C310AF064F8614B624A1F68624BB8
:102D8000B5F822120646186802F14403B8475F4BB3
:102D90001A781D46072A04D10AF052F85C4B801BB2
:102DA00098800AF04DF895F800800590B8F1010F71
:102DB0000AD15849D4F81031554A0968C31A93808A
:102DC0005B1AD380C4F81001534B1B68E3B1DE7962
:102DD000DEB1524A1268950719D5514A1278012A74
:102DE00015D9DB784F495A430988D31A994295B2CD
:102DF00003DB8A421346A8BF0B462DB22D031BB23C
:102E000095FBF3F5012605E01E46354602E0012656
:102E10004FF48055444BDB780D932EB1BDF944300F
:102E20006B431B13ADF84430404B4FF0000A1B7846
:102E30003F4F04933F4B5A88B3F800900692B3F982
:102E400004B0D4F81421534654460792049A93428E
:102E500072D2BDF91800099310F0E6FFB96811F0BD
:102E600037F808900FFA89F010F0DEFF796811F05A
:102E70002FF8DDF820C00146604610F021FF079BC7
:102E8000089093F9000040420BFB00F010F0CCFFDB
:102E9000F96811F01DF8DDF820C00146604610F019
:102EA0000FFF11F0DBF911A980B2099B16B100B236
:102EB0006843001321F8130011A931F813100FFA19
:102EC00084FE08B2704505DC0FFA8AFE7045B8BF73
:102ED0008A4600E00C46B8F1050F04D1042B9CBFD4
:102EE0000B4820F8131001331037AFE79817002074
:102EF000080A0020AC2B0020C00A00201C2C002057
:102F0000B8000020082E00207C270020D61A0020C0
:102F1000D81A0020F82A0020B41A0020F826002031
:102F2000C0000020001B0020042700200C1D0020F2
:102F3000200B0020482B0020A04BCAEB04041B6888
:102F4000A4B2089313F4805306939D4A35D09D4B49
:102F5000D7881B783EB213F0040F9B4B9A4808BFEA
:102F6000D3F8DC11994A04BF098AA3F8D811D3F821
:102F7000DC31B3F810E0964B1B68D988C1EB0E0525
:102F8000AE4203DC1E8813681D8805E071448E4242
:102F900005DB12685D885688A0F8D87112E0B0F998
:102FA000D811A942D5BF1E88126813685D88D9BFA1
:102FB0001D88374656882F4604E0844BD7881B6807
:102FC0001D885E88B2B2ABB2C3EB02091FFA89F961
:102FD00024B20FFA89F0844223DD4FEA003E9EFBC3
:102FE000F4FE794AC2F8E0E1002204998A420BD249
:102FF0000DF1440C3CF912100EFB01F1C1F30F313D
:103000002CF812100132F0E7704A126812897AB96E
:103010000FFA89F2022592FBF5F51D44ADB22E465A
:1030200006E0022694FBF6F69D19961BADB2B6B2E9
:1030300010F0FAFE8346204610F0F6FE0146584690
:1030400010F0FAFF6349044611F0E0F840B9204659
:103050004FF07E5111F0F8F818B14FF07E5400E0B7
:103060005C4C5D4BB8F1060F1C6007D15B492046F4
:1030700010F02EFF11F0F2F8594B5880524B594C7A
:10308000B3F9D821D3F8DC3109920793504B4FF0B4
:10309000000BD3F800A04D4BD3F80080494B1B78B0
:1030A00003F00403DBB20A934F4BB3F906300B93E2
:1030B0004E4B1B680C93049B5B000E930E9B9B4531
:1030C00000F09A8011AB3BF8033038B20F9310F048
:1030D000ABFE474951F83B1010F0FAFE11F0BEF874
:1030E00029B288420F9B03DB31B28142A8BF01465F
:1030F0000B440D9A9BB224F8023F1BB212B1B8F8F0
:10310000041013E0069A7AB1079ABAF80600118AF9
:10311000099A091A8A4204DCB8F80010BAF80000CB
:1031200006E0BAF8021001E0B8F80010B8F80200A2
:103130008B4203DB8342A8BF03461946089B2180CC
:10314000D8060ED50A9B63B1069B53B909F012FE4F
:1031500038B9079B0B9A5B8A9A42BCBFB8F8043017
:103160002380B8F8081031B30C9A4FF47A73B3FB8C
:10317000F2F3B1FBF3F3042B05D942F210718B4249
:10318000A8BF0B4600E005231BB20FFA89F18B4262
:1031900011DA1848B4F900E03BF900C0C3EB0C01A8
:1031A0008E4504DB0CEB03017145A8BF714689B263
:1031B000218020F80B100BF1020B7FE7F82600208E
:1031C0004E2B0020EC310020080A0020B41D002006
:1031D000B01D0020CDCCCC3DD40300200000C8425F
:1031E000D81A0020C21C0020D02B0020F82A002072
:1031F000200B0020EC0B0020C04B1A7802F00402D8
:1032000002F0FF0342B1BE4890F8FC31013BDBB253
:10321000182B00F21F810AE0049A9342F3D2B94AB4
:1032200032F81310B84A22F813100133F4E70122E0
:103230009A40B64B1340002B00F00C81B44B1B8816
:1032400013F4807FB34B08D0B34A1188ADF85C10FB
:1032500051889288ADF85E1013E0B04A1188ADF83D
:103260005C1051889288ADF85E100699ADF8602028
:1032700049B1D0F8DC11B3F90640098A8C4202DA70
:103280005242ADF86020A64D4FF47A71B5F9022094
:103290004FF4616402F5E1624A4392FBF4F2A2F555
:1032A000FA72ADF87420B5F9002002F5E1625143DD
:1032B00091FBF4F1944AA1F5FA711288ADF87610F9
:1032C000A2F2DC52ADF86220D0F8DC211988128A13
:1032D000891AADF864105988891AADF86610998872
:1032E000891AADF86810D988891AADF86A10198959
:1032F000891AADF86C105989891AADF86E10998940
:10330000DB89891A9A1AADF87010ADF87220002383
:10331000844A002122F813100133082BF8D1824B84
:1033200082491B68824D0493824BD3F800B0824BD4
:103330001B78C3EBC30301EB0308414572D00B7844
:1033400033B103F1150201239340049A134065D071
:1033500011F806EC0E2707FB0EB7B7F90020B7F9F6
:10336000023064209B1A11F9022C9BB25A4392FB43
:10337000F0F211F805AC4FEA530911F8034CC9EB10
:1033800002024FEA4A061EA892B211F801CC064486
:1033900014B936F81C0C0CE0B5F9000036F91C6CB9
:1033A000B04208DA0444844203DBA6423046A8BF98
:1033B0002046288008E007DD041BB44203DB84427A
:1033C000A8BF044626462E80D7F80A40012000FAFE
:1033D0000AF02042B5F9006011F9040C12B200FBAA
:1033E00006F04FF0640690FBF6F014BF4FF0FF3488
:1033F000012490420ADB4FFA8CF25A4392FBF6F218
:10340000C9EB020212B28242A8BF0246454B33F812
:103410001E9002FB049423F81E4000E02B8002352E
:1034200007318AE7434B454E1F6800250E2303FBF7
:10343000057393F9064036F9023FE8B2634364240A
:1034400093FBF4F4348009F099FF01352044082DF2
:103450003080EBD13A4E334C3368364D13F0200FA9
:1034600031D0002009F08AFF20800746012009F0B2
:1034700085FF2D4B60801B68190624D5204B284AF8
:10348000D3F820321B78012B21D1D5F800C0B2F936
:1034900000309CF914104FF0320E4B4393FBFEF3B7
:1034A00099B29CF90630B2F902205B4253436FF0A7
:1034B000310293FBF2F293FBFEF30A443A440B44CD
:1034C000228018446080D5F800E000233EE0D5F863
:1034D00000E0B2F902309EF906104FF0320C4B4377
:1034E00093FBFCF3F91821809EF91430B2F9001017
:1034F00001FB03F292FBFCF21044E3E7EC31002005
:10350000080A002084270020C41C0020992098016C
:1035100048270020D02B00204E2B0020482B0020D5
:10352000182B0020900900204C270020BF1D0020F0
:10353000060C00202C1C0020B81D00208E09002045
:10354000F82600200133082BE25310D00E2101FB96
:1035500003E134F91300B1F900205F009042B1F9A2
:103560000210EFDB0AB28242A8BF0246EAE7724FBE
:10357000D7F814B19BF90430ABB997F8FC8108F186
:10358000FF33182B00F28F80DFE803F0518D8D6B35
:103590008D8D8D648D8D8D8D8D758D8D8D8D8D6BBE
:1035A000818D8D7551000023A7F82432B7F824923D
:1035B000614B0FFA89F8B8F1070FDEDC93F8262289
:1035C00003F50A7A7AB9BBF80200049310F028FCDC
:1035D0005A4A1C21126801FB08A10BF054FA049B03
:1035E000012283F8262234F9180010F01DFC1C215A
:1035F00001FB08A10BF01CFA14F09EF92A680E23B7
:1036000003FB082280B224F81800B2F9003000B29F
:103610009842B2F9022003DB13B28342A8BF0346EB
:1036200009F1010924F81830A7F82492BEE79BF8A5
:10363000013013B10020618908E0414B1B7803F091
:10364000040303F0FF00002BF4D1014603F03EFE1B
:10365000012529E00020E18803F038FE01202189BE
:1036600005E00020218903F031FE6189012003F08B
:103670002DFE022518E00225A81E34F81510C0B250
:10368000013503F023FE082DF6D106250CE00325B5
:10369000E81E34F81510C0B2013503F017FE072DEF
:1036A000F6D1042500E0002533689A0602D4B8F16B
:1036B000050F0AD12846218803F008FE681CC0B215
:1036C000618803F003FE0235EDB23368DB020AD4F1
:1036D00097F808339BB11B4B93F8E60093F8E7107B
:1036E00009F07FFD0BE0184E00242819C0B236F80F
:1036F000021F03F0EBFD0D2CEAD00134F5E7134B6C
:103700001B78072B05D109F09BFB059BC01A104BBA
:10371000D88001233B710BE00AF0E8FE00283FF45B
:10372000A6A94FF48053A4F84A300A23FFF79DB9A5
:103730001FB0BDE8F08F00BF080A0020F82A002063
:10374000EC3100201C2C0020D62B0020D61A0020A3
:10375000D81A00202DE9F04FA14FA24C3A6889B049
:1037600002F59C43203323609F4B1E78CEB19F49C6
:1037700009688A4240F20981013E1E7005E1DFF8C6
:103780008C82072DD8F800308CBF2946595D984BA4
:1037900098481B689847032D09D904EB4505A88074
:1037A000013605F0E3FCF5B28542E8D320E0D8F815
:1037B000002005F1100302EB83039988DA880028C2
:1037C000EBD04FF47A73401A5843531A90FBF3F03E
:1037D00040F6C90300F57A70984205DC40F2EE230A
:1037E0009842B8BF184601E040F6CA0080B2D4E75C
:1037F00042F2010A804B814E1B68D6F8008003EA32
:103800000A0ABAFA8AFA4FEA5A1A7D4BBAF1000F3D
:1038100005D194F828201A707A4A517811701B78D3
:103820002BB1784B93F8009089F0010900E099469C
:103830000F23DFF8F0B184F82930002505F096FC5D
:10384000854267DA6B00B9F1000F03D06E4A32F897
:10385000150000E048466D4ADFF8CCC111684FEA18
:10386000850E8A8B82426A4A02D8C98B81421CD259
:103870005CF80E005B49804501D2D05A19E0E8B2ED
:1038800002928DE80A000EF06FF8032D019B029A58
:103890000FDC00994FF0010E91F829C00EFA05FED9
:1038A0002CEA0E0E81F829E003E008F596714CF839
:1038B0000E10BAF1000F28D194F8BC100322B1FB0E
:1038C000F2F202EB42028A1AD2B203EB050E724404
:1038D00004EB4202508594F8BD202AB9022913D97D
:1038E000404A012182F8BD10BBF800203BF8020CD1
:1038F0001044BBF802201044464A80B2D05200B2B5
:10390000032290FBF2F080B2414AD05201350BF114
:10391000060B93E794F829203F4BA2F10F0EDEF13E
:10392000000242EB0E0284F8D6206AB13B4A1268CC
:10393000550109D43268D9689A60521AC82A1FD929
:10394000012283F821201BE02E4A012151701170C1
:1039500032689968DA605B68521A9A4282BF2E4BCD
:10396000002283F82120002505F000FC854207DABB
:10397000E8B20DF0F9FF264B23F815000135F3E707
:1039800094F8BC30013384F8BC301B4B1A6898465D
:1039900012F4805F05D0214B1B68D80701D40EF0CC
:1039A000E7FE1A4B3D681F68387B00283ED0184A56
:1039B000BB7B013832F810001BB1C0F53B6008300A
:1039C00080B200B2A0F57A70B0F57A7FA8BF4FF44C
:1039D0007A7020EAE07010F027FA11495CE000BF2D
:1039E000C8310020140D002000270020FC260020F4
:1039F000B4000020B8310020F8260020EC2600207A
:103A00000010002000000020180D0020041B0020E2
:103A1000D02B0020D20D0020042700204C270020AE
:103A200000007A44400D0020880D0020D8F80030B6
:103A300019043AD5D4F8D830A94EEB1A002B34DB50
:103A400005F59C432033C6F8D830A64B5A79A64BCF
:103A500033F812108AB2797B92FBF1F196F8DC20F0
:103A6000013202F00F0386F8DC30334483F8DD10B6
:103A700003469E4A825C0130134410289BB2F8D161
:103A80001BB293FBF0F000B26428A8BF642020EAC8
:103A9000E07010F0C9F9964910F0CEFA954910F08F
:103AA00017FA10F001FC944B1880D8F80030934EB0
:103AB00013F4807F00F0FA80914BDFF848929D422A
:103AC00005D999F8022012B9012289F8022099F843
:103AD0000220002A00F0EA808A4A8B4992F821509D
:103AE00008686A1E554255413278C0F38063C2F3BC
:103AF000800B00938A462DB912F0080F0CBF0027E7
:103B0000022700E0002799F82020052A00F2CA8049
:103B1000DFE802F0034C608594B1BBF1000F38D0B0
:103B2000D4F8F000B4F8F41009F0E4F8012809D151
:103B30007649774A09681268C988642000FB012227
:103B4000C9F81020009B5BB1704A126812793AB133
:103B50000FF09CFE032289F820204FF47A7236E0A1
:103B6000002D40F09F806A4AD9F810101068654A0D
:103B700088420AD901920FF089FE019A032182F846
:103B8000201040F6B831D161BDE7012182F8201044
:103B9000B9E7009B4FF4806013B10BF0C1FA01E06C
:103BA0000BF0AEFA0022C9F810207BE0002D57D1AF
:103BB000564A1268127A012A02D00FF067FEA2E775
:103BC0000FF064FE032289F8202040F6B832C9F8CD
:103BD0001C2098E725B1052289F82020012000E06B
:103BE0002846BBF1000F0BD0D4F8F0200327118A30
:103BF000484A118051809180444909684988D180A0
:103C0000434A1168D9F81420914202D8BBF1000F41
:103C100045D147F23052C9F81C20032221E0327806
:103C200042F0020232700EF0A3FD394AD9F81C109E
:103C300012680A44C9F81820042212E0344A9DB1DF
:103C40001168D9F8182091422CD9334A92781AB9C0
:103C5000DAF80020D30725D4327822F0020232703D
:103C6000052289F820204EE71268D9F81C100A4472
:103C7000C9F8182016E02549254A09681268C9883C
:103C8000642000FB01224FF48060C9F8102000225C
:103C900089F8202089F803200BF032FA33E7002856
:103CA0007FF431AF17B1384609F02CF91B4D05F5FB
:103CB0000C70B5F8E01009F01DF8824609F05AF8CA
:103CC00080B333785F072DD5154BB3F90620B5F8CF
:103CD0004A329A4237DB012384F8F6303AE000BFDB
:103CE000140D0020BC1A0020CC1A0020F10D002079
:103CF0000000C84200C07F445E0F0020EC3100206D
:103D0000404B4C00042700204C270020CC2B0020E7
:103D1000EC260020D02B0020000000201C2C0020CE
:103D20004E2B0020002384F8F630BAF1000F11D199
:103D30009F49A04B0020002208601A6048605A602A
:103D400088609A6006E0BAF1000F06D194F8F63068
:103D5000002BEDD03378580736D5D8F80030D90687
:103D600032D5954B1B78DA062ED4944B9B7893B1C1
:103D700095F88732BAF1000F15D17BB1904B1A68D4
:103D8000D4F8F8309B1A002B08DA0EF0F1FC8D4BBA
:103D900083F8FCA018E0BAF1000F0DD1102009F053
:103DA000B1F801230EE03BB1854A4FF47A711268F5
:103DB00001FB0323C4F8F83094F8FC3023B109F078
:103DC0008DF8002384F8FC300022134695F8861203
:103DD000B5F842E2B5F844C27B4F9B0837F91200B0
:103DE00001327045C4BF63F07F03DBB26045B8BFEA
:103DF00043F04003042A0297EED194F8FD20714865
:103E00009A4205D190F8FE20F92A04D8013200E048
:103E1000002280F8FE2084F8FD30684B694A9878CB
:103E200099466A4F28BB3B68DB070AD582F8FF003A
:103E3000BAF1000F1DD13378DB071AD50EF0D2FA94
:103E400017E03378580714D5614B1B788BB1614B61
:103E5000DB7873B992F8FF300133DBB2032B82F8C1
:103E6000FF3006D911B10EF083FC02E0BAF1000F69
:103E7000F9D094F8FE30DFF84CA1142B6CD199F8EE
:103E800002308BB19AF8FD305F2B0DD1337803F0FF
:103E9000040303F0FF0B13B10EF06AFC04E00B20E7
:103EA00009F030F88AF8FEB0337803F0040303F029
:103EB000FF01002B50D194F8FD30424A572B14D10A
:103EC000454B1A684FF47A73B3FBF2F3C3EB43121A
:103ED00003EB8203414ADB001380414B1B685B0705
:103EE0003AD5404B0A221A8036E0D8F80000400745
:103EF00017D55A2B15D192F800312BB1012382F836
:103F0000001182F8013127E092F8023183F00103B9
:103F100082F802310BB10C2000E00D2008F0F2FF16
:103F20001AE05D2B00F095855B2B00F094855E2BED
:103F300002D1032000F090BD562B01D10BF0FCF90B
:103F400099F80230002B00F08D8594F8FD306F2B2E
:103F500040F088850EF046FAD8F80030580752D560
:103F600094F80231174A93B1337859070FD5029B61
:103F7000B3F90610B5F84232994208DD3B6813F0F8
:103F8000010302BF3221A2F8141182F802313B680A
:103F9000DA0329D594F816210A4B2AB993F800219F
:103FA00012B93222A3F81421012384F816312AE031
:103FB000302B0020B82B0020600F002000000020D4
:103FC000EC260020140D0020D02B00204C270020D0
:103FD000001000200427002098170020E031002066
:103FE00090170020E431002094F80031BF4A53B10B
:103FF000337803F0040303F0FF0123B9012382F8AF
:10400000001182F80131DFF8049300233B6009F1CD
:10401000500A19F8010C494608F046FE38B119F863
:10402000022C012303FA02F23B6813433B6009F1BF
:104030000409D145EDD1AE4B1B7853B1AD4FDFF83C
:10404000D0A23B68DFF8CC9213F0020F40F0D3818E
:10405000CAE1A94F07F15A0917F8010C394608F0CF
:1040600023FE08B397F804E00C21BB7801FB0E4156
:10407000A24A013B03EB43031344D1F81C2197F8F8
:1040800003A09A4299480FD0C1F81C31002390F840
:104090004821C1F82031012303FA0EF322EA030379
:1040A00081F818A180F8483106374F45D4D1944B98
:1040B000D4F84C711B68DFF860B20193914B1B7808
:1040C000039300230093DBF80010002900F08381A4
:1040D00091F80090B9F1000F00F07D81DBF8043019
:1040E000019AD31A002B0CDB02F5FA73009ACBF875
:1040F00004300123934094F8482122EA030384F812
:104100004831039B002B00F066811BF8042C4B7890
:104110000432D2B2002B40F027817B4B33F91220BE
:10412000B5F8403203F1C800824202DD91F802A0E6
:1041300015E0C83B9A4203DA8978C1F1000A0EE023
:10414000009A0123934094F8482122EA030384F85B
:104150004831019B03F5FA73CBF804303BE1009B37
:1041600094F848211A41D30700F13581BAF1000FC4
:10417000CCBF0220012008F0FBFE09F1FF32132A18
:1041800000F22181DFE812F014001E0028003C003C
:1041900055005C0079009600CA00D600E4001F01BB
:1041A0003C004B005C00790096006D008A00A60080
:1041B000397801205144FA29A8BFFA2121EAE17196
:1041C0003970C2E0B978022051446429A8BF642143
:1041D00021EAE171B970B8E097F804903846D1440B
:1041E000B9F1640FA8BF4FF0640929EAE979D4F85E
:1041F000501187F8049008F0E9FC03204946A4E038
:10420000B9790D2051446429A8BF642121EAE171E4
:10421000B97108F08FFDB9F10D0F00F0D4807979F4
:104220000E2051446429A8BF642121EAE17179710B
:104230008BE0F9790520514481F30801F97184E09C
:10424000D4F854210F2091785144C829A8BFC8211F
:1042500021EAE171917008F06DFDB9F10F0F00F0E6
:10426000B280D4F85421122051785144C829A8BFF3
:10427000C82121EAE171517067E0D4F8542110207F
:10428000117B5144C829A8BFC82121EAE1711173EB
:1042900008F050FDB9F1100F00F09580D4F85421CA
:1042A0001320D17A5144C829A8BFC82121EAE1715D
:1042B000D1724AE0D4F854211120917D5144C8298B
:1042C000A8BFC82121EAE171917508F033FDB9F169
:1042D000110F78D0D4F854211420517D5144C829AD
:1042E000A8BFC82121EAE17151752EE0140D00200C
:1042F000EA3100204C270020B4300020B49F010890
:10430000EC26002000100020D02B0020653000207B
:104310009017002048270020300E0020D4F85421A8
:104320000920D1785144C829A8BFC82121EAE171E8
:10433000D1700AE0D4F854210A20517B5144C82995
:10434000A8BFC82121EAE171517308F0F3FC3AE0FB
:10435000D4F854210B20D17D5144C829A8BFC821CD
:1043600021EAE171D175F0E7012B2CD1029B88780D
:1043700033F91230B3F5617F05DB40F63302934227
:10438000A8BF134601E04FF46173B9F10C0F1AD1C5
:104390004FF4966292FBF0F0A3F5617393FBF0F398
:1043A0009D4ADBB212789A420DD0184604930AF067
:1043B000EDFE049B4846194608F0BCFC049B581CC3
:1043C000C0B208F0D5FD009A0123934094F848212B
:1043D000134384F84831009B0BF10C0B0133042B81
:1043E00000937FF470AE29E6D8F80030D8050FD5D9
:1043F0008A4BDB7863B1DAF80030990708D5B9F851
:10440000003013F0010B08D101200AF089FE04E00E
:1044100001200AF075FE012300E000233A685207EC
:104420000BD553B101200AF06BFEB9F800309807A4
:1044300006D402200AF074FE02E002200AF060FEB8
:10444000774BB9F8002099689B8912F0030F14BFCD
:104450004B610B61DAF8003013F00A0F2DD03B6886
:10446000D9060DD552070ED404200AF059FE6D4B23
:104470000A22B3F9043093FBF2F3A4F8583102E0B6
:1044800004200AF03DFE3B689B0607D5B9F80030D2
:10449000580606D440200AF043FE02E040200AF00D
:1044A0002FFE3B68590641BF5E4B0A22B3F9043028
:1044B00093FBF2F348BFA4F85A313B684FF4807085
:1044C0001A0502D50AF02CFE01E00AF019FE6B79FC
:1044D000082B01D00E2B02D140200AF011FED8F893
:1044E00000305B0518D595F8C8321BB9337813F046
:1044F000040F02E03B6813F4002F09D04A4B00225E
:104500001A703C2003F0ECFE30B10DF035FBF8E7FB
:1045100007F0CCFE0FF0F2FA012384F85C31D4F8F6
:104520004C81424BB8F80A20B3F90660964211DB81
:10453000B6F5FA6F98F80890BFBFB31A03FB09F3FA
:10454000A2F5FA6993FBF9F9ACBFC9F1640909F165
:10455000640901E04FF0640995F81E32B5F840A2F5
:10456000009395F81F320027019395F9D8315B42EB
:104570009BB202932D4A2E4B32F917B040F2E6322D
:10458000CAEB0B0000F2F311914207F80390294D9A
:104590004FEA470356D80028B8BF4042022F55D0F3
:1045A000009A904202DD009A801A00E000200593F4
:1045B0000FF03AFC20490FF03FFD039098F80200FD
:1045C0000FF02EFC039A0490114610460FF080FC69
:1045D0001A490FF073FBDDF810C0014660460FF07A
:1045E00077FC17490FF06CFB039A11460FF070FC33
:1045F000039098F800000FF013FC039A0146104650
:104600000FF066FC0E490FF017FD0FF027FE059B1B
:10461000D345E85256DB59E0F62600200427002057
:104620002C270020182B0020AC170020D02B0020B6
:104630002C2B00204E2B00200000C8420000C84157
:1046400000401C45022F4FF4FA70ACD1019A05933B
:104650009042CCBF801A00200FF0E6FBA6490FF075
:10466000EBFC039098F809000FF0DAFB039A049032
:10467000114610460FF02CFCA0490FF01FFBDDF88F
:1046800010C0014660460FF023FC9D490FF018FB57
:10469000039A11460FF01CFC039098F801000FF0EC
:1046A000BFFB039A014610460FF012FC94490FF02D
:1046B000C3FC0FF0D3FD029BD34500FB03F0059B29
:1046C000A88007DA8F495A5A52425A520137032FAB
:1046D0007FF450AF8C4B8D4F196811F480510DD081
:1046E000B6F57A7F05DBB6F5FA6FA8BF4FF4FA6628
:1046F00001E04FF47A76A6F57A7612E0B7F8422216
:10470000964205DBB6F5FA6FA8BF4FF4FA6600E0F3
:104710001646B61A4FF47A737343C2F5FA66B3FBC2
:10472000F6F6642396FBF3F0DFF810C26FF0630E29
:104730003CF810200EFB006601303CF910000FFA27
:1047400082FECEEB0000464396FBF3F36D48134424
:104750009BB2C380B1B16E4A1268D60012D56D4AC1
:10476000D2787AB9A3F57A731BB21A034FF47A732D
:1047700092FBF3F3CAF5FA6109B24B430AEB233A11
:10478000A0F806A0644E338803F040031FFA83F8B4
:10479000B8F1000F43D0614B0A20B3F9043093FB0A
:1047A000F0F0B4F85A31C01A00B20FF03DFB5C498A
:1047B0000FF08EFB5B4904460FF082FA0AF02FFCE3
:1047C000814620460AF02BFC0446B5F902000FF0A2
:1047D0002BFB8246B5F900000FF026FB49468346C5
:1047E0000FF076FB2146009050460FF071FB009BC6
:1047F000014618460FF062FA0FF030FD4946288056
:1048000050460FF065FB2146814658460FF060FB8D
:10481000014648460FF054FA0FF020FD688097F8E3
:10482000470200285CD0B8F1000F59D13E4CDFF8A8
:10483000108194F85D31834213D084F85D010FF04C
:10484000F3FA37490FF044FB364907460FF038FAC0
:104850000AF0E5FBC8F8040038460AF0E0FBC4F8AB
:104860006001B5F900000FF0DFFA0746B5F9040062
:104870000FF0DAFAD8F804808146414638460FF046
:1048800027FBD4F860A10446514648460FF020FBB0
:10489000014620460FF012FA0FF0E0FC234CB0F571
:1048A000FA7FA8BF4FF4FA70A042B8BF2046414635
:1048B000288048460FF00CFB5146804638460FF0E2
:1048C00007FB014640460FF0FBF90FF0C7FCB0F5BF
:1048D000FA7FA8BF4FF4FA70A042B8BF2046A88064
:1048E000134B144D1A7812F0040F2BD0124B1A6888
:1048F0009B88536167E000BF0000C8420000C841C8
:1049000000401C454E2B0020F82600201C2C0020C7
:104910004C2700200427002048270020182B0020C7
:1049200035FA8E3CDB0FC93F140D00200CFEFFFF53
:10493000EC310020901700202C270020841C002040
:104940000000002072490968C90703D5714991F830
:10495000641111B142F001021A706F4A6F49127866
:1049600012075EBF1A7822F001021A702A6812F04C
:10497000040F02D06A48008878B96648B0F804018C
:1049800008B1970709D4674A1288003218BF01227C
:104990001AB965480088642806D902220A701A7874
:1049A00022F001021A7005E01B78DC0756BF0223D3
:1049B0000A700B7008F044FA5C4B1B68C01A0028A0
:1049C00001DB0DF01DF82B6858071CD5504B1B68F8
:1049D000190703D408200AF093FB14E0348804F08C
:1049E0000804A4B27CB908200AF09AFB504B1A685C
:1049F000504B1A60504BDA88464BA3F866214F4B58
:104A00001C604F4B1C602B68DA067DD5404B1B6841
:104A10009B0206D44FF4007009B0BDE8F04F0AF0D5
:104A20006FBB348804F40074A4B2002C6CD14FF432
:104A300000700AF075FB3E4B1A683E4B1A603E4B05
:104A4000DA88344BA3F866213C4B1C603C4B1C605D
:104A50005AE0012000E002200138C0B20AF05AFCFE
:104A6000FFF77ABA94F8FD302A4A972B05D14FF414
:104A7000C873A2F80431FFF76FBAA72B06D1264AF4
:104A8000137843F004031370FFF766BA0021BB2BC1
:104A9000079101D1022303E0B72B04D14FF6FE7337
:104AA000ADF81E3009E0BE2B01D1022303E0BD2B7F
:104AB00018D14FF6FE73ADF81C30BDF81C20B5F8C8
:104AC000EC311344A5F8EC31BDF81E20B5F8EE31F9
:104AD0001344A5F8EE310AF02FFC002384F8FE30D1
:104AE000FFF73ABA792B04D192F80B3123F0010386
:104AF00006E07A2B7FF430AA92F80B3143F00103E1
:104B000082F80B31FFF728BA09B0BDE8F08F00BF7B
:104B10004C270020140D0020600F002028270020C3
:104B2000E4310020E0310020F2260020442700205C
:104B3000A82A0020B42A0020D02B0020BC2A002064
:104B4000C02A00209148F0B50368914A9C8AA4B21B
:104B5000E1B211F0010F2ED0198821F4006109048F
:104B6000090C1980198889B241F4806119800021EB
:104B70001170517899B1917811B9D178FF290ED17E
:104B8000012191701179022901BF198889B241F47C
:104B900000611980517941F001011982E1E05179F8
:104BA00001F0FE011982D378FF2B00F0DA80784BF8
:104BB000FF211970D5E08E073AD5BFF35F8F1479C6
:104BC000E4B2012C13D1517889B1917879B1198867
:104BD00021F480610904090C1980BFF35F8F198BE0
:104BE0001988947189B241F4007119801BE0198B06
:104BF000BFF35F8F14796649022C0AD14C7844B117
:104C0000897831B1198821F480610904090C19806F
:104C1000A1E014795E49032C05D14C781CB1897848
:104C2000002940F09880998889B241F4806197E02A
:104C30004D0756D5012191715178002937D09178CF
:104C4000002934D011791C88022911781DD924F447
:104C500080642404240C1C801E8A9568CCB2F6B2B1
:104C600049B26E54198889B241F400711980016803
:104C7000A31C13700B8A0134DBB264B22B558B88F2
:104C80009BB243F480638B8026E0A4B244F40074AA
:104C90001C801D8A9668CCB2EDB249B275541B8A4D
:104CA000611C49B2DBB203347354147014E0917880
:104CB000374C09B9217B41B1198889B241F400719F
:104CC000198013780133137006E0198889B241F412
:104CD000807119800123A37001680B88DB05FCD467
:104CE0003FE001F0400101F0FF05E1B114781F8AB7
:104CF0009668E5B2691C64B2FFB23755C9B216793D
:104D0000117049B2CC1CA64201BF9C8824F4806477
:104D10002404240C08BF9C8013798B4221D11C4BA6
:104D200002351D701DE027061BD511784CB2661C9C
:104D30000AD0156901312C5DC9B21C821479117039
:104D400049B28C420DD106E0D178157019825178A4
:104D500009B9117929B9998821F480610904090CEC
:104D60009980137992F9004001339C4208490CD193
:104D700000238B708B7933B101688B8823F44073E7
:104D80001B041B0C8B8000231375F0BDFC25002039
:104D90007C0E00206B4B6C4A2DE9F04F5E899469C4
:104DA0004FEA062AB4EB0A0A9C884FF000054FEA46
:104DB00004481C894FF0000BA4FB0A6765EB0B0B42
:104DC00004FB0B77F40944EA476418EB04065C889B
:104DD0004FF000094FEAE7154FEAC438DC8849EB89
:104DE000050787B0CDE90467A4FB0A6704FB0B77CE
:104DF000340A44EA076418EB04064FEA27259C8925
:104E00004FF0000949EB0507CDE90067AAFB0467ED
:104E100004FB0B77F40D44EA472414F5FA664FEAD5
:104E2000E75545F10007B6F5FA6F77F10003CDE9D4
:104E30000267964666DADDE90489A4FB046704FB91
:104E400005F34FF0050C07EB4307A6FB0C230CFB07
:104E500007335F104FEA3206B8EB06084FEA9206B6
:104E600046EA837669EB07099F10DDE90023921B70
:104E700063EB0703CDE90023DDE90267334A4FF016
:104E8000FF33964277EB0303CDE9048927DA40F636
:104E9000AC520023A4185D4104FB05F3A4FB0445B8
:104EA0006FF0060205EB4305664202FB0566A4FBB4
:104EB0000223334418EB020649EB0307CDE90467EC
:104EC0000B26A4FB062306FB0533DDE900455B103A
:104ED0004FEA3202A41A65EB0305CDE90045DDE98E
:104EE00002450AFB0BF3AAFB0AAB0BEB430B4FEAA1
:104EF000DA7242EA4B02A41A4FEAEB7365EB030540
:104F0000CDE90245DEF81C40009B019DA4FB032374
:104F100004FB05334FEA525848EAC3284FEA635965
:104F2000DDE90423B8EB020269EB03039946D30BD6
:104F300043EA494300B1036009B1029B0B6007B02B
:104F4000BDE8F08F081700207C0E002024FAFFFF38
:104F50002DE9F04F6D4B6E4C1E6A228887B0C2EB74
:104F600026135B435200C2EBE602B4F902601B1346
:104F70005643B4F90420029153439B1303EBE626F6
:104F800006EB860380331B120493624BB6F5FA38A6
:104F90004FEAE6771B6847F1FF39A8FB08AB03939C
:104FA00008FB09F3B4F908200BEB430BE389054632
:104FB0000593D31708FB03F102FB0911A8FB022399
:104FC000B4F90A000B44C1171F030AFB01F300FBED
:104FD0000B33AAFB000147EA12571944A6611603D6
:104FE000020A42EA016292194FEA2123E6887B41D4
:104FF0000032A2FB060143F5004306FB03114B10F0
:105000000093CB170193DDE900231343B4F810E0BC
:10501000B4F80CC06DD00FFA8EF0C1170AFB01F185
:10502000AAFB002300FB0B11BDF914600B44F7171A
:1050300008FB07F106FB0911A8FB06670F4479047A
:105040007004801841EAD6315941039B0FFA8CF85D
:10505000C3F5801E7246D317002212184FEACE768F
:105060004FEAC3774FEAC8034B4147EA5E07B61AD7
:1050700067EB030740F63543A6FB030103FB07116B
:10508000DDE900230FF030F9B4F916204E1302FBCE
:1050900006FE470B47EAC147D31707FB03EEA2FB07
:1050A00007235643734407FB0366A2FB07233344DD
:1050B000560E46EAC3168219B4F914604FEA6367C4
:1050C00041EB07037143F71700FB0717A6FB00012D
:1050D0003944C60C46EA413692194FEAE1474FEA95
:1050E0001221B4F912207B4141EA036113010B4400
:1050F00000E000230DB11B0A2B60029B13B11A467E
:10510000049B136007B0BDE8F08F00BF7C0E002049
:1051100074170020C0310020704770472DE9F0411E
:10512000324C334D6289AB8CB4F904809A1A2389CE
:10513000B4F902E05A43B4F91230D613B4F914208A
:10514000DB02324493FBF2F232440A26E261564318
:10515000A2F57A6202FB02F3B4F90EC002FB0EFE66
:1051600002FB08F2B4F90C801B130CFB03FC03FBDD
:1051700008F31B1403EB62320232E388921002F54B
:10518000004253434CF25032B4F920704FEAEE2EF5
:10519000B4F900400EEBEC2C0CEB8404BC40AD6A7F
:1051A0000234A5EBA4043A4162434FEAD3384EBF20
:1051B000B2FBF8F35400B4FBF8F340F6DE3448BF1A
:1051C0005B001A12524362430A4C08365C432414B3
:1051D00004EB224202F6CF62361103EB221300B138
:1051E000036001B10E60BDE8F08100BF1C17002014
:1051F0007C0E002043E3FFFF13B50C4B04465B68B5
:105200001B20022101AA984770B19DF804209DF847
:10521000053043EA022303F54E5310334FF48C72EA
:1052200093FBF2F32333238002B010BDF416002069
:10523000064B93F82C2002F0FF012AB101220270E4
:10524000002283F82C207047017070477C0E0020EC
:1052500037B5104B04465D68187806216A46A847A2
:10526000A8B19DF800209DF80130012043EA0223F7
:1052700023809DF802209DF8033043EA02236380D7
:105280009DF804209DF8053043EA0223A38003B073
:1052900030BD00BFF416002013B5104B04465B6808
:1052A0003B2006216A469847A8B19DF800209DF84A
:1052B0000130012043EA022323809DF802209DF85B
:1052C000033043EA022363809DF804209DF80530F3
:1052D00043EA0223A38002B010BD00BFF4160020F1
:1052E00010B5224C2368998A89B211F4706F1EBFE1
:1052F0001F4A012082F82D0011F4E06F2BD01A8B89
:105300009A88890522F480624FEA02424FEA1242EB
:105310009A8020D41A8892051DD41A88D0050FD5FA
:105320001A88D105FCD41A8892B242F400721A800D
:105330001A889205FCD40F4B18780AF036FE0AE062
:105340001A8892B242F400721A809A8822F440724B
:105350001204120C9A802268938A23F470631B044F
:105360001B0C9382024B00221A7510BDFC250020F5
:105370007C0E002000260020054A08B51388013362
:105380009BB21380034B18780AF00FFE002008BD73
:10539000F42600200026002008B54FF4804003F0DA
:1053A0001BFD012801BF044B4FF480425A61034B9F
:1053B00008BF83F82E0008BD000401407C0E0020C9
:1053C00010B5074C2368186903F006FD38B123684F
:1053D0001A69044B5A61044B012283F82C2010BD3A
:1053E00000170020000401407C0E0020F8B50E4696
:1053F0001746084C4FF48055656140F080000EF070
:10540000B1FA3846002132460EF07EFA25610120BD
:10541000F8BD00BF000C014070B50E46054C4FF4BE
:10542000805565610EF09EFA30460EF09BFA2561BC
:10543000012070BD000C014070B5104C05461920CC
:1054400007F025FDA36815200021984710B9022018
:1054500007F0A6FDA36845F0180116209847A36839
:10546000002117209847A36801213D209847A36891
:105470003E200121BDE87040184700BFF41600200F
:10548000F0B5284D85B095F82F30002B47D1264C2C
:105490002368002B43D01A68244E12B1B1690A4325
:1054A000B2619A889868ADF8002002228DF8032036
:1054B000694604228DF8022002F015F8B36900272E
:1054C00043F00103B36123680126187B197D01F0C5
:1054D000F5FF2368164993F9150007F0AFFD23681F
:1054E000144A1B695361029308230DEB03008DF8E6
:1054F0000D308DF80C708DF80E6003F03DFC2368C4
:1055000001A85B7D8DF806708DF8043003238DF8BB
:1055100005308DF807600EF0D9F985F82F6005B0D9
:10552000F0BD00BF7C0E00200017002000100240DC
:10553000C15300080004014037B50546FFF7A0FF3E
:105540002C4B1A682C4B9A420ED14FF40053ADF8F5
:10555000043002238DF80730042328480DEB0301A3
:105560008DF8063001F0BFFF254CFFF789FFA368D7
:1055700080216B209847642007F089FCA3680721ED
:1055800068209847642007F082FCA36800216B2004
:105590009847642007F07BFCA36801216B209847A3
:1055A0000F2007F074FCA36818211B2098470F20D8
:1055B00007F06DFCA36818211C2098470F2007F006
:1055C00066FCA36829461A2098470F2007F05FFC65
:1055D0000C4AA368117819209847642007F057FCFB
:1055E000A368102137209847A368012138209847E5
:1055F00003B030BD84000020001BB7000010014044
:10560000F41600209417002008B5FFF739FF024B6D
:105610004FF400621A8008BD0800002070B50546EE
:10562000154CFFF72DFFA36880216B20984764205D
:1056300007F02DFCA36803216B2098470F4AA3684D
:105640001178192098470F2007F021FCA3682946FC
:105650001A209847A36818211B209847A36818218F
:105660001C209847A368022137209847A368382058
:105670000121BDE870401847F4160020941700205F
:1056800008B5FFF7FDFE074B5B7813B1012B03D084
:1056900008BD4FF4806201E04FF40062024B1A80B3
:1056A00008BD00BFF01600200800002010B51E4CF9
:1056B0004000C0B2A36023611C4B6071E170012007
:1056C00000212173607022712075186884F82D10F4
:1056D00040B383889B0515D40388D9050DD44FF4B6
:1056E00080530288920502D5013BFAD112E08BB1BA
:1056F00003889BB243F48073038083889BB243F496
:10570000407383804FF48053227D12B1013BFBD163
:1057100000E013B9BDE810402EE6034B93F82D00CE
:1057200080F0010010BD00BF7C0E0020FC25002091
:1057300007B5002101AB03227720FFF7B7FF9DF8E3
:1057400005309DF804001B0243EA00439DF8060063
:10575000184303B05DF804FB08B5FFF7E9FF014B00
:10576000D86108BD7C0E002008B5FFF7E1FF014BB2
:10577000986108BD7C0E002007B5F7216B46062214
:105780007620FFF793FF9DF800309DF801201B0362
:1057900043EA02139DF8022043EA1213084A1360F9
:1057A0009DF803309DF804201B0343EA02139DF883
:1057B000052043EA1213034A136203B05DF804FBA9
:1057C000C03100207C0E0020104B13B51B78104C0C
:1057D00013B194F82E30B3B1032201AB7720F62138
:1057E000FFF764FF9DF805309DF804201B0243EA93
:1057F00002439DF806201343064AB2F92020C2F165
:105800000802D340A36202B010BD00BF8100002097
:105810007C0E00201C1700200B4B13B51B780B4C83
:1058200013B194F82E3063B1022201AB7720F62138
:10583000FFF73CFF9DF804209DF8053043EA022362
:10584000A38402B010BD00BF810000207C0E0020A8
:1058500030B505460C46134629462246BDE8304081
:10586000682023E713B50622044601211C206B465D
:10587000FFF71CFF08B39DF801309DF800200421BC
:1058800043EA022242F38D0292FBF1F29DF80230CC
:1058900022809DF8032042EA032242F38D0292FB0C
:1058A000F1F29DF8043062809DF8052042EA03235E
:1058B00043F38D0393FBF1F3A38002B010BD13B546
:1058C00006220446022118206B46FFF7EFFEB8B10E
:1058D0009DF800309DF801209B0803EB02232380F4
:1058E0009DF802309DF803209B0803EB02236380A0
:1058F0009DF804309DF805209B0803EB0223A3804C
:1059000002B010BD314B2DE9F3411B780546002B49
:105910003CD0002426462746A0460134532032219D
:1059200008226B46E4B2FFF7C1FE08B900204AE046
:105930009DF801209DF80030202C03EB02231BB2C0
:105940009DF8032098449DF8023003EB02231BB21C
:105950001F449DF805209DF8043003EB02231BB281
:105960001E449DF8073003F07F0301D0002BD4D1F3
:1059700098FBF4F897FBF4F796FBF4F6144BA5F8B4
:1059800000806F80AE8083F830401CE053203221CD
:1059900006226B46FFF78AFE0028C7D09DF801203B
:1059A0009DF8003003EB02232B809DF803209DF827
:1059B000023003EB02236B809DF805209DF8043034
:1059C00003EB0223AB8002B0BDE8F0810617002094
:1059D0007C0E002013B5204B400002ACC0B25871C1
:1059E00004F8012DD970012200211A7359701A711F
:1059F0001A751A4A1C6110689C6083F82D1040B318
:105A00008288920515D40288D4050DD44FF48052B3
:105A10000188890502D5013AFAD112E08AB10288DB
:105A200092B242F480720280828892B242F4407252
:105A300082804FF48052197D11B1013AFBD100E010
:105A400012B9FFF799FC04E0034B93F82D0080F0A6
:105A5000010002B010BD00BF7C0E0020FC2500201C
:105A6000772048210122B5E7772058210122B1E7AC
:105A70007620F4213122ADE7064B002193F8202057
:105A8000054B9201343283F82E107720F42102F076
:105A9000FC029FE71C1700207C0E0020034B002215
:105AA00083F82E207720F4212E2293E77C0E00200D
:105AB00003460A46682019468CE713B500222A21BE
:105AC0001C20FFF787FF0E2102221C20FFF782FF18
:105AD0000F2103221C20FFF77DFF2B2112221C2007
