:020000040800F2
:1000000000A000200D64010875640108C5480108BE
:10001000756401087564010875640108000000003A
:1000200000000000000000000000000075640108EE
:10003000756401080000000075640108530E010892
:100040007564010875640108756401087564010828
:10005000756401087564010841DA00083FDA000898
:100060007564010875640108756401087564010808
:10007000E10D0108D10D01085D0A01087564010850
:10008000C10D0108B10D010875640108756401080E
:100090007564010875640108756401083DDA00089B
:1000A000D907010815080108C9070108390801081E
:1000B00009080108F9070108E90701087564010842
:1000C00075640108756401087564010875640108A8
:1000D00075640108550A01084D0A0108450A01081E
:1000E000610E0108756401087564010875640108F2
:1000F0007564010875640108756401087564010878
:10010000000000000000000000000000756401080D
:100110007564010875640108756401087564010857
:100120007564010875640108756401087564010847
:1001300075640108756401080000000000000000FB
:100140007564010875640108756401080000000009
:10015000000000000000000000000000000000009F
:1001600000000000000000007564010875640108CB
:10017000756401080000000000000000000000009D
:08018000000000007564010895
:100188002DE9F04FB44BB54C1B68B54E9F6AB54D81
:100198002DED048B9DB010F027FE2368C01A308027
:1001A80010F022FE2B782060012B01BFAE4B328865
:1001B8001A80AE4A04BF12885A8010F015FE06460F
:1001C800AB4BDB686BB115A898479DF8543043B129
:1001D8002B78072B10D110F007FEA34B801B18803B
:1001E8000AE010F001FEA34A23681268FB1A1844BB
:1001F80050329042E4D3EBE72379002B00F0BB8622
:100208009D4D10F0F1FD95F85232814633B1C3EBA4
:10021800431603EB8603DB009BB201E08F4BDB88C0
:10022800964A1668B3FBF6F6954B8C4A1B78771CF2
:10023800BFB227819BB3DFF880A24FF00008914B33
:10024800404633F9181014F0ABFA08F10108B8F178
:10025800030FAAEC010AF2D1B4F80AA000237F48E0
:10026800884A00F1140E00F10C0832F813C03EF869
:10027800132038F813102EF813C0C2EB0C0B11FB27
:100288000AF13AB291FBF2F25A4428F813200133EA
:10029800042BE4D17A4B468100221A7002E053897C
:1002A800013B538160896D4A03B2002B4FF0000374
:1002B80022DDB2F908707449744E31F81320083100
:1002C80012FB00F231F8131092FBF7F28A1A26F8A3
:1002D80013200133042BEED10020B6F900106C4F27
:1002E80014F05EFA0120B6F9021087ED000A14F046
:1002F80057FA87ED010A00E053815D4A049293683A
:100308000BB164489847644F5B4E396811F0080F89
:100318004FD05C4ADFF8A4E1908800F10E039BB24D
:100328001C2B5E4BB3F904303ED8DFF878C1BCF81B
:1003380000C01CF0040F37D0BEF800E04FF00A0CE4
:1003480093FBFCF3CEEB03039BB21FFA83FC0FFA7B
:100358008CFE1EF1B30FBCBF03F5B4731FFA83FC08
:100368000FFA8CF3B32BC4BFACF5B4731FFA83FC3C
:100378004B4B96F8D8E11B781B071AD54FFA8EFE1F
:10038800CEF1000E1CFB0EF3DFF834E1DEF800E0DE
:100398009EF809E09BB213FB0EF36FF01D0E93FB62
:1003A800FEF31844908004E00A2293FBF2F3AEF8BF
:1003B800003011F0140F00F0B9803A4B1B8803F499
:1003C8000273002B00F0B280354B2E4A1B7803F0E5
:1003D800100303F0FF0C4BB1334B96F99C12B3F9A1
:1003E8000000538800FB013353809FE0236A1B49B8
:1003F80093F803A0DFF8CCB02C489B78BAF1000F33
:1004080064D0B0F90000BBF906A0C0EB0A0888EA7E
:10041800E87EAEEBE87E9E450FDDDFF8ACE0824576
:10042800CEF800C04FF0010E81F824E0C8BF5B424F
:10043800D1889BB20B44D38078E091F824303BB14B
:100448001B4B81F824C0D3F800E01A4BC3F800E036
:10045800154B1B6803445FE078270020F80900204B
:10046800843600204E14002050140020422E002014
:100478006C17002010180020A8300020502B0020F6
:10048800C40F0020A62B0020040A0020682B00209F
:10049800602B0020140A002098170020702B0020E1
:1004A80000100020BC140020D0270020CE0F002010
:1004B800C0100020C4270020542B00202C0F00203F
:1004C800C420002044300020CC270020B0F900E0F0
:1004D800BBF90600CEEB000080EAE07CACEBE07CE8
:1004E8009C450ADD022390FBF3F0B24B1860B2483A
:1004F8000123037081F824300BE091F8243043B1D4
:10050800AE4B81F824A01868AD4B1860AA4B83F84D
:1005180000A0AC4B1B687344A06A018840888B42DA
:1005280003DB8342A8BF03461946D180A64B1B783C
:10053800EBB1A64BB3F90620B6F84E329A4216DC58
:10054800A34B5B79012B01D0192B02D196F8972286
:100558006AB90E2B0BD0082B09D09E4A0023938032
:100568009D4A93809D4A002393609D4A936096F824
:100578000CA2BAF1000F33D09A4B1B889B072FD0DF
:10058800994BDFED9A7A93ED080AB4EEE70AF1EE9B
:1005980010FA20D918F02CFBD4ED0B7A20EE270A9C
:1005A80018F0A2FAB0F5617FA8BF4FF4617007EEAA
:1005B800900AB8EEE70ADFED8E7A80EE270A0DF092
:1005C80006FF07EE90AAF8EEE77A27EE800A18F001
:1005D8008BFA80B200E000207F4AD3881844D0808C
:1005E8003B689F0640F1A1807E4B1B8803F03003D7
:1005F800002B00F09A807F4B1B78D80740F195803C
:100608007D4BDFED7E7AB3F90430DFF80CA20A22C5
:1006180093FBF2F308EE103AB8EEC88A28EE278A60
:10062800B0EE480A0DF0D3FEF0EE408AB0EE480A6C
:100638000DF02EFF724B73491B6893F80380B0EEE0
:10064800409AB2EE048AB8F1000F4AD0DFF8CCB174
:10065800B1F90200BBF8027005913BB2C01A0CF068
:100668009FFFC8F1000290425B46059903DB4045B5
:10067800A8BF404600E0104638441F8806921FFA7B
:1006880080FBB1F90000A3F802B039B2401A059313
:100698000CF086FF069A059B904203DB4045024614
:1006A800A8BF42461744BFB21F803FB207EE107A78
:1006B8000FFA8BFBB8EEC70A07EE90BA28EEC07A9D
:1006C800F8EEE77A20EE090AA7EE897AA7EEA80ADB
:1006D80087EE087ABDEEC77A17EE103AAAF800300E
:1006E8001BE0B1F9023007EE103AB1F9003000EE24
:1006F800103AB8EEC00AB8EEC77A68EEC07A20EEB3
:10070800090AE7EE097AA7EE280AC7EE887AFDEE0D
:10071800E77A17EE903AAAF8003080EE080AFDEE64
:10072800C07A17EE903AAAF80230374B18780028AA
:1007380040F01584354B1A6812F4002F9A4600F0E1
:100748000E84334F3B78033B052B1AD896F80335B4
:1007580033B1012B08D10DF035F9C0F17F0003E06A
:10076800206B03689B689847636B94F838201344A0
:10077800B3F5807FA8BF4FF480738342D4BF63630F
:1007880060633B78023B092B00F2E483DFE813F057
:100798000A00480075009500A900C000D100460372
:1007A800BC03C70300236363E3631A4B1B6823641A
:1007B8000323CEE368360020D4270020C010002091
:1007C800C4270020D0270020020000204430002049
:1007D800A8300020682B0020A62B0020602B0020CA
:1007E800542B0020BC140020102E00208FC2753C12
:1007F800EFB6B04400100020702B002035FA8E3C74
:10080800340F0020C00F00208A36002080140020FA
:10081800482900208C14002080360020BC0F0020BE
:10082800A04B1A68236C64339A4240F293834020A9
:100838000BF028FE002840F08D834FF040089A4BBB
:10084800E26B9A4E985C1D4658B107F04DFE736BEB
:10085800013B7363F36BB8F1010803F10103F36320
:10086800EDD1E26B914BAA5C002A40F07383DA6306
:100878004FF0FF321A6404236BE32A2300938C4B56
:10088800019303F10C0202924920A3F10A025021BC
:10089800023308F09BF9002840F05C83DAF8003056
:1008A8004FF0FF3213F080030FBFE363E06322646D
:1008B800052304BF226407234BE37E4A0223002159
:1008C800009301910291482002F1080308F07EF993
:1008D800002840F03F834FF0FF332364E063062392
:1008E80037E3754B019303F10C020725029200953B
:1008F800A3F1080247200021043308F067F9002813
:1009080040F028834FF0FF33E06323643D7021E318
:100918006A4A05230021009301910291532002F1B4
:10092800080308F053F9002840F01483E063082313
:100938000FE340200BF0A6FD002840F00B83E36B8B
:10094800342B01F24281DFE813F0350038003D0016
:10095800410047004B004F005300570062006A00F7
:100968006E007B007F008E009D00EB00FA000901FD
:10097800180127013601490152015F016C01790113
:1009880086019301A001AD01BA01C301D201DB01C7
:10099800EC01F501FE0107021002210225022902DD
:1009A8002D023902450249024D02510255025902EF
:1009B8005D026102424843492AE243484349444AA6
:1009C800444B91E144484549454A36E0454896F844
:1009D800011596F8022530E04348B6F8D01017E222
:1009E8004248B6F8D21013E2049B414819690FE255
:1009F800404B414819880BE2636CD90403D53F4842
:100A080096F80E1204E2294B0A22DA6302E23C4805
:100A180096F8121296F8132296F8113264E13948C2
:100A2800B4F84810F4E1DAF800301A0540F1F28120
:100A38003548B6F81812B6F916220BF099FEE9E116
:100A4800324B33481968E3E195F85624314854236A
:100A58005343EA180C2192F8DC2301FB02331D44AE
:100A680095F8DE13D4E195F856242B4854235343C4
:100A7800EA180C2192F8DC2301FB02331D4495F897
:100A8800E013C5E195F85624244854235343EA1843
:100A98000C2192F8DC2301FB02331D4495F8DF1387
:100AA800B6E100BF8C1400208CAA0108F8090020C8
:100AB800F6AA0108E4AC0108FCAC010848AD01083D
:100AC800D4D00108E5D00108F1D0010819D10108F6
:100AD8001FD1010827D1010832D1010846D10108E8
:100AE80052D101085BD101086CD101087BD1010802
:100AF8008AD10108080000209AD10108A4D1010870
:100B0800B1D10108CAD10108D5D1010810180020B7
:100B1800E8D10108F4D10108FED1010808D2010882
:100B280095F85624CF4854235343EA180C2192F8D9
:100B3800DC2301FB02331D4495F8E71368E195F8BF
:100B48005624C94854235343EA180C2192F8DC234D
:100B580001FB02331D4495F8E11359E195F8562439
:100B6800C24854235343EA180C2192F8DC2301FBB2
:100B780002331D4495F8E2134AE195F85624BC481F
:100B880054235343EA180C2192F8DC2301FB023367
:100B98001D4495F8E6133BE195F85624B5485423CF
:100BA8005343EA180C2192F8DC2301FB02331D445D
:100BB800B5F8E8132CE195F85624AF48542353436D
:100BC800EA180C2192F8DC2301FB02331D4495F846
:100BD800E31395F8E42395F8E53385E096F8563461
:100BE800A648542202FB036696F8AE1310E195F866
:100BF8005634A348542202FB035595F8AF1395F8D1
:100C0800B92395F8C3336FE095F856349D485422BC
:100C180002FB035595F8B01395F8BA2395F8C43339
:100C280062E095F856349848542202FB035595F82B
:100C3800B11395F8BB2395F8C53355E095F85634AC
:100C48009248542202FB035595F8B21395F8BC2339
:100C580095F8C63348E095F856348D48542202FB7F
:100C6800035595F8B31395F8BD2395F8C7333BE0C2
:100C780095F856348748542202FB035595F8B41367
:100C880095F8BE2395F8C8332EE095F85634824877
:100C9800542202FB035595F8B51395F8BF2395F830
:100CA800C93321E095F856347C48542202FB035599
:100CB80095F8B61395F8C02395F8CA3314E096F85A
:100CC80056347748542202FB036696F8B7139FE020
:100CD80095F856347348542202FB035595F8B81317
:100CE80095F8C22395F8CC330BF042FD92E096F8C4
:100CF80056346D48542202FB0366B6F8D81387E0D1
:100D080095F856349FED697A6948542202FB0355D9
:100D1800B5F8D03307EE903AF8EEE77A67EE877ABF
:100D280053E096F856346348542202FB036696F85B
:100D3800DA136DE096F856345F48542202FB0366D6
:100D480096F8DB1364E096F856345C48542202FBAC
:100D58000366B6F8D4135BE096F856345848542224
:100D680002FB0366B6F8D61352E095F856349FEDA9
:100D78004F7A5448542202FB0355B5F8CE3307EE98
:100D8800903AF8EEE77A67EE877A1EE04E4896F8D2
:100D98001E123DE04D4896F81F1239E04C48B6F84F
:100DA800DC1135E096F8DF319FED407A494807EECF
:100DB800903AF8EEE77A67EE877A06E0D6ED7C7A25
:100DC8009FED3A7A444867EE877AFDEEE77A17EEA8
:100DD800901A1DE0414896F8D91119E0404896F854
:100DE800E81115E03F4896F8E71111E03E4896F8FB
:100DF80091120DE03D4896F8151209E03C4896F826
:100E0800521205E03B48B6F8561201E03A48B1687C
:100E18000BF0AEFCE36B0133E3639BE0374B1B68DD
:100E28009B011BD5B4F84C30354DBBB9354BD5F8C3
:100E380050801E68452007F057FB0E2007F054FB32
:100E480040460BF008FC30460BF005FC4FF480538D
:100E5800A5F84A300A233B7007F0B6FB07F098FE66
:100E680078E000BF15D2010822D201082CD201086F
:100E780037D2010844D2010856D2010865D20108C8
:100E880076D2010887D2010899D20108A9D20108AF
:100E9800B9D20108C9D20108DAD20108EBD2010897
:100EA800FDD20108EDD2010807D301080000C842AD
:100EB80016D3010824D301083BD301084AD30108FB
:100EC80066D301087CD3010890D301088CD30108AC
:100ED8009CD30108A8D30108BBD30108C9D30108D2
:100EE800D9D30108EAD30108FAD3010813D40108B9
:100EF8002CD4010842D401085FD40108C014002092
:100F0800F80900206036002094F85430002BA3D054
:100F1800B34B1B689E019FD409233B709EE7B14BDE
:100F28001A68236CC8339A4203D996F803557DB9D9
:100F380004E00BF0EDFA0028F7D10BE0206B0FF07E
:100F4800C7FD94F855302563022B01D114F0F8F948
:100F580001233B700BF0C6FA08B101233B70A24B8A
:100F68001B78072B05D10FF03FFFA04BC9EB000002
:100F78005880002323719E4B15AD5B68284698471F
:100F8800002800F01A81984B187800230328994EFE
:100F980002BF964956F8237021F813709A0035F964
:100FA8001310B1500133032BF0D1934B9148934F59
:100FB8001A78DFF86492014606F0AAF83B88002BFD
:100FC80000F08A80A36D1B7808EE103AA9F1480852
:100FD800A9F13C054FF0000A894AB7F800E0136808
:100FE8004FF47A70B0FBF3F3C3EB431003EB8003C9
:100FF800DB009BB29E4502BF0023C8F800302B617E
:10100800D8F80030194656F82A30194456F82A30CC
:10101800C8F8001007EE903A2B690133012B1046EF
:101028004FEA8A0BF8EEE77A2B6106D10023C5ED6B
:10103800017AC5ED007AAB601BE0D5ED006A07EEDA
:10104800103A37EEE66AB8EEC77A86EE077A36EED9
:10105800877AD5ED026A85ED017A77EEC77A85ED54
:10106800007AE6EE276AF0EE667AC5ED036AC5ED0A
:10107800026A0023BEF1010F46F80B3049F80B3025
:101088003FD12B690590012BC3BF03F1FF3300EE5D
:10109800103AD5ED037A9FED5B0A0492C4BFB8EE0F
:1010A800C00A87EE800A17F0A5FF049A059818EE83
:1010B800103A9BB1F8EEC87AB4EEE70AF1EE10FAEE
:1010C8000CDD02684FF47A73B3FBF2F3C3EB4312FF
:1010D80003EB8203DB003B80002324E012684FF41B
:1010E8007A73B3FBF2F3C3EB431203EB8203DB0027
:1010F800D8F800209BB202EB530292FBF3F349F8B5
:101108000B300AF1010ABAF1030F08F1040805F1DE
:1011180014057FF461AF3888012801D10FF0CEFEA5
:101128003B88013BD7E756F8232059F82300364976
:10113800121A46F823200133032BF4D191ED2C8A9F
:10114800B5EE408AF1EE10FA37D091F8B4509DB957
:101158002B4B1A681F467AB1DFF8AC80396808F162
:10116800B8002844B0EE480A1C350CF080FE542D17
:10117800F2D1012388F8B43094F8B430234FB3B1D6
:10118800002556F8253007EE903A214B1C2000FB2D
:101198000530B8EEE70A0CF047FEA7EC010A17F095
:1011A800A3FC46F825000135032DEAD105E0D6ED6C
:1011B800037AF8EEE77AC7ED037A94F80C312BB18D
:1011C800114A013B82F80C3100F00BBD114D95F826
:1011D800DF311BB395F8E431013BDBB21FE000BF00
:1011E800C01400208C1400204E140020501400203D
:1011F8006C170020782B0020941700207C360020E4
:101208001018002000000000F8090020182C002009
:10121800B00A0020A83000209C0A0020012384F88E
:101228000C310FF0E1FDA64BA64A1F68A64BB5F896
:101238002E120646186802F15003B847A34B1A78D5
:10124800072A1D4604D10FF0CFFDA14B801B9880C3
:101258000FF0CAFD2F780590012F0AD19D49D4F8C7
:1012680010319B4A0968C4F81001C31A93805B1AAD
:10127800D380994B1B68EBB1D979E1B1974A1268D1
:1012880095071AD5964A1278012A16D9DB78954817
:1012980002FB03F10088CB1A98428AB203DB814231
:1012A8000B46A8BF034612B212031BB2012192FBE0
:1012B800F3F205E019460A4602E001214FF4805294
:1012C800894BDB780D9329B1BDF93C3053431B138F
:1012D800ADF83C30854BD4F814911B780493844BBB
:1012E800844DB3F802C0B3F80080B3F904A0002419
:1012F80023462046049EB04249D299F9006095EDF4
:10130800016A76420AFB06F607EE906A0FFA8CF637
:1013180006EE906A0FFA88F6B8EEE77A07EE906A5A
:10132800F8EEE77AF8EEE66A67EE867A95ED026AF5
:10133800E6EE867A0DF13C0ED5ED036AE7EE267AE5
:10134800FDEEE77ACDED067ABDF8186011B136B238
:10135800564336132EF810600FAE0FFA83FB36F89B
:1013680010600FFA86FEDE4505DC0FFA84FBDE45C9
:10137800B8BF344600E03346052F05D104289CBF8A
:10138800DFF84CE12EF8106001301035B2E7534A0F
:101398005949126808921B1B12F480529BB206929C
:1013A80036D0564AB1F806901278554E554912F083
:1013B800040F534A02BFD2F8DC01008AA2F8D80110
:1013C800D2F8DC21B2F810E04F4A1268D0880FFA40
:1013D80089F5C0EB0E04A54203DC15880A68148859
:1013E80005E07044854205DB096854884D88A6F8F5
:1013F800D89113E0B6F9D801A042D5BF158809687D
:101408000A685488D5BF14884D88A946A14605E0C6
:101418003C4AB1F80690126814885588A8B2A1B25F
:10142800C1EB000A1FFA8AFA1BB20FFA8AF293423A
:1014380021DD3348120392FBF3F2C0F8E0210020CB
:10144800049EB0420AD20DF13C0E3EF9106056439C
:10145800C6F30F362EF810600130F1E7294A1268FA
:1014680012897AB90FFA8AF2022492FBF4F40C4436
:10147800A4B2254606E0022593FBF5F54C19451B59
:10148800A4B2ADB20FFA8AF207EE902A07EE103A2C
:10149800F8EEE77AB8EEC77AC7EE877A9FED1B7A3F
:1014A800F4EEC77AF1EE10FA32D4B7EE007AF4EE21
:1014B800477AF1EE10FAC8BFF0EE477A2AE000BF8B
:1014C800E800002094320020C42000204E140020A0
:1014D80050140020502B00202C14002080140020D1
:1014E800380400207814002090140020872B002056
:1014F800A02B0020100B0020A62B002087360020F0
:10150800F8090020882D0020842D0020CDCCCC3D6A
:10151800F0EE477A062F6F4B08BF9FED6F7AC3ED49
:10152800007A04BF67EE877A6C4A6D4E08BFFDEEFD
:10153800E77A4FF0000804BF17EE903A5380694BE2
:10154800B3F9D821D3F8DC310793674B0992D3F864
:1015580000B0664B1F68664B1B7803F00403DBB2D0
:101568000A93644BB3F906300B93634B1B680C93D7
:10157800049B98457CD20FAB33F818200FFA89F3F7
:1015880007EE903A5D4B03EB081393ED007AF8EE03
:10159800E77A23B267EE877AFDEEE77A17EE901ABC
:1015A800994203DB2BB28B42A8BF0B4613440D9A1A
:1015B8009BB226F8023F1BB20AB1BA8811E0069A1C
:1015C80072B1079ABBF80610128A521A0999914209
:1015D80003DC3A88BBF8001004E0BBF8022000E006
:1015E8003A887988934203DB8B42A8BF0B461A4698
:1015F800089B3280D8060DD50A9B5BB1069B4BB978
:101608000FF08CFB30B9079B0B9A5B8A9A42BCBFE0
:10161800BB8833803A8942B34FF47A730C99B3FB91
:10162800F1F3B2FBF3F3042B05D942F210729342A3
:10163800A8BF134600E005231BB20FFA8AF29342B3
:1016480013DA2F49B6F9000031F918E0C3EB0E029E
:1016580090424FEA480C04DB0EEB03028242A8BF1B
:10166800024692B221F80C20328008F101087FE787
:101678001F4B1A7802F0040202F0FF0342B1194826
:1016880090F8FC31013BDBB2182B00F241810AE0F3
:10169800049A9342F3D21B4A32F813101A4A22F8DA
:1016A80013100133F4E701229A40184B1340002B22
:1016B80000F02E81164B1B8813F4807F0D4B2BD026
:1016C800144A1188ADF854105188ADF85610928814
:1016D80036E000BF340400200000C8425014002047
:1016E800222C0020F8090020842D0020882D0020BD
:1016F8008736002044300020502B0020100B00209B
:10170800DC0B002064200020242C00209920980164
:10171800BC140020A62B0020B24A1188ADF8541042
:101728005188ADF8561006999288ADF8582049B1FD
:10173800D0F8DC11B3F90640098A8C4202DA524229
:10174800ADF85820A84DB5F902204FF47A7102F58A
:10175800E1624A434FF4616492FBF4F2A2F5FA7233
:10176800ADF86C20B5F9002002F5E16251439F4ABB
:1017780091FBF4F11288A2F2DC52A1F5FA71ADF8EE
:101788005A20D0F8DC21ADF86E10128A1988891A0F
:10179800ADF85C105988891AADF85E109988891AD5
:1017A800ADF86010D988891AADF862101989891ABC
:1017B800ADF864105989891AADF866109989DB89E2
:1017C800891A9A1AADF86810ADF86A200023884A79
:1017D800002122F813100133082BF8D1854A864BD3
:1017E80012680492854A1B788549D2F800B0854D65
:1017F800072202FB0318414571D00B7833B103F17E
:10180800150201239340049A134064D011F806ECA2
:1018180011F805AC11F8034C11F801CCCEEBCE074A
:101828000BEB47076420B7F90020B7F902309B1A81
:101838009BB211F9022C4FEA53095A434FEA4A0660
:1018480092FBF0F21CA8C9EB020292B2064414B94A
:1018580036F81C0C0CE0B5F9000036F91C6CB042E7
:1018680008DA0444844203DBA6423046A8BF204677
:10187800288008E007DD041BB44203DB8442A8BFCC
:10188800044626462E80D7F80A4011F9046C012038
:1018980000FA0AF02042288812B216FB00F014BFA2
:1018A8004FF0FF340124642690FBF6F090420ADBE7
:1018B8004FFA8CF25A4392FBF6F2C9EB020212B2CB
:1018C8008242A8BF02464A4B33F81E9002FB04949A
:1018D80023F81E4000E02B80023507318BE7474B89
:1018E800494E1F6800250E2202FB057236F8023F9A
:1018F80092F90640E8B214FB03F3642493FBF4F472
:10190800348012F05FF801352044082D3080EAD188
:101918003E4E374C3368394D13F0200F32D000203B
:1019280012F050F820800746012012F04BF8314B96
:1019380060801B68190625D5354B2B4AD3F8203211
:101948001B78012B22D12968138891F914E0B2F988
:1019580002201EFB03F34FF0320C93FBFCF31FFA3B
:1019680083FE91F906305B4253436FF0310193FBDC
:10197800F1F10EEB0102B91893FBFCF373442180DB
:1019880018446080D5F800E0002318E0D5F800E09E
:1019980053889EF9061011FB03F1322391FBF3F1F2
:1019A8003944218011889EF9142012FB01F292FB20
:1019B800F3F21044E5E70133082BE2532AD00E2155
:1019C80001FB03E134F91300B1F90020B1F9021069
:1019D80090424FEA4307EEDB0AB28242A8BF0246B2
:1019E800E9E700BFA02B0020702B0020242C00204A
:1019F800240D0020C01400208C2D0020C0200020C1
:101A0800932D0020F60B0020220D002080140020CA
:101A1800F8090020754FD7F8149199F90430ABB93B
:101A280097F8FC8108F1FF33182B00F29580DFE866
:101A380003F0579393719393936A93939393937B40
:101A48009393939393718793937B57000023A7F8FD
:101A58002432B7F82482DFF894B10FFA88FABAF181
:101A6800070FDDDC9BF826220BF50A738AB9B9F853
:101A78000220049300EE102A5D4A1C2000FB0A3065
:101A88001168B8EE400A0CF0F2F90122049B8BF8B9
:101A9800262234F91A2000EE102A1C2000FB0A30F6
:101AA800B8EEC00A0CF0C0F917F01EF82B6880B227
:101AB800CAEBCA0224F81A0003EB420200B2B2F9D8
:101AC8000030B2F90220984203DB13B28342A8BF68
:101AD800034608F1010824F81A30A7F82482B8E769
:101AE80099F8013013B10020618908E0414B1B7857
:101AF80003F0040303F0FF00002BF4D101460AF0C1
:101B080039F8012529E00020E1880AF033F801209E
:101B1800218905E0002021890AF02CF8618901203B
:101B28000AF028F8022518E00225A81E34F8151036
:101B3800C0B201350AF01EF8082DF6D106250CE0D2
:101B48000325E81E34F81510C0B201350AF012F862
:101B5800072DF6D1042500E0002533689A0602D443
:101B6800B8F1050F0AD1284621880AF003F8681C45
:101B7800C0B2618809F0FEFF0235EDB23368DB02BE
:101B88000AD497F808339BB11B4B93F8E60093F8F7
:101B9800E71011F051FE0BE0184E00242819C0B2CE
:101BA80036F8021F09F0E6FF0D2CEAD00134F5E7FC
:101BB800134B1B78072B05D10FF016F9059BC01A9C
:101BC800104BD88001233B710BE00AF0A1FC0028E0
:101BD8003FF4C0A94FF48053A4F84A300A23FFF712
:101BE800B8B91DB0BDEC048BBDE8F08FF809002032
:101BF800502B002087360020A83000204A300020D3
:101C08004E140020501400202DE9F04FAB4EAFB019
:101C180034780096002C00F0FA80A94B1868002848
:101C280002F050800FF088F8A64C20680FF060FA98
:101C3800002802F047802068A34C0FF056FA0928C4
:101C480001D03F284BD14FF0000927689F4E4D46E1
:101C58002FB19F4831683A4616F048FD10B9B14691
:101C680005B935469B4B10369E42F1D3D5B12E6847
:101C7800D9F80080236816F803E018F803007045C7
:101C880010D15A1C924948B92D2B07D88E4E4FF0C7
:101C9800200E01F803E03260885403E001F803E005
:101CA8002260E7E723680BB14D450FD08A4812F050
:101CB8001BF94D4507D855F8100B12F015F90920F6
:101CC80011F09AFFF5E70CF05FFF002723689F42A9
:101CD800AAD27F4BD85D11F08FFF0137F6E7236852
:101CE800002B41F07487042841F0C58778480BF031
:101CF80029F801F0E7BF019BDFF8F8A118680FF099
:101D0800F7F900286AD0DAF800000FF0EEF9DBF8EE
:101D1800003093F848100646002940F094802428A3
:101D280040F0F280012283F84820DBF8003093F875
:101D380048000628DFD193F84980B8F15A0F01F01E
:101D48005B8000F2E481B8F1360F00F0618700F2A1
:101D58006281B8F1260F00F09D8600F22181B8F16A
:101D6800040F00F05D8340F20581B8F1220F00F006
:101D78000085B8F1240F00F08786B8F1050F41F00F
:101D8800A5801A2005F070FC4FF00008534B13F89B
:101D9800080008F1010811F0CEFEB8F10B0FF5D1DB
:101DA8004FF000084E4B13F8080008F1010811F035
:101DB800C2FEB8F1080FF5D14FF00008494B13F8EF
:101DC800080008F1010811F0B6FEB8F1070FF5D1C7
:101DD80005F014FC2B68002283F84820424D38682F
:101DE8000EF0AAFF95F875306BB159F804000FF0A2
:101DF8006EF911F07DFD0CF083FB002385F875303A
:101E08003A4B3B4ADA604C34982C01F05B87DFF898
:101E1800F49054F8093004EB0902002BF3D035494B
:101E2800354D0B60079300232A608DF82130334A23
:101E3800334F069214238DF8203006AB3B60AB4637
:101E48000191904657E7012904D14D2814BF00227B
:101E5800022268E7022904D13C2814BF0022032289
:101E680061E703290CD140284FF0000102D983F81B
:101E780048105AE758711971D9719871042252E7BC
:101E8800042907D1997983F8490080EA01029A71F7
:101E9800052248E705297FF448AF5879197988421F
:101EA800987906D970409871481C18710B441E72B5
:101EB8003BE7B0420CBF0622002234E78A360020F6
:101EC8003C2E0020442E0020BC20002050B80108E1
:101ED8008C20002050BA010880D5010846D101089D
:101EE80052D101081FD10108040D002000ED00E0C7
:101EF8000400FA05E8140020E41400205711010832
:101F0800382E0020B8350020C3490B7803F00403AD
:101F180003F0FF0E002B7FF408AF232EDAF8000041
:101F28001BD1009A029101231370BC4B1860BC4B63
:101F38001860986010201873BA48C3F8048083F8B2
:101F48000DE004330360B84811F0CEFF0CF01CFE1E
:101F580002990B7843F002030B70B44B1B681B7893
:101F6800B34201BFB24BB34A1A60B34B04BFB34A82
:101F7800DA60DAE6B8F1020F00F0378200F2448244
:101F8800B8F1010F40F0A287032005F06DFB002097
:101F980011F0D1FD404611F0CEFD102000F07BBFBE
:101FA800B8F12E0F00F0518620D8B8F12A0F00F0B2
:101FB8008F85B8F12C0F00F09185B8F1280F40F00B
:101FC8008587DFF88082072005F04EFBB8F81602F7
:101FD80011F0C2FDB8F8180211F0BEFD98F81A0207
:101FE80011F0A9FDB8F81C0200F024BFB8F1320FB7
:101FF80000F0D685B8F1340F00F0DC83B8F1300F6B
:1020080040F06487DFF83C82E02005F02DFB08F102
:10201800800A00F033BEB8F1460F00F050862AD887
:10202800B8F13D0F00F00B8312D8B8F13A0F00F069
:10203800D482B8F13B0F00F09583B8F1380F40F027
:102048004587042005F010FBDFF8F88100F031BD6A
:10205800B8F1420F00F0B885B8F1450F00F0688676
:10206800B8F1400F40F03287082005F0FDFA4FF034
:10207800000800F09CBDB8F14D0F00F06B852CD81E
:10208800B8F1490F00F0E782B8F14B0F00F0468530
:10209800B8F1470F40F01A8711F044FD82468420BA
:1020A80005F0E2FA504611F060FD654BDA680AF176
:1020B800800393428CBFCAEB02084FF080080DF1F1
:1020C800380B0BF041FC50464246594606F058F989
:1020D8004FF00008824600F009BEB8F1500F00F03A
:1020E8000F86B8F1520F00F01E86B8F14F0F40F07E
:1020F800ED860B2005F0B8FA002011F01CFD002039
:1021080011F019FD002011F016FD00F020BEB8F105
:10211800700F00F0FF8200F2A380B8F1680F00F0A2
:10212800308253D8B8F1640F00F08B811FD8B8F112
:102138005E0F00F08386B8F1600F00F09D86B8F15D
:102148005C0F40F0C386052005F08EFA3D4BDFF8A2
:102158000C8193F8DF0111F0EEFCD8F80030188CF0
:1021680011F0FAFCD8F80030588C00F063BEB8F1D2
:10217800660F00F0768100F2A3810B2005F074FA57
:10218800314B188811F0E8FC0FF0CFFA11F0E4FC9D
:102198002E4B1B68C3F3C000C3F38002800040EAE3
:1021A8004200C3F340021043C3F3401240EAC200A6
:1021B80003F01003184311F0CFFC05F067F911F094
:1021C800D4FC204B93F8560400F065BEB8F16C0FB0
:1021D80000F0F48110D8B8F16A0F00F08C8300F297
:1021E800AC831B4E3078400000F0FE0005F03CFA4E
:1021F8004FF00008B246D4E1B8F16E0F00F0F2815A
:1022080000F25682062005F02FFA124B186811F0DA
:10221800ACFC114B23E200BF87360020442E00207F
:10222800040D00203C2E0020B0D5010828180020FD
:10223800FC9F0020EFBEADDE00ED00E00400FA05D3
:10224800C8000020A83000208436002098170020FD
:1022580054360020C0100020E80F0020C4200020C1
:10226800B8F17C0F00F07B8558D8B8F1750F00F0F5
:102278006D8241D8B8F1730F00F02D8300F2BD8252
:10228800B8F1720F40F02286DFF8D883162005F0E7
:10229800EBF9B8F84C0211F05FFCB8F8D00011F077
:1022A8005BFCB8F8D20011F057FCB8F8D40011F074
:1022B80053FCB8F8A40211F04FFC98F89D0211F0F5
:1022C8003AFC002011F037FC98F89E0211F033FC1C
:1022D80098F81B0211F02FFC98F8480211F02BFC1B
:1022E800002011F028FCB8F9EA310A2093FBF0F03D
:1022F80080B211F031FCDCE3B8F1770F00F0C48252
:10230800C0F02C83B8F1780F40F0E085D54E7020EE
:1023180005F0AAF94FF0000AB346E1E0B8F1A00FC2
:1023280000F0A48339D8B8F17E0F00F03C85C0F0E6
:102338002A85B8F1960F40F0C9850D2005F094F96B
:10234800C94B188811F008FC0FF0EFF911F004FCE4
:10235800C64B1B68C3F3C000C3F38002800040EA89
:102368004200C3F340021043C3F3401240EAC200E4
:1023780003F01003184311F0EFFB05F087F811F094
:10238800F4FBB84B93F8560411F0D5FBB84B1888FA
:102398006428A8BF642000F04DBDB8F1F00F00F02C
:1023A800598314D8B8F1A40F40F09085DFF8FCA247
:1023B8009AF8330080000130C0B205F055F99AF858
:1023C800330011F0B8FB4FF00008D34616E3B8F11C
:1023D800F10F00F0B080B8F1FE0F40F077850820CB
:1023E80005F042F94FF0000828E3042005F03CF915
:1023F800422011F0A0FB542011F09DFB462011F063
:102408009AFB4C2000F047BD032005F02DF902206F
:1024180011F091FB092011F08EFB012000F03BBD6B
:1024280005F022F9532011F086FB522011F083FBAE
:10243800462011F080FB332011F07DFB002000F0D6
:10244800F9BC072005F010F9E72011F074FB854B63
:10245800587911F070FB002011F06DFB042000F09A
:102468007ABC122005F000F9824B1B88B3F5806F07
:102478008CBF4FF0080A4FF0010A4FF000087E4B5E
:1024880053F8280090FBFAF008F1010880B211F027
:1024980063FBB8F1030FF2D1784E308811F05CFB82
:1024A800B08811F059FB3089754E11F055FB308812
:1024B80011F052FBB08811F04FFB308900F0BABC24
:1024C800102005F0D1F84FF000086E4B13F8080003
:1024D80008F1010811F02FFBB8F1100FF5D177E4DE
:1024E800B6F8580111F038FBB6F85A0111F034FB70
:1024F800B6F85C0111F030FB96F85E0111F01BFB99
:1025080096F85F0111F017FB96F8600111F013FBC4
:1025180096F8610111F00FFB0E2303FB0AB30AF1D1
:10252800010AD3F8620111F020FBBAF1080F06F195
:102538000E06D5D14CE470204A4E05F095F806F108
:10254800700A96F8E80011F0F6FA96F8E90011F02A
:10255800F2FA96F8EA0011F0EEFA96F8EB0011F0AC
:10256800EAFA96F8EC0011F0E6FA96F8ED0011F0A8
:10257800E2FA073696F8E70011F0DDFA5645E0D1A1
:1025880026E4102005F070F84FF000083E4B13F8D1
:10259800080008F1010811F0CEFAB8F1100FF5D1D2
:1025A80016E49AF800309845BFF412AC374B33F86C
:1025B800180011F0D1FA08F10108F2E7344E05F0DD
:1025C80053F8308811F0C8FA708811F0C5FAB6F9D6
:1025D80004300A2093FBF0F02CE0042005F044F8C6
:1025E8002C4B4FE2072005F03FF82B4B1888FF28AB
:1025F800A8BFFF20C0B211F09EFA284B18684FF60A
:10260800FF784045A8BF404620EAE07080B211F04C
:10261800A3FA234B188811F09FFA124B93F81B2248
:10262800204B186842B10A2358434045A8BF40468A
:1026380020EAE07080B2FDE300F30F00FAE7094EEC
:10264800022005F011F896F8930211F074FA96F842
:10265800920200F020BC022005F006F8124B188800
:10266800E8E300BFA8300020843600209817002037
:10267800422E002008000020DC0F0020782B0020CC
:10268800E4270020240D0020242C002044300020C2
:10269800702B00209427002078140020301400208C
:1026A800C4100020FC0F002010180020040D00208A
:1026B800C04E0C2004F0D8FF3368187811F03BFAAC
:1026C8003368987811F037FA4FF0000BB246DAF811
:1026D8000030B84E5B440BF1010B587911F02BFA1E
:1026E800BBF1030FF3D13368187A11F024FA336879
:1026F800D87811F020FA3368187911F01CFA336889
:10270800588911F029FA3368587A11F014FA3368A5
:102718005878C0E31E2004F0A7FF4FF00008A64E2B
:1027280033684344587811F006FA33684344D87A3A
:1027380011F001FA3368434408F10108587D11F09B
:10274800FAF9B8F10A0FEAD1FFF742BB2F2004F0DB
:102758008BFF9A4E16F8010F00283FF439AB11F0A1
:10276800EAF9F7E7012004F07FFF934B1B6818781C
:1027780091E35020924E04F077FF06F1500A96F844
:102788005724904B0C2101FB0233043693F8380090
:1027980011F0D1F996F8540411F0CDF996F85504D2
:1027A80011F0C9F996F8560411F0C5F95645E6D165
:1027B800FFF70EBB5A20824E04F056FF06F15A0A64
:1027C80096F8AC0411F0B7F996F8A70411F0B3F92C
:1027D80096F8A80411F0AFF996F8A90411F0ABF92E
:1027E80096F8AA0411F0A7F9063696F8A50411F090
:1027F800A2F95645E4D1FFF7EBBA4FF0000A0126DB
:102808004FF00008704B1B78984534DA6F4B18F876
:1028180003E04FF0000B6B4801900C2300F1300CE3
:1028280003FB0BF313F80CC0F44507D10344586BB2
:1028380015F053FF84463EB9334607E00BF1010B10
:10284800BBF11E0FE7D113E0824411E063450FDAB4
:10285800019ACDF80CC00C2000FB0B200293406BB2
:10286800C05C11F068F9029BDDF80CC00133EDE79C
:1028780008F10108C6E7002E3FF4AAAA5FFA8AF019
:1028880004F0F2FE0026BBE7DFF83CA19AF800004E
:1028980004F0EAFE4FF000089AF800309845BFF4BB
:1028A80097AA4A4B18F803E0002146480C2200F189
:1028B800300C02FB01F313F80C20724505D10344D8
:1028C80093F8380011F037F902E001311E29ECD1F4
:1028D80008F10108E0E7082004F0C6FE4FF00108FF
:1028E8005FFA88F008F1010811F025F9B8F1090F2D
:1028F800F6D1FFF76DBA102004F0B6FE344BDFF8BE
:10290800F880187800F0020011F015F9314B1878AA
:1029180011F011F9D8F8000011F027F9D8F80400DF
:1029280011F023F92C4B188811F016F92B4B188845
:1029380011F012F92A4B188E7CE2052004F094FE5F
:10294800284B188811F008F9274B188811F004F95A
:10295800234B93F8320000F001009CE211F0CEF80E
:102968008346122004F080FEBBF1000F01D11F4BFB
:1029780003E0BBF1100F05D11D4BD3F800A0D3F82D
:10298800048002E04FF00008C246584611F0D3F820
:10299800504611F0EAF8404611F0E7F8154B186870
:1029A80011F0E3F8002011F0D7F8002011F0D4F866
:1029B800BCE100BF200F0020C42000206FAD01083B
:1029C800A830002070AD0108C4140020C5140020F0
:1029D8000010002006100020041000200210002023
:1029E800040D0020781000207A100020C810002064
:1029F800380F0020C4270020081000209BF833302F
:102A08009845BFF4E5A9DFF8E0A31AF8080011F02B
:102A180092F80AF1100313F8080011F08CF80AF183
:102A280020030AF1300A13F8080011F084F81AF8A4
:102A3800080011F080F808F10108DFE7E24B33F8ED
:102A4800180008F1010811F087F8B8F1040FF5D162
:102A5800FFF7BEB9DFF88083042004F005FEB8F85C
:102A6800EE0111F079F8B8F8EC01E3E10C2004F07C
:102A7800FBFDD64B186811F078F8D54B186811F0A3
:102A880074F8D44B186866E1042004F0EDFDD24BCD
:102A9800986860E1DFF8408304F0E6FDB8F8CC01FF
:102AA80011F05AF8B8F8D00111F056F8B8F8D40176
:102AB800C0E198F80E0211F03EF898F8120211F0F1
:102AC8003AF898F8110211F036F898F81302E2E192
:102AD800012004F0C9FDC04B5879DCE1DFF8F88229
:102AE8000C2004F0C1FD98F8440211F024F8B8F85D
:102AF800500211F031F8B8F84C0211F02DF8B8F87E
:102B08004E0211F029F898F8460211F014F8B8F8B6
:102B1800580211F021F8B8F85A028BE1DFF8B882B0
:102B2800082004F0A1FD98F8A20211F004F898F822
:102B3800A30211F000F8B8F8A40211F00DF898F803
:102B4800A60210F0F8FFB8F8A80211F005F898F8F6
:102B5800AA02A0E1DFF89482DFF894A298F80000B6
:102B680000EB4000C0B204F07FFD4FF0000B98F876
:102B780000309B450AF1020ABFF42AA91AF8020C90
:102B880010F0D9FF1AF8010C00EB800000EB800070
:102B980000F2EE2080B210F0DFFF0BF1010BE6E748
:102BA800012004F061FD8C4B93F8480273E18A4BD5
:102BB800434408F1010893F83C0210F0BCFFB8F157
:102BC800080FF4D1FFF704B9DFF80C82102004F0E5
:102BD8004BFD98F8050010F0AEFFD8F8080010F08B
:102BE800C4FF98F8440210F0A6FFB8F8CC0110F022
:102BF800B3FFB8F8D00110F0AFFFB8F8D40110F067
:102C0800ABFFB8F8160210F0A7FFB8F8180211E1E8
:102C1800724BDFF8C48193F87400C0EBC000C0B2F7
:102C280004F022FD08F1280A98F8AE0200236C4A45
:102C3800D25C904200F033810C333C2BF7D108F181
:102C48000808D045F0D1FFF7C3B84020DFF88881E5
:102C580004F00AFD08F1400AB8F86C0310F07CFF94
:102C680098F86E0310F067FF08F1040898F86B03F2
:102C780010F061FFD045EFD1FFF7AAB8B8F8EE021F
:102C880000F03F0010F068FFB8F8EE02C0F38610BD
:102C980010F062FF98F8EC02000910F04CFF98F869
:102CA800EC0200F00F0010F046FF08F1040898F855
:102CB800E90210F040FFD045E0D1FFF789B80D20B8
:102CC80004F0D2FC05F028FBDFF8288140F0020070
:102CD800C0B210F030FFB8F8000010F046FFD8F886
:102CE8000C0010F042FF0AF077FD34E0D045BFF643
:102CF8006FA81BF8080010F01EFF08F10108F5E79F
:102D0800DFF8D480042004F0AFFC012010F013FF9A
:102D180098F8030510F00FFF98F8010510F00BFF65
:102D280098F80205B7E0012004F09EFC0020B2E00C
:102D3800132004F099FC4FF000082A4B13F8080000
:102D480008F1010810F0F7FEB8F10B0FF5D10020DB
:102D580010F00BFF002010F008FFFFF739B8DFF87C
:102D68007880082004F080FCB8F8DA0010F0F4FE4F
:102D7800B8F8DC0010F0F0FEB8F8DE0010F0ECFE59
:102D8800B8F8E00056E0DFF85080032004F06CFC4F
:102D980098F81E0210F0CFFE98F81F0210F0CBFE34
:102DA80098F8200277E0DFF83080032004F05CFC1C
:102DB80098F8C90110F0BFFE98F8CA0110F0BBFEE0
:102DC80098F8CB0167E000BF50140020ACF7FF1F54
:102DD800B0F7FF1FB4F7FF1FA8300020040D002034
:102DE8002C18002046D10108380D00205436002048
:102DF80004330020C8000020DFF8848304F034FC8A
:102E0800B8F8DC3123B1082010F095FE012005E068
:102E180098F8DE0110F08FFE98F8E40110F08BFEB0
:102E280098F8E70010F087FE98F8E60010F083FEA7
:102E3800B8F8E20010F090FEFEF7CABFDFF84C8346
:102E4800082004F011FCD8F80030D88C10F084FE6B
:102E5800D8F80030188D10F07FFED8F80030588D63
:102E680010F07AFED8F8003093F8240010F063FED2
:102E7800C34B93F815020EE0DFF80483032004F037
:102E8800F3FB98F8D90110F056FE98F8E80110F015
:102E980052FE98F8E70110F04EFEFEF799BF10F0C9
:102EA8004AFEB8F8B00210F057FE98F8B20210F0D7
:102EB80042FE98F8B30210F03EFE98F8B50210F002
:102EC8003AFE98F8B40210F036FEB8E6B8F15D0F95
:102ED80013D110F013FEDFF8B482A94BD8F800A084
:102EE80083F8DF0110F014FEAAF82000D8F800805B
:102EF80010F00EFEA8F822000DE011D9B8F1D20F9B
:102F080040F0A4829F4B1B7803F0040303F0FF08F2
:102F1800002B00F07F82002004F0A6FBFEF758BFCC
:102F2800B8F1390F12D110F0E9FDDFF8548288F8B2
:102F38000E0210F0E3FD88F8120210F0DFFD88F8A9
:102F4800110210F0DBFD88F81302E4E700F2638158
:102F5800B8F12D0F22D110F0D1FDDFF8248288F8C6
:102F6800440210F0D5FDA8F8500210F0D1FDA8F8E1
:102F78004C0210F0CDFDA8F84E0210F0BFFD2B68F2
:102F880088F846025B79082BC5D910F0C1FDA8F86E
:102F9800580210F0BDFDA8F85A02BCE77FD8B8F176
:102FA800270F0ED110F0B4FDDFF8D481C8F8CC019A
:102FB80010F0AEFDC8F8D00110F0AAFDC8F8D40191
:102FC800A9E74DD8B8F1230F3ED110F097FD13288B
:102FD800804602D907F0B0FF9DE710F08FFD002270
:102FE80069490C23534301EB030E9EF838E08645EC
:102FF80026D1DFF88CA10B4408F58A780AEB8808FB
:1030080093F8303088F8073010F078FD88F8080019
:1030180010F074FD88F8090010F070FD5B4B5C49F6
:103028001A6888F80A000AF1D0030B60594B00208F
:103038001A6012F06EF9584B80F0010018706AE7B8
:1030480001321E2ACCD1C5E7B8F1250F40F0BB8567
:103058004B4B00229A6010F065FD0BF049FA5AE7D5
:10306800B8F1290F12D110F053FDDFF81481A8F838
:10307800160210F04DFDA8F8180210F03FFD88F870
:103088001A0210F045FDA8F81C0244E7B8F12B0F0E
:1030980040F0998510F032FD394B58713BE7B8F193
:1030A800330F05D110F02AFD354B83F8480232E77B
:1030B8003BD8B8F12F0F00F07085B8F1310F40F010
:1030C800828510F01BFD1F28804683D82B685B790A
:1030D800082B7FF47FAF10F01BFD294B08F1BA08CD
:1030E80003EB880800F03F00A8F8060010F010FD78
:1030F800B8F80630800100F4FE501843A8F806001E
:1031080010F0FCFC000188F8040010F0F7FC98F8B7
:10311800043000F00F00184388F8040010F0EEFCAB
:1031280088F805000CF084FCF5E6B8F1350F35D1C8
:1031380010F0E4FC0E2882463FF64CAF10F0DEFC9F
:1031480003283FF647AF0E4B4FF0060808FB0A3836
:1031580088F8AC0410F0D2FC88F8A70410F0CEFC74
:1031680088F8A80410F0CAFC88F8A90410F0C6FC76
:1031780088F8AA0410F0C2FC88F8AB04CBE600BFBC
:10318800A83000208736002070AD0108C420002038
:10319800240F0020280F002002000020B8F1370F6C
:1031A80040F011855B794FF00708B3FBF8F8C8EBDE
:1031B800C8029B1A13F0FF0F7FF40CAF5FFA88F870
:1031C800B8F1000F3FF4A7AE10F098FC5FFA80FB4F
:1031D8004FFA8BF00DF090FC824600283FF4FAAECF
:1031E80080F800B010F094FCAAF8020010F086FCF9
:1031F8008AF8040010F082FC8AF8050010F07EFCC2
:103208008AF8070010F07AFC08F1FF385FFA88F8AE
:103218008AF80600D4E7B8F1480F02D10AF0E2FBB9
:1032280079E675D8B8F1410F0DD14FF0000810F0CC
:1032380065FCCE4B434408F10108B8F1080F83F848
:103248003C02F4D167E631D8B8F13C0F1FD1DFF862
:103258004083D8F800A09AF800B010F04FFC18B1DD
:103268000228A8BF022000E001208AF80000D8F850
:103278000030BF4A1B78022B14BFBE49BE491160FB
:103288009B453FF448AE002010F078FC43E6B8F1C7
:103298003E0F40F0988410F031FCDFF8D08288F8B7
:1032A800930210F02BFC88F8920234E6B8F1430F31
:1032B80025D110F023FCDFF8B4820023C8F80830C9
:1032C80088F8050010F02EFC0BF012F910F016FC2F
:1032D80088F8440210F01CFCC8F8CC0110F018FC67
:1032E800C8F8D00110F014FCC8F8D40110F010FC94
:1032F800A8F8160210F00CFCA8F818020BE6B8F1B2
:10330800440F40F060849D4B012283F8752002E64B
:10331800B8F14E0F26D110F0F1FB112882463FF686
:1033280059AEDFF8488210F0E9FB0AF5967A08EB07
:103338004A03187110F0ECFB40F2ED23984205DDCA
:1033480040F6CA039842A8BF184601E040F2EE20B2
:1033580008EB4A08A0F2EE20192390FBF3F088F856
:103368000500D8E524D8B8F14A0F02D110F0D0FBF7
:103378008AE7B8F14C0F40F0268410F0BFFBDFF865
:10338800EC8188F8A20210F0B9FB88F8A30210F0CB
:10339800BFFBA8F8A40210F0B1FB88F8A60210F051
:1033A800B7FBA8F8A80210F0A9FB88F8AA02B2E5B2
:1033B800B8F1510F13D1724B1B78012B3FF6ABAD0F
:1033C80010F09CFBDFF8A48188F8030510F096FB49
:1033D80088F8010510F092FB88F802059BE5B8F122
:1033E8005B0F40F0F08310F089FBDFF8808188F8EC
:1033F800DE0110F083FB88F8E40110F07FFB88F809
:10340800E70010F07BFB88F8E60010F081FBA8F8D5
:10341800E20080E510F072FB544B012883F8560453
:103428000FD983F856840CE040F27A81B8F1D00FB6
:1034380040F09481534B1B785A073FF56CAD08F068
:1034480087FD0BF091F808F0C7FB64E500F2CB812B
:10345800B8F1CC0F58D15B79092B7FF6BBADDFF8FB
:103468003481D8F800A010F049FB8AF80000D8F899
:1034780000A010F043FB8AF8020010F03FFBD8F8D8
:1034880000306428A8BF6420587110F037FBD8F8C2
:1034980000306428A8BF6420987110F02FFBD8F87A
:1034A8000030FF28A8BFFF20D87110F027FBD8F8FC
:1034B80000A0642828BF64208AF8080010F01EFBCA
:1034C8008AF80300D8F800A010F018FB8AF8040066
:1034D800D8F800A010F01CFB2B68AAF80A005B794A
:1034E8000A2B05D9D8F800A010F008FB8AF80900C3
:1034F8002B685B790B2B7FF60EADD8F8008010F0A7
:10350800FDFA88F8010006E500F2CC80B8F1C80F92
:1035180042D193F805804FEA5808B8F1120F3FF6E8
:1035280059AD4FF0000AC24507D210F0F1FA0EABC0
:1035380023F81A000AF1010AF5E742460023434539
:1035480007DA0EA931F813000F4921F813000133E7
:10355800F5E7122A05D00C4B002123F8121001328E
:10356800F7E70A4B01221A70D5E400BFA830002003
:10357800E80000203D300108A5330108040D0020B3
:103588004829002087360020B8120020552A00203C
:10359800C4200020200F002035D8B8F15F0F1FD1BC
:1035A800DFF8D883D8F800A010F0B2FAAAF82600FD
:1035B800D8F800A010F0ACFAAAF82800D8F800A0B3
:1035C80010F0A6FAAAF82A00D8F8008010F096FAA7
:1035D80088F8240010F092FADC4B83F815029AE47C
:1035E800B8F1610F40F0EF8210F088FADFF85C83E1
:1035F80088F8D90110F082FA88F8E80110F07EFA0C
:1036080088F8E70187E4B8F1C90F28D110F076FAF5
:10361800CF4B1A7810B142F0020201E022F0020208
:103628001A7010F06BFACB4BDFF85C83187010F04F
:1036380079FAC8F8000010F075FAC8F8040010F01C
:1036480067FAC54B188010F063FAC44BC44A188057
:1036580092F8323043F0020382F832305BE4B8F17A
:10366800CA0F40F0B0824FF00008DFF810A3DAF874
:1036780000B010F043FAC3448BF80100DAF800B048
:1036880010F03CFAC344DAF800A08BF80B0010F0F5
:1036980035FAC24408F10108B8F10A0F8AF8150092
:1036A800E3D138E4B8F1CF0F7FF4BEAE10F030FAB2
:1036B8006FF4AF6143189BB2DFF89082C62B98BFB6
:1036C800A8F84C0210F024FAA8F8D00010F020FA5C
:1036D800A8F8D20010F01CFAA8F8D40010F018FAD4
:1036E800A8F8A40210F00AFA88F89D0210F006FA69
:1036F80010F004FA88F89E0210F000FA88F81B020D
:1037080010F0FCF988F8480210F0F8F910F000FA07
:1037180000EB80004000A8F8EA0110F0EFF906E499
:10372800B8F1CD0F0AD18F4B1B785B073FF5F3AB90
:103738008D4B4FF4C8721A80FFF7EDBBB8F1CE0F6E
:1037480040F04182874B1B785E073FF5E4AB804A27
:10375800137843F004031370FFF7DDBBB8F1D10F02
:1037680040F0318210F0CAF9019010F0DBF983467D
:1037780010F0D8F9824610F0D5F9804610F0C8F953
:1037880010F0C6F910F0BAF9019BABB9774B1020CD
:10379800C3F800B0C3F804A00AF082FE6C4A13789C
:1037A80043F001031370B8F1000F3FF4B4AB704B52
:1037B800C3F80080FFF7AFBB102B7FF4ACAB6D4BA9
:1037C800C3F800B0C3F804A0B8F1000F02D0684BEA
:1037D800C3F800806748684B0222011D1A7009F07F
:1037E800F1FEFFF798BBB8F1DB0F46D1634B1B68BE
:1037F80002221A702D225A705A731422DA75002286
:103808009A731A76DA735A76222232219A710E2224
:10381800997019711A7419723522997437219A7628
:103828009972192219754B21DA71997721224FF46F
:10383800FA7112205A7459855322B4214FF0280E78
:1038480058759875DA7650206422D9844FF00F0C99
:1038580023211A7783F80BE083F80CE0D87083F8FB
:1038680005C083F809E0588419851A84012283F871
:10387800242083F82D20FFF74EBB00F29B80B8F17F
:10388800D60F0DD14FF0000810F042F93C4B23F849
:10389800180008F10108B8F1080FF5D1FFF73BBB94
:1038A8003DD8B8F1D30F05D110F032F9354B188057
:1038B800FFF731BBB8F1D40F40F085815B790F2B4E
:1038C8007FF488AB10F01AF9072882463FF682ABDE
:1038D80010F01EF91D4B4FF00E0808FB0A38A8F827
:1038E800580110F015F9A8F85A0110F011F9A8F8C4
:1038F8005C0110F003F988F85E0110F0FFF888F811
:103908005F0110F0FBF888F8600110F0F7F888F80C
:10391800610110F007F9C8F86201FFF7FCBAB8F1C5
:10392800D90F33D110F0F4F8DFF82080A8F8DA00C6
:1039380010F0EEF8A8F8DC0010F0EAF8A8F8DE00BD
:1039480010F0E6F8A8F8E000FFF7E5BAA830002084
:103958000010002006100020041000200210002093
:10396800040D002087360020E40E0020C810002037
:10397800C4270020380F0020300F0020C42000206A
:10398800642000202C0F002008100020B8F1DA0F66
:1039980040F0198110F0B2F8DFF8308388F81E0281
:1039A80010F0ACF888F81F0210F0A8F888F8200288
:1039B800FFF7B1BAB8F1F20F29D110F09FF80F282C
:1039C80080463FF607AB10F099F8C04BC8EBC80823
:1039D800984488F8E80010F091F888F8E90010F0A9
:1039E8008DF888F8EA0010F089F888F8EB0010F0F4
:1039F80085F888F8EC0010F081F888F8ED0010F0F0
:103A08007DF888F8EE000FF0B5FFFFF784BA22D8EA
:103A1800B8F1DC0F0FD110F071F8DFF8B08288F838
:103A2800C90110F06BF888F8CA0110F067F888F837
:103A3800CB01FFF770BAB8F1EF0F40F0C48010F077
:103A480067F8DFF88882A8F8EE0110F061F8A8F8A6
:103A5800EC01FFF760BAB8F1F50F40F0958001204E
:103A680003F002FE4FF00008994BDFF898A299483E
:103A780083F80080C02241468AF8008014F0EAFDED
:103A88008DF817805246944B9DF8171093F87A00DA
:103A9800884266D99DF8171003EBC10191F87D1093
:103AA800C90757D59DF8171003EBC10191F87C00A1
:103AB8008A4931F9101000294CDD9DF817009DF84E
:103AC80017E01178DFF80CB203EBC00003EBCE036C
:103AD800D0F88000D3F8803040681B8909010BEBCF
:103AE800010C4BF80100ACF80630D8469BB24FF0F9
:103AF800000C4FF0010E0EFA0CFE1EEA030E05D163
:103B08000CF1010CBCF1100FF3D100E0E64608EB14
:103B1800010C0831ACF8083002238CF80B30042370
:103B28008CF80A30DCF80830CCF80C30012341441A
:103B38008CF80E30ACF804E001920DF03BFB019AD2
:103B48001378190188445BF80110B8F806008861F9
:103B5800013313709DF817300133DBB28DF817303D
:103B680091E79AF800000FF0E6FF03F047FD386888
:103B78000DF0E2F82B6818680DF0A9FA2868396882
:103B88000EF0C0FAFFF7C7B9B8F1FA0F1BD1544BC2
:103B98001B7858077FF555AC15E0DFF8308108F140
:103BA800400A0FF0B5FFA8F86C030FF0A7FF88F8DC
:103BB8006E030FF0A3FF08F1040888F86B03D045E3
:103BC800EFD1FFF7A8B907F0B7F9FEF701B90C284C
:103BD80003D1444810F088F949E00A2801D00D289B
:103BE80064D1414D414810F07FF92846232114F053
:103BF80066FD08B1401B206023687BB35A1EA95C90
:103C0800202901D11346F8E7374A23600021D1540F
:103C1800374B384FD3F80090D7F800A0324E5046B3
:103C280014F05BFD05462A463046514614F05EFD09
:103C3800314A20B9735D4B445B78580703D010377D
:103C48009742E9D306E0974204D2681CFB683044E7
:103C5800984702E0294810F047F9002322482360DA
:103C68000021302214F0F6FC009B1B7853B30AF0B5
:103C78008BFFFDF7D9BF0C28ABD07F2804D1FDF707
:103C8800D3BF2F2B3DF6D0AFA0F12002D2B25E2ACF
:103C98003DF6CAAF13B920283DF4C6AF5A1C2260BE
:103CA800114AD0540FF0A8FFFDF7BEBF7F28E8D116
:103CB800013B0D4A124823600021D15410F014F939
:103CC800FDF7B2BF2FB0BDE8F08F00BFA8300020CD
:103CD800D800002088250020040D0020242C002076
:103CE8008736002085D501088C20002014EA0108B9
:103CF8003C04002050B8010850BA010890D50108CA
:103D0800ACD501088F2A00202DE9F04FA24FA34C13
:103D18003A6802F59C432DED028B20332360A04BBB
:103D28001E7889B0D6B19F4909688A4240F2088155
:103D3800013E1E7004E1DFF88C829B48D8F8003001
:103D4800072D98BF595D994B88BF29461B6898472E
:103D5800032D09D904EB45050136A88003F002FBC1
:103D6800F5B28542E7D320E0D8F8002005F110032A
:103D780002EB83039988DA880028EBD04FF47A7332
:103D8800401A5843531A90FBF3F040F6C90300F564
:103D98007A70984205DC40F2EE239842B8BF184684
:103DA80001E040F6CA0080B2D4E7814B814E1B681F
:103DB800D6F8008042F2010A03EA0A0ABAFA8AFA35
:103DC8004FEA5A1A7C4BBAF1000F05D194F8282013
:103DD8001A707A4A517811701B782BB1774B93F887
:103DE800009089F0010900E099460F23DFF8ECB153
:103DF80084F82930002503F0B5FA854267DA6B00AC
:103E0800B9F1000F03D06E4A32F8150000E04846B9
:103E18006C4ADFF8CCC111688A8B82424FEA850E62
:103E2800694A02D8C98B81421CD25CF80E005B49F2
:103E3800804501D2D05A19E0E8B203920293019169
:103E480003F0A8FA032D029B039A0FDC01994FF0A7
:103E5800010E91F829C00EFA05FE2CEA0E0E81F823
:103E680029E003E008F596714CF80E10BAF1000F3E
:103E780028D194F8BC100322B1FBF2F202EB420203
:103E88008A1A03EB050E5EFA82F204EB42025085B1
:103E980094F8BD202AB9022913D9404A012182F891
:103EA800BD10BBF800203BF8020C1044BBF8022000
:103EB8001044464A80B2D05200B2032290FBF2F07E
:103EC80080B2414AD05201350BF1060B93E794F8C2
:103ED80029203F4BA2F10F004242424184F8D620EC
:103EE8006AB13C4A1268510109D43268D9689A60AB
:103EF800521AC82A1FD9012283F821201BE02F4A11
:103F080001215170117032689968DA605B68521A41
:103F18009A4282BF2E4B002283F82120002503F00D
:103F280021FA854207DAE8B203F034FA264B23F87F
:103F380015000135F3E794F8BC30013384F8BC3040
:103F48001B4E3368DA0405D5224B1B68DB0701D406
:103F580010F0E0FB1B4B39681868037B002B41D03D
:103F6800013B194D827B35F813301AB1C3F53B6319
:103F780008339BB21BB2A3F57A73B3F57A7FA8BF57
:103F88004FF47A7323EAE37307EE903A9FED127ABF
:103F9800F8EEE77A5EE000BF60360020E00D002012
:103FA800881400208414002054360020E4000020E7
:103FB800801400208C1400207011002000000020C4
:103FC800E40D00207C140020443000209E0E0020C8
:103FD80090140020C014002000007A440C0E002029
:103FE800540E00203268150440D5D4F8D820AF4FBD
:103FF8008A1A002A3ADB01F59C422032C7F8D820F9
:10400800AB4A407B5579AB4A32F8152097F8DC501B
:10401800013592B292FBF0F205F00F0087F8DC0050
:10402800384480F8DD201A46A348185C013302445E
:10403800102B92B2F8D112B292FBF3F31BB2642B9D
:10404800A8BF642323EAE37307EE903A9FED9B7AB7
:10405800F8EEE77AC7EE877A994A9FED9A7A67EE83
:10406800877AFCEEE77A17EE903A13803368964F1A
:1040780013F4807F00F00081944BDFF8549299424A
:1040880005D999F8022012B9012289F8022099F875
:104098000220002A00F0F0808D4A92F821503A78E8
:1040A800691E4D424D418B490868C0F38063C2F3D5
:1040B800800B01938A463DB912F0080F0CBF4FF0F0
:1040C80000084FF0020801E04FF0000899F820209E
:1040D800052A00F2CB80DFE802F0034C608695B237
:1040E800BBF1000F38D0D4F8F000B4F8F4100CF09D
:1040F800D5FD012809D17849784A09681268C98824
:10410800642000FB0122C9F81020019B5BB1724AB0
:10411800126812793AB10FF0CFFC032289F82020F7
:104128004FF47A7236E0002D40F0A0806B4AD9F83F
:1041380010101068664A88420AD902920FF0BCFC37
:10414800029A032182F8201040F6B831D161BDE708
:10415800012182F82010B9E7019B4FF4806013B168
:104168000AF0AEF901E00AF09BF90022C9F8102024
:104178007CE0002D58D1584A1268127A012A02D0E0
:104188000FF09AFCA2E70FF097FC032289F8202091
:1041980040F6B832C9F81C2098E725B1052289F8FD
:1041A8002020012000E02846BBF1000F0CD0D4F8F5
:1041B800F020118A4A4A1180518091804649096845
:1041C8004988D1804FF00308444A1168D9F814206F
:1041D800914202D8BBF1000F45D147F23052C9F8DD
:1041E8001C20032221E03A7842F002023A7010F0D3
:1041F80091FA3A4AD9F81C1012680A44C9F81820EA
:10420800042212E0354A9DB11168D9F8182091426C
:104218002CD9344A92781AB9DAF80020D20725D472
:104228003A7822F002023A70052289F820204DE7F8
:104238001268D9F81C100A44C9F8182016E0264953
:10424800264A09681268C988642000FB0122C9F857
:1042580010204FF48060002289F8202089F803207C
:104268000AF01EF932E700287FF430AFB8F1000FEA
:1042780002D040460CF022FE1B4D05F50F70B5F834
:10428800E0100CF00BFD82460CF048FD80B33B7843
:104298005B072DD5154BB3F90620B5F856329A426F
:1042A80037DB012384F8F6303AE000BFE00D002048
:1042B8003414002044140020BD0E00200000C84221
:1042C800C410002000C07F4487360020404B4C00BB
:1042D80090140020C0140020342E00208C140020DC
:1042E8004430002000000020A8300020A62B002029
:1042F800002384F8F630BAF1000F11D1A349A44B7A
:104308000020002208601A6048605A6088609A603D
:1043180006E0BAF1000F06D194F8F630002BEDD084
:104328003B78580735D53368D90632D5994B1B7871
:10433800DA062ED4984B9B7893B195F89332BAF15C
:10434800000F15D17BB1954B1A68D4F8F8309B1A39
:10435800002B08DA10F0DEF9914B83F8FCA018E086
:10436800BAF1000F0DD110200CF0A8FD01230EE0CA
:104378003BB18A4A12684FF47A7101FB0323C4F8EF
:10438800F83094F8FC3023B10CF082FD002384F857
:10439800FC30002295F89212B5F84EC2B5F850825A
:1043A8001346DFF818E2CDF80CE03EF912009B083E
:1043B8006045C4BF63F07F03DBB201324045B8BF3C
:1043C80043F04003042AECD194F8FD2074489A4243
:1043D80005D190F8FE20F92A04D8013200E0002225
:1043E80080F8FE2084F8FD306B4B6D4A9878DFF832
:1043F800D081994630BBD8F80030DB070AD582F85F
:10440800FF00BAF1000F1DD13B78DB071AD50FF07A
:10441800ABFF17E03B78580714D5624B1B788BB17C
:10442800614BDB7873B992F8FF300133DBB2032BB1
:1044380082F8FF3006D911B110F06CF902E0BAF138
:10444800000FF9D094F8FE30DFF854A1142B70D186
:1044580099F802308BB19AF8FD305F2B0DD13B787B
:1044680003F0040303F0FF0B13B110F053F904E059
:104478000B200CF023FD8AF8FEB03B7803F0040310
:1044880003F0FF01002B54D194F8FD30444A572B18
:1044980019D1464B1A684FF47A73B3FBF2F3C3EBA6
:1044A800431203EB8203424ADB00138033681A0687
:1044B80001D509F033F93F4B1B685B0739D53E4BF3
:1044C8000A221A8035E03068400717D55A2B15D1D3
:1044D80092F800312BB1012382F8001182F80131E2
:1044E80027E092F8023183F0010382F802310BB120
:1044F8000C2000E00D200CF0E1FC1AE05D2B00F030
:1045080019865B2B00F018865E2B02D1032000F081
:1045180014BE562B01D10AF0D3F899F80230002BBB
:1045280000F0118694F8FD306F2B40F00C860FF0E8
:104538001BFF33685B0754D594F80231184A9BB1C6
:104548003B78580710D5039BB3F90610B5F84E32DF
:10455800994209DDD8F8003013F0010302BF322177
:10456800A2F8061182F80231D8F80030D90329D50B
:1045780094F808210A4B2AB993F8002112B932227B
:10458800A3F80621012384F808312AE0882B0020AB
:104598000C2C002000100020000000208C140020AB
:1045A800E00D002070110020901400201018002049
:1045B8007C360020981700207E36002044300020EA
:1045C800C014002094F80031C74A53B13B7803F077
:1045D800040303F0FF0123B9012382F8001182F8D4
:1045E8000131DFF820930023C8F8003009F1500AA0
:1045F80019F8010C49460CF02BFB48B119F8022CAC
:10460800012303FA02F2D8F800301343C8F8003047
:1046180009F10409D145EBD1B44B1B784BB1B44B2C
:10462800DFF8E4821A6812F0020F994640F0DE8142
:10463800D6E1DFF8D88208F15A0918F8010C41468A
:104648000CF006FB10B398F8023098F804E0A94A79
:1046580098F803A0A4480C21013B01FB0E4103EB91
:1046680043031344D1F810219A420FD0C1F81031F6
:10467800002390F83C21C1F81431012303FA0EF30A
:1046880022EA030381F80CA180F83C3108F10608FE
:10469800C845D2D1984BD4F840811B680293974BF8
:1046A800DFF86CB21B78049300230193DBF8003029
:1046B800002B00F08C8193F80090B9F1000F00F006
:1046C8008681DBF8042002998A1A002A0CDB01F59E
:1046D800FA720199CBF8042001228A4094F83C111F
:1046E80021EA020284F83C21049A002A00F06F8132
:1046F8001BF8042C59780432D2B2002940F03081DA
:104708007F4931F91210B5F84C2202F1C8008142F4
:1047180002DD93F802A015E0C83A914203DA9978CD
:10472800C1F1000A0EE0019A0123934094F83C215C
:1047380022EA030384F83C31029B03F5FA73CBF8B1
:10474800043044E194F83C21019B1A41D20700F15E
:104758003E81BAF1000FCCBF022001200CF0E6FB2D
:1047680009F1FF32132A00F22A81DFE812F014005F
:1047780020002C0040005D0066008300A000D300EC
:10478800DF00ED0028014000510066008300A00012
:1047980077009400B00098F800105144FA29A8BF97
:1047A800FA2121EAE17188F800100120C9E098F89F
:1047B800021051446429A8BF642121EAE17188F8F4
:1047C80002100220BDE098F80490D4F84411D144B6
:1047D800B9F1640FA8BF4FF0640929EAE9794046A6
:1047E80088F804900CF0C6F903204946A9E098F827
:1047F800061051446429A8BF642121EAE17188F8B0
:1048080006100D200CF06AFAB9F10D0F00F0D780F0
:1048180098F8051051446429A8BF642121EAE17180
:1048280088F805100E208CE098F80710514481F3A1
:10483800080188F80710052083E0D4F8482191780A
:104848005144C829A8BFC82121EAE17191700F20FD
:104858000CF044FAB9F10F0F00F0B180D4F84821F8
:1048680051785144C829A8BFC82121EAE171517083
:10487800122066E0D4F84821117B5144C829A8BF0A
:10488800C82121EAE171117310200CF027FAB9F15F
:10489800100F00F09480D4F84821D17A5144C829E7
:1048A800A8BFC82121EAE171D172132049E0D4F8E8
:1048B8004821917D5144C829A8BFC82121EAE17146
:1048C800917511200CF00AFAB9F1110F77D0D4F8CC
:1048D8004821517D5144C829A8BFC82121EAE17166
:1048E800517514202DE000BFE00D00208A3600200D
:1048F800C014002008AF01088C140020701100209B
:104908004430002001350020981700205035002041
:10491800F00E0020D4F84821D1785144C829A8BF06
:10492800C82121EAE171D17009200AE0D4F84821B0
:10493800517B5144C829A8BFC82121EAE1715173AC
:104948000A200CF0CBF93AE0D4F84821D17D514443
:10495800C829A8BFC82121EAE171D1750B20F0E769
:1049680001292CD19878039B33F91230B3F5617F74
:1049780005DB40F633029342A8BF134601E04FF42B
:104988006173B9F10C0F1AD14FF4966292FBF0F0F3
:10499800AF4A1278A3F5617393FBF0F3DBB29A4246
:1049A8000DD01846059309F0C1FD059B48461946E8
:1049B8000CF094F9059B581CC0B20CF0B7FA019A98
:1049C8000123934094F83C21134384F83C31019B24
:1049D8000133042B01930BF10C0B7FF467AE1EE639
:1049E8003368DB050FD59B4BDB7863B1D8F8003013
:1049F800980708D5984B1B8813F0010A08D10120A5
:104A080009F05EFD04E0012009F04AFD012300E001
:104A18000023D9F8002051070BD553B1012009F024
:104A28003FFD8D4B1B889A0706D4022009F048FDEC
:104A380002E0022009F034FDD8F8003013F00A0F24
:104A480032D0D9F80030DB060FD5834B1B885807C6
:104A58000ED4042009F034FD804B0A22B3F9043047
:104A680093FBF2F3A4F84C3102E0042009F018FD9E
:104A7800D9F80030990607D5774B1B885A0606D413
:104A8800402009F01DFD02E0402009F009FDD9F899
:104A980000305B0641BF714BB3F904300A2293FB27
:104AA800F2F348BFA4F84E31D8F80030980609D47C
:104AB800D9F80030190540F1A6804FF4807009F04C
:104AC800FFFCA4E0664BDFF890B11B7813F0020FEF
:104AD8005BD0644B1B78042B57D9D9F8003013F4FA
:104AE800007A0FD0BBF80030DA0641D4102009F064
:104AF800E7FC202009F0D4FC5B48011D08F062FDAA
:104B0800022330E0BBF8008008F010081FFA88F391
:104B18003BB1102009F0C4FC4FF0010884F850A103
:104B280000E09846D9F800305B0514D5D4F8543124
:104B38004E495A89B1F90030DFF834A1002BB8BFCB
:104B48005B42934207DAB1F90230002BB8BF5B42EF
:104B58009342C0F24983BBF8003098060AD520205A
:104B680009F09EFC002384F850314FF0010801E061
:104B78004FF0000894F86031BBB90E200CF09EF994
:104B88003B4B012283F860210FE0BBF8003003F0B3
:104B98003003002B8CD0102009F082FC202009F073
:104BA8007FFC002384F8503103E0B8F1000F3FF494
:104BB8007FAF304B002003F1280C03F1500E2E4A32
:104BC800002122F810102D4A596022F810100432E2
:104BD800CCF8041022F8101000221A609A60CCF861
:104BE8000020CCF80820CEF80020CEF80410CEF82B
:104BF800082014330CF1140C0EF1140E00287FF465
:104C080057AF0120DBE74FF4807009F049FC6B795E
:104C1800082B01D00E2B02D1402009F041FC33684B
:104C2800590533D595F8D8321BB93B7813F0040FE2
:104C380003E0D9F8003013F4002F23D0104B0022E2
:104C48001A703C2006F043F900B302F0B7FCF8E70D
:104C5800402E002090140020BC140020702B00204F
:104C68000010002006100020C8100020A62B0020ED
:104C7800E00D0020440F002080360020BC0F0020EB
:104C88002418002010F06AF810F05AFB012384F869
:104C9800E431D4F84001CF4B4189B3F906208A4268
:104CA8000EDBB2F5FA6F077ABDBF531A7B43A1F545
:104CB800FA67C7F16407BCBF93FBF7F7643700E0F6
:104CC800642795F9D831B5F84CE295F81E9295F815
:104CD8001FA25B429BB201930021BF4BDFEDBF7A5D
:104CE800CF54BC4B9FEDBE6A33F911C0CEEB0C0319
:104CF80040F2E63503F2F31BAB454FEA4108B94DE4
:104D0800FBEE096A2FD8002BB8BF5B4202292ED0D0
:104D18004B4502DDC9EB030300E0002307EE103A20
:104D2800B8EEC77A8378C7EE277AF44507EE103ACB
:104D3800E7EEA76A0378B8EE477AF0EE465AE7EE50
:104D4800265A65EEA76A07EE903AF8EE677A26EEDD
:104D5800A77AC7EE067AFDEEE77A17EE903A25F8BD
:104D6800083030DB36E002294FF4FA73D2D15345CC
:104D7800CCBFCAEB0303002307EE103AB8EEC77A9C
:104D8800437ABDF804B0C7EE277AF44507EE103A27
:104D9800E7EEA76A4378B8EE477AF0EE465AE7EEB0
:104DA800265A25EEA77A07EE903AF8EE677A67EE6C
:104DB800277AC7EE867AFDEEE77A17EE903A13FB6C
:104DC8000BF3AB800ADADFF81CC238F80C305B4210
:104DD80028F80C30013103297FF47FAF3068824E08
:104DE80010F480500DD0B2F57A7F05DBB2F5FA6F7A
:104DF800A8BF4FF4FA6201E04FF47A72A2F57A7212
:104E080012E0B6F84E128A4205DBB2F5FA6FA8BF77
:104E18004FF4FA6200E00A46521A4FF47A73534389
:104E2800C1F5FA62B3FBF2F2DFF8EC816FF0630CC4
:104E3800642392FBF3F738F817100CFB07220137AD
:104E48000FFA81FC38F91770CCEB07077A43654FE6
:104E580092FBF3F30B449BB2FB80B0B1634A126838
:104E6800D20012D5624AD2787AB9CEF5FA61A3F5A2
:104E78007A731BB209B21A034FF47A7392FBF3F3F5
:104E88004B430EEB233EA7F806E05A4FB7F80080D5
:104E980008F040081FFA88F8B8F1000F39D0564BCF
:104EA800DFED567AB3F904300A2293FBF2F3B4F833
:104EB8004E219B1A1BB208EE103AB8EEC88A28EEAB
:104EC800278AB0EE480A09F0E3FAF0EE408AB0EE1D
:104ED800480A09F07CFAB5F9023006EE903AB5F9BD
:104EE8000030F8EEE66A07EE903A20EE667AF8EEC1
:104EF800E77AA7EEA87A67EE807ABDEEC77AE6EE83
:104F0800A87A17EE103AFDEEE77A2B8017EE903A62
:104F18006B8096F85332002B51D0B8F1000F4ED168
:104F2800374C384E94F8E5219A4215D007EE903A5E
:104F38009FED328A84F8E531F8EEE77A27EE888A21
:104F4800B0EE480A09F0A4FA86ED010AB0EE480A64
:104F580009F03DFA84ED7A0AB5F90030D4ED7A5AB1
:104F680096ED016A284A07EE903AB5F9043006EE44
:104F7800903AF8EEE66AF8EEE77A25EEE67AA7EEDA
:104F8800867A67EEA57ABDEEC77AE6EE867A17EEE0
:104F9800103AB3F5FA7FA8BF4FF4FA739342FDEEC7
:104FA800E77AB8BF13462B8017EE903AB3F5FA7F2D
:104FB800A8BF4FF4FA739342B8BF1346AB80134BA4
:104FC800134D1A7812F0040F28D0124B1A689B88D8
:104FD800138565E044300020842B00200000C8427F
:104FE80000401C45A62B0020A8300020C01400203B
:104FF80090140020BC140020702B002035FA8E3C41
:10500800E00D0020000000200CFEFFFF8736002086
:10501800981700206830002030290020824909684C
:10502800C80703D5814991F8EC1111B142F001028A
:105038001A707F4A1278110758BF1A787D495CBFE9
:1050480022F001021A702A6812F0040F02D07A487E
:10505800008878B97548B0F8040108B1920709D4F6
:10506800764A1288003218BF01221AB9744800889B
:10507800642806D902220A701A7822F001021A70EE
:1050880005E01B78DE0756BF02230A700B700BF091
:10509800ABFE6C4B1B68C01A002801DB02F0CEF98E
:1050A8002B685C071CD5604B1B68180703D40820C5
:1050B80009F0F6F914E03C8804F00804A4B27CB9BD
:1050C800082009F0FDF9604B1A68604B1A60604BC4
:1050D800DA88564BA3F8EE215E4B1C605E4B1C60D1
:1050E8002B68D90640F19A804F4B1B689A0208D466
:1050F8004FF4007009B0BDEC028BBDE8F04F09F029
:10510800CFB93C8804F40074A4B2002C40F0868027
:105118004FF4007009F0D4F94B4B1A684B4B1A60E6
:105128004B4BDA88414BA3F8EE214A4B1C604A4BA3
:105138001C6073E0012000E002200138C0B209F0D1
:10514800ADFAFFF7F6B994F8FD30972B06D1374B37
:105158004FF4C872A3F80421FFF7EBB9A72B06D1C7
:10516800334A137843F004031370FFF7E2B90022BF
:10517800BB2B079201D1022303E0B72B04D14FF6D2
:10518800FE73ADF81E3009E0BE2B01D1022303E007
:10519800BD2B18D14FF6FE73ADF81C30BDF81C209E
:1051A800B5F8EC311344A5F8EC31BDF81E20B5F87C
:1051B800EE311344A5F8EE3109F082FA002384F8A1
:1051C800FE30FFF7B6B9792B04D1244AD37823F0FF
:1051D800010306E07A2B7FF4ACA9204AD37843F088
:1051E8000103D370FFF7A5B9BBF800309B063FF564
:1051F800C1AC202009F064F9194B0AF5AC701A68A3
:105208005B68CAF858210AF5AE714FF00108CAF870
:105218005C3108F0D7F98AF85081ABE409B0BDECED
:10522800028BBDE8F08F00BFC0140020E00D002005
:1052380000100020B41400207E3600207C360020A8
:10524800422E0020B8140020C0100020C4270020DF
:1052580044300020CC270020D027002080200020C8
:10526800081000202DE9F04F85B00FF077FDBF4BF7
:105278001E78002E40F0AF87BD4D2B685C0540F1CD
:10528800AA87BC4BBC4CB3F8E0802378BB4F002BFB
:1052980000F003823A686368D31A7C2B40F2FD81E0
:1052A800237A62600133237206F12400DFF8C89282
:1052B800C0B20FF007FD09F10C0353F8263007EED2
:1052C800903AAF4B1B88B8EEE77A07EE903AF8EEC3
:1052D800E77A0136C7EE277A9FEDAA7A67EE877AD2
:1052E800FDEEE77ACDED007ABDF900000FF0D8FCAD
:1052F800032ED9D130200FF0E5FCB9F918000FF0D2
:10530800CFFC0FF0D7FC99F80830980732D1D9F8BC
:10531800042041F288339A4219D910200FF0D2FCA8
:105328006426D9F81C0090FBF6F000B20FF0B8FC28
:1053380021200FF0C7FCD9F81C0090FBF6F306FB00
:1053480013000028B8BF404200B20FF0A9FC142097
:105358000FF0B8FC8C4BB3F904000A2390FBF3F070
:105368000FF09EFC1C200FF0ADFC00200FF098FC05
:105378000FF0A0FC237A590740F06B8102200FF050
:10538800A1FC7D4B186A6423323090FBF3F000B225
:105398000FF086FC7D4B0320B3F906600FF092FCFA
:1053A8007B4B1B785A074FF0050996FBF9F6B6B206
:1053B8000BD5784841460BF071FC20B92B6813F0E7
:1053C800100F18BF002630B205E0734B1B68D88950
:1053D800B0FBF9F000B20FF063FC2B689B076FD5A8
:1053E800DFF8C891A68CDFF8C88199F80010B8F8E2
:1053F800002036016423B6B203FB02124B00B2FB55
:10540800F3F346EA0326B6B2C3F303231E4306208A
:105418000FF058FC30B20FF043FCA38C99F8002031
:1054280001339BB293FBF2F102FB1133A16AA3840F
:105438008B7B012B05D139200FF044FCB8F9000013
:1054480021E0B8F800606E237343152693FBF6F647
:10545800CB7BB6B20BB196FBF2F63A200FF032FCDA
:105468004FF06409B6FBF9F80FFA88F00FF018FC52
:1054780009FB18663B200FF025FCB0B2461D0A2038
:1054880096FBF0F000B20FF00BFC28200FF01AFC8E
:10549800E36A0A2093FBF0F000B20FF001FC04204D
:1054A8000FF010FC3C4B1B68DB8913B101F0C8FE00
:1054B80003E03A4B186880F3100000B20FF0F0FBDD
:1054C800374B1B689E0640F1B98094F83030DFF8FE
:1054D800A88098071DD511200FF0F4FBB8F832000A
:1054E800304B4FF4F366704390FBF3F000B20FF0CB
:1054F800D7FB19200FF0E6FBB8F8320046436420CA
:1055080096FBF0F696FBF0F300FB136000B20FF089
:10551800C7FB94F83030A68E13F0020F08BF0026A0
:1055280001200FF0CFFB30B20FF0BAFB09200FF0CB
:10553800C9FB00200FF0B4FB1B4B94F836601A88A7
:10554800B2F5967F0AD90C4B1B7A03F00F03072B91
:1055580004D842F20F76964228BF164605200FF06F
:10556800B1FBA36A5B7B3BBB30B242E08A360020CA
:1055780080140020A8300020D00F00208C140020B8
:105588000800002000007A44702B0020A62B002081
:1055980087360020E43200202C140020301400202C
:1055A80098170020A0860100EC0000203804002095
:1055B800781400206666E63FA6F1200307EE903ACD
:1055C8001FED047AF8EEE77AF6EE006AC7EE877AFE
:1055D800BEEE007AF5EEC07AF1EE10FA58BFB0EEE2
:1055E800667A77EE877AFDEEE77ACDED007ABDF937
:1055F80000000FF055FB94F83020C34B910703D4FB
:1056080093F83720012A04D1012384F83730BF48A2
:105618001BE09B6ADFEDBE6A93ED017AD3ED027A57
:1056280027EE267A67EEA67ABDEEC77AFDEEE77A10
:105638008DED027ACDED037A02A806E0B54A92E82C
:10564800030002AB83E8030018460FF04BFB0FF092
:1056580031FB237A282B20D1AB4B386800221A72F1
:105668004FF03C094FF47A73B0FBF3F817200FF0B2
:1056780029FBB8FBF9F6B6FBF9F009FB106000024C
:1056880000B20FF00DFB18200FF01CFB09FB168071
:1056980000B20FF005FB0FF00DFB94F84030DFF877
:1056A8006882002B00F05D810BF09EFBD8F8443037
:1056B800994AC31A9342064640F2C080002388F8EC
:1056C8004A3088F84C30954B1B88DAB21B0A88F8A8
:1056D800662088F8673088F85C2088F85D30D8F84C
:1056E80074203B689A1AD8F87830197C4FF47A738A
:1056F8004B439A420ED38A4B1B68C8F87430894BC7
:105708001B78013B012B9FBF102388F84A300223E6
:1057180088F84C300A20E26A834B92FBF0F284F856
:105728006420121284F8652094F830201B6893FBDB
:10573800F0F384F868301B1284F86930920794F803
:105748003630714984F8963003D42D2381F8973088
:1057580072E0042BD4F838A0E76BDFF8DC91734AC9
:105768008CBF3323322381F897304FF00608704BF3
:105778009AFBF3F097FBF3F309FB00A109FB03790C
:1057880003EB830308FB01F103EB830391FBF2FCBA
:105798004FF0640E02FB1C119B0091FBFEF184F894
:1057A8008810091208FB09F884F8891098FBF2F1AF
:1057B80043FA81F39BB202FB118292FBFEF284F85A
:1057C8008D20121284F88B3084F88E201B0A628E8A
:1057D80084F88C302423534393FBFEFEB4F8A8309E
:1057E80084F88F301B0A00EB800084F89030A38E79
:1057F80084F883E000EB8000800003F5FA739BB225
:1058080040FA8CF080B284F891301B0A4FEADA7AB9
:1058180084F88600FF0F000ACEF3072E84F8923032
:10582800B4F8AA3084F885A084F8870084F88A70D0
:1058380084F884E084F89830334B5E64324C94F8F2
:10584800AC80B8F1000F0DD1D4F8B4000BF050FCC7
:10585800012807D90228374F00F07F840FF012FA89
:105868000123BB70D4F8B870274B002F79D093F878
:10587800AC203AB1D3F8C02040F6B731B21A8A4208
:1058880016D86EE0012283F8AC20D3F8C420D3F8F0
:10589800B4001278022A04D8043002210FF0DCF98F
:1058A80002E002210BF0BEFB002384F8C83056E06A
:1058B80093F8BC20AAB9C3F8B82083F8AC20D3F871
:1058C800C420D3F8B4001278022A04D80430012185
:1058D8000FF0C2F902E001210BF0A4FB0FF0D2F99E
:1058E8003DE0013AD2B283F8BC2093F8C81093F88F
:1058F800C9001ABB01304A1C83F8C90083F8C820C4
:10590800D3F8B40029E000BFD00F00200810002011
:105918008096184B44AF01083F0D0300781400200F
:105928008C140020412E00203014002040420F002B
:105938008096980008000020806967FF3A46013089
:1059480012F801EB83F8C9000EEB0107D3F8B40095
:1059580083F8C870C3F8B82071460BF0F5FBC4F89B
:10596800C060C14CC14E94F8CA303768002B00F0B3
:10597800E681D4F8CC30002B00F0E18194F8D030E7
:10598800013B012B00F2DB81D4F8CC00DFF8D88290
:105998000BF0AEFBE0B1D8F8CC000BF0A6FB98F802
:1059A800D130D6F800A07E2B81460ED102231B28C9
:1059B80088F8D03009D1D8F8CC000BF099FB20B981
:1059C8000123C8F8D4A088F8D83084F8D190DBE750
:1059D800D8F8D42033689B1A41F6583293422AD912
:1059E800032388F8D030AAE1A14A32F8130010B98D
:1059F80003464FF403600133B0F5E06FDBB200F00B
:105A08002E8129D9B0F5026F00F06F8140F28280B3
:105A1800B0F5046F00F01A81B0F5116F00F07881CD
:105A2800B0F5036F0BD184F8D930924BDFF8388288
:105A38001B689A067CD494F8D81094F8D9300029B9
:105A480000F07B813268D21B012ACDD984F8D93085
:105A5800002384F8D83072E1B0F5047F74D00BD8F5
:105A6800B0F5887F00F0E680B0F5007F00F0828016
:105A7800B0F5807FE3D190E0B0F5826F00F00F8140
:105A8800B0F5C06F00F09580B0F5806FD7D184F87D
:105A9800D93094F8E030744A0133DBB2032B88BF65
:105AA800012382F8E03094F8E01042F21073594371
:105AB800714B1B78D80748BF01319A0748BF02319C
:105AC8005B076E4B1B8848BF0431D80748BF0A31B3
