:020000040800F2
:1000000000500020B951010859520108DD280108AB
:1000100059520108595201085952010800000000C4
:10002000000000000000000000000000595201081C
:100030005952010800000000595201086FCE000813
:1000400059520108595201085952010859520108E0
:100050005952010859520108B5720008B3720008DC
:1000600059520108595201085952010859520108C0
:10007000FDCD0008EDCD000889FA000859520108AD
:10008000DDCD0008CDCD00085952010859520108B4
:10009000595201085952010859520108B172000819
:1000A0005952010855F800085952010865F800082E
:1000B00049F8000839F8000829F800089D5B000895
:1000C000A15B0008955B0008995B00085952010884
:1000D000595201087DFA000871FA000865FA000813
:1000E0007DCE000859520108595201080000000055
:1000F0000000000000000000000000000000000000
:0C01000000000000000000005FF808F1A3
:100110002DE9F04FA54EAFB034780096002C00F0DA
:10012000ED80A34B1868002801F0A7860CF016FE9E
:10013000A04C20680CF0EDFF002801F09E8620689E
:100140000CF0E4FF09289C4C01D03F284BD14FF024
:1001500000094D462768994E2FB1994831683A46B3
:1001600017F0DEF910B9B14605B93546954B103692
:100170009E42F1D3D5B12E68D9F80080236816F8D5
:1001800003E018F80300704510D15A1C8C4948B997
:100190002D2B07D8884E4FF0200E01F803E0326077
:1001A000885403E001F803E02260E7E723680BB11D
:1001B0004D450FD0844811F01DFF4D4507D855F827
:1001C000100B11F017FF092011F0A6FDF5E70BF059
:1001D00073FD002723689F42AAD2794BD85D11F0A6
:1001E0009BFD0137F6E72368002B41F0B585042815
:1001F00041F01C8672480AF01FFA01F03EBE019BD6
:10020000DFF8E0A118680CF084FF00285DD0DAF870
:1002100000000CF07BFFDBF80030064693F8481036
:10022000002940F08780242840F0E680012283F8EE
:100230004820DBF8003093F84820062ADFD193F8F5
:100240004900522800F0FB8600F2B981342800F002
:100250007E8400F25881242800F06F8500F223810B
:10026000032800F0708240F2FD80052840F00F81E5
:100270001A2011F0EFFC4FF00008544B13F808005F
:1002800008F1010811F0A1FCB8F10B0FF5D14FF006
:1002900000084F4B13F8080008F1010811F095FC15
:1002A000B8F1080FF5D14FF000084A4B13F80800D9
:1002B00008F1010811F089FCB8F1070FF5D111F030
:1002C00095FC2B68002283F84820434D38680CF0D9
:1002D00045FD95F830306BB159F804000CF00BFF78
:1002E0000CF0B8FF0EF012FF002385F830303B4AC7
:1002F0003B4BDA604C34982C01F0BF85DFF8F4906A
:1003000054F8093004EB0902002BF3D03549364D7F
:100310000B60079300232A608DF82130334A1423A1
:10032000334F8DF8203006AB06923B60AB4601910F
:10033000904664E7012904D14D2814BF002202220F
:1003400075E7022904D13C2814BF002203226EE77E
:1003500003290CD140284FF0000102D983F848103E
:1003600067E758711971D971987104225FE7042900
:1003700007D1997983F8490080EA01029A71052230
:1003800055E705297FF455AF58791979884298794E
:1003900006D970409871481C18710B441E7248E7CA
:1003A000B0420CBF0622002241E700BFEA31002024
:1003B000802700209C270020201C002048BB01082B
:1003C000F01B002038BD0108A8BE010810BF0108BD
:1003D0001CBF010825BF0108700900200400FA05B0
:1003E00000ED00E0782700207027002073D100087E
:1003F000742700201C310020D8490B7803F0040337
:1004000003F0FF0E002B7FF414AF232EDAF8000068
:100410001BD1009A01231370D14B02911860D14B6C
:100420001860986010201873CF48C3F8048083F8D0
:100430000DE004330360CD4811F0DCFD0BF03CFC13
:1004400002990B7843F002030B70C94B1B681B78B1
:10045000B34201BFC74AC84B1A60C84A04BFC84B61
:10046000DA60E6E6012800F06281022840F0A0860A
:10047000042011F0EFFB422011F0A7FB542011F0F3
:10048000A4FB462011F0A1FB4C2000F076BEC0F08A
:100490008B81222840F08C86BA4E502011F0DAFB76
:1004A00006F1500A38E32C2800F07B8419D828285C
:1004B00000F05D842A2800F06E84262840F07886BB
:1004C000DFF8C082062011F0C5FBB8F8CC0111F0AE
:1004D000C4FBB8F8D00111F0C0FBB8F8D40100F0AB
:1004E00048BE302800F02385322800F0AF842E2843
:1004F00040F05E86DFF88C82402011F0ABFB08F103
:10050000400A00F002BD452800F09E852ED83B2809
:1005100000F0D08215D8382800F015843A2800F071
:100520004982362840F04486974BDFF85882187885
:1005300008F1280AC0EBC000C0B211F08BFB00F03C
:10054000E0BC402800F08984422800F0A9843D28BE
:1005500040F02E868B4E022011F07CFB96F887022D
:1005600011F033FB96F8860200F007BE4B2800F02E
:1005700038840CD8472800F01985C0F00085492838
:1005800040F01686022011F065FB804B44E24F28B4
:1005900000F04885502800F032854D2840F008864C
:1005A000DFF8F881DFF8F8A198F800004FF0000BB1
:1005B00000EB4000C0B211F04DFB00F02EBC6F28E4
:1005C00000F02C826BD8652800F0118137D85E28A6
:1005D00000F09D8519D85A2800F081855C2840F0EC
:1005E000E785052011F036FB664BDFF8B88193F8FC
:1005F000DF0111F0EAFAD8F80030188C11F02DFB69
:10060000D8F80030588C00F0B4BD622800F09D8509
:10061000642800F0DC80602840F0CA85DFF864813F
:10062000032011F017FB98F8D90111F0CEFA98F8D1
:10063000E80111F0CAFA98F8E70100F09EBD6928B8
:1006400000F0988113D8672800F01C8100F28281A5
:10065000122011F0FFFA4E4B4FF000081B88B3F543
:10066000806F8CBF4FF0080A4FF0010AE9E06D2857
:1006700000F0978100F2A3816C2840F09985454EE7
:10068000062011F0E7FA308811F0E7FA708811F0CF
:10069000E4FAB6F904300A2093FBF0F0B7E17C28C5
:1006A00000F0E9841FD8742800F074820DD87228F5
:1006B00000F0DE8200F21283702840F079851E205F
:1006C00011F0C8FA4FF00008D6E1772800F0A982AF
:1006D000782800F0E780752840F06A852F2011F017
:1006E000B9FA2D4EDEE1A02800F0198309D87E2842
:1006F00000F0E584C0F0D384962840F059850C20A2
:1007000076E0F12800F00081FE2800F0F782F02862
:1007100040F04E85DFF86C80042011F09BFAB8F8A9
:10072000EE0111F09AFAB8F8EC0100F022BD0320B6
:1007300011F090FA002011F048FA012011F045FA6A
:10074000102000F01ABD11F085FA022011F03DFAD8
:10075000092011F03AFA00F075BC00BFEC3100201E
:100760009C2700207009002080270020D8BE0108A7
:10077000B0170020EFBEADDEF04F00200400FA05F8
:1007800000ED00E01C2C0020821C002098170020A7
:1007900008000020182B00206F9B0108B8310020B2
:1007A0006C2E00207C270020062011F053FA4120F7
:1007B00011F00BFA462011F008FA4E2011F005FA5C
:1007C000412011F002FABF4B187800F0D2BC07208C
:1007D00011F040FAE72011F0F8F9BB4B587911F00D
:1007E000F4F9002011F0F1F9042000F040BC0B20D6
:1007F00011F030FAB54B188811F02FFAB44B188865
:1008000080B211F02AFAB34B1B68C3F3C000C3F3E4
:100810008002800040EA4200C3F340021043C3F369
:10082000401240EAC20003F01003184311F015FA19
:1008300011F0F4F811F01AFAA34B93F8460400F003
:100840009CBCA54B53F8280008F1010890FBFAF076
:1008500080B211F002FAB8F1030FF2D19F4E308846
:1008600011F0FBF9B08811F0F8F930899C4E11F0C5
:10087000F4F9308811F0F1F9B08811F0EEF930890F
:1008800000F077BC102011F0E5F94FF00008954B0F
:1008900013F8080008F1010811F097F9B8F1100FEA
:1008A000F5D10CE5884E702011F0D4F9B3464FF025
:1008B000000AB6F8580111F0D0F9B6F85A0111F053
:1008C000CCF9B6F85C0111F0C8F996F85E0111F0A8
:1008D0007CF996F85F0111F078F996F8600111F053
:1008E00074F996F8610111F070F90E2303FB0AB355
:1008F0000AF1010AD3F8620111F0B8F9BAF1080F50
:1009000006F10E06D5D1DAE4702011F0A3F96E4E8F
:1009100006F1700A96F8E80011F057F996F8E90028
:1009200011F053F996F8EA0011F04FF996F8EB0040
:1009300011F04BF996F8EC0011F047F996F8ED003C
:1009400011F043F9073696F8E70011F03EF95645E5
:10095000E0D1B4E4102011F07DF94FF00008624BB3
:1009600013F8080008F1010811F02FF9B8F1100F81
:10097000F5D1A4E45D4E4FF000083078B246400057
:1009800000F0FE0011F066F99AF800309845BFF4C7
:1009900096AC574B33F8180011F05FF908F10108D5
:1009A000F2E7062011F056F9524B186811F05EF983
:1009B000514B31E0042011F04DF9504BBBE14FF6A3
:1009C000FF78072011F046F94D4B1888FF28A8BF83
:1009D000FF20C0B211F0F9F84A4B18684045A8BF93
:1009E000404620EAE07080B211F037F9464B188893
:1009F00011F033F9344B93F81B22444B186842B181
:100A00000A2358434045A8BF404620EAE07080B220
:100A1000AFE300F30F00FAE71888AAE33C4E0B207F
:100A200011F018F93368B246187811F0CEF833682F
:100A30004FF0000B987811F0C8F8DAF80030344E17
:100A40005B4458790BF1010B11F0BFF8BBF1030FB8
:100A5000F3D13368187A11F0B8F83368D87811F008
:100A6000B4F83368187911F0B0F83368588911F088
:100A7000F4F83368587A80E3264E33684344587854
:100A800011F0A3F833684344D87A11F09EF8336824
:100A90004344587D08F1010811F097F8B8F10A0FA6
:100AA000EAD10CE416F8010F00283FF408AC11F06D
:100AB0008CF8F7E7012011F0CDF8164B1B68187879
:100AC0005BE300BFE83100201C2C0020E231002055
:100AD000F426002090170020BC0E0020202B0020C0
:100AE000D42A002090090020C41C0020B831002026
:100AF000D02B0020A82A0020C80E0020802A002029
:100B0000001B0020B81A00205E0F0020DC0E002021
:100B1000600E00207C27002096F84724D84B0C213B
:100B200001FB023393F8380011F04FF896F84804AF
:100B300011F04BF896F8490411F047F8043696F88E
:100B4000460411F042F85645E6D1FFF7B8BB5A20EB
:100B500011F080F8CB4E06F15A0A96F89C0411F079
:100B600034F896F8970411F030F896F8980411F0DC
:100B70002CF896F8990411F028F896F89A0411F0D8
:100B800024F8063696F8950411F01FF85645E4D17E
:100B9000FFF795BB4FF0000A01264FF00008BA4B53
:100BA0001B78984534DAB94B4FF0000B18F803E086
:100BB0000C2303FB0BF3B24800F1300C13F80CC00C
:100BC0000190F44507D10344586B16F0A0FC84460D
:100BD0003EB9334607E00BF1010BBBF11E0FE7D125
:100BE00013E0824411E063450FDA019A0C2000FB08
:100BF0000B20406BCDF80CC0C05C029310F0E5FFF9
:100C0000029BDDF80CC00133EDE708F10108C6E7EF
:100C1000002E3FF454AB5FFA8AF011F01BF8002667
:100C2000BBE7DFF864A24FF000089AF8000011F06B
:100C300011F89AF800309845BFF441AB934B00216E
:100C400018F803E00C2202FB01F38D4800F1300C90
:100C500013F80C20724505D1034493F8380010F0C6
:100C6000B4FF02E001311E29ECD108F10108E0E7F0
:100C7000DFF81082162010F0EDFFB8F8400210F0F7
:100C8000ECFFB8F8D00010F0E8FFB8F8D20010F090
:100C9000E4FFB8F8D40010F0E0FFB8F8940210F0C8
:100CA000DCFF002010F091FF002010F08EFF0020EC
:100CB00010F08BFF98F81B0210F087FF98F83C02A9
:100CC00010F083FF002010F080FFB8F9EA310A200D
:100CD00093FBF0F080B210F0C0FF39E0082010F074
:100CE000B9FF4FF001085FFA88F008F1010810F031
:100CF0006CFFB8F1090FF6D1FFF7E1BA082010F048
:100D0000A9FF4FF00008624B33F8180008F1010802
:100D100010F0A3FFB8F1040FF5D1FFF7D0BA0C2003
:100D200010F098FF5B4B186810F0A0FF5A4B186842
:100D300010F09CFF594B186899E1042010F08AFFCD
:100D4000504B986893E1042010F084FFDFF8348161
:100D500098F80E0210F039FF98F8120210F035FFE3
:100D600098F8110210F031FF98F8130205E2DFF84D
:100D70001481072010F06EFFB8F8160210F06DFF16
:100D8000B8F8180210F069FF98F81A0210F01DFF69
:100D9000B8F81C02EDE1012010F05CFF394B5879E6
:100DA000EBE1DFF8E0800C2010F054FF98F83802F7
:100DB00010F00BFFB8F8440210F04FFFB8F84002F3
:100DC00010F04BFFB8F8420210F047FF98F83A02D3
:100DD00010F0FBFEB8F84C0210F03FFFB8F84E02DE
:100DE000C7E1DFF8A080082010F034FF98F89202E5
:100DF00010F0EBFE98F8930210F0E7FEB8F89402BA
:100E000010F02BFF98F8960210F0DFFEB8F8980269
:100E100010F023FF98F89A02AFE198F800300AF139
:100E2000020A9B45BFF44BAA1AF8020C10F0CDFE43
:100E30001AF8010C0BF1010B00EB800000EB8000B5
:100E400000F2EE2080B210F008FFE6E7012010F07B
:100E500001FF0C4B93F83C028FE1082010F0FAFEE2
:100E60004FF00008074B434493F8300208F10108A3
:100E700010F0ABFEB8F1080FF4D1FFF720BA00BFB5
:100E8000709B01081C2C00205027002051270020B7
:100E9000D81A0020E8F7FF1FECF7FF1FF0F7FF1F3D
:100EA000DFF8E483102010F0D5FE98F8050010F06C
:100EB0008CFED8F8080010F0D9FE98F8380210F02F
:100EC00084FEB8F8CC0110F0C8FEB8F8D00110F0DC
:100ED000C4FEB8F8D40110F0C0FEB8F8160210F045
:100EE000BCFEB8F8180244E1E44AD25C904200F03B
:100EF00048810C333C2BF7D108F10808D0453FF46A
:100F0000DEA998F89E020023EEE7B8F85C0310F023
:100F1000A4FE98F85E0310F058FE08F1040898F853
:100F20005B0310F052FED045EFD1FFF7C8B9E020C7
:100F300010F090FEDFF8508308F1800AB8F8DE0266
:100F400008F1040800F03F0010F087FEB8F8DA025C
:100F5000C0F3861010F081FE98F8D802000910F056
:100F600034FE98F8D80200F00F0010F02EFE98F82A
:100F7000D90210F02AFED045E0D1FFF7A0B90D202C
:100F800010F068FE0EF0F8FEDFF8F48240F0020088
:100F9000C0B210F01AFEB8F8000010F067FED8F8E2
:100FA0000C0010F063FE0EF00FFB60E010F004FE8A
:100FB0008246842010F04EFE504610F057FEB04B93
:100FC0000DF1380BDA680AF1800393428CBFCAEB4B
:100FD00002084FF080080EF0B1FB504642465946D9
:100FE0000EF0FEFE82464FF00008D045BFF667A91E
:100FF0001BF8080010F0E9FD08F10108F5E7DFF83B
:101000008882042010F026FE012010F0DEFD98F802
:10101000F30410F0DAFD98F8F10410F0D6FD98F81A
:10102000F204AAE00B2010F015FE002010F0CDFD18
:10103000002010F0CAFD002010F0C7FD13E00120D1
:1010400010F008FE002098E0132010F003FE4FF08F
:1010500000088C4B13F8080008F1010810F0B5FDEA
:10106000B8F10B0FF5D1002010F000FE002010F0B9
:10107000FDFDFFF724B9DFF81082082010F0EAFD2B
:10108000B8F8DA0010F0E9FDB8F8DC0010F0E5FD82
:10109000B8F8DE0010F0E1FDB8F8E00069E0DFF834
:1010A000E881032010F0D6FD98F81E0210F08DFDA7
:1010B00098F81F0210F089FD98F820025DE0DFF833
:1010C000C881032010F0C6FD98F8C90110F07DFD1D
:1010D00098F8CA0110F079FD98F8CB014DE0DFF8DF
:1010E000A881062010F0B6FD98F8DE0110F06DFD25
:1010F00098F8E40110F069FD98F8E70010F065FD3C
:1011000098F8E60010F061FDB8F8E20031E0DFF891
:101110008481082010F09EFDD8F80030D88C10F0A3
:101120009CFDD8F80030188D10F097FDD8F80030ED
:10113000588D10F092FDD8F8003093F8240010F08C
:1011400044FD514B93F8150217E0062010F082FD84
:101150004E4BDFF834811B68587810F036FDB8F834
:101160004A0210F07AFD98F8460210F02EFDB8F809
:10117000D80010F072FDFFF7A2B810F026FDFFF7BF
:101180009EB810F022FDB8F8A00210F066FD98F8A5
:10119000A20210F01AFD98F8A30210F016FD98F8BC
:1011A000A50210F012FD98F8A40210F00EFDA3E6BF
:1011B0005B2816D110F0EAFCDFF8CC8088F8DE015D
:1011C00010F0E4FC88F8E40110F0E0FC88F8E70097
:1011D00010F0DCFC88F8E60010F0E4FCA8F8E2006F
:1011E0000CE010D9D22840F09882294B1B7803F0EC
:1011F000040303F0FF08002B00F07682002010F0BB
:1012000029FDFFF75CB8372846D15B794FF0070816
:10121000B3FBF8F8C8EBC8029B1A13F0FF0F02D01B
:1012200007F076F8EAE75FFA88F8B8F1000FE5D042
:1012300010F0ACFC5FFA80FB4FFA8BF00BF06EFC09
:1012400082460028ECD080F800B010F0ABFCAAF881
:10125000020010F09BFC8AF8040010F097FC8AF85A
:10126000050010F093FC8AF8070010F08FFC08F1DD
:10127000FF385FFA88F88AF80600D6E7B41700202E
:101280008C00002010BF01081C2C0020600E0020E4
:10129000EC3100207C27002000F221812B2804D192
:1012A00010F074FCD24B5871A8E770D8252807D1EC
:1012B000CF4B00229A6010F07FFC0DF01FFF9DE7DE
:1012C0003ED8232840F0448510F060FC1328804667
:1012D000A6D810F05BFC00220C235343C54901EB58
:1012E000030E9EF838E0864526D10B44DFF800A3B4
:1012F00093F8303008F588780AEB880888F80730CA
:1013000010F044FC88F8080010F040FC88F8090050
:1013100010F03CFCB84BB9491A680AF1D0030B60D5
:10132000B74B88F80A0000201A6012F0B9FBB54BE1
:1013300080F00100187061E701321E2ACCD16FE7FE
:1013400027280ED110F02EFCDFF8A482C8F8CC01BB
:1013500010F028FCC8F8D00110F024FCC8F8D40123
:101360004CE7292840F0F48410F01CFCDFF8808260
:10137000A8F8160210F016FCA8F8180210F006FCE7
:1013800088F81A0210F00EFCA8F81C0236E7312883
:1013900034D110F0FBFB1F2880463FF641AF2B688D
:1013A0005B79082B7FF43CAF10F0FCFB904B08F10D
:1013B000B60803EB880800F03F00A8F8060010F01C
:1013C000F1FBB8F80630800100F4FE501843A8F88D
:1013D000060010F0DBFB000188F8040010F0D6FBDB
:1013E00098F8043000F00F00184388F8040010F05B
:1013F000CDFB88F805000EF059F8FFE63DD82D2802
:1014000023D110F0C3FBDFF8E88188F8380210F030
:10141000C9FBA8F8440210F0C5FBA8F8400210F080
:10142000C1FBA8F8420210F0B1FB2B6888F83A0221
:101430005B79082B7FF6E2AE10F0B4FBA8F84C0203
:1014400010F0B0FBA8F84E02D8E62F2840F08084B8
:10145000DFF89C8108F1400A10F0A4FBA8F85C03B7
:1014600010F094FB88F85E0310F090FB08F104087C
:1014700088F85B03D045EFD1C0E6332805D110F0E2
:1014800085FB5B4B83F83C02B8E6352840F060846E
:1014900010F07CFB0E2882463FF6C2AE10F076FBC1
:1014A00003283FF6BDAE524B4FF0060808FB0A3842
:1014B00088F89C0410F06AFB88F8970410F066FB2B
:1014C00088F8980410F062FB88F8990410F05EFB2D
:1014D00088F89A0410F05AFB88F89B048EE644289A
:1014E00004D1494B012283F8302087E600F2948032
:1014F0003E280AD110F04AFBDFF8F48088F8870212
:1015000010F044FB88F8860278E637D8392812D1E3
:1015100010F03CFBDFF8D88088F80E0210F036FBA4
:1015200088F8120210F032FB88F8110210F02EFB3E
:1015300088F8130262E63C2840F00A84DFF8B8809D
:10154000D8F800A09AF800B010F020FB18B10228DB
:10155000A8BF022000E001208AF80000D8F800307F
:101560002A4A1B78022B14BF29492A499B4511603E
:101570003FF444AE002010F082FB3FE641280DD13D
:101580004FF0000810F002FB194B434408F101082A
:10159000B8F1080F83F83002F4D12FE6432840F069
:1015A000D78310F0F3FADFF848800023C8F808303A
:1015B00088F8050010F000FB0DF0A0FD10F0E6FA31
:1015C00088F8380210F0EEFAC8F8CC0110F0EAFA08
:1015D000C8F8D00110F0E6FAC8F8D40110F0E2FA29
:1015E000A8F8160210F0DEFAA8F8180206E600BF06
:1015F0001C2C0020709B01087C270020640E00201A
:10160000680E00200200002070090020B8000020B1
:1016100081300108D93301084C281AD110F0B6FAEC
:10162000DFF8B48388F8920210F0B0FA88F89302D9
:1016300010F0B8FAA8F8940210F0A8FA88F8960208
:1016400010F0B0FAA8F8980210F0A0FA88F89A0200
:10165000D4E50AD8482802D10EF0BEF8CEE54A28D3
:1016600040F0768310F09EFA85E74E2825D110F0E1
:101670008DFA112882463FF6D3AD10F087FADFF8D5
:1016800058830AF5947A08F81A0010F08BFA40F2A1
:10169000ED23984205DD40F6CA039842A8BF1846DC
:1016A00001E040F2EE20A0F2EE20192390FBF3F0CF
:1016B00008EB4A0888F80100A0E5512840F048836B
:1016C000C44B1B78012B3FF699AD10F05FFADFF8A1
:1016D000088388F8F30410F059FA88F8F10410F040
:1016E00055FA88F8F20489E510F050FABA4B01284F
:1016F00083F846040CD983F8468409E0D02840F0EA
:101700002783B64B1B785A073FF578AD0CF040FCA9
:101710000DF044FD0CF06CFA70E500F26D81CA2802
:101720001ED14FF00008DFF8CCA2DAF800B010F0BC
:101730002DFAC3448BF80100DAF800B010F026FA55
:10174000C3448BF80B00DAF800A010F01FFAC24473
:1017500008F10108B8F10A0F8AF81500E3D14DE548
:1017600000F2928061280ED110F010FADFF8688242
:1017700088F8D90110F00AFA88F8E80110F006FAA2
:1017800088F8E7013AE538D85D2813D110F0FEF962
:10179000DFF86082904BD8F800A083F8DF0110F0EA
:1017A00001FAAAF82000D8F8008010F0FBF9A8F898
:1017B000220023E55F2840F0CB82DFF83882D8F89A
:1017C00000A010F0EFF9AAF82600D8F800A010F059
:1017D000E9F9AAF82800D8F800A010F0E3F9AAF86F
:1017E0002A00D8F8008010F0D1F988F8240010F011
:1017F000CDF9794B83F8150200E5632815D1784BB4
:10180000D3F8008010F0C2F988F8010010F0CAF98E
:10181000DFF8C481A8F84A0210F0B8F988F8460247
:1018200010F0C0F9A8F8D800E8E4C82840F0908289
:1018300093F805804FEA5808B8F1120F3FF6F0AC64
:101840004FF0000AC24507D210F0ACF90EAB23F8F6
:101850001A000AF1010AF5E742460023434507DA78
:101860000EA931F813005F4921F813000133F5E7A1
:10187000122A05D05B4B002123F812100132F7E742
:10188000594B01221A70B9E4CE280AD1534B1B7868
:101890005E073FF5B3AC554A137843F00403137069
:1018A000ACE45DD8CC284ED15B79092B7FF6B8AC7F
:1018B000DFF82C81D8F800A010F068F98AF8000051
:1018C000D8F800A010F062F98AF8020010F05EF972
:1018D000D8F800306428A8BF6420587110F056F979
:1018E000D8F800306428A8BF6420987110F04EF931
:1018F000D8F80030FF28A8BFFF20D87110F046F9B3
:10190000D8F800A0642828BF64208AF8080010F0E6
:101910003DF98AF80300D8F800A010F037F98AF8EA
:101920000400D8F800A010F03DF92B68AAF80A00CE
:101930005B790A2B7FF662ACD8F8008010F026F9AC
:1019400088F809005AE4CD2840F00282234B1B7826
:101950005B073FF553AC264B4FF4C8721A804DE439
:10196000CF287FF4CBAE10F01DF96FF4AF614318B0
:101970009BB2DFF86480C62B98BFA8F8400210F035
:1019800011F9A8F8D00010F00DF9A8F8D20010F065
:1019900009F9A8F8D40010F005F9A8F8940210F09D
:1019A000F5F810F0F3F810F0F1F810F0EFF888F80F
:1019B0001B0210F0EBF888F83C0210F0E7F810F08A
:1019C000F1F800EB80004000A8F8EA0110F0DEF822
:1019D000A2E500BF9C1C00201C2C0020EC31002044
:1019E000600E0020401900200D260020600F00200E
:1019F000180E00207C270020DB2847D1D94B2D2250
:101A00001B6832215A705A731422DA7500229A73B5
:101A10001A76DA735A7622229A710E221A743522B5
:101A20009A761922DA7121225A745322DA763722F1
:101A30009A721A754B229A774FF4FA7212205A85CD
:101A4000B4224FF0010E4FF0280C5875997098751C
:101A50001971502019729974DA8464214FF00F08BB
:101A6000232283F800E083F80BC083F80CC0D87001
:101A700083F80580197783F809C058841A8519847A
:101A800083F824E083F82DE0FFF7B8BB75D8D6289B
:101A90000DD14FF0000810F085F8B34B23F8180073
:101AA00008F10108B8F1080FF5D1FFF7A7BB3BD843
:101AB000D32805D110F076F8AC4B1880FFF79EBB09
:101AC000D42840F045815B790F2B7FF4A9AB10F04F
:101AD0005DF8072882463FF6A3AB10F063F8A44BED
:101AE0004FF00E0808FB0A38A8F8580110F05AF811
:101AF000A8F85A0110F056F8A8F85C0110F046F862
:101B000088F85E0110F042F888F85F0110F03EF8A6
:101B100088F8600110F03AF888F8610110F04CF88C
:101B2000C8F86201FFF76ABBD92813D110F03AF860
:101B3000DFF83C82A8F8DA0010F034F8A8F8DC00EE
:101B400010F030F8A8F8DE0010F02CF8A8F8E0004B
:101B5000FFF754BBDA2840F0FB8010F017F8DFF8ED
:101B6000108288F81E0210F011F888F81F0210F099
:101B70000DF888F82002FFF741BBF22829D110F0B8
:101B800005F80F2880463FF64BAB0FF0FFFF784B70
:101B9000C8EBC808984488F8E8000FF0F7FF88F809
:101BA000E9000FF0F3FF88F8EA000FF0EFFF88F884
:101BB000EB000FF0EBFF88F8EC000FF0E7FF88F880
:101BC000ED000FF0E3FF88F8EE000BF085FBFFF768
:101BD00015BB20D8DC280FD10FF0D8FFDFF890819B
:101BE00088F8C9010FF0D2FF88F8CA010FF0CEFFC4
:101BF00088F8CB01FFF702BBEF2840F0A9800FF077
:101C0000D1FFDFF86C81A8F8EE010FF0CBFFA8F848
:101C1000EC01FFF7F3BAF52840F09380012010F0B3
:101C200019F84FF00008534BDFF860A1C02252486A
:101C3000414683F800808AF8008015F025FC524662
:101C40008DF817804D4B9DF8171093F83600884299
:101C500064D99DF8171003EBC10191F83910C90739
:101C600055D59DF8171003EBC10191F83800444990
:101C700031F9101000294ADDDFF8FCB09DF817009B
:101C8000D8469DF817E003EBC00003EBCE031178B4
:101C9000C06BDB6B406809011B890BEB010CACF8D6
:101CA00006304BF801009BB24FF0000C4FF0010ED4
:101CB0000EFA0CFE1EEA030E05D10CF1010CBCF16C
:101CC000100FF3D100E0E64608EB010CACF8083049
:101CD00002238CF80B3048238CF80A30DCF80830EB
:101CE0000831CCF80C30102341448CF80E30ACF89D
:101CF00004E0019205F0DDFB019A13781901884494
:101D0000B8F806005BF801100133086113709DF804
:101D100017300133DBB28DF8173093E79AF80000E3
:101D20000FF053FF0FF062FF38680BF017F82B68C5
:101D300018680BF0E0F92868396808F007F9FFF730
:101D40005DBAFA2804D10F4B1B7858077FF5E0AC39
:101D500006F0DEFAFEF7B3BA0C2819D10A4810F0E3
:101D600049F95FE07C270020842700206C0E0020CA
:101D70001C2C002089000020181B00207009002066
:101D8000C41C0020EC310020ADBE0108EB1B00207C
:101D90000A2801D00D2864D1394D3A4810F02AF9AB
:101DA0002846232115F0A5FB08B1401B20602368BD
:101DB0007BB35A1EA95C202901D11346F8E7304AAB
:101DC00000212360D154304B304FD3F80090D7F826
:101DD00000A02B4E504615F09AFB054651462A4668
:101DE000304615F09DFB2A4A20B9735D4B445B7861
:101DF000580703D010379742E9D306E0974204D240
:101E0000681CFB683044984702E0224810F0F2F862
:101E100000231B4800213022236015F035FB009B76
:101E20001B7853B309F048FFFEF782B90C2895D010
:101E30007F2804D1FEF77CB92F2B3EF679A9A0F1BB
:101E40002002D2B25E2A3EF673A913B920283EF4CE
:101E50006FA95A1C22600A4AD0540FF05DFFFEF7AA
:101E600067B97F28E8D1064A013B00210A48236070
:101E7000D15410F0BFF8FEF75BB92FB0BDE8F08F7A
:101E8000F01B0020B9CE0108D803002048BB010890
:101E900038BD0108B8BE0108D4BE01082DE9F04FD5
:101EA000AD4B9FB01B68AD4C9F6A0AF0AFFF236833
:101EB000AB4EC01A30800AF0A9FFAA4D20602B78E3
:101EC000012B01BF3288A84B1A80A84A04BF128890
:101ED0005A800AF09BFF0646A54BDB686BB117A83A
:101EE00098479DF85C3043B12B78072B10D10AF04E
:101EF0008DFF9D4B801B18800AE00AF087FF9D4AEA
:101F000023681268FB1A184450329042E4D3EBE77E
:101F10002379002B00F0A2850AF078FF964D074642
:101F200095F8463233B1C3EB431203EB8203DB0077
:101F30009BB201E0894BDB88904A1668874AB3FB65
:101F4000F6F68F4B06F101081B781FFA88F8A4F803
:101F500008809BB34FF000098A4B484633F91910AB
:101F600010F036FC884B43F8290009F10109B9F15A
:101F7000030FF1D1B4F90AA000237848814A00F197
:101F8000140E32F813C03EF8132000F10C09C2EB16
:101F90000C0B39F913202EF813C00AFB02F10FFACB
:101FA00088F291FBF2F25A4429F813200133042BF2
:101FB000E3D1734B00221A70468102E05389013B42
:101FC0005381B4F90A00654A00284FF0000323DD6D
:101FD000B2F908E06D496E4EA1F1080232F9132002
:101FE00031F81310424392FBFEF28A1A26F81320AE
:101FF0000133042BEED1B6F90010002010F0E8FBFD
:10200000DFF8BC81B6F90210C8F80000012010F01A
:10201000DFFBC8F8040000E05381554A93689146FD
:102020000BB15C4898475C4B534E186810F0080F92
:1020300044D05449DFF88CC1B1F804E00EF10E032E
:102040009BB21C2B554BB3F9043032D8544A12883A
:1020500052072ED50A2293FBF2F2BCF80030D21AB6
:1020600092B293B20FFA83FC1CF1B30FBCBF02F51E
:10207000B4739BB2DFF830C11AB2B32A9CF800C027
:10208000C4BFA3F5B4739BB21CF0080F96F8D82117
:1020900014D052B252425343424A1BB21268527A8F
:1020A00053436FF01D0293FBF2F39E44A1F804E04A
:1020B00004E00A2293FBF2F3ACF8003010F0140FA6
:1020C00000F0B480364B1B8803F40273002B00F041
:1020D000AD80354B2B4A1B7803F0100303F0FF0C47
:1020E00043B1324B96F990021968538800FB0133D3
:1020F00053809BE0236A194993F803E02C48DFF8EA
:10210000C8809B78BEF1000F60D0B8F900E0B0F94C
:102110000680CEEB08000028B8BF404298420EDD92
:102120002448F045C0F800C04FF0010081F82400B9
:10213000C8BF5B42D1889BB20B44D38076E091F854
:1021400024302BB11C4B81F824C018681B4B18603D
:10215000164B1B6873445FE0642A0020080A0020C5
:10216000E2310020D61A0020D81A0020F2260020E2
:10217000DC160020981700201C2C0020F82A0020D4
:10218000700E00204E2B0020FC2A00201C0A00208C
:10219000102B0020240A002090170020182B00206C
:1021A000482700207C270020600F0020C02A002044
:1021B000D02B0020BC2A0020A82A0020B42A00200E
:1021C000082B00206C0E00207A0E0020B8F900C009
:1021D000B0F90600CCEB000080EAE078A8EBE078EC
:1021E00098450ADD022390FBF3F08A4B18608A4879
:1021F0000123037081F824300BE091F8243043B1BF
:10220000864B81F824E01868854B1860824B83F870
:1022100000E0844B1B686344A06A018840888B42BD
:1022200003DB8342A8BF03461946D1807E4B1B784F
:10223000EBB17E4BB3F90620B6F842329A4216DC77
:102240007B4B5B79012B01D0192B02D196F88B22A5
:102250006AB90E2B0BD0082B09D0764A0023938045
:10226000754A9380754A00239360754A936096F887
:102270000C82B8F1000F2FD0724B1B8898072BD01F
:10228000714B7249D3F820A0504611F0B3FFF0B95A
:10229000504615F0B5FBE16A11F004FE15F036FB6F
:1022A000B0F5617FA8BF4FF4617011F0A7FD6849D8
:1022B00011F0ACFE0CF089FE8246404611F09EFD06
:1022C000514611F0EFFD15F021FB80B200E0002037
:1022D000594AD3881844D0805E4B1878002840F0C3
:1022E000B2835D4B1A689A4612F4002F00F0AB835C
:1022F0005A4A13789046033B052B1AD896F8F334C4
:1023000033B1012B08D10DF057FAC0F17F0003E083
:10231000206B03689B689847636B94F838201344DC
:10232000B3F5807FA8BF4FF480738342D4BF63634B
:10233000606398F80030023B092B00F27E83DFE8EF
:1023400013F00A00120040007C037C035700990040
:1023500030035403600300236363E363404B1B6853
:102360002364032367E33E4B1A68236C64339A4269
:1023700040F2638340200CF049F8002840F05D8370
:102380004FF04009374BE26B374E985C1D4660B109
:1023900006F09AFF736BB9F1010903F1FF33736320
:1023A000F36B03F10103F363ECD1E26B2E4BAA5CF8
:1023B000002A40F04283DA634FF0FF321A640423AC
:1023C00039E32A230093294B492003F10C0201939E
:1023D00002925021A3F10A02023307F0B3FA002857
:1023E00040F02B834FF0FF332364E063072322E3A5
:1023F0001F4A05230021009301910291532002F10D
:10240000080307F09FFA002840F01783E0630823D1
:1024100011E300BFD0310020C42A0020A82A0020E8
:10242000B42A0020C02A002002000020D02B002067
:102430001C2C0020102B00204E2B0020082B0020ED
:10244000FC2A0020482700203C1E00208FC2753C3B
:10245000EFB6B044EA310020F82600209C1C002092
:10246000EC260020089D0108080A0020729D010842
:10247000609F010840200BF0C9FF002840F0DD827A
:10248000E36B342B01F22E81DFE813F035003800C6
:102490003D00410047004B004F00530057006200D1
:1024A0006A006E007B007F008E009D00AC00BB00C8
:1024B000CA00D900E800F7000A01130120012D012C
:1024C0003A014701540161016E017B0184019301CE
:1024D0009C01AD01B601BF01C801340245024902A9
:1024E0004D0251025D0267026B026F0273027702B6
:1024F0007B027F028302CE48CE494CE2CE48CF49D0
:10250000CF4AD04B52E1D048D049D14A36E0D148E9
:1025100096F8F11496F8F22430E0CF48B6F8D010CF
:1025200039E2CE48B6F8D21035E2CD48D9F81010CD
:1025300031E2CC4BCC4819882DE2636CD90403D529
:10254000CA4896F80E1226E2C94B0A22DA6324E240
:10255000C84896F8121296F8132296F8113225E11F
:10256000C548B4F8481016E2DAF800301A0540F110
:102570001482C248B6F81812B6F916220CF0BAF84E
:102580000BE2BF4BBF48196805E295F84624542377
:102590005343EA1892F8CC230C2101FB02331D446B
:1025A000B94895F8CE13F6E195F8462454235343E1
:1025B000EA1892F8CC230C2101FB02331D44B348E6
:1025C00095F8D013E7E195F8462454235343EA18CD
:1025D00092F8CC230C2101FB02331D44AC4895F842
:1025E000CF13D8E195F8462454235343EA1892F8C0
:1025F000CC230C2101FB02331D44A64895F8D713C8
:10260000C9E195F8462454235343EA1892F8CC23A1
:102610000C2101FB02331D449F4895F8D113BAE108
:1026200095F8462454235343EA1892F8CC230C21FE
:1026300001FB02331D44994895F8D213ABE195F89C
:10264000462454235343EA1892F8CC230C2101FB6F
:1026500002331D44924895F8D6139CE195F8462420
:1026600054235343EA1892F8CC230C2101FB023384
:102670001D448C48B5F8D8138DE195F846245423B1
:102680005343EA1892F8CC230C2101FB02331D447A
:10269000854895F8D31395F8D42395F8D53385E07C
:1026A00096F84634542202FB0366804896F89E133F
:1026B00071E195F84634542202FB03557C4895F8A5
:1026C0009F1395F8A92395F8B3336FE095F8463436
:1026D000542202FB0355774895F8A01395F8AA23D6
:1026E00095F8B43362E095F84634542202FB035562
:1026F000714895F8A11395F8AB2395F8B53355E0DB
:1027000095F84634542202FB03556C4895F8A21301
:1027100095F8AC2395F8B63348E095F84634542242
:1027200002FB0355664895F8A31395F8AD2395F879
:10273000B7333BE095F84634542202FB0355614819
:1027400095F8A41395F8AE2395F8B8332EE095F8D4
:102750004634542202FB03555B4895F8A51395F8BF
:10276000AF2395F8B93321E095F84634542202FBA3
:102770000355564895F8A61395F8B02395F8BA3343
:1027800014E096F84634542202FB0366504896F84B
:10279000A71300E195F84634542202FB03554D4837
:1027A00095F8A81395F8B22395F8BC330BF0A2FF67
:1027B000F3E096F84634542202FB03664648B6F826
:1027C000C813E8E095F84634542202FB0355B5F8E7
:1027D000C00311F013FB414911F064FB11F028FD17
:1027E00001463F48D7E096F84634542202FB036680
:1027F0003C4896F8CA13CEE096F84634542202FBC1
:102800000366394896F8CB13C5E096F8463454224F
:1028100002FB03663548B6F8C413BCE096F84634AC
:10282000542202FB03663248B6F8C613B3E000BF79
:102830002CC001083DC0010849C0010871C0010851
:1028400025BF010877C001087CC0010810BF01083E
:102850001CBF010890C00108A1C00108B0C0010858
:10286000BFC0010808000020CFC00108D9C001087E
:10287000080A0020E6C00108FFC001080AC10108DB
:10288000981700201DC1010829C1010833C10108A2
:102890003DC101084AC1010857C1010861C10108D1
:1028A0006CC1010879C101088BC101089AC10108F6
:1028B000ABC10108BCC10108CEC10108DEC10108DD
:1028C000EEC10108FEC101080FC2010820C20108C3
:1028D00032C2010822C201083CC201080000C842FD
:1028E0004BC2010859C2010870C201087FC2010829
:1028F0009BC2010895F84634542202FB0355B5F8F3
:10290000BE0311F07BFAA24911F0CCFA11F090FC51
:102910000146A0483FE0A04896F81E123BE09F48C1
:1029200096F81F1237E09E48B6F8DC1133E096F8AF
:10293000DF0111F063FA964911F0B4FA11F078FC56
:102940000146984827E09249D6F8F00111F0AAFA1A
:1029500011F06EFC014694481DE0944896F8D91198
:1029600019E0934896F8E81115E0924896F8E711B7
:1029700011E0914896F885120DE0904896F81512EE
:1029800009E08F4896F8461205E08E48B6F84A12DC
:1029900001E08D48B1680BF0ADFEE36B0133E363FA
:1029A0004BE08A4B1B689B011CD5B4F84C30884D1A
:1029B000C3B9884BD5F8509045201E6806F084FCBA
:1029C0000E2006F081FC48460BF008FE30460BF066
:1029D00005FE4FF48053A5F84A300A2388F80030EA
:1029E00006F0F6FC06F090FF27E094F85430002B38
:1029F000F6D0764B1B689E01F2D4092388F800308C
:102A0000F0E7754B1A68236CC8339A4203D996F8DD
:102A1000F3547DB904E00BF03FFD0028F7D10CE042
:102A2000206B0AF067F894F855302563022B01D12A
:102A300011F04EF8012388F800300BF017FD10B1AB
:102A4000012388F80030654B1B78072B04D10AF06E
:102A5000DDF9634BC01B588000232371614B17AD18
:102A60005B6828469847002800F055815B4B187832
:102A700000235D4E032804BF56F8237058494FEADF
:102A8000830208BF21F8137035F913100133032BAB
:102A9000B150EED1554B5448554F1A78014606F0C7
:102AA00003FA3B88002B00F0C880A36DDFF8488153
:102AB0001B7808F10C0504934FF000093B8856F889
:102AC000290005934B4B4FEA890A1A684FF47A7331
:102AD000B3FBF2F3C3EB431203EB8203DB00059A73
:102AE0009BB29A4202BF0023C8F800302B61D8F88D
:102AF00000300344C8F8003011F080F92B6901332D
:102B0000012B2B6104D1002368602860AB602AE0B0
:102B1000D5F800C008936146CDF818C0079011F0B1
:102B2000B7F8089B8346184611F068F901465846E5
:102B300011F06CFADDF818C00146604611F0AAF8F1
:102B40000346079A194668601046069311F0A0F8EC
:102B50000146584611F0A6F9A96811F09BF8069BAA
:102B6000E8602B60A860DFF894B0002346F80A30D4
:102B70004AF80B30059B012B74D1286901283FDDF1
:102B8000013811F03BF90146E86811F03FFA38E0EE
:102B90000000C842B1C20108C5C20108C1C2010893
:102BA000D1C20108DDC20108F0C20108FEC201085D
:102BB0000EC301081FC301082FC3010848C3010841
:102BC00061C3010877C3010894C301084C270020A2
:102BD000080A0020C8310020EC260020D61A002068
:102BE000D81A0020DC160020202B0020051700201A
:102BF000E031002098170020640A0020AC0A002071
:102C0000002015F0D9F80499AB4BC1B105900846E6
:102C1000069311F0F3F8059A0146104611F0FEFAFA
:102C2000069B60B11A684FF47A73B3FBF2F3C3EBFF
:102C3000431203EB8203DB003B80002324E01A688D
:102C40004FF47A73B3FBF2F3C3EB431203EB82034B
:102C5000DB00D8F800209BB202EB530292FBF3F3A7
:102C60004BF80A3009F10109B9F1030F08F1040822
:102C700005F114057FF422AF3888012801D10AF04C
:102C800027F93B88013BD7E78C4D56F8232005F107
:102C9000A40151F82310521A46F823200133032BC4
:102CA000F2D1D5F8B0800021404611F08FFA90BBE8
:102CB00095F8B45095B9804B1A681F4672B1DFF889
:102CC000FC91404609F1B80129443A681C350BF0E3
:102CD000B0FE542DF3D1012389F8B43094F8B43008
:102CE000774FA3B1002556F8250011F087F8754BF2
:102CF0001C2101FB05310BF071FE47F8250014F093
:102D000005FE46F825000135032DECD103E0F068FF
:102D100011F074F8F86094F80C312BB1674A013B5C
:102D200082F80C3100F0EABC674D95F8DF3123B131
:102D300095F8E431013BDBB200E0012384F80C316B
:102D40000AF064F8614B624A1F68624BB5F82212C0
:102D50000646186802F14403B8475F4B1A781D46CF
:102D6000072A04D10AF052F85C4B801B98800AF0C5
:102D70004DF895F800800590B8F1010F0AD1584937
:102D8000D4F81031554A0968C31A93805B1AD3806E
:102D9000C4F81001534B1B68E3B1DE79DEB1524A2F
:102DA0001268950719D5514A1278012A15D9DB788E
:102DB0004F495A430988D31A994295B203DB8A4294
:102DC0001346A8BF0B462DB22D031BB295FBF3F59E
:102DD000012605E01E46354602E001264FF48055E7
:102DE000444BDB780D932EB1BDF944306B431B137C
:102DF000ADF84430404B4FF0000A1B783F4F04932E
:102E00003F4B5A88B3F800900692B3F904B0D4F857
:102E10001421534654460792049A934272D2BDF944
:102E20001800099310F0EAFFB96811F03BF8089018
:102E30000FFA89F010F0E2FF796811F033F8DDF84D
:102E400020C00146604610F025FF079B089093F9CB
:102E5000000040420BFB00F010F0D0FFF96811F0C9
:102E600021F8DDF820C00146604610F013FF11F094
:102E7000DFF911A980B2099B16B100B268430013B3
:102E800021F8130011A931F813100FFA84FE08B2CB
:102E9000704505DC0FFA8AFE7045B8BF8A4600E02F
:102EA0000C46B8F1050F04D1042B9CBF0B4820F849
:102EB000131001331037AFE798170020080A0020DD
:102EC000AC2B0020C00A00201C2C0020B8000020E1
:102ED000082E00207C270020D61A0020D81A0020B7
:102EE000F82A0020B41A0020F8260020C000002094
:102EF000001B0020042700200C1D0020200B0020B8
:102F0000482B0020A04BCAEB04041B68A4B2089312
:102F100013F4805306939D4A35D09D4BD7881B7878
:102F20003EB213F0040F9B4B9A4808BFD3F8DC1154
:102F3000994A04BF098AA3F8D811D3F8DC31B3F851
:102F400010E0964B1B68D988C1EB0E05AE4203DC3E
:102F50001E8813681D8805E071448E4205DB1268E7
:102F60005D885688A0F8D87112E0B0F9D811A9424E
:102F7000D5BF1E88126813685D88D9BF1D88374683
:102F800056882F4604E0844BD7881B681D885E88CE
:102F9000B2B2ABB2C3EB02091FFA89F924B20FFA3D
:102FA00089F0844223DD4FEA003E9EFBF4FE794A1D
:102FB000C2F8E0E1002204998A420BD20DF1440CE0
:102FC0003CF912100EFB01F1C1F30F312CF8121075
:102FD0000132F0E7704A126812897AB90FFA89F261
:102FE000022592FBF5F51D44ADB22E4606E0022601
:102FF00094FBF6F69D19961BADB2B6B210F0FEFE2C
:103000008346204610F0FAFE0146584610F0FEFFB7
:103010006349044611F0E4F840B920464FF07E5170
:1030200011F0FCF818B14FF07E5400E05C4C5D4BA1
:10303000B8F1060F1C6007D15B49204610F032FF43
:1030400011F0F6F8594B5880524B594CB3F9D8212E
:10305000D3F8DC3109920793504B4FF0000BD3F8B3
:1030600000A04D4BD3F80080494B1B7803F00403BC
:10307000DBB20A934F4BB3F906300B934E4B1B68F0
:103080000C93049B5B000E930E9B9B4500F09A8073
:1030900011AB3BF8033038B20F9310F0AFFE474945
:1030A00051F83B1010F0FEFE11F0C2F829B2884230
:1030B0000F9B03DB31B28142A8BF01460B440D9A3E
:1030C0009BB224F8023F1BB212B1B8F8041013E00F
:1030D000069A7AB1079ABAF80600118A099A091A6B
:1030E0008A4204DCB8F80010BAF8000006E0BAF82A
:1030F000021001E0B8F80010B8F802008B4203DBC0
:103100008342A8BF03461946089B2180D8060ED5E6
:103110000A9B63B1069B53B909F012FE38B9079BAD
:103120000B9A5B8A9A42BCBFB8F804302380B8F887
:10313000081031B30C9A4FF47A73B3FBF2F3B1FB7E
:10314000F3F3042B05D942F210718B42A8BF0B4652
:1031500000E005231BB20FFA89F18B4211DA1848FF
:10316000B4F900E03BF900C0C3EB0C018E4504DB71
:103170000CEB03017145A8BF714689B2218020F88C
:103180000B100BF1020B7FE7F82600204E2B0020DE
:10319000EC310020080A0020B41D0020B01D0020E2
:1031A000CDCCCC3DD40300200000C842D81A00206A
:1031B000C21C0020D02B0020F82A0020200B002069
:1031C000EC0B0020C04B1A7802F0040202F0FF035F
:1031D00042B1BE4890F8FC31013BDBB2182B00F243
:1031E0001F810AE0049A9342F3D2B94A32F81310CD
:1031F000B84A22F813100133F4E701229A40B64B83
:103200001340002B00F00C81B44B1B8813F4807F1B
:10321000B34B08D0B34A1188ADF85C10518892883E
:10322000ADF85E1013E0B04A1188ADF85C1051881B
:103230009288ADF85E100699ADF8602049B1D0F8DB
:10324000DC11B3F90640098A8C4202DA5242ADF829
:103250006020A64D4FF47A71B5F902204FF46164F5
:1032600002F5E1624A4392FBF4F2A2F5FA72ADF87C
:103270007420B5F9002002F5E162514391FBF4F1AD
:10328000944AA1F5FA711288ADF87610A2F2DC52D8
:10329000ADF86220D0F8DC211988128A891AADF8BD
:1032A00064105988891AADF866109988891AADF8A2
:1032B0006810D988891AADF86A101989891AADF889
:1032C0006C105989891AADF86E109989DB89891AB1
:1032D0009A1AADF87010ADF872200023844A0021CC
:1032E00022F813100133082BF8D1824B82491B6856
:1032F000824D0493824BD3F800B0824B1B78C3EB12
:10330000C30301EB0308414572D00B7833B103F1DD
:10331000150201239340049A134065D011F806EC7E
:103320000E2707FB0EB7B7F90020B7F9023064206B
:103330009B1A11F9022C9BB25A4392FBF0F211F83E
:1033400005AC4FEA530911F8034CC9EB02024FEAEE
:103350004A061EA892B211F801CC064414B936F8F8
:103360001C0C0CE0B5F9000036F91C6CB04208DA10
:103370000444844203DBA6423046A8BF204628808E
:1033800008E007DD041BB44203DB8442A8BF044607
:1033900026462E80D7F80A40012000FA0AF0204283
:1033A000B5F9006011F9040C12B200FB06F04FF001
:1033B000640690FBF6F014BF4FF0FF3401249042F6
:1033C0000ADB4FFA8CF25A4392FBF6F2C9EB020287
:1033D00012B28242A8BF0246454B33F81E9002FB50
:1033E000049423F81E4000E02B80023507318AE761
:1033F000434B454E1F6800250E2303FB057393F9CD
:10340000064036F9023FE8B26343642493FBF4F4C8
:10341000348009F089FF01352044082D3080EBD13C
:103420003A4E334C3368364D13F0200F31D0002024
:1034300009F07AFF20800746012009F075FF2D4B27
:1034400060801B68190624D5204B284AD3F8203207
:103450001B78012B21D1D5F800C0B2F900309CF9BE
:1034600014104FF0320E4B4393FBFEF399B29CF9CC
:103470000630B2F902205B4253436FF0310293FBF6
:10348000F2F293FBFEF30A443A440B4422801844C0
:103490006080D5F800E000233EE0D5F800E0B2F906
:1034A00002309EF906104FF0320C4B4393FBFCF3B5
:1034B000F91821809EF91430B2F9001001FB03F2D3
:1034C00092FBFCF21044E3E7EC310020080A0020F4
:1034D00084270020C41C0020992098014827002040
:1034E000D02B00204E2B0020482B0020182B002032
:1034F000900900204C270020BF1D0020060C002052
:103500002C1C0020B81D00208E090020F826002069
:103510000133082BE25310D00E2101FB03E134F9F3
:103520001300B1F900205F009042B1F90210EFDB07
:103530000AB28242A8BF0246EAE7724FD7F814B136
:103540009BF90430ABB997F8FC8108F1FF33182BD5
:1035500000F28F80DFE803F0518D8D6B8D8D8D64CF
:103560008D8D8D8D8D758D8D8D8D8D6B818D8D75E9
:1035700051000023A7F82432B7F82492614B0FFAC8
:1035800089F8B8F1070FDEDC93F8262203F50A7AF2
:103590007AB9BBF80200049310F02CFC5A4A1C21A3
:1035A000126801FB08A10BF044FA049B012283F886
:1035B000262234F9180010F021FC1C2101FB08A17F
:1035C0000BF00CFA14F0A2F92A680E2303FB082270
:1035D00080B224F81800B2F9003000B29842B2F973
:1035E000022003DB13B28342A8BF034609F101099D
:1035F00024F81830A7F82492BEE79BF8013013B1E5
:103600000020618908E0414B1B7803F0040303F0BC
:10361000FF00002BF4D1014603F03EFE012529E016
:103620000020E18803F038FE0120218905E0002018
:10363000218903F031FE6189012003F02DFE02256E
:1036400018E00225A81E34F81510C0B2013503F0A9
:1036500023FE082DF6D106250CE00325E81E34F8DC
:103660001510C0B2013503F017FE072DF6D1042561
:1036700000E0002533689A0602D4B8F1050F0AD19C
:103680002846218803F008FE681CC0B2618803F058
:1036900003FE0235EDB23368DB020AD497F8083333
:1036A0009BB11B4B93F8E60093F8E71009F07FFD00
:1036B0000BE0184E00242819C0B236F8021F03F0A0
:1036C000EBFD0D2CEAD00134F5E7134B1B78072BEB
:1036D00005D109F09BFB059BC01A104BD880012334
:1036E0003B710BE00AF0D8FE00283FF4A6A94FF486
:1036F0008053A4F84A300A23FFF79DB91FB0BDE8F4
:10370000F08F00BF080A0020F82A0020EC310020CA
:103710001C2C0020D62B0020D61A0020D81A0020FE
:103720002DE9F04FA14FA24C3A6889B002F59C43B5
:10373000203323609F4B1E78CEB19F4909688A428F
:1037400040F20981013E1E7005E1DFF88C82072DF1
:10375000D8F800308CBF2946595D984B98481B68B3
:103760009847032D09D904EB4505A880013605F0DB
:10377000E3FCF5B28542E8D320E0D8F8002005F15B
:10378000100302EB83039988DA880028EBD04FF40A
:103790007A73401A5843531A90FBF3F040F6C9036A
:1037A00000F57A70984205DC40F2EE239842B8BFEB
:1037B000184601E040F6CA0080B2D4E742F2010A9E
:1037C000804B814E1B68D6F8008003EA0A0ABAFAD9
:1037D0008AFA4FEA5A1A7D4BBAF1000F05D194F8D4
:1037E00028201A707A4A517811701B782BB1784BC7
:1037F00093F8009089F0010900E099460F23DFF863
:10380000F0B184F82930002505F096FC854267DA8E
:103810006B00B9F1000F03D06E4A32F8150000E0DA
:1038200048466D4ADFF8CCC111684FEA850E8A8B95
:1038300082426A4A02D8C98B81421CD25CF80E00CF
:103840005B49804501D2D05A19E0E8B202928DE876
:103850000A000EF073F8032D019B029A0FDC009909
:103860004FF0010E91F829C00EFA05FE2CEA0E0E5B
:1038700081F829E003E008F596714CF80E10BAF1D2
:10388000000F28D194F8BC100322B1FBF2F202EB36
:1038900042028A1AD2B203EB050E724404EB4202D2
:1038A000508594F8BD202AB9022913D9404A012134
:1038B00082F8BD10BBF800203BF8020C1044BBF8A6
:1038C00002201044464A80B2D05200B2032290FB3C
:1038D000F2F080B2414AD05201350BF1060B93E76A
:1038E00094F829203F4BA2F10F0EDEF1000242EBCB
:1038F0000E0284F8D6206AB13B4A1268550109D4F9
:103900003268D9689A60521AC82A1FD9012283F8EE
:1039100021201BE02E4A01215170117032689968F4
:10392000DA605B68521A9A4282BF2E4B002283F8FB
:103930002120002505F000FC854207DAE8B20DF0F1
:10394000FDFF264B23F815000135F3E794F8BC3052
:10395000013384F8BC301B4B1A68984612F4805F20
:1039600005D0214B1B68D80701D40EF0EBFE1A4B93
:103970003D681F68387B00283ED0184ABB7B013861
:1039800032F810001BB1C0F53B60083080B200B2C5
:10399000A0F57A70B0F57A7FA8BF4FF47A7020EA6C
:1039A000E07010F02BFA11495CE000BFC831002034
:1039B000140D002000270020FC260020B400002069
:1039C000B8310020F8260020EC260020001000204E
:1039D00000000020180D0020041B0020D02B002028
:1039E000D20D0020042700204C27002000007A443C
:1039F000400D0020880D0020D8F8003019043AD579
:103A0000D4F8D830A94EEB1A002B34DB05F59C43D3
:103A10002033C6F8D830A64B5A79A64B33F812108B
:103A20008AB2797B92FBF1F196F8DC20013202F048
:103A30000F0386F8DC30334483F8DD1003469E4ADA
:103A4000825C0130134410289BB2F8D11BB293FB67
:103A5000F0F000B26428A8BF642020EAE07010F003
:103A6000CDF9964910F0D2FA954910F01BFA10F0F2
:103A700005FC944B1880D8F80030934E13F4807FE7
:103A800000F0FA80914BDFF848929D4205D999F8F1
:103A9000022012B9012289F8022099F80220002A96
:103AA00000F0EA808A4A8B4992F8215008686A1E21
:103AB000554255413278C0F38063C2F3800B0093C6
:103AC0008A462DB912F0080F0CBF0027022700E02C
:103AD000002799F82020052A00F2CA80DFE802F0CA
:103AE000034C608594B1BBF1000F38D0D4F8F000DE
:103AF000B4F8F41009F0E4F8012809D17649774ABE
:103B000009681268C988642000FB0122C9F81020E6
:103B1000009B5BB1704A126812793AB10FF0A0FEB7
:103B2000032289F820204FF47A7236E0002D40F00D
:103B30009F806A4AD9F810101068654A88420AD9ED
:103B400001920FF08DFE019A032182F8201040F6B9
:103B5000B831D161BDE7012182F82010B9E7009B9F
:103B60004FF4806013B10BF0B1FA01E00BF09EFA54
:103B70000022C9F810207BE0002D57D1564A126868
:103B8000127A012A02D00FF06BFEA2E70FF068FE56
:103B9000032289F8202040F6B832C9F81C2098E7A3
:103BA00025B1052289F82020012000E02846BBF13C
:103BB000000F0BD0D4F8F0200327118A484A118057
:103BC00051809180444909684988D180434A1168ED
:103BD000D9F81420914202D8BBF1000F45D147F229
:103BE0003052C9F81C20032221E0327842F0020250
:103BF00032700EF0A7FD394AD9F81C1012680A4439
:103C0000C9F81820042212E0344A9DB11168D9F88D
:103C1000182091422CD9334A92781AB9DAF8002048
:103C2000D30725D4327822F002023270052289F8B7
:103C300020204EE71268D9F81C100A44C9F8182051
:103C400016E02549254A09681268C988642000FBE6
:103C500001224FF48060C9F81020002289F820204A
:103C600089F803200BF022FA33E700287FF431AF04
:103C700017B1384609F02CF91B4D05F50C70B5F855
:103C8000E01009F01DF8824609F05AF880B3337845
:103C90005F072DD5154BB3F90620B5F84A329A4285
:103CA00037DB012384F8F6303AE000BF140D002022
:103CB000BC1A0020CC1A0020F10D00200000C842E0
:103CC00000C07F445E0F0020EC310020404B4C00D0
:103CD000042700204C270020CC2B0020EC260020BD
:103CE000D02B0020000000201C2C00204E2B002098
:103CF000002384F8F630BAF1000F11D19F49A04B90
:103D00000020002208601A6048605A6088609A604B
:103D100006E0BAF1000F06D194F8F630002BEDD092
:103D20003378580736D5D8F80030D90632D5954BB8
:103D30001B78DA062ED4944B9B7893B195F8873292
:103D4000BAF1000F15D17BB1904B1A68D4F8F83056
:103D50009B1A002B08DA0EF0F5FC8D4B83F8FCA0C3
:103D600018E0BAF1000F0DD1102009F0B1F80123CD
:103D70000EE03BB1854A4FF47A71126801FB0323D0
:103D8000C4F8F83094F8FC3023B109F08DF8002322
:103D900084F8FC300022134695F88612B5F842E20A
:103DA000B5F844C27B4F9B0837F9120001327045C9
:103DB000C4BF63F07F03DBB26045B8BF43F040038C
:103DC000042A0297EED194F8FD2071489A4205D159
:103DD00090F8FE20F92A04D8013200E0002280F891
:103DE000FE2084F8FD30684B694A987899466A4FFE
:103DF00028BB3B68DB070AD582F8FF00BAF1000F49
:103E00001DD13378DB071AD50EF0D6FA17E03378D8
:103E1000580714D5614B1B788BB1614BDB7873B9B4
:103E200092F8FF300133DBB2032B82F8FF3006D962
:103E300011B10EF087FC02E0BAF1000FF9D094F84E
:103E4000FE30DFF84CA1142B6CD199F802308BB105
:103E50009AF8FD305F2B0DD1337803F0040303F0A3
:103E6000FF0B13B10EF06EFC04E00B2009F030F8EC
:103E70008AF8FEB0337803F0040303F0FF01002B4F
:103E800050D194F8FD30424A572B14D1454B1A6853
:103E90004FF47A73B3FBF2F3C3EB431203EB8203E9
:103EA000414ADB001380414B1B685B073AD5404B0E
:103EB0000A221A8036E0D8F80000400717D55A2B9E
:103EC00015D192F800312BB1012382F8001182F84C
:103ED000013127E092F8023183F0010382F80231C8
:103EE0000BB10C2000E00D2008F0F2FF1AE05D2B72
:103EF00000F095855B2B00F094855E2B02D10320AA
:103F000000F090BD562B01D10BF000FA99F8023069
:103F1000002B00F08D8594F8FD306F2B40F08885E4
:103F20000EF04AFAD8F80030580752D594F802310A
:103F3000174A93B1337859070FD5029BB3F906108E
:103F4000B5F84232994208DD3B6813F0010302BF25
:103F50003221A2F8141182F802313B68DA0329D524
:103F600094F816210A4B2AB993F8002112B932228B
:103F7000A3F81421012384F816312AE0302B002005
:103F8000B82B0020600F002000000020EC2600204D
:103F9000140D0020D02B00204C2700200010002002
:103FA0000427002098170020E031002090170020FF
:103FB000E431002094F80031BF4A53B1337803F064
:103FC000040303F0FF0123B9012382F8001182F8F2
:103FD0000131DFF8049300233B6009F1500A19F81E
:103FE000010C494608F046FE38B119F8022C0123AD
:103FF00003FA02F23B6813433B6009F10409D1451F
:10400000EDD1AE4B1B7853B1AD4FDFF8D0A23B687A
:10401000DFF8CC9213F0020F40F0D381CAE1A94F30
:1040200007F15A0917F8010C394608F023FE08B3C6
:1040300097F804E00C21BB7801FB0E41A24A013B3A
:1040400003EB43031344D1F81C2197F803A09A42D1
:1040500099480FD0C1F81C31002390F84821C1F8CD
:104060002031012303FA0EF322EA030381F818A199
:1040700080F8483106374F45D4D1944BD4F84C7171
:104080001B68DFF860B20193914B1B780393002308
:104090000093DBF80010002900F0838191F8009074
:1040A000B9F1000F00F07D81DBF80430019AD31ADA
:1040B000002B0CDB02F5FA73009ACBF804300123D5
:1040C000934094F8482122EA030384F84831039B83
:1040D000002B00F066811BF8042C4B780432D2B21E
:1040E000002B40F027817B4B33F91220B5F840328A
:1040F00003F1C800824202DD91F802A015E0C83B3E
:104100009A4203DA8978C1F1000A0EE0009A01238D
:10411000934094F8482122EA030384F84831019B34
:1041200003F5FA73CBF804303BE1009B94F8482187
:104130001A41D30700F13581BAF1000FCCBF02203C
:10414000012008F0FBFE09F1FF32132A00F2218161
:10415000DFE812F014001E0028003C0055005C004F
:1041600079009600CA00D600E4001F013C004B0015
:104170005C00790096006D008A00A6003978012065
:104180005144FA29A8BFFA2121EAE1713970C2E04D
:10419000B978022051446429A8BF642121EAE17161
:1041A000B970B8E097F804903846D144B9F1640F7B
:1041B000A8BF4FF0640929EAE979D4F8501187F8CB
:1041C000049008F0E9FC03204946A4E0B9790D20E9
:1041D00051446429A8BF642121EAE171B97108F052
:1041E0008FFDB9F10D0F00F0D48079790E20514484
:1041F0006429A8BF642121EAE17179718BE0F97922
:104200000520514481F30801F97184E0D4F8542168
:104210000F2091785144C829A8BFC82121EAE17133
:10422000917008F06DFDB9F10F0F00F0B280D4F875
:104230005421122051785144C829A8BFC82121EA2D
:10424000E171517067E0D4F854211020117B514482
:10425000C829A8BFC82121EAE171117308F050FDF7
:10426000B9F1100F00F09580D4F854211320D17AC1
:104270005144C829A8BFC82121EAE171D1724AE09E
:10428000D4F854211120917D5144C829A8BFC821D8
:1042900021EAE171917508F033FDB9F1110F78D081
:1042A000D4F854211420517D5144C829A8BFC821F5
:1042B00021EAE17151752EE0140D0020EA31002051
:1042C0004C270020B4300020889F0108EC260020F5
:1042D00000100020D02B0020653000209017002017
:1042E00048270020300E0020D4F854210920D1782E
:1042F0005144C829A8BFC82121EAE171D1700AE060
:10430000D4F854210A20517B5144C829A8BFC821A0
:1043100021EAE171517308F0F3FC3AE0D4F854213A
:104320000B20D17D5144C829A8BFC82121EAE171E1
:10433000D175F0E7012B2CD1029B887833F912302C
:10434000B3F5617F05DB40F633029342A8BF134605
:1043500001E04FF46173B9F10C0F1AD14FF496627A
:1043600092FBF0F0A3F5617393FBF0F39D4ADBB28F
:1043700012789A420DD0184604930AF0F1FE049B7D
:104380004846194608F0BCFC049B581CC0B208F013
:10439000D5FD009A0123934094F84821134384F8F3
:1043A0004831009B0BF10C0B0133042B00937FF47D
:1043B00070AE29E6D8F80030D8050FD58A4BDB78E7
:1043C00063B1DAF80030990708D5B9F8003013F076
:1043D000010B08D101200AF079FE04E001200AF067
:1043E00065FE012300E000233A6852070BD553B164
:1043F00001200AF05BFEB9F80030980706D40220CD
:104400000AF064FE02E002200AF050FE774BB9F891
:10441000002099689B8912F0030F14BF4B610B6158
:10442000DAF8003013F00A0F2DD03B68D9060DD50D
:1044300052070ED404200AF049FE6D4B0A22B3F94C
:10444000043093FBF2F3A4F8583102E004200AF0A0
:104450002DFE3B689B0607D5B9F80030580606D4F8
:1044600040200AF033FE02E040200AF01FFE3B68C5
:10447000590641BF5E4B0A22B3F9043093FBF2F3B5
:1044800048BFA4F85A313B684FF480701A0502D532
:104490000AF01CFE01E00AF009FE6B79082B01D03E
:1044A0000E2B02D140200AF001FED8F800305B0547
:1044B00018D595F8C8321BB9337813F0040F02E011
:1044C0003B6813F4002F09D04A4B00221A703C209D
:1044D00003F0ECFE30B10DF039FBF8E707F0CCFE4D
:1044E0000FF0F6FA012384F85C31D4F84C81424B8A
:1044F000B8F80A20B3F90660964211DBB6F5FA6FF8
:1045000098F80890BFBFB31A03FB09F3A2F5FA6944
:1045100093FBF9F9ACBFC9F1640909F1640901E041
:104520004FF0640995F81E32B5F840A2009395F853
:104530001F320027019395F9D8315B429BB2029359
:104540002D4A2E4B32F917B040F2E632CAEB0B007F
:1045500000F2F311914207F80390294D4FEA470307
:1045600056D80028B8BF4042022F55D0009A90423A
:1045700002DD009A801A00E0002005930FF03EFC57
:1045800020490FF043FD039098F802000FF032FC31
:10459000039A0490114610460FF084FC1A490FF05C
:1045A00077FBDDF810C0014660460FF07BFC174931
:1045B0000FF070FB039A11460FF074FC039098F80B
:1045C00000000FF017FC039A014610460FF06AFC3A
:1045D0000E490FF01BFD0FF02BFE059BD345E85253
:1045E00056DB59E0F6260020042700202C27002067
:1045F000182B0020AC170020D02B00202C2B0020E3
:104600004E2B00200000C8420000C84100401C455D
:10461000022F4FF4FA70ACD1019A05939042CCBFAF
:10462000801A00200FF0EAFBA6490FF0EFFC039080
:1046300098F809000FF0DEFB039A0490114610462B
:104640000FF030FCA0490FF023FBDDF810C001464D
:1046500060460FF027FC9D490FF01CFB039A1146A2
:104660000FF020FC039098F801000FF0C3FB039AB1
:10467000014610460FF016FC94490FF0C7FC0FF0EE
:10468000D7FD029BD34500FB03F0059BA88007DA0A
:104690008F495A5A52425A520137032F7FF450AF72
:1046A0008C4B8D4F196811F480510DD0B6F57A7F7F
:1046B00005DBB6F5FA6FA8BF4FF4FA6601E04FF4D8
:1046C0007A76A6F57A7612E0B7F84222964205DBB2
:1046D000B6F5FA6FA8BF4FF4FA6600E01646B61AB0
:1046E0004FF47A737343C2F5FA66B3FBF6F66423AC
:1046F00096FBF3F0DFF810C26FF0630E3CF8102069
:104700000EFB006601303CF910000FFA82FECEEB82
:104710000000464396FBF3F36D4813449BB2C380FD
:10472000B1B16E4A1268D60012D56D4AD2787AB904
:10473000A3F57A731BB21A034FF47A7392FBF3F367
:10474000CAF5FA6109B24B430AEB233AA0F806A076
:10475000644E338803F040031FFA83F8B8F1000F6A
:1047600043D0614B0A20B3F9043093FBF0F0B4F866
:104770005A31C01A00B20FF041FB5C490FF092FBB6
:104780005B4904460FF086FA0AF01FFC814620467A
:104790000AF01BFC0446B5F902000FF02FFB82461D
:1047A000B5F900000FF02AFB494683460FF07AFB6B
:1047B0002146009050460FF075FB009B01461846BD
:1047C0000FF066FA0FF034FD4946288050460FF08E
:1047D00069FB2146814658460FF064FB0146484676
:1047E0000FF058FA0FF024FD688097F84702002870
:1047F0005CD0B8F1000F59D13E4CDFF8108194F82D
:104800005D31834213D084F85D010FF0F7FA374928
:104810000FF048FB364907460FF03CFA0AF0D5FB8B
:10482000C8F8040038460AF0D0FBC4F86001B5F9B6
:1048300000000FF0E3FA0746B5F904000FF0DEFAC6
:10484000D8F804808146414638460FF02BFBD4F857
:1048500060A10446514648460FF024FB014620461D
:104860000FF016FA0FF0E4FC234CB0F5FA7FA8BF66
:104870004FF4FA70A042B8BF20464146288048460F
:104880000FF010FB5146804638460FF00BFB0146F7
:1048900040460FF0FFF90FF0CBFCB0F5FA7FA8BF50
:1048A0004FF4FA70A042B8BF2046A880134B144DB5
:1048B0001A7812F0040F2BD0124B1A689B885361A0
:1048C00067E000BF0000C8420000C84100401C452E
:1048D0004E2B0020F82600201C2C00204C27002006
:1048E0000427002048270020182B002035FA8E3C92
:1048F000DB0FC93F140D00200CFEFFFFEC31002040
:10490000901700202C270020841C0020000000208D
:1049100072490968C90703D5714991F8641111B149
:1049200042F001021A706F4A6F49127812075EBF97
:104930001A7822F001021A702A6812F0040F02D0CD
:104940006A48008878B96648B0F8040108B197074A
:1049500009D4674A1288003218BF01221AB9654883
:104960000088642806D902220A701A7822F001020F
:104970001A7005E01B78DC0756BF02230A700B7023
:1049800008F044FA5C4B1B68C01A002801DB0DF0EC
:1049900021F82B6858071CD5504B1B68190703D406
:1049A00008200AF083FB14E0348804F00804A4B261
:1049B0007CB908200AF08AFB504B1A68504B1A60E9
:1049C000504BDA88464BA3F866214F4B1C604F4B87
:1049D0001C602B68DA067DD5404B1B689B0206D411
:1049E0004FF4007009B0BDE8F04F0AF05FBB3488A7
:1049F00004F40074A4B2002C6CD14FF400700AF0DF
:104A000065FB3E4B1A683E4B1A603E4BDA88344BCE
:104A1000A3F866213C4B1C603C4B1C605AE0012013
:104A200000E002200138C0B20AF05EFCFFF77ABA5B
:104A300094F8FD302A4A972B05D14FF4C873A2F899
:104A40000431FFF76FBAA72B06D1264A137843F03B
:104A500004031370FFF766BA0021BB2B079101D145
:104A6000022303E0B72B04D14FF6FE73ADF81E30DE
:104A700009E0BE2B01D1022303E0BD2B18D14FF674
:104A8000FE73ADF81C30BDF81C20B5F8EC311344B2
:104A9000A5F8EC31BDF81E20B5F8EE311344A5F8A9
:104AA000EE310AF033FC002384F8FE30FFF73ABA07
:104AB000792B04D192F80B3123F0010306E07A2B15
:104AC0007FF430AA92F80B3143F0010382F80B31E6
:104AD000FFF728BA09B0BDE8F08F00BF4C270020CF
:104AE000140D0020600F002028270020E431002052
:104AF000E0310020F226002044270020A82A0020D0
:104B0000B42A0020D02B0020BC2A0020C02A00207C
:104B10009148F0B50368914A9C8AA4B2E1B211F0C1
:104B2000010F2ED0198821F400610904090C1980A5
:104B3000198889B241F4806119800021117051787F
:104B400099B1917811B9D178FF290ED101219170D5
:104B50001179022901BF198889B241F400611980D5
:104B6000517941F001011982E1E0517901F0FE0132
:104B70001982D378FF2B00F0DA80784BFF2119706F
:104B8000D5E08E073AD5BFF35F8F1479E4B2012CDC
:104B900013D1517889B1917879B1198821F4806164
:104BA0000904090C1980BFF35F8F198B1988947160
:104BB00089B241F4007119801BE0198BBFF35F8F3C
:104BC00014796649022C0AD14C7844B1897831B104
:104BD000198821F480610904090C1980A1E0147975
:104BE0005E49032C05D14C781CB18978002940F02E
:104BF0009880998889B241F4806197E04D0756D535
:104C0000012191715178002937D09178002934D051
:104C100011791C88022911781DD924F48064240498
:104C2000240C1C801E8A9568CCB2F6B249B26E5430
:104C3000198889B241F4007119800168A31C1370AE
:104C40000B8A0134DBB264B22B558B889BB243F4E0
:104C500080638B8026E0A4B244F400741C801D8A1B
:104C60009668CCB2EDB249B275541B8A611C49B248
:104C7000DBB203347354147014E09178374C09B9E3
:104C8000217B41B1198889B241F4007119801378F0
:104C90000133137006E0198889B241F480711980DC
:104CA0000123A37001680B88DB05FCD43FE001F011
:104CB000400101F0FF05E1B114781F8A9668E5B262
:104CC000691C64B2FFB23755C9B21679117049B286
:104CD000CC1CA64201BF9C8824F480642404240CCC
:104CE00008BF9C8013798B4221D11C4B02351D706B
:104CF0001DE027061BD511784CB2661C0AD0156939
:104D000001312C5DC9B21C821479117049B28C42F8
:104D10000DD106E0D17815701982517809B9117951
:104D200029B9998821F480610904090C99801379C3
:104D300092F9004001339C4208490CD100238B704A
:104D40008B7933B101688B8823F440731B041B0CEF
:104D50008B8000231375F0BDFC2500207C0E002005
:104D60006B4B6C4A2DE9F04F5E8994694FEA062A35
:104D7000B4EB0A0A9C884FF000054FEA04481C89EE
:104D80004FF0000BA4FB0A6765EB0B0B04FB0B77E2
:104D9000F40944EA476418EB04065C884FF0000904
:104DA0004FEAE7154FEAC438DC8849EB050787B0BE
:104DB000CDE90467A4FB0A6704FB0B77340A44EAD5
:104DC000076418EB04064FEA27259C894FF0000979
:104DD00049EB0507CDE90067AAFB046704FB0B77E5
:104DE000F40D44EA472414F5FA664FEAE75545F115
:104DF0000007B6F5FA6F77F10003CDE90267964632
:104E000066DADDE90489A4FB046704FB05F34FF0CF
:104E1000050C07EB4307A6FB0C230CFB07335F10C5
:104E20004FEA3206B8EB06084FEA920646EA837666
:104E300069EB07099F10DDE90023921B63EB070371
:104E4000CDE90023DDE90267334A4FF0FF33964294
:104E500077EB0303CDE9048927DA40F6AC5200234F
:104E6000A4185D4104FB05F3A4FB04456FF00602A2
:104E700005EB4305664202FB0566A4FB02233344AF
:104E800018EB020649EB0307CDE904670B26A4FBE8
:104E9000062306FB0533DDE900455B104FEA3202CD
:104EA000A41A65EB0305CDE90045DDE902450AFBDF
:104EB0000BF3AAFB0AAB0BEB430B4FEADA7242EAA5
:104EC0004B02A41A4FEAEB7365EB0305CDE90245EB
:104ED000DEF81C40009B019DA4FB032304FB05336B
:104EE0004FEA525848EAC3284FEA6359DDE90423E0
:104EF000B8EB020269EB03039946D30B43EA49433B
:104F000000B1036009B1029B0B6007B0BDE8F08FF0
:104F1000081700207C0E002024FAFFFF2DE9F04F37
:104F20006D4B6E4C1E6A228887B0C2EB26135B4322
:104F30005200C2EBE602B4F902601B135643B4F907
:104F40000420029153439B1303EBE62606EB8603F2
:104F500080331B120493624BB6F5FA384FEAE677BA
:104F60001B6847F1FF39A8FB08AB039308FB09F363
:104F7000B4F908200BEB430BE38905460593D317DF
:104F800008FB03F102FB0911A8FB0223B4F90A0094
:104F90000B44C1171F030AFB01F300FB0B33AAFBF1
:104FA000000147EA12571944A6611603020A42EAB1
:104FB000016292194FEA2123E6887B410032A2FB6D
:104FC000060143F5004306FB03114B100093CB177A
:104FD0000193DDE900231343B4F810E0B4F80CC0EA
:104FE0006DD00FFA8EF0C1170AFB01F1AAFB002366
:104FF00000FB0B11BDF914600B44F71708FB07F118
:1050000006FB0911A8FB06670F4479047004801899
:1050100041EAD6315941039B0FFA8CF8C3F5801E43
:105020007246D317002212184FEACE764FEAC377A2
:105030004FEAC8034B4147EA5E07B61A67EB03071E
:1050400040F63543A6FB030103FB0711DDE900230E
:105050000FF034F9B4F916204E1302FB06FE470B8D
:1050600047EAC147D31707FB03EEA2FB07235643CA
:10507000734407FB0366A2FB07233344560E46EA3C
:10508000C3168219B4F914604FEA636741EB070352
:105090007143F71700FB0717A6FB00013944C60C44
:1050A00046EA413692194FEAE1474FEA1221B4F934
:1050B00012207B4141EA036113010B4400E000230D
:1050C0000DB11B0A2B60029B13B11A46049B13609F
:1050D00007B0BDE8F08F00BF7C0E002074170020E1
:1050E000C0310020704770472DE9F041324C334DFC
:1050F0006289AB8CB4F904809A1A2389B4F902E06E
:105100005A43B4F91230D613B4F91420DB023244F6
:1051100093FBF2F232440A26E2615643A2F57A6228
:1051200002FB02F3B4F90EC002FB0EFE02FB08F212
:10513000B4F90C801B130CFB03FC03FB08F31B14DA
:1051400003EB62320232E388921002F500425343CD
:105150004CF25032B4F920704FEAEE2EB4F9004010
:105160000EEBEC2C0CEB8404BC40AD6A0234A5EBD6
:10517000A4043A4162434FEAD3384EBFB2FBF8F37E
:105180005400B4FBF8F340F6DE3448BF5B001A125B
:10519000524362430A4C08365C43241404EB224217
:1051A00002F6CF62361103EB221300B1036001B1A6
:1051B0000E60BDE8F08100BF1C1700207C0E0020AF
:1051C00043E3FFFF13B50C4B04465B681B20022131
:1051D00001AA984770B19DF804209DF8053043EA74
:1051E000022303F54E5310334FF48C7293FBF2F30A
:1051F0002333238002B010BDF4160020064B93F831
:105200002C2002F0FF012AB101220270002283F853
:105210002C207047017070477C0E002037B5104B72
:1052200004465D68187806216A46A847A8B19DF82B
:1052300000209DF80130012043EA022323809DF8DD
:1052400002209DF8033043EA022363809DF8042086
:105250009DF8053043EA0223A38003B030BD00BFB0
:10526000F416002013B5104B04465B683B20062162
:105270006A469847A8B19DF800209DF801300120AA
:1052800043EA022323809DF802209DF8033043EA7D
:10529000022363809DF804209DF8053043EA022331
:1052A000A38002B010BD00BFF416002010B5224C40
:1052B0002368998A89B211F4706F1EBF1F4A0120BA
:1052C00082F82D0011F4E06F2BD01A8B9A88890593
:1052D00022F480624FEA02424FEA12429A8020D4BE
:1052E0001A8892051DD41A88D0050FD51A88D105C1
:1052F000FCD41A8892B242F400721A801A8892057D
:10530000FCD40F4B18780AF03AFE0AE01A8892B2E1
:1053100042F400721A809A8822F440721204120C2D
:105320009A802268938A23F470631B041B0C938277
:10533000024B00221A7510BDFC2500207C0E0020B7
:1053400000260020054A08B5138801339BB213805C
:10535000034B18780AF013FE002008BDF426002045
:105360000026002008B54FF4804003F01BFD012803
:1053700001BF044B4FF480425A61034B08BF83F8CE
:105380002E0008BD000401407C0E002010B5074C23
:105390002368186903F006FD38B123681A69044BC5
:1053A0005A61044B012283F82C2010BD0017002005
:1053B000000401407C0E0020F8B50E461746084C4C
:1053C0004FF48055656140F080000EF0B5FA384624
:1053D000002132460EF082FA25610120F8BD00BF9F
:1053E000000C014070B50E46054C4FF480556561C8
:1053F0000EF0A2FA30460EF09FFA2561012070BD32
:10540000000C014070B5104C0546192007F025FD31
:10541000A36815200021984710B9022007F0A6FDC7
:10542000A36845F0180116209847A36800211720AB
:105430009847A36801213D209847A3683E20012199
:10544000BDE87040184700BFF4160020F0B5284DA5
:1054500085B095F82F30002B47D1264C2368002BC0
:1054600043D01A68244E12B1B1690A43B2619A88D6
:105470009868ADF8002002228DF8032069460422C6
:105480008DF8022002F015F8B369002743F00103FC
:10549000B36123680126187B197D01F0F5FF2368AD
:1054A000164993F9150007F0AFFD2368144A1B69EC
:1054B0005361029308230DEB03008DF80D308DF836
:1054C0000C708DF80E6003F03DFC236801A85B7D35
:1054D0008DF806708DF8043003238DF805308DF8B3
:1054E00007600EF0DDF985F82F6005B0F0BD00BF54
:1054F0007C0E002000170020001002408D53000891
:105500000004014037B50546FFF7A0FF2C4B1A6891
:105510002C4B9A420ED14FF40053ADF804300223C5
:105520008DF80730042328480DEB03018DF8063071
:1055300001F0BFFF254CFFF789FFA36880216B2096
:105540009847642007F089FCA368072168209847E2
:10555000642007F082FCA36800216B209847642038
:1055600007F07BFCA36801216B2098470F2007F010
:1055700074FCA36818211B2098470F2007F06DFCCE
:10558000A36818211C2098470F2007F066FCA36829
:1055900029461A2098470F2007F05FFC0C4AA368A1
:1055A000117819209847642007F057FCA368102150
:1055B00037209847A36801213820984703B030BDB1
:1055C00084000020001BB70000100140F4160020EA
:1055D0009417002008B5FFF739FF024B4FF4006223
:1055E0001A8008BD0800002070B50546154CFFF76D
:1055F0002DFFA36880216B209847642007F02DFCC5
:10560000A36803216B2098470F4AA36811781920DB
:1056100098470F2007F021FCA36829461A209847D5
:10562000A36818211B209847A36818211C209847BD
:10563000A368022137209847A36838200121BDE8DC
:1056400070401847F41600209417002008B5FFF7A3
:10565000FDFE074B5B7813B1012B03D008BD4FF45F
:10566000806201E04FF40062024B1A8008BD00BF67
:10567000F01600200800002010B51E4C4000C0B2FB
:10568000A36023611C4B6071E17001200021217334
:10569000607022712075186884F82D1040B38388DB
:1056A0009B0515D40388D9050DD44FF48053028887
:1056B000920502D5013BFAD112E08BB103889BB26F
:1056C00043F48073038083889BB243F440738380E8
:1056D0004FF48053227D12B1013BFBD100E013B99E
:1056E000BDE810402EE6034B93F82D0080F001003A
:1056F00010BD00BF7C0E0020FC25002007B5002156
:1057000001AB03227720FFF7B7FF9DF805309DF826
:1057100004001B0243EA00439DF80600184303B04F
:105720005DF804FB08B5FFF7E9FF014BD86108BD40
:105730007C0E002008B5FFF7E1FF014B986108BD22
:105740007C0E002007B5F7216B4606227620FFF776
:1057500093FF9DF800309DF801201B0343EA0213DC
:105760009DF8022043EA1213084A13609DF80330A3
:105770009DF804201B0343EA02139DF8052043EA29
:105780001213034A136203B05DF804FBC03100201A
:105790007C0E0020104B13B51B78104C13B194F8FD
:1057A0002E30B3B1032201AB7720F621FFF764FF5F
:1057B0009DF805309DF804201B0243EA02439DF842
:1057C00006201343064AB2F92020C2F10802D34052
:1057D000A36202B010BD00BF810000207C0E00203B
:1057E0001C1700200B4B13B51B780B4C13B194F80E
:1057F0002E3063B1022201AB7720F621FFF73CFF88
:105800009DF804209DF8053043EA0223A38402B0EA
:1058100010BD00BF810000207C0E002030B5054681
:105820000C46134629462246BDE83040682023E74F
:1058300013B50622044601211C206B46FFF71CFF0E
:1058400008B39DF801309DF80020042143EA0222AC
:1058500042F38D0292FBF1F29DF8023022809DF816
:10586000032042EA032242F38D0292FBF1F29DF8FB
:10587000043062809DF8052042EA032343F38D0340
:1058800093FBF1F3A38002B010BD13B506220446CA
:10589000022118206B46FFF7EFFEB8B19DF80030EB
:1058A0009DF801209B0803EB022323809DF8023022
:1058B0009DF803209B0803EB022363809DF80430CE
:1058C0009DF805209B0803EB0223A38002B010BDC6
:1058D000314B2DE9F3411B780546002B3CD00024C9
:1058E00026462746A04601345320322108226B4623
:1058F000E4B2FFF7C1FE08B900204AE09DF801209C
:105900009DF80030202C03EB02231BB29DF80320EE
:1059100098449DF8023003EB02231BB21F449DF80C
:1059200005209DF8043003EB02231BB21E449DF8B2
:10593000073003F07F0301D0002BD4D198FBF4F89B
:1059400097FBF4F796FBF4F6144BA5F800806F80F4
:10595000AE8083F830401CE05320322106226B4693
:10596000FFF78AFE0028C7D09DF801209DF800307F
:1059700003EB02232B809DF803209DF8023003EBFC
:1059800002236B809DF805209DF8043003EB022371
:10599000AB8002B0BDE8F081061700207C0E00202D
:1059A00013B5204B400002ACC0B2587104F8012D71
:1059B000D970012200211A7359701A711A751A4A86
:1059C0001C6110689C6083F82D1040B3828892059A
:1059D00015D40288D4050DD44FF48052018889056E
:1059E00002D5013AFAD112E08AB1028892B242F4A9
:1059F00080720280828892B242F4407282804FF4B8
:105A00008052197D11B1013AFBD100E012B9FFF7C4
:105A100099FC04E0034B93F82D0080F0010002B0E4
:105A200010BD00BF7C0E0020FC25002077204821FF
:105A30000122B5E7772058210122B1E77620F42131
:105A40003122ADE7064B002193F82020054B92014F
:105A5000343283F82E107720F42102F0FC029FE705
:105A60001C1700207C0E0020034B002283F82E2000
:105A70007720F4212E2293E77C0E002003460A466D
:105A8000682019468CE713B500222A211C20FFF755
:105A900087FF0E2102221C20FFF782FF0F21032225
:105AA0001C20FFF77DFF2B2112221C20FFF778FF1F
:105AB000164A02249369164843F004039361202395
:105AC000ADF8043004230DEB03018DF806308DF89A
:105AD000074001F0EEFC22462C211C20FFF760FF5E
