:020000040800F2
:1000000000A00020256201088D620108DD4601087C
:100010008D6201088D6201088D62010800000000F8
:100020000000000000000000000000008D620108D8
:100030008D620108000000008D620108C30C0108F8
:100040008D6201088D6201088D6201088D620108D0
:100050008D6201088D620108EDE30008EBE3000802
:100060008D6201088D6201088D6201088D620108B0
:10007000510C0108410C0108E90801088D620108D2
:10008000310C0108210C01088D6201088D62010804
:100090008D6201088D6201088D620108E9E30008A4
:1000A00065060108A106010855060108C5060108F4
:1000B0009506010885060108750601088D6201088C
:1000C0008D6201088D6201088D6201088D62010850
:1000D0008D620108E1080108D9080108D10801086A
:1000E000D10C01088D6201088D6201088D62010842
:1000F0008D6201088D6201088D6201088D62010820
:100100000000000000000000000000008D620108F7
:100110008D6201088D6201088D6201088D620108FF
:100120008D6201088D6201088D6201088D620108EF
:100130008D6201088D6201080000000000000000CF
:100140008D6201088D6201088D62010800000000C7
:10015000000000000000000000000000000000009F
:1001600000000000000000008D6201088D6201089F
:100170008D62010800000000000000000000000087
:08018000000000008D6201087F
:100188002DE9F04FA84BA94C1B68A94E9F6AA94DB1
:100198002DED048BA1B010F05FFD2368C01A3080EC
:1001A80010F05AFD2B782060012B01BFA24B32883A
:1001B8001A80A24A04BF12885A8010F04DFD0646E4
:1001C8009F4BDB686BB119A898479DF8643043B121
:1001D8002B78072B10D110F03FFD974B801B188010
:1001E8000AE010F039FD974A23681268FB1A184490
:1001F80050329042E4D3EBE723798C4D002B00F08A
:100208009C8610F029FD904BEE881B68B6FBF3F630
:100218008E4B771C1B78BFB280462F8183B3DFF8E3
:10022800749200258A4B284633F9151014F0C4F946
:100238000135032DA9EC010AF4D1B4F80A90002184
:100248007A48834B00F1140500F10C0C33F811E0E7
:1002580035F811303CF8112025F811E0C3EB0E0AEF
:1002680012FB09F23BB292FBF3F353442CF8113022
:1002780001310429E4D1754B468100221A7002E04D
:100288006B89013B6B816089684A03B2002B4FF090
:10029800000322DDB2F908606E496F4D31F8132072
:1002A800083112FB00F231F8131092FBF6F28A1AA9
:1002B80025F813200133042BEED10020B5F90010E6
:1002C800664E14F079F90120B5F9021086ED000A9E
:1002D80014F072F986ED010A00E05381584F059732
:1002E800BB680BB15E4898475E4E5F4D316811F0B0
:1002F800080F4BD0564A5D4F908800F10E039BB211
:100308001C2B5B4BB3F904303CD8DFF870C1BCF848
:1003180000C01CF0040F35D0B7F800E04FF00A0C0D
:1003280093FBFCF3CEEB03039BB21FFA83FC0FFA9B
:100338008CFE1EF1B30FBCBF03F5B4731FFA83FC28
:100348000FFA8CF3B32BC4BFACF5B4731FFA83FC5C
:10035800484B95F8D8E11B781F0717D5464F4FFA39
:100368008EFE3F68CEF1000E1CFB0EF397F809E0F5
:100378009BB213FB0EF36FF01D0E93FBFEF31844B4
:10038800908003E00A2293FBF2F33B8011F0140FF4
:1003980000F0B380394B1B8803F40273002B00F084
:1003A800AC80344B2A4A1B7803F0100303F0FF0C8F
:1003B8004BB1334B95F99C12B3F90000538800FBFD
:1003C8000133538099E0236A1849DF782D48DFF814
:1003D800C8909B78002F61D0B9F900E0B0F9069079
:1003E800CEEB090787EAE770A0EBE77098420EDDCD
:1003F8002548F145C0F800C04FF0010081F82400FD
:10040800C8BF5B42D1889BB20B44D38075E091F89A
:1004180024302BB11D4B81F824C018681C4B186080
:10042800174B1B6873445EE078270020F80900200A
:10043800803600204E14002050140020422E002048
:100448006C17002010180020502B0020C40F00202B
:10045800A62B0020040A0020682B0020602B002017
:10046800140A002098170020A83000202C0F002024
:10047800702B002000100020C4200020BC14002095
:10048800D027002044300020CC270020C0100020B6
:10049800C4270020542B0020CE0F0020B9F900C03B
:1004A800B0F90600CCEB000080EAE079A9EBE0792E
:1004B80099450ADD022390FBF3F0AF4B1860AF4873
:1004C8000123037081F824300AE091F824303BB10D
:1004D800AB4B81F824701868AA4B1860A74B1F70A3
:1004E800A94B1B686344A06A018840888B4203DBE0
:1004F8008342A8BF03461946D180A44B1B78EBB1B1
:10050800A34BB3F90620B5F84E329A4216DCA14B3C
:100518005B79012B01D0192B02D195F897226AB982
:100528000E2B0BD0082B09D09B4A002393809B4AA3
:1005380093809B4A002393609A4A936095F80C72C3
:100548009FB3994B1B8898072FD0984BDFED987A6B
:1005580093ED080AB4EEE70AF1EE10FA20D918F084
:1005680053FAD4ED0B7A20EE270A18F0C9F9B0F542
:10057800617FA8BF4FF4617007EE900AB8EEE70AF2
:10058800DFED8C7A80EE270A0CF06BFC07EE907A90
:10059800F8EEE77A27EE800A18F0B2F980B200E0A8
:1005A80000207E4AD3881844D0803368990640F1E9
:1005B8009E807D4B1B8803F03003002B00F0978052
:1005C8007D4B1B78DA0740F192807C4BDFED7C7A1B
:1005D800B3F90430DFF808920A2293FBF2F308EE2D
:1005E800103AB8EEC88A28EE278AB0EE480A0CF00E
:1005F80038FCF0EE408AB0EE480A0CF093FC714BE0
:10060800714A1B68DF78B0EE409AB2EE048A002F78
:1006180049D06E4EB2F90200B6F802A006920FFA5F
:100628008AF3C01A0DF092FC7B429842B346069AB0
:1006380003DBB842A8BF384600E018465044BBF870
:10064800006006931FFA80FAB2F90000ABF802A026
:1006580032B2801A0DF07AFC069B984203DBB8424E
:100668000346A8BF3B461E44B6B2ABF8006036B29C
:1006780007EE106A0FFA8AFAB8EEC70A07EE90AAD0
:1006880028EEC07AF8EEE77A20EE090AA7EE897A12
:10069800A7EEA80A87EE087ABDEEC77A17EE103AD9
:1006A800A9F800301BE0B2F9023007EE103AB2F9AF
:1006B800003000EE103AB8EEC00AB8EEC77A68EE1D
:1006C800C07A20EE090AE7EE097AA7EE280AC7EEF3
:1006D800887AFDEEE77A17EE903AA9F8003080EEB6
:1006E800080AFDEEC07A17EE903AA9F80230384BA6
:1006F8001878002840F01584364B1A6812F4002F39
:10070800994600F00E84344E3378033B052B1AD8F3
:1007180095F8FF3433B1012B08D10DF029FEC0F153
:100728007F0003E0206B03689B689847636B94F82D
:1007380038201344B3F5807FA8BF4FF480738342F9
:10074800D4BF636360633378023B092B00F2E48310
:10075800DFE813F00A00480075009500A900C00002
:10076800D1004603BC03C70300236363E3631B4B49
:100778001B6823640323CEE364360020D4270020BB
:10078800C0100020C4270020D0270020020000202D
:1007980044300020A8300020682B0020A62B002021
:1007A800602B0020542B0020BC140020102E0020A9
:1007B8008FC2753CEFB6B04400100020702B0020AB
:1007C80035FA8E3C340F0020C00F0020BC0F0020EB
:1007D8008636002080140020482900208C14002030
:1007E8007C360020A04B1A68236C64339A4240F28E
:1007F800938340200BF078FD002840F08D834FF064
:1008080040099A4BE26B9A4F985C1D4658B107F025
:100818009FFD7B6B013B7B63FB6BB9F1010903F126
:100828000103FB63EDD1E26B914BAA5C002A40F017
:100838007383DA634FF0FF321A6404236BE32A23CD
:1008480000938C4B019303F10C0202924920A3F10F
:100858000A025021023308F0EDF8002840F05C83CA
:10086800D9F800304FF0FF3213F080030FBFE36375
:10087800E0632264052304BF226407234BE37E4A16
:1008880002230021009301910291482002F10803FC
:1008980008F0D0F8002840F03F834FF0FF3323647E
:1008A800E063062337E3754B019303F10C02072538
:1008B80002920095A3F1080247200021043308F0B2
:1008C800B9F8002840F028834FF0FF33E063236431
:1008D800357021E36A4A05230021009301910291B2
:1008E800532002F1080308F0A5F8002840F014830B
:1008F800E06308230FE340200BF0F6FC002840F0EB
:100908000B83E36B342B01F24881DFE813F03500E9
:1009180038003D00410047004B004F00530057008E
:1009280062006A006E007B007F008E009D00EB0075
:10093800FA000901180127013601490152015F0136
:100948006C01790186019301A001AD01BA01C301CF
:10095800D201DB01EC01F501FE01070210022102C0
:10096800250229022D023902450249024D0251028F
:10097800550259025D026102424843492AE243484E
:100988004349444A444B91E144484549454A36E085
:10099800454895F8FD1495F8FE2430E04348B5F82D
:1009A800D01017E24248B5F8D21013E2059B41482F
:1009B80019690FE2404B414819880BE2636CDB046C
:1009C80003D53F4895F80E1204E2294B0A22DA6350
:1009D80002E23C4895F8121295F8132295F8113264
:1009E80064E13948B4F84810F4E1D9F800301F053B
:1009F80040F1F2813548B5F81812B5F916220BF016
:100A0800E9FDE9E1324B33481968E3E195F85224EE
:100A1800314852235343EA180C2192F8DA2301FB98
:100A280002331D4495F8DC13D4E195F852242B4881
:100A380052235343EA180C2192F8DA2301FB0233BC
:100A48001D4495F8DE13C5E195F852242448522335
:100A58005343EA180C2192F8DA2301FB02331D44B0
:100A680095F8DD13B6E100BF8C140020A4A8010896
:100A7800F80900200EA90108FCAA010814AB010816
:100A880060AB0108B4CE0108C5CE0108D1CE01087B
:100A9800F9CE0108FFCE010807CF010812CF0108DF
:100AA80026CF010832CF01083BCF01084CCF0108FF
:100AB8005BCF01086ACF0108080000207ACF01083F
:100AC80084CF010891CF0108AACF0108B5CF01084A
:100AD80010180020C8CF0108D4CF0108DECF0108C4
:100AE800E8CF010895F85224CF4852235343EA1817
:100AF8000C2192F8DA2301FB02331D4495F8E51323
:100B080068E195F85224C94852235343EA180C2146
:100B180092F8DA2301FB02331D4495F8DF1359E1FB
:100B280095F85224C24852235343EA180C2192F8EC
:100B3800DA2301FB02331D4495F8E0134AE195F8E6
:100B48005224BC4852235343EA180C2192F8DA2362
:100B580001FB02331D4495F8E4133BE195F8522458
:100B6800B54852235343EA180C2192F8DA2301FBC3
:100B780002331D44B5F8E6132CE195F85224AF482A
:100B880052235343EA180C2192F8DA2301FB02336B
:100B98001D4495F8E11395F8E22395F8E33385E0D1
:100BA80095F85234A648522202FB035595F8AE1325
:100BB80010E195F85234A348522202FB035595F8E8
:100BC800AF1395F8B92395F8C3336FE095F852340D
:100BD8009D48522202FB035595F8B01395F8BA23A5
:100BE80095F8C43362E095F852349848522202FBD3
:100BF800035595F8B11395F8BB2395F8C53355E01F
:100C080095F852349248522202FB035595F8B213D4
:100C180095F8BC2395F8C63348E095F852348D48CA
:100C2800522202FB035595F8B31395F8BD2395F8A6
:100C3800C7333BE095F852348748522202FB0355EC
:100C480095F8B41395F8BE2395F8C8332EE095F8B7
:100C580052348248522202FB035595F8B51395F891
:100C6800BF2395F8C93321E095F852347C485222C5
:100C780002FB035595F8B61395F8C02395F8CA33C7
:100C880014E095F852347748522202FB035595F840
:100C9800B7139FE095F852347348522202FB03556C
:100CA80095F8B81395F8C22395F8CC330BF092FC5D
:100CB80092E095F852346D48522202FB0355B5F87C
:100CC800D61387E095F852349FED697A6948522225
:100CD80002FB0355B5F8D03307EE903AF8EEE77A01
:100CE80067EE877A53E095F852346348522202FB44
:100CF800035595F8D8136DE095F852345F485222A1
:100D080002FB035595F8D91364E095F852345C4812
:100D1800522202FB0355B5F8D2135BE095F8523422
:100D28005848522202FB0355B5F8D41352E095F8FF
:100D380052349FED4F7A5448522202FB0355B5F8BE
:100D4800CE3307EE903AF8EEE77A67EE877A1EE040
:100D58004E4895F81E123DE04D4895F81F1239E0AF
:100D68004C48B5F8DC1135E095F8DF319FED407A55
:100D7800494807EE903AF8EEE77A67EE877A06E098
:100D8800D5ED7C7A9FED3A7A444867EE877AFDEE96
:100D9800E77A17EE901A1DE0414895F8D91119E045
:100DA800404895F8E81115E03F4895F8E71111E03B
:100DB8003E4895F891120DE03D4895F8151209E066
:100DC8003C4895F8521205E03B48B5F8561201E048
:100DD8003A48A9680BF0FEFBE36B0133E3639BE041
:100DE800374B1B6898011BD5B4F84C30354DBBB94F
:100DF800354BD5F850901F68452007F0A9FA0E200A
:100E080007F0A6FA48460BF058FB38460BF055FB9E
:100E18004FF48053A5F84A300A23337007F008FBD3
:100E280007F0EAFD78E000BFF5CF010802D001081D
:100E38000CD0010817D0010824D0010836D00108C9
:100E480045D0010856D0010867D0010879D00108BB
:100E580089D0010899D00108A9D00108BAD00108A1
:100E6800CBD00108DDD00108CDD00108E7D00108BA
:100E78000000C842F6D0010804D101081BD10108BE
:100E88002AD1010846D101085CD1010870D10108B6
:100E98006CD101087CD1010888D101089BD10108D7
:100EA800A9D10108B9D10108CAD10108DAD10108CC
:100EB800F3D101080CD201081CD2010839D201086B
:100EC800C0140020F80900205C36002094F8543043
:100ED800002BA3D0AF4B1B6899019FD40923337013
:100EE8009EE7AD4B1A68236CC8339A4203D995F82C
:100EF800FF547DB904E00BF03DFA0028F7D10BE070
:100F0800206B0FF02BFD94F855302563022B01D18F
:100F180014F022F9012333700BF016FA08B10123FB
:100F280033709E4B1B78072B05D10FF095FE9C4B19
:100F3800C8EB00005880002323719A4B11AD5B6801
:100F480028469847002800F01381944B187800230E
:100F58000328954E02BF924956F8237021F8137062
:100F68009A0035F91310B1500133032BF0D18F4B90
:100F78008D488F4F1A78DFF85492014605F0FCFF30
:100F88003B88002B00F08A80A36D1B7808EE103A8E
:100F9800A9F14808A9F13C054FF0000A854AB7F8BD
:100FA80000E013684FF47A70B0FBF3F3C3EB43101F
:100FB80003EB8003DB009BB29E4502BF0023C8F809
:100FC80000302B61D8F80030194656F82A301944F9
:100FD80056F82A30C8F8001007EE903A2B6901330A
:100FE800012B10464FEA8A0BF8EEE77A2B6106D1FF
:100FF8000023C5ED017AC5ED007AAB601BE0D5EDA5
:10100800006A07EE103A37EEE66AB8EEC77A86EE5F
:10101800077A36EE877AD5ED026A85ED017A77EEA2
:10102800C77A85ED007AE6EE276AF0EE667AC5EDB6
:10103800036AC5ED026A0023BEF1010F46F80B30C2
:1010480049F80B303FD12B690690012BC3BF03F140
:10105800FF3300EE103AD5ED037A9FED570A05925B
:10106800C4BFB8EEC00A87EE800A17F0CFFE059A13
:10107800069818EE103A9BB1F8EEC87AB4EEE70A73
:10108800F1EE10FA0CDD02684FF47A73B3FBF2F359
:10109800C3EB431203EB8203DB003B80002324E015
:1010A80012684FF47A73B3FBF2F3C3EB431203EB0A
:1010B8008203DB00D8F800209BB202EB530292FBBC
:1010C800F3F349F80B300AF1010ABAF1030F08F1FA
:1010D800040805F114057FF461AF3888012801D1AF
:1010E8000FF024FE3B88013BD7E756F8232059F838
:1010F80023003249121A46F823200133032BF4D176
:1011080091ED2C8AB5EE408AF1EE10FA30D091F8C4
:10111800B4509DB9274B1A681F467AB1DFF89C80F6
:10112800396808F1B8002844B0EE480A1C350BF0BD
:10113800E8FB542DF2D1012388F8B43094F8B43088
:10114800B3B11F4F002556F8253007EE903A1D4BD6
:101158001C2000FB0530B8EEE70A0BF0AFFBA7EC4C
:10116800010A17F0CDFB46F825000135032DEAD119
:1011780094F80C312BB1114A013B82F80C3100F084
:1011880018BD114D95F8DF3113B395F8E431013BE3
:10119800DBB21EE0C01400208C1400204E14002086
:1011A800501400206C170020782B00209417002082
:1011B800783600201018002000000000F8090020F0
:1011C800042C0020B00A0020A83000209C0A00202F
:1011D800012384F80C310FF03FFDA44BA44A1F688B
:1011E800A44BB5F82E120646186802F15003B8470A
:1011F800A14B1A78072A1D4604D10FF02DFD9F4BED
:10120800801B98800FF028FD95F800E00690BEF14D
:10121800010F0AD19A49D4F81031984A0968C4F8DC
:101228001001C31A93805B1AD380964B1B68EBB1ED
:10123800D979E1B1944A126892071AD5934A12787B
:10124800012A16D9DB78924802FB03F10088CB1AF1
:1012580098428AB203DB81420B46A8BF034612B20A
:1012680012031BB2012192FBF3F205E019460A466C
:1012780002E001214FF48052864BDB780E9329B1AE
:10128800BDF94C3053431B13ADF84C30824BD4F8A6
:10129800140193F80090814B814DB3F802C0B3F864
:1012A800008005900024B3F904A020462346484551
:1012B80048D2059E95ED016A96F9006076420AFBD0
:1012C80006F607EE906A0FFA8CF606EE906A0FFAA9
:1012D80088F6B8EEE77A07EE906AF8EEE77AF8EE65
:1012E800E66A67EE867A95ED026AE6EE867A13AFCD
:1012F800D5ED036AE7EE267AFDEEE77ACDED077ABB
:10130800BDF81C6011B136B25643361327F8106089
:1013180013AE0FFA83FB36F8106037B25F4505DC71
:101328000FFA84FB5F45B8BF344600E03346BEF190
:10133800050F04D104289CBF504F27F810600130D6
:101348001035B4E71C1B504B564A1B68089313F41E
:10135800805BA4B234D0544BD6881B785348544A87
:1013680013F0040F514B02BFD3F8DC11098AA3F81C
:10137800D811D3F8DC31B3F810C04E4B1B68D988AC
:1013880037B2C1EB0C05AF4203DC198813681B8820
:1013980005E061448F4205DB12685B885188A0F83C
:1013A800D86112E0B0F9D811A942D5BF19881268DE
:1013B80013685B88D5BF1B8851880E461E4604E01B
:1013C8003B4BD6881A68138851888DB298B22F1A69
:1013D800BAB20592BDF9142024B2944221DD334DEE
:1013E800120392FBF4F2C5F8E02100254D450BD21B
:1013F8000DF14C0838F915C002FB0CFCCCF30F3C7E
:1014080028F815C00135F1E7294A126812897AB916
:10141800BDF91430022293FBF2F303449BB2194640
:1014280006E0022194FBF1F14318691A9BB289B2D4
:10143800BDF9142007EE104A07EE902AB8EEC77AD5
:10144800F8EEE77AC7EE877A9FED1B7AF4EEC77A53
:10145800F1EE10FA32D4B7EE007AF4EE477AF1EEF4
:1014680010FAC8BFF0EE477A2AE000BFE800002073
:1014780094320020C42000204E1400205014002074
:10148800502B00202C140020801400203804002049
:101498007814002090140020872B0020A02B002017
:1014A800100B0020A62B002083360020F80900200E
:1014B800882D0020842D0020CDCCCC3DF0EE477A3D
:1014C800BEF1060F764A08BF9FED767AC2ED007A24
:1014D80002BF67EE877A7448FDEEE77A4FF00005A1
:1014E80004BF17EE902A4280704AB2F9D801D2F8A8
:1014F800DC2107926E4A0990D2F800C06D4A6E4806
:1015080014686E4A127802F00402D2B20A926C4A47
:10151800126802F000620B926A4AB2F906200C9235
:10152800694A12680D924D4580F08A8013AA32F8F4
:1015380015E032B207EE902A644A02EB051292EDEA
:10154800007AF8EEE77A1AB267EE877AFDEEE77A64
:1015580017EE908A904503DB0AB24245A8BF42467F
:1015680072440E9F92B220F8022F12B217B1B4F84B
:1015780004E016E0BBF1000F11D0079FBCF806800D
:10158800B7F810E0099FC8EB0E0E774504DCB4F8F5
:1015980000E0BCF8008006E0BCF802E001E0B4F826
:1015A80000E0B4F80280724503DB4245A8BF42461A
:1015B8009646089AA0F800E0D7060DD50A9A5AB1BF
:1015C800BBF1000F08D10B9A32B9079A0C9F528AC7
:1015D8009742BCBFA2880280B4F808E0BEF1000FB1
:1015E8002CD04FF47A720D9FB2FBF7F2BEFBF2F2E9
:1015F800042A05D942F2107E7245A8BF724600E05F
:101608000522BDF914E012B2724517DA6F000F9780
:101618002F4FB0F9008037F915A0C2EB0A0EF0453C
:1016280004DB0AEB020EC645A8BFC646284A0F9F30
:101638001FFA8EFE22F807E0A0F800E0013572E7F5
:101648001E4B1A7802F0040202F0FF0342B1174859
:1016580090F8FC31013BDBB2182B00F2428109E023
:101668004B45F4D21B4A32F813101B4A22F81310C8
:101678000133F5E701229A40184B1340002B00F084
:101688003081174B1B8813F4807F0E4B2CD0154AE2
:101698001188ADF864105188ADF86610928838E06A
:1016A800340400200000C84250140020F80900202B
:1016B800842D0020882D0020222C00208336002035
:1016C800C014002044300020502B0020100B0020B4
:1016D800DC0B002064200020242C00209920980195
:1016E800BC140020A62B0020B24A1188ADF8641063
:1016F80051889288ADF86610ADF86820BBF1000FEC
:1017080009D0D0F8DC11B3F90640098A8C4202DA14
:101718005242ADF86820A84DB5F902204FF47A710D
:1017280002F5E1624A434FF4616492FBF4F2A2F5D8
:10173800FA72ADF87C20B5F9002002F5E162514358
:101748009E4A91FBF4F11288A2F2DC52A1F5FA71DB
:10175800ADF86A20D0F8DC21ADF87E10128A19881D
:10176800891AADF86C105988891AADF86E109988E5
:10177800891AADF87010D988891AADF872101989CC
:10178800891AADF874105989891AADF876109989B3
:10179800DB89891A9A1AADF87810ADF87A200023F7
:1017A800874A002122F813100133082BF8D1854A03
:1017B800854B12680592854A1B788549D2F800B096
:1017C800844D072202FB0318414571D00B7833B1D1
:1017D80003F1150201239340059A134064D011F8D0
:1017E80006EC11F805AC11F8034C11F801CCCEEB5E
:1017F800CE070BEB47076420B7F90020B7F9023092
:101808009B1A9BB211F9022C4FEA53095A434FEA2B
:101818004A0692FBF0F220A8C9EB020292B20644F3
:1018280014B936F81C0C0CE0B5F9000036F91C6C3C
:10183800B04208DA0444844203DBA6423046A8BF1B
:101848002046288008E007DD041BB44203DB8442FD
:10185800A8BF044626462E80D7F80A4011F9046C22
:10186800012000FA0AF02042288812B216FB00F084
:1018780014BF4FF0FF340124642690FBF6F0904229
:101888000ADB4FFA8CF25A4392FBF6F2C9EB0202DA
:1018980012B28242A8BF0246494B33F81E9002FB9F
:1018A800049423F81E4000E02B80023507318BE7B3
:1018B800464B494E1F6800250E2202FB057236F87A
:1018C800023F92F90640E8B214FB03F3642493FB49
:1018D800F4F4348011F082FF01352044082D308063
:1018E800EAD13E4E364C3368384D13F0200F32D0D3
:1018F800002011F073FF20800746012011F06EFFD1
:10190800304B60801B68190625D5354B2A4AD3F819
:1019180020321B78012B22D12968138891F914E011
:10192800B2F902201EFB03F34FF0320C93FBFCF3D9
:101938001FFA83FE91F906305B4253436FF0310181
:1019480093FBF1F10EEB0102B91893FBFCF373441E
:10195800218018446080D5F800E0002318E0D5F80D
:1019680000E053889EF9061011FB03F1322391FB26
:10197800F3F13944218011889EF9142012FB01F2F9
:1019880092FBF3F21044E5E70133082BE25329D028
:101998000E2101FB03E134F91300B1F90020B1F97C
:1019A800021090424FEA4307EEDB0AB28242A8BF18
:1019B8000246E9E7A02B0020702B0020242C0020F1
:1019C800240D0020C01400208C2D0020C0200020F1
:1019D800932D0020F60B0020220D002080140020FB
:1019E800F8090020754FD7F8149199F90430ABB96C
:1019F80097F8FC8108F1FF33182B00F29580DFE897
:101A080003F0579393719393936A93939393937B70
:101A18009393939393718793937B57000023A7F82D
:101A28002432B7F82482DFF894B10FFA88FABAF1B1
:101A3800070FDDDC9BF826220BF50A738AB9B9F883
:101A48000220059300EE102A5D4A1C2000FB0A3094
:101A58001168B8EE400A0AF054FF0122059B8BF882
:101A6800262234F91A2000EE102A1C2000FB0A3026
:101A7800B8EEC00A0AF022FF16F042FF2B6880B2C7
:101A8800CAEBCA0224F81A0003EB420200B2B2F908
:101A98000030B2F90220984203DB13B28342A8BF98
:101AA800034608F1010824F81A30A7F82482B8E799
:101AB80099F8013013B10020618908E0414B1B7887
:101AC80003F0040303F0FF00002BF4D1014609F0F2
:101AD80085FF012529E00020E18809F07FFF01202A
:101AE800218905E00020218909F078FF618901201A
:101AF80009F074FF022518E00225A81E34F8151015
:101B0800C0B2013509F06AFF082DF6D106250CE0B0
:101B18000325E81E34F81510C0B2013509F05EFF40
:101B2800072DF6D1042500E0002533689A0602D473
:101B3800B8F1050F0AD12846218809F04FFF681C23
:101B4800C0B2618809F04AFF0235EDB23368DB02A2
:101B58000AD497F808339BB11B4B93F8E60093F827
:101B6800E71011F07FFD0BE0184E00242819C0B2D1
:101B780036F8021F09F032FF0D2CEAD00134F5E7E0
:101B8800134B1B78072B05D10FF066F8069BC01A7C
:101B9800104BD88001233B710BE00AF0EBFB0028C7
:101BA8003FF4BAA94FF48053A4F84A300A23FFF748
:101BB800B2B921B0BDEC048BBDE8F08FF809002064
:101BC800502B002083360020A83000204A30002007
:101BD8004E140020501400202DE9F04FAB4EAFB04A
:101BE80034780096002C00F0FA80A94B1868002879
:101BF80001F0A5870EF0D8FFA64C20680FF0B0F9C9
:101C0800002801F09C872068A34C0FF0A6F909284A
:101C180001D03F284BD14FF0000927689F4E4D4611
:101C28002FB19F4831683A4616F06CFC10B9B1469E
:101C380005B935469B4B10369E42F1D3D5B12E6877
:101C4800D9F80080236816F803E018F803007045F7
:101C580010D15A1C924948B92D2B07D88E4E4FF0F7
:101C6800200E01F803E03260885403E001F803E035
:101C78002260E7E723680BB14D450FD08A4812F080
:101C88003FF84D4507D855F8100B12F039F80920E0
:101C980011F0BEFEF5E70CF0BDFE002723689F4259
:101CA800AAD27F4BD85D11F0B3FE0137F6E723685F
:101CB800002B41F0AB86042841F01A8778480BF0D6
:101CC80017FD01F03CBF019BDFF8F8A118680FF081
:101CD80047F900286AD0DAF800000FF03EF9DBF87F
:101CE800003093F848100646002940F094802428D4
:101CF80040F0F280012283F84820DBF8003093F8A6
:101D080048000628DFD193F84980B8F15A0F01F04E
:101D1800128000F2E481B8F1360F00F0318700F24A
:101D28006281B8F1260F00F0458600F22181B8F1F2
:101D3800040F00F0038340F20581B8F1220F00F090
:101D4800CD84B8F1240F00F02F86B8F1050F41F0CB
:101D580040801A2005F0BCFB4FF00008534B13F8E5
:101D6800080008F1010811F0F2FDB8F10B0FF5D1E8
:101D78004FF000084E4B13F8080008F1010811F065
:101D8800E6FDB8F1080FF5D14FF00008494B13F8FC
:101D9800080008F1010811F0DAFDB8F1070FF5D1D4
:101DA80005F060FB2B68002283F84820424D386814
:101DB8000EF0FAFE95F875306BB159F804000FF083
:101DC800BEF811F0A1FC0BF0E5F8002385F875309A
:101DD8003A4B3B4ADA604C34982C01F0B086DFF875
:101DE800F49054F8093004EB0902002BF3D035497C
:101DF800354D0B60079300232A608DF82130334A54
:101E0800334F069214238DF8203006AB3B60AB4667
:101E18000191904657E7012904D14D2814BF0022AB
:101E2800022268E7022904D13C2814BF00220322B9
:101E380061E703290CD140284FF0000102D983F84B
:101E480048105AE758711971D9719871042252E7EC
:101E5800042907D1997983F8490080EA01029A7127
:101E6800052248E705297FF448AF5879197988424F
:101E7800987906D970409871481C18710B441E72E5
:101E88003BE7B0420CBF0622002234E7863600202A
:101E98003C2E0020442E0020BC20002068B60108FB
:101EA8008C20002068B801085AD3010826CF010801
:101EB80032CF0108FFCE0108040D002000ED00E03C
:101EC8000400FA05E8140020E4140020C70F0108F4
:101ED800382E0020B4350020DE490B7803F00403C7
:101EE80003F0FF0E002B7FF408AF232EDAF8000072
:101EF8001BD1009A029101231370D74B1860D74B5E
:101F08001860986010201873D548C3F8048083F8C7
:101F18000DE004330360D34811F0F2FE0CF07AFDB3
:101F280002990B7843F002030B70CF4B1B681B78A8
:101F3800B34201BFCD4BCE4A1A60CE4B04BFCE4A46
:101F4800DA60DAE6B8F1020F00F0DD8100F2EA812A
:101F5800B8F1010F40F03D87032005F0B9FA0020E1
:101F680011F0F5FC404611F0F2FC102000F016BF0D
:101F7800B8F12E0F00F0218620D8B8F12A0F00F012
:101F88003785B8F12C0F00F06185B8F1280F40F0C3
:101F98002087DFF8EC82072005F09AFAB8F81602D5
:101FA80011F0E6FCB8F8180211F0E2FC98F81A02F1
:101FB80011F0CDFCB8F81C0200F0E6BEB8F1320F03
:101FC80000F0A685B8F1340F00F0A983B8F1300FFE
:101FD80040F0FF86DFF8A882E02005F079FA08F1E2
:101FE800800A00F003BEB8F1460F00F020862AD818
:101FF800B8F13D0F00F0D98212D8B8F13A0F00F0CD
:10200800A282B8F13B0F00F03783B8F1380F40F0E7
:10201800E086042005F05CFADFF8648200F0D9BCA1
:10202800B8F1420F00F08885B8F1450F00F0388606
:10203800B8F1400F40F0CD86082005F049FA4FF07E
:10204800000800F06CBDB8F14D0F00F03B852CD8AE
:10205800B8F1490F00F0B482B8F14B0F00F01685C3
:10206800B8F1470F40F0B58611F068FC824684202D
:1020780005F02EFA504611F084FC804BDA680AF11C
:10208800800393428CBFCAEB02084FF080080DF121
:10209800380B0CF02FF950464246594606F0A4F882
:1020A8004FF00008824600F0D9BDB8F1500F00F09B
:1020B800DF85B8F1520F00F0EE85B8F14F0F40F010
:1020C80088860B2005F004FA002011F040FC00205F
:1020D80011F03DFC002011F03AFC00F0F0BDB8F121
:1020E800700F00F0A18256D8B8F1680F00F0FF8198
:1020F8002CD8B8F1640F00F032811FD8B8F15E0F08
:1021080000F03086B8F1620F00F04286B8F15C0F3B
:1021180040F05F86052005F0DBF9594BDFF8708148
:1021280093F8DF0111F013FCD8F80030188C11F087
:102138001FFCD8F80030588C00F026BEB8F1660FA6
:1021480000F0458100F272810B2018E1B8F16C0FA4
:1021580000F0EA8110D8B8F16A0F00F0818300F22C
:10216800A183484E3078400000F0FE0005F0B0F939
:102178004FF00008B246CAE1B8F16E0F00F0E881EE
:1021880000F22482062005F0A3F93F4B186811F0ED
:10219800F8FB3E4B18E2B8F17C0F00F0988579D82F
:1021A800B8F1750F00F05C8241D8B8F1730F00F0F8
:1021B800478300F2D782B8F1720F40F00A86DFF841
:1021C800C080162005F084F9B8F84C0211F0D0FB55
:1021D800B8F8D00011F0CCFBB8F8D20011F0C8FB69
:1021E800B8F8D40011F0C4FBB8F8A40211F0C0FB91
:1021F80098F89D0211F0ABFB002011F0A8FB98F8AD
:102208009E0211F0A4FB98F81B0211F0A0FB98F8AD
:10221800480211F09CFB002011F099FBB8F9EA3153
:102228000A2093FBF0F080B211F0A2FBD1E3B8F1E1
:10223800770F00F0DE82C0F04683B8F1780F40F0E7
:10224800C8850F4E702005F043F94FF0000AB346D9
:10225800FCE000BF83360020442E0020040D00203F
:102268003C2E00208AD3010828180020FC9F00205B
:10227800EFBEADDE00ED00E00400FA05C800002066
:10228800A830002050360020C0100020E80F0020A1
:10229800C4200020B8F1A00F00F078830BD8B8F163
:1022A8007E0F00F03885C0F02685B8F1960F40F013
:1022B80090850C2063E0B8F1F00F00F05B8314D830
:1022C800B8F1A40F40F08585DFF80CA49AF8330024
:1022D80080000130C0B205F0FBF89AF8330011F025
:1022E80036FB4FF00008D34618E3B8F1F10F00F0C1
:1022F800D880B8F1FE0F40F06C85082005F0E8F8AA
:102308004FF000082AE3042005F0E2F8422011F01B
:102318001EFB542011F01BFB462011F018FB4C202B
:1023280000F03CBD032005F0D3F8022011F00FFBAC
:10233800082011F00CFB012000F030BD05F0C8F8B2
:10234800532011F004FB522011F001FB462011F03C
:10235800FEFA332011F0FBFA002000F015BD07202B
:1023680005F0B6F8E72011F0F2FAC74B587911F0EA
:10237800EEFA002011F0EBFA042000F0A4BC05F0FE
:10238800A7F8C24B188811F0F3FA0FF006F911F00C
:10239800EFFABF4B1B68C3F3C000C3F38002800091
:1023A80040EA4200C3F340021043C3F3401240EA3C
:1023B800C20003F01003184311F0DAFA04F09AFF90
:1023C80011F0DFFAB04B93F8520400F0E7BC12208A
:1023D80005F07EF8AF4B1B88B3F5806F8CBF4FF0CC
:1023E800080A4FF0010A4FF00008AB4B53F82800D9
:1023F80090FBFAF008F1010880B211F0B9FAB8F1CF
:10240800030FF2D1A54E308811F0B2FAB08811F05E
:10241800AFFA3089A24E11F0ABFA308811F0A8FA61
:10242800B08811F0A5FA308900F0AEBC102005F094
:102438004FF84FF000089B4B13F8080008F101080B
:1024480011F085FAB8F1100FF5D1A9E4B6F85801E2
:1024580011F08EFAB6F85A0111F08AFAB6F85C0152
:1024680011F086FA96F85E0111F071FA96F85F019C
:1024780011F06DFA96F8600111F069FA96F86101A9
:1024880011F065FA0E2303FB0AB30AF1010AD3F827
:10249800620111F076FABAF1080F06F10E06D5D1ED
:1024A8007EE47020784E05F013F806F1700A96F86D
:1024B800E80011F04CFA96F8E90011F048FA96F89D
:1024C800EA0011F044FA96F8EB0011F040FA96F899
:1024D800EC0011F03CFA96F8ED0011F038FA0736E6
:1024E80096F8E70011F033FA5645E0D158E4102089
:1024F80004F0EEFF4FF000086B4B13F8080008F1EA
:10250800010811F024FAB8F1100FF5D148E49AF84F
:1025180000309845BFF444AC644B33F8180011F010
:1025280027FA08F10108F2E7614E04F0D1FF30887C
:1025380011F01EFA708811F01BFAB6F904300A205F
:1025480093FBF0F02CE0042004F0C2FF594B29E281
:10255800072004F0BDFF584B1888FF28A8BFFF20AC
:10256800C0B211F0F4F9554B18684FF6FF784045A2
:10257800A8BF404620EAE07080B211F0F9F9504B4C
:10258800188811F0F5F9404B93F81B224D4B186849
:1025980042B10A2358434045A8BF404620EAE070AC
:1025A80080B2F1E300F30F00FAE7374E022004F09F
:1025B8008FFF96F8930211F0CAF996F89202EDE3AC
:1025C800022004F085FF404B1888DDE33F4E0B20C6
:1025D80004F07EFF3368187811F0B9F933689878F9
:1025E80011F0B5F94FF0000BB246DAF80030374E6B
:1025F8005B440BF1010B587911F0A9F9BBF1030FFA
:10260800F3D13368187A11F0A2F93368D87811F049
:102618009EF93368187911F09AF93368588911F0DE
:10262800A7F93368587AB9E31E2004F051FF4FF038
:102638000008274E33684344587811F088F9336806
:102648004344D87A11F083F93368434408F1010808
:10265800587D11F07CF9B8F10A0FEAD1FFF7A0BB59
:102668002F2004F035FF1B4E16F8010F00283FF409
:1026780097AB11F06CF9F7E7012004F029FF144B30
:102688001B6818788AE300BFA83000208036002035
:102698009817002008000020DC0F0020782B00206D
:1026A800E4270020240D0020242C002044300020A2
:1026B800702B00209427002078140020301400206C
:1026C800C4100020FC0F002010180020200F00204C
:1026D800C420002087AB0108040D00205020C74EFD
:1026E80004F0F6FE06F1500A96F85324C44B0C2168
:1026F80001FB0233043693F8380011F028F996F8F4
:10270800500411F024F996F8510411F020F996F8C4
:10271800520411F01CF95645E6D1FFF741BB5A2087
:10272800B64E04F0D5FE06F15A0A96F8A80411F040
:102738000EF996F8A30411F00AF996F8A40411F01A
:1027480006F996F8A50411F002F996F8A60411F016
:10275800FEF8063696F8A10411F0F9F85645E4D1CA
:10276800FFF71EBB4FF0000A01264FF00008A54BEB
:102778001B78984534DAA44B18F803E04FF0000BA7
:102788009F4801900C2300F1300C03FB0BF313F866
:102798000CC0F44507D10344586B15F0AAFE8446D3
:1027A8003EB9334607E00BF1010BBBF11E0FE7D131
:1027B80013E0824411E063450FDA019ACDF80CC0AA
:1027C8000C2000FB0B200293406BC05C11F0BFF89B
:1027D800029BDDF80CC00133EDE708F10108C6E7FC
:1027E800002E3FF4DDAA5FFA8AF004F071FE00269D
:1027F800BBE7DFF810A29AF8000004F069FE4FF07A
:1028080000089AF800309845BFF4CAAA7E4B18F819
:1028180003E000217A480C2200F1300C02FB01F39E
:1028280013F80C20724505D1034493F8380011F0D1
:102838008EF802E001311E29ECD108F10108E0E729
:10284800082004F045FE4FF001085FFA88F008F10F
:10285800010811F07CF8B8F1090FF6D1FFF7A0BA1A
:10286800102004F035FE694BDFF8D881187800F0A5
:10287800020011F06CF8664B187811F068F8D8F877
:10288800000011F07EF8D8F8040011F07AF8614BD6
:10289800188811F06DF8604B188811F069F85F4BD3
:1028A800188E71E2052004F013FE5D4B188811F0B4
:1028B8005FF85C4B188811F05BF8584B93F83200BE
:1028C80000F001006AE211F025F88346122004F0B6
:1028D800FFFDBBF1000F01D1534B03E0BBF1100F1B
:1028E80005D1524BD3F800A0D3F8048002E04FF092
:1028F8000008C246584611F02AF8504611F041F82F
:10290800404611F03EF84A4B186811F03AF800209A
:1029180011F02EF8002011F02BF8BFE19BF83330AE
:102928009845BFF43DAADFF820A11AF8080011F075
:102938000EF80AF1100313F8080011F008F80AF16C
:1029480020030AF1300A13F8080011F000F81AF809
:10295800080010F0FCFF08F10108DFE7354B33F8F9
:10296800180008F1010811F003F8B8F1040FF5D1C7
:10297800FFF716BADFF88480042004F0A9FDB8F840
:10298800EE0110F0F5FFB8F8EC01FDE10C2004F0C1
:102998009FFD294B186810F0F4FF284B186810F0B9
:1029A800F0FF274B18688EE1042004F091FD134BCB
:1029B800986888E1DFF8448004F08AFDB8F8CC0113
:1029C80010F0D6FFB8F8D00110F0D2FFB8F8D40153
:1029D800DAE198F80E0210F0BAFF98F8120210F037
:1029E800B6FF98F8110210F0B2FF98F81302D5E17B
:1029F800012004F06DFD014B5879CFE1A83000208B
:102A080088AB0108C4140020C51400200010002061
:102A1800061000200410002002100020040D0020E1
:102A2800781000207A100020C8100020380F0020ED
:102A3800C427002050140020ACF7FF1FB0F7FF1F79
:102A4800B4F7FF1F08100020380D0020DFF8548469
:102A58000C2004F03DFD98F8440210F078FFB8F817
:102A6800500210F085FFB8F84C0210F081FFB8F85A
:102A78004E0210F07DFF98F8460210F068FFB8F893
:102A8800580210F075FFB8F85A027DE1DFF8148497
:102A9800082004F01DFD98F8A20210F058FF98F8DD
:102AA800A30210F054FFB8F8A40210F061FF98F8E0
:102AB800A60210F04CFFB8F8A80210F059FF98F8D9
:102AC800AA026BE1DFF8F483DFF8F4A398F80000BA
:102AD80000EB4000C0B204F0FBFC4FF0000B98F88C
:102AE80000309B450AF1020ABFF45AA91AF8020CF1
:102AF80010F02DFF1AF8010C00EB800000EB8000AD
:102B080000F2EE2080B210F033FF0BF1010BE6E784
:102B1800012004F0DDFCE34B93F848023EE1E14B71
:102B2800434408F1010893F83C0210F010FFB8F193
:102B3800080FF4D1FFF734B9DFF86883102004F0E8
:102B4800C7FC98F8050010F002FFD8F8080010F04C
:102B580018FF98F8440210F0FAFEB8F8CC0110F00B
:102B680007FFB8F8D00110F003FFB8F8D40110F04F
:102B7800FFFEB8F8160210F0FBFEB8F8180203E1E1
:102B8800C94BDFF8208393F87400C0EBC000C0B2D3
:102B980004F09EFC08F1280A98F8AE020023C34A04
:102BA800D25C904200F0FE800C333C2BF7D108F148
:102BB8000808D045F0D1FFF7F3B84020DFF8E482E9
:102BC80004F086FC08F1400AB8F86C0310F0D0FE57
:102BD80098F86E0310F0BBFE08F1040898F86B0330
:102BE80010F0B5FED045EFD1FFF7DAB8B8F8EE022D
:102BF80000F03F0010F0BCFEB8F8EE02C0F38610FB
:102C080010F0B6FE98F8EC02000910F0A0FE98F853
:102C1800EC0200F00F0010F09AFE08F1040898F892
:102C2800E90210F094FED045E0D1FFF7B9B80D20C5
:102C380004F04EFC05F0A4FADFF8888240F00200A8
:102C4800C0B210F084FEB8F8000010F09AFED8F870
:102C58000C0010F096FE0BF095FA34E0D045BFF664
:102C68009FA81BF8080010F072FE08F10108F5E7AC
:102C7800DFF83082042004F02BFC012010F067FEFE
:102C880098F8FF0410F063FE98F8FD0410F05FFE5A
:102C980098F8FE0482E0012004F01AFC00207DE090
:102CA800132004F015FC4FF00008814B13F80800BE
:102CB80008F1010810F04BFEB8F10B0FF5D1002018
:102CC80010F05FFE002010F05CFEFFF769B8DFF837
:102CD800D481082004F0FCFBB8F8DA0010F048FEB4
:102CE800B8F8DC0010F044FEB8F8DE0010F040FE42
:102CF800B8F8E00048E0DFF8AC81032004F0E8FB16
:102D080098F81E0210F023FE98F81F0210F01FFE1C
:102D180098F8200242E0DFF88C81032004F0D8FB09
:102D280098F8C90110F013FE98F8CA0110F00FFEC8
:102D380098F8CB0132E0DFF86C8104F0C9FB98F811
:102D4800DE0110F004FE98F8E40110F000FE98F897
:102D5800E70010F0FCFD98F8E60010F0F8FDB8F870
:102D6800E20011E0DFF86081092004F0B1FBD8F837
:102D78000030988C10F0FCFDD8F80030D88C10F09A
:102D8800F7FDD8F80030188D10F0F2FDFFF708B8FD
:102D9800012004F09DFB474B1B68587810F0D7FDC5
:102DA800FEF7FEBF10F0D3FDB8F8B00210F0E0FD5A
:102DB80098F8B20210F0CBFD98F8B30210F0C7FDF6
:102DC80098F8B50210F0C3FD98F8B40210F0BFFDF2
:102DD800EDE6B8F15D0F13D110F09CFDDFF8E88047
:102DE800304BD8F800A083F8DF0110F09DFDAAF859
:102DF8002000D8F8008010F097FDA8F822000DE018
:102E080011D9B8F1D20F40F0BF822B4B1B7803F0D9
:102E1800040303F0FF08002B00F09A82002004F05E
:102E280057FBFEF7BDBFB8F1390F12D110F072FD94
:102E3800DFF8708088F80E0210F06CFD88F8120236
:102E480010F068FD88F8110210F064FD88F813028C
:102E5800E4E700F26981B8F12D0F37D110F05AFD7F
:102E6800DFF8408088F8440210F05EFDA8F85002B0
:102E780010F05AFDA8F84C0210F056FDA8F84E02C2
:102E880010F048FD2B6888F846025B79082BC5D9F5
:102E980010F04AFDA8F8580210F046FDA8F85A02AA
:102EA800BCE700BFA8300020040D00202C1800202B
:102EB80026CF0108200F002083360020503600203E
:102EC80004330020C8000020C42000207FD8B8F1B7
:102ED800270F0ED110F028FDDFF8B083C8F8CC0119
:102EE80010F022FDC8F8D00110F01EFDC8F8D4017A
:102EF80094E74DD8B8F1230F3ED110F00BFD1328FD
:102F0800804602D907F04CFF88E710F003FD002245
:102F1800D9490C23534301EB030E9EF838E086454C
:102F280026D1DFF868A30B4408F58A780AEB8808ED
:102F380093F8303088F8033010F0ECFC88F804007F
:102F480010F0E8FC88F8050010F0E4FCCB4BCC4905
:102F58001A6888F806000AF1D0030B60C94B0020F4
:102F68001A6012F0E2F8C84B80F00100187055E7BB
:102F780001321E2ACCD1C5E7B8F1250F40F04285B1
:102F8800C24B00229A6010F0D9FC09F0FBFF45E71C
:102F9800B8F1290F12D110F0C7FCDFF8F082A8F8B9
:102FA800160210F0C1FCA8F8180210F0B3FC88F85B
:102FB8001A0210F0B9FCA8F81C022FE7B8F12B0F81
:102FC80040F0208510F0A6FCB04B587126E7B8F108
:102FD800330F05D110F09EFCAC4B83F848021DE777
:102FE8003BD8B8F12F0F00F0F784B8F1310F40F05B
:102FF800098510F08FFC1F28804683D82B685B79E1
:10300800082B7FF47FAF10F08FFCA04B08F1BA08B3
:1030180003EB880800F03F00A8F8060010F084FCD5
:10302800B8F80630800100F4FE501843A8F80600EE
:1030380010F070FC000188F8040010F06BFC98F8A0
:10304800043000F00F00184388F8040010F062FC08
:1030580088F805000CF032FCE0E6B8F1350F26D10F
:1030680010F058FC0E2882463FF64CAF10F052FC88
:1030780003283FF647AF854B4FF0060808FB0A3890
:1030880088F8A80410F046FC88F8A30410F042FC65
:1030980088F8A40410F03EFC88F8A50410F03AFC67
:1030A80088F8A60410F036FC88F8A704B6E6B8F14C
:1030B800370F40F0A7845B794FF00708B3FBF8F8A7
:1030C800C8EBC8029B1A13F0FF0F7FF41BAF5FFA1F
:1030D80088F8B8F1000F3FF4A1AE10F01BFC5FFABE
:1030E80080FB4FFA8BF00DF04DFC824600283FF430
:1030F80009AF80F800B010F017FCAAF8020010F031
:1031080009FC8AF8040010F005FC8AF8050010F0A4
:1031180001FC8AF8070010F0FDFB08F1FF385FFAA0
:1031280088F88AF80600D4E7B8F1480F02D10BF006
:103138002FF973E675D8B8F1410F0DD14FF000089B
:1031480010F0E8FB514B434408F10108B8F1080FAF
:1031580083F83C02F4D161E631D8B8F13C0F1FD1B5
:10316800DFF81881D8F800A09AF800B010F0D2FB68
:1031780018B10228A8BF022000E001208AF8000048
:10318800D8F80030424A1B78022B14BF4149424903
:1031980011609B453FF442AE002010F0FBFB3DE67A
:1031A800B8F13E0F40F02E8410F0B4FBDFF8DC805D
:1031B80088F8930210F0AEFB88F892022EE6B8F178
:1031C800430F25D110F0A6FBDFF8C0800023C8F814
:1031D800083088F8050010F0B1FB09F0D3FE10F0B4
:1031E80099FB88F8440210F09FFBC8F8CC0110F056
:1031F8009BFBC8F8D00110F097FBC8F8D40110F079
:1032080093FBA8F8160210F08FFBA8F8180205E641
:10321800B8F1440F40F0F683204B012283F8752063
:10322800FCE5B8F14E0F3BD110F074FB1128824633
:103238003FF668AEDFF8548010F06CFB0AF5967A1A
:1032480008EB4A03187110F06FFB40F2ED23984227
:1032580005DD40F6CA039842A8BF184601E040F2CF
:10326800EE2008EB4A08A0F2EE20192390FBF3F0B9
:1032780088F80500D2E500BF88AB0108C42000200B
:10328800240F0020280F002002000020A830002072
:10329800E8000020AD2E010801320108040D0020CD
:1032A80024D8B8F14A0F02D110F03EFB75E7B8F107
:1032B8004C0F40F0A78310F02DFBDFF8788388F8D7
:1032C800A20210F027FB88F8A30210F02DFBA8F843
:1032D800A40210F01FFB88F8A60210F025FBA8F83E
:1032E800A80210F017FB88F8AA0297E5B8F1510F69
:1032F80013D1CF4B1B78012B3FF690AD10F00AFB92
:10330800DFF8308388F8FF0410F004FB88F8FD0428
:1033180010F000FB88F8FE0480E5B8F15B0F40F080
:10332800718310F0F7FADFF80C8388F8DE0110F0EB
:10333800F1FA88F8E40110F0EDFA88F8E70010F0E7
:10334800E9FA88F8E60010F0EFFAA8F8E20065E577
:1033580010F0E0FAB74B012883F852040FD983F82C
:1033680052840CE040F24781B8F1D00F40F07C81E4
:10337800B14B1B785A073FF551AD08F01DFD09F018
:1033880051FE08F05DFB49E500F2B381B8F1CC0FBE
:103398004ED15B79092B7FF6B5ADDFF8A882D8F856
:1033A80000A010F0B7FA8AF80000D8F800A010F0D2
:1033B800B1FA8AF8020010F0ADFAD8F800306428A3
:1033C800A8BF6420587110F0A5FAD8F80030642816
:1033D800A8BF6420987110F09DFAD8F80030FF2833
:1033E800A8BFFF20D87110F095FAD8F800A064287B
:1033F80028BF64208AF8080010F08CFA8AF80300C5
:10340800D8F800A010F086FA8AF80400D8F800A0CE
:1034180010F08AFA2B68AAF80A005B790A2B7FF663
:10342800FDACD8F8008010F075FA88F80900F5E4CA
:1034380000F2A380B8F1C80F2BD193F805804FEAAA
:103448005808B8F1120F3FF65DAD4FF0000AC245BB
:1034580007D210F069FA0EAB23F81A000AF1010A34
:10346800F5E742460023434507DA0EA931F8130071
:10347800724921F813000133F5E7122A05D06F4B82
:10348800002123F812100132F7E76D4B01221A7060
:10349800C4E423D8B8F15F0F14D1DFF8C481D8F899
:1034A80000A010F041FAAAF82400D8F800A010F003
:1034B8003BFAAAF82600D8F8008010F035FAA8F8E8
:1034C8002800ABE4B8F1630F40F09C825D4BD3F861
:1034D800008010F01FFA88F801009FE4B8F1C90FC6
:1034E80028D110F017FA584B1A7810B142F002029E
:1034F80001E022F002021A7010F00CFA534BDFF8C8
:103508006481187010F01AFAC8F8000010F016FA62
:10351800C8F8040010F008FA4D4B188010F004FAAF
:103528004C4B4D4A188092F8323043F0020382F82F
:10353800323073E4B8F1CA0F40F064824FF00008EB
:10354800DFF81CA1DAF800B010F0E4F9C3448BF8F6
:103558000100DAF800B010F0DDF9C344DAF800A091
:103568008BF80B0010F0D6F9C24408F10108B8F145
:103578000A0F8AF81500E3D150E4B8F1CF0F7FF4B1
:10358800F1AE10F0D1F96FF4AF6143189BB2DFF8D8
:10359800A480C62B98BFA8F84C0210F0C5F9A8F86B
:1035A800D00010F0C1F9A8F8D20010F0BDF9A8F8C1
:1035B800D40010F0B9F9A8F8A40210F0ABF988F813
:1035C8009D0210F0A7F910F0A5F988F89E0210F0F6
:1035D800A1F988F81B0210F09DF988F8480210F04C
:1035E80099F910F0A1F900EB80004000A8F8EA0171
:1035F80010F090F91EE4B8F1CD0F09D10E4B1B78ED
:103608005B073FF50BAC154B4FF4C8721A8005E405
:10361800B8F1CE0F40F0F681074B1B785E073FF5F7
:10362800FDAB094A137843F004031370FFF7F6BBA8
:1036380048290020A830002083360020B812002036
:10364800552A0020200F002000100020061000201E
:103658000410002002100020040D0020E40E0020B9
:10366800C420002008100020B8F1D10F40F0CA8112
:1036780010F050F9019010F061F9834610F05EF9EE
:10368800824610F05BF9804610F04EF910F04CF9C4
:1036980010F040F9019BABB9DF4B1020C3F800B024
:1036A800C3F804A009F046FCDC4A137843F0010390
:1036B8001370B8F1000F3FF4B1ABD94BC3F80080D9
:1036C800FFF7ACBB102B7FF4A9ABD64BC3F800B007
:1036D800C3F804A0B8F1000F02D0D14BC3F80080A2
:1036E800D048D14B0222011D1A700AF041FCFFF7A5
:1036F80095BBB8F1DB0F3FF491AB7AD8B8F1D60F90
:103708000DD14FF0000810F00FF9C84B23F818003E
:1037180008F10108B8F1080FF5D1FFF77FBB3DD8D4
:10372800B8F1D30F05D110F0FFF8C14B1880FFF79F
:1037380075BBB8F1D40F40F065815B790F2B7FF42E
:10374800E1AB10F0E7F8072882463FF6DBAB10F054
:10375800EBF8B84B4FF00E0808FB0A38A8F85801E8
:1037680010F0E2F8A8F85A0110F0DEF8A8F85C01A9
:1037780010F0D0F888F85E0110F0CCF888F85F01F6
:1037880010F0C8F888F8600110F0C4F888F86101F2
:1037980010F0D4F8C8F86201FFF740BBB8F1D90FB0
:1037A80013D110F0C1F8DFF88C82A8F8DA0010F015
:1037B800BBF8A8F8DC0010F0B7F8A8F8DE0010F0A5
:1037C800B3F8A8F8E000FFF729BBB8F1DA0F40F02A
:1037D800198110F09FF8DFF85C8288F81E0210F05B
:1037E80099F888F81F0210F095F888F82002FFF77A
:1037F80015BBB8F1F20F29D110F08CF80F288046CC
:103808003FF680AB10F086F88A4BC8EBC80898449E
:1038180088F8E80010F07EF888F8E90010F07AF8E7
:1038280088F8EA0010F076F888F8EB0010F072F8E3
:1038380088F8EC0010F06EF888F8ED0010F06AF8DF
:1038480088F8EE000FF0A2FFFFF7E8BA22D8B8F127
:10385800DC0F0FD110F05EF8DFF8D88188F8C901C5
:1038680010F058F888F8CA0110F054F888F8CB011D
:10387800FFF7D4BAB8F1EF0F40F0C48010F054F855
:10388800DFF8B081A8F8EE0110F04EF8A8F8EC01C6
:10389800FFF7C4BAB8F1F50F40F09580012003F0A6
:1038A80017FE4FF00008644BDFF8A4A1634883F8C3
:1038B8000080C02241468AF8008014F0D7FD8DF8B8
:1038C800178052465E4B9DF8171093F87A0088428D
:1038D80066D99DF8171003EBC10191F87D10C9074F
:1038E80057D59DF8171003EBC10191F87C00554995
:1038F80031F9101000294CDD9DF817009DF817E0EC
:103908001178DFF838B103EBC00003EBCE03D0F831
:103918008000D3F8803040681B8909010BEB010C4B
:103928004BF80100ACF80630D8469BB24FF0000CBB
:103938004FF0010E0EFA0CFE1EEA030E05D10CF133
:10394800010CBCF1100FF3D100E0E64608EB010CC6
:103958000831ACF8083002238CF80B3004238CF8BB
:103968000A30DCF80830CCF80C30012341448CF8DC
:103978000E30ACF804E001920DF054FB019A137874
:10398800190188445BF80110B8F806008861013312
:1039980013709DF817300133DBB28DF8173091E7BB
:1039A8009AF800000FF0D3FF03F05CFD38680DF0C3
:1039B800FBF82B6818680DF0C2FA286839680EF011
:1039C800D9FAFFF72BBAB8F1FA0F1BD11E4B1B78A7
:1039D80058077FF5D4AC15E0DFF8588008F1400AA5
:1039E8000FF0A2FFA8F86C030FF094FF88F86E039D
:1039F8000FF090FF08F1040888F86B03D045EFD169
:103A0800FFF70CBA07F0CCF9FEF7CAB90C2821D198
:103A18000E4810F075F967E0C8100020001000206B
:103A2800C4270020380F0020300F00206420002019
:103A38002C0F0020A8300020D80000208825002066
:103A4800040D0020242C0020833600205FD30108B9
:103A58008F2A00200A2801D00D2864D1394D3A4810
:103A680010F04EF92846232114F035FD08B1401B0B
:103A7800206023687BB35A1EA95C202901D1134614
:103A8800F8E7304A23600021D154304B304FD3F847
:103A98000090D7F800A02B4E504614F02AFD05469A
:103AA8002A463046514614F02DFD2A4A20B9735D46
:103AB8004B445B78580703D010379742E9D306E0A8
:103AC800974204D2681CFB683044984702E02248B9
:103AD80010F016F900231B4823600021302214F04F
:103AE800C5FC009B1B7853B30AF094FFFEF784B81B
:103AF8000C288DD07F2804D1FEF77EB82F2B3EF6F8
:103B08007BA8A0F12002D2B25E2A3EF675A813B9AE
:103B180020283EF471A85A1C22600A4AD0540FF09B
:103B280077FFFEF769B87F28E8D1013B054A0B48C3
:103B380023600021D15410F0E3F8FEF75DB82FB0F0
:103B4800BDE8F08F8C200020EDE701083C04002040
:103B580068B6010868B801086AD3010886D3010865
:103B68002DE9F04FA34FA44C3A6802F59C432DED84
:103B7800028B20332360A14B1E7889B0D6B1A049AF
:103B880009688A4240F20881013E1E7004E1DFF8AC
:103B980090829C48D8F80030072D98BF595D9A4B01
:103BA80088BF29461B689847032D09D904EB4505AA
:103BB8000136A88003F00AFBF5B28542E7D320E07E
:103BC800D8F8002005F1100302EB83039988DA88FE
:103BD8000028EBD04FF47A73401A5843531A90FBDD
:103BE800F3F040F6C90300F57A70984205DC40F21C
:103BF800EE239842B8BF184601E040F6CA0080B2EA
:103C0800D4E7824B824E1B68D6F8008042F2010A44
:103C180003EA0A0ABAFA8AFA4FEA5A1A7D4BBAF143
:103C2800000F05D194F828201A707B4A517811703A
:103C38001B782BB1784B93F8009089F0010900E0CC
:103C480099460F23DFF8F0B184F82930002503F0F6
:103C5800BDFA854267DA6B00B9F1000F03D06F4AED
:103C680032F8150000E048466D4ADFF8D0C1116807
:103C78008A8B82424FEA850E6A4A02D8C98B8142F2
:103C88001CD25CF80E005C49804501D2D05A19E07C
:103C9800E8B203920293019103F0B0FA032D029B5C
:103CA800039A0FDC01994FF0010E91F829C00EFA22
:103CB80005FE2CEA0E0E81F829E003E008F596715E
:103CC8004CF80E10BAF1000F28D194F8BC1003225A
:103CD800B1FBF2F202EB42028A1A03EB050E5EFA1E
:103CE80082F204EB4202508594F8BD202AB90229D9
:103CF80013D9414A012182F8BD10BBF800203BF8D6
:103D0800020C1044BBF802201044474A80B2D0523B
:103D180000B2032290FBF2F080B2424AD052013541
:103D28000BF1060B93E794F82920404BA2F10F05FD
:103D38006A426A4184F8D6206AB13D4A1268500145
:103D480009D43268D9689A60521AC82A1FD9012240
:103D580083F821201BE0304A01215170117032682C
:103D68009968DA605B68521A9A4282BF2F4B002228
:103D780083F82120002503F029FA854207DAE8B202
:103D880003F03CFA274B23F815000135F3E794F8C4
:103D9800BC30013384F8BC301C4B1A6812F4805FC5
:103DA800984605D0224B1B68D90701D410F0BEFBFA
:103DB8001B4B39681868037B002B41D0013B194D18
:103DC800827B35F813301AB1C3F53B6308339BB2D5
:103DD8001BB2A3F57A73B3F57A7FA8BF4FF47A7351
:103DE80023EAE37307EE903A9FED127AF8EEE77A4A
:103DF8005FE000BF5C360020E00D00208814002042
:103E08008414002050360020E40000208014002094
:103E18008C1400207011002000000020E40D002008
:103E28007C140020443000209E0E002090140020B6
:103E3800C014002000007A440C0E0020540E00200C
:103E4800D8F80020120440D5D4F8D820B14E8A1AE8
:103E5800002A3ADB01F59C422032C6F8D820AE4A47
:103E6800407B5579AD4A32F8152096F8DC5001357B
:103E780092B292FBF0F205F00F0086F8DC003044B5
:103E880080F8DD201A46A648185C01330244102B3E
:103E980092B2F8D112B292FBF3F31BB2642BA8BF13
:103EA800642323EAE37307EE903A9FED9E7AF8EED7
:103EB800E77AC7EE877A9C4A9FED9C7A67EE877A05
:103EC800FCEEE77A17EE903A1380D8F80030984E57
:103ED800984F13F4807F00F00081974BDFF85CA2C5
:103EE800994205D99AF8022012B901228AF80220CB
:103EF8009AF80220002A00F0F080904A316892F87F
:103F080021503A7805F1FF3EDEF10005C1F38063E8
:103F180045EB0E05C2F3800B01933DB912F0080F73
:103F28000CBF4FF000094FF0020901E04FF0000903
:103F38009AF82020052A00F2CA80DFE802F0034C34
:103F4800608695B1BBF1000F38D0D4F8F000B4F812
:103F5800F4100CF0E9FD012809D17949794A09687A
:103F68001268C988642000FB0122CAF81020019B4E
:103F78005BB1734A126812793AB10FF0A9FC0322B7
:103F88008AF820204FF47A7236E0002D40F09F80A6
:103F98006C4ADAF810101068684A88420AD9029206
:103FA8000FF096FC029A032182F8201040F6B831EF
:103FB800D161BDE7012182F82010B9E7019B4FF4D8
:103FC800806013B108F0C6FF01E008F0B3FF0022DB
:103FD800CAF810207BE0002D57D1594A1268127A8E
:103FE800012A02D00FF074FCA2E70FF071FC032243
:103FF8008AF8202040F6B832CAF81C2098E725B184
:1040080005228AF82020012000E02846BBF1000F95
:104018000CD0D4F8F020118A4B4A1180518091803D
:10402800474909684988D1804FF00309454A116812
:10403800DAF81420914202D8BBF1000F44D147F2BC
:104048003052CAF81C20032220E03A7842F00202DB
:104058003A7010F06BFA3B4ADAF81C1012680A44FE
:10406800CAF81820042211E0364A95B11168DAF826
:10407800182091422BD9354A927812B93268D00764
:1040880025D43A7822F002023A7005228AF82020D4
:104098004EE71268DAF81C100A44CAF8182016E02D
:1040A8002749284A09681268C988642000FB012248
:1040B800CAF810204FF4806000228AF820208AF87D
:1040C800032008F037FF33E700287FF431AFB9F158
:1040D800000F02D048460CF029FE1D4DB5F8E0103F
:1040E80005F50F700CF020FD33681901834603D4E1
:1040F800D8F800305A022FD53B785B072CD5154BE2
:10410800B3F90620B5F856329A4236DB012384F813
:10411800F63039E0E00D002034140020441400206B
:10412800BD0E00200000C842C410002000C07F441B
:10413800C014002083360020404B4C00901400200F
:10414800342E00208C140020443000200000002071
:10415800A8300020A62B0020002384F8F630BBF1FD
:10416800000F11D1A249A34B0020002208601A6059
:1041780048605A6088609A6006E0BBF1000F06D17B
:1041880094F8F630002BEDD03B78580736D5D8F8A0
:104198000030D90632D5984B1B78DA062ED4974BC7
:1041A8009B7893B195F89332BBF1000F15D17BB191
:1041B800934B1A68D4F8F8309B1A002B08DA10F0E1
:1041C800B5F9904B83F8FCB018E0BBF1000F0DD1A6
:1041D80010200CF0ABFD01230EE03BB1884A1268B9
:1041E8004FF47A7101FB0323C4F8F83094F8FC30DB
:1041F80023B10CF085FD002384F8FC30002295F8EB
:104208009212B5F84EE2B5F850C21346DFF8109294
:1042180039F912009B087045C4BF63F07F03DBB215
:1042280001326045B8BF43F04003042AEED194F848
:10423800FD2074489A4205D190F8FE20F92A04D846
:10424800013200E0002280F8FE2084F8FD306B4B3C
:104258006C4A98789A4628BB3368DB070AD582F8F7
:10426800FF00BBF1000F1DD13B78DB071AD50FF01B
:1042780087FF17E03B78580714D5634B1B788BB141
:10428800624BDB7873B992F8FF300133DBB2032B52
:1042980082F8FF3006D911B110F048F902E0BBF1FD
:1042A800000FF9D094F8FE30DFF858B1142B74D110
:1042B8009AF802309BB19BF8FD305F2B0FD13B7809
:1042C80003F0040303F0FF0213B110F02FF906E026
:1042D8000B2001920CF02AFD019A8BF8FE203B7806
:1042E80003F0040303F0FF01002B56D194F8FD30CE
:1042F800444A572B1AD1464B1A684FF47A73B3FBCA
:10430800F2F3C3EB431203EB8203424ADB00138050
:10431800D8F800301A0601D509F0D6FE3E4B1B68C6
:104328005B073AD53D4B0A221A8036E0D8F80000E0
:10433800400717D55A2B15D192F800312BB101231C
:1043480082F8001182F8013127E092F8023183F0F7
:10435800010382F802310BB10C2000E00D200CF0B3
:10436800E5FC1AE05D2B00F019865B2B00F018863F
:104378005E2B02D1032000F014BE562B01D108F0A9
:10438800FDFE9AF80230002B00F0118694F8FD30FB
:104398006F2B40F00C860FF0F3FED8F800305B0767
:1043A8004FD594F80231174A8BB13B7858070ED590
:1043B800B9F90610B5F84E32994208DD336813F0A2
:1043C800010302BF3221A2F8061182F802313368D4
:1043D800D90327D594F808210A4B2AB993F8002164
:1043E80012B93222A3F80621012384F8083128E003
:1043F800882B0020102C0020001000200000002036
:104408008C140020E00D0020701100209014002072
:104418001018002078360020981700207A360020DF
:104428004430002094F80031B74A53B13B7803F088
:10443800040303F0FF0123B9012382F8001182F875
:104448000131DFF8E4920023336009F1500A19F8CA
:10445800010C49460CF042FB38B119F8022C012333
:1044680003FA02F233681343336009F10409D145B2
:10447800EDD1A64B1B783BB13368DFF8B09213F04F
:10448800020F40F0E281D9E1DFF8A49209F15A0A5B
:1044980019F8010C49460CF021FB10B399F80230C9
:1044A80099F804E09A4A99F803B097480C21013B1F
:1044B80001FB0E4103EB43031344D1F810219A4248
:1044C8000FD0C1F81031002390F83C21C1F8143105
:1044D800012303FA0EF322EA030381F80CB180F8F2
:1044E8003C3109F10609D145D2D18A4BD4F8409123
:1044F8001B680393884B1B780493884B0293002313
:104508000193029B1B68002B00F08D8193F800A09B
:10451800BAF1000F00F08781029A039952688A1A4B
:10452800002A0CDB01F5FA7202994A60019901220E
:104538008A4094F83C1121EA020284F83C21049A4A
:10454800002A00F07081029A597812F8042C04327B
:10455800D2B2002940F03081714931F91210714A04
:10456800B2F84C2202F1C800814202DD93F802B091
:1045780015E0C83A914203DA9978C1F1000B0EE0D0
:10458800019A0123934094F83C2122EA030384F81A
:104598003C31039B029A03F5FA73536043E194F8A4
:1045A8003C21019B1A41D20700F13D81BBF1000F6C
:1045B800CCBF022001200CF0F1FB0AF1FF32132AD4
:1045C80000F22981DFE812F0140020002C004000DE
:1045D8005D0066008300B600D200DE00EC00270113
:1045E8004000510066008300B60077009400C600C2
:1045F80099F800105944FA29A8BFFA2121EAE17173
:1046080089F800100120C8E099F80210594464297B
:10461800A8BF642121EAE17189F802100220BCE0F8
:1046280099F804A0D4F84411DA44BAF1640FA8BF89
:104638004FF0640A2AEAEA7A484689F804A00CF09E
:10464800DFF903205146A8E099F806105944642977
:10465800A8BF642121EAE17189F806100D200CF049
:1046680083FABAF10D0F00F0D68099F80510594475
:104678006429A8BF642121EAE17189F805100E2098
:104688008BE099F80710594481F3080189F807105D
:10469800052082E0D4F8482191785944C829A8BF58
:1046A800C82121EAE17191700F200CF05DFABAF18E
:1046B8000F0F00F0B080D4F8482151785944C82928
:1046C800A8BFC82121EAE1715170122065E0D4F831
:1046D8004821117B5944C829A8BFC82121EAE171A2
:1046E800117310200CF040FABAF1100F00F093800B
:1046F800D4F84821D17A5944C829A8BFC82121EA49
:10470800E171D172132048E0E00D002086360020C8
:1047180020AD01088C14002070110020F00E00203C
:1047280044300020A8300020FD34002098170020D5
:104738004C350020D4F84821917D5944C829A8BF98
:10474800C82121EAE171917511200CF00DFABAF136
:10475800110F60D0D4F84821517D5944C829A8BF09
:10476800C82121EAE1715175142016E0D4F84821D6
:10477800D1785944C829A8BFC82121EAE171D1706C
:1047880009200AE0D4F84821517B5944C829A8BF18
:10479800C82121EAE17151730A200CF0E5F93AE0E9
:1047A800D4F84821D17D5944C829A8BFC82121EA95
:1047B800E171D1750B20F0E701292CD19878B94B1C
:1047C80033F91230B3F5617F05DB40F633029342CB
:1047D800A8BF134601E04FF46173BAF10C0F1AD168
:1047E8004FF4966292FBF0F0AF4A1278A3F561732A
:1047F80093FBF0F3DBB29A420DD01846059308F00C
:10480800F3FB059B504619460CF0AEF9059B581C66
:10481800C0B20CF0C3FA019A0123934094F83C21EA
:10482800134384F83C31019B01330193029B0C3301
:104838000293019B042B7FF464AE1DE6D8F8003088
:10484800DB050FD5994BDB7863B1D9F800309807B1
:1048580008D5974B1B8813F0010A08D1012008F0EE
:1048680079FB04E0012008F065FB012300E0002348
:10487800326851070BD553B1012008F05BFB8C4B14
:104888001B889A0706D4022008F064FB02E0022085
:1048980008F050FBD9F8003013F00A0F2FD0336816
:1048A800DB060FD5824B1B8858070ED4042008F06E
:1048B80051FB804B0A22B3F9043093FBF2F3A4F8BE
:1048C8004C3102E0042008F035FB3368990607D51F
:1048D800774B1B885A0606D4402008F03BFB02E0C1
:1048E800402008F027FB33685B0641BF714BB3F9E2
:1048F80004300A2293FBF2F348BFA4F84E31D9F8EA
:104908000030980608D43368190540F1A3804FF4A5
:10491800807008F01FFBA1E0674BDFF894B11B78AB
:1049280013F0020F59D0654B1B78042B55D9336807
:1049380013F4007A0FD0BBF80030DA0640D4102008
:1049480008F008FB202008F0F5FA5D48011D09F081
:104958000FFB02232FE0BBF8009009F010091FFAA3
:1049680089F33BB1102008F0E5FA4FF0010984F80B
:1049780050A100E0994633685B0514D5D4F854314A
:1049880050495A89B1F90030DFF83CA1002BB8BF73
:104998005B42934207DAB1F90230002BB8BF5B42A1
:1049A8009342C0F25583BBF8003098060AD5202000
:1049B80008F0C0FA002384F850314FF0010901E0F3
:1049C8004FF0000994F86031BBB90E200CF0AEF935
:1049D8003D4B012283F860210FE0BBF8003003F063
:1049E8003003002B8FD0102008F0A4FA202008F004
:1049F800A1FA002384F8503102E0B9F1000F82D007
:104A0800324B002003F1280C03F1500E304A0021EC
:104A180022F810102F4A596022F810100432CCF8EE
:104A2800041022F8101000221A609A60CCF80020B6
:104A3800CCF80820CEF80020CEF80410CEF80820D4
:104A480014330CF1140C0EF1140E00287FF45BAF34
:104A58000120DBE74FF4807008F06CFA1E4B5A799E
:104A6800082A994601D00E2A02D1402008F062FA9D
:104A7800D8F80030590537D599F8D8321BB93B78A2
:104A880013F0040F02E0336813F4002F28D0134BFF
:104A980000221A703C2006F04EF928B302F0C2FC3E
:104AA800F8E700BF44300020402E0020901400207A
:104AB800BC140020702B00200010002006100020DD
:104AC800C8100020A62B0020E00D0020440F002075
:104AD8007C360020BC0F0020A830002024180020BD
:104AE80010F048F810F038FB012384F8E431D4F8CA
:104AF8004001D24B4189B3F906208A420EDBB2F558
:104B0800FA6F067ABDBF531A7343A1F5FA66C6F168
:104B18006406BCBF93FBF6F6643600E0642695F99C
:104B2800D831B5F84C7295F81E9295F81FA25B42E1
:104B38009BB201930021C24BDFEDC27ACE54BF4B2A
:104B48009FEDC16A33F911E0C7EB0E0340F2E63579
:104B580003F2F31BAB454FEA410CBC4DFBEE096A6F
:104B68002FD8002BB8BF5B4202292ED04B4502DD5F
:104B7800C9EB030300E0002307EE103AB8EEC77A4A
:104B88008378C7EE277ABE4507EE103AE7EEA76AA4
:104B98000378B8EE477AF0EE465AE7EE265A65EE05
:104BA800A76A07EE903AF8EE677A26EEA77AC7EE7C
:104BB800067AFDEEE77A17EE903A25F80C3030DBEE
:104BC80036E002294FF4FA73D2D15345CCBFCAEB71
:104BD8000303002307EE103AB8EEC77A437ABDF80C
:104BE80004B0C7EE277ABE4507EE103AE7EEA76A8B
:104BF8004378B8EE477AF0EE465AE7EE265A25EEA5
:104C0800A77A07EE903AF8EE677A67EE277AC7EE4A
:104C1800867AFDEEE77A17EE903A13FB0BF3AB803A
:104C28000ADADFF828E23CF80E305B422CF80E3046
:104C3800013103297FF47FAFD8F80000844E10F4C7
:104C480080500DD0B2F57A7F05DBB2F5FA6FA8BFB8
:104C58004FF4FA6201E04FF47A72A2F57A7212E028
:104C6800B6F84E128A4205DBB2F5FA6FA8BF4FF4C8
:104C7800FA6200E00A46521A4FF47A735343C1F5B8
:104C8800FA62B3FBF2F2DFF8F8816FF0630C642389
:104C980092FBF3FE38F81E100CFB0E220EF1010EEB
:104CA8000FFA81FC38F91EE0CCEB0E0E0EFB02F277
:104CB800DFF898E192FBF3F30B449BB2AEF80630B1
:104CC800B0B1644A1268D20012D5634AD2787AB970
:104CD800C7F5FA61A3F57A731BB209B21A034FF448
:104CE8007A7392FBF3F34B4307EB2337AEF8067066
:104CF8005A4FB7F8008008F040081FFA88F8B8F152
:104D0800000F39D0564BDFED577AB3F904300A2239
:104D180093FBF2F3B4F84E219B1A1BB208EE103A3B
:104D2800B8EEC88A28EE278AB0EE480A08F0FAF8E2
:104D3800F0EE408AB0EE480A08F093F8B5F9023070
:104D480006EE903AB5F90030F8EEE66A07EE903ACA
:104D580020EE667AF8EEE77AA7EEA87A67EE807A10
:104D6800BDEEC77AE6EEA87A17EE103AFDEEE77ABE
:104D78002B8017EE903A6B8096F85332002B51D067
:104D8800B8F1000F4ED1384C384E94F8E5219A42CC
:104D980015D007EE903A9FED338A84F8E531F8EEA6
:104DA800E77A27EE888AB0EE480A08F0BBF886ED65
:104DB800010AB0EE480A08F054F884ED7A0AB5F909
:104DC8000030D4ED7A5A96ED016A294A07EE903AF6
:104DD800B5F9043006EE903AF8EEE66AF8EEE77AAE
:104DE80025EEE67AA7EE867A67EEA57ABDEEC77A53
:104DF800E6EE867A17EE103AB3F5FA7FA8BF4FF4BD
:104E0800FA739342FDEEE77AB8BF13462B8017EE8C
:104E1800903AB3F5FA7FA8BF4FF4FA739342B8BF3C
:104E28001346AB80134B144D1A7812F0040F29D097
:104E3800124B1A689B88138566E000BF4430002037
:104E4800842B00200000C84200401C45A62B0020EF
:104E5800A8300020C014002090140020BC140020AA
:104E6800702B002035FA8E3CE00D00200000002059
:104E78000CFEFFFF833600209817002068300020C2
:104E88003029002082490968C80703D5814991F86B
:104E9800EC1111B142F001021A707F4A1278110721
:104EA80058BF1A787D495CBF22F001021A702A683F
:104EB80012F0040F02D07A48008878B97548B0F823
:104EC800040108B1920709D4764A1288003218BF43
:104ED80001221AB974480088642806D902220A7087
:104EE8001A7822F001021A7005E01B78DE0756BF17
:104EF80002230A700B700BF0AFFE6C4B1B68C01AD4
:104F0800002801DB02F0CEF92B685C071CD5604B4A
:104F18001B68180703D4082008F00CF814E03C8834
:104F280004F00804A4B27CB9082008F013F8604B18
:104F38001A68604B1A60604BDA88564BA3F8EE216A
:104F48005E4B1C605E4B1C602B68D90640F19A8052
:104F58004F4B1B689A0208D44FF4007009B0BDEC9F
:104F6800028BBDE8F04F07F0E5BF3C8804F40074FD
:104F7800A4B2002C40F086804FF4007007F0EAFFDE
:104F88004B4B1A684B4B1A604B4BDA88414BA3F8D2
:104F9800EE214A4B1C604A4B1C6073E0012000E084
:104FA80002200138C0B208F0D7F8FFF7F6B994F834
:104FB800FD30972B06D1374B4FF4C872A3F8042164
:104FC800FFF7EBB9A72B06D1334A137843F0040354
:104FD8001370FFF7E2B90022BB2B079201D102231D
:104FE80003E0B72B04D14FF6FE73ADF81E3009E08D
:104FF800BE2B01D1022303E0BD2B18D14FF6FE735F
:10500800ADF81C30BDF81C20B5F8EC311344A5F8F8
:10501800EC31BDF81E20B5F8EE311344A5F8EE3199
:1050280008F0ACF8002384F8FE30FFF7B6B9792B06
:1050380004D1244AD37823F0010306E07A2B7FF4C5
:10504800ACA9204AD37843F00103D370FFF7A5B980
:10505800BBF800309B063FF5B5AC202007F07AFF7F
:10506800194B0AF5AC701A685B68CAF858210AF53A
:10507800AE714FF00109CAF85C3108F079FF8AF87F
:1050880050919FE409B0BDEC028BBDE8F08F00BFE2
:10509800C0140020E00D002000100020B4140020EF
:1050A8007A36002078360020422E0020B8140020DE
:1050B800C0100020C427002044300020CC27002046
:1050C800D027002080200020081000202DE9F04F74
:1050D80085B00FF04FFDBF4B1E78002E40F0AF8714
:1050E800BD4D2B685C0540F1AA87BC4BBC4CB3F89E
:1050F800E0802378BB4F002B00F003823A68636896
:10510800D31A7C2B40F2FD81237A6260013323722B
:1051180006F12400DFF8C892C0B20FF0DFFC09F1F5
:105128000C0353F8263007EE903AAF4B1B88B8EEC5
:10513800E77A07EE903AF8EEE77A0136C7EE277A73
:105148009FEDAA7A67EE877AFDEEE77ACDED007AD1
:10515800BDF900000FF0B0FC032ED9D130200FF0BC
:10516800BDFCB9F918000FF0A7FC0FF0AFFC99F8D7
:105178000830980732D1D9F8042041F288339A428E
:1051880019D910200FF0AAFC6426D9F81C0090FB4E
:10519800F6F000B20FF090FC21200FF09FFCD9F838
:1051A8001C0090FBF6F306FB13000028B8BF404232
:1051B80000B20FF081FC14200FF090FC8C4BB3F977
:1051C80004000A2390FBF3F00FF076FC1C200FF08C
:1051D80085FC00200FF070FC0FF078FC237A59074B
:1051E80040F06B8102200FF079FC7D4B186A642334
:1051F800323090FBF3F000B20FF05EFC7D4B0320E1
:10520800B3F906600FF06AFC7B4B1B785A074FF026
:10521800050996FBF9F6B6B20BD5784841460BF06E
:1052280083FC20B92B6813F0100F18BF002630B28A
:1052380005E0734B1B68D889B0FBF9F000B20FF09A
:105248003BFC2B689B076FD5DFF8C891A68CDFF86D
:10525800C88199F80010B8F8002036016423B6B266
:1052680003FB02124B00B2FBF3F346EA0326B6B285
:10527800C3F303231E4306200FF030FC30B20FF0B7
:105288001BFCA38C99F8002001339BB293FBF2F12D
:1052980002FB1133A16AA3848B7B012B05D1392032
:1052A8000FF01CFCB8F9000021E0B8F800606E238C
:1052B8007343152693FBF6F6CB7BB6B20BB196FB80
:1052C800F2F63A200FF00AFC4FF06409B6FBF9F841
:1052D8000FFA88F00FF0F0FB09FB18663B200FF07F
:1052E800FDFBB0B2461D0A2096FBF0F000B20FF0AD
:1052F800E3FB28200FF0F2FBE36A0A2093FBF0F0AF
:1053080000B20FF0D9FB04200FF0E8FB3C4B1B6800
:10531800DB8913B101F0C8FE03E03A4B186880F34B
:10532800100000B20FF0C8FB374B1B689E0640F117
:10533800B98094F83030DFF8A88098071DD511207F
:105348000FF0CCFBB8F83200304B4FF4F3667043E3
:1053580090FBF3F000B20FF0AFFB19200FF0BEFB8B
:10536800B8F832004643642096FBF0F696FBF0F35B
:1053780000FB136000B20FF09FFB94F83030A68E4C
:1053880013F0020F08BF002601200FF0A7FB30B270
:105398000FF092FB09200FF0A1FB00200FF08CFB0F
:1053A8001B4B94F836601A88B2F5967F0AD90C4BD5
:1053B8001B7A03F00F03072B04D842F20F769642AC
:1053C80028BF164605200FF089FBA36A5B7B3BBB11
:1053D80030B242E08636002080140020A830002039
:1053E800D00F00208C1400200800002000007A4410
:1053F800702B0020A62B002083360020E4320020EA
:105408002C1400203014002098170020A0860100DA
:10541800EC00002038040020781400206666E63F7F
:10542800A6F1200307EE903A1FED047AF8EEE77A2A
:10543800F6EE006AC7EE877ABEEE007AF5EEC07A1D
:10544800F1EE10FA58BFB0EE667A77EE877AFDEE85
:10545800E77ACDED007ABDF900000FF02DFB94F846
:105468003020C34B910703D493F83720012A04D185
:10547800012384F83730BF481BE09B6ADFEDBE6A22
:1054880093ED017AD3ED027A27EE267A67EEA67AB3
:10549800BDEEC77AFDEEE77A8DED027ACDED037A9F
:1054A80002A806E0B54A92E8030002AB83E80300CD
:1054B80018460FF023FB0FF009FB237A282B20D185
:1054C800AB4B386800221A724FF03C094FF47A73DC
:1054D800B0FBF3F817200FF001FBB8FBF9F6B6FBA9
:1054E800F9F009FB1060000200B20FF0E5FA18208D
:1054F8000FF0F4FA09FB168000B20FF0DDFA0FF096
:10550800E5FA94F84030DFF86882002B00F05D81FE
:105518000BF0A2FBD8F84430994AC31A93420646C6
:1055280040F2C080002388F84A3088F84C30954B08
:105538001B88DAB21B0A88F8662088F8673088F872
:105548005C2088F85D30D8F874203B689A1AD8F83F
:105558007830197C4FF47A734B439A420ED38A4BB6
:105568001B68C8F87430894B1B78013B012B9FBF1F
:10557800102388F84A30022388F84C300A20E26A5F
:10558800834B92FBF0F284F86420121284F86520B1
:1055980094F830201B6893FBF0F384F868301B12F2
:1055A80084F86930920794F83630714984F8963057
:1055B80003D42D2381F8973072E0042BD4F838A057
:1055C800E76BDFF8DC91734A8CBF3323322381F811
:1055D80097304FF00608704B9AFBF3F097FBF3F304
:1055E80009FB00A109FB037903EB830308FB01F125
:1055F80003EB830391FBF2FC4FF0640E02FB1C11DA
:105608009B0091FBFEF184F88810091208FB09F849
:1056180084F8891098FBF2F143FA81F39BB202FBFC
:10562800118292FBFEF284F88D20121284F88B30DE
:1056380084F88E201B0A628E84F88C30242353430E
:1056480093FBFEFEB4F8A83084F88F301B0A00EBF9
:10565800800084F89030A38E84F883E000EB80000B
:10566800800003F5FA739BB240FA8CF080B284F89C
:1056780091301B0A4FEADA7A84F88600FF0F000A95
:10568800CEF3072E84F89230B4F8AA3084F885A0B7
:1056980084F8870084F88A7084F884E084F8983065
:1056A800334B5E64324C94F8AC80B8F1000F0DD1E6
:1056B800D4F8B4000BF054FC012807D90228374F5E
:1056C80000F07F840FF0EAF90123BB70D4F8B870BA
:1056D800274B002F79D093F8AC203AB1D3F8C020EB
:1056E80040F6B731B21A8A4216D86EE0012283F822
:1056F800AC20D3F8C420D3F8B4001278022A04D816
:10570800043002210FF0B4F902E002210BF0C2FBD1
:10571800002384F8C83056E093F8BC20AAB9C3F82F
:10572800B82083F8AC20D3F8C420D3F8B40012789A
:10573800022A04D8043001210FF09AF902E001216D
:105748000BF0A8FB0FF0AAF93DE0013AD2B283F8BA
:10575800BC2093F8C81093F8C9001ABB01304A1C42
:1057680083F8C90083F8C820D3F8B40029E000BF43
:10577800D00F0020081000208096184B5CAD01085F
:105788003F0D0300781400208C140020412E0020C7
:105798003014002040420F00809698000800002036
:1057A800806967FF3A46013012F801EB83F8C900B7
:1057B8000EEB0107D3F8B40083F8C870C3F8B8201B
:1057C80071460BF0F9FBC4F8C060C14CC14E94F8A7
:1057D800CA303768002B00F0E681D4F8CC30002BB3
:1057E80000F0E18194F8D030013B012B00F2DB811D
:1057F800D4F8CC00DFF8D8820BF0B2FBE0B1D8F8CF
:10580800CC000BF0AAFB98F8D130D6F800A07E2B7C
:1058180081460ED102231B2888F8D03009D1D8F848
:10582800CC000BF09DFB20B90123C8F8D4A088F860
:10583800D83084F8D190DBE7D8F8D42033689B1AA5
:1058480041F6583293422AD9032388F8D030AAE186
:10585800A14A32F8130010B903464FF4036001332C
:10586800B0F5E06FDBB200F02E8129D9B0F5026FF8
:1058780000F06F8140F28280B0F5046F00F01A8169
:10588800B0F5116F00F07881B0F5036F0BD184F893
:10589800D930924BDFF838821B689A067CD494F88A
:1058A800D81094F8D930002900F07B813268D21BD7
:1058B800012ACDD984F8D930002384F8D83072E190
:1058C800B0F5047F74D00BD8B0F5887F00F0E6807F
:1058D800B0F5007F00F08280B0F5807FE3D190E0E2
:1058E800B0F5826F00F00F81B0F5C06F00F09580C1
:1058F800B0F5806FD7D184F8D93094F8E030744A85
:105908000133DBB2032B88BF012382F8E03094F81F
:10591800E01042F210735943714B1B78D80748BF07
:1059280001319A0748BF02315B076E4B1B8848BF9D
:105938000431D80748BF0A319A0748BF14311806FE
:1059480048BF2831DA0548BF2831580748BF6431B5
:105958001A0748BFC831980548BF01F5C8719A06AB
:1059680048BF01F57A71D80648BF01F5FA615A06B1
:1059780048BF01F57A614FF4806089E0B0F5E46FC3
:1059880000F0BA80B0F5006F50D0B0F5E26F8AD160
:1059980084F8D9302169B2E098F830309B077FF558
:1059A8007EAFB8F8321024234B431233642120E031
:1059B80084F8D9302B6898077FF571AF444BD3F83A
:1059C800DC30DA7B484B1B881AB1484A117893FBC4
:1059D800F1F30A214FF40470594359E084F8D9309F
:1059E8002B68DFF8EC8019057FF559AFD8F82C3013
:1059F8000A2193FBF1F10FF007F8002388F8D8305B
:105A08004DE784F8D930354BDFF8C4801B685A0756
:105A18007FF545AFD8F81C10EDE784F8D9302B682E
:105A28001B057FF53CAF324B1968B3E02B49284A78
:105A3800096884F8D93089067FF531AF92F83010BB
:105A480088077FF52CAFD90711D5D36B83EAE371AB
:105A5800002BA1EBE37101EB51014FF01902B1FBEF
:105A6800F2F1ACBF41F0004141F040410EE0936BD0
:105A780083EAE371A1EBE371002B01EB51014FF0D5
:105A88001902B1FBF2F1B8BF41F080414FF4006058
:105A98000EF0BAFF002384F8D83000E784F8D93034
:105AA8000E4BDFF82C801B685B077FF5F8AED8F843
:105AB8001810A0E784F8D9300E4BB3F9041001EBA5
:105AC80081014900E4E784F8D930E16817E000BFB4
