:020000040800F2
:1000000000A00020FD63010865640108B5480108EF
:10001000656401086564010865640108000000006A
:1000200000000000000000000000000065640108FE
:10003000656401080000000065640108570E0108AE
:100040006564010865640108656401086564010868
:10005000656401086564010865E5000863E500085A
:100060006564010865640108656401086564010848
:10007000E50D0108D50D0108610A01086564010854
:10008000C50D0108B50D0108656401086564010826
:1000900065640108656401086564010861E500089C
:1000A000DD07010819080108CD0701083D0801080E
:1000B0000D080108FD070108ED0701086564010846
:1000C00065640108656401086564010865640108E8
:1000D00065640108590A0108510A0108490A010822
:1000E000650E01086564010865640108656401081E
:1000F00065640108656401086564010865640108B8
:10010000000000000000000000000000656401081D
:100110006564010865640108656401086564010897
:100120006564010865640108656401086564010887
:10013000656401086564010800000000000000001B
:100140006564010865640108656401080000000039
:10015000000000000000000000000000000000009F
:1001600000000000000000006564010865640108EB
:1001700065640108000000000000000000000000AD
:080180000000000065640108A5
:100188002DE9F04FB44BB54C1B68B54E9F6AB54D81
:100198002DED048B9DB010F029FE2368C01A308025
:1001A80010F024FE2B782060012B01BFAE4B328863
:1001B8001A80AE4A04BF12885A8010F017FE06460D
:1001C800AB4BDB686BB115A898479DF8543043B129
:1001D8002B78072B10D110F009FEA34B801B188039
:1001E8000AE010F003FEA34A23681268FB1A1844B9
:1001F80050329042E4D3EBE72379002B00F0BB8622
:100208009D4D10F0F3FD95F85232814633B1C3EBA2
:10021800431603EB8603DB009BB201E08F4BDB88C0
:10022800964A1668B3FBF6F6954B8C4A1B78771CF2
:10023800BFB227819BB3DFF880A24FF00008914B33
:10024800404633F9181014F0A3FA08F10108B8F180
:10025800030FAAEC010AF2D1B4F80AA000237F48E0
:10026800884A00F1140E00F10C0832F813C03EF869
:10027800132038F813102EF813C0C2EB0C0B11FB27
:100288000AF13AB291FBF2F25A4428F813200133EA
:10029800042BE4D17A4B468100221A7002E053897C
:1002A800013B538160896D4A03B2002B4FF0000374
:1002B80022DDB2F908707449744E31F81320083100
:1002C80012FB00F231F8131092FBF7F28A1A26F8A3
:1002D80013200133042BEED10020B6F900106C4F27
:1002E80014F056FA0120B6F9021087ED000A14F04E
:1002F8004FFA87ED010A00E053815D4A0492936842
:100308000BB164489847644F5B4E396811F0080F89
:100318004FD05C4ADFF8A4E1908800F10E039BB24D
:100328001C2B5E4BB3F904303ED8DFF878C1BCF81B
:1003380000C01CF0040F37D0BEF800E04FF00A0CE4
:1003480093FBFCF3CEEB03039BB21FFA83FC0FFA7B
:100358008CFE1EF1B30FBCBF03F5B4731FFA83FC08
:100368000FFA8CF3B32BC4BFACF5B4731FFA83FC3C
:100378004B4B96F8D8E11B781B071AD54FFA8EFE1F
:10038800CEF1000E1CFB0EF3DFF834E1DEF800E0DE
:100398009EF809E09BB213FB0EF36FF01D0E93FB62
:1003A800FEF31844908004E00A2293FBF2F3AEF8BF
:1003B800003011F0140F00F0B9803A4B1B8803F499
:1003C8000273002B00F0B280354B2E4A1B7803F0E5
:1003D800100303F0FF0C4BB1334B96F99C12B3F9A1
:1003E8000000538800FB013353809FE0236A1B49B8
:1003F80093F803A0DFF8CCB02C489B78BAF1000F33
:1004080064D0B0F90000BBF906A0C0EB0A0888EA7E
:10041800E87EAEEBE87E9E450FDDDFF8ACE0824576
:10042800CEF800C04FF0010E81F824E0C8BF5B424F
:10043800D1889BB20B44D38078E091F824303BB14B
:100448001B4B81F824C0D3F800E01A4BC3F800E036
:10045800154B1B6803445FE078270020F80900204B
:10046800843600204E14002050140020422E002014
:100478006C17002010180020A8300020502B0020F6
:10048800C40F0020A62B0020040A0020682B00209F
:10049800602B0020140A002098170020702B0020E1
:1004A80000100020BC140020D0270020CE0F002010
:1004B800C0100020C4270020542B00202C0F00203F
:1004C800C420002044300020CC270020B0F900E0F0
:1004D800BBF90600CEEB000080EAE07CACEBE07CE8
:1004E8009C450ADD022390FBF3F0B24B1860B2483A
:1004F8000123037081F824300BE091F8243043B1D4
:10050800AE4B81F824A01868AD4B1860AA4B83F84D
:1005180000A0AC4B1B687344A06A018840888B42DA
:1005280003DB8342A8BF03461946D180A64B1B783C
:10053800EBB1A64BB3F90620B6F84E329A4216DC58
:10054800A34B5B79012B01D0192B02D196F8972286
:100558006AB90E2B0BD0082B09D09E4A0023938032
:100568009D4A93809D4A002393609D4A936096F824
:100578000CA2BAF1000F33D09A4B1B889B072FD0DF
:10058800994BDFED9A7A93ED080AB4EEE70AF1EE9B
:1005980010FA20D918F024FBD4ED0B7A20EE270AA4
:1005A80018F09AFAB0F5617FA8BF4FF4617007EEB2
:1005B800900AB8EEE70ADFED8E7A80EE270A0CF093
:1005C8000CFD07EE90AAF8EEE77A27EE800A18F0FD
:1005D80083FA80B200E000207F4AD3881844D08094
:1005E8003B689F0640F1A1807E4B1B8803F03003D7
:1005F800002B00F09A807F4B1B78D80740F195803C
:100608007D4BDFED7E7AB3F90430DFF80CA20A22C5
:1006180093FBF2F308EE103AB8EEC88A28EE278A60
:10062800B0EE480A0CF0D9FCF0EE408AB0EE480A69
:100638000CF034FD724B73491B6893F80380B0EEDD
:10064800409AB2EE048AB8F1000F4AD0DFF8CCB174
:10065800B1F90200BBF8027005913BB2C01A0DF067
:1006680031FDC8F1000290425B46059903DB404525
:10067800A8BF404600E0104638441F8806921FFA7B
:1006880080FBB1F90000A3F802B039B2401A059313
:100698000DF018FD069A059B904203DB4045024683
:1006A800A8BF42461744BFB21F803FB207EE107A78
:1006B8000FFA8BFBB8EEC70A07EE90BA28EEC07A9D
:1006C800F8EEE77A20EE090AA7EE897AA7EEA80ADB
:1006D80087EE087ABDEEC77A17EE103AAAF800300E
:1006E8001BE0B1F9023007EE103AB1F9003000EE24
:1006F800103AB8EEC00AB8EEC77A68EEC07A20EEB3
:10070800090AE7EE097AA7EE280AC7EE887AFDEE0D
:10071800E77A17EE903AAAF8003080EE080AFDEE64
:10072800C07A17EE903AAAF80230374B18780028AA
:1007380040F01584354B1A6812F4002F9A4600F0E1
:100748000E84334F3B78033B052B1AD896F80335B4
:1007580033B1012B08D10DF0C7FEC0F17F0003E0D3
:10076800206B03689B689847636B94F838201344A0
:10077800B3F5807FA8BF4FF480738342D4BF63630F
:1007880060633B78023B092B00F2E483DFE813F057
:100798000A00480075009500A900C000D100460372
:1007A800BC03C70300236363E3631A4B1B6823641A
:1007B8000323CEE368360020D4270020C010002091
:1007C800C4270020D0270020020000204430002049
:1007D800A8300020682B0020A62B0020602B0020CA
:1007E800542B0020BC140020102E00208FC2753C12
:1007F800EFB6B04400100020702B002035FA8E3C74
:10080800340F0020C00F00208A36002080140020FA
:10081800482900208C14002080360020BC0F0020BE
:10082800A04B1A68236C64339A4240F293834020A9
:100838000BF016FE002840F08D834FF040089A4BCD
:10084800E26B9A4E985C1D4658B107F03BFE736BFD
:10085800013B7363F36BB8F1010803F10103F36320
:10086800EDD1E26B914BAA5C002A40F07383DA6306
:100878004FF0FF321A6404236BE32A2300938C4B56
:10088800019303F10C0202924920A3F10A025021BC
:10089800023308F089F9002840F05C83DAF8003068
:1008A8004FF0FF3213F080030FBFE363E06322646D
:1008B800052304BF226407234BE37E4A0223002159
:1008C800009301910291482002F1080308F06CF9A5
:1008D800002840F03F834FF0FF332364E063062392
:1008E80037E3754B019303F10C020725029200953B
:1008F800A3F1080247200021043308F055F9002825
:1009080040F028834FF0FF33E06323643D7021E318
:100918006A4A05230021009301910291532002F1B4
:10092800080308F041F9002840F01483E063082325
:100938000FE340200BF094FD002840F00B83E36B9D
:10094800342B01F24281DFE813F0350038003D0016
:10095800410047004B004F005300570062006A00F7
:100968006E007B007F008E009D00EB00FA000901FD
:10097800180127013601490152015F016C01790113
:1009880086019301A001AD01BA01C301D201DB01C7
:10099800EC01F501FE0107021002210225022902DD
:1009A8002D023902450249024D02510255025902EF
:1009B8005D026102424843492AE243484349444AA6
:1009C800444B91E144484549454A36E0454896F844
:1009D800011596F8022530E04348B6F8D01017E222
:1009E8004248B6F8D21013E2049B414819690FE255
:1009F800404B414819880BE2636CD90403D53F4842
:100A080096F80E1204E2294B0A22DA6302E23C4805
:100A180096F8121296F8132296F8113264E13948C2
:100A2800B4F84810F4E1DAF800301A0540F1F28120
:100A38003548B6F81812B6F916220BF087FEE9E128
:100A4800324B33481968E3E195F85624314854236A
:100A58005343EA180C2192F8DC2301FB02331D44AE
:100A680095F8DE13D4E195F856242B4854235343C4
:100A7800EA180C2192F8DC2301FB02331D4495F897
:100A8800E013C5E195F85624244854235343EA1843
:100A98000C2192F8DC2301FB02331D4495F8DF1387
:100AA800B6E100BF8C1400207CAA0108F8090020D8
:100AB800E6AA0108D4AC0108ECAC010838AD01087D
:100AC800C4D00108D5D00108E1D0010809D1010836
:100AD8000FD1010817D1010822D1010836D1010828
:100AE80042D101084BD101085CD101086BD1010842
:100AF8007AD10108080000208AD1010894D10108A0
:100B0800A1D10108BAD10108C5D1010810180020E7
:100B1800D8D10108E4D10108EED10108F8D10108C3
:100B280095F85624CF4854235343EA180C2192F8D9
:100B3800DC2301FB02331D4495F8E71368E195F8BF
:100B48005624C94854235343EA180C2192F8DC234D
:100B580001FB02331D4495F8E11359E195F8562439
:100B6800C24854235343EA180C2192F8DC2301FBB2
:100B780002331D4495F8E2134AE195F85624BC481F
:100B880054235343EA180C2192F8DC2301FB023367
:100B98001D4495F8E6133BE195F85624B5485423CF
:100BA8005343EA180C2192F8DC2301FB02331D445D
:100BB800B5F8E8132CE195F85624AF48542353436D
:100BC800EA180C2192F8DC2301FB02331D4495F846
:100BD800E31395F8E42395F8E53385E096F8563461
:100BE800A648542202FB036696F8AE1310E195F866
:100BF8005634A348542202FB035595F8AF1395F8D1
:100C0800B92395F8C3336FE095F856349D485422BC
:100C180002FB035595F8B01395F8BA2395F8C43339
:100C280062E095F856349848542202FB035595F82B
:100C3800B11395F8BB2395F8C53355E095F85634AC
:100C48009248542202FB035595F8B21395F8BC2339
:100C580095F8C63348E095F856348D48542202FB7F
:100C6800035595F8B31395F8BD2395F8C7333BE0C2
:100C780095F856348748542202FB035595F8B41367
:100C880095F8BE2395F8C8332EE095F85634824877
:100C9800542202FB035595F8B51395F8BF2395F830
:100CA800C93321E095F856347C48542202FB035599
:100CB80095F8B61395F8C02395F8CA3314E096F85A
:100CC80056347748542202FB036696F8B7139FE020
:100CD80095F856347348542202FB035595F8B81317
:100CE80095F8C22395F8CC330BF030FD92E096F8D6
:100CF80056346D48542202FB0366B6F8D81387E0D1
:100D080095F856349FED697A6948542202FB0355D9
:100D1800B5F8D03307EE903AF8EEE77A67EE877ABF
:100D280053E096F856346348542202FB036696F85B
:100D3800DA136DE096F856345F48542202FB0366D6
:100D480096F8DB1364E096F856345C48542202FBAC
:100D58000366B6F8D4135BE096F856345848542224
:100D680002FB0366B6F8D61352E095F856349FEDA9
:100D78004F7A5448542202FB0355B5F8CE3307EE98
:100D8800903AF8EEE77A67EE877A1EE04E4896F8D2
:100D98001E123DE04D4896F81F1239E04C48B6F84F
:100DA800DC1135E096F8DF319FED407A494807EECF
:100DB800903AF8EEE77A67EE877A06E0D6ED7C7A25
:100DC8009FED3A7A444867EE877AFDEEE77A17EEA8
:100DD800901A1DE0414896F8D91119E0404896F854
:100DE800E81115E03F4896F8E71111E03E4896F8FB
:100DF80091120DE03D4896F8151209E03C4896F826
:100E0800521205E03B48B6F8561201E03A48B1687C
:100E18000BF09CFCE36B0133E3639BE0374B1B68EF
:100E28009B011BD5B4F84C30354DBBB9354BD5F8C3
:100E380050801E68452007F045FB0E2007F042FB56
:100E480040460BF0F6FB30460BF0F3FB4FF48053B3
:100E5800A5F84A300A233B7007F0A4FB07F086FE8A
:100E680078E000BF05D2010812D201081CD201089F
:100E780027D2010834D2010846D2010855D2010808
:100E880066D2010877D2010889D2010899D20108EF
:100E9800A9D20108B9D20108CAD20108DBD20108D7
:100EA800EDD20108DDD20108F7D201080000C842DE
:100EB80006D3010814D301082BD301083AD301083B
:100EC80056D301086CD3010880D301087CD30108EC
:100ED8008CD3010898D30108ABD30108B9D3010812
:100EE800C9D30108DAD30108EAD3010803D40108F9
:100EF8001CD4010832D401084FD40108C0140020C2
:100F0800F80900206036002094F85430002BA3D054
:100F1800B34B1B689E019FD409233B709EE7B14BDE
:100F28001A68236CC8339A4203D996F803557DB9D9
:100F380004E00BF0DBFA0028F7D10BE0206B0FF090
:100F4800C9FD94F855302563022B01D114F0F0F94E
:100F580001233B700BF0B4FA08B101233B70A24B9C
:100F68001B78072B05D10FF041FFA04BC9EB000000
:100F78005880002323719E4B15AD5B68284698471F
:100F8800002800F01A81984B187800230328994EFE
:100F980002BF964956F8237021F813709A0035F964
:100FA8001310B1500133032BF0D1934B9148934F59
:100FB8001A78DFF86492014606F098F83B88002B0F
:100FC80000F08A80A36D1B7808EE103AA9F1480852
:100FD800A9F13C054FF0000A894AB7F800E0136808
:100FE8004FF47A70B0FBF3F3C3EB431003EB8003C9
:100FF800DB009BB29E4502BF0023C8F800302B617E
:10100800D8F80030194656F82A30194456F82A30CC
:10101800C8F8001007EE903A2B690133012B1046EF
:101028004FEA8A0BF8EEE77A2B6106D10023C5ED6B
:10103800017AC5ED007AAB601BE0D5ED006A07EEDA
:10104800103A37EEE66AB8EEC77A86EE077A36EED9
:10105800877AD5ED026A85ED017A77EEC77A85ED54
:10106800007AE6EE276AF0EE667AC5ED036AC5ED0A
:10107800026A0023BEF1010F46F80B3049F80B3025
:101088003FD12B690590012BC3BF03F1FF3300EE5D
:10109800103AD5ED037A9FED5B0A0492C4BFB8EE0F
:1010A800C00A87EE800A17F09DFF049A059818EE8B
:1010B800103A9BB1F8EEC87AB4EEE70AF1EE10FAEE
:1010C8000CDD02684FF47A73B3FBF2F3C3EB4312FF
:1010D80003EB8203DB003B80002324E012684FF41B
:1010E8007A73B3FBF2F3C3EB431203EB8203DB0027
:1010F800D8F800209BB202EB530292FBF3F349F8B5
:101108000B300AF1010ABAF1030F08F1040805F1DE
:1011180014057FF461AF3888012801D10FF0D0FEA3
:101128003B88013BD7E756F8232059F82300364976
:10113800121A46F823200133032BF4D191ED2C8A9F
:10114800B5EE408AF1EE10FA37D091F8B4509DB957
:101158002B4B1A681F467AB1DFF8AC80396808F162
:10116800B8002844B0EE480A1C350BF086FC542D14
:10117800F2D1012388F8B43094F8B430234FB3B1D6
:10118800002556F8253007EE903A214B1C2000FB2D
:101198000530B8EEE70A0BF04DFCA7EC010A17F092
:1011A8009BFC46F825000135032DEAD105E0D6ED74
:1011B800037AF8EEE77AC7ED037A94F80C312BB18D
:1011C800114A013B82F80C3100F00BBD114D95F826
:1011D800DF311BB395F8E431013BDBB21FE000BF00
:1011E800C01400208C1400204E140020501400203D
:1011F8006C170020782B0020941700207C360020E4
:101208001018002000000000F8090020182C002009
:10121800B00A0020A83000209C0A0020012384F88E
:101228000C310FF0E3FDA64BA64A1F68A64BB5F894
:101238002E120646186802F15003B847A34B1A78D5
:10124800072A1D4604D10FF0D1FDA14B801B9880C1
:101258000FF0CCFD2F780590012F0AD19D49D4F8C5
:1012680010319B4A0968C4F81001C31A93805B1AAD
:10127800D380994B1B68EBB1D979E1B1974A1268D1
:1012880095071AD5964A1278012A16D9DB78954817
:1012980002FB03F10088CB1A98428AB203DB814231
:1012A8000B46A8BF034612B212031BB2012192FBE0
:1012B800F3F205E019460A4602E001214FF4805294
:1012C800894BDB780D9329B1BDF93C3053431B138F
:1012D800ADF83C30854BD4F814911B780493844BBB
:1012E800844DB3F802C0B3F80080B3F904A0002419
:1012F80023462046049EB04249D299F9006095EDF4
:10130800016A76420AFB06F607EE906A0FFA8CF637
:1013180006EE906A0FFA88F6B8EEE77A07EE906A5A
:10132800F8EEE77AF8EEE66A67EE867A95ED026AF5
:10133800E6EE867A0DF13C0ED5ED036AE7EE267AE5
:10134800FDEEE77ACDED067ABDF8186011B136B238
:10135800564336132EF810600FAE0FFA83FB36F89B
:1013680010600FFA86FEDE4505DC0FFA84FBDE45C9
:10137800B8BF344600E03346052F05D104289CBF8A
:10138800DFF84CE12EF8106001301035B2E7534A0F
:101398005949126808921B1B12F480529BB206929C
:1013A80036D0564AB1F806901278554E554912F083
:1013B800040F534A02BFD2F8DC01008AA2F8D80110
:1013C800D2F8DC21B2F810E04F4A1268D0880FFA40
:1013D80089F5C0EB0E04A54203DC15880A68148859
:1013E80005E07044854205DB096854884D88A6F8F5
:1013F800D89113E0B6F9D801A042D5BF158809687D
:101408000A685488D5BF14884D88A946A14605E0C6
:101418003C4AB1F80690126814885588A8B2A1B25F
:10142800C1EB000A1FFA8AFA1BB20FFA8AF293423A
:1014380021DD3348120392FBF3F2C0F8E0210020CB
:10144800049EB0420AD20DF13C0E3EF9106056439C
:10145800C6F30F362EF810600130F1E7294A1268FA
:1014680012897AB90FFA8AF2022492FBF4F40C4436
:10147800A4B2254606E0022593FBF5F54C19451B59
:10148800A4B2ADB20FFA8AF207EE902A07EE103A2C
:10149800F8EEE77AB8EEC77AC7EE877A9FED1B7A3F
:1014A800F4EEC77AF1EE10FA32D4B7EE007AF4EE21
:1014B800477AF1EE10FAC8BFF0EE477A2AE000BF8B
:1014C800E800002094320020C42000204E140020A0
:1014D80050140020502B00202C14002080140020D1
:1014E800380400207814002090140020872B002056
:1014F800A02B0020100B0020A62B002087360020F0
:10150800F8090020882D0020842D0020CDCCCC3D6A
:10151800F0EE477A062F6F4B08BF9FED6F7AC3ED49
:10152800007A04BF67EE877A6C4A6D4E08BFFDEEFD
:10153800E77A4FF0000804BF17EE903A5380694BE2
:10154800B3F9D821D3F8DC310793674B0992D3F864
:1015580000B0664B1F68664B1B7803F00403DBB2D0
:101568000A93644BB3F906300B93634B1B680C93D7
:10157800049B98457CD20FAB33F818200FFA89F3F7
:1015880007EE903A5D4B03EB081393ED007AF8EE03
:10159800E77A23B267EE877AFDEEE77A17EE901ABC
:1015A800994203DB2BB28B42A8BF0B4613440D9A1A
:1015B8009BB226F8023F1BB20AB1BA8811E0069A1C
:1015C80072B1079ABBF80610128A521A0999914209
:1015D80003DC3A88BBF8001004E0BBF8022000E006
:1015E8003A887988934203DB8B42A8BF0B461A4698
:1015F800089B3280D8060DD50A9B5BB1069B4BB978
:101608000FF08EFB30B9079B0B9A5B8A9A42BCBFDE
:10161800BB8833803A8942B34FF47A730C99B3FB91
:10162800F1F3B2FBF3F3042B05D942F210729342A3
:10163800A8BF134600E005231BB20FFA8AF29342B3
:1016480013DA2F49B6F9000031F918E0C3EB0E029E
:1016580090424FEA480C04DB0EEB03028242A8BF1B
:10166800024692B221F80C20328008F101087FE787
:101678001F4B1A7802F0040202F0FF0342B1194826
:1016880090F8FC31013BDBB2182B00F241810AE0F3
:10169800049A9342F3D21B4A32F813101A4A22F8DA
:1016A80013100133F4E701229A40184B1340002B22
:1016B80000F02E81164B1B8813F4807F0D4B2BD026
:1016C800144A1188ADF854105188ADF85610928814
:1016D80036E000BF340400200000C8425014002047
:1016E800222C0020F8090020842D0020882D0020BD
:1016F8008736002044300020502B0020100B00209B
:10170800DC0B002064200020242C00209920980164
:10171800BC140020A62B0020B24A1188ADF8541042
:101728005188ADF8561006999288ADF8582049B1FD
:10173800D0F8DC11B3F90640098A8C4202DA524229
:10174800ADF85820A84DB5F902204FF47A7102F58A
:10175800E1624A434FF4616492FBF4F2A2F5FA7233
:10176800ADF86C20B5F9002002F5E16251439F4ABB
:1017780091FBF4F11288A2F2DC52A1F5FA71ADF8EE
:101788005A20D0F8DC21ADF86E10128A1988891A0F
:10179800ADF85C105988891AADF85E109988891AD5
:1017A800ADF86010D988891AADF862101989891ABC
:1017B800ADF864105989891AADF866109989DB89E2
:1017C800891A9A1AADF86810ADF86A200023884A79
:1017D800002122F813100133082BF8D1854A864BD3
:1017E80012680492854A1B788549D2F800B0854D65
:1017F800072202FB0318414571D00B7833B103F17E
:10180800150201239340049A134064D011F806ECA2
:1018180011F805AC11F8034C11F801CCCEEBCE074A
:101828000BEB47076420B7F90020B7F902309B1A81
:101838009BB211F9022C4FEA53095A434FEA4A0660
:1018480092FBF0F21CA8C9EB020292B2064414B94A
:1018580036F81C0C0CE0B5F9000036F91C6CB042E7
:1018680008DA0444844203DBA6423046A8BF204677
:10187800288008E007DD041BB44203DB8442A8BFCC
:10188800044626462E80D7F80A4011F9046C012038
:1018980000FA0AF02042288812B216FB00F014BFA2
:1018A8004FF0FF340124642690FBF6F090420ADBE7
:1018B8004FFA8CF25A4392FBF6F2C9EB020212B2CB
:1018C8008242A8BF02464A4B33F81E9002FB04949A
:1018D80023F81E4000E02B80023507318BE7474B89
:1018E800494E1F6800250E2202FB057236F8023F9A
:1018F80092F90640E8B214FB03F3642493FBF4F472
:10190800348012F057F801352044082D3080EAD190
:101918003E4E374C3368394D13F0200F32D000203B
:1019280012F048F820800746012012F043F8314BA6
:1019380060801B68190625D5354B2B4AD3F8203211
:101948001B78012B22D12968138891F914E0B2F988
:1019580002201EFB03F34FF0320C93FBFCF31FFA3B
:1019680083FE91F906305B4253436FF0310193FBDC
:10197800F1F10EEB0102B91893FBFCF373442180DB
:1019880018446080D5F800E0002318E0D5F800E09E
:1019980053889EF9061011FB03F1322391FBF3F1F2
:1019A8003944218011889EF9142012FB01F292FB20
:1019B800F3F21044E5E70133082BE2532AD00E2155
:1019C80001FB03E134F91300B1F90020B1F9021069
:1019D80090424FEA4307EEDB0AB28242A8BF0246B2
:1019E800E9E700BFA02B0020702B0020242C00204A
:1019F800240D0020C01400208C2D0020C0200020C1
:101A0800932D0020F60B0020220D002080140020CA
:101A1800F8090020754FD7F8149199F90430ABB93B
:101A280097F8FC8108F1FF33182B00F29580DFE866
:101A380003F0579393719393936A93939393937B40
:101A48009393939393718793937B57000023A7F8FD
:101A58002432B7F82482DFF894B10FFA88FABAF181
:101A6800070FDDDC9BF826220BF50A738AB9B9F853
:101A78000220049300EE102A5D4A1C2000FB0A3065
:101A88001168B8EE400A0AF0F8FF0122049B8BF8AF
:101A9800262234F91A2000EE102A1C2000FB0A30F6
:101AA800B8EEC00A0AF0C6FF17F016F82B6880B225
:101AB800CAEBCA0224F81A0003EB420200B2B2F9D8
:101AC8000030B2F90220984203DB13B28342A8BF68
:101AD800034608F1010824F81A30A7F82482B8E769
:101AE80099F8013013B10020618908E0414B1B7857
:101AF80003F0040303F0FF00002BF4D101460AF0C1
:101B080027F8012529E00020E1880AF021F80120C2
:101B1800218905E0002021890AF01AF8618901204D
:101B28000AF016F8022518E00225A81E34F8151048
:101B3800C0B201350AF00CF8082DF6D106250CE0E4
:101B48000325E81E34F81510C0B201350AF000F874
:101B5800072DF6D1042500E0002533689A0602D443
:101B6800B8F1050F0AD12846218809F0F1FF681C51
:101B7800C0B2618809F0ECFF0235EDB23368DB02D0
:101B88000AD497F808339BB11B4B93F8E60093F8F7
:101B9800E71011F053FE0BE0184E00242819C0B2CC
:101BA80036F8021F09F0D4FF0D2CEAD00134F5E70E
:101BB800134B1B78072B05D10FF018F9059BC01A9A
:101BC800104BD88001233B710BE00AF08FFC0028F2
:101BD8003FF4C0A94FF48053A4F84A300A23FFF712
:101BE800B8B91DB0BDEC048BBDE8F08FF809002032
:101BF800502B002087360020A83000204A300020D3
:101C08004E140020501400202DE9F04FAB4EAFB019
:101C180034780096002C00F0FA80A94B1868002848
:101C280002F059800FF08AF8A64C20680FF062FA8B
:101C3800002802F050802068A34C0FF058FA0928B9
:101C480001D03F284BD14FF0000927689F4E4D46E1
:101C58002FB19F4831683A4616F040FD10B9B14699
:101C680005B935469B4B10369E42F1D3D5B12E6847
:101C7800D9F80080236816F803E018F803007045C7
:101C880010D15A1C924948B92D2B07D88E4E4FF0C7
:101C9800200E01F803E03260885403E001F803E005
:101CA8002260E7E723680BB14D450FD08A4812F050
:101CB80013F94D4507D855F8100B12F00DF9092006
:101CC80011F092FFF5E70CF061FF002723689F42AF
:101CD800AAD27F4BD85D11F087FF0137F6E723685A
:101CE800002B41F05D87042841F0B08778480BF05D
:101CF800BBFD01F0F0BF019BDFF8F8A118680FF0F9
:101D0800F9F900286AD0DAF800000FF0F0F9DBF8EA
:101D1800003093F848100646002940F094802428A3
:101D280040F0F280012283F84820DBF8003093F875
:101D380048000628DFD193F84980B8F15C0F01F01C
:101D48004B8000F20282B8F1360F00F0518700F2A2
:101D58006281B8F1260F00F08D8600F22181B8F17A
:101D6800040F00F02C8340F20581B8F1220F00F037
:101D7800F084B8F1240F00F07786B8F1050F41F030
:101D880080801A2005F05EFC4FF00008534B13F8D2
:101D9800080008F1010811F0C6FEB8F10B0FF5D1E3
:101DA8004FF000084E4B13F8080008F1010811F035
:101DB800BAFEB8F1080FF5D14FF00008494B13F8F7
:101DC800080008F1010811F0AEFEB8F1070FF5D1CF
:101DD80005F002FC2B68002283F84820424D386841
:101DE8000EF0ACFF95F875306BB159F804000FF0A0
:101DF80070F911F075FD0BF089F9002385F875303D
:101E08003A4B3B4ADA604C34982C01F06487DFF88F
:101E1800F49054F8093004EB0902002BF3D035494B
:101E2800354D0B60079300232A608DF82130334A23
:101E3800334F069214238DF8203006AB3B60AB4637
:101E48000191904657E7012904D14D2814BF00227B
:101E5800022268E7022904D13C2814BF0022032289
:101E680061E703290CD140284FF0000102D983F81B
:101E780048105AE758711971D9719871042252E7BC
:101E8800042907D1997983F8490080EA01029A71F7
:101E9800052248E705297FF448AF5879197988421F
:101EA800987906D970409871481C18710B441E72B5
:101EB8003BE7B0420CBF0622002234E78A360020F6
:101EC8003C2E0020442E0020BC20002040B80108F1
:101ED8008C20002040BA010870D5010836D10108CD
:101EE80042D101080FD10108040D002000ED00E0E7
:101EF8000400FA05E8140020E41400205B1101082E
:101F0800382E0020B8350020C4490B7803F00403AC
:101F180003F0FF0E002B7FF408AF232EDAF8000041
:101F28001BD1009A029101231370BD4B1860BD4B61
:101F38001860986010201873BB48C3F8048083F8B1
:101F48000DE004330360B94811F0C6FF0CF01EFE23
:101F580002990B7843F002030B70B54B1B681B7892
:101F6800B34201BFB34BB44A1A60B44B04BFB44A7E
:101F7800DA60DAE6B8F1020F00F0078200F21482A4
:101F8800B8F1010F40F07D87032005F05BFB0020CE
:101F980011F0C9FD404611F0C6FD102000F056BFF3
:101FA800B8F12E0F00F0418620D8B8F12A0F00F0C2
:101FB8007F85B8F12C0F00F08185B8F1280F40F02B
:101FC8006087DFF88482072005F03CFBB8F816022A
:101FD80011F0BAFDB8F8180211F0B6FD98F81A0217
:101FE80011F0A1FDB8F81C0200F01DBFB8F1320FC6
:101FF80000F0C685B8F1340F00F0CC83B8F1300F8B
:1020080040F03F87DFF84082E02005F01BFB08F135
:10201800800A00F023BEB8F1460F00F040862AD8A7
:10202800B8F13D0F00F0028312D8B8F13A0F00F072
:10203800CB82B8F13B0F00F08583B8F1380F40F040
:102048002087042005F0FEFADFF8FC8100F021BDAE
:10205800B8F1420F00F0A885B8F1450F00F0588696
:10206800B8F1400F40F00D87082005F0EBFA4FF06B
:10207800000800F08CBDB8F14D0F00F05B852CD83E
:10208800B8F1490F00F0DE82B8F14B0F00F0368549
:10209800B8F1470F40F0F58611F03CFD82468420E8
:1020A80005F0D0FA504611F058FD664BDA680AF18F
:1020B800800393428CBFCAEB02084FF080080DF1F1
:1020C800380B0CF0D3F950464246594606F046F90B
:1020D8004FF00008824600F0F9BDB8F1500F00F04B
:1020E800FF8511D8B8F14F0F40F0CB860B2005F0D3
:1020F800A9FA002011F017FD002011F014FD0020AE
:1021080011F011FD00F013BEB8F1520F00F0FB857D
:10211800B8F15A0F40F0B586DFF82C81062005F09B
:1021280091FA98F8DE0111F0FEFC98F8E40111F03C
:10213800FAFC98F8E70011F0F6FC98F8E60011F0C0
:10214800F2FCB8F8E20000F06EBEB8F1700F00F0D3
:10215800D18200F28380B8F1680F00F0098237D885
:10216800B8F1640F00F03C812AD8B8F1600F00F094
:102178005E86B8F1620F00F04286B8F15E0F40F05B
:102188008086DFF8D480082005F05CFAD8F80030A3
:10219800D88C11F0D9FCD8F80030188D11F0D4FC87
:1021A800D8F80030588D11F0CFFCD8F8003093F8EB
:1021B800240011F0B8FC244B93F8150200F046BE39
:1021C800B8F1660F00F0448100F271810B2017E12D
:1021D800B8F16C0F00F0E98110D8B8F16A0F00F07F
:1021E8007A8300F29A83194E3078400000F0FE009E
:1021F80005F028FA4FF00008B246C9E1B8F16E0FB1
:1022080000F0E78100F24882062005F01BFA104B27
:10221800186811F0A2FC0F4B18E200BF87360020A7
:10222800442E0020040D00203C2E0020A0D50108DB
:1022380028180020FC9F0020EFBEADDE00ED00E076
:102248000400FA05C8000020A830002054360020F9
:10225800C0100020E80F0020C4200020B8F17C0F37
:1022680000F06D8558D8B8F1750F00F05F8241D83D
:10227800B8F1730F00F01F8300F2AF82B8F1720F4C
:1022880040F0FF85DFF8C883162005F0DBF9B8F8C1
:102298004C0211F059FCB8F8D00011F055FCB8F810
:1022A800D20011F051FCB8F8D40011F04DFCB8F888
:1022B800A40211F049FC98F89D0211F034FC0020AA
:1022C80011F031FC98F89E0211F02DFC98F81B02D1
:1022D80011F029FC98F8480211F025FC002011F0B3
:1022E80022FCB8F9EA310A2093FBF0F080B211F031
:1022F8002BFCCEE3B8F1770F00F0B682C0F01E8356
:10230800B8F1780F40F0BD85D14E702005F09AF9EC
:102318004FF0000AB346DAE0B8F1A00F00F0968358
:102328000BD8B8F17E0F00F02E85C0F01C85B8F1EF
:10233800960F40F0A6850C2062E0B8F1F00F00F08F
:10234800798314D8B8F1A40F40F09B85DFF844A333
:102358009AF8330080000130C0B205F073F99AF89A
:10236800330011F0E0FB4FF00008D34636E3B8F134
:10237800F10F00F0D780B8F1FE0F40F082850820F9
:1023880005F060F94FF0000848E3042005F05AF919
:10239800422011F0C8FB542011F0C5FB462011F073
:1023A800C2FB4C2000F052BD032005F04BF902207F
:1023B80011F0B9FB092011F0B6FB00F0A7BC05F03D
:1023C80041F9532011F0AFFB522011F0ACFB46202D
:1023D80011F0A9FB332011F0A6FB002000F023BD6B
:1023E800072005F02FF9E72011F09DFB984B58794D
:1023F80011F099FB002011F096FB042000F09BBC23
:1024080005F020F9934B188811F09EFB0FF08FF917
:1024180011F09AFB904B1B68C3F3C000C3F3800212
:10242800800040EA4200C3F340021043C3F3401265
:1024380040EAC20003F01003184311F085FB05F0D1
:1024480013F811F08AFB824B93F8560400F0FEBC97
:10245800122005F0F7F8814B1B88B3F5806F8CBF0D
:102468004FF0080A4FF0010A4FF000087C4B53F870
:10247800280090FBFAF008F1010880B211F064FB23
:10248800B8F1030FF2D1774E308811F05DFBB088B8
:1024980011F05AFB3089744E11F056FB308811F058
:1024A80053FBB08811F050FB308900F0BCBC102001
:1024B80005F0C8F84FF000086C4B13F8080008F155
:1024C800010811F030FBB8F1100FF5D180E4B6F82F
:1024D800580111F039FBB6F85A0111F035FBB6F87E
:1024E8005C0111F031FB96F85E0111F01CFB96F8C7
:1024F8005F0111F018FB96F8600111F014FB96F8D3
:10250800610111F010FB0E2303FB0AB30AF1010A63
:10251800D3F8620111F021FBBAF1080F06F10E069B
:10252800D5D155E470204A4E05F08CF806F1700AB2
:1025380096F8E80011F0F7FA96F8E90011F0F3FAC6
:1025480096F8EA0011F0EFFA96F8EB0011F0EBFAC2
:1025580096F8EC0011F0E7FA96F8ED0011F0E3FABE
:10256800073696F8E70011F0DEFA5645E0D12FE479
:10257800102005F067F84FF000083D4B13F80800ED
:1025880008F1010811F0CFFAB8F1100FF5D11FE4E6
:102598009AF800309845BFF41BAC364B33F8180056
:1025A80011F0D2FA08F10108F2E7334E05F04AF8C3
:1025B800308811F0C9FA708811F0C6FAB6F90430FB
:1025C8000A2093FBF0F02CE0042005F03BF82B4B9D
:1025D80048E2072005F036F8294B1888FF28A8BFDD
:1025E800FF20C0B211F09FFA264B18684FF6FF780B
:1025F8004045A8BF404620EAE07080B211F0A4FA36
:10260800214B188811F0A0FA114B93F81B221F4B8D
:10261800186842B10A2358434045A8BF404620EAFB
:10262800E07080B2FFE300F30F00FAE7084E0220E3
:1026380005F008F896F8930211F075FA96F89202E8
:1026480000F004BC022004F0FDFF114B1888EAE3F7
:10265800A8300020843600209817002008000020A9
:10266800DC0F0020782B0020E4270020240D002018
:10267800242C002044300020702B002094270020B8
:102688007814002030140020C4100020FC0F002013
:1026980010180020040D0020BE4E0B2004F0D2FFBD
:1026A8003368187811F03FFA3368987811F03BFADC
:1026B8004FF0000BB246DAF80030B64E5B440BF12F
:1026C800010B587911F02FFABBF1030FF3D13368DE
:1026D800187A11F028FA3368D87811F024FA336898
:1026E800187911F020FA3368588911F02DFA3368F7
:1026F800587AABE31E2004F0A5FF4FF00008A64E61
:1027080033684344587811F00EFA33684344D87A52
:1027180011F009FA3368434408F10108587D11F0B3
:1027280002FAB8F10A0FEAD1FFF752BB2F2004F0E2
:1027380089FF9A4E16F8010F00283FF449AB11F0B3
:10274800F2F9F7E7012004F07DFF934B1B68187836
:102758007CE35020924E04F075FF06F1500A96F87B
:102768005724904B0C2101FB0233043693F83800B0
:1027780011F0D9F996F8540411F0D5F996F85504E2
:1027880011F0D1F996F8560411F0CDF95645E6D175
:10279800FFF71EBB5A20824E04F054FF06F15A0A76
:1027A80096F8AC0411F0BFF996F8A70411F0BBF93C
:1027B80096F8A80411F0B7F996F8A90411F0B3F93E
:1027C80096F8AA0411F0AFF9063696F8A50411F0A8
:1027D800AAF95645E4D1FFF7FBBA4FF0000A0126E3
:1027E8004FF00008704B1B78984534DA6F4B18F897
:1027F80003E04FF0000B6B4801900C2300F1300C04
:1028080003FB0BF313F80CC0F44507D10344586BD2
:1028180015F05BFF84463EB9334607E00BF1010B28
:10282800BBF11E0FE7D113E0824411E063450FDAD4
:10283800019ACDF80CC00C2000FB0B200293406BD2
:10284800C05C11F070F9029BDDF80CC00133EDE7B4
:1028580008F10108C6E7002E3FF4BAAA5FFA8AF029
:1028680004F0F0FE0026BBE7DFF83CA19AF8000070
:1028780004F0E8FE4FF000089AF800309845BFF4DD
:10288800A7AA4A4B18F803E0002146480C2200F199
:10289800300C02FB01F313F80C20724505D10344F8
:1028A80093F8380011F03FF902E001311E29ECD10C
:1028B80008F10108E0E7082004F0C4FE4FF0010821
:1028C8005FFA88F008F1010811F02DF9B8F1090F45
:1028D800F6D1FFF77DBA102004F0B4FE344BDFF8D0
:1028E800F880187800F0020011F01DF9314B1878C3
:1028F80011F019F9D8F8000011F02FF9D8F80400F0
:1029080011F02BF92C4B188811F01EF92B4B188855
:1029180011F01AF92A4B188E85E2052004F092FE70
:10292800284B188811F010F9274B188811F00CF96A
:10293800234B93F8320000F0010087E211F0D6F83B
:102948008346122004F07EFEBBF1000F01D11F4B1D
:1029580003E0BBF1100F05D11D4BD3F800A0D3F84D
:10296800048002E04FF00008C246584611F0DBF838
:10297800504611F0F2F8404611F0EFF8154B186880
:1029880011F0EBF8002011F0DFF8002011F0DCF86E
:10299800BCE100BF200F0020C42000205FAD01086B
:1029A800A830002060AD0108C4140020C514002020
:1029B8000010002006100020041000200210002043
:1029C800040D0020781000207A100020C810002084
:1029D800380F0020C4270020081000209BF833304F
:1029E8009845BFF4F5A9DFF8E0A31AF8080011F03C
:1029F8009AF80AF1100313F8080011F094F80AF194
:102A080020030AF1300A13F8080011F08CF81AF8BC
:102A1800080011F088F808F10108DFE7E24B33F805
:102A2800180008F1010811F08FF8B8F1040FF5D17A
:102A3800FFF7CEB9DFF88083042004F003FEB8F86E
:102A4800EE0111F081F8B8F8EC01ECE10C2004F08B
:102A5800F9FDD64B186811F080F8D54B186811F0BD
:102A68007CF8D44B186866E1042004F0EBFDD24BE7
:102A7800986860E1DFF8408304F0E4FDB8F8CC0121
:102A880011F062F8B8F8D00111F05EF8B8F8D40186
:102A9800C9E198F80E0211F046F898F8120211F000
:102AA80042F898F8110211F03EF898F81302CDE1B7
:102AB800012004F0C7FDC04B5879C7E1DFF8F88260
:102AC8000C2004F0BFFD98F8440211F02CF8B8F877
:102AD800500211F039F8B8F84C0211F035F8B8F88E
:102AE8004E0211F031F898F8460211F01CF8B8F8C7
:102AF800580211F029F8B8F85A0294E1DFF8B882C0
:102B0800082004F09FFD98F8A20211F00CF898F83C
:102B1800A30211F008F8B8F8A40211F015F898F813
:102B2800A60211F000F8B8F8A80211F00DF898F80C
:102B3800AA028BE1DFF89482DFF894A298F80000EB
:102B480000EB4000C0B204F07DFD4FF0000B98F898
:102B580000309B450AF1020ABFF43AA91AF8020CA0
:102B680010F0E1FF1AF8010C00EB800000EB800088
:102B780000F2EE2080B210F0E7FF0BF1010BE6E760
:102B8800012004F05FFD8C4B93F848025EE18A4B0C
:102B9800434408F1010893F83C0210F0C4FFB8F16F
:102BA800080FF4D1FFF714B9DFF80C82102004F0F5
:102BB80049FD98F8050010F0B6FFD8F8080010F0A5
:102BC800CCFF98F8440210F0AEFFB8F8CC0110F032
:102BD800BBFFB8F8D00110F0B7FFB8F8D40110F077
:102BE800B3FFB8F8160210F0AFFFB8F818021AE1F0
:102BF800724BDFF8C48193F87400C0EBC000C0B218
:102C080004F020FD08F1280A98F8AE0200236C4A67
:102C1800D25C904200F01E810C333C2BF7D108F1B6
:102C28000808D045F0D1FFF7D3B84020DFF88881F5
:102C380004F008FD08F1400AB8F86C0310F084FFAE
:102C480098F86E0310F06FFF08F1040898F86B030A
:102C580010F069FFD045EFD1FFF7BAB8B8F8EE0227
:102C680000F03F0010F070FFB8F8EE02C0F38610D5
:102C780010F06AFF98F8EC02000910F054FF98F879
:102C8800EC0200F00F0010F04EFF08F1040898F86D
:102C9800E90210F048FFD045E0D1FFF799B80D20C0
:102CA80004F0D0FC05F026FBDFF8288140F0020094
:102CB800C0B210F038FFB8F8000010F04EFFD8F896
:102CC8000C0010F04AFF0BF019FB34E0D045BFF6BA
:102CD8007FA81BF8080010F026FF08F10108F5E7A7
:102CE800DFF8D480042004F0ADFC012010F01BFFB5
:102CF80098F8030510F017FF98F8010510F013FF76
:102D080098F80205A2E0012004F09CFC00209DE058
:102D1800132004F097FC4FF000082A4B13F8080022
:102D280008F1010810F0FFFEB8F10B0FF5D10020F3
:102D380010F013FF002010F010FFFFF749B8DFF87C
:102D48007880082004F07EFCB8F8DA0010F0FCFE69
:102D5800B8F8DC0010F0F8FEB8F8DE0010F0F4FE69
:102D6800B8F8E0005FE0DFF85080032004F06AFC68
:102D780098F81E0210F0D7FE98F81F0210F0D3FE44
:102D880098F8200262E0DFF83080032004F05AFC53
:102D980098F8C90110F0C7FE98F8CA0110F0C3FEF0
:102DA80098F8CB0152E000BF50140020ACF7FF1F89
:102DB800B0F7FF1FB4F7FF1FA8300020040D002054
:102DC8002C18002036D10108380D00205436002078
:102DD80004330020C8000020052004F033FCD84B41
:102DE800DFF86C8393F8DF0110F09DFED8F800300F
:102DF800188C10F0A9FED8F80030588C13E0062083
:102E080004F020FCCF4BDFF838831B68587810F0AB
:102E18008AFEB8F8560210F097FE98F8520210F0A1
:102E280082FEB8F8D80010F08FFEFEF7D1BFDFF8A9
:102E38001083032004F006FC98F8D90110F073FE03
:102E480098F8E80110F06FFE98F8E70110F06BFEB3
:102E5800FEF7BEBF10F067FEB8F8B00210F074FEBF
:102E680098F8B20210F05FFE98F8B30210F05BFE1B
:102E780098F8B50210F057FE98F8B40210F053FE17
:102E8800CDE6B8F15D0F29D110F030FEDFF8C08231
:102E9800AB4BD8F800A083F8DF0110F031FEAAF898
:102EA8002000D8F8008010F02BFEA8F8220010E0CF
:102EB80000F20385B8F1D40F00F0908400F2D484B6
:102EC800B8F1D20F40F0C6849F4B1B78580740F1E9
:102ED800B684002004F0B6FBFEF77ABF00F27C82CD
:102EE800B8F1390F12D110F001FEDFF8548288F8DA
:102EF8000E0210F0FBFD88F8120210F0F7FD88F8BA
:102F0800110210F0F3FD88F81302E2E700F2658180
:102F1800B8F12D0F22D110F0E9FDDFF8248288F8EE
:102F2800440210F0EDFDA8F8500210F0E9FDA8F8F1
:102F38004C0210F0E5FDA8F84E0210F0D7FD2B6802
:102F480088F846025B79082BC3D910F0D9FDA8F898
:102F5800580210F0D5FDA8F85A02BAE77FD8B8F1A0
:102F6800270F0ED110F0CCFDDFF8D481C8F8CC01C2
:102F780010F0C6FDC8F8D00110F0C2FDC8F8D401A1
:102F8800A7E74DD8B8F1230F3ED110F0AFFD1328B5
:102F9800804602D907F0BEFF9BE710F0A7FD00228C
:102FA8006A490C23534301EB030E9EF838E086452B
:102FB80026D1DFF88CA10B4408F58A780AEB88083B
:102FC80093F8303088F8073010F090FD88F8080042
:102FD80010F08CFD88F8090010F088FD5C4B5D4905
:102FE8001A6888F80A000AF1D0030B605A4B0020CF
:102FF8001A6012F086F9594B80F00100187068E7E2
:1030080001321E2ACCD1C5E7B8F1250F40F0C4859E
:103018004B4B00229A6010F07DFD0AF06FF858E7DC
:10302800B8F1290F12D110F06BFDDFF81481A8F860
:10303800160210F065FDA8F8180210F057FD88F880
:103048001A0210F05DFDA8F81C0242E7B8F12B0F38
:1030580040F0A28510F04AFD394B587139E7B8F1B4
:10306800330F05D110F042FD354B83F8480230E7A5
:103078003BD8B8F12F0F00F07985B8F1310F40F047
:103088008B8510F033FD1F28804683D82B685B7929
:10309800082B7FF47FAF10F033FD294B08F1BA08F5
:1030A80003EB880800F03F00A8F8060010F028FDA0
:1030B800B8F80630800100F4FE501843A8F806005E
:1030C80010F014FD000188F8040010F00FFD98F8C6
:1030D800043000F00F00184388F8040010F006FDD3
:1030E80088F805000CF0A6FCF3E6B8F1350F37D1E7
:1030F80010F0FCFC0E2882463FF64CAF10F0F6FCB0
:1031080003283FF647AF0E4B4FF0060808FB0A3876
:1031180088F8AC0410F0EAFC88F8A70410F0E6FC84
:1031280088F8A80410F0E2FC88F8A90410F0DEFC86
:1031380088F8AA0410F0DAFC88F8AB04C9E600BFE6
:10314800A8300020200F00208736002060AD01083D
:10315800C4200020240F0020280F00200200002097
:10316800B8F1370F40F018855B794FF00708B3FBCB
:10317800F8F8C8EBC8029B1A13F0FF0F7FF40AAFE8
:103188005FFA88F8B8F1000F3FF4A3AE10F0AEFC78
:103198005FFA80FB4FFA8BF00DF0B0FC82460028F6
:1031A8003FF4F8AE80F800B010F0AAFCAAF80200CC
:1031B80010F09CFC8AF8040010F098FC8AF80500CE
:1031C80010F094FC8AF8070010F090FC08F1FF3822
:1031D8005FFA88F88AF80600D4E7B8F1480F02D1F8
:1031E8000BF092F975E675D8B8F1410F0DD14FF093
:1031F800000810F07BFCD44B434408F10108B8F1F7
:10320800080F83F83C02F4D163E631D8B8F13C0FDB
:103218001FD1DFF86483D8F800A09AF800B010F046
:1032280065FC18B10228A8BF022000E001208AF836
:103238000000D8F80030C54A1B78022B14BFC449D7
:10324800C44911609B453FF444AE002010F08EFC49
:103258003FE6B8F13E0F40F09F8410F047FCDFF8DE
:10326800E88288F8930210F041FC88F8920230E670
:10327800B8F1430F25D110F039FCDFF8CC820023D8
:10328800C8F8083088F8050010F044FC09F036FF4B
:1032980010F02CFC88F8440210F032FCC8F8CC017D
:1032A80010F02EFCC8F8D00110F02AFCC8F8D401A0
:1032B80010F026FCA8F8160210F022FCA8F8180254
:1032C80007E6B8F1440F40F06784A34B012283F866
:1032D8007520FEE5B8F14E0F26D110F007FC112835
:1032E80082463FF657AEDFF8608210F0FFFB0AF522
:1032F800967A08EB4A03187110F002FC40F2ED23AD
:10330800984205DD40F6CA039842A8BF184601E076
:1033180040F2EE2008EB4A08A0F2EE20192390FBB9
:10332800F3F088F80500D4E524D8B8F14A0F02D1A3
:1033380010F0E6FB8AE7B8F14C0F40F02D8410F04E
:10334800D5FBDFF8048288F8A20210F0CFFB88F8DA
:10335800A30210F0D5FBA8F8A40210F0C7FB88F868
:10336800A60210F0CDFBA8F8A80210F0BFFB88F861
:10337800AA02AEE5B8F1510F13D1784B1B78012B97
:103388003FF6A7AD10F0B2FBDFF8BC8188F8030563
:1033980010F0ACFB88F8010510F0A8FB88F80205CE
:1033A80097E5B8F15B0F40F0F78310F09FFBDFF86B
:1033B800988188F8DE0110F099FB88F8E40110F094
:1033C80095FB88F8E70010F091FB88F8E60010F00C
:1033D80097FBA8F8E2007CE5B8F1D10F3ED110F0D8
:1033E80085FB019010F096FB834610F093FB824614
:1033F80010F090FB804610F083FB10F081FB10F07A
:1034080075FB019BA3B9564B1020C3F800B0C3F855
:1034180004A009F04BFE534A137843F001031370DC
:10342800B8F1000F3FF455AD4F4BC3F8008050E59D
:10343800102B7FF44EAD4D4BC3F800B0C3F804A079
:10344800B8F1000F02D0484BC3F800804748484BFA
:103458000222011D1A700AF047FE3AE500F2AA811D
:10346800B8F1CA0F1ED14FF00008DFF80CA1DAF846
:1034780000B010F03BFBC3448BF80100DAF800B051
:1034880010F034FBC344DAF800A08BF80B0010F0FE
:103498002DFBC24408F10108B8F10A0F8AF815009B
:1034A800E3D116E500F2C680B8F1630F15D1314BB0
:1034B800D3F8008010F01AFB88F8010010F020FB08
:1034C800DFF88480A8F8560210F010FB88F8520242
:1034D80010F016FBA8F8D800FBE44FD8B8F15F0F3E
:1034E8001FD1DFF89480D8F800A010F009FBAAF8E3
:1034F8002600D8F800A010F003FBAAF82800D8F896
:1035080000A010F0FDFAAAF82A00D8F8008010F000
:10351800EDFA88F8240010F0E9FA0B4B83F815024D
:10352800D7E4B8F1610F40F0378310F0DFFADFF825
:10353800188088F8D90110F0D9FA88F8E80110F055
:10354800D5FA88F8E701C4E4A8300020E800002094
:1035580041300108A9330108040D00204829002042
:10356800C810002000100020C4270020380F0020B9
:10357800300F0020200F0020C4200020B8F1C80F11
:103588002BD193F805804FEA5808B8F1120F3FF68F
:1035980001AD4FF0000AC24507D210F0B1FA0EABE8
:1035A80023F81A000AF1010AF5E7424600234345C9
:1035B80007DA0EA931F81300C74921F813000133BF
:1035C800F5E7122A05D0C44B002123F81210013266
:1035D800F7E7C24B01221A707BE4B8F1C90F40F03B
:1035E800DB8210F083FABE4B1A7810B142F0020267
:1035F80001E022F002021A7010F078FAB94BDFF8F5
:103608000883187010F086FAC8F8000010F082FAE3
:10361800C8F8040010F074FAB34B188010F070FA70
:10362800B24BB34A188092F8323043F0020382F862
:1036380032304EE4B8F1CE0F0AD1AE4B1B785E079C
:103648003FF547ACA64A137843F00403137040E4EF
:1036580061D8B8F1CC0F4FD15B79092B7FF69AACC2
:10366800DFF8A882D8F800A010F040FA8AF8000025
:10367800D8F800A010F03AFA8AF8020010F036FAEA
:10368800D8F800306428A8BF6420587110F02EFACA
:10369800D8F800306428A8BF6420987110F026FA82
:1036A800D8F80030FF28A8BFFF20D87110F01EFA04
:1036B800D8F800A0642828BF64208AF8080010F011
:1036C80015FA8AF80300D8F800A010F00FFA8AF863
:1036D8000400D8F800A010F013FA2B68AAF80A0022
:1036E8005B790A2B7FF6F5ABD8F8008010F0FEF96D
:1036F80088F80900FFF7EDBBB8F1CD0F40F04C8218
:103708007C4B1B785B073FF5E4AB7B4B4FF4C872EF
:103718001A80FFF7DEBBB8F1CF0F3AD110F0F0F9FD
:103728006FF4AF6143189BB2DFF8D081C62B98BF06
:10373800A8F84C0210F0E4F9A8F8D00010F0E0F96D
:10374800A8F8D20010F0DCF9A8F8D40010F0D8F9E5
:10375800A8F8A40210F0CAF988F89D0210F0C6F97A
:1037680010F0C4F988F89E0210F0C0F988F81B021E
:1037780010F0BCF988F8480210F0B8F910F0C0F958
:1037880000EB80004000A8F8EA0110F0AFF9FFF75D
:10379800AEBBB8F1D00F40F0FF81564B1B785A07EB
:1037A8003FF597AB08F0C2FB09F0F8FC08F002FA05
:1037B800FFF78FBBB8F1DA0F7FF47AAB10F096F908
:1037C800DFF8388188F81E0210F090F988F81F0297
:1037D80010F08CF988F82002FFF77BBB5B790F2B80
:1037E8007FF4D8AB10F082F9072882463FF6D2ABB7
:1037F80010F086F9414B4FF00E0808FB0A38A8F87C
:10380800580110F07DF9A8F85A0110F079F9A8F8D4
:103818005C0110F06BF988F85E0110F067F988F820
:103828005F0110F063F988F8600110F05FF988F81B
:10383800610110F06FF9C8F86201FFF74ABB10F098
:1038480055F92E4B012883F85604ADD9002283F888
:103858005624A9E7B8F1D30F40F09E8110F050F933
:10386800274B1880FFF735BBB8F1D60F0DD14FF0B5
:10387800000810F045F9234B23F8180008F1010857
:10388800B8F1080FF5D1FFF724BBB8F1D90F40F014
:10389800838110F035F9DFF86480A8F8DA0010F0B9
:1038A8002FF9A8F8DC0010F02BF9A8F8DE0010F0CA
:1038B80027F9A8F8E000FFF70CBBB8F1EF0F27D104
:1038C80010F01EF9DFF83480A8F8EE0110F018F9AE
:1038D800A8F8EC01FFF7FDBAB8120020552A00201D
:1038E8000010002006100020041000200210002004
:1038F800040D002087360020E40E0020A8300020A8
:103908002C0F00206420002008100020200F002029
:103918005DD8B8F1DB0F46D1CF4B1B6802221A7075
:103928002D225A705A731422DA7500229A731A7665
:10393800DA735A76222232219A710E2299701971FD
:103948001A7419723522997437219A769972192244
:1039580019754B21DA71997721224FF4FA711220E7
:103968005A7459855322B4214FF0280E587598750A
:10397800DA7650206422D9844FF00F0C23211A776D
:1039880083F80BE083F80CE0D87083F805C083F85F
:1039980009E0588419851A84012283F8242083F8C1
:1039A8002D20FFF796BAB8F1DC0F40F0F58010F043
:1039B8009DF8DFF8BC8288F8C90110F097F888F8FC
:1039C800CA0110F093F888F8CB01FFF782BAB8F172
:1039D800F50F40F09580012003F034FE4FF0000809
:1039E8009E4BDFF8ACA29E4883F80080C022414677
:1039F8008AF8008014F026FE8DF817805246994BFD
:103A08009DF8171093F87A00884266D99DF8171028
:103A180003EBC10191F87D10C90757D59DF8171020
:103A280003EBC10191F87C008F4931F9101000298E
:103A38004CDD9DF817009DF817E01178DFF820B2EB
:103A480003EBC00003EBCE03D0F88000D3F880303E
:103A580040681B8909010BEB010C4BF80100ACF81D
:103A68000630D8469BB24FF0000C4FF0010E0EFA0C
:103A78000CFE1EEA030E05D10CF1010CBCF1100F6F
:103A8800F3D100E0E64608EB010C0831ACF8083049
:103A980002238CF80B3004238CF80A30DCF8083049
:103AA800CCF80C30012341448CF80E30ACF804E01B
:103AB80001920DF081FB019A1378190188445BF893
:103AC8000110B8F806008861013313709DF81730AB
:103AD8000133DBB28DF8173091E79AF8000010F047
:103AE80022F803F079FD38680DF028F92B6818687A
:103AF8000DF0EFFA286839680EF006FBFFF7E9B910
:103B0800B8F1FA0F05D1594B1B7858077FF54CAE21
:103B180042E0B8F1F20F3FD10FF0E8FF0F288046DE
:103B28003FF638AA0FF0E2FF514BC8EBC80898449B
:103B380088F8E8000FF0DAFF88F8E9000FF0D6FF00
:103B480088F8EA000FF0D2FF88F8EB000FF0CEFFFC
:103B580088F8EC000FF0CAFF88F8ED000FF0C6FFF8
:103B680088F8EE000FF0FEFEFFF7B3B9DFF800812A
:103B780008F1400A0FF0C4FFA8F86C030FF0B6FF75
:103B880088F86E030FF0B2FF08F1040888F86B0399
:103B9800D045EFD1FFF79DB907F0BCF9FEF718B98A
:103BA8000C2803D1334810F097F94BE00A2802D0CB
:103BB8000D2840F08480304D304810F08DF92846AB
:103BC800232114F074FD08B1401B206023687BB3E7
:103BD8005A1EA95C202901D11346F8E7264A23601A
:103BE8000021D154264B274FD3F80090D7F800A0D6
:103BF800214E504614F069FD05462A463046514686
:103C080014F06CFD204A20B9735D4B445B785B0768
:103C180003D010379742E9D306E0974204D2681CD4
:103C2800FB683044984702E0184810F055F9002323
:103C3800114823600021302214F004FD009B1B78FA
:103C4800002B48D00AF0A2FFFDF7EEBF0C28A9D040
:103C58007F2822D1FDF7E8BFC4200020D80000202B
:103C680088250020040D0020242C00208736002001
:103C7800A830002075D501088C20002005EA01082D
:103C88003C04002040B8010840BA010880D501086A
:103C98008F2A00202F2B3DF6C7AFA0F12002D2B209
:103CA8005E2A3DF6C1AF13B920283DF4BDAF5A1CBA
:103CB80022600A4AD0540FF097FFFDF7B5BF7F285E
:103CC800E8D1013B054A064823600021D15410F091
:103CD80003F9FDF7A9BF2FB0BDE8F08F8C200020B5
:103CE8009CD501082DE9F04FA24FA34C3A6802F584
:103CF8009C432DED028B20332360A04B1E7889B0A6
:103D0800D6B19F4909688A4240F20881013E1E7077
:103D180004E1DFF88C829B48D8F80030072D98BF63
:103D2800595D994B88BF29461B689847032D09D9C7
:103D380004EB45050136A88003F002FBF5B2854285
:103D4800E7D320E0D8F8002005F1100302EB830345
:103D58009988DA880028EBD04FF47A73401A5843D0
:103D6800531A90FBF3F040F6C90300F57A709842B5
:103D780005DC40F2EE239842B8BF184601E040F651
:103D8800CA0080B2D4E7814B814E1B68D6F8008008
:103D980042F2010A03EA0A0ABAFA8AFA4FEA5A1AF6
:103DA8007C4BBAF1000F05D194F828201A707A4A92
:103DB800517811701B782BB1774B93F8009089F0EC
:103DC800010900E099460F23DFF8ECB184F82930A7
:103DD800002503F0B5FA854267DA6B00B9F1000FE8
:103DE80003D06E4A32F8150000E048466C4ADFF806
:103DF800CCC111688A8B82424FEA850E694A02D883
:103E0800C98B81421CD25CF80E005B49804501D207
:103E1800D05A19E0E8B203920293019103F0A8FA8C
:103E2800032D029B039A0FDC01994FF0010E91F8C4
:103E380029C00EFA05FE2CEA0E0E81F829E003E0EF
:103E480008F596714CF80E10BAF1000F28D194F8C5
:103E5800BC100322B1FBF2F202EB42028A1A03EB16
:103E6800050E5EFA82F204EB4202508594F8BD20FA
:103E78002AB9022913D9404A012182F8BD10BBF89A
:103E880000203BF8020C1044BBF802201044464ABC
:103E980080B2D05200B2032290FBF2F080B2414AC5
:103EA800D05201350BF1060B93E794F829203F4BCC
:103EB800A2F10F004242424184F8D6206AB13C4A3E
:103EC8001268510109D43268D9689A60521AC82A0E
:103ED8001FD9012283F821201BE02F4A01215170AC
:103EE800117032689968DA605B68521A9A4282BF28
:103EF8002E4B002283F82120002503F021FA854269
:103F080007DAE8B203F034FA264B23F81500013536
:103F1800F3E794F8BC30013384F8BC301B4E3368A7
:103F2800DA0405D5224B1B68DB0701D410F0EAFB45
:103F38001B4B39681868037B002B41D0013B194D96
:103F4800827B35F813301AB1C3F53B6308339BB253
:103F58001BB2A3F57A73B3F57A7FA8BF4FF47A73CF
:103F680023EAE37307EE903A9FED127AF8EEE77AC8
:103F78005EE000BF60360020E00D002088140020BD
:103F88008414002054360020E4000020801400200F
:103F98008C1400207011002000000020E40D002087
:103FA8007C140020443000209E0E00209014002035
:103FB800C014002000007A440C0E0020540E00208B
:103FC8003268150440D5D4F8D820AF4F8A1A002A91
:103FD8003ADB01F59C422032C7F8D820AB4A407B37
:103FE8005579AB4A32F8152097F8DC50013592B272
:103FF80092FBF0F205F00F0087F8DC00384480F8F7
:10400800DD201A46A348185C01330244102B92B2F3
:10401800F8D112B292FBF3F31BB2642BA8BF64234E
:1040280023EAE37307EE903A9FED9B7AF8EEE77A7E
:10403800C7EE877A994A9FED9A7A67EE877AFCEEFF
:10404800E77A17EE903A13803368964F13F4807F1F
:1040580000F00081944BDFF85492994205D999F801
:10406800022012B9012289F8022099F80220002AB8
:1040780000F0F0808D4A92F821503A78691E4D423E
:104088004D418B490868C0F38063C2F3800B0193EC
:104098008A463DB912F0080F0CBF4FF000084FF0E8
:1040A800020801E04FF0000899F82020052A00F2E4
:1040B800CB80DFE802F0034C608695B2BBF1000FBD
:1040C80038D0D4F8F000B4F8F4100CF0E9FD012869
:1040D80009D17849784A09681268C988642000FBC0
:1040E8000122C9F81020019B5BB1724A126812794B
:1040F8003AB10FF0D9FC032289F820204FF47A72E4
:1041080036E0002D40F0A0806B4AD9F810101068F6
:10411800664A88420AD902920FF0C6FC029A032125
:1041280082F8201040F6B831D161BDE7012182F84C
:104138002010B9E7019B4FF4806013B108F0C6FF67
:1041480001E008F0B3FF0022C9F810207CE0002D40
:1041580058D1584A1268127A012A02D00FF0A4FCEA
:10416800A2E70FF0A1FC032289F8202040F6B8321C
:10417800C9F81C2098E725B1052289F820200120DC
:1041880000E02846BBF1000F0CD0D4F8F020118ACB
:104198004A4A118051809180464909684988D180EE
:1041A8004FF00308444A1168D9F81420914202D804
:1041B800BBF1000F45D147F23052C9F81C20032249
:1041C80021E03A7842F002023A7010F09BFA3A4A3B
:1041D800D9F81C1012680A44C9F81820042212E001
:1041E800354A9DB11168D9F8182091422CD9344A22
:1041F80092781AB9DAF80020D20725D43A7822F052
:1042080002023A70052289F820204DE71268D9F891
:104218001C100A44C9F8182016E02649264A0968DD
:104228001268C988642000FB0122C9F810204FF4E5
:104238008060002289F8202089F8032008F036FFE2
:1042480032E700287FF430AFB8F1000F02D04046C3
:104258000CF036FE1B4D05F50F70B5F8E0100CF0AC
:104268001FFD82460CF05CFD80B33B785B072DD5C3
:10427800154BB3F90620B5F856329A4237DB0123BD
:1042880084F8F6303AE000BFE00D00203414002036
:1042980044140020BD0E00200000C842C4100020B5
:1042A80000C07F4487360020404B4C00901400200B
:1042B800C0140020342E00208C140020443000202C
:1042C80000000020A8300020A62B0020002384F83E
:1042D800F630BAF1000F11D1A349A44B00200022F7
:1042E80008601A6048605A6088609A6006E0BAF10F
:1042F800000F06D194F8F630002BEDD03B78580724
:1043080035D53368D90632D5994B1B78DA062ED4C1
:10431800984B9B7893B195F89332BAF1000F15D169
:104328007BB1954B1A68D4F8F8309B1A002B08DA41
:1043380010F0E8F9914B83F8FCA018E0BAF1000FEF
:104348000DD110200CF0BCFD01230EE03BB18A4AD0
:1043580012684FF47A7101FB0323C4F8F83094F81B
:10436800FC3023B10CF096FD002384F8FC300022C9
:1043780095F89212B5F84EC2B5F850821346DFF898
:1043880018E2CDF80CE03EF912009B086045C4BF66
:1043980063F07F03DBB201324045B8BF43F040030E
:1043A800042AECD194F8FD2074489A4205D190F87B
:1043B800FE20F92A04D8013200E0002280F8FE200D
:1043C80084F8FD306B4B6D4A9878DFF8D0819946B8
:1043D80030BBD8F80030DB070AD582F8FF00BAF105
:1043E800000F1DD13B78DB071AD50FF0B5FF17E09A
:1043F8003B78580714D5624B1B788BB1614BDB783F
:1044080073B992F8FF300133DBB2032B82F8FF3027
:1044180006D911B110F076F902E0BAF1000FF9D01F
:1044280094F8FE30DFF854A1142B70D199F80230BB
:104438008BB19AF8FD305F2B0DD13B7803F0040364
:1044480003F0FF0B13B110F05DF904E00B200CF042
:1044580037FD8AF8FEB03B7803F0040303F0FF0150
:10446800002B54D194F8FD30444A572B19D1464BB0
:104478001A684FF47A73B3FBF2F3C3EB431203EBFE
:104488008203424ADB00138033681A0601D509F01B
:10449800D7FE3F4B1B685B0739D53E4B0A221A8073
:1044A80035E03068400717D55A2B15D192F80031FE
:1044B8002BB1012382F8001182F8013127E092F82C
:1044C800023183F0010382F802310BB10C2000E0C5
:1044D8000D200CF0F5FC1AE05D2B00F019865B2B23
:1044E80000F018865E2B02D1032000F014BE562B74
:1044F80001D108F0FFFE99F80230002B00F0118678
:1045080094F8FD306F2B40F00C860FF025FF3368D0
:104518005B0754D594F80231184A9BB13B78580789
:1045280010D5039BB3F90610B5F84E32994209DD50
:10453800D8F8003013F0010302BF3221A2F80611A7
:1045480082F80231D8F80030D90329D594F8082127
:104558000A4B2AB993F8002112B93222A3F806218E
:10456800012384F808312AE0882B00200C2C002035
:1045780000100020000000208C140020E00D002016
:104588007011002090140020101800207C360020A4
:10459800981700207E36002044300020C0140020E8
:1045A80094F80031C74A53B13B7803F0040303F091
:1045B800FF0123B9012382F8001182F80131DFF8E5
:1045C80020930023C8F8003009F1500A19F8010CAB
:1045D80049460CF03FFB48B119F8022C012303FAB5
:1045E80002F2D8F800301343C8F8003009F1040982
:1045F800D145EBD1B44B1B784BB1B44BDFF8E48217
:104608001A6812F0020F994640F0DE81D6E1DFF811
:10461800D88208F15A0918F8010C41460CF01AFB27
:1046280010B398F8023098F804E0A94A98F803A063
:10463800A4480C21013B01FB0E4103EB4303134447
:10464800D1F810219A420FD0C1F81031002390F808
:104658003C21C1F81431012303FA0EF322EA0303C3
:1046680081F80CA180F83C3108F10608C845D2D180
:10467800984BD4F840811B680293974BDFF86CB2D3
:104688001B78049300230193DBF80030002B00F023
:104698008C8193F80090B9F1000F00F08681DBF867
:1046A800042002998A1A002A0CDB01F5FA72019992
:1046B800CBF8042001228A4094F83C1121EA020236
:1046C80084F83C21049A002A00F06F811BF8042C1E
:1046D80059780432D2B2002940F030817F4931F94B
:1046E8001210B5F84C2202F1C800814202DD93F89D
:1046F80002A015E0C83A914203DA9978C1F1000A9C
:104708000EE0019A0123934094F83C2122EA030326
:1047180084F83C31029B03F5FA73CBF8043044E18A
:1047280094F83C21019B1A41D20700F13E81BAF16D
:10473800000FCCBF022001200CF0FAFB09F1FF3278
:10474800132A00F22A81DFE812F0140020002C005E
:1047580040005D0066008300A000D300DF00ED008C
:1047680028014000510066008300A00077009400F3
:10477800B00098F800105144FA29A8BFFA2121EA9C
:10478800E17188F800100120C9E098F8021051443E
:104798006429A8BF642121EAE17188F80210022087
:1047A800BDE098F80490D4F84411D144B9F1640FED
:1047B800A8BF4FF0640929EAE979404688F80490CF
:1047C8000CF0DAF903204946A9E098F8061051449C
:1047D8006429A8BF642121EAE17188F806100D2038
:1047E8000CF07EFAB9F10D0F00F0D78098F805109B
:1047F80051446429A8BF642121EAE17188F80510B1
:104808000E208CE098F80710514481F3080188F8CD
:104818000710052083E0D4F8482191785144C8292D
:10482800A8BFC82121EAE17191700F200CF058FA55
:10483800B9F10F0F00F0B180D4F8482151785144F4
:10484800C829A8BFC82121EAE1715170122066E089
:10485800D4F84821117B5144C829A8BFC82121EAAE
:10486800E171117310200CF03BFAB9F1100F00F050
:104878009480D4F84821D17A5144C829A8BFC821C6
:1048880021EAE171D172132049E0D4F84821917DE1
:104898005144C829A8BFC82121EAE17191751120A6
:1048A8000CF01EFAB9F1110F77D0D4F84821517DD8
:1048B8005144C829A8BFC82121EAE17151751420C3
:1048C8002DE000BFE00D00208A360020C014002033
:1048D800F8AE01088C14002070110020443000202C
:1048E800013500209817002050350020F00E0020D8
:1048F800D4F84821D1785144C829A8BFC82121EA51
:10490800E171D17009200AE0D4F84821517B514463
:10491800C829A8BFC82121EAE17151730A200CF007
:10492800DFF93AE0D4F84821D17D5144C829A8BF1D
:10493800C82121EAE171D1750B20F0E701292CD1BA
:104948009878039B33F91230B3F5617F05DB40F6A5
:1049580033029342A8BF134601E04FF46173B9F1E3
:104968000C0F1AD14FF4966292FBF0F0AF4A12780E
:10497800A3F5617393FBF0F3DBB29A420DD01846AE
:10498800059308F0EDFB059B484619460CF0A8F97D
:10499800059B581CC0B20CF0CBFA019A0123934036
:1049A80094F83C21134384F83C31019B0133042BD8
:1049B80001930BF10C0B7FF467AE1EE63368DB0541
:1049C8000FD59B4BDB7863B1D8F80030980708D532
:1049D800984B1B8813F0010A08D1012008F076FBD8
:1049E80004E0012008F062FB012300E00023D9F86D
:1049F800002051070BD553B1012008F057FB8D4B10
:104A08001B889A0706D4022008F060FB02E0022007
:104A180008F04CFBD8F8003013F00A0F32D0D9F860
:104A28000030DB060FD5834B1B8858070ED40420B3
:104A380008F04CFB804B0A22B3F9043093FBF2F3E5
:104A4800A4F84C3102E0042008F030FBD9F800301B
:104A5800990607D5774B1B885A0606D4402008F0DC
:104A680035FB02E0402008F021FBD9F800305B0656
:104A780041BF714BB3F904300A2293FBF2F348BFEC
:104A8800A4F84E31D8F80030980609D4D9F8003087
:104A9800190540F1A6804FF4807008F017FBA4E0D8
:104AA800664BDFF890B11B7813F0020F5BD0644BB4
:104AB8001B78042B57D9D9F8003013F4007A0FD09B
:104AC800BBF80030DA0641D4102008F0FFFA2020A5
:104AD80008F0ECFA5B48011D09F006FB022330E000
:104AE800BBF8008008F010081FFA88F33BB11020CB
:104AF80008F0DCFA4FF0010884F850A100E098466D
:104B0800D9F800305B0514D5D4F854314E495A8988
:104B1800B1F90030DFF834A1002BB8BF5B429342F3
:104B280007DAB1F90230002BB8BF5B429342C0F2FA
:104B38004983BBF8003098060AD5202008F0B6FA59
:104B4800002384F850314FF0010801E04FF00008CD
:104B580094F86031BBB90E200CF0B2F93B4B01223E
:104B680083F860210FE0BBF8003003F03003002B1E
:104B78008CD0102008F09AFA202008F097FA002329
:104B880084F8503103E0B8F1000F3FF47FAF304BA9
:104B9800002003F1280C03F1500E2E4A002122F8C0
:104BA80010102D4A596022F810100432CCF8041065
:104BB80022F8101000221A609A60CCF80020CCF875
:104BC8000820CEF80020CEF80410CEF808201433C0
:104BD8000CF1140C0EF1140E00287FF457AF0120CD
:104BE800DBE74FF4807008F061FA6B79082B01D08D
:104BF8000E2B02D1402008F059FA3368590533D5F5
:104C080095F8D8321BB93B7813F0040F03E0D9F8B4
:104C1800003013F4002F23D0104B00221A703C20D0
:104C280006F043F900B302F0B7FCF8E7402E002085
:104C380090140020BC140020702B002000100020CD
:104C480006100020C8100020A62B0020E00D002030
:104C5800440F002080360020BC0F002024180020BC
:104C680010F074F810F064FB012384F8E431D4F8F0
:104C78004001CF4B4189B3F906208A420EDBB2F5D9
:104C8800FA6F077ABDBF531A7B43A1F5FA67C7F1DC
:104C98006407BCBF93FBF7F7643700E0642795F916
:104CA800D831B5F84CE295F81E9295F81FA25B42F0
:104CB8009BB201930021BF4BDFEDBF7ACF54BC4BB1
:104CC8009FEDBE6A33F911C0CEEB0C0340F2E63516
:104CD80003F2F31BAB454FEA4108B94DFBEE096AF5
:104CE8002FD8002BB8BF5B4202292ED04B4502DDDE
:104CF800C9EB030300E0002307EE103AB8EEC77AC9
:104D08008378C7EE277AF44507EE103AE7EEA76AEC
:104D18000378B8EE477AF0EE465AE7EE265A65EE83
:104D2800A76A07EE903AF8EE677A26EEA77AC7EEFA
:104D3800067AFDEEE77A17EE903A25F8083030DB70
:104D480036E002294FF4FA73D2D15345CCBFCAEBEF
:104D58000303002307EE103AB8EEC77A437ABDF88A
:104D680004B0C7EE277AF44507EE103AE7EEA76AD3
:104D78004378B8EE477AF0EE465AE7EE265A25EE23
:104D8800A77A07EE903AF8EE677A67EE277AC7EEC9
:104D9800867AFDEEE77A17EE903A13FB0BF3AB80B9
:104DA8000ADADFF81CC238F80C305B4228F80C30FD
:104DB800013103297FF47FAF3068824E10F48050B0
:104DC8000DD0B2F57A7F05DBB2F5FA6FA8BF4FF4C4
:104DD800FA6201E04FF47A72A2F57A7212E0B6F83C
:104DE8004E128A4205DBB2F5FA6FA8BF4FF4FA6299
:104DF80000E00A46521A4FF47A735343C1F5FA6237
:104E0800B3FBF2F2DFF8EC816FF0630C642392FBE2
:104E1800F3F738F817100CFB072201370FFA81FC5B
:104E280038F91770CCEB07077A43654F92FBF3F319
:104E38000B449BB2FB80B0B1634A1268D20012D512
:104E4800624AD2787AB9CEF5FA61A3F57A731BB2C1
:104E580009B21A034FF47A7392FBF3F34B430EEB48
:104E6800233EA7F806E05A4FB7F8008008F040083C
:104E78001FFA88F8B8F1000F39D0564BDFED567A93
:104E8800B3F904300A2293FBF2F3B4F84E219B1ACB
:104E98001BB208EE103AB8EEC88A28EE278AB0EEA0
:104EA800480A08F0FBF8F0EE408AB0EE480A08F02D
:104EB80094F8B5F9023006EE903AB5F90030F8EEFC
:104EC800E66A07EE903A20EE667AF8EEE77AA7EE01
:104ED800A87A67EE807ABDEEC77AE6EEA87A17EE72
:104EE800103AFDEEE77A2B8017EE903A6B8096F831
:104EF8005332002B51D0B8F1000F4ED1374C384EF9
:104F080094F8E5219A4215D007EE903A9FED328A3F
:104F180084F8E531F8EEE77A27EE888AB0EE480A99
:104F280008F0BCF886ED010AB0EE480A08F055F81A
:104F380084ED7A0AB5F90030D4ED7A5A96ED016A13
:104F4800284A07EE903AB5F9043006EE903AF8EEA2
:104F5800E66AF8EEE77A25EEE67AA7EE867A67EE55
:104F6800A57ABDEEC77AE6EE867A17EE103AB3F563
:104F7800FA7FA8BF4FF4FA739342FDEEE77AB8BF01
:104F880013462B8017EE903AB3F5FA7FA8BF4FF47B
:104F9800FA739342B8BF1346AB80134B134D1A787C
:104FA80012F0040F28D0124B1A689B88138565E00D
:104FB80044300020842B00200000C84200401C45DB
:104FC800A62B0020A8300020C01400209014002038
:104FD800BC140020702B002035FA8E3CE00D002018
:104FE800000000200CFEFFFF8736002098170020E5
:104FF800683000203029002082490968C80703D595
:10500800814991F8EC1111B142F001021A707F4AFE
:105018001278110758BF1A787D495CBF22F0010247
:105028001A702A6812F0040F02D07A48008878B9FA
:105038007548B0F8040108B1920709D4764A128875
:10504800003218BF01221AB974480088642806D9AA
:1050580002220A701A7822F001021A7005E01B7801
:10506800DE0756BF02230A700B700BF0BFFE6C4BB5
:105078001B68C01A002801DB02F0CEF92B685C0718
:105088001CD5604B1B68180703D4082008F00EF8DD
:1050980014E03C8804F00804A4B27CB9082008F0A5
:1050A80015F8604B1A68604B1A60604BDA88564BEB
:1050B800A3F8EE215E4B1C605E4B1C602B68D90682
:1050C80040F19A804F4B1B689A0208D44FF4007045
:1050D80009B0BDEC028BBDE8F04F07F0E7BF3C8894
:1050E80004F40074A4B2002C40F086804FF40070E1
:1050F80007F0ECFF4B4B1A684B4B1A604B4BDA88A6
:10510800414BA3F8EE214A4B1C604A4B1C6073E0EC
:10511800012000E002200138C0B208F0D9F8FFF7FA
:10512800F6B994F8FD30972B06D1374B4FF4C87277
:10513800A3F80421FFF7EBB9A72B06D1334A13785C
:1051480043F004031370FFF7E2B90022BB2B079268
:1051580001D1022303E0B72B04D14FF6FE73ADF85B
:105168001E3009E0BE2B01D1022303E0BD2B18D16C
:105178004FF6FE73ADF81C30BDF81C20B5F8EC31C5
:105188001344A5F8EC31BDF81E20B5F8EE311344F0
:10519800A5F8EE3108F0AEF8002384F8FE30FFF7EA
:1051A800B6B9792B04D1244AD37823F0010306E059
:1051B8007A2B7FF4ACA9204AD37843F00103D3704B
:1051C800FFF7A5B9BBF800309B063FF5C1AC20201E
:1051D80007F07CFF194B0AF5AC701A685B68CAF8CF
:1051E80058210AF5AE714FF00108CAF85C3108F091
:1051F8007BFF8AF85081ABE409B0BDEC028BBDE8B7
:10520800F08F00BFC0140020E00D00200010002027
:10521800B41400207E3600207C360020422E002068
:10522800B8140020C0100020C427002044300020FB
:10523800CC270020D0270020802000200810002044
:105248002DE9F04F85B00FF081FDBF4B1E78002E81
:1052580040F0AF87BD4D2B685C0540F1AA87BC4B79
:10526800BC4CB3F8E0802378BB4F002B00F00382DE
:105278003A686368D31A7C2B40F2FD81237A626016
:105288000133237206F12400DFF8C892C0B20FF090
:1052980011FD09F10C0353F8263007EE903AAF4B95
:1052A8001B88B8EEE77A07EE903AF8EEE77A01360F
:1052B800C7EE277A9FEDAA7A67EE877AFDEEE77A3E
:1052C800CDED007ABDF900000FF0E2FC032ED9D134
:1052D80030200FF0EFFCB9F918000FF0D9FC0FF0EF
:1052E800E1FC99F80830980732D1D9F8042041F246
:1052F80088339A4219D910200FF0DCFC6426D9F8BB
:105308001C0090FBF6F000B20FF0C2FC21200FF059
:10531800D1FCD9F81C0090FBF6F306FB130000281B
:10532800B8BF404200B20FF0B3FC14200FF0C2FC2B
:105338008C4BB3F904000A2390FBF3F00FF0A8FCA0
:105348001C200FF0B7FC00200FF0A2FC0FF0AAFC05
:10535800237A590740F06B8102200FF0ABFC7D4B9C
:10536800186A6423323090FBF3F000B20FF090FC1F
:105378007D4B0320B3F906600FF09CFC7B4B1B7838
:105388005A074FF0050996FBF9F6B6B20BD57848DF
:1053980041460BF085FC20B92B6813F0100F18BF9D
:1053A800002630B205E0734B1B68D889B0FBF9F0D2
:1053B80000B20FF06DFC2B689B076FD5DFF8C89122
:1053C800A68CDFF8C88199F80010B8F800203601DB
:1053D8006423B6B203FB02124B00B2FBF3F346EAB6
:1053E8000326B6B2C3F303231E4306200FF062FC64
:1053F80030B20FF04DFCA38C99F8002001339BB21A
:1054080093FBF2F102FB1133A16AA3848B7B012B7E
:1054180005D139200FF04EFCB8F9000021E0B8F8AA
:1054280000606E237343152693FBF6F6CB7BB6B26A
:105438000BB196FBF2F63A200FF03CFC4FF06409F2
:10544800B6FBF9F80FFA88F00FF022FC09FB186692
:105458003B200FF02FFCB0B2461D0A2096FBF0F05F
:1054680000B20FF015FC28200FF024FCE36A0A2094
:1054780093FBF0F000B20FF00BFC04200FF01AFCC5
:105488003C4B1B68DB8913B101F0C8FE03E03A4BC3
:10549800186880F3100000B20FF0FAFB374B1B6856
:1054A8009E0640F1B98094F83030DFF8A88098075C
:1054B8001DD511200FF0FEFBB8F83200304B4FF429
:1054C800F366704390FBF3F000B20FF0E1FB192094
:1054D8000FF0F0FBB8F832004643642096FBF0F674
:1054E80096FBF0F300FB136000B20FF0D1FB94F8C9
:1054F8003030A68E13F0020F08BF002601200FF0EF
:10550800D9FB30B20FF0C4FB09200FF0D3FB002009
:105518000FF0BEFB1B4B94F836601A88B2F5967FE5
:105528000AD90C4B1B7A03F00F03072B04D842F25D
:105538000F76964228BF164605200FF0BBFBA36ADC
:105548005B7B3BBB30B242E08A36002080140020EF
:10555800A8300020D00F00208C1400200800002064
:1055680000007A44702B0020A62B002087360020EC
:10557800E43200202C14002030140020981700205A
:10558800A0860100EC0000203804002078140020D8
:105598006666E63FA6F1200307EE903A1FED047A0F
:1055A800F8EEE77AF6EE006AC7EE877ABEEE007A82
:1055B800F5EEC07AF1EE10FA58BFB0EE667A77EEE3
:1055C800877AFDEEE77ACDED007ABDF900000FF09D
:1055D8005FFB94F83020C34B910703D493F837202E
:1055E800012A04D1012384F83730BF481BE09B6AA5
:1055F800DFEDBE6A93ED017AD3ED027A27EE267AC3
:1056080067EEA67ABDEEC77AFDEEE77A8DED027AEF
:10561800CDED037A02A806E0B54A92E8030002AB92
:1056280083E8030018460FF055FB0FF03BFB237A85
:10563800282B20D1AB4B386800221A724FF03C0956
:105648004FF47A73B0FBF3F817200FF033FBB8FB75
:10565800F9F6B6FBF9F009FB1060000200B20FF092
:1056680017FB18200FF026FB09FB168000B20FF07D
:105678000FFB0FF017FB94F84030DFF86882002B1F
:1056880000F05D810BF0B2FBD8F84430994AC31A98
:105698009342064640F2C080002388F84A3088F8D2
:1056A8004C30954B1B88DAB21B0A88F8662088F8BC
:1056B800673088F85C2088F85D30D8F874203B683B
:1056C8009A1AD8F87830197C4FF47A734B439A4277
:1056D8000ED38A4B1B68C8F87430894B1B78013B82
:1056E800012B9FBF102388F84A30022388F84C30DA
:1056F8000A20E26A834B92FBF0F284F864201212CB
:1057080084F8652094F830201B6893FBF0F384F844
:1057180068301B1284F86930920794F83630714962
:1057280084F8963003D42D2381F8973072E0042B47
:10573800D4F838A0E76BDFF8DC91734A8CBF3323C9
:10574800322381F897304FF00608704B9AFBF3F03C
:1057580097FBF3F309FB00A109FB037903EB830330
:1057680008FB01F103EB830391FBF2FC4FF0640E9D
:1057780002FB1C119B0091FBFEF184F888100912B2
:1057880008FB09F884F8891098FBF2F143FA81F3D1
:105798009BB202FB118292FBFEF284F88D2012125A
:1057A80084F88B3084F88E201B0A628E84F88C3043
:1057B8002423534393FBFEFEB4F8A83084F88F30BB
:1057C8001B0A00EB800084F89030A38E84F883E0F5
:1057D80000EB8000800003F5FA739BB240FA8CF06E
:1057E80080B284F891301B0A4FEADA7A84F886008E
:1057F800FF0F000ACEF3072E84F89230B4F8AA30CF
:1058080084F885A084F8870084F88A7084F884E096
:1058180084F89830334B5E64324C94F8AC80B8F11D
:10582800000F0DD1D4F8B4000BF064FC012807D99F
:105838000228374F00F07F840FF01CFA0123BB7059
:10584800D4F8B870274B002F79D093F8AC203AB130
:10585800D3F8C02040F6B731B21A8A4216D86EE0A3
:10586800012283F8AC20D3F8C420D3F8B40012780E
:10587800022A04D8043002210FF0E6F902E00221DE
:105888000BF0D2FB002384F8C83056E093F8BC2014
:10589800AAB9C3F8B82083F8AC20D3F8C420D3F849
:1058A800B4001278022A04D8043001210FF0CCF990
:1058B80002E001210BF0B8FB0FF0DCF93DE0013A02
:1058C800D2B283F8BC2093F8C81093F8C9001ABB69
:1058D80001304A1C83F8C90083F8C820D3F8B40003
:1058E80029E000BFD00F0020081000208096184B38
:1058F80034AF01083F0D0300781400208C140020F9
:10590800412E00203014002040420F00809698005D
:1059180008000020806967FF3A46013012F801EB61
:1059280083F8C9000EEB0107D3F8B40083F8C870F8
:10593800C3F8B82071460BF009FCC4F8C060C14C2C
:10594800C14E94F8CA303768002B00F0E681D4F8CD
:10595800CC30002B00F0E18194F8D030013B012BD2
:1059680000F2DB81D4F8CC00DFF8D8820BF0C2FB60
:10597800E0B1D8F8CC000BF0BAFB98F8D130D6F8E3
:1059880000A07E2B81460ED102231B2888F8D03038
:1059980009D1D8F8CC000BF0ADFB20B90123C8F829
:1059A800D4A088F8D83084F8D190DBE7D8F8D42090
:1059B80033689B1A41F6583293422AD9032388F850
:1059C800D030AAE1A14A32F8130010B903464FF4C7
:1059D80003600133B0F5E06FDBB200F02E8129D906
:1059E800B0F5026F00F06F8140F28280B0F5046F6D
:1059F80000F01A81B0F5116F00F07881B0F5036FEF
:105A08000BD184F8D930924BDFF838821B689A069C
:105A18007CD494F8D81094F8D930002900F07B8110
:105A28003268D21B012ACDD984F8D930002384F8F2
:105A3800D83072E1B0F5047F74D00BD8B0F5887F08
:105A480000F0E680B0F5007F00F08280B0F5807F3E
:105A5800E3D190E0B0F5826F00F00F81B0F5C06F30
:105A680000F09580B0F5806FD7D184F8D93094F8DC
:105A7800E030744A0133DBB2032B88BF012382F87C
:105A8800E03094F8E01042F210735943714B1B78E0
:105A9800D80748BF01319A0748BF02315B076E4BF0
:105AA8001B8848BF0431D80748BF0A319A0748BF46
:105AB8001431180648BF2831DA0548BF283158077D
:105AC80048BF64311A0748BFC831980548BF01F577
