:020000040800F2
:1000000000A0002081980108E998010859810108A1
:10001000E9980108E9980108E99801080000000042
:10002000000000000000000000000000E998010846
:10003000E998010800000000E9980108593B01080F
:10004000E9980108E9980108E9980108E998010888
:10005000E9980108E9980108A7260108B1260108D6
:10006000AF260108AD260108AB2601088D7A0008ED
:100070007D7A00086D7A00085D7A00084D7A0008E4
:10008000397A0008257A0008E9980108E9980108FA
:10009000E9980108E9980108E9980108A9260108EA
:1000A000B1380108ED380108A138010815390108F7
:1000B000E1380108D1380108C1380108E998010880
:1000C000E9980108E9980108E9980108E998010808
:1000D000E998010861790008557900084B79000812
:1000E000A5260108E9980108E9980108E99801089E
:1000F000E9980108E9980108E9980108E9980108D8
:10010000000000000000000000000000E998010865
:10011000E9980108E9980108E9980108E9980108B7
:10012000117A0008FD790008E9790008D5790008FE
:10013000C1790008E99801080000000000000000F3
:10014000E9980108E9980108E99801080000000011
:10015000000000000000000000000000000000009F
:100160000000000000000000E9980108E99801087B
:10017000E9980108000000000000000000000000F5
:0801800000000000E9980108ED
:100188002DE9F04FA34BA44A2DED068B1A60A34B23
:10019800AFB000221A6009F0C3FD18B90AF014FACA
:1001A80012F088FB09F0E0FD9D4A137843F0010343
:1001B80013709C4A9C4B116899424FF0000309D177
:1001C800136062B6994B1B6883F30888984B1B68C9
:1001D8009847FEE7974A984C4FF47001C2F8881088
:1001E8000C930D93236843F480332360236803F44E
:1001F80000330D930C9B01330C930D9B1BB90C9B87
:10020800B3F5A04FF2D1236813F4003318BF0123CC
:100218000D930D9B012B52D0DFF81882874BC8F83D
:100228000C30874F666A3E60636A43F0807363628E
:10023800636943F4FC032EAD636103238DF86A30D0
:1002480041F6FF7325F8503D4FF09040294607F0DE
:1002580089FB4FF6FF7329467A48ADF8683007F0F6
:1002680081FB2946784807F07DFB2946774807F047
:1002780079FB2946764807F075FB2946754807F04B
:1002880071FB28460EF09DF8734A1A9BB3FBF2F3F4
:10029800724A00211360381D10221BF079FF704A42
:1002A800704B5360F02388F82330072100239360B4
:1002B800DFF8E0E111604FF0010C6B4928E06B4B6F
:1002C80012221A606368636063686360636843F45A
:1002D80080636360636823F47C136360636843F43A
:1002E800E8136360236843F0807323602268524BED
:1002F8009501FBD55A6822F003025A605A6842F009
:1003080002025A60636803F00C03082BFAD183E7F2
:1003180098023EF8135000F19040002245FA02F886
:1003280018F0010F18BF0CFA02F802F101021EBF03
:100338000860A1F804800C31102AEFD10133062B94
:10034800E6D14B4D4B4B95F8EB21DFF84C911A70E9
:100358000020AB68C9F8003016F086FC464A92F8CF
:1003680000B000234FF0170A0BEB0301434A52F881
:10037800210003F1010840B1022380F806A0C371EF
:1003880080F80880012112F049F84346032BEBD18D
:10039800002016F069FCA369394843F00103A36102
:1003A800402200211BF0F4FE364B4FF0FF321A605A
:1003B800C3F80320D9F800301C0711D595F84C3242
:1003C800012B0DD816F0805600F0808608E093F8CF
:1003D8004F22012A04D1002283F84E2212F018FB82
:1003E800642013F0ABFB4FF48C7200212648274E93
:1003F8001BF0CEFE0024B046A1590023244850F833
:10040800330081424FEAC30248D108EB020393F854
:10041800D00047E0441600201D9D00084816002023
:10042800154B0020FC9F0020EFBEADDE00D8FF1F5B
:1004380004D8FF1F00ED00E0001002400005FA0597
:10044800180600200004004800080048000C004876
:10045800001000480014004840420F00443F0020AC
:1004680010E000E03F1901006C420020002002402B
:1004780040440020CE20002080E9010884E90108DA
:100488006C3A0020703B0020743D0020ECC201084B
:10049800B8C301084CE501089C23002001330A2B4E
:1004A800ACD100200C3416F071FACC2CA4D16E4CCF
:1004B80004F1CC06207911F021FF0C3414F8032C38
:1004C80014F8041C11F06EFFA642F3D1674BDFF855
:1004D800C481674AD9F800401A604FF005093C22E8
:1004E8000021644888F800901BF052FE0022404624
:1004F800DFF8A4C1DFF87C814B4604F0400696463D
:100508004FF0FF091CF9011F02F8081002EB080A56
:1005180056B91E39C9B201299FBF03F1FF338AF8C2
:100528000090DBB24FF0010E0C323C2AEAD1BEF14A
:10053800000F00D00370504B95F8058083F80080B9
:100548004E4B4F497B61A00603F1D8030B6058BF9F
:100558004C4B4D4A56BF03EBC80301235B789361AC
:100568004A4A002340F2DC5122F813100133082BC9
:10057800FAD100211C2213A81BF00AFEA1050AD5F6
:100588002022212301213A777B778DF858108DF8A6
:1005980066208DF86730B8F10E0F03D008F0EF032E
:1005A800082B02D101238DF8603001200DF0C0FA2C
:1005B80018B14088003018BF012000F001008DF804
:1005C800510002200DF0B4FA18B14088003018BF6D
:1005D8000120C4F340038DF85430C4F3403300368F
:1005E8008DF84C30C4F3C03318BF012600F0010069
:1005F8008DF84F3014F400638DF852008DF8566072
:1006080004D095F822325A1E534253418DF8503087
:10061800C4F300438DF85730C4F3C0038DF84E304F
:10062800BB69003318BF01238DF85930C4F3005358
:100638008DF85A30B5F8D230ADF85E30B5F8E03004
:10064800ADF85C3095F8E33004F001088DF84D8082
:1006580004F0080613BB0E4B93F8E23013F0FB0FBF
:100668000CBF012300231AE0ECC20108284A00202D
:10067800F4460020304A0020680C00204C4400203A
:10068800083F002080CA010818060020900D0020AD
:1006980040440020E40D002003CA0108012395F816
:1006A800E220079312F0FB0F14BF012100218DF8FF
:1006B80055108DF8612013B1B94BB3F8DE30ADF8A1
:1006C8006230B5F8D030ADF86430E30442BFB44BC3
:1006D800B3F8DA30ADF86430042A06D14FF480500C
:1006E80012F0C0F80023ADF86430AE4B95F89822AC
:1006F8001A7000216422AC481BF04AFD9DF8603056
:10070800002B14BF02220022B8F1000F00D106B15D
:100718000132A64BA54CDFF8C08203EB8203D3F865
:100728001C319A1E203308930023049203930593E7
:10073800049B33F8022F04934FF6FF739A4200F09C
:10074800DD819DF85210D3B2120AD7B239B10C210B
:1007580001FB034109792A39012940F2CA819DF830
:10076800561031B10C21594360589149884200F024
:10077800C0819DF8571059B10C215943601865582C
:100788008C498D4200F0B5810179182900F0B181BA
:100798009DF8541031B10C2101FB0341097914294A
:1007A80000F0A7819DF84F1031B10C2101FB0341E6
:1007B8000979222900F09D819DF8501031B10C2152
:1007C80001FB03410979152900F093819DF8581020
:1007D80069B10C2101FB03419DF866000979884243
:1007E80000F087819DF86700884200F08281022A24
:1007F80002D19DF84C2003E0012A04D19DF84D2038
:10080800002A00F076819DF859206AB19DF8602091
:1008180052B9A3F10E02012A06D80C225A43A15854
:10082800654A914208BF04279DF85A200C2505FB0C
:10083800034532B19DF860201AB91A1F032A40F205
:100848003981012F43D14FF00C0B0BFB03FB04EB59
:100858000B0954F80B3003930026584B99F8040001
:1008680088F82060FF22C8F82C501E705E609E60D9
:10087800DE601E6483F8442083F8452083F84660D0
:1008880083F8476083F8486011F038FD02228271CE
:10089800C771067299F8081011F0C0FD324699F830
:1008A8000510039811F0B2FC3A463146284613F079
:1008B800DDF8434B434AC8F83030434BC8F834306E
:1008C800C8F83860111F284613F028F811E1022FE4
:1008D80046D19DF8142009921C264FF00C0B0BFBF7
:1008E80003FB06FB02F108EB010704EB0B064FF0D4
:1008F800010A4FF0000987F82120307987F8229003
:1009080087F82A9087F820A0FD62069111F0F6FC7E
:10091800099A80F806A05244027280F807A0317A3A
:1009280011F07CFD4A46717954F80B0011F06EFC09
:1009380052464946284613F099F8244B3B63244B0A
:100948007B63069BC7F8389003F11001214B1944CB
:100958000A1D284612F0E2FF059B53440593C8E0A0
:10096800032F40F0A5809DF84D109DF861200029C7
:1009780037D0002A35D04FF00C0B0BFB03FB039943
:1009880054F80B308B422CD1531E032B29D8DFE8A7
:1009980003F002250425082121E048211FE000BFBB
:1009A80040440020483A0020E80D0020ECC201082D
:1009B80000040040002C014000400140FC320020AF
:1009C800491B01084C060020A51C010851220108FA
:1009D800211B010838060020180600201821B34BF7
:1009E80019709DF85530B24EBDF8620073B3022AF3
:1009F80096F801A0BDF8643009D0032AAD4AAE4F7D
:100A08000EBF4FF0480E17464FF0080E02E0AB4FEE
:100A18004FF0180E5FFA8EF1DFF8AC9230B1A84AA9
:100A280002FB0EF2B2FBF0F292B202E003464FF67E
:100A3800FF72284611F018FD49F82A0059F82A30A3
:100A4800DF60B378192206EBC30327E0042A77781E
:100A580011D19C4AB2FBF0F2182192B2284611F04B
:100A680003FD994B43F82700984BC360B3780D22D8
:100A780006EBC30312E0BDF86430914AB2FBF0F212
:100A8800012192B2284611F0EFFC8F4B43F8270062
:100A98008F4BC360B378092206EBC3035A71B3784E
:100AA800727806EBC3010A7101328D6072701EE024
:100AB800042F1ED17E4EBDF85C20B378377806EB44
:100AC800C30301211F7128467D4B93FBF2F2BDF849
:100AD8005E3092B211F0C8FC7E4B43F82700B37821
:100AE80006EBC3020A2151713278013232700133A8
:100AF800B370089B049A93427FF41AAE079B764E14
:100B080083F00102754B1A70754B1D78A5F1170318
:100B18000024022B34701ED8DFF8C8C1DFF8F8E1D2
:100B2800DCF814302344D3ED007AF5EE407AF1EE88
:100B380010FA04D16B4B03939A6952BB24E00FCB94
:100B480004EB0E0787E80F00337810340133C02C0C
:100B58003370E5D1EEE7644B13F835E086F800E032
:100B680003EBC503D3F804C0BCF1000FE2D0DFF8F3
:100B7800A8817445DEDA230103EB080763440FCB31
:100B8800013487E80F00F4E7584C2368DF0425D4C4
:100B98001EE0574B574A13F83500107003EBC50396
:100BA8005C68002CF0D0544F00238342ECDAC3EB8E
:100BB800C301621801EB070ED2F800C041F807C064
:100BC8009188AEF8041092798EF806200133ECE78C
:100BD80005F0EF03082B494B1FD120E03278012A9A
:100BE800F6D9474B03EB02121032F6EE007A1033B7
:100BF8009342EDD013ED047A27EE277A03ED047AB9
:100C080013ED057A27EE277A03ED057A13ED037ABB
:100C180027EE277A03ED037AE9E70E2D08D11A7833
:100C280042F010021A70182D08D112F075FD05E077
:100C38001A7822F010021A70192DF5E7314D12F0CA
:100C48004DFD2B783F2043F004032B7011F056FB29
:100C58002D4A049510602D4A0121117038B11122D6
:100C680082710222C2710022027211F0D7FB284D54
:100C7800002012F075FF287E15F088FE2B7E03F009
:100C88001F015B090122022B02FA01F208D0032B93
:100C980044D0012B46D11F498B6A1A438A6241E02E
:100CA8001C49CB681A43CA603CE000BF3C040020E2
:100CB800E80D0020691D0108051D01083D1D0108FA
:100CC80040420F0000366E01283D0020E51C010857
:100CD800D51C01084C3A00206F180020703D0020F8
:100CE800680C00201806002080CA01089C230020F8
:100CF80038E30108943E0020953E0020DC140020D3
:100D0800900B0020154B0020483F00204C3F00204E
:100D18006C05002000100240880B0020A9490B69CF
:100D28001A430A61687D11F0E9FA0C260B230227A1
:100D3800C37186710772E87D11F0E0FA4FF00D0873
:100D4800867180F807800772A87D11F0D7FA86713E
:100D5800C6710772687D11F0D1FA6A7E0E2111F012
:100D680021FBE87D11F0CAFA6A7E0E2111F01AFB08
:100D7800A87D11F0C3FA6A7E0E2111F013FB287DBD
:100D880030B111F0BBFA904B41465A7E11F00AFB84
:100D980029698E4B99420AD103F56043DA6842F417
:100DA8008052DA60DA6822F48052DA6019E0884BFF
:100DB800994209D103F5EC331A6942F480421A6169
:100DC8001A6922F480420BE0824B994209D103F55B
:100DD800EA331A6942F400421A611A6922F400429D
:100DE8001A612B7F13B10023184601E0012302206A
:100DF8008A8822F480521204120C8A808A8892B25D
:100E080042F480528A8029690A8802F4415242F4E5
:100E18004572134303430B808B8823F470631B04D0
:100E28001B0C43F4E0638B808B8B23F400631B045F
:100E38001B0C8B8307230B822A6913889BB243F010
:100E480040031380287D18B111F058FA11F07FFA89
:100E5800236803F41073B3F5107F66D0262011F0D1
:100E68004DFA0746272011F049FA564D06467520D7
:100E780015F08CFD2B6B23F010032B632B6B43F0C9
:100E880010032B634FF001084FF00D09092387F871
:100E98000690FB7187F80880384604221E2111F05D
:100EA80081FA0A2386F80690F37186F8088030469E
:100EB80004221E2111F076FA474B484E1A6822F098
:100EC80001021A601968464A0A401A60454A1A61BE
:100ED8001A68002142EA08021A609960D96099608C
:100EE8009A6842F400429A601A681A605A6822F0B6
:100EF800784222F400425A601A6822F400321A60DA
:100F08001A6842EA08021A60D4F800A014273A4680
:100F180030461BF03DF91AF0020F0AF400490AF4B2
:100F28000068304618D0377016E02F492F4D0A78E0
:100F380000231846FF265F571F2F04BF5E5502F196
:100F4800FF3203F10C0304BFD2B201203C2BF2D1D3
:100F5800002883D00A7081E7B9F1000F01D022235D
:100F68004371B8F1000F01D01523C373204FDFF888
:100F780088A04FF00F0900264FF0060817F8010C5B
:100F8800002847D011F0BAF94FF0000B80F806801E
:100F980080F8079080F808B017F8010C11F0AEF946
:100FA800132111F03BFA17F8011C5B46114810F8A1
:100FB800130088424FEA430220D10AEB020393F858
:100FC8002D311FE0001002406C0500200030014068
:100FD80000380040003C004000540040B020002091
:100FE800FFE0CF00300E5000E40D0020304A002012
:100FF800B120002018C40108ECC201080133272BD6
:10100800D4D1002307223B70FA70731C01227E7032
:10101800BA70DEB209F101095FFA89F9B9F1130F63
:1010280007F10507AAD1EB6A23F4F873EB62EB6AC0
:1010380043F4D873EB623C2015F0A8FC212015F08E
:10104800A5FC7E487D4D0DF0FEF81AA80DF0D0F8ED
:101058007B4B1A937B4B1B93022E4FF0000334BF3C
:101068001A4680221F924FF4807220924FF48062B9
:1010780021922022284622921AA94FF400521C934A
:101088001E9323922493ADF874600DF0BEF82B687C
:1010980043F001032B606C4DAB6823F04053AB6009
:1010A800AB6843F08053AB600A2012F047FDAB6891
:1010B80023F08043AB60AB68AB60AB6843F00043A0
:1010C800AB60AB68604A002B38DAFAE75F4B93F8FD
:1010D8004E32013B092B3FF683A92B2011F00EF964
:1010E800182383710223C371044606720121C7F8CD
:1010F8009C0411F093F92046012111F02DF93C20B0
:1011080012F01CFD95F84E22504B9642BFF65FA98F
:10111800002015F0A9FD0021204611F01DF97820C6
:1011280012F0EAFC012015F09FFD0121204611F084
:1011380013F9782012F0E0FC0136E3E7936844499C
:1011480023F040539360936843F00053936088689A
:10115800404B034043F468338B60D1683E4B3F48B3
:101168000B4043F40053D360136B013E23F00F038D
:101178001E43166300F1140C01234FF0380A4FF098
:10118800070B4FF0060E1F25C178002978D05E1C8A
:10119800042B41780779F6B20ED803EB4303D2F853
:1011A80030805B0005FA03F928EA090801FA03F31D
:1011B80043EA080313632FE0092B0ED8053BD2F846
:1011C80034800EFB03F305FA03F928EA090801FA4B
:1011D80003F343EA080353631EE00E2B0ED80A3BC1
:1011E800D2F838800EFB03F305FA03F928EA090858
:1011F80001FA03F343EA080393630DE00F3BD2F8C7
:101208003C800EFB03F305FA03F928EA090801FA02
:1012180003F343EA0803D363092921D90A399369F7
:10122800936901EB41010BFA01F823EA0803936182
:10123800936907FA01F11943916120E0080402401B
:1012480040010050C420002000010050404400200C
:1012580000030050E010FCFF07C0FFFDB020002095
:1012680001395369536901EB41010AFA01F823EA8C
:1012780008035361536903318F401F435761334655
:101288000530604580D1754B9A6842F001029A603A
:101298001A461168714BCD07FBD5DA68704D22F0FC
:1012A8000202DA60DA6842F00202DA60DA6842F0D2
:1012B8000102DA609A6842F004029A60D5F8C831EF
:1012C800002B40F0D687D5F8CC21002A40F0D187F2
:1012D800D5F8D021002A40F0CC8723689C031CD580
:1012E800C82012F02BFCAE2016F067FF08B113F0EF
:1012F80051F9039B5B4C83F80001C82012F01EFCD7
:10130800002323606360A3600223E3700BF037FAC5
:1013180012F0D6FB544B0344A360B5F8D83195F8C6
:10132800D58195F8ED9195F8EEA1B5F9F0B1059351
:1013380095F8DA314D4D4E4F4E4E4F4806930024E6
:10134800182221462C606C60AC601AF021FF2146FF
:1013580018223C8006F582701AF01AFF039B474A50
:10136800C3F81C21232012F0E9FB0DF12E02012104
:10137800752005F0B1FE002864D0414AC6F808215E
:10138800404AC6F80C21432286F8042101210DF1B8
:101398002F02204605F0A0FE9DF82F2002F07E02C5
:1013A8008DF82F2038B1682A05D101223A701D2204
:1013B80086F8042146E09DF82E302D4C03F07E037C
:1013C800682B8DF82E3039D102232370039B062118
:1013D800D3F808311AAA084698479DF86D209DF859
:1013E8006B3092005B0003F0020302F004021A4320
:1013F8009DF8693003F00103134310D0012B01D18C
:10140800002302E0022B02D1012363701AE003F0EB
:101418000303032BF8D0032012F0B0FB12E0154BA6
:101428000EAAD3F8083101210C2098479DF83830CE
:1014380013F00F03EFD0042BE6D1E1E7702B04BFC4
:1014480004232370104900230B70094B1A78022AD1
:101458001CD0012012F092FB37E000BF00010050C1
:1014680040440020A04A0020404B4C00602500204A
:101478005C25002018060020E825002066C4010825
:10148800E170000833720008F42C0020C34BC448F4
:101498001860C4485860C448D860C4481861042318
:1014A8000B70C34B9DF814601A70C24A136843F05E
:1014B80001031360069B019300965B46524649461A
:1014C80040460FF077FF0028C3D0049B049A1B788E
:1014D800B94E43F002030020137015F0C5FB0A242F
:1014E80015F0B5FB192012F029FBD6F8CC35DFF83A
:1014F800C88213F4803F02D1012012F031FB192079
:1015080012F01CFB002012F02BFB013CE8D1A94E85
:10151800204615F0A9FB3368180705D5A74B1B68AB
:101528009847A74B01221A70A64B9FEDA78A1B6804
:10153800A64F1B7B00EE103AB8EEC00A20EE080A50
:1015480009F08DFAA24B9FEDA37A83ED000A934B25
:10155800D3ED047AA04B67EE887AC3ED007A2B8925
:101568009E4D07EE903AF8EEE77A9D4BC7EE276A54
:101578009FED9C7AC6EE877AC3ED007A12F00EF9D9
:10158800FF211E2238461AF003FE974B01221A70DB
:1015980000223A702A6812F4800F01BF02211970E4
:1015A8001B21797038463768B9070ED519784FF07E
:1015B800010E00F801E001F1020E0131C9B283F811
:1015C80000E04FF0020E00F801E0790708D519781D
:1015D80001F1010E83F800E04FF0030E00F801E07E
:1015E80017F00A0F0ED01978042747544F1CFFB282
:1015F8004FF0050E00F807E0CF1C0231C9B21F708A
:1016080006274754110608D51978092747548F1C0F
:101618000131C9B21F700A274754970504D51978B4
:101628004F1C1F7015274754D10504D519784F1C36
:101638001F701A27475498F80570082F01D00E2FED
:1016480008D1197801F1010E83F800E04FF00B0E74
:1016580000F801E0197801F1010E5FFA8EFE4FF0F3
:101668000C0C12F4803F83F800E000F801C009D0A8
:10167800DFF874C102318CF8001054494FF00E0C99
:1016880001F80EC0110308D5197801F1010E83F88D
:1016980000E04FF0190E00F801E0197801F1010E91
:1016A8005FFA8EFE4FF01D0C12F4805F83F800E0A5
:1016B80000F801C009D0DFF830C102318CF8001001
:1016C80042494FF01C0C01F80EC0910608D5197854
:1016D80001F1010E83F800E04FF0070E00F801E079
:1016E800510708D5197801F1010E83F800E04FF091
:1016F800100E00F801E0510308D5197801F1010E28
:1017080083F800E04FF0120E00F801E0520507D50B
:1017180098F8E02222B11A78511C197013218154CB
:10172800182F0DD11A7816218154511CC9B24FF0C7
:10173800170E00F801E0D11C0232D2B2197087549A
:10174800982200212948DFF8C4A0DFF8BC901AF0DD
:101758001FFD0FF04FFC264B264A1A60264BB8F89F
:10176800DC1019802549DFF8A8C000230B808B7096
:1017780023490A60234A1370B8F8542211B2D9F8E1
:1017880000002AF8131000F596704CF82300013376
:10179800122BDFF878E01C4FF1D13BE0E825002060
:1017A80035740008016C0008E96B000890C1793DA8
:1017B800380400207025002040440020EC2C002034
:1017C800F43C00202016002035FA8E3CDE23002051
:1017D800284100200AE81C41184100209C230020D1
:1017E800A83C002000401C46DD230020582400208F
:1017F800241400208446002022140020A82300205E
:1018080098230020F01300208823002000250020C2
:10181800A81300202868C30458BFB8F96012AEF8AE
:101828000610954901F1500C91F81D35FBB991F856
:101838001F9591F82035994519D2B9F1000F08D0B4
:1018480009F1FF3909EB890909EB890909F5617380
:1018580006E0013303EB830303EB830303F56173B2
:1018680091F81E9509F104099BB22EF8193004313C
:101878006145D9D1030740F1658198F84C120829D0
:1018880000F25A81DFE811F009000C00130044004F
:10189800650086008600CB002A0145F2F05201E07F
:1018A80042F6F822754B1A800FF034FD43E1734B72
:1018B80042F6F821198072490A23120192FBF3F2C9
:1018C8000023A2F5B06241F823200133122BFAD18C
:1018D8006C4A6D4911606D4A402013700CF066F92E
:1018E8008146002800F0288115F066FF98F84D32EF
:1018F80099F900E0002B0CBF0622072200280CBF34
:1019080001230323019200938046614B614AA9E0B9
:101918005A4B42F6F8221A805A4B5F4A1A605B4BC0
:10192800102240201A700CF041F98046002800F07F
:10193800038115F041FF002200280CBF0123032377
:1019480098F900E00192009380464FF4E133534A3E
:1019580088E04A4B42F6F8221A804A4B504A1A60ED
:101968004A4B082240201A700CF020F980460028C3
:1019780000F0E28015F020FF002200280CBF0123B0
:10198800032398F900E00192009380464FF4E13375
:10199800444A67E0394BDFF83091DFF83081DFF8EF
:1019A80030C1DFF830E1404842F6F8221A80374A61
:1019B8000C23137006294FF0000289F8002088F8DC
:1019C80000208CF8002009D01B220370374B8EF8BA
:1019D800002005221A704FF4E13907E00370334BF9
:1019E800DFF8F490197021228EF80020254B304A38
:1019F8001A6040200CF0DAF88046002800F09C803D
:101A080015F0DAFE002200280CBF0123032398F901
:101A180000E00192009380464B46264A22E0174B8D
:101A280044F620621A80174B234A1A60234B4FF062
:101A3800000983F80090154B0E2240201A700CF014
:101A4800B5F88046002877D015F0B6FE1C4A98F9FC
:101A580000E048450CBF012303238DE808028046B7
:101A68004FF4E133402170460CF00CF8B8F1000F48
:101A78005ED0144B18605BE040440020BE0A002092
:101A8800B8210020340400205DEA00085025002019
:101A9800A086010031EC000821EA000835EB0008B7
:101AA8000DEA0008EDEA00089323002074200020C6
:101AB8005DDE000875DE0008DDEA0008612300200D
:101AC80071ED0008582500209423002051200020A3
:101AD800502000207320002090D00300C04B41F21A
:101AE8007C521A80BF4BC04A1A60C04B10221A7031
:101AF800BF4B4FF0000883F80080BE4B28224020DF
:101B08001A700CF053F8B8B1032390F90000BA4AE0
:101B1800CDF8048000934021B84BDFF850830BF0D8
:101B2800B1FF0121C8F8000010F040FBD8F8000010
:101B3800003018BF012028B9082010F093FEA94BE7
:101B4800AF4A1A602B68A94A13F4804F04D01221B7
:101B58001170A449AB48086042F20101194003F032
:101B6800010003F4005EA1B19D4944F6206CA1F880
:101B780000C0BEF1000F06D0082111709949DFF8A6
:101B8800F0E2C1F800E020B10C21117095499E489F
:101B9800086011781806A1F1040151705FD54FF063
:101BA8000009DFF8D0829948DFF8CCA288F80190C4
:101BB80015224946C8F80490C8F808901AF0E8FABF
:101BC800934BCAF80030484612F040FB3B68C8F80F
:101BD8000C3002200BF0EAFF18B9802010F042FE0A
:101BE80036E0427998F80130DFF828C249464FF0CC
:101BF8000C0909FB03CE9EF801E0964507D0013396
:101C0800DBB2042B4FF00101F3D9002300E009B146
:101C180088F80130DAF8003098F801201B7890F93C
:101C28000000002B7B4B4FF00C0E0EFB02330CBF59
:101C38000121032100225B788DE8060002210BF0C8
:101C480021FF754B18600028C7D0012012F0FEFA5A
:101C5800724B734A1868734B1A6012F00FFC2B68AA
:101C6800DFF8F08113F4007F58D06F4A936943F08E
:101C78000103936198F81C0010F040FB6B4A4FF089
:101C8800000A10604FF00A0B0222C271012180F88D
:101C980006B080F808A010F0C1FB98F81D0010F0FD
:101CA8002DFB0123C37180F806B080F808A05146C7
:101CB8008146C8F8380110F0B1FB5D4BC8F83C31DB
:101CC8008022102308F59E71484610F0EEFC484625
:101CD80014F0D2FF3B68574A9FED570A3C3B13600C
:101CE800336843F0100333604FF4C873A8F84031E9
:101CF800524BC8221A8008F0B2FE514BDFED517AE0
:101D080083ED000A20EE270A4F4AFDEEC07A17EE4F
:101D1800903A13804D4B4FF0FF321A604C4BC8F885
:101D280044312B68DFF854A14A4F0026D9038AF8BA
:101D3800006040F1118114F03BFA4FF0010940F2C4
:101D48002A32314607F5A4708AF800901AF020FA72
:101D58003549414B48699A6A02434A613F4A1A62C7
:101D6800DE621AA893F825308DF868308DF86990EE
:101D78008DF86B908DF86A6014F00CFF182010F045
:101D8800BDFA1623C7F87404837107F5A4790223F2
:101D9800334FDFF8D4E0C371067257F83620314963
:101DA80072454FEAC60301F1CC0A03D10B4493F8FC
:101DB800D12003E001360A2EEFD100222E2110F0A7
:101DC800F1FA294800235AF83310274F81424FEA85
:101DD800C30255D1234B134493F8D00054E000BFFD
:101DE800BE0A002034040020C5EA0008502500205F
:101DF8001C2300201D23002089EC000848E801006E
:101E080091EA0008B5EA000895EA000838070020BA
:101E1800E54600207CE501089C4A002010240020AB
:101E28006A460020F815002000100240CC3C002033
:101E3800496D0008C83C0020DB0FC93E883C0020E3
:101E4800803C00200000C843903C0020843C0020D7
:101E5800344700201806002040040020FF6C0008CA
:101E6800B8C30108ECC20108002C0140AC150020E1
:101E7800A5EA0008F83C0020183D00209C4B0020F3
:101E880001330A2B9FD1002014F080FD3B88B6480F
:101E9800DFF81CA323F45C731B041B0C3B801D237D
:101EA800FB6200264FF0010B02233B850EA93E86FC
:101EB8006023C7F814B00E93ADF83E601096ADF8E5
:101EC8004460ADF84660ADF84860ADF84A60ADF8DA
:101ED8003CB00CF03BF9BB6943F00803BB617B6C79
:101EE80043F400437B6450460CF0ADF91AA80CF09B
:101EF8007FF99E4B1A9310231C9340F22A33ADF8B6
:101F0800743080231F934FF4807320931AA94FF4E1
:101F1800005350462393CDF86C901E962196229636
:101F280024960CF072F9FB68914943F40073FB6046
:101F3800DAF8003043F00203CAF80030FF2288F8CC
:101F480078B4631866520434802C9A70DA70F8D129
:101F580005F0D2FB05F0D0FB2B685A0560D5854FFC
:101F6800854B3A681A6004200BF020FE0421C8F85B
:101F78007C040BF0F1FD814B3A6888F88004082056
:101F88001A600BF013FE7E4B7E4C186008210BF094
:101F9800E3FD2C2288F88104002120461AF0F8F885
:101FA8008E2363707C26E0237D25E370267084F8F9
:101FB8002B50754C00212C2220461AF0E9F88A2370
:101FC8006370A023E370714B3A681A602020267072
:101FD80084F82B500BF0EAFD2021C8F884040BF09C
:101FE800BBFD88F8880410200BF0E0FD1021C8F82C
:101FF8008C040BF0B1FD664B88F890043B221A70F4
:1020080001225A703A221A719F229A711E221A725C
:10201800A4225A7200229A72DA721A7315F0D9FB46
:102028005C4C2688002E7AD12C2010F067F90F23FB
:1020380083710E230D210546C3710672C8F89404F6
:1020480010F0ECF9284610F082F9534A138823F06F
:1020580040031B041B0C1380138823F038031B0454
:102068001B0C138013889BB243F04003138032206B
:102078009F238DF838308DF839608DF83A608DF8E7
:102088003B6011F05BFD28468DF8696010F05AF945
:1020980004220EA91AA814F001FE284610F057F9D8
:1020A8009DF86A309DF869201B0243EA02429DF8B8
:1020B8006B301343394A934217D00CDC384A9342A9
:1020C80015D00132934217D0A2F51A42033A93422F
:1020D80020D120230CE0334A934208D001329342A6
:1020E8000AD0314A934215D101E0402300E0802311
:1020F80023804FF4807302E04FF480732380638061
:10210800A38822881B02A3605343E360012388F855
:10211800983404E0002323806380A360E360E468CC
:10212800002C47D0E40A264600270DF16808A7428C
:1021380008DA3D196D1010224146E80215F084F9BD
:102148000F2805DC15F042F9184BF6021E6031E045
:10215800002358F82320013240F088800133042BF3
:10216800F7D12E462C46E2E7002C0140342C0140E2
:102178009E4B0020F4150020D414002024150020C4
:1021880070150020F4140020281500208815002060
:102198002425002024040020003800401620C20016
:1021A80017BA20001740EF001720C2000C240020A7
:1021B8001C000240674C684AB4F8D8315269674D30
:1021C800013B9BB2052B9EBF012384F8EA3184F8BA
:1021D800DA3194F8EA315343614A13602B68614A53
:1021E80013F4002318BF012313706379052B02BF72
:1021F8005D4B4FF4C8721A800CF052FA5B4BC82240
:102208001A805B4A137843F008031370594A13780D
:1022180023F0020313702A6840F6020313406BB1DF
:10222800554B56491960564B03211970554B0121DE
:102238001970554900230B8054490B80930306D528
:10224800534B06221A71DA7842F00102DA70A36859
:102258002B60504B01221A704F4A137863F07F03AA
:1022680013702FB0BDEC068BBDE8F08F6F1C2546B0
:1022780078E71BB208EE103AB5F9CC31DFED477AB2
:10228800474A09EE103AB5F9D031B8EEC88A08EED7
:10229800903A28EE278AB8EEC99AF8EEE88A002123
:1022A800B0EE480A29EE279A68EEA78A117008F05E
:1022B800D6FBF0EE409AB0EE480A16F0C1FAB0EE3E
:1022C800408AB0EE490A08F0CAFBB0EE40AAB0EE68
:1022D800490A16F0B5FAF0EE40AAB0EE680A08F01E
:1022E800BEFBB0EE409AB0EE680A16F0A9FA69EEA5
:1022F800806A68EE097AF0EE665AEAEEA75A294B28
:1023080029EE896A28EE007AC3ED035AB0EE465AE0
:10231800F1EE6A5AA5EE875AEAEEA67AA5EE867A13
:102328002AEE099A2AEE400A28EE4A8A69EE8A9A23
:1023380083ED009A83ED010AC3ED02AA83ED045AE6
:1023480083ED058A83ED067AC3ED077AC3ED089A13
:10235800FEF7C3BF40440020E82500209C2300204E
:10236800701800201A200020381400206C3C00202F
:10237800DC140020DC230020A82000205646002082
:102388008C23002020040020DC400020DE400020B8
:10239800A04A0020700D0020154B002035FA8E3C15
:1023A800DC000020842000202DE9F04FBA4B1B6888
:1023B8009A6ABA4B2DED048B1A80B94B1978A3B0E1
:1023C8000129079304D1B74B1A80B74A12885A805B
:1023D800B64B1A789B46002A01F0AD8111F070FBCC
:1023E800B34B06909B6813B10BF102009847B14BB1
:1023F800B14CD3F8008018F0080F3BD0AF49B04D6E
:10240800888800F10E039BB21C2BAE4BB3F9043045
:102418002CD8AD4A1288520728D50A2293FBF2F22B
:102428002B88D21A92B213B213F1B30FB8BF02F5C8
:10243800B473A64AB8BF1BB2B32B1278C4BFA3F5B6
:10244800B4731BB2170715D594F9D421524212FB65
:1024580003F29F4B1B685B7A12B213FB02F26FF018
:102468001D0392FBF3F303448B8003E00A2293FBE2
:10247800F2F32B80974BB3F90650974B1B685A8998
:1024880095420CDB197AB5F5FA6FBFBFAB1A4B430F
:10249800C2F5FA6193FBF1F1C1F1640100E0642136
:1024A80094F9D431B4F8540294F826C294F82792D7
:1024B800824E5B429BB205930022884BD154854BD8
:1024C80033F912703B1A03F2F31440F2E63A54451A
:1024D8004FEA420E794C10D883EAE37A022AAAEB33
:1024E800E37A0ED0E24502DDCCEB0A0300E00023DC
:1024F800874226F80E3011DB15E0022A4FF4FA7AEB
:10250800F2D1CA45C8BFC9EB0A03BDF814A0D8BFA9
:10251800002313FB0AF38742B38007DA36F80E303C
:102528005B4226F80E300132032AC6D16C4B1E6876
:1025380016F480560ED0B5F57A7F06DBB5F5FA6F3E
:102548002A46A8BF4FF4FA6201E04FF47A72A2F566
:102558007A7214E0584BB3F856128D4206DBB5F583
:10256800FA6F2A46A8BF4FF4FA6200E00A46521AE8
:102578004FF47A735A43C1F5FA61B2FBF1F264235E
:10258800DFF874E192FBF3F101F1010C3EF91170EF
:102598003EF91CE06FF0630CC7EB0E0E0CFB01213B
:1025A80001FB0EF292FBF3F2D3199BB2E380B6B1B2
:1025B8004C4A1268D60012D54B4AD2787AB9A3F59C
:1025C8007A731BB24FF47A721B0393FBF2F3C0F5D4
:1025D800FA6212B2534300EB2330384BD8803A4B9F
:1025E800B3F800A01AF0400F994639D0354BDFED0B
:1025F8003F7AB3F904300A2293FBF2F33C4A12887B
:102608009B1A1BB208EE103AB8EEC88A28EE278A41
:10261800B0EE480A08F023FAF0EE408AB0EE480A15
:1026280016F00EF9B4F9023007EE103AB4F900309A
:10263800B8EEC77A06EE903A67EE407AF8EEE66AA8
:10264800E8EEA67A20EE260AFDEEE77AA8EE870ADB
:1026580017EE903AFDEEC07A238017EE903A638029
:1026680018F0140F114F144E00F0AA801AF4027FCC
:1026780000F0A680154B1B7803F0100303F0FF024F
:10268800002B3BD01B4B96F9A422B3F900106388AA
:1026980001FB0233638093E0442100209023002053
:1026A800CE200020D02000202C200020B80A0020B6
:1026B800E825002070250020404400204C18002008
:1026C8003E14002058180020D4230020DC140020D9
:1026D8001024002000250020783B00206C180020E2
:1026E8009C230020D8230020A823002035FA8E3C04
:1026F80040140020C03C002002200020964B97493F
:102708001B68DFF8A8E2D8789B7870B3BEF90000A0
:10271800C0EB050C8CEAEC7EAEEBEC7E9E450DDD45
:10272800DFF88CE28542CEF800204FF001023A71C2
:10273800C8BF5B42E2889BB2134440E03B7933B1A7
:10274800874B3A71D3F800E0864BC3F800E0864B1C
:102758001B681844854B1A681388528898422EDBE8
:1027680082421346A8BF034629E0BEF900E0CEEB3B
:10277800050282EAE27CACEBE27C9C4509DD02239F
:1027880092FBF3F27A4B1A607A4A012313703B7179
:1027980008E03B7933B1724B38711A68714B1A6093
:1027A800744B1870704B1B689E44704B1A681388E2
:1027B80052889E4503DB72451346A8BF7346CB80FB
:1027C8006D4B1B78ABB1B6F85632AB4211DB6B4B95
:1027D8005B79012B01D0192B02D196F89F2242B9BF
:1027E8000E2B06D0082B04D00023A380644B0022B4
:1027F8009A6096F8145295B31AF0030F2FD0614BD4
:10280800DFED617A93ED080AB4EEE70AF1EE10FA0B
:1028180021D917F015FC5D4BD3ED007A20EE270A7D
:1028280017F07CFBB0F5617FA8BF4FF4617007EE2D
:10283800900AB8EEE77ADFED567A87EE270A15F0A8
:10284800FFFF07EE905AF8EEE77A27EE800A17F0B6
:1028580065FB00B200E00020E3881844E08096F8A9
:102868005A324C4A23B9B9F80010002900F0A48064
:102878001278002A4FD0022B09D0032B19D196F8D1
:102888005B32C3EB431203EB8203DB000FE0424BE6
:10289800D3F8F820B2F57A7F05DB44F6206393423B
:1028A800A8BF134601E04FF47A7303F57A739BB21D
:1028B80000E0FB88394A1068394AB3FBF0F0127817
:1028C800451C2DB2092A3D8105D1364A218811803F
:1028D80061885180D380B7F90A90DFF880A000237F
:1028E800314F3AF913C007F1140E07F10C083EF8FE
:1028F800132038F913102EF813C0C2EB0C0201FB99
:1029080009F191FBF5F10A4428F813200133042B4F
:10291800E6D1788102E07B89013B7B81224AB2F9CA
:102928000A0000284FF0000314DD0C4FB2F90850DC
:102938000C32DFF880E032F913103EF813E041431F
:1029480091FBF5F1C1EB0E0127F813100133042BAD
:10295800EFD136E0538134E0381600204C180020BF
:102968009C150020B03C0020C03C00203C160020F4
:10297800B43C0020C43C00209C00002040440020BF
:10298800401800201C3F00208FC2753C2C160020E8
:10299800EFB6B044A8140020E00000207018002012
:1029A800CE200020D0200020B80A0020AA14002041
:1029B800BC3C0020CC0A002013787981002B00F061
:1029C8009D80C34B93F85C3223B1C24A12689100D0
:1029D80001F1F884C04BC1481968079BC04D1F78A6
:1029E800C04BDFF858C31B689FEDBF5A93F800E04F
:1029F800DFEDBE4A9FEDBE4ADFEDBE3A9FEDBE3A1F
:102A0800DFF83C83F7EE005A0C1D0022F0EE652A31
:102A1800022A14BF91F800A091F801A03CF91230E5
:102A280007EE10AAB8EEC77A06EE903AC7EE057A16
:102A380014BF8B784B7A4FEA4209B0EE007AF4EE75
:102A4800C77AF1EE10FAF8EEE66AC4BF37EEC77A35
:102A5800E7EE247A86EE847AB5EEC07AF1EE10FAC3
:102A6800D4BFF1EE476AF0EE476AE5EC016A8BB134
:102A780006EE103AB8EEC66A86EE052A26EEA66A73
:102A880066EE866A35EEC26A66EE876A26EE077AD1
:102A9800A2EE267A14F8013F67EEA37A67EE877AEA
:102AA800002B41F0E3840C2F02BFBDEEE77A17EE4E
:102AB800103A29F80830BEF1000F41F0FF849FED6D
:102AC8008F7A67EE877A9FED8E7AF4EEC77AF1EE09
:102AD80010FA01F105859FED8B7AF4EE477AF1EE55
:102AE80010FAC8BFF0EE477A0132032AC0ED007A27
:102AF80000F104008CD1844B00221A70834B1B68B0
:102B08009F0640F19B80824B1B8803F03003002B0B
:102B180000F094807F4B1B78DD0740F18F807E4B5F
:102B2800DFED7E7AB3F90430DFF81892DFF8188207
:102B38000A2293FBF2F308EE103AB8EEC88AF2EED6
:102B4800048A28EE278AB0EE480A15F079FEB0EE1E
:102B5800409AB0EE480A07F082FF714B1B6893F861
:102B680003A0B0EE408ABAF1000F43D06D4FB9F917
:102B78000200B7F90240001B11F024FCCAF100055D
:102B8800A84203DB5045A8BF504600E02846204431
:102B980003B2B7F90040B9F900000593BDF8143045
:102BA8007B80001B11F00EFC854203DC82455546F4
:102BB800A8BF0546DDED057A25442DB2B8EEE77AC3
:102BC80007EE905AF8EEE77A3D8027EEC96A68EE7C
:102BD800277AA8EE076AE9EE077AC6EE286A87EE32
:102BE800A87AFDEEE66AFDEEC77A16EE903AA8F8E6
:102BF80000301FE0B9F9023007EE103AB9F9003099
:102C080000EE103AB8EEC00AB8EEC77A60EE496A2C
:102C1800E8EE076A28EE008AC6EEA87AA9EE078AC7
:102C2800FDEEE77A17EE903AC8EE287AA8F8003059
:102C3800FDEEE77A17EE903AA8F802303A4B18788A
:102C4800002840F06B85394F3B681C0340F16685CE
:102C5800374C2378033B052B1CD81D4B354D93F877
:102C6800C93533B1012B08D114F0C8FAC0F17F007F
:102C780003E0686A03689B689847AB6A95F82C205C
:102C88001344B3F5807FA8BF4FF480738342D4BF49
:102C9800AB62A8622378023B092B00F2A784DFE825
:102CA80013F00A0055008600A600BB00D300E5001B
:102CB8005604780488040023CBF82830CBF8303049
:102CC8001D4B1B68CBF83430032300F08EBC00BFCB
:102CD80040440020D8230020783B002040180020E2
:102CE800941F0020102400200000C842D7A3684188
:102CF8000000FA43000048430AD7233C333383409B
:102D080000F0FFC500F0FF45A81400207025002042
:102D1800D4230020DC1400205818002035FA8E3CFB
:102D2800F81500204E140020FC4A00209C230020A7
:102D38001A200020B80A0020882300204C18002000
:102D4800D02000205214002054180020994B9A4D8E
:102D58001A686B6B6433934280F04884402015F006
:102D680031FA002840F04284DFF850924FF04008D2
:102D78002E462B6B19F8030058B115F0FDFAB36A0B
:102D8800013BB362336BB8F1010803F1010333630C
:102D9800EFD12A6B8949884B8A5C002A40F0268447
:102DA8001A634FF0FF325A63042300F01EBC844AB2
:102DB8000292A2F10C0301932A2300935021A2F15D
:102DC8000A034920163A09F099F9002840F00E84C0
:102DD8003B6813F08002784B4FF0FF3119BF18633E
:102DE80059631A63596314BF05230723FDE30223BC
:102DF8000093744B002102910191A3F1080248202D
:102E080009F07CF9002840F0F1836B4B4FF0FF325A
:102E180018635A630623E8E36B4A0292A2F10C0393
:102E2800072501930095A2F108030021143A4720D1
:102E380009F064F9002840F0D9835F4B25704FF002
:102E4800FF3218635A63D1E3052300935F4B0021D7
:102E580002910191A3F10802532009F04FF90028CB
:102E680040F0C483544B18630823BEE3402015F098
:102E7800A9F9002840F0BA834F4D2B6B492B01F27A
:102E88003383DFE813F04A004D0052005600590022
:102E9800600065006A006E0072007E0089008C0088
:102EA800D300D700DC00E100F000FF000E011D0197
:102EB8002C013B014A0159016C0176018301900103
:102EC8009D01AA01B701C401D101DE01E801F501A4
:102ED800FF01090213021D02270231023B024502CB
:102EE8004F0259026302B702C102CB02D502DF02C8
:102EF800E902EE02F302F802FD02020309031203DB
:102F08001F03240329032E03330338033D0342031D
:102F180047034C03510356035B032D492D4810E327
:102F28002D4B2E4A2E492F4833E02F4A2F4930483F
:102F3800B8E23049304804E3304B314893F8C825AB
:102F480093F8C715AEE22D4B2E48B3F8CC10F8E233
:102F58002A4B2D48B3F8CE10F3E22C4B2C481969B4
:102F6800EFE22C4B2C481989EBE2AB6BD90404D562
:102F7800224B2A4893F81612E3E20F4B0B221A63EE
:102F8800E1E21E49264891F8193291F81B2291F87E
:102F98001A1215F0CBFAD6E2A98F2248D1E23B6883
:102FA8001A0540F1D082154B1F48B3F91E22B3F819
:102FB800201277E288230020B80A0020E4C4010820
:102FC8005AC5010844C7010860C70108A8C7010815
:102FD800F8ED010804EE010815EE010820EE0108DD
:102FE80028EE01082EEE010856EE01085FEE0108F2
:102FF8006BEE0108164A00207FEE010840440020CD
:103008008DEE01089EEE0108ADEE0108E8250020CE
:10301800BCEE010860250020CCEE0108D6EE0108C0
:10302800E3EE0108FCEE010807EF0108CC4BCD48A0
:10303800596986E2CC4BCD4893F8DA1181E2CA4B44
:10304800CB4893F8EA117CE296F81C25C948682316
:103058005343F2180C2192F8242401FB02331E4436
:1030680096F826146DE296F81C25C3486823534346
:10307800F2180C2192F8242401FB02331E4496F81E
:1030880028145EE296F81C25BC4868235343F218BE
:103098000C2192F8242401FB02331E4496F82714CD
:1030A8004FE296F81C25B64868235343F2180C21C2
:1030B80092F8242401FB02331E4496F82F1440E2B0
:1030C80096F81C25AF4868235343F2180C2192F850
:1030D800242401FB02331E4496F8291431E296F8A1
:1030E8001C25A94868235343F2180C2192F824247C
:1030F80001FB02331E4496F82A1422E296F81C2596
:10310800A24868235343F2180C2192F8242401FBA7
:1031180002331E4496F82E1413E296F81C259C4898
:1031280068235343F2180C2192F8242401FB02333C
:103138001E44B6F8301404E296F81C259548682316
:103148005343F2180C2192F8242401FB02331E4445
:1031580096F82D3496F82C2496F82B1419E7824B00
:103168008D4893F81C25682101FB023393F8E4137A
:10317800E7E196F81C358948682202FB036696F851
:10318800F93396F8EF2396F8E51302E796F81C351D
:103198008348682202FB036696F8FA3396F8F02310
:1031A80096F8E613F5E696F81C357E48682202FB89
:1031B800036696F8FB3396F8F12396F8E713E8E6EA
:1031C80096F81C357848682202FB036696F8FC33AB
:1031D80096F8F22396F8E813DBE696F81C35734860
:1031E800682202FB036696F8FD3396F8F32396F8F7
:1031F800E913CEE696F81C356D48682202FB036693
:1032080096F8FE3396F8F42396F8EA13C1E696F892
:103218001C356848682202FB036696F8FF3396F867
:10322800F52396F8EB13B4E696F81C356248682245
:1032380002FB036696F8003496F8F62396F8EC132A
:10324800A7E6494B5D4893F81C25682101FB02332A
:1032580093F8ED1375E196F81C355948682202FB7E
:10326800036696F8023496F8F82396F8EE1390E67B
:103278003D4B544893F81C25682101FB023393F811
:1032880003145EE1384B504893F81C25682101FB74
:103298000233B3F8041454E1334B4C4893F81C251B
:1032A800682101FB0233B3F806144AE12E4B484863
:1032B80093F81C25682101FB0233B3F8081440E198
:1032C800294B444893F81C25682101FB0233B3F8C5
:1032D8000A1436E1244B404893F81C25682101FB69
:1032E800023393F80C142CE11F4B3C4893F81C252F
:1032F800682101FB0233B3F80E1422E11A4B384857
:1033080093F81C25682101FB0233B3F8101418E167
:10331800154B344893F81C25682101FB0233B3F898
:1033280012140EE1104B304893F81C25682101FB5C
:10333800023393F8161404E10B4B2C4893F81C2520
:10334800682101FB023393F81714FAE0064B28486A
:1033580093F81C25682101FB023393F81814F0E058
:10336800E82500201AEF01084044002026EF010854
:1033780039EF01084EEF010858EF010862EF010824
:103388006FEF01087CEF010886EF010891EF010853
:103398009EEF0108B0EF0108BFEF0108D0EF010868
:1033A800E1EF0108F3EF010803F0010813F0010849
:1033B80023F0010834F0010845F0010857F001082E
:1033C80047F0010861F0010876F0010886F001086D
:1033D80094F00108A6F00108BCF00108CBF0010840
:1033E800E7F00108FDF001080CF1010823F10108DC
:1033F8003CF10108A34BA44893F81C25682101FB64
:10340800023393F819149CE09E4BA04893F81C25AE
:10341800682101FB023393F81A1492E0994B9C48F7
:1034280093F81C25682101FB023393F81B1488E0EC
:10343800944B984893F81C25682101FB0233B3F894
:103448001C147EE08F4B944893F81C25682101FBDF
:103458000233B3F81E1474E08A4B904893F826128E
:103468006FE0884B8E4893F827126AE0854B8D48A9
:10347800B3F8D81165E0834B8B4893F8DB1160E013
:10348800804B8A4893F8DC115BE07E4B8848B3F8A0
:10349800E221B3F8DE1105E07A4B8648B3F8E4215F
:1034A800B3F8E01115F042F84DE0764B9FED827AC3
:1034B800D3ED7E7A814867EE877AFDEEE77A17EEDC
:1034C800901A3EE06F4B7E4893F8D51139E06D4B6A
:1034D8007C4893F8EE1134E06A4B7B4893F8ED1181
:1034E8002FE0684B794893F899122AE0654B7848A1
:1034F80093F85A1225E0634B764893F85B1220E064
:10350800604B7548B3F85E121BE05E4B734893F846
:103518004C1216E05B4B724893F8E31011E0594BDC
:10352800704893F8E2100CE0564B6F48B3F8DE1081
:1035380007E0544B6D4893F8EB1102E0514B6C488F
:10354800996814F0F3FF2B6B01332B634EE0694B42
:103558001B689B011AD5684DB5F84030B3B9674B65
:10356800D5F844801E68452014F006FF0E2014F09C
:1035780003FF404614F0BAFF304614F0B7FF4FF48B
:103588008053EB870A23237008F08AFA08F094FD29
:103598002CE0594B93F84820002AF5D0554A126878
:1035A8009601F1D493F84930002BEDD1092323700B
:1035B800ECE7534B504D1A686B6BC833934204D2F7
:1035C800304B93F8C9657EB904E014F041FE002839
:1035D800F6D10BE0686A0AF040FA95F84A306E6254
:1035E800022B01D10DF006FD0123237014F01AFE01
:1035F80058B101232370404B93F84920002A00F06A
:103608008D80002283F8492088E01E4B93F8CA2554
:103618001946002A00F082803B68DD044FF000065E
:103628004CBFB1F8DA20B1F8D020364D334635F921
:1036380013000133904218BF46F001060C2BF6D157
:103648002F4B2D4D1B6826B103F59C530833EB64B3
:1036580002E0EA6C9A4257D92378012B5ED195F89B
:103668004930002B5AD191F8C9352BB113F0B0FB72
:10367800012385F8493051E080200DF0B3FC002883
:103688004CD1F3E74044002050F1010865F10108EE
:103698007BF1010892F10108A7F10108BDF10108C9
:1036A800B9F10108C9F10108D5F10108E7F10108EC
:1036B800FAF101080EF201080000C84226F20108DA
:1036C80034F2010844F2010855F2010865F20108D4
:1036D8007EF2010892F20108AFF20108CCF201086B
:1036E800E1F20108F6F201080BF301081DF30108E5
:1036F8002BF30108D8230020B80A0020643C0020DE
:1037080088230020B04A00202378012B06D095F8A2
:1037180049301BB108F0A2FD85F84960B84B1B7809
:10372800072B05D110F0CCF9069BC01AB54B588071
:10373800B54B00221A70B54C13A863689847A14688
:10374800002800F04981B24DBDF94C302B60BDF91D
:103758004E306B60BDF95030AB60AE4BDFF8F48291
:103768001A78294628460AF0AFFFAB4B1A889A46C2
:10377800002A00F0A580A94BDFEDA98A1B681B78F9
:10378800002608EE103AA8F14807A8F13C04304694
:103798004FF47A71D9F81430B1FBF3F3C3EB43114A
:1037A80003EB8103BAF800E0DB009BB29E4508BF3B
:1037B80038603B6808BF20611A4655F826301A441D
:1037C80055F826303A6007EE903A23690133012B09
:1037D8004FEA8601F8EEE77A236106D1C4ED017A53
:1037E800C4ED007AC4ED028A1BE0D4ED005A07EE5E
:1037F800103A37EEE56AF8EEC76A86EE267AD4ED17
:10380800026A37EE257A77EEC77A84ED017AE6EE1A
:10381800276A84ED007AF0EE667AC4ED036AC4ED97
:10382800026ABEF1010F685048F8010035D12369DA
:103838000690012BC3BF03F1FF3307EE903A94EDD6
:10384800037A9FED770A0591C4BFF8EEE77A87EE11
:10385800270A16F067FE0599069818EE103A4BB13C
:10386800F8EEC87AF4EEC07AF1EE10FA02D50AF052
:1038780017FF25E04FF47A72D9F81430B2FBF3F34E
:10388800C3EB431203EB8203DB003A689BB202EB03
:10389800530292FBF3F248F801200136032E07F198
:1038A800040704F114047FF473AFBAF80000012888
:1038B80001D10AF067FABAF80030013BAAF80030E3
:1038C800002355F8231058F82300514A091A45F8DF
:1038D80023100133032BF4D1524F534B397800296D
:1038E80068D0DFF81C81DFF81C911C46151F0026E4
:1038F800C24698F80030032B04BF6B6829F81630CD
:103908004A4B1B78012B0AD1D5ED017A484B1C2074
:10391800B8EEE70A00FB063015F046F81AE073B96E
:10392800444BD5ED017AD3ED000A434B39780C208E
:10393800B8EEE70A00FB063015F0F0F80AE0D5ED1E
:10394800017A3E4B4FF4F870B8EEE70A00FB0630F8
:1039580014F0D6FF84ED000A9AF80030082B05D140
:1039680094ED000A16F0DAFA29F81600344B1B8891
:103978004BB1344B94ED000A1C2000FB063015F0C7
:1039880013F884ED000A304B1B884BB12F4B94ED94
:10399800000A1C2000FB063015F006F884ED000A2A
:1039A800B4EC010A16F0BAFA0136032E45F8040FF2
:1039B8009FD111E0D2ED007AF8EEE77AC3ED007AF4
:1039C800D2ED017AF8EEE77AC3ED017AD2ED027A08
:1039D800F8EEE77AC3ED027A0B4A92F8C83023B1C1
:1039E800013B82F8C83000F08ABD194B93F8DC21FE
:1039F8001D468AB393F8EA31013BDBB22DE000BFE4
:103A0800CE200020D0200020B80A0020E825002081
:103A180060180020F42C002076200020F0150020EB
:103A280000000000002600207C1F00200426002043
:103A3800082600205C2600205C0B00206026002061
:103A480002260020382C0020302C0020902C00204A
:103A580040440020500B002001238BF8C83010F0A0
:103A68002FF8B74BB74C1F68B74BB5F83612A3F110
:103A7800520206462068B847B44B1A78072A1D46F2
:103A880004D110F01DF8B24B801B988010F018F884
:103A980095F800A00590BAF1010F0AD1AD49DBF8FD
:103AA800CC30AB4A0968CBF8CC00C31A93805B1AB8
:103AB800D380A94B22681B68EBB192F83320CAB1B6
:103AC800A64A1268940718D5A54A1178012914D96D
:103AD800DB78A44859430088CB1A98420AB203DB22
:103AE80088420346A8BF0B461BB2120392FBF3F2AF
:103AF800012305E013461A4602E001234FF48052E1
:103B08009949C9780D912BB1BDF954105143091346
:103B1800ADF854109549964E91F800809549DFF814
:103B28003092B1F902000890B1F90000099092486A
:103B3800B1F90410D0F800C006910025294628469E
:103B480040453DD29CF90040069FD6ED016A96EDAE
:103B5800026A64427C4307EE904AB8EEE77ADDEDEC
:103B6800097AF8EEE77A0DF1540E67EEA67ADDEDE4
:103B7800086AF8EEE66AE6EE867AD6ED036AE7EEBC
:103B8800267AFDEEE77ACDED077ABDF91C400BB138
:103B9800544324132EF8104015AC34F910408C42CD
:103BA80003DCA542A8BF254600E02146BAF1050F6F
:103BB80003D1042898BF29F8104001301036BFE718
:103BC800664B6E4C1868491B10F4805209B240D0FD
:103BD8006B4B6C4D1B78DFF8B4E16B4F13F0040F9F
:103BE80001BF2B681E8A694BA3F89061B4F906607F
:103BF800674C2B6824681B8AE588C5EB030C66456F
:103C080008DCB4F900303C68AEF89061B4F90040C3
:103C180035440AE02B449E4209DB3B68B4F9024074
:103C2800B3F90230AEF89061751B2DB219E0BEF9F8
:103C380090319C45ABBFB4F900303B683C68B4F99F
:103C48000240ABBFB4F90040B3F902301D46254627
:103C580007E04D4BB4F906501B68B3F90040B3F9BF
:103C680002304A4E9BB2A4B2C4EB030A0FFA8AFA96
:103C780051451ADD4FEA0A33002793FBF1F1C6F8E4
:103C88009411B8450AD915AB33F917E001FB0EFEBC
:103C98004FEA2E3E23F817E00137F2E702239AFB9A
:103CA800F3F31C4424B20A9407E0022791FBF7F1CE
:103CB8005B1A0C441BB224B20A93B6F99031324E07
:103CC8000C9337682E4E2F4B36783149DFF8C4E015
:103CD8001B680968DFF8C09006F00406F6B207967C
:103CE80000F01000BEF906600B964FF0000B0E9026
:103CF800D84540F2898015A807EE905A30F81BC0C5
:103D08001B4800EB0B1090ED007AF8EEE77AA64618
:103D180067EE877AFDEEE77A17EE900AA04204DB99
:103D28000A9E8642A8BF0646B6460CEB0E000D9EBC
:103D380000B229F8020F8EB3B7F804E042E000BFE2
:103D4800A00000201024002084460020CE2000205F
:103D5800D020002070180020A82000209C230020DC
:103D680020040020F8200020A82300206F1800203D
:103D7800880B0020D41E0020081600204C180020B4
:103D8800DC2300200C160020903E0020B80A0020FA
:103D98008C3E002000250020563D002082B1B3F85B
:103DA80010E0B1F806C00C9ECCEB0E0E764504DC94
:103DB800B7F800E0B1F800C006E0B1F802E001E0B1
:103DC800B7F800E0B7F802C0704503DB8445E64663
:103DD800A8BF86460E98A9F800E090B1079880B170
:103DE8007AB9119210910F9309F0A6FF0F9B1099C1
:103DF800119A30B9588A0B9E8642BCBFB888A9F878
:103E080000000BF1010B73E73C894CB3A0494FF458
:103E18007A700968B0FBF1F1B4FBF1F1012905D919
:103E280042F210708142A8BF014600E0022109B2A7
:103E38008A4515DD974D98483C8835F918E000EB20
:103E48004807A645B7F9987103DB7C187445A8BFE5
:103E5800744624B200EB480025F81840A0F89841B1
:103E6800079919B90E468D488A4906E08A4991F89A
:103E7800B001192800F2478107E0B045F6D930F8BB
:103E8800164021F816400136F7E7012101FA00F043
:103E980083490140002900F0368182490988C80514
:103EA80008D5814B1A88ADF86C205A88ADF86E2079
:103EB8009B8812E0BDF82410ADF86C10BDF82010F6
:103EC800ADF86E10BDF81810ADF870103AB11B8A35
:103ED8000B9A9A4203DA069B5B42ADF8703073483E
:103EE800B0F902304FF47A7203F5E1634FF461617F
:103EF800534393FBF1F3A3F5FA73ADF88430B0F9AB
:103F0800003003F5E1635A43624B92FBF1F21B88E0
:103F1800A3F2DC53ADF87230654BA2F5FA72ADF836
:103F280086201B68634A1B8A1188C91AADF8741069
:103F38005188C91AADF876109188C91AADF8781069
:103F4800D188C91AADF87A101189C91AADF87C1050
:103F58005189C91AADF87E109189D289C91AD31A24
:103F6800ADF88230544AADF880100023194622F883
:103F780013100133082BFAD1504A514B126806929C
:103F8800504A1B78126850490792072202FB031314
:103F98004E4DDFF824A10A934FF064084FF0010951
:103FA8000A9B8B4200F094800B782BB11533069A4C
:103FB80009FA03F3134067D011F806EC079B11F9CF
:103FC800010C11F805CCCEEBCE0703EB47074FEAFF
:103FD8004C06B7F90230B7F9002009909A1A92B244
:103FE80011F9023C11F8030C4FEA520B534393FBAF
:103FF800F8F3CBEB03031BB2089328B922A80644B5
:1040080036F81C0C288019E022AB1E44B5F9004094
:1040180036F91C6CB44208DA2044844203DC864238
:104028003446A8BF04462C8008E007DD201AB042B9
:1040380003DB8442A8BF044626462E80D7F80A0030
:1040480011F9046C089B09FA0CFC10EA0C0FB5F97D
:1040580000000CBF01244FF0FF3416FB00F090FB6A
:10406800F8F0984209DB099B534393FBF8F3CBEB39
:1040780003031BB28342A8BF03463AF81EB004FBF1
:1040880003B32AF81E3000E02B800235073187E79A
:1040980070180020583D0020B80A0020B04A0020BF
:1040A80032413003D42300204C1800205818002037
:1040B8000C16002000250020900D0020D823002099
:1040C800943E00200C3F00209B3E00206A0C0020FC
:1040D800AD4BAE4ED3F8008000254FF00E09642793
:1040E80009FB0583E8B293F9064036F9023F14FB51
:1040F80003F494FBF7F434800FF036FB01352044C9
:10410800082D3080ECD1A24C9F4D236813F0200F6E
:1041180033D000200FF028FB9E4E07463080012048
:104128000FF022FB9C4B70801B68190625D59B4B12
:104138009B4A1B681B78012B24D1D5F80080B2F963
:10414800021098F90630B2F900205B424B434FF059
:10415800320C93FBFCF31FFA83FE98F914306FF0CE
:10416800310113FB02F393FBF1F17144791A93FBCC
:10417800FCF373443180184470802B68834A03F140
:1041880070061AE0D5F800E0B2F902309EF9061080
:1041980011FB03F1322391FBF3F1394431809EF98D
:1041A8001470B2F9001017FB01F292FBF3F21044FD
:1041B800E2E70E339E4211800CD032F9020FB3F9B8
:1041C8000010B3F902708842F3DB87423946A8BF72
:1041D8000146EEE7734B744E1A6892F904209A462A
:1041E800A2B996F8B0717B1E182B00F29980DFE80F
:1041F80003F0549797709797976997979797977B36
:104208009797979797708997977B5400DFF884B1B1
:104218000023A6F8D231B046D946B6F9D271072F95
:10422800DFDC98F8D421614B92B9DAF800200693C4
:10423800528800EE102A5E4A1C20116800FB0730E5
:10424800B8EE400A14F03AFC0122069B88F8D42103
:104258003BF9172000EE102A1C2000FB0730B8EEAF
:10426800C00A14F0A1FB15F059FE2A6800B2C7EB8A
:10427800C7032BF8170002EB4303B3F90020B3F987
:104288000230904203DB8342A8BF03461A4629F84E
:1042980017200137A6F8D271BFE7DAF800305B784B
:1042A8001BB13C4B0020598908E0424B1B7803F0B6
:1042B800040303F0FF01002BF3D108460DF0F0FFD3
:1042C80001252EE0334D0020E9880DF0E9FF29890A
:1042D80005E0304D002029890DF0E2FF69890120B1
:1042E8000DF0DEFF02251CE0DFF8A8800225A81EDD
:1042F80038F81510C0B201350DF0D2FF082DF6D1EF
:1043080006250EE0DFF88C800325E81E38F8151026
:10431800C0B201350DF0C4FF072DF6D1042500E029
:10432800002523689A0601D4052F0BD1194F28467A
:1043380039880DF0B5FF681C7988C0B20DF0B0FF60
:104348000235EDB22368DB0205D496F8B83273B1B2
:104358000FF062F90BE0184F0024281937F8021FF4
:10436800C0B20DF09DFF0D2CEFD00134F5E7134BD3
:104378001B78072B05D10FF0A3FB059BC01A104B28
:10438800D88001233370BAE00C3F00208E0D002046
:104398009C230020900D0020D82300200416002024
:1043A8005818002008160020B80A0020900C002099
:1043B80070180020DC23002006250020CE200020D5
:1043C800D0200020504A128852063EF503AB4F4FCA
:1043D8004F4D3A7F9A4214D007EE903A9FED4D8A9E
:1043E8003B77F8EEE77A27EE888AB0EE480A06F0BF
:1043F80036FB85ED000AB0EE480A14F021FA87ED85
:10440800080AB4F90030DBED085A95ED006A424A13
:1044180007EE903AB4F9043006EE903AF8EEE66A00
:10442800F8EEE77A25EEE67AA7EE867A67EEA57AC1
:10443800BDEEC77AE6EE267A17EE103AB3F5FA7FA4
:10444800A8BF4FF4FA739342FDEEE77AB8BF13465C
:10445800238017EE903AB3F5FA7FA8BF4FF4FA73AA
:104468009342B8BF1346A380FEF7B4BA06EE903A5B
:10447800F8EEE66AB5EEC07A86EE856AF1EE10FAD5
:10448800D8BFB1EE477AF0EE656AE6EE476AF4EE19
:10449800C36AF1EE10FAB0EE667A07D4F4EE656AF4
:1044A800F1EE10FAC8BFB0EE657A01E09FED1B7A15
:1044B800C2EE876A67EEA67AFEF7F5BA9FED187A1C
:1044C800F4EEC77AF1EE10FA0AD49FED167AF4EEFC
:1044D800C77AF1EE10FAC8BFF0EE477AFEF704BBD0
:1044E800F0EE477AFEF700BB13F0B2FE00283FF467
:1044F8007DA84FF48053EB870A23FFF776B823B0E3
:10450800BDEC048BBDE8F08FD4230020B80A00204E
:104518000000002035FA8E3C0CFEFFFF0AD7233C32
:1045280000C0F9C400C0F9442DE9F04F914BADB07B
:104538001D780093002D00F0A7808F4B1868002885
:1045480002F097800EF052F9DFF85C92DFF85C8297
:10455800D9F800000DF036FE002802F08A80D9F85C
:104568000000864C0DF02BFE092801D03F2855D1BC
:104578004FF0000A2668574655460AEB080B36B135
:1045880032465AF808107E4817F046FE20B90DB199
:104598005F4601E05D465F460AF1100ABAF5147FEE
:1045A800EBD1F5B1D5F800A0D7F800B0DFF8D0C14D
:1045B80023681AF803001BF80310814211D15A1C12
:1045C800DFF8BCE149B92D2B07D86C4802602020E0
:1045D8000EF803000EF8021003E00CF80300226046
:1045E800E6E723680BB1BD420FD0664813F008FC1C
:1045F800BD4207D855F8100B13F002FC092013F040
:1046080061FAF5E70CF042FA00265D4D23689E42F8
:104618009ED2A85D13F056FA0136F7E723686BB906
:10462800042804D1564813F0C9FC02F022B80C281B
:1046380042F01B80544813F0E3FB22E00C28F9D029
:104648000A2841F0C6874E4E504813F0D9FB232163
:10465800304617F0D2FD354608B1801B206023682C
:104668000022002B41F0B987002A41F0D18730227F
:104678000021434817F08CFD009B1B78002B01F0AC
:10468800F8870CF003FA63E7414B03F13007414B1D
:10469800EA18EB58002B01F019813F493F4C0B6099
:1046A8000593002322608DF819303D4A3D48049255
:1046B80014238DF8183004AB0360264689469246C9
:1046C800D9F80000DFF8D0800DF07CFD002801F05B
:1046D800E980D8F800000DF072FD336893F84810AF
:1046E800834619B9242863D101221DE0012903D189
:1046F8004D2808BF022204E0022907D13C2808BF40
:10470800032218BF002283F8482085E003290ED130
:1047180040284FF0000102D983F84810D0E75871BB
:104728001971D9719871042283F84820C8E70429BF
:1047380007D1997983F8490080EA01029A71052224
:10474800F2E7052968D1587919798842987908D902
:104758008BEA00009871481C18710B4483F808B064
:10476800AEE7584503D1062283F848205AE00022D4
:10477800DAE700BFFC4A0020AC4A0020F84A0020D3
:10478800C84A00204CF4010851F401082E0C020814
:10479800C8C701085824002004240020FC23002056
:1047A800D921010800240020984A0020FCEA0108C9
:1047B800DC490B7803F0040303F0FF0E002B7FF4B1
:1047C8007FAF23281DD1009AD8F80000019101235A
:1047D8001370D54B1860D54B1860D54B5860102016
:1047E8001872D448C3F800A0036083F809E0D248DF
:1047F80013F006FB0CF04AF901990B7843F0020319
:104808000B70CE4B1B681B785B4505D1CC4BCD4A52
:104818001A60CD4BCD4ADA60336893F84820062AEF
:104828007FF44EAF93F84980B8F15A0F00F0B28781
:1048380000F2FC80B8F1360F00F0B68674D8B8F1F3
:10484800240F00F0E8852DD8B8F1040F00F0788225
:1048580015D8B8F1020F00F0588200F26582B8F15D
:10486800010F40F0FF8703200AF0EEFF00200AF056
:10487800A6FF40460AF0A3FF152000F0F0BFB8F1EC
:104888000A0F00F09A82B8F1220F00F03A84B8F1CA
:10489800050F40F0E7871A200AF0D6FF0026DFF858
:1048A800C4825DE2B8F12C0F00F0E3851BD8B8F1A3
:1048B800280F00F0C585B8F12A0F00F0D485B8F1AB
:1048C800260F40F0CF87A24E06200AF0BDFFB6F8AB
:1048D800C8010AF0BCFFB6F8CC010AF0B8FFB6F878
:1048E800D00100F0ABBFB8F1300F00F089860BD8CB
:1048F800B8F12E0F40F0B687954E40200AF0A4FF7D
:1049080006F1400800F06CBEB8F1320F00F01A86CC
:10491800B8F1340F40F0A6878D4E5A200AF094FF64
:1049280006F15A0800F00EBCB8F1460F00F0C88630
:104938002AD8B8F13D0F00F07B8311D8B8F13A0FAF
:1049480000F04B83B8F13B0F00F0D483B8F1380F77
:1049580040F0888704200AF077FF7D4E00F061BDA3
:10496800B8F1420F00F0FF85B8F1450F00F0DC8682
:10497800B8F1400F40F0768708200AF065FF00265E
:10498800DFF8CC8100F0E5BDB8F14D0F00F0B78538
:104998002BD8B8F1490F00F05783B8F14B0F00F04E
:1049A8009385B8F1470F40F05D870AF0FFFE064691
:1049B80084200AF049FF30460AF052FF654BDA6856
:1049C80006F1800393428CBFC6EB02094FF08009C1
:1049D8000DF1300812F0FAFC4A463046414612F012
:1049E80033FD0026814600F07FBEB8F1500F00F07D
:1049F800848611D8B8F14F0F40F034870B200AF0A5
:104A080023FF00200AF0DBFE00200AF0D8FE002079
:104A18000AF0D5FE00F095BEB8F1520F00F07F867F
:104A2800B8F1540F00F07B8600F01CBFB8F1720F8C
:104A380000F0F18300F2C780B8F1680F00F06682D9
:104A480000F29480B8F1640F00F0A78139D8B8F16A
:104A58005E0F00F0BE86B8F1600F00F0F286B8F184
:104A68005C0F40F0FF863A4EDFF8FC8011200AF018
:104A7800EBFE96F8DC010AF0A2FED8F80030188C9C
:104A88000AF0E5FED8F80030588C0AF0E0FEB6F8D7
:104A9800DE010AF0DCFEB6F8E0010AF0D8FED8F82C
:104AA8000030988C0AF0D3FED8F80030D88C0AF081
:104AB800CEFEB6F8E2010AF0CAFEB6F8E40100F04C
:104AC800BDBEB8F1660F00F08A8100F2B5810B20F7
:104AD8000AF0BAFE204B18880AF0B9FE1F4B188856
:104AE80080B20AF0B4FE1E4B1B68C3F3C000C3F3C8
:104AF8008002800040EA4200C3F340021043C3F33F
:104B0800401240EAC20003F0100318430AF09FFE67
:104B18000AF082FD0AF0A4FE0D4B93F81C0500F084
:104B28009EBE00BFDC230020984A0020B415002058
:104B3800740D0020AC4A00207CF40108284A0020AB
:104B4800FC9F0020EFBEADDE00ED00E00400FA059A
:104B58004044002024040020902300208E230020BD
:104B6800702500205FEE010810240020B8F16C0FBA
:104B780000F0E68112D8B8F16A0F00F08E8300F2D7
:104B8800D383DFF80C84DFF80C9498F80000400019
:104B980000F0FE000AF058FE0026C6E1B8F16E0FDC
:104BA80000F02082C0F00E82B8F16F0F00F0528240
:104BB800B8F1700F40F056861E200AF045FE002618
:104BC800DFF8D48378E2B8F17D0F00F0C18529D8E9
:104BD800B8F1760F00F0B9830AD8B8F1740F00F075
:104BE8008F8040F24F832F200AF02EFEDC4E79E2B0
:104BF800B8F1780F00F02F81C0F0ED82B8F17C0F8A
:104C080040F03086D74E06200AF01EFEB6F8D600D1
:104C18000AF01DFEB6F8D8000AF019FEB6F8DA0058
:104C280000F00CBEB8F1A00F00F0E7833FD8B8F150
:104C38007F0F00F0F284C0F09E85B8F1960F40F027
:104C480011860F200AF000FEC74B18880AF0FFFDF6
:104C5800C64B188880B20AF0FAFDC54B1B68C3F32F
:104C6800C000C3F38002800040EA4200C3F3400260
:104C78001043C3F3401240EAC20003F01003184384
:104C88000AF0E5FD0AF0C8FC0AF0EAFDB54B93F816
:104C98001C050AF094FDB74B18886428A8BF642047
:104CA8000AF0D5FD03200AF08AFDB34B27E2B8F1DC
:104CB800F00F00F0978314D8B8F1A40F40F0D28514
:104CC800DFF8D88298F82F0080000130C0B20AF0CF
:104CD800BBFD98F82F000AF072FD002608F1300A93
:104CE8005CE3B8F1F10F00F0EA80B8F1FE0F40F094
:104CF800B98508200AF0A8FD0026DFF8A48269E338
:104D08004FF000094FF0010B42E204200AF09CFD2D
:104D1800DFF89082002618F8060001360AF04FFDE9
:104D2800042EF8D100F0B8BD03200AF08DFD032051
:104D38000AF045FD00200AF042FD012000F08FBD79
:104D480006200AF081FDDFF86082002618F80600C8
:104D580001360AF034FD042EF8D1002000F06EBDB3
:104D680018F8060001360AF02AFD0B2EF8D1DFF8F4
:104D78003C82002618F8060001360AF020FD082EAD
:104D8800F8D1DFF82C82002618F8060001360AF060
:104D980016FD072EF8D100F07FBD07200AF054FD5C
:104DA800E7200AF00CFD6F4B58790AF008FD002047
:104DB8000AF005FD042000F0C8BC7048DFF8F48153
:104DC80013F0D8FEC6B230460AF03EFD4644B04560
:104DD80000F0628518F8010F0AF0F1FCF7E71220DD
:104DE8000AF032FD664BDFF8D0911B89B3F5007FDE
:104DF80094BF4FF001084FF00408002659F8260028
:104E080090FBF8F0013680B20AF021FD032EF5D1AF
:104E18005C4E30880AF01BFDB0880AF018FD308916
:104E2800594E0AF014FD30880AF011FDB0880AF0D6
:104E38000EFD308900F002BD10200AF005FDDFF8F4
:104E48007C81002618F8060001360AF0B8FC102EFE
:104E5800F8D100F021BD7020424E0AF0F5FC4FF069
:104E6800000AB0464FF00E09B6F854010AF0EFFCFC
:104E7800B6F856010AF0EBFCB6F858010AF0E7FC60
:104E880096F85A010AF09BFC96F85B010AF097FC29
:104E980096F85C010AF093FC96F85D010AF08FFC25
:104EA80009FB0A830AF1010AD3F85E010AF0D8FC6B
:104EB800BAF1080F06F10E06D6D100F0EDBC70204D
:104EC800284E0AF0C1FC06F1700896F8E4000AF0D2
:104ED80076FC96F8E5000AF072FC96F8E6000AF00F
:104EE8006EFC96F8E7000AF06AFC96F8E8000AF00B
:104EF80066FC96F8E9000AF062FC073696F8E300CB
:104F08000AF05DFCB045E0D100F0C6BC10200AF004
:104F18009BFCDFF8AC80002618F8060001360AF082
:104F28004EFC102EF8D100F0B7BC98F800309E4225
:104F380080F0B28439F816000AF089FC0136F4E7EB
:104F4800124E06200AF080FC30880AF080FC708837
:104F58000AF07DFCB6F904300A2093FBF0F061E01A
:104F6800C7C7010840440020902300208E2300205A
:104F7800702500202C20002092230020164A0020B3
:104F88006025002060180020D83C00205818002018
:104F9800502500200025002010240020740D00203A
:104FA800D0200020B4F40108B9F4010856EE010835
:104FB80020EE0108154A0020B8140020900D0020AA
:104FC800583D002006200AF03FFCC34B18680AF041
:104FD80047FCC24B188800F031BC04200AF034FCAE
:104FE800BF4B16E207200AF02FFCBE4B1888FF289B
:104FF800A8BFFF20C0B20AF0E2FBBB4B186880F3E1
:10500800100080B20AF023FCB84B18880AF01FFC85
:10501800B74B93F82322B74B186832B10A23584389
:1050280080F3100080B200F009BC00F30F00F9E72C
:10503800AF4E02200AF008FC96F89B020AF0BFFB6C
:1050480096F89A0200F00BBC02200AF0FDFBAA4B6E
:10505800988AF3E3A94E0C200AF0F6FB3368187817
:105068000AF0ADFB336898780AF0A9FB4FF0000905
:10507800B046D8F80030A14E4B4409F101095879DF
:105088000AF09DFBB9F1030FF3D13368187A0AF0DF
:1050980096FB3368D8780AF092FB336818790AF0DF
:1050A8008EFB336858890AF0D2FB3368587A0AF0C5
:1050B80086FB33685878D2E3D8F800303344587800
:1050C8000AF07DFBD8F800303344D87A0AF077FB31
:1050D800D8F8003033440136587D0AF070FB0A2EA8
:1050E800EAD1D9E316F8010F002800F0D5830AF0B9
:1050F80066FBF7E701200AF0A7FB814B1B681878CD
:10510800ADE350207A4E0AF09FFB06F150084FF0AD
:105118000C097C4A96F81D3509FB0323043693F8DD
:1051280038000AF04CFB96F81A050AF048FB96F886
:105138001B050AF044FB96F81C050AF040FBB04535
:10514800E7D1A9E396F872050AF039FB96F86D05E0
:105158000AF035FB96F86E050AF031FB96F86F05F4
:105168000AF02DFB96F870050AF029FB063696F82A
:105178006B050AF024FB4645E4D18DE3BBF1000F33
:1051880000F08A835FFA89F00AF05EFB4FF0000BAB
:1051980000265D4B1B789E42F0DA5C4BF05C0021E8
:1051A8004FF00C0E0EFB01F313F807C0844503D033
:1051B80001311F29F6D10CE0524A1344D3F834A028
:1051C800504613F0D7FC0146BBF1000F00F0848372
:1051D80089440136DDE7DFF83081DFF830A198F83F
:1051E8000000DFF820910AF02FFB002698F8003025
:1051F8009E4280F0518316F80A1000220C2000FB12
:1052080002F313F807E08E4500F0738301321F2A7A
:10521800F5D10136EAE7364E16200AF015FBB6F846
:1052280054020AF014FBB6F8CC000AF010FBB6F8EA
:10523800CE000AF00CFBB6F8D0000AF008FBB6F86E
:10524800AC020AF004FB96F8A5020AF0B8FA0020AE
:105258000AF0B5FA96F8A6020AF0B1FA96F823020F
:105268000AF0ADFA96F850020AF0A9FA00200AF0FE
:10527800A6FAB6F9F0310A2093FBF0F080B20AF0F2
:10528800E6FACEE008200AF0DFFA0126F0B201368D
:105298000AF095FA092EF9D1FEE210200AF0D4FAA4
:1052A8001B4B1C4E187800F002000AF088FA1A4BC3
:1052B80018780AF084FA30680AF0D2FA70680AF0AE
:1052C800CFFA164B18880AF0C2FA154B18880AF05C
:1052D800BEFA144B988DB1E29C150020C41400202E
:1052E800843C0020F8200020AC200020484C0020FE
:1052F80040440020D8140020E8250020783B0020F6
:1053080010240020C8C70108DD230020DE23002068
:10531800DC140020E4140020E2140020E014002033
:10532800DE140020740D002005200AF08DFAD54BFC
:1053380018880AF08CFAD44B18880AF088FAD34BEC
:1053480093F82E0000F0010089E20AF019FA81466C
:1053580012200AF079FAB9F1000F01D1CC4B03E021
:10536800B9F1100F04D1CB4BD3F800805E6801E08F
:105378000026B04648460AF022FA40460AF070FA7B
:1053880030460AF06DFAC44B18680AF069FA002032
:105398000AF05DFA00200AF05AFAC3E198F82F30B3
:1053A8009E4280F07982DFF80C931AF806000AF022
:1053B80006FA19F806000AF002FA09F1100309F1D1
:1053C8002009985D0AF0FBF919F806000AF0F7F9C8
:1053D8000136E3E738F8160001360AF038FA042EE9
:1053E800F8D159E2AD4E04200AF02EFAB6F8F401CD
:1053F8000AF02DFAB6F8F20120E20C200AF024FA9D
:10540800A74B18680AF02CFAA64B18680AF028FA75
:10541800A54B186899E104200AF016FA9F4B986882
:1054280093E196F816020AF0CAF996F81A020AF0F9
:10543800C6F996F819020AF0C2F996F81B020EE2AC
:10544800964E07200AF000FAB6F81E020AF0FFF995
:10545800B6F820020AF0FBF996F822020AF0AFF932
:10546800B6F82402EAE101200AF0EEF98B4B5879EC
:10547800F5E18A4E10200AF0E7F996F84C020AF096
:105488009EF9B6F858020AF0E2F9B6F854020AF0A2
:10549800DEF9B6F856020AF0DAF996F84E020AF082
:1054A8008EF9B6F860020AF0D2F9B6F862020AF08C
:1054B800CEF996F85A020AF082F996F85B020AF0D9
:1054C8007EF9B6F85E02B9E1744E08200AF0BCF91C
:1054D80096F8AA020AF073F996F8AB020AF06FF987
:1054E800B6F8AC020AF0B3F996F8AE020AF067F91A
:1054F800B6F8B0020AF0ABF996F8B202AFE16B4E1B
:10550800DFF8B481307800EB4000C0B20AF09CF9B3
:105518004FF000093378994508F1020880F0BC8102
:1055280018F8020C0AF04BF918F8010C00EB80008F
:1055380000EB800000F2EE2080B20AF088F909F151
:105548000109E7E701200AF07FF9544B93F850026C
:1055580085E106EB0803013693F844020AF02FF9B7
:10556800082EF6D198E14D4E10200AF06DF97079A9
:105578000AF025F9B0680AF073F996F84C020AF0B7
:105588001EF9B6F8C8010AF062F9B6F8CC010AF0BB
:105598005EF9B6F8D0010AF05AF9B6F81E020AF018
:1055A80056F9B6F8200249E1384B3C4E93F87000A2
:1055B800DFF80891C0EBC000C0B20AF045F906F167
:1055C800280896F9B602002313F90920824200F050
:1055D80096810C333C2BF7D108364645F1D15BE177
:1055E800B6F874030AF033F996F876030AF0E7F888
:1055F800043696F873030AF0E2F8B045F0D14BE1AF
:1056080080202B4E0AF020F906F1800856F8040F86
:105618000AF026F94645F9D13EE18D200AF014F941
:1056280000264FF0060A0AFB06F94FF0000B5FFA56
:1056380086F840460AF0C3F85FFA8BF00AF0BFF824
:10564800164B0BEB090119440BF1010B91F8B4034C
:105658000AF0B5F8BBF1060FEBD10136062EE2D100
:10566800002606200AF0ABF8F0B20AF0A8F80B4BB7
:105678003344013693F8D8030AF0A1F80B2EF0D181
:105688000AE100BF5415002056150020740D0020B3
:10569800A015002044140020B03C00204044002005
:1056A800ACF7FF1FB0F7FF1FB4F7FF1F502500200E
:1056B80030470020B40D0020A4460020304A0020C6
:1056C8000D200AF0C1F811F0A9FDD04E40F00200FB
:1056D800C0B20AF074F830880AF0C2F8F0680AF02C
:1056E800BFF811F07BFD30E04E4580F2D58018F808
:1056F80006000AF064F80136F6E7C54E04200AF001
:10570800A3F801200AF05BF896F8C9050AF057F8E3
:1057180096F8C7050AF053F896F8C8059FE00120E7
:105728000AF092F800209AE013200AF08DF8DFF8CA
:105738000083002618F8060001360AF040F80B2E00
:10574800F8D100200AF08CF800200AF089F8A3E0CC
:10575800AF4E05200AF078F896F826020AF02FF8DE
:1057680096F827020AF02BF896F828020AF027F88C
:10577800B6F8DC0062E0A64E03200AF065F896F859
:10578800C5010AF01CF896F8C6010AF018F896F850
:10579800C70164E09E4E06200AF056F8B6F8D831E4
:1057A80023B108200AF00BF8012005E096F8DA0189
:1057B8000AF005F896F8EA010AF001F896F8E3000D
:1057C80009F0FDFF96F8E20009F0F9FFB6F8DE00EF
:1057D80034E0904E11200AF037F83368588D0AF0FB
:1057E80036F83368988D0AF032F83368D88D0AF0A5
:1057F8002EF8336893F8280009F0E1FF336893F82E
:10580800330009F0DCFF336893F8360009F0D7FF5E
:10581800336893F8370009F0D2FF002009F0CFFF72
:10582800002009F0CCFF336893F8350009F0C7FF72
:105838003368588F0AF00BF83368188F0AF007F8A6
:105848002AE0734E032009F0FFFF96F8D50109F00E
:10585800B6FF96F8EE0109F0B2FF96F8ED0109F0EF
:10586800AEFF19E0B8F15D0F61D040F29880B8F151
:10587800D20F40F0188309F083FF020600F10B8372
:10588800654B1B785B0704D4032828BF00200DF064
:10589800ADF8002009F0D8FF09F0A2FF2368002224
:1058A80083F848205D4B5E4C18680CF09FFF94F815
:1058B80071305BB15B4B585908F0C4F80EF027F90A
:1058C800002384F87130584B584ADA604C35982DCB
:1058D8007EF4DDAE00F0CDBED046CAEB08008842AB
:1058E800BFF677AC18F8010B019109F068FF019930
:1058F800F3E74B4493F8380009F061FF89E4C0B23C
:1059080009F05DFFB6F8B80209F0A1FF96F8BA02EF
:1059180009F055FF96F8BB0209F051FF96F8BD0251
:1059280009F04DFF96F8BC0209F049FF54E609F06A
:1059380027FFDFF8E080364ED8F8009086F8DC01C3
:1059480009F02AFFA9F82000D8F8009009F024FFF0
:105958002368A9F822005B79052B13D909F01CFFED
:10596800A6F8DE0109F018FFD8F80090A6F8E001C3
:1059780009F012FFA9F82400D8F8008009F00CFFFC
:10598800A8F8260023685B790D2B82D909F004FF5B
:10599800A6F8E20109F000FFA6F8E40179E7B8F1FA
:1059A800370F47D15B794FF00708B3FBF8F8C8EB1E
:1059B800C8029B1A13F0FF0F02D00CF019F868E721
:1059C8005FFA88F808F1FF385FFA88F8B8F1FF0F36
:1059D8003FF45FAF09F0D4FE4FFA80F9484608F06B
:1059E800A7F806460028E8D080F8009009F0D4FE11
:1059F800708009F0C5FE307109F0C2FE707109F0BF
:105A0800BFFEF07109F0BCFEB071DBE72404002092
:105A18004044002010240020DC2300200024002023
:105A2800740D00205824002000ED00E00400FA0561
:105A38005FEE010800F23D81B8F12B0F2AD109F081
:105A48009FFEC64B24E0B8F14E0F71D109F098FEC5
:105A580011280646B1D8DFF8048309F091FE06F54F
:105A6800987608EB4603187109F096FE40F2ED238C
:105A78009842424640F30C8240F6CA039842A8BFB7
:105A8800184602EB4603A0F2EE20192290FBF2F032
:105A98005871FEE675D8B8F1250F08D1AF4E00232E
:105AA800B36009F083FEB3681843B060F1E642D8EA
:105AB800B8F10B0F19D111220021A948DFF89C92E7
:105AC80016F066FB4FF0000833685B79102B28BF8F
