:020000040800F2
:10000000005000203D4A0108DD4A01083D03010877
:10001000DD4A0108DD4A0108DD4A01080000000050
:10002000000000000000000000000000DD4A0108A0
:10003000DD4A010800000000DD4A010823E2000853
:10004000DD4A0108DD4A0108DD4A0108DD4A0108F0
:10005000DD4A0108DD4A0108BD690008BB690008E6
:10006000DD4A0108DD4A0108DD4A0108DD4A0108D0
:10007000ADE1000899E1000825230108DD4A0108E7
:1000800085E1000873E10008DD4A0108DD4A010846
:10009000DD4A0108DD4A0108DD4A0108B9690008A6
:1000A000DD4A0108F1200108DD4A010801210108AB
:1000B000E5200108D5200108C5200108FD500008F1
:1000C00001510008F5500008F9500008DD4A010808
:1000D000DD4A0108192301080D2301080123010845
:1000E00031E20008DD4A0108DD4A01080000000095
:1000F0000000000000000000000000000000000000
:0C01000000000000000000005FF808F1A3
:100110002DE9F04F9C4BAFB01C780193002C00F000
:10012000DC809A4B1868002801F0B2850EF007F8C1
:10013000974C20680EF001F9002801F0A98520688D
:100140000EF0F8F80928934C01D03F2849D14FF020
:10015000000845462668904F2EB1904839683246CF
:1001600016F0FEFD10B9B84605B93D468C4B103768
:100170009F42F1D3C5B1D5F800E0D8F800C023689C
:100180001EF803701CF80300B8420DD15A1C8349B5
:1001900038B92D2B05D87F4F3A602027CF5488548B
:1001A00002E0CF542260EAE723680BB145450FD047
:1001B0007C480FF0F7FB454507D855F8100B0FF0BA
:1001C000F1FB09200FF094FAF5E70DF015FA00267F
:1001D00023689E42ACD2714B985D0FF089FA0136CC
:1001E000F6E72368002B41F0C184042841F02985FB
:1001F0006A480CF063F801F04BBD3068DFF8C4A129
:100200000EF09BF8002851D0DAF800000EF092F8BA
:10021000DBF80030024693F84810002979D12428F1
:1002200040F0D880012283F84820DBF8003093F8B2
:1002300048A0BAF1060FE0D193F849004D2800F02C
:10024000938500F2C581322800F0AF8500F261810C
:10025000242800F0408500F21581032800F08A82EE
:1002600040F2EF80052840F001811A200FF0D4F908
:1002700000264D4B985D01360FF085F90B2EF8D115
:1002800000264A4B985D01360FF07DF9082EF8D113
:100290000026474B985D01360FF075F9072EF8D10F
:1002A0000FF082F92B68002283F84820414B186830
:1002B0000DF045FF404B93F8303053B158F804002F
:1002C0000DF0A8F90EF0C4F80EF0BEFE3B4A3C4B10
:1002D000DA604C34982C01F0DB84DFF8F48054F8B9
:1002E000083004EB0802002BF3D0364E079333603E
:1002F0000023354D354F8DF82130DFF8B8901423A9
:100300008DF8203006AB2A600697C9F80030AB465E
:1003100073E7012904D14D2814BF0022022282E78D
:10032000022904D13C2814BF002203227BE70329C1
:100330000CD140284FF0000102D983F8481074E72F
:1003400058711971D971987104226CE7042906D18A
:10035000997983F849004A409A71052263E7052993
:100360007FF463AF587919798842987906D950405B
:100370009871481C18710B441A7256E790420CBFD2
:10038000062200224FE700BFAF3A00207C2C00205D
:10039000FC27002048280020E89C0108182800209D
:1003A000E89E0108F4B401085CB5010868B50108CD
:1003B00071B50108702C0020200900200400FA0506
:1003C00000ED00E0742C00206C2C002047E30008B6
:1003D000E4390020D5490B7803F0040303F0FF0E45
:1003E000002B7FF422AF232ADAF800001CD10292FE
:1003F000019A01231370CE4B03911860CD4B186006
:10040000986010201873CC485F6083F80DE00433C7
:100410000360CA480FF0C6FA0DF0EEF80399029A8D
:100420000B7843F002030B70C54B1B681B7893429B
:1004300001BFC44AC44B1A60C44A04BFC44BDA604B
:10044000F3E6012800F06681022840F0FA850420D6
:100450000FF0E2F842200FF096F854200FF093F8D6
:1004600046200FF090F84C2000F0D0BDC0F08B81FA
:10047000222840F0E685B74E50200FF0CDF806F167
:100480005007FFE22A2800F04E8419D8262800F0F1
:100490002884282840F0D585AE4E07200FF0BCF800
:1004A000B6F81A020FF0BBF8B6F81C020FF0B7F856
:1004B00096F81E020FF067F8B6F8200200F060BD53
:1004C0002E2800F0B984302800F0E4842C2840F075
:1004D000B885A04E0C200FF09FF896F83C020FF064
:1004E00052F8B6F848020FF09AF8B6F844020FF046
:1004F00096F8B6F846020FF092F896F83E020FF022
:1005000042F8B6F84E020FF08AF8B6F8500200F042
:1005100037BD402800F0508423D8382800F0F083FD
:1005200011D8342800F0F482362840F08A858A4BAE
:10053000884E187806F12807C0EBC000C0B20FF053
:100540006BF800F075BC3B2800F095823D2800F068
:1005500034823A2840F0758504200FF05DF87F4B17
:10056000B7E3462800F0BC840BD8422800F033845F
:10057000452840F0668513200FF04EF8002600F065
:10058000DEBC492800F024824B2800F0D2834728A3
:1005900040F057850EF0EEFF074684200FF03CF840
:1005A00038460FF045F86E4B0DF13809DE6807F15B
:1005B0008003B3428CBFF61B802608F0FFFA384652
:1005C0003246494606F03AFD0026074600F09CBC3C
:1005D000702800F0308259D8672800F0398134D86B
:1005E000522800F0A78418D84F2800F0968450288D
:1005F00040F02785574E04200FF00EF801200EF032
:10060000C2FF96F805050EF0BEFF96F803050EF042
:10061000BAFF96F8040500F0F9BC652800F0C58023
:1006200000F2ED80642840F00C8507200EF0F4FF06
:10063000E7200EF0A8FF474B58790EF0A4FF0020EA
:100640000EF0A1FF042000F085BC6C2800F078813A
:100650000ED8682800F05D81692840F0F284414F8F
:1006600000263878400000F0FE000EF0D5FF5CE177
:100670006E2800F0758100F2B18106200EF0CCFFEB
:10068000394B18680EF0D4FF384BA5E17C2800F0F8
:1006900065841CD8742800F05E820AD8722800F0A5
:1006A000C182732840F0CD8408200EF0B5FF0126EA
:1006B000EDE2772800F09482782800F0D580752844
:1006C00040F0BF842F200EF0A7FF294ECBE1A028D9
:1006D00000F0F38209D87E2800F06584C0F05484CD
:1006E000962840F0AE840C2060E0F12800F0EB800A
:1006F000FE2800F0D482F02840F0A384154E042098
:100700000EF08AFFB6F8F2010EF089FFB6F8F0019C
:1007100000F036BC03200EF07FFF00200EF033FF08
:1007200001200EF030FF102000F070BCB03A002025
:10073000FC270020200900207C2C002024B5010883
:1007400084180020EFBEADDEF04F00200400FA0553
:1007500000ED00E0D034002070280020B4310020EB
:100760009C000020803A0020DC310020000E002098
:10077000AF9301080EF050FF02200EF004FF504628
:100780000EF001FFD9E306200EF046FF41200EF0E7
:10079000FAFE46200EF0F7FE4E200EF0F4FE412049
:1007A0000EF0F1FEC54B1878EAE30B200EF034FF93
:1007B000C34B18880EF033FFC24B188880B20EF07E
:1007C0002EFFC14B1B68C3F3C000C3F3800280003F
:1007D00040EA4200C3F340021043C3F3401240EA30
:1007E000C20003F0100318430EF019FF0EF0F2FDE3
:1007F0000EF01EFFB54B93F8580400F007BC122012
:100800000EF00AFFB24B00261B88B3F5806F8CBF39
:1008100008270127AF4B53F82600013690FBF7F06D
:1008200080B20EF0FCFE032EF4D1AB4E30880EF0F9
:10083000F6FEB0880EF0F3FE3089A84E0EF0EFFE03
:1008400030880EF0ECFEB0880EF0E9FE308997E3B8
:1008500010200EF0E1FE0026A14B985D01360EF04F
:1008600092FE102EF8D11BE5984E70200EF0D4FEAB
:10087000B1460027B6F856010EF0D1FEB6F8580181
:100880000EF0CDFEB6F85A010EF0C9FE96F85C01E6
:100890000EF079FE96F85D010EF075FE96F85E0199
:1008A0000EF071FE96F85F010EF06DFE0E2303FB55
:1008B00007930137D3F860010EF0BAFE082F06F156
:1008C0000E06D7D1ECE470200EF0A6FE7F4E06F1A6
:1008D000700796F8E6000EF056FE96F8E7000EF068
:1008E00052FE96F8E8000EF04EFE96F8E9000EF083
:1008F0004AFE96F8EA000EF046FE96F8EB000EF07F
:1009000042FE073696F8E5000EF03DFEBE42E0D10D
:10091000C6E410200EF080FE0026724B985D013672
:100920000EF031FE102EF8D1BAE43B789E42BFF4AF
:10093000B7AC6D4B33F816000EF071FE0136F4E7DC
:100940006A4E50460EF068FE30880EF068FE7088E1
:100950000EF065FEB6F904300A2093FBF0F027E0B4
:100960004FF6FF7607200EF057FE614B1888FF28E0
:10097000A8BFFF20C0B20EF006FE5E4B1868B04262
:10098000A8BF304620EAE07080B20EF048FE5A4B15
:1009900018880EF044FE4D4B93F81F22574B1868F1
:1009A00042B10A235843B042A8BF304620EAE07063
:1009B00080B2E5E200F30F00FAE7444E02200EF0A9
:1009C0002BFE96F889020EF0DEFD96F888021DE3F4
:1009D00002200EF021FE4A4B1888D1E2494E0B202E
:1009E0000EF01AFE3368374618780EF0CCFD3368E7
:1009F0004FF0000958780EF0C6FD3B68414E4B445D
:100A0000187909F101090EF0BEFDB9F1030FF4D117
:100A10003368D8790EF0B7FD336898780EF0B3FDDF
:100A20003368D8780EF0AFFD336858890EF0F7FDC3
:100A30003368187AEAE21E200EF0EEFD0026324FEF
:100A40003B68334458780EF09EFD3B683344D87AB7
:100A50000EF099FD3B683344587D01360EF093FD4E
:100A60000A2EECD11CE416F8010F00283FF418AC54
:100A70000EF089FDF7E701200EF0CEFD224B1B683A
:100A80001878C3E296F85924204B0C2101FB02335D
:100A900093F838000EF077FD96F85A040EF073FDC7
:100AA00096F85B040EF06FFD043696F858040EF0CD
:100AB0006AFDBE42E6D1FFF7F3BB00BFAD3A0020AE
:100AC000A63A0020C82C002064180020D034002052
:100AD00008000020F40D0020C82800200832002063
:100AE00040090020282A002084340020C02800204B
:100AF000D816002088160020960E0020140E002024
:100B00006C180020780B0020782C0020B09301088E
:100B10005A200EF081FDD44E06F15A0796F8AE0425
:100B20000EF031FD96F8A9040EF02DFD96F8AA04FA
:100B30000EF029FD96F8AB040EF025FD96F8AC04F6
:100B40000EF021FD063696F8A7040EF01CFDBE42FD
:100B5000E4D1FFF7A5BB00264FF0010A4FF0000BD0
:100B6000C24B1B789B4531DAC14B4FF000091BF893
:100B700003200C2303FB09F3BE4F07F13001595C3E
:100B8000914209D13B44586B16F0E1F80146BAF1A5
:100B9000000F07D1534607E009F10109B9F11F0F12
:100BA000E7D110E006440EE08B420CDA0C2202FB87
:100BB0000972526B0391D05C02930EF0E4FC029B2D
:100BC00003990133F0E70BF1010BC9E7BAF1000F0C
:100BD0003FF466ABF0B20EF01FFD4FF0000ABDE728
:100BE000A24F002638780EF017FD3B789E42BFF4E6
:100BF00057AB9F4B002116F803E00C2202FB01F3D8
:100C00009C4800F1300C13F80C20724505D10344C8
:100C100093F838000EF0B7FC02E001311F29ECD147
:100C20000136E2E7904E16200EF0F6FCB6F84402CC
:100C30000EF0F5FCB6F8D0000EF0F1FCB6F8D200DC
:100C40000EF0EDFCB6F8D4000EF0E9FCB6F89A020E
:100C50000EF0E5FC00200EF096FC00200EF093FC58
:100C600000200EF090FC96F81F020EF08CFC96F817
:100C700040020EF088FC00200EF085FCB6F9EE3143
:100C80000A2093FBF0F080B20EF0C9FC3CE0F0B219
:100C900001360EF078FC092EF9D1FFF701BB0820D0
:100CA0000EF0BAFC0026744B33F8160001360EF035
:100CB000B6FC042EF7D1FFF7F3BA0C200EF0ACFC13
:100CC0006E4B18680EF0B4FC6D4B18680EF0B0FC5B
:100CD0006C4B18683EE104200EF09EFC624B986855
:100CE00038E1614E06200EF097FCB6F8CC010EF00C
:100CF00096FCB6F8D0010EF092FCB6F8D4013FE1B4
:100D000004200EF089FC584E96F812020EF03BFCBF
:100D100096F816020EF037FC96F815020EF033FC2A
:100D200096F8170272E101200EF076FC4E4B5879CE
:100D30006CE14D4E08200EF06FFC96F898020EF014
:100D400022FC96F899020EF01EFCB6F89A020EF0FC
:100D500066FC96F89C020EF016FCB6F89E020EF0A9
:100D60005EFC96F8A00251E1474E484F30784FF0B4
:100D7000000900EB4000C0B20EF04EFC33780237A1
:100D80009945BFF48DAA17F8020C0EF0FCFB17F87A
:100D9000010C09F1010900EB800000EB800000F27A
:100DA000EE2080B20EF03BFCE8E701200EF034FCB0
:100DB0002D4B93F8400229E108200EF02DFC00266F
:100DC000294B334493F8340201360EF0DCFB082E35
:100DD000F6D1FFF765BA244E10200EF01DFC707995
:100DE0000EF0D1FBB0680EF023FC96F83C020EF03A
:100DF000CAFBB6F8CC010EF012FCB6F8D0010EF02A
:100E00000EFCB6F8D4010EF00AFCB6F81A020EF089
:100E100006FCB6F81C02B3E01D4AD25C904200F01A
:100E2000F9800C333C2BF7D10836BE423FF438AA88
:100E300096F8A4020023EFE740200EF0EDFB0A4EE7
:100E400006F14007B6F860030EF0E9FB96F862037E
:100E50000EF099FB043696F85F030EF094FBBE4249
:100E6000F0D1FFF71DBA00BFD03400204C2C002079
:100E70004D2C0020B0930108A8160020E8F7FF1FB2
:100E8000ECF7FF1FF0F7FF1F803A00202237002009
:100E900088180020E0200EF0BFFBDB4E06F1800733
:100EA000B6F8E202043600F03F000EF0B8FBB6F8E8
:100EB000DE02C0F386100EF0B2FB96F8DC020009E9
:100EC0000EF061FB96F8DC0200F00F000EF05BFB09
:100ED00096F8DD020EF057FBBE42E1D1FFF7E0B914
:100EE0000D200EF099FB05F03BF8C84E40F00200D3
:100EF000C0B20EF048FB30880EF09AFBF0680EF09E
:100F000097FB10F0EDFF25E0BE42BFF6C9A919F826
:100F100006000EF038FB0136F6E70B200EF07CFBE6
:100F200000200EF030FB00200EF02DFB00200EF014
:100F30002AFB0BE001200EF06FFB002066E0B44BB3
:100F4000985D01360EF01FFB0B2EF8D100200EF03D
:100F50006FFB00200EF06CFBFFF7A2B9AA4E082031
:100F60000EF05AFBB6F8D8000EF059FBB6F8DA00CE
:100F70000EF055FBB6F8DC000EF051FBB6F8DE00C3
:100F80000EF04DFBFFF78CB99F4E03200EF044FB93
:100F900096F822020EF0F7FA96F823020EF0F3FA12
:100FA00096F8240232E0984E03200EF035FB96F8B6
:100FB000C7010EF0E8FA96F8C8010EF0E4FA96F8C8
:100FC000C90123E040F2C383F32840F02B850EF0E3
:100FD000BBFAFF288F4E40F04D84002706F1340005
:100FE0003946602286F8317015F06EFE8DF8167065
:100FF0009DF8163096F89620DFF818929A4200F283
:10100000DC8301200EF008FB99F831000EF0BBFAEA
:10101000FFF746B90EF0B7FAB6F8A6020EF0FFFADF
:1010200096F8A8020EF0AFFA96F8A9020EF0ABFA05
:1010300096F8AB020EF0A7FA96F8AA020EF0A3FA01
:10104000F2E64E2826D10EF07FFA1128074602D983
:1010500008F0C6FA36E00EF077FA6B4E07F5927795
:1010600006EB470398720EF07BFA40F2ED239842AC
:1010700005DD40F6CA039842A8BF184601E040F2D9
:10108000EE20A0F2EE20192390FBF3F006EB4706CA
:10109000F07217E01BD9D42800F0FE8100F24683DD
:1010A000CD2800F0288240F23082D02800F0DA8289
:1010B00040F2E482D22840F03183574B1B78580726
:1010C00040F1218300200EF0A7FAFFF7E9B8352898
:1010D00023D10EF039FA0E280746B9D80EF034FAAB
:1010E0000328B5D8484B062606FB073686F8AE041B
:1010F0000EF02AFA86F8A9040EF026FA86F8AA0459
:101100000EF022FA86F8AB040EF01EFA86F8AC0454
:101110000EF01AFA86F8AD04D4E700F2EF802B281F
:1011200004D10EF011FA384B5871CBE700F28080F1
:10113000252807D1344B00229A600EF01BFA0DF0DF
:101140007BFFBFE73BD8232840F00C850EF0FCF96D
:10115000132806463FF67CAF0EF0F6F900210C226C
:1011600002FB01F3DFF8C4E00EEB030292F8382033
:10117000824220D17344244F93F8303006F58B76A9
:1011800007EB860673700EF0DFF9B0700EF0DCF935
:10119000F0700EF0D9F9214BD0371A68204B30711E
:1011A0001F60204B00201A6012F0BCF81E4B80F02C
:1011B0000100187086E701311F29D0D148E72728A0
:1011C0000DD10EF0CDF9104EC6F8CC010EF0C8F9D5
:1011D000C6F8D0010EF0C4F9C6F8D40172E7292888
:1011E00040F0C0840EF0BCF9074EA6F81A020EF0CB
:1011F000B7F9A6F81C020EF0A7F986F81E020EF049
:10120000AFF9A6F820025DE7D03400209C00002052
:101210005CB5010820090020B03A0020782C00209D
:101220007C0B0020800B002002000020B0930108FE
:101230002F2800F0838425D82D2840F093840EF0C9
:1012400083F9D24E86F83C020EF08AF9A6F84802DD
:101250000EF086F9A6F844020EF082F9A6F84602CE
:101260000EF072F92B6886F83E025B79082B7FF648
:1012700029AF0EF075F9A6F84E020EF071F9A6F836
:1012800050021FE7312830D10EF05EF91F280646C4
:101290003FF6DEAE2B685B79082B7FF4D9AE0EF0FB
:1012A0005FF9DFF8E892B83609EB860700F03F00F7
:1012B00078800EF055F97B88800100F4FE501843C9
:1012C00078800EF041F9000109F826000EF03CF993
:1012D00019F8263000F00F00184309F826000EF028
:1012E00033F9787007F00AFCECE6332840F03A84D2
:1012F0000EF02AF9A54B83F84002E3E641280AD113
:1013000000260EF021F9A14B33440136082E83F854
:101310003402F6D1D6E66AD8392811D10EF014F984
:101320009A4E86F812020EF00FF986F816020EF0A9
:101330000BF986F815020EF007F986F81702C1E6D8
:1013400032D8372840F00E845B790726B3FBF6F2DB
:10135000C2EBC2029A1A12F0FF0F7FF479AEB3FB10
:10136000F6F6013EF6B2FF2E3FF4ACAE0EF0ECF80E
:101370005FFA80F94FFA89F00CF0A4FA07460028CA
:101380003FF466AE80F800900EF0EAF878800EF038
:10139000DBF838710EF0D8F878710EF0D5F8F871E6
:1013A0000EF0D2F8B871DCE73C2813D1784E3768DC
:1013B00097F800900EF0C8F83870336818780DF080
:1013C00063F933681B784B453FF47CAE00200EF088
:1013D00038F977E63E2840F0C5830EF0B5F86B4E3D
:1013E00086F889020EF0B0F886F888026AE6482886
:1013F00002D110F03FFE65E62CD8432822D10EF032
:10140000A3F8624E0023B36070710EF0B3F80DF0D4
:1014100013FE0EF099F886F83C020EF0A1F8C6F81B
:10142000CC010EF09DF8C6F8D0010EF099F8C6F880
:10143000D4010EF095F8A6F81A020EF091F8A6F86D
:101440001C023FE6442840F08D83524B012283F872
:10145000302037E64A2802D10EF082F8B7E74C2850
:1014600040F080830EF070F8484E86F898020EF037
:101470006BF886F899020EF073F8A6F89A020EF04F
:1014800063F886F89C020EF06BF8A6F89E020EF048
:101490005BF886F8A00215E65B790F2B7FF4D8ADD8
:1014A0000EF052F8072807463FF6D2AD0EF058F876
:1014B000364B0E2606FB0736A6F856010EF050F8FE
:1014C000A6F858010EF04CF8A6F85A010EF03CF8B8
:1014D00086F85C010EF038F886F85D010EF034F8FD
:1014E00086F85E010EF030F886F85F010EF042F8E3
:1014F000C6F86001E6E5284B1B785B073FF5E2ADD7
:10150000264B4FF4C8721A80DCE5C82826D15E79D4
:101510007608122E3FF69CAD0027B74206D20EF099
:101520001FF80EAB23F817000137F6E73246002309
:10153000B34207DA0EA931F81300194921F8130054
:101540000133F5E7122A05D0154B002123F81210BC
:101550000132F7E7134B01221A70B3E526D8512860
:1015600040F00083104B1B78012B3FF6ABAD0DF024
:10157000EBFF064E86F805050DF0E6FF86F803053D
:101580000DF0E2FF86F804059CE500BFD034002092
:10159000782C002020090020B03A0020300B0020D9
:1015A000902B0020B52F002098280020CA2818D1A1
:1015B0000026A84FD7F800900DF0C6FFB14489F877
:1015C0000100D7F800900DF0BFFFB14489F80B007F
:1015D0003F680DF0B9FF374401360A2E7875E8D11F
:1015E00070E5CC2840F0BE825B79092B7FF630ADE8
:1015F000994E37680DF0A8FF387037680DF0A4FFDA
:1016000078700DF0A1FF33686428A8BF64201871BA
:101610000DF09AFF33686428A8BF642058710DF05C
:1016200093FF3368FF28A8BFFF2098710DF08CFF4F
:101630003768642828BF6420F8710DF085FFB87002
:1016400037680DF081FFF87037680DF089FF2B685F
:1016500078815B790A2B7FF635AD36680DF074FF23
:1016600030722FE57D4B1B785A073FF52BAD09F003
:101670005BFB0DF021FD09F09BF923E5CE280AD193
:10168000764B1B785F073FF51DAD754A137843F025
:101690000403137016E5CF2840F064820DF060FF5C
:1016A0006FF4AF6143189BB26E4EC62B98BFA6F87D
:1016B00044020DF055FFA6F8D0000DF051FFA6F83A
:1016C000D2000DF04DFFA6F8D4000DF049FFA6F8AA
:1016D0009A020DF039FF0DF037FF0DF035FF0DF0D8
:1016E00033FF86F81F020DF02FFF86F840020DF041
:1016F0002BFF0DF035FF00EB80004000A6F8EE0157
:101700000DF022FF0DE60DF01FFF564B012883F868
:101710005804AED9002283F85824AAE7D32840F011
:1017200021820DF01DFF504B1880CBE4DC287FF4A4
:1017300049AC0DF009FF4B4E86F8C7010DF004FFD0
:1017400086F8C8010DF000FF86F8C901BAE4D9286F
:1017500011D10DF005FF434EA6F8D8000DF000FFA3
:10176000A6F8DA000DF0FCFEA6F8DC000DF0F8FE9D
:10177000A6F8DE00A6E40CD8D62840F0F3810026B7
:101780000DF0EEFE394B23F816000136082EF7D186
:1017900098E4DA280DD10DF0D7FE324E86F82202F9
:1017A0000DF0D2FE86F823020DF0CEFE86F824025C
:1017B00088E4DB283FF486ACD4E19DF8163009EBD1
:1017C000C30393F89930D8073CD59DF8163009EB40
:1017D000C30393F89820264B33F91230002B31DDE8
:1017E0009DF8163099F8317009EBC303D3F89C309B
:1017F0004FEAC70E58689DF8163009EB0E0109EB49
:10180000C309D9F89C3048631A894A8792B20021EB
:1018100001238B40134003D101311029F8D100E09E
:101820000B4606EB0E010B8748238DF83A300EA9C4
:1018300001230137ADF838208DF83B3005F0B3F9BE
:1018400086F831709DF816300133DBB28DF8163012
:10185000FFF7CEBB782C0020780B0020B03A002098
:10186000980E0020D0340020840B00200028002097
:10187000282A002096F831309842BFF4E9AB029054
:1018800000200DF0C9FE0DF08FFED9F800000CF01D
:1018900056FC2B6818680BF0BDFEC34B18680DF0A2
:1018A00033FE0CF0EFF972B6C04F4FF480634FF483
:1018B000007A7B614FF0010BC7F814A03846ADF8F1
:1018C00038300EA948238DF83A308DF83BB005F03A
:1018D0006AF9102338460EA98DF83A308DF83BB0DE
:1018E000ADF838A005F05FF9029A4FEAC20906EB9D
:1018F00009010B8FD1F834C0D8080CEB8002C6F870
:10190000F8205CF8202003F00703C6F8FC209B00B9
:10191000C6F800210F229A40D243D6F800E10BFA14
:1019200003FB02EA0E0EC6F800E1D6F8FCE002EA7C
:101930000E02C6F8FC20D6F800214FF0080E0EFA71
:1019400003FE4EEA0202C6F80021D6F8FC204BEA5C
:101950000202C6F8FC20D6F8FC304A8F4CF8203042
:101960004B6B1A61C7F810A0BB685905FCD4DFF8AF
:1019700060E240F6055BF246DEF8FC10DEF8F82087
:101980008B4E11600EEB0902506B518F4FF40072B9
:10199000416133687A61B2881A61B289B3685A6169
:1019A000BB685A0505D4BBF1000FF9D00BF1FF3B22
:1019B000F6E748230161ADF838108DF83A300EA9EA
:1019C00001238DF83B3005F0EEF8B189B368784A11
:1019D0001961B188BBF1000F12D01668BB6873485B
:1019E0005B05C4D50AEB0902536B528F9B681A4200
:1019F0004FF4007315BF0361436131617161EDE71D
:101A00006A4B4FF4007018611368196162B60A20BE
:101A10000CF0FDFB11F09EFC2B68F32283F84920AB
:101A2000FFF750BB32D8EF280AD10DF099FD614E77
:101A3000A6F8F2010DF094FDA6F8F001FFF742BB05
:101A4000F22840F08F800DF07FFD0F2806463FF60C
:101A5000FFAA0DF079FD584BC6EBC6061E44B071C7
:101A60000DF072FDF0710DF06FFD30720DF06CFD38
:101A700070720DF069FDB0720DF066FDF0720DF040
:101A800063FD30730CF024FDFFF71CBBF4284DD12F
:101A90000DF05AFDFF2807462BD10CF072FC0023F5
:101AA0008DF817309DF817300D2B3FF60BAB9DF8D6
:101AB0001720424B03EB0212127B012A14D19DF82E
:101AC00017200EA903EB021250689DF8172003EBB4
:101AD00002131B89ADF8383048238DF83A300223C1
:101AE0008DF83B3005F05FF89DF817300133DBB21D
:101AF000D6E7431E0C2B3FF6ABAA00200DF08CFD61
:101B00000DF052FDD9F800000CF019FB30680CF014
:101B10000EFC18B932200CF07AFBF7E7224BB9B271
:101B20001868002208F00CFDFFF7CCBAFA2819D18A
:101B3000234B1B785E077FF59CAD13E01D4E06F12D
:101B400040070DF00DFDA6F860030DF0FDFC86F8D2
:101B500062030DF0F9FC043686F85F03BE42F0D153
:101B6000FFF7B0BA07F03CFDFEF79ABB0C2803D193
:101B700014480DF017FF60E00A2801D00D287BD132
:101B8000114D12480DF00EFF2846232115F0D1F813
:101B900008B1401B20602368002B45D05A1EA95C69
:101BA000202917D11346F7E7742C002000080140C4
:101BB000282C0020D0340020B0350020C8B90108FE
:101BC000B03A0020F9B401081828002000CB010821
:101BD00020090020304A00212360D1542F4B304D82
:101BE000D3F80080D5F800902B4F484615F0AFF899
:101BF000064649463246384615F0B2F8294A20B919
:101C0000BB5D43445B785B0703D010359542E9D355
:101C100006E0954204D2701CEB683844984702E015
:101C200021480DF0BFFE00231B4800213022236015
:101C300015F04AF8019B1B7853B30BF0DDFCFEF75F
:101C400077BA0C2894D07F2804D1FEF771BA2F2BD5
:101C50003EF66EAAA0F12002D2B25E2A3EF668AA33
:101C600013B920283EF464AA5A1C22600A4AD054B0
:101C70000DF03EFDFEF75CBA7F28E8D1064A013B35
:101C800000210A482360D1540DF08CFEFEF750BAB3
:101C90002FB0BDE8F08F00BF18280020D40300202B
:101CA000E89C0108E89E010804B5010820B5010878
:101CB0002DE9F04FA04FA14C3A6889B002F59C4342
:101CC000203323609E4B1E78CEB19E4909688A421C
:101CD00040F20781013E1E7003E1DFF88882072D84
:101CE000D8F800308CBF2946595D974B97481B6840
:101CF0009847032D09D904EB4505A88001360DF05E
:101D0000E1FAF5B28542E8D320E0D8F8002005F1E9
:101D1000100302EB830359889A880028EBD04FF414
:101D20007A73401A5843531A90FBF3F040F6C903F4
:101D300000F57A70984205DC40F2EE239842B8BF75
:101D4000184601E040F6CA0080B2D4E742F2010A28
:101D50007F4B804E1B68D6F8008003EA0A0ABAFA65
:101D60008AFA4FEA5A1A7C4BBAF1000F05D194F85F
:101D700028201A70794A517811701B782BB1774B53
:101D800093F8009089F0010900E099460F23DFF8ED
:101D9000ECB184F8293000250DF094FA854267DA19
:101DA0006B00B9F1000F03D06D4A32F8150000E066
:101DB00048466C4ADFF8C8C111684FEA850E4A8B65
:101DC0008242694A02D8898B81421CD25CF80E009B
:101DD0005A49804501D2D05A19E0E8B203920293E1
:101DE00001910DF085FA032D029B039A0FDC0199F6
:101DF0004FF0010E91F829C00EFA05FE2CEA0E0EE6
:101E000081F829E003E008F596714CF80E10BAF15C
:101E1000000F28D194F8BC100322B1FBF2F202EBC0
:101E200042028A1AD2B203EB050E724404EB42025C
:101E3000508594F8BD202AB9022913D93F4A0121BF
:101E400082F8BD10BBF800203BF8020C1044BBF830
:101E500002201044454A80B2D05200B2032290FBC7
:101E6000F2F080B2404AD05201350BF1060B93E7F5
:101E700094F829203E4BA2F10F004242424184F8DF
:101E8000D6206AB13B4A1268510109D43268D96838
:101E90009A60521AC82A1FD9012283F821201BE018
:101EA0002E4A01215170117032689968DA605B68BE
:101EB000521A9A4282BF2E4B002283F8212000251D
:101EC0000DF000FA854207DAE8B20DF011FA264B60
:101ED00023F815000135F3E794F8BC30013384F89A
:101EE000BC301B4B1A68994612F4805F05D0214B19
:101EF0001B68DA0701D40EF0DFF91A4B3D681F6842
:101F0000387B00283ED0184ABB7B013832F81000DD
:101F10001BB1C0F53B60083080B200B2A0F57A700A
:101F2000B0F57A7FA8BF4FF47A7020EAE07011F024
:101F3000A7FB11495CE000BF8C3A0020240A002076
:101F4000F82B0020F42B0020B4000020803A002061
:101F5000F02B0020FC2B0020701700200000002038
:101F6000280A0020EC2B002084340020E20A002004
:101F7000002C0020482C002000007A44500A002049
:101F8000980A0020D9F800301B043AD5D4F8D8308C
:101F9000AB4EEB1A002B34DB05F59C432033C6F81F
:101FA000D830A84B5A79A84B33F812108AB2797BF3
:101FB00092FBF1F196F8DC20013202F00F0386F873
:101FC000DC30334483F8DD100346A04A825C0130E4
:101FD000134410289BB2F8D11BB293FBF0F000B26F
:101FE0006428A8BF642020EAE07011F049FB9849FA
:101FF00011F04EFC974911F097FB11F081FD964BC3
:102000001880D9F80030954F13F4807F00F0FA80E3
:10201000934BDFF850829D4205D998F8022012B9FF
:10202000012288F8022098F80220002A00F0EA80B5
:102030008C4A8D4992F821503A78681E45424541B4
:102040000868C2F3800BC0F3806301938A462DB900
:1020500012F0080F0CBF0026022600E0002698F8B8
:102060002020052A00F2CA80DFE802F0034C6085D8
:1020700094B1BBF1000F38D0D4F8F000B4F8F410EC
:102080000BF0ACFD012809D17849794A096812683A
:10209000C988642000FB0122C8F81020019B5BB1B5
:1020A000724A126812793AB110F012FE032288F8CF
:1020B00020204FF47A7236E0002D40F09F806C4A69
:1020C000D8F810101068674A88420AD9029210F0B6
:1020D000FFFD029A032182F8201040F6B831D16149
:1020E000BDE7012182F82010B9E7019B4FF4806021
:1020F00013B10CF089FF01E00CF076FF0022C8F864
:1021000010207BE0002D57D1584A1268127A012A1C
:1021100002D010F0DDFDA2E710F0DAFD032288F80E
:10212000202040F6B832C8F81C2098E725B10522D7
:1021300088F82020012000E02846BBF1000F0BD0DA
:10214000D4F8F0200326118A4A4A118051809180E8
:10215000464909684988D180454A1168D8F8142051
:10216000914202D8BBF1000F45D147F23052C8F876
:102170001C20032221E03A7842F002023A700EF06D
:102180009BF83B4AD8F81C1012680A44C8F818207B
:10219000042212E0364A9DB11168D8F81820914205
:1021A0002CD9354A92781AB9DAF80020D10725D40B
:1021B0003A7822F002023A70052288F820204EE791
:1021C0001268D8F81C100A44C8F8182016E02749ED
:1021D000274A09681268C988642000FB01224FF46D
:1021E0008060C8F81020002288F8202088F803209A
:1021F0000CF0FAFE33E700287FF431AF16B1304619
:1022000008F060F91D4DB5F8DE1005F50D700BF006
:10221000E5FC83461748B5F84432B0F9022003F1D3
:102220000B01914280462BDB0B3B934228DCB0F93B
:102230000020914224DB9342CCBF0023012320E005
:10224000240A00208C1600209C160020010B002080
:102250000000C84200C07F44960E0020B03A002023
:10226000404B4C00002C0020482C002080340020E3
:10227000FC2B00208434002000000020D0340020FB
:102280000023BBF1000F30D1944A1268120106D529
:10229000934AD2789AB93A78560710D528E0914BEC
:1022A000002291491A605A609A60904B0122C1F84D
:1022B00000B0C1F804B0C1F808B01A700BE0894A48
:1022C00000218948116051609160884A00230360B1
:1022D000436083601370864B00221A605A600023AB
:1022E000C4F8F830C4F8FC3004E0804A00231370CE
:1022F000804A13703B78580736D5D9F80030D90694
:1023000032D57D4B1B78DA062ED47C4B9B7893B16B
:1023100095F88932BBF1000F15D17BB1784B1A6863
:10232000D4F800319B1A002B08DA0DF0C5FF754B6D
:1023300083F804B118E0BBF1000F0DD1102008F0B4
:10234000C1F801230EE03BB16D4A4FF47A71126877
:1023500001FB0323C4F8003194F8043123B10BF0DE
:1023600091FC002384F804310022134695F888126A
:10237000B5F84662B5F848E238F912009B08B04259
:10238000C4BF63F07F03DBB201327045B8BF43F0D6
:102390004003042AF0D194F805215A489A4205D105
:1023A00090F80621F92A04D8013200E0002280F8D2
:1023B000062184F80531514B524A98789A46474E87
:1023C00028BB3368DB070AD582F80701BBF1000F91
:1023D0001DD13B78DB071AD50DF0B0FD17E03B7837
:1023E000580714D5484B1B788BB13D4BDB7873B93C
:1023F00092F807310133DBB2032B82F8073106D99B
:1024000011B10DF059FF02E0BBF1000FF9D094F8C3
:102410000631DFF8F0B0142B40F090809AF80230CB
:102420009BB19BF805315F2B0FD13B7803F0040380
:1024300003F0FF0213B10DF03FFF06E00B20019205
:1024400008F040F8019A8BF806213B7803F004036A
:1024500003F0FF01002B71D194F80531294A572B65
:1024600014D12A4B1A684FF47A73B3FBF2F3C3EB1F
:10247000431203EB8203264ADB001380254B1B68C3
:102480005B075BD5244B0A221A8057E0D9F800007D
:10249000400717D55A2B15D192F808312BB10123DB
:1024A00082F8081182F8093148E092F80A3183F085
:1024B000010382F80A310BB10C2000E00D2008F076
:1024C00001F83BE05D2B00F0BB855B2B00F0BA858B
:1024D0005E2B23D1032000F0B6BD00BF482C0020A6
:1024E000002C0020CC330020AC280020BE29002086
:1024F00028330020DC280020980E00200000002057
:10250000FC2B0020240A0020701700206C180020EB
:10251000A43A002064180020A83A0020562B01D1CC
:102520000CF082FE9AF80230002B00F0928594F8AD
:1025300005316F2B40F08D850DF000FDD9F800308E
:10254000580735D594F80A31B44A8BB13B7859070E
:102550000ED5B8F90610B5F84632994208DD336851
:1025600013F0010302BF3221A2F81C1182F80A31D4
:102570003368DA030DD594F81E21A84B2AB993F8D5
:10258000082112B93222A3F81C21012384F81E313C
:102590000EE094F80831A14A53B13B7803F00403EC
:1025A00003F0FF0123B9012382F8081182F80931F1
:1025B000DFF88CA2002333600AF1500B9AF8002058
:1025C0009AF801301AF8010C9A420BD251460BF0DE
:1025D000CDFA38B11AF8022C012303FA02F233685B
:1025E000134333600AF1040ADA45E7D18C4B1B78B8
:1025F00053B18C4EDFF84CB23368DFF84CA213F0C5
:10260000020F40F0EC81E3E1874E06F15A0A32787E
:10261000737816F8010C9A4225D231460BF0A6FACF
:1026200008B396F804E00C21B37801FB0E417F4A11
:10263000013B03EB43031344D1F8242196F803B084
:102640009A4276480FD0C1F82431002390F85021E7
:10265000C1F82831012303FA0EF322EA030381F8BB
:1026600020B180F8503106365645D0D1704BD4F8A1
:1026700054611B6803936F4B1B7804936E4B02935A
:1026800000230193029B1968002900F0968191F8BC
:1026900000A0BAF1000F00F090815B68039AD31A92
:1026A000002B0CDB02F5FA73029A5360019A0123A6
:1026B000934094F8502122EA030384F85031049B9C
:1026C000002B00F07A81029B13F8042C4B78043223
:1026D000D2B2002B40F03B81584B38F91220B3F8AE
:1026E000443203F1C800824202DD91F802B015E0E5
:1026F000C83B9A4203DA8978C1F1000B0EE0019AD7
:102700000123934094F8502122EA030384F85031C6
:10271000039B029A03F5FA7353604EE1019B94F810
:1027200050211A41D30700F14881BBF1000FCCBF03
:10273000022001200BF08CFA0AF1FF31374A1329ED
:1027400000F23381DFE811F01400250036004A0062
:1027500063008200A100BF00DD00E900F700310145
:102760004A0059008200A100BF009500B300D100CB
:1027700096F800A03046DA44BAF1FA0FA8BF4FF03D
:10278000FA0A2AEAEA7A86F800A00BF0D5F90120C5
:1027900022E096F801A03046DA44BAF1640FA8BFEF
:1027A0004FF0640A2AEAEA7A86F801A00BF0C4F92D
:1027B000022011E096F803A03046DA44BAF1640F23
:1027C000A8BF4FF0640A2AEAEA7A86F803A0D2F892
:1027D00058110BF057F903205146A9E071790D20EB
:1027E00059446429A8BF642121EAE17171710BF099
:1027F0000FFABAF10D0F00F0D88031790E2059444C
:102800006429A8BF642121EAE171317190E0B179B6
:102810000520594481F30801B17189E0240A0020A0
:10282000AF3A0020482C00207A3900205495010846
:10283000FC2B002070170020480B0020D034002013
:102840002B39002064180020442C0020D2F85C01B1
:10285000059281785944C829A8BFC82121EAE171AD
:1028600081700F200BF0D4F9BAF10F0F059A00F028
:102870009C80D2F85C21122051785944C829A8BF05
:10288000C82121EAE171517052E0D2F85C01059251
:10289000017B5944C829A8BFC82121EAE17101730D
:1028A00010200BF0B5F9BAF1100F059A7DD0D2F8CF
:1028B0005C211320D17A5944C829A8BFC82121EA34
:1028C000E171D17234E0D2F85C010592817D594406
:1028D000C829A8BFC82121EAE171817511200BF038
:1028E00097F9BAF1110F059A5FD0D2F85C21142044
:1028F000517D5944C829A8BFC82121EAE171517509
:1029000016E0D2F85C210920D1785944C829A8BF23
:10291000C82121EAE171D1700AE0D2F85C210A20D5
:10292000517B5944C829A8BFC82121EAE1715173DC
:102930000BF06EF939E0D2F85C210B20D17D5944BF
:10294000C829A8BFC82121EAE171D175F0E7012BA0
:102950002BD138F912308878B3F5617F05DB40F66A
:1029600033029342A8BF134601E04FF46173BAF1FA
:102970000C0F1AD14FF4966292FBF0F0A3F561733D
:1029800093FBF0F3A54ADBB212789A420DD01846B9
:1029900005930CF073FB059B504619460BF038F974
:1029A000059B581CC0B20BF053F9019A01239340C8
:1029B00094F85021134384F85031019B0133019363
:1029C000029B0C330293019B042B7FF45BAE10E659
:1029D000D9F80030D80511D5914BDB7873B1DBF80D
:1029E000003099070AD5BAF8003013F001030AD174
:1029F000012001930CF008FB019B05E001200CF085
:102A0000F3FA012300E00023326852070BD553B1DB
:102A100001200CF0E9FABAF800309B0706D4022036
:102A20000CF0F2FA02E002200CF0DEFA7D4BBAF86C
:102A3000002099689B8912F0030F14BF4B610B6152
:102A4000DBF8003013F00A0F2DD03368D8060DD50F
:102A500051070ED404200CF0D7FA734B0A22B3F9B5
:102A6000043093FBF2F3A4F8603102E004200CF090
:102A7000BBFA33689A0607D5BAF800305B0606D46D
:102A800040200CF0C1FA02E040200CF0ADFA3368AF
:102A9000580641BF644B0A22B3F9043093FBF2F3AA
:102AA00048BFA4F8623133684FF48070190502D52D
:102AB0000CF0AAFA01E00CF097FA5C4B5A79082A5C
:102AC00001D00E2A04D1402001930CF08DFA019B15
:102AD000D9F80020520518D593F8CC321BB93B78B1
:102AE00013F0040F02E0336813F4002F09D0504BA9
:102AF00000221A703C2006F041FD30B10CF004FDBC
:102B0000F8E705F01FFC10F025FC012384F8643180
:102B100094F8653103B3DBF8003058071CD53368EF
:102B2000190703D408200CF05FFA15E0BAF800701A
:102B300007F00807BFB27FB908200CF065FA3D4BDB
:102B40001A683D4B1A603D4BB8F80620A3F8662181
:102B50003B4B1F603B4B1F6094F8653113B3DBF8B0
:102B60000030DA061ED533689B0204D44FF400709F
:102B70000CF03AFA16E0BAF8006006F40076B6B245
:102B800086B94FF400700CF03FFA2A4B1A682A4BB2
:102B90001A602A4BB8F80620A3F86621284B1E605D
:102BA000284B1E60D4F854C1B8F90620BCF80A10AE
:102BB0008A420FDBB2F5FA6F9CF80740BFBF531A89
:102BC0006343A1F5FA6493FBF4F4ACBFC4F164046D
:102BD000643400E06424B5F844320021019395F890
:102BE0002232029395F82332039395F9D8319BB2A0
:102BF0000493154B1F6840F2E630144B4FEA410A2C
:102C000033F91190019BC3EB090303F2F3158542DD
:102C10001ED8002BB8BF5B421CE000BFC42C0020B4
:102C2000002C0020282C0020C0280020D0340020B8
:102C300080180020DC310020E8310020240A002028
:102C4000F0310020F4310020782C00208434002062
:102C50004FF4FA7302294FF06400534E2AD0029DBC
:102C60001DB1AB42CCBF5B1B002393FBF0FE4F4D6D
:102C70006FF0630B35F81E800BFB0E3B0EF1010E5F
:102C800035F91E500FFA88FECEEB050505FB0BF556
:102C900095FBF0F5454426F80A500CEB01052D791B
:102CA0006B43434D93FBF5F364339BB2634393FB58
:102CB000F0F02BE0039D1DB1AB42CCBF5B1B0023AA
:102CC00093FBF0F03B4D6FF0630808FB003B05EB16
:102CD000400E05EB4000BEF968E1B0F96A01002B37
:102CE000CEEB000000FB0BFB9BFBF8FB0498CEEB4C
:102CF0000B0B0BFB00FBA6F804B09CF80600B8BF5A
:102D00005B4243432A4893FBF0F064307B784FF0FA
:102D1000640E434393FBFEF3274D02296B54FB7A69
:102D2000264D00FB03F393FBFEF36B547B7D1E4D9E
:102D300000FB03F090FBFEF0214B5854214B0BD1CC
:102D400083F802E0019B99450ADB1F4B1F4C186872
:102D500010F4805010D11DE05C54019B994504DAB9
:102D600035F80A305B4225F80A300131032907F1B2
:102D700001077FF440AFE8E7B2F57A7F05DBB2F5F3
:102D8000FA6FA8BF4FF4FA6201E04FF47A72A2F52D
:102D90007A7226E0B4F846128A4219DBB2F5FA6F6D
:102DA000A8BF4FF4FA6214E0B82800208A28002057
:102DB0000CFEFFFF240A0020303300209A0B002075
:102DC000C8330020D4280020F02B0020D03400206D
:102DD0000A46521A4FF47A735A43C1F5FA61B2FBAC
:102DE000F1F2642392FBF3F7DFF83CC36FF0630E5C
:102DF0003CF817100EFB072201373CF917700FFA49
:102E000081FECEEB07077A4392FBF3F30B449BB2B0
:102E1000EB80C8B1AF4A1268970015D5AE4AD27898
:102E200092B9A3F57A7212B24FF47A73120392FB3D
:102E3000F3F2B4F84412C1F5FA6000B202FB00F3F9
:102E4000A64A01EB2333D380A54B1B8803F0400334
:102E50009FB2002F44D0A34B0A20B3F9043093FB58
:102E6000F0F0A14BB3F86231C01A00B210F008FCC8
:102E70009E4910F059FC9E49804610F04DFB0CF025
:102E800042F8814640460CF03EF88046B5F9020013
:102E900010F0F6FB8246B5F9000010F0F1FB494650
:102EA000834610F041FC41460190504610F03CFC36
:102EB000019B0146184610F02DFB10F0FBFD494622
:102EC0002880504610F030FC41468146584610F0AC
:102ED0002BFC0146484610F01FFB10F0EBFD68800C
:102EE00094F84B02002859D0002F57D17E4C814DC9
:102EF00094F87931834212D084F8790110F0C0FB44
:102F00007A4910F011FC7A49074610F005FB0BF0E6
:102F1000FAFF686038460BF0F6FFC4F87C01B6F99A
:102F2000000010F0ADFB0746B6F9040010F0A8FB56
:102F3000D5F8048081464146384610F0F5FBD4F8B8
:102F40007C5104462946484610F0EEFB01462046D7
:102F500010F0E0FA10F0AEFD674CB0F5FA7FA8BFB4
:102F60004FF4FA70A042B8BF204641463080484630
:102F700010F0DAFB29468046384610F0D5FB0146B2
:102F8000404610F0C9FA10F095FDB0F5FA7FA8BFE1
:102F90004FF4FA70A042B8BF2046B080574B1A7861
:102FA000540704D5564B1A689B8853613EE0494943
:102FB0000968C8075CBF42F001021A70514A1278D2
:102FC000110758BF1A7850495CBF22F001021A70ED
:102FD0004E4A126812F0040F02D04D48008878B9AA
:102FE0004148B0F80C0108B1920709D4494A128847
:102FF000003218BF01221AB947480088642806D950
:1030000002220A701A7822F001021A7005E01B7879
:10301000DB0756BF02230A700B700BF0D1F83F4B51
:103020001B68C01A002801DB0CF0ACF93C4B9B6814
:10303000002B00F08D803B4809B0BDE8F04F1847E9
:10304000012000E002200138C0B20CF0DBF8FFF7ED
:1030500075BA94F80531244A972B05D14FF4C873FB
:10306000A2F80C31FFF76ABAA72B06D1254A1378CC
:1030700043F004031370FFF761BA0021BB2B0791E3
:1030800001D1022303E0B72B04D14FF6FE73ADF854
:103090001E3009E0BE2B01D1022303E0BD2B45D138
:1030A0004FF6FE73ADF81C30BDF81C20B5F8F031BA
:1030B0001344A5F8F031BDF81E20B5F8F2311344E1
:1030C000A5F8F2310CF0B0F8002384F80631FFF7D0
:1030D00035BA00BF482C0020002C0020B828002062
:1030E000442C0020C0280020240A002035FA8E3C01
:1030F000DB0FC93F000000200CFEFFFFB03A0020AC
:10310000282C0020980E0020242C00206418002079
:10311000A83A0020A43A0020C62C0020402C002011
:10312000B0170020A40B002072280020792B04D1B6
:1031300092F8133123F0010306E07A2B7FF4FEA905
:1031400092F8133143F0010382F81331FFF7F6B917
:1031500009B0BDE8F08F00BF2DE9F04F9D4B9FB047
:103160001B689D4C9D6A0BF02BF823689B4EC01A80
:1031700030800BF025F89A4B20601A780693012ACC
:1031800001BF3288974B1A80974A04BF12885A8031
:10319000964B17A8DB6898479DF85C3023B12379DC
:1031A000002B00F04F830AE00BF00AF8904A2368E6
:1031B0001268EB1A184450329042E9D3EFE70CF052
:1031C000B1FD08B90CF0C4FD8A4D95F84A321BB91F
:1031D000894B1B88002B4ED0884AE18812687E4BB1
:1031E000B1FBF2F1864A481C127880B220811AB3F2
:1031F000B3F90AA00023784E824A06F10C0832F88F
:1032000013C038F913200FFA80F90AFB02F292FB7F
:10321000F9F206F1140E3EF813702EF813C0C7EB46
:103220000C07174428F813700133042BE3D1744BB7
:1032300000221A70718102E05A89013A5A81B4F968
:103240000A00654A00284FF0000313DDB2F9086058
:103250006D49A1F1080232F9132031F813104243ED
:1032600092FBF6F28A1A674921F813200133042BE6
:10327000EED100E05381654B01221A70644B5D4E24
:10328000186810F0080F42D05E49DFF8B0E18F886F
:1032900007F10E039BB21C2B5E4BB3F9043031D8FF
:1032A000554A128852072DD50A2293FBF2F2BEF836
:1032B0000030D21A92B293B20FFA83FE1EF1B30F0E
:1032C000BCBF02F5B4739BB2DFF850E11AB2B32A67
:1032D0009EF800E0C4BFA3F5B4739BB21EF0080FC4
:1032E00096F8D82113D052B2524253434A4A1BB2E5
:1032F0001268527A53436FF01D0293FBF2F31F449E
:103300008F8004E00A2293FBF2F3AEF8003010F055
:10331000140F00F0AF80384B1B8803F40273002BAE
:1033200000F0A8803D4B37481B7803F0100303F0F2
:10333000FF0E43B13A4B96F996121A68438801FB87
:103340000233438096E0E369234ADF783549DFF8AA
:10335000F0C09B7837B3BCF90070B1F906C0C7EB79
:103360000C010029B8BF494299420EDD2E49BC45E7
:10337000C1F800E04FF0010182F82010C8BF5B42A5
:10338000C2889BB21344C38074E092F820302BB102
:10339000264B82F820E01968254B1960204B1B68EA
:1033A0003B445DE0BCF900E0B1F90610CEEB010151
:1033B00081EAE17CACEBE17C9C4543DD022391FB9F
:1033C000F3F11C4B19601C4901230B7082F820306B
:1033D00043E000BF98310020A80B0020A63A00204F
:1033E000A6160020A8160020C62C0020B01700202A
:1033F0006C180020D0340020442C0020D828002055
:10340000880B0020B8280020BC0B0020890B00206E
:1034100064180020C0280020782C0020980E00207E
:10342000F431002084340020F0310020DC31002011
:10343000E8310020943A0020F8310020840B00206D
:103440008A0B002092F820303BB1A04B82F820700C
:1034500019689F4B19609F4B1F709F4B1B687344EB
:10346000616A0A884988934203DB8B42A8BF0B46F6
:103470001A46C280994B1B78B3B1994BB3F9062019
:10348000B6F846329A420FDC964B5B79012B01D09D
:10349000192B02D196F8902232B90E2B04D0082BAA
:1034A0001EBF914B00229A8096F810727FB38F4B0B
:1034B0001B8898072BD08E4B8E49D3F8208040462E
:1034C00010F0DAFAF0B9404613F0BAFEA16A10F033
:1034D0002BF913F03BFEB0F5617FA8BF4FF461708C
:1034E00010F0CEF8844910F0D3F90BF00CFD8046B3
:1034F000384610F0C5F8414610F016F913F026FED4
:1035000080B200E00020784AD3881844D0807B4BFA
:103510001878002840F09481794B1A68984612F484
:10352000002F00F08D81774F3B78033B052B1AD895
:1035300096F8053533B1012B08D10EF08BFDC0F1A3
:103540007F0003E0E06A03689B689847236B94F868
:1035500034201344B3F5807FA8BF4FF480738342B7
:10356000D4BF236320633B78023B092B00F26381C5
:10357000DFE813F00A0012003F006101610156000C
:10358000670018013B01460100232363A3635E4BE0
:103590001B68E36303234DE15B4B1A68E36B643301
:1035A0009A4240F24881402007F0FEFD002840F09A
:1035B00042814FF04008554DA36B554EE85C60B119
:1035C00006F060F8336BB8F1010803F1FF333363A1
:1035D000B36B03F10103B363EDD1A26B4C4BAA5C57
:1035E000002A40F028819A634FF0FF32DA63042307
:1035F00020E12A230093474B492003F10C02019359
:1036000002925021A3F10A02023306F0DFF80028EB
:1036100040F011814FF0FF33E363A063072309E11A
:103620003D4A05230021009301910291532002F1AC
:10363000080306F0CBF8002840F0FD80A0630823C3
:10364000F8E0402007F0B0FD002840F0F480A36BC4
:103650000C2B00F2ED85DFE803F0070B0E121829A2
:103660002D31357D889296002C4807F011FF95E0AA
:103670002B482C4917E02C482C492D4A8CE02D482A
:1036800096F8031596F8042586E095F858245C23EF
:103690005343EA1892F8D4230C2101FB02331D4452
:1036A000254895F8D61307F0F3FE77E02348B6F8DF
:1036B000D010F8E72248B6F8D210F4E7214B2248A0
:1036C0001969F0E7214B22481988ECE7DC3100202A
:1036D000E8310020F8310020F43100200200002001
:1036E00084340020D0340020B8280020442C00204E
:1036F0006C2B00208FC2753CEFB6B044AF3A00206F
:10370000F02B002098280020FC2B00209095010829
:10371000A80B0020FA950108E897010884B6010873
:103720009EB6010871B50108B3B601085CB5010881
:1037300068B50108C7B60108D8B60108E2B60108A5
:10374000F1B60108B017002000B7010808000020FA
:1037500010B70108236CD90403D5A74896F81212B4
:10376000A1E7A64B0B229A6318E0A54896F816121B
:1037700096F8172296F8153207F08AFE0EE0A14857
:10378000B4F844108FE7D8F800301A0506D59E48E3
:10379000B6F81C12B6F91A2207F07AFEA36B0133B1
:1037A000A36348E0994B1B689B011BD5B4F84830D4
:1037B000924DBBB9964BD5F84C8045201E6805F05C
:1037C00061FF0E2005F05EFF404607F0D5FD304654
:1037D00007F0D2FD4FF48053A5F846300A233B7022
:1037E00006F074F905F0D4FF25E094F85030002B72
:1037F000F6D0864B1B689E01F2D409233B70F1E79B
:10380000844B1A68E36BC8339A4203D996F805557E
:103810007DB904E007F00EFD0028F7D10BE0E06A67
:1038200009F01CFF94F85130E562022B01D10FF032
:1038300091FD01233B7007F0E7FC08B101233B70C9
:1038400000232371744B0FAD5B682846984700280E
:1038500000F03C81069B18780023704E032804BFBB
:1038600056F823106E4F4FEA830208BF27F8131053
:1038700035F913100133032BB150EED16748694B72
:1038800001461A7803F0F0FFD4F854800021404636
:1038900010F0DEF870B1644B1B88002B00F0EC8058
:1038A000D4F8C830614F1B7807F10C0505934FF031
:1038B00000086EE0514B93F8585095B95C4B1A686C
:1038C000994672B14D4F404607F15C012944D9F841
:1038D000002024350BF040F86C2DF3D1012387F83C
:1038E000583094F85830002BD5D0002556F82500D4
:1038F0000FF0C6FE4F4B242101FB05310AF0F9FF02
:1039000013F024FC46F825000135032DEED1C2E763
:10391000D5F800C009936146CDF81CC008900FF09F
:10392000F9FD099B834618460FF0AAFE014658464A
:103930000FF0AEFFDDF81CC0014660460FF0ECFD55
:103940000346089A19466860104607930FF0E2FD97
:10395000014658460FF0E8FEA9680FF0DDFD079B11
:10396000E8602B60A860DFF8D0B00023BAF1010F47
:1039700046F8093049F80B30DFF8ACA030D008F138
:103980000108B8F1030F07F1040705F1140500F071
:103990008880254B56F82800B3F800A0244B4FEA46
:1039A00088091A684FF47A73B3FBF2F3C3EB43123E
:1039B00003EB8203DB009BB29A4502BF00233B600E
:1039C0002B613B6803443B600FF05AFE2B690133C7
:1039D000012B2B619CD1002368602860AB60C2E79B
:1039E000286901282ADD01380FF04AFE0146E868FF
:1039F0000FF04EFF23E000BF1AB70108A80B00200C
:103A000027B7010840B701084BB70108482C002030
:103A10008C3A0020FC2B0020B0170020C828002082
:103A2000A8160020D9170020A43A0020740C00200A
:103A30006C180020040C0020BC0C0020002013F0A7
:103A4000DBFD0599A54BC9B10790084608930FF017
:103A500017FE079A0146104610F022F8089B68B13D
:103A60001A684FF47A73B3FBF2F3C3EB431203EB20
:103A70008203DB00AAF8003000231CE01A684FF430
:103A80007A73B3FBF2F3C3EB431203EB8203DB0065
:103A90003A689BB202EB530292FBF3F34BF8093006
:103AA0006DE7BAF80000012801D106F00BFDBAF865
:103AB0000030013BDEE78A4956F8232051F82310F5
:103AC000521A46F823200133032BF4D194F8203105
:103AD00023B1844A013B82F82031B5E3824D0021B5
:103AE000D5F8E0010FF0B4FF20B995F8E831013BBB
:103AF000DBB200E0012384F820317C4B7C49B5F82F
:103B0000262200930D687B49443B08687A4909687E
:103B1000A8477A4B7A4ADB7808937A4B1E78032EB3
:103B200017D9704BD3F824315D88B5F5FA7F10D2E0
:103B3000754BB2F90470B3F9040069420028B8BFAC
:103B400040420B1A9F4203DB2B18BB42A8BF3B46E7
:103B500093806E4B1B6893F807B0BBF1000F1CD02D
:103B60006B4909688D0715D56A490978012911D96A
:103B7000DB78694D59432D88CB1A9D4288B203DB0F
:103B8000A9420B46A8BF2B4601B209031BB291FB09
:103B9000F3F301E04FF48053049313880027059357
:103BA0003D46D4F824313C460793069BB2F8028088
:103BB000B2F904901B78DFF874A1B5424ED20FFA27
:103BC00088F009930FF05CFDDAF808100FF0ACFDF7
:103BD0000690BDF914000FF053FDDAF804100FF051
:103BE000A3FD069A014610460FF096FC079B06902F
:103BF00093F90000404209FB00F00FF041FDDAF8B4
:103C00000C100FF091FD069A014610460FF084FC4F
:103C10000FF050FF11AA80B2099BBBF1000F03D037
:103C2000049900B24843001322F8150011AA32F893
:103C3000152020B211B2814204DC38B28142B8BFF3
:103C4000174600E01446052B04D1042D9CBF3349D0
:103C500021F8152001350AF1100AAEE72C4AE71BBE
:103C60001368BFB213F4805F1E48274B96462C4959
:103C70005ED02C4AB3F806801278D0F8EC315407A5
:103C800058BFD0F8EC211D8A274B58BF128A1B68F9
:103C900058BFA0F8E821DA880FFA88FCC2EB0509C2
:103CA000CC45104C03DC1A880B681D8805E02A44BB
:103CB000944505DB0A685D885288A4F8E8813CE0F9
:103CC000B4F9E8214A45D5BF1A880A680B685D88AF
:103CD000D9BF1D8890465288A8462EE06C18002057
:103CE000BC0C0020A80B0020D0340020043700209A
:103CF000BC000020782C0020780B0020002C002035
:103D0000B8290020D7280020B828002084160020D9
:103D1000F02B0020C0000020D8160020A81600209C
:103D2000E42A0020B03A0020E02A0020D00C002035
:103D3000B3F806800B681D885A881FFA82FCA9B266
:103D4000C1EB0C053AB22DB2AA426F4B24DD01241F
:103D50001C702C0394FBF2F24FF0000CC0F8F02121
:103D6000B4450BD211AB33F91C9002FB09F9C9F32E
:103D70000F3923F81C900CF1010CF1E7022395FB9D
:103D8000F3F3CD18614BADB21B78062B0FD1022E89
:103D90000DD85F4B5F800AE000241C70022492FB68
:103DA000F4F28D18C2EB0C02ADB294B200E02C46D6
:103DB000DEF80010B0F9E83101F4805201F0100192
:103DC0000991544904930978D0F8EC3101F00401C9
:103DD000C9B20591504951480968D0F800B001F0C6
:103DE000006106914E494F48B1F9061007680791E6
:103DF000DFF8549171000A914FF0000A0A998A4540
:103E000051D011A93AF801C00FFA88F00D920C9325
:103E1000CDF82CC00FF034FC434951F83A100FF0A4
:103E200083FC0FF047FE29B28842DDF82CC00C9BC2
:103E30000D9A03DB21B28142A8BF01468C44089948
:103E40001FFA8CFC29F802CF0FFA8CFC09B1B98853
:103E50000FE06AB1BBF80600198A091A0498884273
:103E600003DC3988BBF8000004E0BBF8021000E076
:103E7000398878888C4503DB84456146A8BF0146B4
:103E8000A9F80010099959B1059949B142B90699A3
:103E900031B9598A07988842BCBFB988A9F800107F
:103EA0000AF1020AAAE71B4B1A7802F0040202F098
:103EB000FF034AB11D491E4F91F8F431013BDBB2BB
:103EC000182B00F2448109E0B342F3D2194A32F8C8
:103ED0001310194A22F813100133F5E701229A4012
:103EE000164B1340002B00F03281154B0C481B88F9
:103EF00013F4807F2AD0134B1A88ADF85C205A88BF
:103F00009B88ADF85E2037E0DD280020A616002053
:103F1000A8160020B03A0020482C0020E02A0020FB
:103F200084340020E42A0020D00C0020A80B0020BC
:103F30004009002000280020282A0020992098010C
:103F4000442C0020B8280020262A0020C04B1A88C4
:103F5000ADF85C205A889B88ADF85E20BD4AADF86C
:103F600060301268D20409D5D1F8EC21B0F90640CE
:103F7000128A944202DA5B42ADF86030B64D4FF4DB
:103F80007A72B5F902304FF4616403F5E16353438B
:103F900093FBF4F3A3F5FA73ADF87430B5F9003080
:103FA00003F5E1635A4392FBF4F2AC4BA2F5FA72CB
:103FB0001B88ADF87620A3F2DC53ADF86230D1F85F
:103FC000EC3102881B8AD21AADF864204288D21ADA
:103FD000ADF866208288D21AADF86820C288D21A5D
:103FE000ADF86A200289D21AADF86C204289D21A43
:103FF000ADF86E208289D21AADF87020C289D31A2A
:10400000ADF872300023002227F813200133082B6B
:10401000F9D1934B93491B68934D0493934B1B68C1
:104020000593934B1B78C3EBC30301EB030B59457B
:1040300074D00B7833B103F1150201239340049A35
:10404000134067D0059B11F806CC4FF00E0E0EFB07
:104050000C3EBEF90020BEF9023064209B1A11F913
:10406000022C9BB25A4392FBF0F211F805AC4FEAD6
:10407000530911F8034CC9EB02024FEA4A061EA885
:1040800092B211F8018C064414B936F81C0C0CE0FD
:10409000B5F9000036F91C6CB04208DA04448442D9
:1040A00003DBA6423046A8BF2046288008E007DD93
:1040B000041BB44203DB8442A8BF044626462E807C
:1040C000DEF80A40012000FA0AF02042B5F900604B
:1040D00011F9040C12B200FB06F04FF0640690FBDD
:1040E000F6F014BF4FF0FF34012490420ADB4FFA80
:1040F00088F25A4392FBF6F2C9EB020212B28242F4
:10410000A8BF02465B4B33F81C9002FB049423F8D3
:104110001C4000E02B800235073188E7534B564E98
:10412000D3F8008000250E2303FB058393F9064096
:1041300036F9023FE8B26343642493FBF4F434801D
:104140000AF0EEF901352044082D3080EBD1414BC7
:10415000464D1B6813F0200F33D000200AF0E0F921
:104160003880064601200AF0DBF93D4B414C1B68C4
:1041700078801B0625D5414B374AD3F818321B7877
:10418000012B21D12968B2F9003091F914E0B2F97C
:10419000022003FB0EFE91F906304FF0320C5B4219
:1041A00053439EFBFCFE6FF0310293FBF2F293FB54
:1041B000FCF31FFA8EFE7244B11873442180184438
:1041C00060802D68002319E0D5F800E0B2F90230D4
:1041D0009EF906105943322391FBF3F131442180BB
:1041E0009EF91460B2F9001001FB06F292FBF3F2A3
:1041F0001044E5E70133082B3A5310D00E2101FBA0
:10420000035137F91300B1F900205C009042B1F975
:104210000210EFDB0AB28242A8BF0246EAE70BF0C7
:1042200081FD08B10BF094FD144B01221A710BE0D3
:1042300007F000F800283FF4FEAA4FF48053A4F8DA
:1042400046300A23FFF7F6BA1FB0BDE8F08F00BF73
:10425000B8290020F02B0020C0280020282A0020A8
:10426000482C0020EF2A00209E0D00204C28002022
:10427000E82A0020400900203E090020A80B002069
:104280006B4B6C4A2DE9F04F5E8914684FEA062AA1
:10429000B4EB0A0A9C884FF000054FEA04481C89D9
:1042A0004FF0000BA4FB0A6765EB0B0B04FB0B77CD
:1042B000F40944EA476418EB04065C884FF00009EF
:1042C0004FEAE7154FEAC438DC8849EB050787B0A9
:1042D000CDE90467A4FB0A6704FB0B77340A44EAC0
:1042E000076418EB04064FEA27259C894FF0000964
:1042F00049EB0507CDE90067AAFB046704FB0B77D0
:10430000F40D44EA472414F5FA664FEAE75545F1FF
:104310000007B6F5FA6F77F10003CDE9026796461C
:1043200066DADDE90489A4FB046704FB05F34FF0BA
:10433000050C07EB4307A6FB0C230CFB07335F10B0
:104340004FEA3206B8EB06084FEA920646EA837651
:1043500069EB07099F10DDE90023921B63EB07035C
:10436000CDE90023DDE90267334A4FF0FF3396427F
:1043700077EB0303CDE9048927DA40F6AC5200233A
:10438000A4185D4104FB05F3A4FB04456FF006028D
:1043900005EB4305664202FB0566A4FB022333449A
:1043A00018EB020649EB0307CDE904670B26A4FBD3
:1043B000062306FB0533DDE900455B104FEA3202B8
:1043C000A41A65EB0305CDE90045DDE902450AFBCA
:1043D0000BF3AAFB0AAB0BEB430B4FEADA7242EA90
:1043E0004B02A41A4FEAEB7365EB0305CDE90245D6
:1043F000DEF80440009B019DA4FB032304FB05336E
:104400004FEA525848EAC3284FEA6359DDE90423CA
:10441000B8EB020269EB03039946D30B43EA494325
:1044200000B1036009B1029B0B6007B0BDE8F08FDB
:10443000DC170020C80D002024FAFFFF2DE9F04F03
:1044400087B06C4C02916C4922888E680546C2EB9D
:1044500026135B435200C2EBE602B4F902601B1361
:104460005643B4F90420B4F90A0053439B1303EBF9
:10447000E62606EB860380331B12B6F5FA384FEAC0
:10448000E6770493CB6847F1FF39A8FB08AB0393A9
:1044900008FB09F3B4F908200BEB430BE389A66191
:1044A0000593D31708FB03F102FB0911A8FB0223B4
:1044B0000B44C1171F030AFB01F300FB0B33AAFBDC
:1044C00000011603194447EA1257020A42EA016240
:1044D00092194FEA2123E6887B410032A2FB0601B4
:1044E00043F5004306FB03114B100093CB170193D8
:1044F000DDE900231343B4F810E0B4F80CC06DD02C
:104500000FFA8EF0C1170AFB01F1AAFB002300FB92
:104510000B11BDF914600B44F71708FB07F106FBFC
:104520000911A8FB06670F4479047004801841EA5A
:10453000D6315941039B0FFA8CF8C3F5801E7246A1
:10454000D317002212184FEACE764FEAC3774FEA0C
:10455000C8034B4147EA5E07B61A67EB030740F60C
:104560003543A6FB030103FB0711DDE900230FF030
:10457000E7FAB4F916204E1302FB06FE470B47EA92
:10458000C147D31707FB03EEA2FB0723564373442F
:1045900007FB0366A2FB07233344560E46EAC31605
:1045A0008219B4F914604FEA636741EB0703714362
:1045B000F71700FB0717A6FB00013944C60C46EAB3
:1045C000413692194FEAE1474FEA1221B4F912201D
:1045D0007B4141EA036113010B4400E000230DB16C
:1045E0001B0A2B60029B13B11A46049B136007B091
:1045F000BDE8F08F48180020C80D002070477047B4
:104600002DE9F041324C334D62892B8AB4F9048094
:104610009A1A2389B4F902E05A43B4F91230D61336
:10462000B4F91420DB02324493FBF2F232440A263E
:10463000E2615643A2F57A6202FB02F3B4F90EC0BE
:1046400002FB0EFE02FB08F2B4F90C801B130CFBFC
:1046500003FC03FB08F31B1403EB62320232E38812
:10466000921002F5004253434CF25032B4F92070DC
:104670004FEAEE2EB4F900400EEBEC2C0CEB840468
:10468000BC406D690234A5EBA4043A4162434FEA91
:10469000D3384EBFB2FBF8F35400B4FBF8F340F646
:1046A000DE3448BF5B001A12524362430A4C08369C
:1046B0005C43241404EB224202F6CF62361103EB72
:1046C000221300B1036001B10E60BDE8F08100BFAC
:1046D000F0170020C80D002043E3FFFF13B50C4B7B
:1046E00004465B681B20022101AA984770B19DF81F
:1046F00004209DF8053043EA022303F54E5310339E
:104700004FF48C7293FBF2F32333238002B010BD7D
:10471000C8170020054B1A7E02F0FF0122B10122CA
:10472000027000221A76704701707047C80D002091
:1047300037B5104B04465D68187806216A46A847CD
:10474000A8B19DF800209DF80130012043EA022322
:1047500023809DF802209DF8033043EA0223638002
:104760009DF804209DF8053043EA0223A38003B09E
:1047700030BD00BFC817002013B5104B04465B685E
:104780003B2006216A469847A8B19DF800209DF875
:104790000130012043EA022323809DF802209DF886
:1047A000033043EA022363809DF804209DF805301E
:1047B00043EA0223A38002B010BD00BFC817002047
:1047C00010B5224C2368998A89B211F4706F1EBF0C
:1047D0001F4A0120507611F4E06F2BD01A8B9A8873
:1047E000890522F480624FEA02424FEA12429A801F
:1047F00020D41A8892051DD41A88D0050FD51A889E
:10480000D105FCD41A8892B242F400721A801A8838
:104810009205FCD40F4B187801F07FFC0AE01A884F
:1048200092B242F400721A809A8822F44072120402
:10483000120C9A802268938A23F470631B041B0C69
:104840009382054B00221A7010BD00BFA40E0020F9
:10485000C80D0020A80E0020BC0E0020054A08B597
:10486000138801339BB21380034B187801F055FC79
:10487000002008BDC82C0020A80E002008B54FF469
:10488000804002F06FFF012801BF044B4FF48042CB
:104890005A61034B08BF987608BD00BF0004014071
:1048A000C80D002010B5074C2368186902F05AFFA4
:1048B00030B123681A69044B5A61044B01221A76FD
:1048C00010BD00BFD417002000040140C80D002017
:1048D000F8B50E461746084C4FF48055656140F018
:1048E00080000EF06BFC3846002132460EF038FC9A
:1048F00025610120F8BD00BF000C014070B50E46D7
:10490000054C4FF4805565610EF058FC30460EF0B2
:1049100055FC2561012070BD000C014070B5104CA4
:104920000546192009F073FCA3681520002198475B
:1049300010B9022009F092FCA36845F01801162076
:104940009847A368002117209847A36801213D20BC
:104950009847A3683E200121BDE87040184700BF7A
:10496000C8170020F0B5274D85B0EB7E002B46D14F
:10497000254C2368002B42D01A68244E12B1B1692D
:104980000A43B2619A889868ADF8002002228DF837
:104990000320694604228DF8022002F004F9B3696D
:1049A000002743F00103B36123680126187B197DBA
:1049B00002F0E4F82368164993F9150009F09CFC0D
:1049C0002368144A1B695361029308230DEB03000B
:1049D0008DF80D308DF80C708DF80E6002F092FE9F
:1049E000236801A85B7D8DF806708DF804300323E1
:1049F0008DF805308DF807600EF094FBEE7605B06B
:104A0000F0BD00BFC80D0020D417002000100240E8
:104A1000A54800080004014037B50546FFF7A2FF8E
:104A20002C4B1A682C4B9A420ED14FF40053ADF820
:104A3000043002238DF80730042328480DEB0301CE
:104A40008DF8063002F0AFF8254CFFF78BFFA36816
:104A500080216B209847642009F0D9FBA3680721C7
:104A600068209847642009F0D2FBA36800216B20DE
:104A70009847642009F0CBFBA36801216B2098477D
:104A80000F2009F0C4FBA36818211B2098470F20B2
:104A900009F0BDFBA36818211C2098470F2009F0DE
:104AA000B6FBA36829461A2098470F2009F0AFFBF0
:104AB0000C4AA368117819209847642009F0A7FBD5
:104AC000A368102137209847A36801213820984710
:104AD00003B030BDB0000020001BB7000010014043
:104AE000C81700206818002008B5FFF73BFF024BED
:104AF0004FF400621A8008BD0800002070B505461A
:104B0000154CFFF72FFFA36880216B209847642086
:104B100009F07DFBA36803216B2098470F4AA36827
:104B20001178192098470F2009F071FBA3682946D6
:104B30001A209847A36818211B209847A3681821BA
:104B40001C209847A368022137209847A368382083
:104B50000121BDE870401847C817002068180020E0
:104B600008B5FFF7FFFE074B5B7813B1012B03D0AD
:104B700008BD4FF4806201E04FF40062024B1A80DE
:104B800008BD00BFC41700200800002010B5400079
:104B9000204CC0B220702048204C017020480021D9
:104BA0000170012020701F4C23601F4C23601F4B9D
:104BB0001A701F4A1F4B107059761F49086811461A
:104BC0001A4630B383889C0515D40388DB050DD4C1
:104BD0004FF480530488A40502D5013BFAD112E0BA
:104BE0008BB103889BB243F48073038083889BB2AC
:104BF00043F4407383804FF48053087810B1013B35
:104C0000FBD100E013B9BDE8104027E6507E80F0EC
:104C1000010010BDAE0E0020AC0E0020AA0E002038
:104C2000B40E0020B00E0020B80E0020AD0E002003
:104C3000BC0E0020C80D0020A40E002007B50021E6
:104C400001AB03227720FFF7A1FF9DF805309DF807
:104C500004001B0243EA00439DF80600184303B01A
:104C60005DF804FB08B5FFF7E9FF014B586008BD8C
:104C7000C80D002008B5FFF7E1FF014B186008BD23
:104C8000C80D002007B5F7216B4606227620FFF7F6
:104C90007DFF9DF800309DF801101B0343EA0113CE
:104CA0009DF80210094A43EA1113D3609DF80330BE
:104CB0009DF804101B0343EA01139DF8051043EA15
:104CC0001113936003B05DF804FB00BFC80D002012
:104CD0000F4B13B51B780F4C0BB1A37EB3B103225E
:104CE00001AB7720F621FFF751FF9DF805309DF8C5
:104CF00004201B0243EA02439DF806201343064AA0
:104D0000B2F92020C2F10802D340636102B010BDA5
:104D100090000020C80D0020F01700200A4B13B5AA
:104D20001B780A4C0BB1A37E63B1022201AB772042
:104D3000F621FFF72BFF9DF804209DF8053043EA8C
:104D40000223238202B010BD90000020C80D002075
:104D500030B505460C46134629462246BDE830408C
:104D6000682013E713B50622044601211C206B4678
:104D7000FFF70CFF08B39DF801309DF800200421D7
:104D800043EA022242F38D0292FBF1F29DF80230D7
:104D900022809DF8032042EA032242F38D0292FB17
:104DA000F1F29DF8043062809DF8052042EA032369
:104DB00043F38D0393FBF1F3A38002B010BD13B551
:104DC00006220446022118206B46FFF7DFFEB8B129
:104DD0009DF800309DF801209B0803EB02232380FF
:104DE0009DF802309DF803209B0803EB02236380AB
:104DF0009DF804309DF805209B0803EB0223A38057
:104E000002B010BD314B2DE9F3411B780546002B54
:104E10003BD0002426462746A046013453203221A9
:104E200008226B46E4B2FFF7B1FE08B9002049E062
:104E30009DF801209DF80030202C03EB02231BB2CB
:104E40009DF8032098449DF8023003EB02231BB227
:104E50001F449DF805209DF8043003EB02231BB28C
:104E60001E449DF8073003F07F0301D0002BD4D1FE
:104E700098FBF4F897FBF4F796FBF4F6144BA5F8BF
:104E800000806F80AE801C771CE053203221062208
:104E90006B46FFF77BFE0028C8D09DF801209DF8E7
:104EA000003003EB02232B809DF803209DF8023095
:104EB00003EB02236B809DF805209DF8043003EB83
:104EC0000223AB8002B0BDE8F08100BFDA170020FA
:104ED000C80D002013B502AB03F8012D4000214A94
:104EE000C0B21070204A00201170204901220A70BF
:104EF0001F4908701F490B601F490B601F4B204959
:104F00001A700A701F4B204A587610681A4630B340
:104F100083889C0515D40388DB050DD44FF480539A
:104F20000488A40502D5013BFAD112E08BB10388B5
:104F30009BB243F48073038083889BB243F4407335
:104F400083804FF48053087810B1013BFBD100E01F
:104F500013B9FFF783FC02E0507E80F0010002B03D
:104F600010BD00BFAE0E0020AC0E0020B40E00201D
:104F7000AA0E0020B80E0020B00E0020AD0E0020BA
:104F8000BC0E0020C80D0020A40E00207720482170
:104F900001229FE77720582101229BE77620F42108
:104FA000312297E7064B002193F82020054B920110
:104FB000343299767720F42102F0FC028AE700BFB0
:104FC000F0170020C80D0020034B00229A767720AE
:104FD000F4212E227EE700BFC80D002003460A46BA
:104FE0006820194676E713B500222A211C20FFF716
:104FF00071FF0E2102221C20FFF76CFF0F210322FC
:105000001C20FFF767FF2B2112221C20FFF762FFF5
:10501000164A02249369164843F00403936120233F
:10502000ADF8043004230DEB03018DF806308DF844
:10503000074001F0B8FD22462C211C20FFF74AFF53
:105040002D2101221C20FFF745FF2E2100221C20CC
:10505000FFF740FF2A2105221C20FFF73BFF054BED
:105060004FF480721A8002B010BD00BF00100240E1
:10507000000801400800002008B50F210822182070
:10508000FFF728FF0E2218201021FFF723FF024B05
:105090004FF480521A8008BD0800002008B5134B59
:1050A00053201B782D2108227BB1FFF713FF3121FC
:1050B0000A225320FFF70EFF2C210C225320FFF76A
:1050C00009FF53203821902209E0FFF703FF312127
:1050D0000A225320FFF7FEFE53202C210A22FFF75D
:1050E000F9FE40F20912024B1A8008BDDA170020BF
:1050F0000800002001F016B9FFF762BB01F012B9F9
:10510000FFF75EBB2DE9F04F85B003F01BF98F4B25
:105110001F78002F40F0A8858D4D2B685A0540F16F
:10512000A3858C4B8C4CB3F8DE8023788B4E002B00
:1051300000F0858132686368D31A7C2B40F27F814E
:10514000237A62600133237207F12400DFF80892AA
:10515000C0B203F0E7F809F10C0353F827000EF092
:105160008FFA7F4B824618880EF08AFA0146504625
:105170000EF08EFB7B490EF0D7FA0EF09BFC013748
:1051800000B203F0BDF8032FDED1302003F0CAF8DF
:10519000B9F9180003F0B4F803F0BCF899F8083036
:1051A0009B0732D141F28833D9F804209A4219D9A9
:1051B000102003F0B7F8D9F81C00642790FBF7F033
:1051C00000B203F09DF8212003F0ACF8D9F81C00E0
:1051D00090FBF7F307FB13000028B8BF404200B272
:1051E00003F08EF8142003F09DF85F4BB3F9040030
:1051F0000A2390FBF3F003F083F81C2003F092F8ED
:10520000002003F07DF803F085F8237A5F0740F073
:10521000F280022003F086F84F4B4FF00509186A20
:105220006423323090FBF3F000B203F069F84F4B87
:105230000320B3F9067003F075F897FBF9F74C4BB0
:10524000BFB21B7858070BD54A48414608F0C6FC48
:1052500020B92B6813F0100F18BF002738B205E0F3
:10526000454B1B68D889B0FBF9F000B203F048F851
:105270002B68990740F18D80DFF80491DFF8FC80FE
:1052800099F80010B8F80020642303FB02124B00C9
:10529000B2FBF3F3A78C06203F01BFB247EA032716
:1052A000BFB2C3F303231F4303F03CF838B203F04B
:1052B00027F8A38C99F8002001339BB293FBF2F1FD
:1052C00002FB1133A16AA3848B7B012B05D139200A
:1052D00003F028F8B8F9000021E0B8F800706E2358
:1052E0007B43152793FBF7F7CB7BBFB20BB197FB43
:1052F000F2F73A204FF0640903F014F8B7FBF9F81D
:1053000009FB18770FFA88F002F0FAFF3B2003F050
:1053100009F8B8B2471D0A2097FBF0F000B202F07E
:10532000EFFF282002F0FEFFE36A0A2093FBF0F073
:1053300000B202F0E5FF042002F0F4FF0E4B1B6800
:10534000DB89FBB102F04EFB20E000BFAF3A00204A
:10535000F02B0020D0340020E80D0020FC2B002092
:105360000800002000007A44C0280020B82800204F
:10537000B03A00200437002084160020D816002000
:10538000C0000020C94B186880F3100000B202F082
:10539000B7FF03A9C64802F089FF132002F0C2FF3D
:1053A000BDF90C0002F0ACFF1B2002F0BBFFBDF901
:1053B0000E0002F0A5FF232002F0B4FF4E2002F001
:1053C0009FFF03A9BA4802F071FF122002F0AAFF62
:1053D000BDF90C0002F094FF1A2002F0A3FFBDF902
:1053E0000E0002F08DFF222002F09CFF452002F00B
:1053F00087FF02F08FFF237A282B20D1AD4B0022AC
:1054000030681A724FF47A73B0FBF3F84FF03C092E
:10541000172002F087FFB8FBF9F7B7FBF9F009FB9B
:105420001070000200B202F06BFF182002F07AFF49
:1054300009FB178000B202F063FF02F06BFF94F8E3
:1054400030309C4F002B00F0B88008F0B9FE7B6B29
:10545000994AC31A934280463CD9002387F83A30D0
:1054600087F83C30954B1B88DAB21B0A87F8562028
:1054700087F8573087F84C2087F84D307A6E3368BC
:105480009A1ABB6E197C4FF47A734B439A420DD330
:105490008B4B1B687B668B4B1B78013B012B9FBFA3
:1054A000102387F83A30022387F83C307F4BE26ABA
:1054B0001B680A2192FBF1F293FBF1F384F854206C
:1054C00084F8583012121B1284F8552084F8593091
:1054D000C4F8348094F86CA0764FBAF1000F0ED166
:1054E000786F08F02AFF012809D90228DFF8DC913B
:1054F00000F08E8302F0CCFE012389F80230A76F02
:105500006C4B002F59D093F86C2042B140F6B73164
:10551000D3F88020C2EB08028A4215D84DE0012260
:1055200083F86C20D3F88420586F1278022A04D8AC
:105530000430022102F096FE02E0022108F0F4FE9F
:10554000002384F8883036E093F87C209AB99A6773
:1055500083F86C20D3F88420586F1278022A04D87C
:105560000430012102F07EFE02E0012108F0DCFEA1
:1055700002F08EFE1FE0013AD2B283F87C2093F84D
:10558000881093F889003AB901304A1C83F88900E1
:1055900083F88820586F0CE03A4612F801EB01308E
:1055A0000EEB0107714683F88900586F83F8887005
:1055B0009A6708F0C5FEC4F8808094F88A2037689E
:1055C0003C4B002A00F05681D3F88C20002A00F0D2
:1055D000518193F89030013B012B00F24B81D4F8BC
:1055E0008C00DFF8D08008F0A8FEE0B1D8F88C007D
:1055F00008F0A0FE98F8913081467E2BD6F800A0E6
:105600000ED102231B2888F8903009D1D8F88C00DD
:1056100008F093FE20B90123C8F894A088F89830C8
:1056200084F89190DBE7D8F8942033689B1A41F610
:105630005832934220D9032388F890301AE1224A45
:1056400032F8130010B903464FF403600133B0F58C
:10565000826FDBB200F0F98000F28080B0F5007F4D
:1056600000F0A58019D9B0F5047F31D184F89930C4
:105670002B689A0700F18D8094F8981094F899306F
:10568000002900F0F5803268D21B012AD7D984F8AE
:105690009930002384F89830ECE0B0F5807F00F07A
:1056A0009480B0F5887F00F0AA80E9E78816002092
:1056B00080969800E80D00203F0D0300D8160020CA
:1056C000FC2B0020C52C00202CB80108080000206D
:1056D000B0F5806FD4D184F8993094F8A0308D4A19
:1056E0000133DBB2032B88BF012382F8A03042F2E2
:1056F000107394F8A0105943874B1B78D80748BF04
:1057000001319A0748BF02315B07844B48BF04311F
:105710001B88D80748BF0A319A0748BF14311806BA
:1057200048BF2831DA0548BF2831580748BF6431DF
:105730001A0748BFC831980548BF01F5C8719A06D5
:1057400048BF01F57A71D80648BF01F5FA615A06DB
:1057500048BF01F57A614FF480606FE0B0F5E26F09
:1057600061D009D8B0F5C06F40D0B0F5E06F87D1F7
:1057700084F89930E1685DE0B0F5E46F57D0B0F59A
:10578000046F7FF47DAF84F89930654BB3F9043032
:1057900041E0604BD3F89C30DA7B624B1B881AB136
:1057A000614A117893FBF1F34FF4047033E084F80D
:1057B00099302B68DFF85C811B057FF55DAFD8F869
:1057C0002C300A2193FBF1F10AE084F89930574B11
:1057D000DFF840811B6859077FF54EAFD8F81C10E1
:1057E00002F00CFD002388F8983045E784F89930E2
:1057F0002B681A057FF540AF4D4B19681EE084F801
:1058000099304A4BDFF80C811B685B077FF534AF9A
:10581000D8F81810E4E70A21594302F0EFFC0023FE
:1058200084F8983028E784F89930216902E06169AA
:1058300084F899302C2391FBF3F1EEE702F0DEFCC3
:10584000344B002283F8982016E784F89930374BC0
:105850001B6813F020087FF40FAF2B681B067FF541
:105860000BAF414602F0CAFC2A4B83F8988003E74D
:1058700084F8993094F8A130264D002B00F0AE80CA
:10588000D5F8A430002B00F0A9803668D5F8A830F0
:10589000F31A632B40F2A280DFF88480412004F0E9
:1058A000C2FBB8F902000A2790FBF7F080B204F0BF
:1058B000B1FBB8F9000090FBF7F080B204F0AAFB4E
:1058C000B8F9040090FBF7F080B204F0A3FB04F0F9
:1058D00083FB95F8AC5015F001055AD10F4B1B888E
:1058E000D90528D4DA060DD49F060DD458060DD458
:1058F00019070DD4DA071DD413F0020F14BF0325C6
:10590000012518E00D2516E0092514E0042512E014
:10591000082510E0E80D0020B03A0020442C0020BB
:10592000C0280020D8160020C000002064180020E5
:10593000881600200225CE4B1F78CE4BC7F3800778
:10594000DB7813B147F00207FFB2532004F06BFB82
:10595000C94B188800EB800000EB8000800080B20B
:1059600004F058FB002004F055FBB4F8AE00FE2311
:10597000584340F2FF3390FBF3F0C0B204F038FB21
:10598000002004F035FB47EA850004F031FB04F009
:1059900023FB94F8AC30A3B94F2004F044FB0DF086
:1059A000A5FC0DF0A3FC0DF0A1FC012004F020FBF0
:1059B000B24B93F8B00000F0010004F019FB04F0C2
:1059C0000BFB94F8AC300A210133DBB2B3FBF1F2EC
:1059D00001FB1233C4F8A86084F8AC30A84D95F8E8
:1059E0000080A946B8F1020F40F0FA8008F0E8FB09
:1059F000A44B1F6840F6B833C71B9F4207D900234A
:105A00002B70B4F8B2300133A4F8B2302CE19E4DC3
:105A10002B793A2B40F0F8802846A97802F054F808
:105A2000002840F0F180944B984E1B88D4F8B4A025
:105A3000F361E36AF766F362E3695046F363944BFC
:105A4000DFF838B21B68F364B4F8B230F36505F0E0
:105A500090FD0746002840F0C3805046414608F0BC
:105A600063FC042386F874309BF8B83095F803A0E3
:105A7000642BDFF830824BD19BF8B930072B08BF7D
:105A80008BF8B97094F8B95006EB0513596803F117
:105A9000040B0846019111F05AF9DBF80430C7B243
:105AA0001846009311F053F95FFA80FB07EB0B02E5
:105AB000083288F8072025F00F0288F80A2005F040
:105AC0000F0288F80D200BEBC70288F80E20019911
:105AD0003A46704811F0D2F8009B07F109006E4F6A
