:020000040800F2
:1000000000A00020195C0108815C0108111E010894
:10001000815C0108815C0108815C0108000000002E
:10002000000000000000000000000000815C0108EA
:10003000815C010800000000815C0108BFDB000852
:10004000815C0108815C0108815C0108815C010818
:10005000815C0108815C0108D58A0008D18A00080A
:10006000815C0108815C0108815C0108815C0108F8
:1000700049DB000835DB000883FE0008815C0108CD
:1000800021DB00080FDB0008815C0108815C0108AE
:10009000815C0108815C0108815C0108CD8A00084F
:1000A0008DFA0008C9FA00087FFA0008EDFA000886
:1000B000BDFA0008ADFA00089DFA0008815C01084D
:1000C000815C0108815C0108815C0108815C010898
:1000D000815C010811FD000805FD0008F9FC00081D
:1000E000CDDB0008815C0108815C0108815C0108AE
:1000F000815C0108815C0108815C0108815C010868
:10010000000000000000000000000000815C010809
:10011000815C0108815C0108815C0108815C010847
:10012000815C0108815C0108815C0108815C010837
:10013000815C0108815C01080000000000000000F3
:10014000815C0108815C0108815C010800000000FD
:10015000000000000000000000000000000000009F
:100160000000000000000000815C0108815C0108C3
:10017000815C010800000000000000000000000099
:0801800000000000815C010891
:100188002DE9F04FA14BAFB01C780093002C00F084
:10019800E8809F4B1868002801F09D8707F014FB42
:1001A8009C4C20680DF096FD002801F0948720688B
:1001B800994C0DF08CFD092801D03F2849D14FF00A
:1001C80000082668954F45462EB19548396832464D
:1001D80017F080FE10B9B84605B93D46914B103767
:1001E8009F42F1D3C5B1D5F800E0D8F800C0236824
:1001F8001EF803701CF80300B8420DD15A1C884938
:1002080038B92D2B05D8844F3A602027CF5488540D
:1002180002E0CF542260EAE723680BB145450FD0CE
:1002280081480BF07BFA454507D855F8100B0BF0C1
:1002380075FA09200BF00EF9F5E711F043FF0026D7
:1002480023689E42ACD2764B985D0BF003F90136D9
:10025800F6E72368002B41F0C386042841F0148791
:100268006F480BF093FF01F036BFD9F80000DFF8B4
:10027800E4A10DF02FFD00285ED0DAF800000DF0A3
:1002880026FDDBF8003093F848100246002940F0BC
:100298008380242840F0E080012283F84820DBF89E
:1002A800003093F848A0BAF1060FDED193F8490060
:1002B800502800F0998700F2B981342800F098841A
:1002C80000F25481242800F01D8600F21F810328C3
:1002D80000F09C8240F2F880052840F00A811A203C
:1002E8000BF058F84FF00008504B13F8080008F1CD
:1002F80001080BF006F8B8F10B0FF5D14FF0000824
:100308004B4B13F8080008F101080AF0FAFFB8F19E
:10031800080FF5D14FF00008464B13F8080008F114
:1003280001080AF0EEFFB8F1070FF5D10AF0FAFF5D
:100338002B68002283F84820306807F045FA3E4BC6
:1003480093F875304BB1385911F0CAFE0DF04AFDDB
:1003580011F046F9394B3A4ADA604C34982C01F0DE
:10036800BA86384FE359E219002BF6D0DFF8E4805B
:10037800354DC8F80030079300238DF82130334EEF
:100388002A601423324A8DF8203006AB0692336077
:10039800AB46C146019268E7012904D14D2814BF34
:1003A8000022022279E7022904D13C2814BF002246
:1003B800032272E703290CD140284FF0000102D92B
:1003C80083F848106BE758711971D9719871042234
:1003D80063E7042906D1997983F849004A409A715C
:1003E80005225AE705297FF45AAF587919798842C6
:1003F800987906D950409871481C18710B441A72A4
:100408004DE790420CBF0622002246E7513F0020EC
:100418008C220020DC22002038230020DCC00108C8
:1004280008230020ECC2010898C6010800C701088B
:100438000CC7010815C70108A409002000ED00E059
:100448000400FA05C83D00208022002084220020F4
:10045800E9DC000888220020DD490B7803F004035A
:1004680003F0FF0E002B7FF41AAF232ADAF80000FE
:100478001DD10292009A039101231370D54B019A62
:100488001860D54B1860986010201873D3485A60CC
:1004980083F80DE004330360D1480BF03FF911F005
:1004A80011FE0399029A0B7843F002030B70CD4BAF
:1004B8001B681B78934201BFCB4BCC4A1A60CC4BCC
:1004C80004BFCC4ADA60EAE6012800F07481022809
:1004D80040F0168704200AF05DFF42200AF011FF61
:1004E80054200AF00EFF46200AF00BFF4C2000F0C3
:1004F800ECBEC0F09581222840F00287DFF8FC822C
:1005080050200AF047FF08F150092AE32C2800F090
:10051800288519D8282800F00A852A2800F01B8584
:10052800262840F0ED86DFF8D48206200AF032FF54
:10053800B8F8CC010AF031FFB8F8D0010AF02DFF65
:10054800B8F8D40100F087BE302800F0E5853228DD
:1005580000F076852E2840F0D386DFF8A082402070
:100568000AF018FF08F1400900F0C4BD422800F065
:10057800808521D83A2800F055820CD8362800F01A
:100588009C85382840F0BC8604200AF003FFDFF879
:100598006C8200F0BDBC3D2800F07682402800F057
:1005A80056853B2840F0AC8601200AF0F3FE924BBA
:1005B8001B68187800F089BE492800F072820FD8AD
:1005C800462800F0D185472800F0E585452840F009
:1005D800978613200AF0DEFE4FF0000800F029BECF
:1005E8004D2800F007854F2800F011864B2840F071
:1005F8008786DFF8088208200AF0CCFE98F8A8025F
:100608000AF07FFE98F8A9020AF07BFEB8F8AA0261
:100618000AF0C3FE98F8AC020AF073FEB8F8AE020E
:100628000AF0BBFE98F8B00200F04FBE722800F046
:1006380075835DD8692800F0D4812DD8652800F02D
:10064800038115D8522800F0EF85642840F05886B9
:1006580007200AF09FFEE7200AF053FE674B5879FF
:100668000AF04FFE00200AF04CFE042000F0EFBD17
:10067800672800F03B8100F2A48112200AF08AFE6C
:100688005F4B1B88B3F5806F8CBF4FF008094FF0A4
:1006980001094FF0000800E16D2800F0BA8119D86F
:1006A8006B28DFF8349100F0A38340F27F83DFF8F2
:1006B800548106200AF06EFEB8F800000AF06DFEBC
:1006C800B8F802000AF069FEB8F904300A2093FB72
:1006D800F0F0D4E16F2800F0EA81C0F0A88170281A
:1006E80040F00E861E200AF055FE4FF0000815E275
:1006F8007D2800F0B4852BD8762800F089830AD8A5
:10070800742800F09A8240F241832F200AF042FEBA
:10071800DFF8F4801DE2782800F0F880C0F0D78276
:100728007C2840F0ED85DFF8D48008200AF032FEFE
:10073800B8F8D8000AF031FEB8F8DA000AF02DFE51
:10074800B8F8DC000AF029FEB8F8DE0000F083BD36
:10075800A42800F0888318D8962873D0A02800F021
:10076800C3837E2840F0CC85DFF8908003200AF010
:1007780011FE98F8C7010AF0C4FD98F8C8010AF0FC
:10078800C0FD98F8C90100F0A0BDF12800F0F18083
:10079800FE2800F09883F02840F0B285DFF85C80EE
:1007A80004200AF0F7FDB8F8F2010AF0F6FDB8F8EF
:1007B800F00100F050BD03200AF0ECFD00200AF023
:1007C800A0FD01200AF09DFD102000F07EBD00BFB5
:1007D800503F0020DC220020A40900208C220020A9
:1007E800C8C60108582A0020FC9F0020EFBEADDED5
:1007F80000ED00E00400FA0540230020A4380020A2
:10080800080000203024002073A201080AF0C2FD6D
:1008180002200AF076FD50460AF073FD00F007BD8D
:1008280006200AF0B7FD53200AF06BFD52200AF0AB
:1008380068FD46200AF065FD33200AF062FD0020BD
:1008480000F009BD0C2000E00B200AF0A3FDD34BFB
:1008580018880AF0A2FD05F030FD0AF09EFDD04B85
:100868001B68C3F3C000C3F38002800040EA420063
:10087800C3F340021043C3F3401240EAC20003F03E
:10088800100318430AF089FD0AF060FC0AF08EFD97
:10089800C44B93F8680400F018BDC34B53F8280004
:1008A80090FBF9F008F1010880B20AF076FDB8F182
:1008B800030FF2D1DFF82483B8F800000AF06DFDC9
:1008C800B8F804000AF069FDB8F80800DFF81083EA
:1008D8000AF063FDB8F800000AF05FFDB8F80400FC
:1008E8000AF05BFDB8F8080000F0B5BC10200AF06B
:1008F80051FD4FF00008AD4B13F8080008F101084E
:100908000AF0FFFCB8F1100FF5D10FE57020DFF801
:1009180094820AF03FFD4FF00009C246B8F856012C
:100928000AF03BFDB8F858010AF037FDB8F85A014B
:100938000AF033FD98F85C010AF0E3FC98F85D01D1
:100948000AF0DFFC98F85E010AF0DBFC98F85F011A
:100958000AF0D7FC0E2303FB09A309F10109D3F818
:1009680060010AF023FDB9F1080F08F10E08D5D18E
:10097800DCE47020DFF82C820AF00CFD08F1700925
:1009880098F8E6000AF0BDFC98F8E7000AF0B9FC10
:1009980098F8E8000AF0B5FC98F8E9000AF0B1FC0C
:1009A80098F8EA000AF0ADFC98F8EB000AF0A9FC08
:1009B80008F1070898F8E5000AF0A3FCC845DFD15C
:1009C800B4E410200AF0E6FC4FF00008784B13F866
:1009D800080008F101080AF094FCB8F1100FF5D1ED
:1009E800A4E4DFF8009299F80000400000F0FE004F
:1009F8000AF0D0FC4FF0000899F800309845BFF491
:100A080095AC6C4B33F818000AF0C7FC08F10108E4
:100A1800F2E750460AF0BEFC674B18680AF0C6FCBD
:100A2800664B42E004200AF0B5FC654B68E20720FB
:100A38000AF0B0FC634B1888FF28A8BFFF20C0B29B
:100A48000AF05FFC604B18684FF6FF784045A8BF76
:100A5800404620EAE07080B20AF09FFC5B4B1888A1
:100A68000AF09BFC4F4B93F81F22594B186842B170
:100A78000A2358434045A8BF404620EAE07080B2A8
:100A8800E9E300F30F00FAE7DFF8188102200AF023
:100A980081FC98F895020AF034FC98F8940200F06A
:100AA80014BC02200AF076FC4A4B1888D3E3DFF81E
:100AB80038810B200AF06EFCD8F8003018780AF05C
:100AC80020FCD8F8003058780AF01BFC4FF0000AD8
:100AD800C146D9F80030DFF8108153440AF1010A01
:100AE80018790AF00EFCBAF1030FF2D1D8F80030E9
:100AF800D8790AF006FCD8F8003098780AF001FC9A
:100B0800D8F80030D8780AF0FCFBD8F800305889BB
:100B18000AF043FCD8F80030187AD6E3DFF8CC9016
:100B2800D9F80030434458780AF0EBFBD9F8003084
:100B38004344D87A0AF0E5FBD9F80030434408F179
:100B48000108587D0AF0DDFBB8F10A0FE6D1FFF77E
:100B5800EDBB18F8010F00283FF4E8AB0AF0D1FB11
:100B6800F7E798F869241C4B0C2101FB023308F1C4
:100B7800040893F838000AF0C4FB98F866040AF0F1
:100B8800C0FB98F867040AF0BCFB98F868040AF000
:100B9800B8FBC845E5D1FFF7C9BB00BF463F0020F9
:100BA800C8290020A4380020180F0020C4090020FC
:100BB8003026002040380020FC0F0020240F0020A1
:100BC800B03200208C2900203C2900200010002091
:100BD800380F0020402A002074A2010804240020B5
:100BE80000330020643E0020280C00204023002011
:100BF8005A20DFF8F0830AF0CDFB08F15A0998F87B
:100C0800BE040AF07EFB98F8B9040AF07AFB98F85B
:100C1800BA040AF076FB98F8BB040AF072FB98F85D
:100C2800BC040AF06EFB08F1060898F8B7040AF04D
:100C380068FBC845E3D1FFF779BB4FF000094FF0D7
:100C4800010B4FF00008D74B1B78984534DAD64B88
:100C580018F803004FF0000AD44901910C2301F160
:100C6800300E03FB0AF313F80EE0864509D10B4456
:100C7800586B17F026F90146BBF1000F07D15B4608
:100C880007E00AF1010ABAF11F0FE5D111E081442A
:100C98000FE08B420DDA019A03910C2000FB0A2029
:100CA8000293406BC05C0AF02CFB029B0399013352
:100CB800EFE708F10108C6E7BBF1000F3FF436ABD8
:100CC8005FFA89F00AF066FB4FF0000BB9E7DFF82E
:100CD800D49299F800000AF05DFB4FF0000899F8EB
:100CE80000309845BFF422ABAF4B18F803E0002161
:100CF800AE480C2200F1300C02FB01F313F80C2073
:100D0800724505D1034493F838000AF0FAFA02E074
:100D180001311F29ECD108F10108E0E7DFF8C482AE
:100D280016200AF037FBB8F850020AF036FBB8F87C
:100D3800D0000AF032FBB8F8D2000AF02EFBB8F85F
:100D4800D4000AF02AFBB8F8AA020AF026FB98F8A1
:100D5800A3020AF0D6FA00200AF0D3FA98F8A402FF
:100D68000AF0CFFA98F81F020AF0CBFA98F84C026A
:100D78000AF0C7FA00200AF0C4FAB8F9EE310A20DE
:100D880093FBF0F080B20AF008FBC1E008200AF0FB
:100D980001FB4FF001085FFA88F008F101080AF03A
:100DA800B0FAB8F1090FF6D1FFF7C0BA10200AF06F
:100DB800F1FA7F4BDFF83082187800F002000AF071
:100DC800A0FA7C4B18780AF09CFAD8F800000AF0D0
:100DD800EDFAD8F804000AF0E9FA774B18880AF017
:100DE800DCFA764B18880AF0D8FAB9F8300032E203
:100DF80005200AF0CFFA724B18880AF0CEFA714B28
:100E080018880AF0CAFA99F8320000F001005CE28A
:100E18000AF058FA824612200AF0BCFABAF1000F1A
:100E280001D1694B03E0BAF1100F05D1674BD3F834
:100E38000090D3F8048002E04FF00008C146504605
:100E48000AF05FFA48460AF0B1FA40460AF0AEFAEC
:100E58005F4B18680AF0AAFA00200AF09EFA0020F0
:100E68000AF09BFAE3E1DFF8849199F833008000F7
:100E78000130C0B20AF08EFA99F833000AF041FA4C
:100E88004FF00008CA469AF833309845BFF44EAA86
:100E9800DFF85C9119F808000AF033FA09F1100339
:100EA80013F808000AF02DFA09F1200309F13009B6
:100EB80013F808000AF025FA19F808000AF021FAD0
:100EC80008F10108DFE708200AF064FA4FF000088B
:100ED800404B33F8180008F101080AF05EFAB8F13F
:100EE800040FF5D1FFF722BA0C200AF053FA3A4B57
:100EF80018680AF05BFA394B18680AF057FA384B49
:100F08001868A4E104200AF045FA364B98689EE177
:100F180098F812020AF0F5F998F816020AF0F1F9B1
:100F280098F815020AF0EDF998F81702CDE1DFF804
:100F3800B48007200AF02EFAB8F81A020AF02DFA3F
:100F4800B8F81C020AF029FA98F81E020AF0D9F932
:100F5800B8F820027FE101200AF01CFA214B5879E9
:100F6800B3E1DFF880800C200AF014FA98F8480200
:100F78000AF0C7F9B8F854020AF00FFAB8F85002A4
:100F88000AF00BFAB8F852020AF007FA98F84A027F
:100F98000AF0B7F9B8F85A020AF0FFF9B8F85C0293
:100FA80059E100BF602200206122002074A20108DC
:100FB8003C0F0020420F0020400F00203E0F002071
:100FC800B40F0020B60F002004100020400C0020B1
:100FD800E03200205C290020ACF7FF1FB0F7FF1FAC
:100FE800B4F7FF1FA4380020440F0020A4090020F4
:100FF800D8090020DFF80884DFF8089498F8000082
:1010080000EB4000C0B20AF0C5F94FF0000A98F8AA
:1010180000309A4509F10209BFF488A919F8020CB1
:101028000AF06FF919F8010C00EB800000EB800062
:1010380000F2EE2080B20AF0B0F90AF1010AE6E700
:1010480001200AF0A7F9E74B93F84C023DE108208C
:101058000AF0A0F94FF00008E24B434408F10108F8
:1010680093F840020AF04DF9B8F1080FF4D1FFF7F0
:101078005DB9DFF8708310200AF08CF998F8050044
:101088000AF03FF9D8F808000AF090F998F84802F1
:101098000AF037F9B8F8CC010AF07FF9B8F8D001AE
:1010A8000AF07BF9B8F8D4010AF077F9B8F81A020F
:1010B8000AF073F9B8F81C02CDE0CB4BDFF82483B3
:1010C80093F87400C0EBC000C0B20AF063F908F1ED
:1010D800280998F8B4020023C44AD25C904200F070
:1010E800F8800C333C2BF7D108F10808C845F0D13B
:1010F800FFF71CB9B8F870030AF04FF998F87203B3
:101108000AF0FFF808F1040898F86F030AF0F9F8F4
:10111800C845EFD1FFF70AB9E020DFF8C8820AF026
:1011280039F908F18009B8F8F20200F03F000AF036
:1011380034F9B8F8F202C0F386100AF02EF998F8DC
:10114800F00200090AF0DDF898F8F00200F00F004C
:101158000AF0D7F808F1040898F8ED020AF0D1F877
:10116800C845E0D1FFF7E2B80D200AF013F908F0FE
:1011780007FADFF87C8240F00200C0B20AF0C1F83A
:10118800B8F800000AF012F9D8F80C000AF00EF9C5
:1011980007F06AFB5BE00AF0ABF8814684200AF0AE
:1011A800F9F848460AF002F9914BDA6809F1800328
:1011B80093428CBFC9EB02084FF080080DF1380A42
:1011C80007F00AFC48464246514608F00DFA4FF02F
:1011D80000088146C845BFF6A9A81AF808000AF011
:1011E80090F808F10108F5E7DFF8F88104200AF023
:1011F800D1F801200AF085F898F815050AF081F869
:1012080098F813050AF07DF898F814055DE00B20AE
:101218000AF0C0F800200AF074F800200AF071F80B
:1012280000200AF06EF80EE001200AF0B3F8002062
:101238004BE0704B13F8080008F101080AF061F858
:10124800B8F10B0FF5D100200AF0B0F800200AF031
:10125800ADF8FFF76BB80AF0A0F8FFF767B8DFF84A
:10126800848103200AF096F898F822020AF049F8D7
:1012780098F823020AF045F898F8240225E040F28D
:101288005D84F32840F008860AF01CF8FF28DFF890
:10129800589140F03C854FF0000809F1780041462C
:1012A800602289F8768016F0C9FD8DF816809DF8C1
:1012B800163099F8DA20DFF830819A4200F2D384A8
:1012C80001200AF067F898F876000AF01AF8FFF794
:1012D8002DB80AF016F8B8F8B6020AF05EF898F8D1
:1012E800B8020AF00EF898F8B9020AF00AF898F865
:1012F800BB020AF006F898F8BA020AF002F8F3E618
:10130800512832D13C4B1B78012B29D809F0DAFF40
:10131800DFF8D08088F8150509F0D4FF88F81305A0
:1013280009F0D0FF88F814051AE000F2F583CD28FB
:1013380000F0778240F27F82D02800F04A8340F2A2
:101348005483D12800F09C83D22840F045862B4B4B
:101358001B7803F0040303F0FF08002B00F0D1838F
:1013680000200AF017F8FEF7E1BF00F25282372892
:101378004AD15B794FF00708B3FBF8F8C8EBC8020D
:101388009B1A13F0FF0F02D00DF024FEE8E75FFA76
:1013980088F808F1FF385FFA88F8B8F1FF0FDFD056
:1013A80009F090FF5FFA80FA4FFA8AF010F006FF12
:1013B80081460028E8D080F800A009F08FFFA9F83E
:1013C800020009F07FFF89F8040009F07BFF89F823
:1013D800050009F077FF89F8070009F073FF89F81D
:1013E8000600D6E7A4380020A40900205C2A0020C3
:1013F8009800002000C7010854360020503F002004
:10140800643E0020023B002000F222812B2804D1F8
:1014180009F058FFD44B5871A2E770D8252807D196
:10142800D14B00229A6009F063FF10F0D1F897E7DA
:101438003ED8232840F0D08509F044FF1328804681
:10144800A2D809F03FFF0022C8490C23534301EBFF
:10145800030E9EF838E0864526D1DFF80C930B443E
:1014680008F58D7809EB880893F8303088F8013052
:1014780009F028FF88F8020009F024FF88F8030023
:1014880009F020FFBA4BBB491A6888F8040009F133
:10149800D0030B60B84B00201A6013F016F8B74B56
:1014A80080F0010018705BE701321F2ACCD16BE78E
:1014B80027280ED109F012FFDFF8AC82C8F8CC015A
:1014C80009F00CFFC8F8D00109F008FFC8F8D401EA
:1014D80046E7292840F0808509F000FFDFF8888278
:1014E800A8F81A0209F0FAFEA8F81C0209F0EAFEA8
:1014F80088F81E0209F0F2FEA8F8200230E7312829
:1015080035D109F0DFFE1F2880463FF63DAF2B6836
:101518005B79082B7FF438AF09F0E0FEDFF848A2CA
:1015280008F1BC080AEB880900F03F00A9F802009E
:1015380009F0D4FEB9F80230800100F4FE501843D7
:10154800A9F8020009F0BEFE00010AF8280009F017
:10155800B9FE1AF8283000F00F0018430AF82800DE
:1015680009F0B0FE89F8010011F018FDF8E63DD841
:101578002D2823D109F0A6FEDFF8EC8188F848026F
:1015880009F0ACFEA8F8540209F0A8FEA8F8500229
:1015980009F0A4FEA8F8520209F094FE2B6888F816
:1015A8004A025B79082B7FF6DBAE09F097FEA8F8B4
:1015B8005A0209F093FEA8F85C02D1E62F2840F001
:1015C8000B85DFF8A48108F1400909F087FEA8F827
:1015D800700309F077FE88F8720309F073FE08F1CA
:1015E800040888F86F03C845EFD1B9E6332805D158
:1015F80009F068FE5C4B83F84C02B1E6352840F0F0
:10160800EB8409F05FFE0E2881463FF6BDAE09F077
:1016180059FE03283FF6B8AE534B4FF0060808FBB7
:10162800093888F8BE0409F04DFE88F8B90409F0B5
:1016380049FE88F8BA0409F045FE88F8BB0409F0A9
:1016480041FE88F8BC0409F03DFE88F8BD0487E631
:10165800432825D109F036FEDFF80C810023C8F8AD
:10166800083088F8050009F043FE0FF0B1FF09F0D3
:1016780029FE88F8480209F031FEC8F8CC0109F0C3
:101688002DFEC8F8D00109F029FEC8F8D40109F0E8
:1016980025FEA8F81A0209F021FEA8F81C025FE648
:1016A8004FD83C2818D1DFF8C880D8F8009099F8AE
:1016B80000A009F007FE89F80000D8F80030187873
:1016C8000CF07EFCD8F800301B7853453FF448AE48
:1016D800002009F074FE43E615D8392840F07C84D0
:1016E80009F0F0FDDFF8808088F8120209F0EAFDC1
:1016F80088F8160209F0E6FD88F8150209F0E2FDFF
:1017080088F817022CE63E280AD109F0DBFDDFF83D
:10171800588088F8950209F0D5FD88F894021FE6EC
:10172800412840F059844FF0000809F0CBFD0E4BDA
:10173800434408F10108B8F1080F83F84002F4D1D6
:101748000EE64A2802D109F0C9FDC2E71AD8442892
:1017580004D10B4B012283F8752001E6482840F09C
:101768003B8407F087F9FBE5A438002074A2010840
:10177800402300202C0C0020300C00200200002008
:10178800A40900204C281AD109F09CFDDFF8108428
:1017980088F8A80209F096FD88F8A90209F09EFDCC
:1017A800A8F8AA0209F08EFD88F8AC0209F096FDA7
:1017B800A8F8AE0209F086FD88F8B002D0E54E28F8
:1017C80040F00A8409F07EFD112881463FF6DCAD21
:1017D800DFF8CC8309F076FD09F5967908EB490323
:1017E800987109F07BFD40F2ED23984205DD40F643
:1017F800CA039842A8BF184601E040F2EE2008EB61
:101808004908A0F2EE20192390FBF3F088F80700AE
:10181800A6E5D3287FF489AD09F060FDD24B188086
:101828009EE5D24B1B785A073FF59AADD04B4FF443
:10183800C8721A8094E5C92828D109F043FDCD4B18
:101848001A7810B142F0020201E022F002021A7086
:1018580009F038FDC84BDFF84C83187009F048FDD3
:10186800C8F8000009F044FDC8F8040009F036FD86
:10187800C24B188009F032FDC14BC24A188092F859
:10188800323043F0020382F8323069E52ED8C82896
:1018980040F0A28393F805804FEA5808B8F1120F78
:1018A8003FF672AD4FF00009C14507D209F016FDA9
:1018B8000EAB23F8190009F10109F5E742460023A8
:1018C800434507DA0EA931F81300AF4921F8130090
:1018D8000133F5E7122A05D0AB4B002123F812108B
:1018E8000132F7E7A94B01221A7039E5CA281ED13F
:1018F8004FF00008DFF8B092D9F800A009F0E2FC38
:10190800C2448AF80100D9F800A009F0DBFCC244FF
:10191800D9F800908AF80B0009F0D4FCC14408F10A
:101928000108B8F10A0F89F81500E3D118E5CC28A9
:1019380040F052835B79092B7FF626ADDFF86C8285
:10194800D8F8009009F0BEFC89F80000D8F800909B
:1019580009F0B8FC89F8010009F0B4FCD8F80030A7
:101968006428A8BF6420187109F0ACFCD8F80030CE
:101978006428A8BF6420587109F0A4FCD8F8003086
:10198800FF28A8BFFF20987109F09CFCD8F80090A8
:10199800642828BF642089F8070009F093FC89F8B7
:1019A8000200D8F8009009F08DFC89F80300D8F8F7
:1019B800009009F093FC2B68A9F80A005B790A2BC0
:1019C8007FF6CEACD8F8008009F07CFC88F80800D7
:1019D800C6E4664B1B7859073FF5C2AC0BF05EF8BE
:1019E8000FF036FE0AF0B8FEBAE4CE280AD15F4BF3
:1019F8001B785B073FF5B4AC5E4A137843F00403E9
:101A08001370ADE4CF2840F0E78209F067FC6FF46B
:101A1800AF6E00EB0E039BB2DFF88481C62B98BF34
:101A2800A8F8500209F05AFCA8F8D00009F056FCB2
:101A3800A8F8D20009F052FCA8F8D40009F04EFC2E
:101A4800A8F8AA0209F03EFC88F8A30209F03AFCBB
:101A580009F038FC88F8A40209F034FC88F81F0261
:101A680009F030FC88F84C0209F02CFC09F036FC2F
:101A780000EB80004000A8F8EE0109F023FC33E6F3
:101A880009F020FC834609F033FC824609F030FC5B
:101A9800814609F02DFC804609F020FC09F01EFC67
:101AA80009F010FCBBF1000F14D1394B1020C3F81A
:101AB80000A0C3F804900FF063FD2E4A137843F09A
:101AC80001031370B8F1000F3FF44AAC314BC3F86F
:101AD800008045E4BBF1100F7FF442AC2E4BC3F8F5
:101AE80000A0C3F80490B8F1000F02D0294BC3F846
:101AF80000802948294B0222011D1A7006F0AAFD10
:101B08002EE409F0DFFB264B012883F868047FF6F2
:101B180067AF83F8688463E7DC287FF4B0AB09F02B
:101B2800D1FBDFF87C8088F8C70109F0CBFB88F887
:101B3800C80109F0C7FB88F8C90111E4D92837D1D1
:101B480009F0CCFBDFF85880A8F8D80009F0C6FBEC
:101B5800A8F8DA0009F0C2FBA8F8DC0009F0BEFB1F
:101B6800A8F8DE00FFF7FCBB340C0020503F002033
:101B7800EC0B00203C0F0020420F0020400F0020FB
:101B88003E0F0020A40900204C2100206D360020C3
:101B980004100020E0320020400C0020380C002007
:101BA800A4380020440F002040230020280C0020E7
:101BB80043D8D42830D15B790F2B7FF4E5AB09F0FB
:101BC80081FB072881463FF6DFAB09F087FBD04B46
:101BD8004FF00E0808FB0938A8F8560109F07EFBFB
:101BE800A8F8580109F07AFBA8F85A0109F06AFB2D
:101BF80088F85C0109F066FB88F85D0109F062FB72
:101C080088F85E0109F05EFB88F85F0109F070FB57
:101C1800C8F86001FFF7A4BBD62840F0DD814FF07B
:101C2800000809F05BFBBB4B23F8180008F101081A
:101C3800B8F1080FF5D1FFF793BBDA280FD109F0F7
:101C480041FBDFF8CC8288F8220209F03BFB88F8D8
:101C5800230209F037FB88F82402FFF781BBDB2851
:101C68003FF47EABB8E19DF8163008EBC30393F858
:101C7800DD30D90743D59DF8163008EBC30393F838
:101C8800DC20A54B33F91230002B38DD9DF81630D7
:101C980098F876A008EBC3034FEACA01D3F8E030FE
:101CA80058689DF8163008EB010E08EBC308CEF80B
:101CB8007800D8F8E0301A89AEF87E2092B24FF05A
:101CC800000E012303FA0EF3134005D10EF1010EA5
:101CD800BEF1100FF5D100E0734649440AF1010A3C
:101CE800A1F87C3004238DF83A300EA90123ADF811
:101CF80038208DF83B3004F025F889F876A09DF857
:101D080016300133DBB28DF81630FFF7D0BA99F8E8
:101D180076309842BFF438AB0290002009F03AFBC5
:101D280009F000FB306805F04FFD2B68186810F0CB
:101D3800D7F9D8F8000009F0A5FA10F007FC72B638
:101D48004FF0904B4FF400734FF48061ABF82810BC
:101D5800ABF82830ADF8381004214FF0010A8DF89F
:101D68003A1058460EA901938DF83BA003F0EAFFFC
:101D7800019BADF8383058460EA98DF83AA08DF879
:101D88003BA003F0DFFF029A019B4FEAC208C1445F
:101D9800D9F87820B9F87C00116800FA0AF00AFA34
:101DA80000FA4AEA01011160B9F87E109161CBF896
:101DB80018304FF090431B8A5A05FAD4DFF860A117
:101DC800DFF860910AEB08030122986FB3F87CE012
:101DD80001684FEA4E0E02FA0EF20A4302609A6F49
:101DE800B3F87E1011854FF090434FF400721A85B6
:101DF800D9F80030B9F804209A6140F6055B4B46E3
:101E08004FF09042B2F810E01EF4806F05D1BBF19C
:101E1800000FF5D00BF1FF3BF2E78161ADF8381008
:101E280004218DF83A1001218DF83B100EA9029378
:101E3800019203F087FF019A029BBBF1000F19D0B2
:101E4800D9F80000B9F804E04FF090410B8A5B051F
:101E5800B4D50AEB08039A6FB3F87E30128A13429E
:101E68004FF4007315BF8B610B85C0F818E0A0F81C
:101E780028E0E9E74FF4007191611A689B88936143
:101E880062B60A200BF08DFE12F036FB2B68F322A7
:101E980083F84920FFF764BA46D8EF280BD109F038
:101EA8001DFADFF86C80A8F8F20109F017FAA8F813
:101EB800F001FFF755BAF22840F08E8009F002FAD7
:101EC8000F2880463FF660AA09F0FCF9134BC8EBCF
:101ED800C808984488F8060009F0F4F988F807005B
:101EE80009F0F0F988F8080009F0ECF988F8090019
:101EF80009F0E8F988F80A0009F0E4F988F80B0015
:101F080009F0E0F988F80C000BF0ACFFFFF728BAED
:101F1800A4380020E0220020302600208439002048
:101F2800A409002064380020F4284ED109F0CAF929
:101F3800FF2880462BD10BF0F1FE00238DF81730D7
:101F48009DF81730102B3FF60BAA9DF81720634B0E
:101F580003EB0212127B012A14D19DF8172003EB20
:101F680002120EA950689DF8172003EB02131B8973
:101F7800ADF8383004238DF83A3002238DF83B3021
:101F880003F0E0FE9DF817300133DBB2D6E7431EBD
:101F98000F2B3FF6F9A9002009F0FCF909F0C2F966
:101FA800306805F011FCD9F800000BF08AFE18B96A
:101FB80032200BF0F6FDF6E7494B1FFA88F1186856
:101FC800002205F033FAFFF7CBB9FA2804D1454BC4
:101FD8001B7858077FF504AD0CF0FCFFFEF7A6B997
:101FE8000C2803D1404809F099FB49E00A2801D0A0
:101FF8000D2864D13D4D3E4809F090FB2846232129
:1020080015F051FF08B1401B206023687BB35A1EAE
:10201800A95C202901D11346F8E7344A236000213E
:10202800D154344B344ED3F80080D6F800902F4F5B
:10203800484615F046FF05462A463846494615F0F3
:1020480049FF2E4A20B97B5D43445B785B0703D088
:1020580010369642E9D306E0964204D2681CF3682B
:102068003844984702E0264809F058FB00231F48E7
:1020780023600021302215F0E1FE009B1B7853B34A
:1020880010F020F8FEF78CB80C28ABD07F2804D1CC
:10209800FEF786B82F2B3EF683A8A0F12002D2B215
:1020A8005E2A3EF67DA813B920283EF479A85A1C6A
:1020B80022600E4AD05409F0CDF9FEF771B87F2896
:1020C800E8D1013B094A0F4823600021D15409F0A7
:1020D80025FBFEF765B82FB0BDE8F08FD0CB01081F
:1020E80088220020503F00209DC6010808230020B8
:1020F80067D1010834040020DCC00108ECC20108E3
:10210800A8C60108C4C601082DE9F04FA34FA44C86
:102118003A6802F59C432DED028B20332360A14BD6
:102128001E7889B0D6B1A04909688A4240F2088170
:10213800013E1E7004E1DFF890829C48D8F8003018
:10214800072D98BF595D9A4B88BF29461B68984749
:10215800032D09D904EB45050136A88008F064FF72
:10216800F5B28542E7D320E0D8F8002005F1100346
:1021780002EB830359889A880028EBD04FF47A73CE
:10218800401A5843531A90FBF3F040F6C90300F580
:102198007A70984205DC40F2EE239842B8BF1846A0
:1021A80001E040F6CA0080B2D4E7824B824E1B6839
:1021B800D6F8008042F2010A03EA0A0ABAFA8AFA51
:1021C8004FEA5A1A7D4BBAF1000F05D194F828202E
:1021D8001A707B4A517811701B782BB1784B93F8A1
:1021E800009089F0010900E099460F23DFF8F0B16B
:1021F80084F82930002508F017FF854267DA6B005C
:10220800B9F1000F03D06F4A32F8150000E04846D4
:102218006D4ADFF8D0C111684A8B82424FEA850EB9
:102228006A4A02D8898B81421CD25CF80E005C494C
:10223800804501D2D05A19E0E8B203920293019185
:1022480008F00AFF032D029B039A0FDC01994FF057
:10225800010E91F829C00EFA05FE2CEA0E0E81F83F
:1022680029E003E008F596714CF80E10BAF1000F5A
:1022780028D194F8BC100322B1FBF2F202EB42021F
:102288008A1A03EB050E5EFA82F204EB42025085CD
:1022980094F8BD202AB9022913D9414A012182F8AC
:1022A800BD10BBF800203BF8020C1044BBF802201C
:1022B8001044474A80B2D05200B2032290FBF2F099
:1022C80080B2424AD05201350BF1060B93E794F8DD
:1022D8002920404BA2F10F014A424A4184F8D620F6
:1022E8006AB13D4A1268520109D43268D9689A60C5
:1022F800521AC82A1FD9012283F821201BE0304A2C
:1023080001215170117032689968DA605B68521A5D
:102318009A4282BF2F4B002283F82120002508F023
:1023280083FE854207DAE8B208F096FE274B23F8C9
:1023380015000135F3E794F8BC30013384F8BC305C
:102348001C4B1A6812F4805F984605D0224B1B6814
:10235800DB0701D40FF016FD1B4B39681F683B7B68
:10236800002B41D0013B1948BA7B30F813301AB121
:10237800C3F53B6308339BB21BB2A3F57A73B3F57D
:102388007A7FA8BF4FF47A7323EAE37307EE903A93
:102398009FED127AF8EEE77A5FE000BF2C3F00204D
:1023A800E00A00202422002020220020643E002091
:1023B800E40000201C22002028220020401A0020CF
:1023C80000000020E40A00201822002040380020E5
:1023D8009E0B00202C2200205C22002000007A4462
:1023E8000C0B0020540B0020D8F80020150440D511
:1023F800D4F8D820AE4E8A1A002A3ADB01F59C425E
:102408002032C6F8D820AB4A5079AB4A32F810507F
:10241800A8B27D7B90FBF5F596F8DC00013000F062
:102428000F0286F8DC20324482F8DD501A46A348B1
:10243800185C01330244102B92B2F8D112B292FB0D
:10244800F3F31BB2642BA8BF642323EAE37307EEFC
:10245800903A9FED9B7AF8EEE77AC7EE877A994A29
:102468009FED997A67EE877AFCEEE77A17EE903A55
:102478001380D8F80030954F13F4807F00F0FA806D
:10248800934BDFF85092994205D999F8022012B976
:10249800012289F8022099F80220002A00F0EA8037
:1024A8008C4A8D4992F821503A78681E4542454138
:1024B8000868C0F38063C2F3800B01938A462DB984
:1024C80012F0080F0CBF0026022600E0002699F83B
:1024D8002020052A00F2CA80DFE802F0034C60855C
:1024E80094B1BBF1000F38D0D4F8F000B4F8F41070
:1024F8000FF0F2FF012809D17849794A0968126872
:10250800C988642000FB0122C9F81020019B5BB137
:10251800724A126812793AB112F0E6FB032289F87E
:1025280020204FF47A7236E0002D40F09F806C4AEC
:10253800D9F810101068674A88420AD9029212F036
:10254800D3FB029A032182F8201040F6B831D161FA
:10255800BDE7012182F82010B9E7019B4FF48060A4
:1025680013B10FF01DF801E00FF00AF80022C9F8C6
:1025780010207BE0002D57D1584A1268127A012AA0
:1025880002D012F0B1FBA2E712F0AEFB032289F8E9
:10259800202040F6B832C9F81C2098E725B105225A
:1025A80089F82020012000E02846BBF1000F0BD05D
:1025B800D4F8F020118A4B4A118051809180474904
:1025C80009684988D1800326454A1168D9F814203A
:1025D800914202D8BBF1000F45D147F23052C9F8F9
:1025E8001C20032221E03A7842F002023A700FF0F0
:1025F800C9FB3B4AD9F81C1012680A44C9F81820CC
:10260800042212E0364A9DB11168D9F81820914287
:102618002CD9354A92781AB9DAF80020D10725D48E
:102628003A7822F002023A70052289F820204EE713
:102638001268D9F81C100A44C9F8182016E027496E
:10264800274A09681268C988642000FB0122C9F872
:1026580010204FF48060002289F8202089F8032098
:102668000EF08EFF33E700287FF431AF16B1304605
:102678000FF080FF1D4DB5F8DE1005F510700FF056
:102688002BFF83461748B5F85032B0F9022003F102
:102698000B01914281462BDB0B3B934228DCB0F9BE
:1026A8000020914224DB9342CCBF0023012320E089
:1026B800E00A00204029002050290020BD0B0020FE
:1026C8000000C8420010002000C07F44503F002096
:1026D800404B4C002C2200205C220020243F00208C
:1026E800282200204038002000000020A4380020C4
:1026F8000023BBF1000F30D1974A1268120106D5AA
:10270800964AD2789AB93A78560710D528E0944B69
:10271800944900221A605A609A60934BC1F800B03D
:102728000122C1F804B0C1F808B01A700BE08C4A55
:102738008C4800211160516091608B4A002303602E
:10274800436083601370894B00221A605A6000232B
:10275800C4F8F830C4F8FC3004E0834A002313704E
:10276800834A13703B78580736D5D8F80030D90615
:1027780032D5804B1B78DA062ED47F4B9B7893B1E9
:1027880095F89532BBF1000F15D17BB17B4B1A68D8
:10279800D4F800319B1A002B08DA0FF0F3FA784BC3
:1027A80083F804B118E0BBF1000F0DD110200FF031
:1027B800E1FE01230EE03BB1704A12684FF47A71D2
:1027C80001FB0323C4F8003194F8043123B10FF05E
:1027D800BDFE002384F80431002295F89412B5F860
:1027E8005262B5F854E2134639F912009B08B04218
:1027F800C4BF63F07F03DBB201327045B8BF43F05A
:102808004003042AF0D194F805215D489A4205D185
:1028180090F80621F92A04D8013200E0002280F855
:10282800062184F80531544B554A98784A4E9A4601
:1028380028BB3368DB070AD582F80701BBF1000F14
:102848001DD13B78DB071AD50FF0CAF817E03B78A3
:10285800580714D54B4B1B788BB1404BDB7873B9B9
:1028680092F807310133DBB2032B82F8073106D91E
:1028780011B10FF087FA02E0BBF1000FF9D094F81C
:102888000631DFF8FCB0142B40F096809AF802303D
:102898009BB19BF805315F2B0FD13B7803F0040304
:1028A80003F0FF0213B10FF06DFA06E00B2001925E
:1028B8000FF060FE019A8BF806213B7803F00403C1
:1028C80003F0FF01002B77D194F805312C4A572BE0
:1028D8001AD12D4B1A684FF47A73B3FBF2F3C3EB9A
:1028E800431203EB8203294ADB001380D8F8003037
:1028F8001A0601D505F05AFF254B1B685B075BD507
:10290800244B0A221A8057E0D8F80000400717D550
:102918005A2B15D192F808312BB1012382F80811EE
:1029280082F8093148E092F80A3183F0010382F80D
:102938000A310BB10C2000E00D200FF01BFE3BE02C
:102948005D2B00F043865B2B00F042865E2B23D183
:10295800032000F03EBE00BF5C2200202C22002095
:102968000C3F0020102400200625002038240020D9
:10297800202400203C0F00200000002028220020F6
:10298800E00A0020401A0020402A0020443F00208E
:10299800C82900204C3F0020562B01D10EF004FF1F
:1029A8009AF80230002B00F01A8694F805316F2B44
:1029B80040F015860FF014F8D8F80030580735D5D0
:1029C80094F80A31B44A8BB13B7859070ED5B9F956
:1029D8000610B5F85232994208DD336813F0010346
:1029E80002BF3221A2F80E1182F80A313368DA03E5
:1029F8000DD594F81021A84B2AB993F8082112B9DB
:102A08003222A3F80E21012384F810310EE094F845
:102A18000831A14A53B13B7803F0040303F0FF01E6
:102A280023B9012382F8081182F80931DFF88CA252
:102A3800002333600AF1500B9AF800209AF801300D
:102A48001AF8010C9A420BD251460FF00BFD38B11F
:102A58001AF8022C012303FA02F233681343336095
:102A68000AF1040ADA45E7D18C4B1B784BB18C4B41
:102A7800DFF84CB21A6812F0020F9A4640F0EB8168
:102A8800E2E1884E06F15A0A3278737816F8010C9A
:102A98009A4225D231460FF0E5FC08B3B37896F890
:102AA80004E0814A96F803B07B480C21013B01FB06
:102AB8000E4103EB43031344D1F818219A420FD077
:102AC800C1F81831002390F84421C1F81C310123C2
:102AD80003FA0EF322EA030381F814B180F84431B3
:102AE80006365645D0D1714BD4F848611B6803931C
:102AF8006F4B1B7804936F4B029300230193029B47
:102B08001968002900F0958191F800A0BAF1000F2A
:102B180000F08F815B68039AD31A002B0CDB02F557
:102B2800FA73029A5360019A0123934094F844215E
:102B380022EA030384F84431049B002B00F07981D6
:102B4800029B13F8042C4B780432D2B2002B40F0CD
:102B58003A81594B39F91220B3F8503203F1C800C1
:102B6800824202DD91F802B015E0C83B9A4203DACE
:102B78008978C1F1000B0EE0019A0123934094F883
:102B8800442122EA030384F84431039B029A03F5A3
:102B9800FA7353604DE1019B94F844211A41D3071D
:102BA80000F14781BBF1000FCCBF022001200FF0DC
:102BB80017FD0AF1FF31384A132900F23281DFE8A4
:102BC80011F01400250036004A0063008100A000BF
:102BD800BE00DC00E800F60030014A005900810020
:102BE800A000BE009400B200D00096F800A0DA441D
:102BF800BAF1FA0FA8BF4FF0FA0A2AEAEA7A304681
:102C080086F800A00FF014FC012022E096F801A03D
:102C1800DA44BAF1640FA8BF4FF0640A2AEAEA7AE4
:102C2800304686F801A00FF003FC022011E096F868
:102C380003A0DA44BAF1640FA8BF4FF0640A2AEA85
:102C4800EA7A86F803A03046D2F84C110FF096FBCA
:102C580003205146A8E0717959446429A8BF64212A
:102C680021EAE17171710D200FF050FCBAF10D0FDE
:102C780000F0D780317959446429A8BF642121EA3A
:102C8800E17131710E208FE0B179594481F3080167
:102C9800B171052088E000BFE00A0020513F002004
:102CA8005C2200205E3D002018A401082822002094
:102CB800401A0020F80B0020A43800200F3D002007
:102CC800C8290020D2F85001059281785944C829B2
:102CD800A8BFC82121EAE17181700F200FF016FC0E
:102CE800BAF10F0F059A00F09C80D2F85021517864
:102CF8005944C829A8BFC82121EAE171517012209E
:102D080052E0D2F850010592017B5944C829A8BF66
:102D1800C82121EAE171017310200FF0F7FBBAF125
:102D2800100F059A7DD0D2F85021D17A5944C8297C
:102D3800A8BFC82121EAE171D172132034E0D2F88A
:102D480050010592817D5944C829A8BFC82121EAAC
:102D5800E171817511200FF0D9FBBAF1110F059AB5
:102D68005FD0D2F85021517D5944C829A8BFC82145
:102D780021EAE1715175142016E0D2F85021D1787A
:102D88005944C829A8BFC82121EAE171D170092096
:102D98000AE0D2F85021517B5944C829A8BFC8215C
:102DA80021EAE17151730A200FF0B0FB39E0D2F843
:102DB8005021D17D5944C829A8BFC82121EAE17111
:102DC800D1750B20F0E7012B2BD139F91230887817
:102DD800B3F5617F05DB40F633029342A8BF134683
:102DE80001E04FF46173BAF10C0F1AD14FF49662F7
:102DF80092FBF0F0AC4A1278A3F5617393FBF0F301
:102E0800DBB29A420DD0184605930EF003FC059BE1
:102E1800504619460FF07AFB059B581CC0B20FF0BC
:102E2800DFFB019A0123934094F84421134384F86B
:102E38004431019B01330193029B0C330293019BA4
:102E4800042B7FF45CAE12E6D8F80030DE050FD50F
:102E5800964BDB7863B1DBF80030980708D5944BC4
:102E68001B8813F0010608D101200EF099FB04E03D
:102E780001200EF085FB012300E00023DAF8002092
:102E880051070BD553B101200EF07AFB884B1B88F4
:102E98009A0706D402200EF083FB02E002200EF00F
:102EA8006FFBDBF8003013F00A0F32D0DAF800308D
:102EB800DB060FD57E4B1B885E070ED404200EF070
:102EC8006FFB7C4B0A22B3F9043093FBF2F3A4F8AE
:102ED800543102E004200EF053FBDAF80030980673
:102EE80007D5734B1B88590606D440200EF058FBB3
:102EF80002E040200EF044FBDAF800305A0641BFE9
:102F08006C4BB3F904300A2293FBF2F348BFA4F8E0
:102F18005631DBF800309B0609D4DAF800301E057C
:102F280040F199804FF480700EF03AFB97E0624BC5
:102F38001B7813F0020F5E4B56D0604A1278042AB1
:102F480052D9DAF8002012F400720ED01B88D80685
:102F58003ED410200EF024FB20200EF011FB584820
:102F6800011D05F077FB02232EE01E8806F01006EF
:102F7800B6B24EB11020029301920EF001FB019AF5
:102F8800029B84F858210126DAF80020510514D54F
:102F9800D4F85C11DFF844E14889BEF90010494AC9
:102FA8000029B8BF4942814207DABEF90210002958
:102FB800B8BF49428142C0F263831B889A0608D58C
:102FC80020200EF0DDFA002384F85831012600E0B5
:102FD800002694F86831B3B90E200FF0CBFA394BBC
:102FE800012283F868210EE01B8803F03003002BD0
:102FF80093D010200EF0C4FA20200EF0C1FA00235E
:1030080084F8583101E0002E87D02F4A002002F1C1
:10301800280E02F150062D4B002123F810102C4BDE
:10302800516023F810100433CEF8041023F8101060
:10303800002313609360CEF80030CEF80830336078
:103048007160B36014320EF1140E143600287FF448
:1030580064AF0120DFE74FF480700EF091FA1D4B4A
:103068005A79082A1E4601D00E2A02D140200EF0B5
:1030780087FAD8F800305B0536D596F8DC321BB9EC
:103088003B7813F0040F03E0DAF8003013F4002F54
:1030980026D0114B00221A703C200BF066FF18B3A3
:1030A80008F0F0F8F8E700BFD82200202C22002012
:1030B80058220020302400203C0F0020420F00201E
:1030C80004100020E00A00204C0C0020483F00209B
:1030D800C40C0020A4380020542A0020FA23002021
:1030E80003F0C2FA11F008FA012384F8EC3194F8DD
:1030F800ED310BB3DBF800305F071DD5DAF800308F
:103108001E0703D408200EF03BFA15E08D4B1E88ED
:1031180006F00806B6B27EB908200EF041FA8A4BCE
:103128001A688A4B1A608A4BB9F80620A3F8EE2170
:10313800884B1E60884B1E6094F8ED311BB3DBF89A
:103148000030D8061FD5DAF80030990204D44FF4BD
:1031580000700EF015FA16E07A4B1E8806F4007619
:10316800B6B286B94FF400700EF01AFA764B1A68A8
:10317800764B1A60764BB9F80620A3F8EE21754B0A
:103188001E60754B1E60D4F848E1B9F90620BEF8F8
:103198000A108A420FDBB2F5FA6F9EF80740BDBFEE
:1031A800531A6343A1F5FA64C4F16404BCBF93FBEA
:1031B800F4F4643400E0642495F82232019395F81D
:1031C8002332029395F9D831B5F850829BB2039314
:1031D800624B1E680021624B33F91190C8EB09035A
:1031E80003F2F31540F2E63085424FEA410A03D86C
:1031F800002BB8BF5B4201E04FF4FA7302294FF08D
:10320800640029D0019D1DB1AB42CCBF5B1B0023DC
:10321800544D93FBF0F76FF0630B35F817C00BFBB9
:10322800073B013735F917500FFA8CF7ED1B4E4F56
:1032380005FB0BF595FBF0F5654427F80A500EEBF6
:1032480001052D796B43494D93FBF5F364339BB22C
:10325800634393FBF0F02CE0029D1DB1AB42CCBF61
:103268005B1B00233A4D93FBF0F06FF0630C0CFBF3
:10327800003B05EB400705EB4000B7F9F071B0F9EA
:10328800F201C01B00FB0BFBBDF80C009BFBFCFB19
:10329800C7EB0B0B1BFB00FB3348A0F804B09EF8F0
:1032A8000600002BB8BF5B424343304893FBF0F065
:1032B800643073782E4F6425434393FBF5F37B54B6
:1032C8002C4FF37A434393FBF5F37B54737D264FDE
:1032D8005843294B90FBF5F002295854274B09D144
:1032E800C1459D7009DB264B264C186810F48050A8
:1032F8000FD11CE0C1455C5404DA37F80A305B4250
:1033080027F80A300131032906F101067FF463AF7B
:10331800E9E7B2F57A7F05DBB2F5FA6FA8BF4FF49B
:10332800FA6201E04FF47A72A2F57A7235E0B4F8E5
:1033380052128A4228DBB2F5FA6FA8BF4FF4FA623C
:1033480023E000BF58220020FC0F0020E0320020BC
:10335800E00A0020E8320020EC3200204023002060
:103368004038002046360020FA2300200CFEFFFFDC
:1033780040240020DE0C0020FC2400203C250020F6
:103388001C220020A43800200A46521A4FF47A73EF
:103398005A43C1F5FA61B2FBF1F2DFF87CE36FF052
:1033A8006306642392FBF3F53EF8151006FB05222D
:1033B80001350EB23EF91550AD1B6A4392FBF3F38B
:1033C8000B449BB2FB80C8B1BD4A1268920015D568
:1033D800BC4AD27892B9B4F85012A3F57A72C1F502
:1033E800FA6000B212B24FF47A73120392FBF3F24E
:1033F80002FB00F3B44A01EB2333D380B34B1B88A1
:1034080003F040039DB2D5B3B14BDFEDB27AB3F907
:1034180004300A2293FBF2F3AF4AB2F856219B1A02
:103428001BB208EE103AB8EEC88A28EE278AB0EE2A
:10343800480A0EF09DF8F0EE408AB0EE480A0EF009
:1034480036F8B7F9023006EE903AB7F90030F8EEE0
:10345800E66A07EE903A20EE667AF8EEE77AA7EE8B
:10346800A87A67EE807ABDEEC77AE6EEA87A17EEFC
:10347800103AFDEEE77A3B8017EE903A7B8094F89D
:103488005732002B50D0002D4ED1934C934D94F8C9
:1034980001229A4215D007EE903A9FED8E8A84F861
:1034A8000132F8EEE77A27EE888AB0EE480A0EF085
:1034B8005FF885ED010AB0EE480A0DF0F8FF84EDDB
:1034C800810AB7F90030D4ED815A95ED016A844A32
:1034D80007EE903AB7F9043006EE903AF8EEE66A4D
:1034E800F8EEE77A25EEE67AA7EE867A67EEA57A11
:1034F800BDEEC77AE6EE867A17EE103AB3F5FA7F94
:10350800A8BF4FF4FA739342FDEEE77AB8BF1346AB
:103518003B8017EE903AB3F5FA7FA8BF4FF4FA73E1
:103528009342B8BF1346BB806E4B1A78570704D531
:103538006D4B1A689B8813853DE061490968CE0781
:103548005CBF42F001021A70684A6949127815078F
:103558005EBF1A7822F001021A70664A126812F0E9
:10356800040F02D06448008878B95B48B0F80C01B1
:1035780008B1940709D4614A1288003218BF0122A1
:103588001AB95F480088642806D902220A701A7896
:1035980022F001021A7005E01B78D80756BF0223F3
:1035A8000A700B700AF0D6FA564B1B68C01A00282E
:1035B80001DB07F0A3FD544B9B68002B7BD05348DD
:1035C80009B0BDEC028BBDE8F04F1847012000E0C0
:1035D80002200138C0B20EF0D5F8FFF7EDB994F823
:1035E8000531972B06D13C4B4FF4C872A3F80C2138
:1035F800FFF7E2B9A72B06D13C4A137843F004033E
:103608001370FFF7D9B90022BB2B079201D102230F
:1036180003E0B72B04D14FF6FE73ADF81E3009E076
:10362800BE2B01D1022303E0BD2B18D14FF6FE7348
:10363800ADF81C30BDF81C20B5F8F0311344A5F8DE
:10364800F031BDF81E20B5F8F2311344A5F8F23177
:103658000EF0AAF8002384F80631FFF7ADB9792BEC
:1036680004D12B4AD37823F0010306E07A2B7FF4A8
:10367800A3A9274AD37843F00103D370FFF79CB975
:103688001B889B063FF5A5AC202001920DF088FF12
:10369800204B019A1968C2F860115B68C2F864315E
:1036A80002F5B07002F5B27104F0D4FF019A012658
:1036B80082F858618DE409B0BDEC028BBDE8F08F4B
:1036C8005C2200202C220020FA230020582200200F
:1036D8003024002035FA8E3CE00A0020000000204B
:1036E8000CFEFFFF503F0020643800203C0F0020F4
:1036F80050220020C82900204C3F0020443F0020D1
:10370800DA220020542200209C290020E80C002006
:10371800FC220020440F00202E3600202DE9F04F17
:10372800A44BA54C1B68A54E9D6A2DED048B9BB040
:103738000AF010FA2368C01A30800AF00BFAA04B7E
:1037480005931A782060012A01BF9E4B32881A809F
:103758009D4A04BF12885A809C4B13A8DB6898477F
:103768009DF84C3023B12379002B00F05C840AE0EB
:103778000AF0F0F9964A23681268EB1A1844503296
:103788009042E9D3EFE70EF019F808B90EF02CF8DB
:10379800904D95F856321BB98F4B1B88002B4ED095
:1037A8008E4AE1881268B1FBF2F18D4A824B127899
:1037B800481C80B220811AB3B3F80AB000237E4EA9
:1037C800884A06F1140E06F10C0932F813C03EF8C7
:1037D800137039F813202EF813C0C7EB0C0712FB2F
:1037E8000BF20FFA80FA92FBFAF2174429F81370D9
:1037F8000133042BE3D17A4B718100221A7002E065
:103808005A89013A5A8160896B4A03B2002B4FF0FA
:10381800000313DDB2F90860734931F81320083149
:1038280012FB00F231F8131092FBF6F28A1A6D4976
:1038380021F813200133042BEED100E053816B4EA5
:103848006B4B3168634F012211F0080F1A704FD08B
:10385800644ADFF8C4E1908800F10E039BB21C2B88
:10386800644BB3F904303ED8DFF86CC1BCF800C033
:103878001CF0040F37D0BEF800E04FF00A0C93FBA1
:10388800FCF3CEEB03039BB21FFA83FC0FFA8CFE0A
:103898001EF1B30FBCBF03F5B4731FFA83FC0FFA14
:1038A8008CF3B32BC4BFACF5B4731FFA83FC524B33
:1038B80097F8D8E11B781B071AD54FFA8EFECEF180
:1038C800000E1CFB0EF3DFF854E1DEF800E09EF872
:1038D80009E09BB213FB0EF36FF01D0E93FBFEF392
:1038E8001844908004E00A2293FBF2F3AEF800300B
:1038F80011F0140F00F0AF80374B1B8803F40273EC
:10390800002B00F0A8803C4B36491B7803F01003CD
:1039180003F0FF094BB1394B97F9A222B3F9000024
:103928004B8800FB02334B8095E0E269DFF8F0E05A
:1039380092F803C02048324B9278BEF900E0BCF1FF
:10394800000F22D0B3F906C0CEEB0C0888EAE87362
:10395800A3EBE87393420DDD2A4BF445C3F80090BE
:103968004FF0010380F82030C8BF5242CB8892B292
:103978001A446FE090F82030002B5FD0224B80F87B
:1039880020901A68214B1A6058E0B3F90630CEEB44
:10399800030383EAE379A9EBE379914542DD022247
:1039A80093FBF2F31A4A13601A4A0123137080F842
:1039B800203043E094320020EC0C0020463F0020E9
:1039C8005A2900205C290020DA2200209C290020A6
:1039D800402A0020A4380020582200201C2400205F
:1039E800CC0C0020FA230020F80C0020C829002065
:1039F800CD0C0020302400203C0F0020EC320020A9
:103A080040380020E8320020FC0F0020E03200207F
:103A1800343F0020F0320020340C002040230020E6
:103A2800CE0C002090F8203043B1A94B80F820C07C
:103A38001A68A84B1A60A84B83F800C0A74B606AA5
:103A48001B68028840887344934203DB8342A8BF03
:103A580003461A46CA80A24B1B78B3B1A14BB3F9EF
:103A68000620B7F852329A420FDC9F4B5B79012B44
:103A780001D0192B02D197F89C2232B90E2B04D011
:103A8800082B1EBF994B00229A8097F81092B9F123
:103A9800000F33D0964B1B889B072FD0954BDFED3B
:103AA800967A93ED080AB4EEE70AF1EE10FA20D9F7
:103AB80014F092FCD4ED0A7A20EE270A14F008FCE0
:103AC800B0F5617FA8BF4FF4617007EE900AB8EEB9
:103AD800E70ADFED8A7A80EE270A0DF0E8FC07EEA8
:103AE800909AF8EEE77A27EE800A14F0F1FB80B29C
:103AF80000E000207D4AD3881844D08033689E06B1
:103B080040F1A0807A4B1B8803F03003002B00F0B3
:103B180099807B4B1B78D80740F19480794BDFED77
:103B28007A7AB3F90430DFF8FC910A2293FBF2F3B6
:103B380008EE103AB8EEC88A28EE278AB0EE480A8E
:103B48000DF0B5FCF0EE408AB0EE480A0DF010FD1D
:103B58006E4B6F4A1B6893F80380B0EE409AB2EE42
:103B6800048AB8F1000F49D0DFF8BCB1B2F90200FD
:103B7800BBF80260069233B2C01A04F059FDC8F1CE
:103B880000039842069A03DB4045A8BF404600E080
:103B980018463044BBF8006006931FFA80FAB2F961
:103BA8000000ABF802A032B2801A04F041FD069B77
:103BB800984203DB40450346A8BF43461E44B6B2BD
:103BC800ABF8006036B207EE106A0FFA8AFAB8EE60
:103BD800C70A07EE90AA28EEC07AF8EEE77A20EE38
:103BE800090AA7EE897AA7EEA80A87EE087ABDEE39
:103BF800C77A17EE103AA9F800301BE0B2F9023084
:103C080007EE103AB2F9003000EE103AB8EEC00AEA
:103C1800B8EEC77A68EEC07A20EE090AE7EE097AAC
:103C2800A7EE280AC7EE887AFDEEE77A17EE903AF3
:103C3800A9F8003080EE080AFDEEC07A17EE903A37
:103C4800A9F80230334B1878002840F0EA81324B4B
:103C58001A6812F4002F994600F0E3812F4E33784A
:103C6800033B052B1AD897F8153533B1012B08D12A
:103C780004F0F0FEC0F17F0003E0E06A03689B688F
:103C88009847236B94F834201344B3F5807FA8BF7A
:103C98004FF480738342D4BF236320633378023B9D
:103CA800092B00F2B981DFE813F00A0041006D002A
:103CB8008D00A100B800C900360159016401002334
:103CC8002363A363164B1B68E3630323A3E100BFCD
:103CD800FC0F0020E0320020F0320020EC320020FF
:103CE8000200002040380020A4380020FA230020D9
:103CF80058220020EC2700208FC2753CEFB6B04454
:103D08003C0F00203024002035FA8E3C3C0C00206B
:103D1800C80C0020513F00201C22002054360020EF
:103D280028220020483F0020C40C0020994B1A6824
:103D3800E36B64339A4240F26F81402009F04EF9F8
:103D4800002840F069814FF04009934DA36B934FD1
:103D5800E85C58B105F01EFD3B6B013B3B63BB6B58
:103D6800B9F1010903F10103BB63EED1A26B8B4BDF
:103D7800AA5C002A40F050819A634FF0FF32DA6360
:103D8800042348E12A230093854B019303F10C0295
:103D980002924920A3F10A025021023306F0AEF83C
:103DA800002840F03981D9F800304FF0FF3213F085
:103DB80080030FBFA363A063E263052304BFE2632C
:103DC800072328E1774A02230021009301910291F9
:103DD800482002F1080306F091F8002840F01C8101
:103DE8004FF0FF33E363A063062314E16E4B0193A6
:103DF80003F10C02072502920095A3F1080247205F
:103E08000021043306F07AF8002840F005814FF0CD
:103E1800FF33A063E3633570FEE0644A05230021A5
:103E2800009301910291532002F1080306F066F80D
:103E3800002840F0F180A0630823ECE0402009F05E
:103E4800CDF8002840F0E880A36B0C2B00F2D38556
:103E5800DFE803F0070B0E1218292D313539444ECF
:103E68005200534809F030FA51E05248524917E0DD
:103E780052485349534A48E0534897F8131597F85E
:103E8800142542E095F8682450485C235343EA1807
:103E98000C2192F8E42301FB02331D4495F8E61344
:103EA80009F012FA33E04A48B7F8D010F8E7494861
:103EB800B7F8D210F4E7484B48481969F0E7484B7F
:103EC80048481988ECE7236CD90403D5464897F885
:103ED8001212E5E7314B0B229A6318E0434897F832
:103EE800161297F8172297F8153209F0EDF90EE037
:103EF8003F48B4F84410D3E7D9F800301A0506D57E
:103F08003C48B7F81C12B7F91A2209F0DDF9A36B7F
:103F18000133A36380E0384B1B689B011BD5B4F8C1
:103F280048301E4DBBB9354BD5F84C901F6845201D
:103F380005F030FC0E2005F02DFC484609F037F955
:103F4800384609F034F94FF48053A5F846300A236F
:103F5800337005F0EBFC05F0B3FF5DE094F85030EA
:103F6800002BF6D0244B1B689F01F2D40923337031
:103F7800F1E7084B1A68E36BC8339A4204D997F8FB
:103F88001555002D46D13BE009F06EF80028F6D112
:103F980042E000BF2822002054A40108EC0C0020B5
:103FA800BEA40108ACA60108C4A6010810A7010810
:103FB80028C8010842C8010815C7010857C80108E0
:103FC80000C701080CC701086BC801087CC80108B4
:103FD80086C8010895C801089C290020A4C80108C2
:103FE80008000020B4C80108BEC80108CBC80108F1
:103FF800E4C80108EFC801085C2200202C3F00201B
:10400800E06A0EF078F894F85130E562022B01D19D
:1040180010F072FA0123337009F010F808B1012387
:10402800337000232371944B0BAD5B682846984787
:10403800002800F01981059B1878002303288F4E6B
:1040480002BF8F4F56F8231027F813109A0035F93E
:104058001310B1500133032BF0D18848894B014626
:104068001A780AF025FB94ED158AB5EE408AF1EE30
:1040780010FA12D1844FDFF824A23B88002B00F0FD
:10408800CB80D4F8C8301B78AAF1480908EE103A5A
:10409800AAF13C054FF0000B5CE07C4B93F85850BC
:1040A8009DB97B4B1A681F467AB1DFF8E0913968F1
:1040B80009F15C002844B0EE480A24350CF03EFFB4
:1040C8006C2DF2D1012389F8583094F85830002B20
:1040D800D0D0002556F8253007EE903A6D4B2420B5
:1040E80000FB0530B8EEE70A0CF0FFFE14F0F0F81C
:1040F80046F825000135032DECD1BBE7D5ED006A64
:1041080007EE103A37EEE66AB8EEC77A86EE077A17
:1041180036EE877AD5ED026A85ED017A77EEC77AB1
:1041280085ED007AE6EE276AF0EE667AC5ED036A59
:10413800C5ED026A0023BEF1010FB3504AF8023000
:1041480039D00BF1010BBBF1030F09F1040905F19B
:10415800140577D04E49B7F800E00B684FF47A722F
:10416800B2FBF3F3C3EB431203EB8203DB009BB216
:104178009E4502BF0023C9F800302B61D9F80030F2
:10418800184656F82B30184456F82B30C9F800005A
:1041980007EE903A2B690133012B8C464FEA8B02CC
:1041A800F8EEE77A2B61A9D10023C5ED017AC5EDB8
:1041B800007AAB60BEE72B69CDF820C0012BC3BFE6
:1041C80003F1FF3300EE103AD5ED037A9FED320A82
:1041D8000791C8BFB8EEC00A0692C8BF87EE800A2A
:1041E80014F0FCFA069A0799DDF820C018EE103A88
:1041F800A3B1F8EEC87AB4EEE70AF1EE10FA0DDDD5
:10420800DCF800204FF47A73B3FBF2F3C3EB4312EC
:1042180003EB8203DB003B8000231BE009684FF4BB
:104228007A73B3FBF1F3C3EB431103EB8101C900CC
:10423800D9F8003089B203EB510393FBF1F14AF846
:1042480002107EE73888012801D10EF093F93B88E7
:10425800013BE0E756F823205AF82310521A46F893
:1042680023200133032BF5D194F82031C3B1074A39
:10427800013B82F82031CAE39C2900200424002055
:104288005C290020C4290020443F0020EC0C0020B9
:10429800402A0020480D002000000000000E0020E9
:1042A8009C4A9D49D2ED787AF5EE407AF1EE10FA03
:1042B80018BF92F8E831B2F832221ABF03F1FF337F
:1042C800DBB2012384F82031944B00930D689449A4
:1042D80008689449503B0968A847934B934ADB7890
:1042E8000893934B93F800B0BBF1030F18D9914B87
:1042F800D3F824315D88B5F5FA7F11D28E4BB2F927
:104308000460B3F9040080EAE077A7EBE07769423C
:10431800CB1B9E4203DBEB19B342A8BF3346938005
:10432800864B1B68DD79E5B1854909688E0715D587
:1043380084490978012911D9DB78834E5943368895
:10434800CB1A9E4288B203DBB1420B46A8BF334664
:1043580001B209031BB291FBF3F301E04FF4805360
:10436800049353880693059BD4F824C17748B2F880
:1043780000E0B2F9049093F8008000210B460A4649
:104388005A4548D29CF9004090ED016A644209FB05
:1043980004F407EE904ABDF9184006EE904A0FFA69
:1043A8008EF4B8EEE77A07EE904AF8EEE77AF8EE80
:1043B800E66A67EE867A90ED026AE6EE867A0DAED8
:1043C800D0ED036AE7EE267AFDEEE77ACDED057AC1
:1043D800BDF814401DB1049F24B27C43241326F871
:1043E80012400DAC0FFA83FA34F8124026B2564543
:1043F80005DC0FFA81FA5645B8BF214600E023468E
:10440800B8F1050F04D1042A9CBF514E26F812407A
:1044180001321030B4E74A4F47484E4A591A3B68B0
:1044280013F4805F89B2434B32D04B4C414E247811
:1044380064075EBFD3F8EC41248AA3F8E841C48836
:10444800D3F8EC01B0F8108044480068C5880FFA2A
:1044580084FCC5EB080EF44503DC12680588128855
:1044680005E04544AC4505DB126855884288A6F846
:10447800E84111E0B6F9E8417445CDBF12680588F6
:1044880012685588CDBF428812882C46144603E02E
:10449800C48810680288458831481FFA85FE96B29C
:1044A800C6EB0E020DB212B2954227DD4FF0010E97
:1044B80080F800E010034FF0000E90FBF5F5C3F80C
:1044C800F051DE450BD20DA830F91EC005FB0CFCDF
:1044D800CCF30F3C20F81EC00EF1010EF1E70220CC
:1044E80092FBF0F032181F480078062892B23BD1B0
:1044F800BBF1020F38D81648418035E0002202216E
:10450800027095FBF1F57219C5EB0E0592B2A9B2CE
:104518002BE000BFA43800202C040020E43A00203F
:1045280040230020280C00202C22002000250020F9
:104538002C250020EC0C0020FA230020382900202C
:104548001C220020EA0000208C290020140E0020E4
:104558005C29002064270020503F002060270020AD
:10456800212400205A2900201146B3F9E801D3F884
:10457800EC81AC4B3F68D3F800E0AB4B04901D686E
:10458800AA4807F010030993A94B1B7803F004030A
:10459800DBB20593A74B1B6803F000630693A64B99
:1045A800B3F90630079307F4805900265E4555D2C3
:1045B8000DAB33F816C023B207EE903A9F4B03EBCE
:1045C800061393ED007AF8EEE77A13B267EE877A6E
:1045D800FDEEE77A17EE90AA9A4503DB0BB2534536
:1045E800A8BF53466344089F9BB220F8023F1BB202
:1045F80017B1B5F804C015E0B9F1000F10D0B8F83C
:1046080010C0BEF806A0049FCAEB0C0C674504DC7A
:10461800B5F800C0BEF800A006E0BEF802C001E090
:10462800B5F800C0B5F802A0634503DB5345A8BF41
:1046380053469C46099BA0F800C06BB1059B5BB133
:10464800B9F1000F08D1069B33B9B8F81230079FAB
:104658009F42BCBFAB8803800136A7E7744B1A782A
:1046680002F0040202F0FF034AB17549754F91F850
:10467800F431013BDBB2182B00F24D8109E05B45B8
:10468800F3D2714A32F81310704A22F8131001332A
:10469800F5E701229A406E4B1340002B00F03B8156
:1046A8006C4B65481B8813F4807F08D06A4B1A88C6
:1046B800ADF84C205A88ADF84E209B8815E0674B22
:1046C8001A88ADF84C205A88ADF84E20644A9B8869
:1046D8001268ADF85030D20409D5D1F8EC21B0F900
:1046E8000640128A944202DA5B42ADF850305D4DC2
:1046F800B5F902304FF47A7203F5E16353434FF48E
:10470800616493FBF4F3A3F5FA73ADF86430B5F97B
:10471800003003F5E1635A434C4B92FBF4F21B88DB
:10472800A3F2DC53A2F5FA72ADF85230D1F8EC31AD
:10473800ADF866201B8A0288D21AADF85420428848
:10474800D21AADF856208288D21AADF85820C288FD
:10475800D21AADF85A200289D21AADF85C204289E3
:10476800D21AADF85E208289D21AADF86020C289CB
:10477800D31AADF862300023002227F81320013342
:10478800082BF9D12B4A384B12680492374A1B7808
:10479800126837490592374D072202FB031B59451A
:1047A80000F09F800B783BB103F115020123934081
:1047B800049A134000F0918011F806CC059B11F87B
:1047C80005AC11F8034C11F8018CCCEBCC0E03EBC3
:1047D8004E0E6420BEF90020BEF902309B1A9BB22F
:1047E80011F9022C4FEA53095A434FEA4A0692FB41
:1047F800F0F21AA8C9EB020292B2064414B936F8CC
:104808001C0C0CE0B5F9000036F91C6CB04233DA28
:104818000444844203DBA6423046A8BF20462880D1
:1048280033E000BF60270020642700202E260020E8
:10483800503F00205C22002040380020140E002049
:10484800EC0C0020C4090020E022002030260020C3
:104858009920980158220020FA23002000250020E2
:104868001C22002030240020682700203C23002040
:104878006F270020E20E002007DD041BB44203DB93
:104888008442A8BF044626462E80DEF80A4011F965
:10489800046C012000FA0AF02042288812B216FBA4
:1048A80000F014BF4FF0FF340124642690FBF6F0AB
:1048B80090420ADB4FFA88F25A4392FBF6F2C9EBB0
:1048C800020212B28242A8BF0246534B33F81C9030
:1048D80002FB049423F81C4000E02B8002350731CA
:1048E8005DE74E4B4E4ED3F8008000250E2202FBAA
:1048F800058236F8023F92F90640E8B214FB03F34A
:10490800642493FBF4F4348009F0D4FA013520448C
:10491800082D3080EAD1434B404D1B6813F0200F1F
:1049280032D0002009F0C6FA38800646012009F086
:10493800C1FA3D4B384C1B6878801B0624D53B4B8D
:104948003B4AD3F818321B78012B20D129681388E9
:1049580091F914E0B2F902201EFB03FE91F906302A
:104968004FF0320C5B429EFBFCFE1FFA8EFE534357
:104978006FF0310293FBF2F27244B11893FBFCF32F
:1049880073442180184460802D68002318E0D5F80E
:1049980000E053889EF9061011FB03F1322391FBC6
:1049A800F3F13144218011889EF9142012FB01F2A1
:1049B80092FBF3F21044E6E70133082B3A5311D087
:1049C8000E2101FB035137F91300B1F90020B1F9A9
:1049D800021090424FEA4304EEDB0AB28242A8BFBB
:1049E8000246E9E70CF0EAFE08B10CF0FDFE0F4BB9
:1049F80001221A710BE008F037FB00283FF40CABDA
:104A08004FF48053A4F846300A23FFF704BB1BB0C9
:104A1800BDEC048BBDE8F08FC40900203C230020C6
:104A2800C20900201C2200205C220020EC0C00207F
:104A3800302400202DE9F04F85B001F015FEBF4B62
:104A48001E78002E40F09187BD4D2B685C0540F123
:104A58008C87BC4BBC4CB3F8DE802378BB4F002B53
:104A680000F003823A686368D31A7C2B40F2FD8118
:104A7800237A62600133237206F12400DFF8C892BA
:104A8800C0B201F0A5FD09F10C0353F8263007EE7A
:104A9800903AAF4B1B88B8EEE77A07EE903AF8EEFB
:104AA800E77A0136C7EE277A9FEDAA7A67EE877A0A
:104AB800FDEEE77ACDED007ABDF9000001F076FD54
:104AC800032ED9D1302001F083FDB9F9180001F087
:104AD8006DFD01F075FD99F80830980732D1D9F8C5
:104AE800042041F288339A4219D9102001F070FD50
:104AF8006426D9F81C0090FBF6F000B201F056FDD0
:104B0800212001F065FDD9F81C0090FBF6F306FBA7
:104B180013000028B8BF404200B201F047FD14203E
:104B280001F056FD8C4BB3F904000A2390FBF3F017
:104B380001F03CFD1C2001F04BFD002001F036FD8A
:104B480001F03EFD237A590740F06B81022001F005
:104B58003FFD7D4B186A6423323090FBF3F000B2BE
:104B680001F024FD7D4B0320B3F9066001F030FD10
:104B78007B4B1B785A074FF0050996FBF9F6B6B23E
:104B88000BD5784841460DF0A7FC20B92B6813F0E7
:104B9800100F18BF002630B205E0734B1B68D88988
:104BA800B0FBF9F000B201F001FD2B689B076FD54F
:104BB800DFF8C891A68CDFF8C88199F80010B8F81A
:104BC800002036016423B6B203FB02124B00B2FB8D
:104BD800F3F346EA0326B6B2C3F303231E430620C3
:104BE80001F0F6FC30B201F0E1FCA38C99F800204A
:104BF80001339BB293FBF2F102FB1133A16AA38448
:104C08008B7B012B05D1392001F0E2FCB8F90000BB
:104C180021E0B8F800606E237343152693FBF6F67F
:104C2800CB7BB6B20BB196FBF2F63A2001F0D0FC82
:104C38004FF06409B6FBF9F80FFA88F001F0B6FCFA
:104C480009FB18663B2001F0C3FCB0B2461D0A20E0
:104C580096FBF0F000B201F0A9FC282001F0B8FCA6
:104C6800E36A0A2093FBF0F000B201F09FFC0420F5
:104C780001F0AEFC3C4B1B68DB8913B109F0B0FDB9
:104C880003E03A4B186880F3100000B201F08EFC84
:104C9800374B1B689E0640F1B98094F83030DFF836
:104CA800A88098071DD5112001F092FCB8F83200B1
:104CB800304B4FF4F366704390FBF3F000B201F011
:104CC80075FC192001F084FCB8F8320046436420D2
:104CD80096FBF0F696FBF0F300FB136000B201F0D0
:104CE80065FC94F83030A68E13F0020F08BF00263A
:104CF800012001F06DFC30B201F058FC092001F0F0
:104D080067FC002001F052FC1B4B94F836601A88AF
:104D1800B2F5967F0AD90C4B1B7A03F00F03072BC9
:104D280004D842F20F76964228BF1646052001F0B5
:104D38004FFCA36A5B7B3BBB30B242E0513F002093
:104D48001C220020A43800200C0F0020282200205C
:104D58000800002000007A4430240020FA230020B4
:104D6800503F0020E43A0020382900203C29002048
:104D7800C8290020A0860100E8000020EA000020E1
:104D88008C2900206666E63FA6F1200307EE903ADC
:104D98001FED047AF8EEE77AF6EE006AC7EE877A36
:104DA800BEEE007AF5EEC07AF1EE10FA58BFB0EE1A
:104DB800667A77EE877AFDEEE77ACDED007ABDF96F
:104DC800000001F0F3FB94F83020C34B910703D4A3
:104DD80093F83720012A04D1012384F83730BF48DB
:104DE8001BE09B6ADFEDBE6A93ED017AD3ED027A90
:104DF80027EE267A67EEA67ABDEEC77AFDEEE77A49
:104E08008DED027ACDED037A02A806E0B54A92E864
:104E1800030002AB83E80300184601F0E9FB01F048
:104E2800CFFB237A282B20D1AB4B386800221A728B
:104E38004FF03C094FF47A73B0FBF3F8172001F0F8
:104E4800C7FBB8FBF9F6B6FBF9F009FB10600002E6
:104E580000B201F0ABFB182001F0BAFB09FB168089
:104E680000B201F0A3FB01F0ABFB94F84030DFF88F
:104E78006882002B00F05D8108F06CFED8F84430A1
:104E8800994AC31A9342064640F2C080002388F824
:104E98004A3088F84C30954B1B88DAB21B0A88F8E0
:104EA800662088F8673088F85C2088F85D30D8F884
:104EB80074203B689A1AD8F87830197C4FF47A73C2
:104EC8004B439A420ED38A4B1B68C8F87430894BFF
:104ED8001B78013B012B9FBF102388F84A3002231F
:104EE80088F84C300A20E26A834B92FBF0F284F88F
:104EF8006420121284F8652094F830201B6893FB14
:104F0800F0F384F868301B1284F86930920794F83B
:104F18003630714984F8963003D42D2381F89730C0
:104F280072E0042BD4F838A0E76BDFF8DC91734A01
:104F38008CBF3323322381F897304FF00608704B2B
:104F48009AFBF3F097FBF3F309FB00A109FB037944
:104F580003EB830308FB01F103EB830391FBF2FCF2
:104F68004FF0640E02FB1C119B0091FBFEF184F8CC
:104F78008810091208FB09F884F8891098FBF2F1E7
:104F880043FA81F39BB202FB118292FBFEF284F892
:104F98008D20121284F88B3084F88E201B0A628EC2
:104FA80084F88C302423534393FBFEFEB4F8A830D6
:104FB80084F88F301B0A00EB800084F89030A38EB1
:104FC80084F883E000EB8000800003F5FA739BB25D
:104FD80040FA8CF080B284F891301B0A4FEADA7AF2
:104FE80084F88600FF0F000ACEF3072E84F892306B
:104FF800B4F8AA3084F885A084F8870084F88A7009
:1050080084F884E084F89830334B5E64324C94F82A
:10501800AC80B8F1000F0DD1D4F8B40008F05AFEF6
:10502800012807D90228374F00F0618401F0B0FA4F
:105038000123BB70D4F8B870274B002F79D093F8B0
:10504800AC203AB1D3F8C02040F6B731B21A8A4240
:1050580016D86EE0012283F8AC20D3F8C420D3F828
:10506800B4001278022A04D80430022101F07AFA36
:1050780002E0022108F022FE002384F8C83056E03E
:1050880093F8BC20AAB9C3F8B82083F8AC20D3F8A9
:10509800C420D3F8B4001278022A04D804300121BD
:1050A80001F060FA02E0012108F008FE01F070FA50
:1050B8003DE0013AD2B283F8BC2093F8C81093F8C7
:1050C800C9001ABB01304A1C83F8C90083F8C820FC
:1050D800D3F8B40029E000BF0C0F0020440F0020D3
:1050E8008096184B38A701083F0D03008C29002033
:1050F80028220020D92200203C29002040420F000D
:105108008096980008000020806967FF3A460130C1
:1051180012F801EB83F8C9000EEB0107D3F8B400CD
:1051280083F8C870C3F8B820714608F0D6FDC4F8F3
:10513800C0609F4C9F4E94F8CA303768002B00F02F
:10514800CA81D4F8CC30002B00F0C58194F8D03057
:10515800013B012B00F2BF81D4F8CC00DFF850826C
:1051680008F0B8FDE0B1D8F8CC0008F0B0FD98F828
:10517800D130D6F800A07E2B81460ED102231B2801
:1051880088F8D03009D1D8F8CC0008F0A3FD20B9B0
:105198000123C8F8D4A088F8D83084F8D190DBE788
:1051A800D8F8D42033689B1A41F65832934221D953
:1051B800032388F8D0308EE17F4A32F8130010B903
:1051C80003464FF403600133B0F5C06FDBB200F063
:1051D800898020D9B0F5006F00F0928033D9B0F5FE
:1051E800036F3FD184F8D930744BDFF8C4811B6852
:1051F8009A063FD494F8D81094F8D930002900F0D2
:1052080068813268D21B012AD6D984F8D9300023A4
:1052180084F8D8305FE1B0F5007F4BD007D8B0F5FF
:10522800807F54D0B0F5887F00F0A280E6E7B0F523
:10523800806F00F0CD80B0F5826F00F00C81B0F582
:10524800047FDBD121E0B0F5E26F00F0A680B0F575
:10525800E46F00F0A680B0F5E06FCFD184F8D930C4
:10526800E168A1E0B0F5046F00F08E80B0F5026F40
:10527800C4D116E198F830309B07BBD5B8F8321086
:1052880024234B43123364211EE084F8D9302B6861
:105298009807AFD5464BD3F8DC30DA7B484B1B88F0
:1052A8001AB1484A117893FBF1F30A214FF40470BC
:1052B800594357E084F8D9302B68DFF8F480190592
:1052C80098D5D8F82C300A2193FBF1F1FBE084F84B
:1052D800D9303A4BDFF8D8801B685A078AD5D8F8F6
:1052E8001C10F0E084F8D9302B681B0582D5364BAA
:1052F800196801F003F92E4B002283F8D82079E7CA
:105308002E492B4A096884F8D93089067FF572AF8F
:1053180092F8301088077FF56DAFD90711D5D36B98
:1053280083EAE371002BA1EBE37101EB51014FF02C
:105338001902B1FBF2F1ACBF41F0004141F040412C
:105348000EE0936B83EAE371A1EBE371002B01EBB1
:1053580051014FF01902B1FBF2F1B8BF41F08041A1
:105368004FF4006001F0CAF8002384F8D83041E710
:1053780084F8D930114BDFF838801B685B077FF55C
:1053880039AFD8F818109EE084F8D9300F4BB3F92C
:10539800041001EB81014900E4E784F8D930216960
:1053A80002E0616984F8D9302C2391FBF3F1D9E745
:1053B8000C0F00202822002018CA0108C829002044
:1053C8008C290020EA0000203C29002030240020FD
:1053D80084F8D93094F8E030BB4A0133DBB2032BB0
:1053E80088BF012382F8E03094F8E01042F210738D
:1053F8005943B64B1B78D80748BF01319A0748BFB5
:1054080002315807B24B1B8848BF0431DA0748BF3E
:105418000A31980748BF14311A0648BF2831D80501
:1054280048BF28315A0748BF6431180748BFC831F8
:105438009A0548BF01F5C871980648BF01F57A7109
:10544800DA0648BF01F5FA61580648BF01F57A61E6
:105458004FF4806086E784F8D9309E4BDFF8689275
:105468001B6813F0200812D099F8302012F0020FB0
:1054780014BF4FF47A71002112F0010F14BF4FF4DA
:10548800FA6300230B4494F8361019446AE72B6832
:1054980019067FF5AFAE414601F030F889F8D8809B
:1054A800A8E684F8D9308B4BDFF81C821B689A0673
:1054B8007FF5A0AE98F830309B077FF59BAEB8F823
:1054C80034306421594301F019F8002388F8D830A2
:1054D80090E684F8D93094F8E1307B4F002B00F047
:1054E800D980D7F8E430002B00F0D4803668D7F89C
:1054F800E830F31A632B40F2CD80DFF8EC814120CD
:1055080000F0E2FF0A25B8F9020090FBF5F080B23E
:1055180000F0D1FFB8F9000090FBF5F080B200F080
:10552800CAFFB8F9040090FBF5F080B200F0C3FFA1
:1055380000F092FF97F8EC5015F0010535D0654B57
:105548001A6812F0200F98467AD097F830309807EA
:1055580006D597F83630052B34BF0227032700E01D
:105568000127472000F0B0FFA06BDFF85C9100F046
:1055780091FFE06B00F08EFF6425608EB0FBF5F0C4
:10558800C0B200F075FFD8F8003013F0140F0ABF4E
:10559800B9F83400D9F8F000684300F07BFF94F8BC
:1055A800360047EA8000C0B246E0494B1B88D9055F
:1055B80018D4DA060DD49F060DD458060DD4190751
:1055C8000DD4DA070DD413F0020F14BF03250125FB
:1055D80008E00D2506E0092504E0042502E0082579
:1055E80000E00225394B1F783B4BDB78C7F3800777
:1055F80013B147F00207FFB2532000F065FF374BA5
:10560800188800EB800000EB8000800080B200F07A
:1056180052FF002000F04FFFB4F8F400FE23584377
:1056280040F2FF3390FBF3F0C0B200F021FF0020FE
:1056380000F01EFF47EA850000F01AFF00F00CFF9B
:1056480094F8EC70204DC7B94F2000F03DFFD5F815
:10565800F80000F01FFFD5F8FC0000F01BFF3846EB
:1056680000F018FF012000F003FF95F8300000F06B
:10567800010000F0FDFE00F0EFFE94F8EC30C4F8F5
:10568800E8600133DBB20A21B3FBF1F201FB12330C
:1056980084F8EC30124D95F80080B8F1020FA94655
:1056A80040F00D8108F056FA0E4B1F6840F6B833EB
:1056B800C71B9F421AD900232B70B4F8003101335D
:1056C800A4F8003151E100BF0C0F0020503F00202A
:1056D80058220020C82900202C2200208C290020D4
:1056E80073280020AC28002030240020A04D2B79FE
:1056F8003A2B40F0F8802846A97809F0EBF8002802
:1057080040F0F1809B4B9C4E1B88F361E36AF36287
:10571800E369F363994BD4F804A11B68F364B4F804
:105728000031F766F36550460AF02BFBDFF864B2E8
:105738000746002840F0C3805046414608F0BEFAAC
:10574800042386F874309BF8083195F803A0DFF835
:105758004082642B4BD19BF80931072B08BF8BF88B
:10576800097194F8095106EB051303F1040B596804
:105778000191084612F0A5FBDBF804300093C7B28C
:10578800184612F09EFB5FFA80FB07EB0B0208320B
:1057980088F8072025F00F0288F80A2005F00F0284
:1057A80088F80D200BEBC70288F80E200199744881
:1057B8003A4612F01DFB009B07F10900714F19468C
:1057C8005A46384412F014FB98F807B058460EF0C1
:1057D80053FE7A1C02F80B0050460EF02DFE0023F3
:1057E80084F808316B1C84F8093100234FE096F8DF
:1057F8007550654A2B0704BF0135EDB2072D4FF0F0
:10580800000328BF012588F80A30174628013118F7
:1058180002F1010E0B7CC96840EA030C82F800C053
:10582800DFF878C11CF80320012A0EF1010306D91C
:10583800013A03F8011C9E46090AD2B2F4E7304443
:105848000135407C21F06001EDB20143082D1A4674
:105858008EF8001009D0484800EB0510D91B007CD1
:105868001CF8000001441329D0DDDF1B0637FFB206
:1058780047F0400388F8073038460EF0FDFD434BEB
:1058880086F87550D85550460EF0D6FDADE798F815
:1058980002205D1CDBB29A4207D93D4AD4F80401C4
:1058A800D15C08F01AFA2B46F1E794F80831032284
:1058B800013386F8742084F8083189F800202E4DC9
:1058C80095F87430032B50D1D4F8040108F0F9F995
:1058D80000284AD02F4B0121D3F8040108F0EEF933
:1058E800022385F87430002389F800303DE0BB7846
:1058F8002BB1C4F8B06087F80280FFF79BBBD4F8DF
:10590800B030F31AB3F57A6FFFF494AB0123D4F8EF
:10591800B400BB7008F0DBF90746D4F8B40008F00F
:10592800D6F97F067FF486AB8A2803D08E280ED05E
:10593800FFF780BB184B1B6899067FF57BAB94F883
:10594800AC30002B7FF476AB04F17C0306E094F8CE
:10595800AC30002B7FF46EAB04F14803C4F8B830C8
:105968002D2384F8BC30FFF765BB05B0BDE8F08F88
:10597800A02800208C290020080000203C290020B5
:105988008B38002082380020893800208338002096
:105998007C3800200C0F0020C829002085CA010887
:1059A80010F80A3C0133DBB20A2B84BF10F8131C31
:1059B800044A00F80A3C82BF002322F8113000F89C
:1059C8000A3C704770210020334A136C90681944D0
:1059D800081A40F68C23984270B513469160D0603F
:1059E80051603BD9127893F945108A4210460BD181
:1059F800111F082908D893F84610182901D8013131
:105A080003E083F8442002E0002183F8461093F96C
:105A180044402149A24219D191F84740B4B10C3110
:105A28000024944206DA1D4D51F8046F25F81460DD
:105A38000134F6E70C2805D01849002421F8104055
:105A48000130F7E7164801780131017083F84520E5
:105A5800002201211A7083F8471070BD92F8471090
:105A6800C9B1A0F2EF2440F2DA518C4208D811787B
:105A78000B2905D80B1D0131117042F8230070BDA8
:105A8800002283F84720074B03F13002002143F836
:105A9800041F9342FAD170BDD00400207021002069
:105AA8006E360020DC040020024A136C01331944CE
:105AB80011647047D0040020A1F57A7107EE901A9E
:105AC8009FED0A7A0A4BF8EEE77A53F82030C7EED2
