:020000040800F2
:1000000000500020AD4F01084D5001081527010890
:100010004D5001084D5001084D50010800000000EE
:100020000000000000000000000000004D5001082A
:100030004D500108000000004D500108C3D30008D6
:100040004D5001084D5001084D5001084D50010818
:100050004D5001084D5001080D7100080B7100084A
:100060004D5001084D5001084D5001084D500108F8
:1000700051D3000841D30008C1F800084D500108D1
:1000800031D3000821D300084D5001084D5001081C
:100090004D5001084D5001084D50010809710008EC
:1000A0004D5001088DF600084D5001089DF60008DE
:1000B00081F6000871F6000861F60008F55900089D
:1000C000F9590008ED590008F15900084D50010890
:1000D0004D500108B5F80008A9F800089DF800087F
:1000E000D1D300084D5001084D5001080000000018
:1000F0000000000000000000000000000000000000
:0C01000000000000000000005FF808F1A3
:100110002DE9F04FAB4BA3B01B68AB4C9F6A0DF0C1
:100120001FF92368A94EC01A30800DF019F9A84DA7
:1001300020602B78012B01BF3288A64B1A80A64A7B
:1001400004BF12885A800DF00BF90646A34BDB68FA
:100150006BB11BA898479DF86C3043B12B78072BE7
:1001600010D10DF0FDF89B4B801B18800AE00DF0BC
:10017000F7F89B4A23681268FB1A184450329042E1
:10018000E4D3EBE72379904D002B00F07E850DF052
:10019000E7F8944BEE881B688046B6FBF3F6924B6B
:1001A000771C1B78BFB22F817BB300258F4B28466D
:1001B00033F9151012F028FA8D4B43F8250001355C
:1001C000032DF3D1B4F90A9000217F48874B00F149
:1001D0000C0C3CF9112000F1140509FB02F233F874
:1001E00011E035F8113025F811E0C3EB0E0A3BB2EF
:1001F00092FBF3F353442CF8113001310429E4D17C
:10020000794B00221A70468102E06B89013B6B81B9
:10021000B4F90A006C4A00284FF0000320DDB2F95F
:1002200008607449744DA1F1080232F9132031F8C5
:100230001310424392FBF6F28A1A25F81320013379
:10024000042BEED1B5F90010002012F0DDF96B4E51
:10025000B5F902103060012012F0D6F9706000E0AC
:1002600053815E4FBB680BB165489847654B664D3F
:10027000186810F0080F42D05C49DFF8BCE18E88A6
:1002800006F10E039BB21C2B604BB3F9043031D83E
:100290005F4A128852072DD50A2293FBF2F2BEF86C
:1002A0000030D21A92B293B20FFA83FE1EF1B30F4E
:1002B000BCBF02F5B4739BB2DFF85CE11AB2B32A9B
:1002C0009EF800E0C4BFA3F5B4739BB21EF0080F04
:1002D00095F8D82113D052B2524253434D4A1BB223
:1002E0001268527A53436FF01D0293FBF2F31E44DF
:1002F0008E8004E00A2293FBF2F3AEF8003010F097
:10030000140F00F0B580424B1B8803F40273002BDE
:1003100000F0AE80404B354A1B7803F0100303F029
:10032000FF0E43B13D4B95F990021968538800FBCD
:10033000013353809CE0236A2349DE783848DFF894
:10034000FCC09B7836B3BCF90060B0F906C0C6EBC0
:100350000C000028B8BF404298420EDD3148B44539
:10036000C0F800E04FF0010081F82400C8BF5B42F4
:10037000D1889BB20B44D3807AE091F824302BB122
:10038000294B81F824E01868284B1860234B1B6820
:10039000334463E0BCF900E0B0F90600CEEB0000A6
:1003A00080EAE07CACEBE07C9C4549DD022390FBDD
:1003B000F3F01F4B18601F480123037081F82430AD
:1003C00049E000BF642A002070090020DE310020CF
:1003D000D61A0020D81A0020F2260020DC160020B1
:1003E00098170020F82A0020700E00204E2B0020C5
:1003F000FC2A002084090020102B0020082B00205C
:100400008C090020901700201C2C0020182B0020A5
:10041000482700207C270020600F0020C02A0020F1
:10042000D02B0020BC2A0020A82A0020B42A0020BB
:10043000CC310020C42A00206C0E00207A0E00204F
:1004400091F824303BB1824B81F824601868814BCD
:100450001860814B1E70814B1B687344A06A018831
:1004600040888B4203DB8342A8BF03461946D180F4
:100470007B4B1B78EBB17B4BB3F90620B5F84232CE
:100480009A4216DC784B5B79012B01D0192B02D1F3
:1004900095F88B226AB90E2B0BD0082B09D0734A22
:1004A00000239380724A9380724A00239360724AB9
:1004B000936095F80C627EB3704B1B8898072BD025
:1004C0006F4B7049D3F82090484613F08DFDF0B97A
:1004D000484617F08FF9E16A13F0DEFB17F010F9C8
:1004E000B0F5617FA8BF4FF4617013F081FB6649DE
:1004F00013F086FC0EF085FC8146304613F078FB45
:10050000494613F0C9FB17F0FBF880B200E0002069
:10051000574AD3881844D0805C4B1878002840F0A4
:10052000A8835B4B1A68994612F4002F00F0A18350
:10053000584E3378033B052B1AD895F8EF3433B176
:10054000012B08D10FF054F8C0F17F0003E0206BBD
:1005500003689B689847636B94F838201344B3F59D
:10056000807FA8BF4FF480738342D4BF636360630E
:100570003378023B092B00F27783DFE813F00A009F
:100580001200400075037503570097002C034F03BA
:100590005A0300236363E3633F4B1B682364032315
:1005A00061E33D4B1A68236C64339A4240F25C83EA
:1005B00040200DF047FE002840F056834FF04009E0
:1005C000364BE26B364F985C1D4660B108F0A8FDD3
:1005D0007B6BB9F1010903F1FF337B63FB6B03F123
:1005E0000103FB63ECD1E26B2D4BAA5C002A40F0C7
:1005F0003B83DA634FF0FF321A64042333E32A2388
:100600000093284B492003F10C02019302925021E0
:10061000A3F10A02023309F0C1F8002840F0248354
:100620004FF0FF332364E06307231CE31E4A0523D6
:100630000021009301910291532002F1080309F077
:10064000ADF8002840F01083E06308230BE300BFFF
:10065000A82A0020B42A0020C42A0020C02A002092
:1006600002000020D02B00201C2C0020102B00208A
:100670004E2B0020082B0020FC2A002048270020B9
:100680003C2400208FC2753CEFB6B044E631002018
:10069000F82600209C220020EC2600206499010806
:1006A00070090020CE990108BC9B010840200DF084
:1006B000C9FD002840F0D882E36B342B01F22C8175
:1006C000DFE813F0350038003D00410047004B00E3
:1006D0004F0052005600610069006D007A007E00F4
:1006E0008D009C00AB00BA00C900D800E700F600FE
:1006F000090112011F012C0139014601530160015A
:100700006D017A01830192019B01AC01B501BE012B
:10071000C7013202430247024B024F025B026502ED
:1007200069026D027102750279027D028102CD4873
:10073000CD494AE2CD48CE49CE4ACF4B51E1CF48D0
:10074000CF49D04A35E0D04895F8ED1495F8EE241D
:100750002FE0CE48B5F8D01037E2CD48B5F8D2102A
:1007600033E2CC48396930E2CB4BCC4819882CE2D3
:10077000636CD90403D5CA4895F80E1225E2C94B1B
:100780000A22DA6323E2C84895F8121295F8132278
:1007900095F8113225E1C548B4F8481015E2D9F8AA
:1007A00000301A0540F11382C148B5F81812B5F9A6
:1007B00016220DF0BBFE0AE2BE4BBF48196804E2E8
:1007C00095F8422452235343EA1892F8CA230C2185
:1007D00001FB02331D44B94895F8CC13F5E195F8B7
:1007E000422452235343EA1892F8CA230C2101FBF6
:1007F00002331D44B24895F8CE13E6E195F8422441
:1008000052235343EA1892F8CA230C2101FB023306
:100810001D44AC4895F8CD13D7E195F842245223F6
:100820005343EA1892F8CA230C2101FB02331D44FA
:10083000A54895F8D513C8E195F8422452235343AF
:10084000EA1892F8CA230C2101FB02331D449F4889
:1008500095F8CF13B9E195F8422452235343EA188F
:1008600092F8CA230C2101FB02331D44984895F8E5
:10087000D013AAE195F8422452235343EA1892F880
:10088000CA230C2101FB02331D44924895F8D4136E
:100890009BE195F8422452235343EA1892F8CA2365
:1008A0000C2101FB02331D448B48B5F8D6138CE1B3
:1008B00095F8422452235343EA1892F8CA230C2194
:1008C00001FB02331D44854895F8D11395F8D223D6
:1008D00095F8D33385E095F84234522202FB035554
:1008E0007F4895F89E1370E195F84234522202FB3E
:1008F00003557C4895F89F1395F8A92395F8B333D1
:100900006FE095F84234522202FB0355764895F881
:10091000A01395F8AA2395F8B43362E095F8423411
:10092000522202FB0355714895F8A11395F8AB23A9
:1009300095F8B53355E095F84234522202FB035541
:100940006B4895F8A21395F8AC2395F8B63348E0B8
:1009500095F84234522202FB0355664895F8A313DA
:1009600095F8AD2395F8B7333BE095F84234522221
:1009700002FB0355604895F8A41395F8AE2395F84B
:10098000B8332EE095F84234522202FB03555B48FF
:1009900095F8A51395F8AF2395F8B93321E095F8AC
:1009A0004234522202FB0355554895F8A61395F898
:1009B000B02395F8BA3314E095F84234522202FB82
:1009C0000355504895F8A713FFE095F8423452229A
:1009D00002FB03554C4895F8A81395F8B22395F8F7
:1009E000BC330DF0A3FDF2E095F84234522202FB35
:1009F00003554648B5F8C613E7E095F8423452224D
:100A000002FB0355B5F8C00313F0F2F8404913F0A8
:100A100043F913F007FB01463E48D6E095F842340F
:100A2000522202FB03553C4895F8C813CDE095F8D7
:100A30004234522202FB0355384895F8C913C4E0EA
:100A400095F84234522202FB03553548B5F8C213DB
:100A5000BBE095F84234522202FB03553148B5F809
:100A6000C413B2E064BC010875BC010881BC010874
:100A7000A9BC0108AFBC0108B7BC0108BCBC010897
:100A8000D0BC0108DCBC0108E5BC0108F6BC0108CB
:100A900005BD010814BD01080800002024BD01089F
:100AA0002EBD0108700900203BBD010854BD01089E
:100AB0005FBD01089817002072BD01087EBD0108C6
:100AC00088BD010892BD01089FBD0108ACBD0108A9
:100AD000B6BD0108C1BD0108CEBD0108E0BD0108D9
:100AE000EFBD010800BE010811BE010823BE0108C8
:100AF00033BE010843BE010853BE010864BE0108AD
:100B000075BE010887BE010877BE010891BE0108C5
:100B10000000C842A0BE0108AEBE0108C5BE010863
:100B2000D4BE0108F0BE010895F84234522202FBFF
:100B30000355B5F8BE0313F05BF8A14913F0ACF808
:100B400013F070FA01469F483FE09F4895F81E1247
:100B50003BE09E4895F81F1237E09D48B5F8DC1140
:100B600033E095F8DF0113F043F8954913F094F85A
:100B700013F058FA0146974827E09149D5F8F0015B
:100B800013F08AF813F04EFA014693481DE093489B
:100B900095F8D91119E0924895F8E81115E09148B7
:100BA00095F8E71111E0904895F885120DE08F480F
:100BB00095F8151209E08E4895F8461205E08D4823
:100BC000B5F84A1201E08C48A9680DF0AFFCE36B60
:100BD0000133E36348E0894B1B689B011BD5B4F8E4
:100BE0004C30874DBBB9874BD5F8509045201F68D6
:100BF00008F096FA0E2008F093FA48460DF00AFC29
:100C000038460DF007FC4FF48053A5F84A300A230C
:100C1000337008F009FB08F0A3FD25E094F8543088
:100C2000002BF6D0754B1B689F01F2D4092333705B
:100C3000F1E7754B1A68236CC8339A4203D995F8CB
:100C4000EF547DB904E00DF043FB0028F7D10BE031
:100C5000206B0CF007FA94F855302563022B01D174
:100C600012F030FE012333700DF01CFB08B101239C
:100C70003370664B1B78072B05D10CF071FB644B6E
:100C8000C8EB0000588000232371624B13AD5B68F2
:100C900028469847002800F051815C4B18780023C3
:100CA0005D4E032804BF56F8237059494FEA83026A
:100CB00008BF21F8137035F913100133032BB1501D
:100CC000EED1564B5448564F1A78014608F018F8A2
:100CD0003B88002B00F0C980A36DDFF84C811B78A6
:100CE00008F10C0505934FF000093B8856F82900E0
:100CF00006934C4B4FEA890A1A684FF47A73B3FB98
:100D0000F2F3C3EB431203EB8203DB00069A9BB2C0
:100D10009A4202BF0023C8F800302B61D8F8003097
:100D20000344C8F8003012F063FF2B690133012B34
:100D30002B6104D1002368602860AB602AE0D5F8FD
:100D400000C009936146CDF81CC0089012F09AFECD
:100D5000099B8346184612F04BFF0146584613F094
:100D60004FF8DDF81CC00146604612F08DFE0346C8
:100D7000089A194668601046079312F083FE0146F0
:100D8000584612F089FFA96812F07EFE079BE860C2
:100D90002B60A860DFF894B0002346F80A304AF8C8
:100DA0000B30069B012B75D12869012840DD0138E5
:100DB00012F01EFF0146E86813F022F839E000BF88
:100DC0000000C84206BF01081ABF010816BF01088B
:100DD00026BF010832BF010845BF010853BF010803
:100DE00063BF010874BF010884BF01089DBF0108EB
:100DF000B6BF0108C6BF0108E3BF01084C270020A9
:100E000070090020C4310020EC260020D61A0020F2
:100E1000D81A0020DC160020202B00200517002007
:100E2000DC31002098170020CC090020140A002093
:100E3000002016F0BBFE0599A94BC1B106900846EB
:100E4000079312F0D5FE069A0146104613F0E0F81B
:100E5000079B60B11A684FF47A73B3FBF2F3C3EBEC
:100E6000431203EB8203DB003B80002324E01A687B
:100E70004FF47A73B3FBF2F3C3EB431203EB820339
:100E8000DB00D8F800209BB202EB530292FBF3F395
:100E90004BF80A3009F10109B9F1030F08F1040810
:100EA00005F114057FF421AF3888012801D10CF039
:100EB000B9FA3B88013BD7E78A4D56F8232005F164
:100EC000A40151F82310521A46F823200133032BB2
:100ED000F2D1D5F8B0800021404613F071F868BB1C
:100EE00095F8B45095B97E4B1A681F4672B1DFF879
:100EF000F491404609F1B80129443A681C350DF0D7
:100F0000B4FC542DF3D1012389F8B43094F8B430F3
:100F1000A3B1002556F8250012F06AFE724B1C2181
:100F200001FB05310DF076FC704B43F8250016F0FF
:100F3000E7FB46F825000135032DEBD194F80C3181
:100F40002BB1684A013B82F80C3100F0F1BC684DCE
:100F500095F8DF3123B195F8E431013BDBB200E0D5
:100F6000012384F80C310CF0FBF9624B624A1F68D4
:100F7000624BB5F822120646186802F14403B847DE
:100F80005F4B1A781D46072A04D10CF0E9F95D4B36
:100F9000801B98800CF0E4F995F800800690B8F179
:100FA000010F0AD15849D4F81031564A0968C31ABA
:100FB00093805B1AD380C4F81001544B1B68E3B1D3
:100FC000DE79DEB1524A1268950719D5514A127876
:100FD000012A15D9DB7850495A430988D31A994216
:100FE00095B203DB8A421346A8BF0B462DB22D03F0
:100FF0001BB295FBF3F5012605E01E46354602E0DF
:1010000001264FF48055454BDB780E932EB1BDF988
:1010100054306B431B13ADF85430414B4FF0000A72
:101020001B78404F0593404B5A88B3F800900792C5
:10103000B3F904B0D4F81421534654460892059AE3
:10104000934273D2BDF91C000A9312F0D1FDB96826
:1010500012F022FE09900FFA89F012F0C9FD7968AA
:1010600012F01AFEDDF824C00146604612F00CFDB5
:10107000089B099093F9000040420BFB00F012F02E
:10108000B7FDF96812F008FEDDF824C0014660469D
:1010900012F0FAFC12F0C6FF15A980B20A9B16B135
:1010A00000B26843001321F8130015A931F813109A
:1010B0000FFA84FE08B2704505DC0FFA8AFE70450F
:1010C000B8BF8A4600E00C46B8F1050F04D1042BE6
:1010D0009CBF0C4820F8131001331037AFE700BF56
:1010E0009817002070090020280A0020AC2B00204F
:1010F0001C2C0020B8000020082E00207C27002097
:10110000D61A0020D81A0020F82A0020B41A00208D
:10111000F8260020C0000020001B0020042700202B
:101120000C230020880A0020482B0020A14BCAEB8A
:1011300004041B68A4B213F4805A08939E4A35D065
:101140009E4BB2F806B01B780FFA8BF613F0040F23
:101150009B4B9B4808BFD3F8DC119A4A04BF098A0D
:10116000A3F8D811D3F8DC311F8A974B1B68D988B4
:101170007D1AAE4203DC1E8813681D8805E03944E1
:101180008E4205DB12685D885688A0F8D8B113E05E
:10119000B0F9D811A942D5BF1E88126813685D88BE
:1011A000D9BF1D88B3465688AB4605E0854BB2F8DB
:1011B00006B01B681D885E88B2B2ABB2C3EB0209F1
:1011C0001FFA89F924B20FFA89F0844221DD07035E
:1011D00097FBF4F77A4AC2F8E071002205998A4237
:1011E0000AD20DF1540E3EF912107943C1F30F31BA
:1011F0002EF812100132F1E7724A126812897AB998
:101200000FFA89F2022592FBF5F51D44ADB22E4688
:1012100006E0022694FBF6F69D19961BADB2B6B217
:1012200012F0E6FC0746204612F0E2FC0146384682
:1012300012F0E6FD6549044612F0CCFE40B92046A6
:101240004FF07E5112F0E4FE18B14FF07E5400E0F2
:101250005E4C5F4BB8F1060F1C6007D15D4920461C
:1012600012F01AFD12F0DEFE5B4B5880544B5B4CC3
:10127000B3F9D821D3F8DC3109920793524B4FF0E0
:101280000008D3F800C04F4B1F684C4B1B7803F08D
:101290000403DBB20A93524B1B6803F000630B9309
:1012A000504BB3F906300C934F4B1B680D93059BC5
:1012B0005B000F930F9B984500F09C8015AB38F8AE
:1012C00003300FFA8BF0CDF844C0109312F090FC6D
:1012D000464A52F8381012F0DFFC12F0A3FE2AB290
:1012E0009042109BDDF844C003DB32B28242A8BFBB
:1012F000024613440E9A9BB224F8023F1BB20AB175
:10130000BA8812E0BAF1000F0ED0079ABCF80610A6
:10131000128A521A0999914203DC3A88BCF80010EB
:1013200004E0BCF8022000E03A887988934203DBAD
:101330008B42A8BF0B461A46089B2280D8060DD5C3
:101340000A9B5BB1BAF1000F08D10B9B33B9079B25
:101350000C9A5B8A9A42BCBFBB8823803A8932B31D
:101360000D994FF47A73B3FBF1F3B2FBF3F3042B53
:1013700005D942F210729342A8BF134600E005233C
:101380001BB20FFA89F2934211DA1949B4F900003D
:1013900038F901E0C3EB0E02904204DB0EEB0302CE
:1013A0008242A8BF024692B2228021F8082008F1AA
:1013B00002087FE7F82600204E2B0020E8310020AD
:1013C00070090020B4230020B0230020CDCCCC3DF8
:1013D000D40300200000C842D81A0020C2220020F6
:1013E0004C270020D02B0020F82A0020880A00205B
:1013F000540B0020C14B1A7802F0040202F0FF03E4
:1014000042B1BF4890F8FC31013BDBB2182B00F22F
:1014100020810AE0059A9342F3D2BA4A32F81310B7
:10142000B94A22F813100133F4E701229A40B74B6E
:101430001340002B00F00D81B54B1B8813F4807F07
:10144000B44B08D0B44A1188ADF86C10518892881A
:10145000ADF86E1014E0B14A1188ADF86C105188E7
:101460009288ADF86E10ADF87020BAF1000F09D077
:10147000D0F8DC11B3F90640098A8C4202DA5242F4
:10148000ADF87020A64D4FF47A71B5F902204FF4F3
:10149000616402F5E1624A4392FBF4F2A2F5FA724A
:1014A000ADF88420B5F9002002F5E162514391FBCB
:1014B000F4F1954AA1F5FA711288ADF88610A2F2FE
:1014C000DC52ADF87220D0F8DC211988128A891A12
:1014D000ADF874105988891AADF876109988891A70
:1014E000ADF87810D988891AADF87A101989891A57
:1014F000ADF87C105989891AADF87E109989DB897D
:10150000891A9A1AADF88010ADF882200023854A16
:10151000002122F813100133082BF8D1824B8349A4
:101520001B68834D0593834BD3F800B0824B1B7827
:10153000C3EBC30301EB0308414572D00B7833B111
:1015400003F1150201239340059A134065D011F869
:1015500006EC0E2707FB0EB7B7F90020B7F90230EB
:1015600064209B1A11F9022C9BB25A4392FBF0F2B1
:1015700011F805AC4FEA530911F8034CC9EB02020C
:101580004FEA4A0622A892B211F801CC064414B9D7
:1015900036F81C0C0CE0B5F9000036F91C6CB042B2
:1015A00008DA0444844203DBA6423046A8BF204642
:1015B000288008E007DD041BB44203DB8442A8BF97
:1015C000044626462E80D7F80A40012000FA0AF089
:1015D0002042B5F9006011F9040C12B200FB06F0CC
:1015E0004FF0640690FBF6F014BF4FF0FF34012477
:1015F00090420ADB4FFA8CF25A4392FBF6F2C9EBA7
:10160000020212B28242A8BF0246464B33F81E9035
:1016100002FB049423F81E4000E02B8002350731C2
:101620008AE7444B454E1F6800250E2303FB0573D4
:1016300093F9064036F9023FE8B26343642493FB12
:10164000F4F434800CF01AF901352044082D308070
:10165000EBD13B4E334C3368364D13F0200F31D075
:1016600000200CF00BF92080074601200CF006F951
:101670002D4B60801B68190624D5214B284AD3F8CE
:1016800020321B78012B21D1D5F800C0B2F90030EF
:101690009CF914104FF0320E4B4393FBFEF399B2BA
:1016A0009CF90630B2F902205B4253436FF03102DD
:1016B00093FBF2F293FBFEF30A443A440B4422807C
:1016C00018446080D5F800E000233FE0D5F800E042
:1016D000B2F902309EF906104FF0320C4B4393FBE7
:1016E000FCF3F91821809EF91430B2F9001001FBC7
:1016F00003F292FBFCF21044E3E700BFE831002064
:101700007009002084270020C4220020992098011D
:1017100048270020D02B00204E2B0020482B0020F3
:10172000182B00209C0C00204C270020BF230020F9
:101730006E0B00202C1C0020B82300209A0C0020E7
:10174000F82600200133082BE25310D00E2101FBB4
:1017500003E134F91300B1F900205F009042B1F9C0
:101760000210EFDB0AB28242A8BF0246EAE7724FDC
:10177000D7F814B19BF90430ABB997F8FC8108F1A4
:10178000FF33182B00F28F80DFE803F0518D8D6B53
:101790008D8D8D648D8D8D8D8D758D8D8D8D8D6BDC
:1017A000818D8D7551000023A7F82432B7F824925B
:1017B000614B0FFA89F8B8F1070FDEDC93F82622A7
:1017C00003F50A7A7AB9BBF80200059312F00CFA15
:1017D0005A4A1C21126801FB08A10DF046F8059B2E
:1017E000012283F8262234F9180012F001FA1C2194
:1017F00001FB08A10DF00EF815F082FF2A680E23F8
:1018000003FB082280B224F81800B2F9003000B2BD
:101810009842B2F9022003DB13B28342A8BF034609
:1018200009F1010924F81830A7F82492BEE79BF8C3
:10183000013013B10020618908E0414B1B7803F0AF
:10184000040303F0FF00002BF4D1014605F050FC27
:10185000012529E00020E18805F04AFC01202189CA
:1018600005E00020218905F043FC6189012005F095
:101870003FFC022518E00225A81E34F81510C0B25E
:10188000013505F035FC082DF6D106250CE00325C1
:10189000E81E34F81510C0B2013505F029FC072DFB
:1018A000F6D1042500E0002533689A0602D4B8F189
:1018B000050F0AD12846218805F01AFC681CC0B221
:1018C000618805F015FC0235EDB23368DB020AD4FD
:1018D00097F808339BB11B4B93F8E60093F8E71099
:1018E0000BF00FFF0BE0184E00242819C0B236F899
:1018F000021F05F0FDFB0D2CEAD00134F5E7134B78
:101900001B78072B05D10BF02BFD069BC01A104B43
:10191000D88001233B710BE00CF0DAFC00283FF487
:10192000A3A94FF48053A4F84A300A23FFF79BB9C8
:1019300023B0BDE8F08F00BF70090020F82A002016
:10194000E83100201C2C0020D62B0020D61A0020C5
:10195000D81A00202DE9F04FA54EAFB0347800968C
:10196000002C00F0ED80A34B1868002801F0F585ED
:101970000BF09EFCA04C20680BF075FE002801F0D7
:10198000EC8520680BF06CFE09289C4C01D03F28A8
:101990004BD14FF000094D462768994E2FB1994819
:1019A00031683A4615F0B6FC10B9B14605B935466E
:1019B000954B10369E42F1D3D5B12E68D9F80080F0
:1019C000236816F803E018F80300704510D15A1C7C
:1019D0008C4948B92D2B07D8884E4FF0200E01F8BE
:1019E00003E03260885403E001F803E02260E7E797
:1019F00023680BB14D450FD0844810F017FA4D45C0
:101A000007D855F8100B10F011FA092010F0A0F8C3
:101A1000F5E70AF07DF8002723689F42AAD2794BA8
:101A2000D85D10F095F80137F6E72368002B41F0F8
:101A30001985042841F06A85724808F029FD01F0F3
:101A40008CBD019BDFF8E0A118680BF00CFE0028AC
:101A50005DD0DAF800000BF003FEDBF8003006463C
:101A600093F84810002940F08780242840F0E68051
:101A7000012283F84820DBF8003093F84820062A3A
:101A8000DFD193F84900502800F0E48600F2BD81D0
:101A9000342800F08C8400F25881242800F07D85E1
:101AA00000F22381032800F07C8240F2FD800528AB
:101AB00040F00F811A200FF0E9FF4FF00008544B5F
:101AC00013F8080008F101080FF09BFFB8F10B0FA5
:101AD000F5D14FF000084F4B13F8080008F101084A
:101AE0000FF08FFFB8F1080FF5D14FF000084A4B07
:101AF00013F8080008F101080FF083FFB8F1070F91
:101B0000F5D10FF08FFF2B68002283F84820434D5A
:101B100038680BF0CDFB95F830306BB159F8040004
:101B20000BF093FD0BF040FE0DF00CFA002385F84E
:101B300030303B4A3B4BDA604C34982C01F00D8539
:101B4000DFF8F49054F8093004EB0902002BF3D0CD
:101B50003549364D0B60079300232A608DF82130FC
:101B6000334A1423334F8DF8203006AB06923B6086
:101B7000AB460191904664E7012904D14D2814BF7A
:101B80000022022275E7022904D13C2814BF00225A
:101B900003226EE703290CD140284FF0000102D93F
:101BA00083F8481067E758711971D9719871042248
:101BB0005FE7042907D1997983F8490080EA010297
:101BC0009A71052255E705297FF455AF587919799F
:101BD0008842987906D970409871481C18710B4456
:101BE0001E7248E7B0420CBF0622002241E700BF48
:101BF000E6310020802700209C270020201C0020A8
:101C000004B90108F01B0020F4BA0108BDC00108A6
:101C1000D0BC0108DCBC0108AFBC01087C0C002072
:101C20000400FA0500ED00E078270020702700206E
:101C3000C7D600087427002018310020DE490B7831
:101C400003F0040303F0FF0E002B7FF414AF232EE8
:101C5000DAF800001BD1009A01231370D74B0291D0
:101C60001860D74B1860986010201873D548C3F8D7
:101C7000048083F80DE004330360D34810F0D6F8F5
:101C800009F046FF02990B7843F002030B70CF4B2B
:101C90001B681B78B34201BFCD4ACE4B1A60CE4AB7
:101CA00004BFCE4BDA60E6E6012800F06E81022820
:101CB00040F0728604200FF0E9FE42200FF0A1FEF2
:101CC00054200FF09EFE46200FF09BFE4C2000F0AB
:101CD00048BEC0F08F81222840F05E86C04E502062
:101CE0000FF0D4FE06F1500A46E32C2800F084845D
:101CF00019D8282800F066842A2800F0778426283E
:101D000040F04A86DFF8D88206200FF0BFFEB8F810
:101D1000CC010FF0BEFEB8F8D0010FF0BAFEB8F853
:101D2000D40100F014BE302800F02C85322800F0D9
:101D3000A9842E2840F03086DFF8A48240200FF0DE
:101D4000A5FE08F1400A00F00BBD422800F0C8844F
:101D500021D83A2800F054820CD8362800F0E484C8
:101D6000382840F0198604200FF090FEDFF87082CA
:101D700000F019BC3D2800F07582402800F08984ED
:101D80003B2840F0098601200FF080FE954B1B6830
:101D9000187800F0E6BD492800F06F820FD8462879
:101DA00000F01885472800F02C85452840F0F48580
:101DB00013200FF06BFE4FF0000800F070BD4D28AF
:101DC00000F03A844F2800F058854B2840F0E48515
:101DD000DFF80C8208200FF059FE98F892020FF0FD
:101DE00010FE98F893020FF00CFEB8F894020FF072
:101DF00050FE98F896020FF004FEB8F898020FF023
:101E000048FE98F89A0200F0ACBD6F2800F03B82C3
:101E100073D8652800F011813FD85C2800F08585D3
:101E20001ED8522800F036855A2840F0B585DFF8D4
:101E3000B08106200FF02AFE98F8DE010FF0E1FDD8
:101E400098F8E4010FF0DDFD98F8E7000FF0D9FDF8
:101E500098F8E6000FF0D5FDB8F8E20000F077BD85
:101E6000622800F07885642800F0D7805E2840F072
:101E70009385DFF8708109200FF008FED8F8003054
:101E8000988C0FF006FED8F80030D88C0FF001FEC9
:101E9000D8F80030188D00F05ABD692800F0908104
:101EA00013D8672800F0148100F27A8112200FF015
:101EB000EDFD4D4B4FF000081B88B3F5806F8CBFD4
:101EC0004FF0080A4FF0010AE1E06D2800F08F8121
:101ED00000F29B816C2840F05F85444E06200FF095
:101EE000D5FD30880FF0D5FD70880FF0D2FDB6F922
:101EF00004300A2093FBF0F0AFE17C2800F0E1848D
:101F00001FD8742800F076820DD8722800F0E08285
:101F100000F21483702840F03F851E200FF0B6FDBC
:101F20004FF00008DDE1772800F0AB82782800F060
:101F3000DF80752840F030852F200FF0A7FD2C4E54
:101F4000E6E1A02800F01B8309D87E2800F0DD849C
:101F5000C0F0CB84962840F01F850C206EE0F1285D
:101F600000F0F880FE2800F0F982F02840F0148597
:101F7000DFF86C8004200FF089FDB8F8EE010FF057
:101F800088FDB8F8EC0100F0E2BC03200FF07EFD04
:101F900000200FF036FD01200FF033FD102000F07F
:101FA000E0BC0FF073FD02200FF02BFD08200FF0B6
:101FB00028FD012000F0D5BCE83100209C2700203E
:101FC0007C0C002080270020EDC00108B017002005
:101FD000EFBEADDEF04F00200400FA0500ED00E09A
:101FE0001C2C00207C27002008000020182B00203B
:101FF000E39B010806200FF049FD41200FF001FD91
:1020000046200FF0FEFC4E200FF0FBFC41200FF0AD
:10201000F8FCC34B187800F09ABC07200FF036FD8F
:10202000E7200FF0EEFCBF4B58790FF0EAFC0020E0
:102030000FF0E7FC042000F040BC0B200FF026FD61
:10204000B94B18880FF025FDB84B188880B20FF0F7
:1020500020FDB74B1B68C3F3C000C3F380028000B0
:1020600040EA4200C3F340021043C3F3401240EA87
:10207000C20003F0100318430FF00BFD0FF0EAFB52
:102080000FF010FDA74B93F8420400F06ABCA94B77
:1020900053F8280008F1010890FBFAF080B20FF025
:1020A000F8FCB8F1030FF2D1A34E30880FF0F1FC29
:1020B000B0880FF0EEFC3089A04E0FF0EAFC3088BB
:1020C0000FF0E7FCB0880FF0E4FC308900F03FBC73
:1020D00010200FF0DBFC4FF00008994B13F80800BC
:1020E00008F101080FF08DFCB8F1100FF5D108E5EB
:1020F0008C4E70200FF0CAFCB3464FF0000AB6F8C1
:1021000058010FF0C6FCB6F85A010FF0C2FCB6F841
:102110005C010FF0BEFC96F85E010FF072FC96F8C1
:102120005F010FF06EFC96F860010FF06AFC96F804
:1021300061010FF066FC0E2303FB0AB30AF1010AEA
:10214000D3F862010FF0AEFCBAF1080F06F10E06EB
:10215000D5D1D6E470200FF099FC724E06F1700ACA
:1021600096F8E8000FF04DFC96F8E9000FF049FCF6
:1021700096F8EA000FF045FC96F8EB000FF041FCF2
:1021800096F8EC000FF03DFC96F8ED000FF039FCEE
:10219000073696F8E7000FF034FC5645E0D1B0E47E
:1021A00010200FF073FC4FF00008664B13F8080086
:1021B00008F101080FF025FCB8F1100FF5D1A0E4EB
:1021C000614E4FF000083078B246400000F0FE004B
:1021D0000FF05CFC9AF800309845BFF492AC5B4B72
:1021E00033F818000FF055FC08F10108F2E706205B
:1021F0000FF04CFC564B18680FF054FC554B40E068
:1022000004200FF043FC544BC5E14FF6FF78072044
:102210000FF03CFC514B1888FF28A8BFFF20C0B22C
:102220000FF0EFFB4E4B18684045A8BF404620EA30
:10223000E07080B20FF02DFC4A4B18880FF029FC9B
:10224000384B93F81B22484B186842B10A23584375
:102250004045A8BF404620EAE07080B277E300F333
:102260000F00FAE72F4E02200FF010FC96F88702BD
:102270000FF0C7FB96F8860273E302200FF006FC0E
:102280003A4B188863E33A4E0B200FF0FFFB33689C
:10229000B24618780FF0B5FB33684FF0000B987812
:1022A0000FF0AFFBDAF80030314E5B4458790BF198
:1022B000010B0FF0A6FBBBF1030FF3D13368187AC3
:1022C0000FF09FFB3368D8780FF09BFB33681879C9
:1022D0000FF097FB336858890FF0DBFB3368587AAF
:1022E0003FE3244E3368434458780FF08AFB336849
:1022F0004344D87A0FF085FB33684344587D08F196
:1023000001080FF07EFBB8F10A0FEAD1FFF7F9BB25
:1023100016F8010F00283FF4F4AB0FF072FBF7E75B
:10232000E43100201C2C0020DE310020F4260020A7
:1023300090170020BC0E0020202B0020D42A002063
:102340009C0C0020C4220020B4310020D02B00209F
:10235000A82A0020C80E0020802A0020001B002090
:10236000B81A00205E0F0020DC0E00209817002015
:10237000600E00207C27002096F84324CE4B0C21D1
:1023800001FB023393F838000FF03BFB96F844044E
:102390000FF037FB96F845040FF033FB043696F840
:1023A00042040FF02EFB5645E6D1FFF7AABB5A2098
:1023B0000FF06CFBC14E06F15A0A96F898040FF024
:1023C00020FB96F893040FF01CFB96F894040FF092
:1023D00018FB96F895040FF014FB96F896040FF08E
:1023E00010FB063696F891040FF00BFB5645E4D12E
:1023F000FFF787BB4FF0000A01264FF00008B04BF3
:102400001B78984534DAAF4B4FF0000B18F803E017
:102410000C2303FB0BF3A84800F1300C13F80CC09D
:102420000190F44507D10344586B14F06AFF8446C9
:102430003EB9334607E00BF1010BBBF11E0FE7D1AC
:1024400013E0824411E063450FDA019A0C2000FB8F
:102450000B20406BCDF80CC0C05C02930FF0D1FA9A
:10246000029BDDF80CC00133EDE708F10108C6E777
:10247000002E3FF446AB5FFA8AF00FF007FB002610
:10248000BBE7DFF83CA24FF000089AF800000FF01D
:10249000FDFA9AF800309845BFF433AB894B002120
:1024A00018F803E00C2202FB01F3834800F1300C22
:1024B00013F80C20724505D1034493F838000FF04F
:1024C000A0FA02E001311E29ECD108F10108E0E791
:1024D000DFF8E88116200FF0D9FAB8F840020FF0C3
:1024E000D8FAB8F8D0000FF0D4FAB8F8D2000FF04C
:1024F000D0FAB8F8D4000FF0CCFAB8F894020FF084
:10250000C8FA00200FF07DFA00200FF07AFA0020C0
:102510000FF077FA98F81B020FF073FA98F83C0264
:102520000FF06FFA00200FF06CFAB8F9EA310A20C8
:1025300093FBF0F080B20FF0ACFA34E008200FF01B
:10254000A5FA4FF001085FFA88F008F101080FF0D2
:1025500058FAB8F1090FF6D1FFF7D3BA08200FF0F7
:1025600095FA4FF00008584B33F8180008F10108AD
:102570000FF08FFAB8F1040FF5D1FFF7C2BA0C20B3
:102580000FF084FA514B18680FF08CFA504B186812
:102590000FF088FA4F4B18688FE104200FF076FA9D
:1025A000464B986889E198F80E020FF02AFA98F8DD
:1025B00012020FF026FA98F811020FF022FA98F89A
:1025C0001302CEE1DFF8F48007200FF05FFAB8F8CD
:1025D00016020FF05EFAB8F818020FF05AFA98F8DF
:1025E0001A020FF00EFAB8F81C02B0E101200FF049
:1025F0004DFA324B5879B4E1DFF8C0800C200FF06F
:1026000045FA98F838020FF0FCF9B8F844020FF0D8
:1026100040FAB8F840020FF03CFAB8F842020FF066
:1026200038FA98F83A020FF0ECF9B8F84C020FF0CB
:1026300030FAB8F84E028AE1DFF89C80DFF89CA0FF
:1026400098F800004FF0000B00EB4000C0B20FF014
:102650001DFA98F800300AF1020A9B45BFF451AA0E
:102660001AF8020C0FF0CDF91AF8010C0BF1010B5E
:1026700000EB800000EB800000F2EE2080B20FF053
:1026800008FAE6E701200FF001FA0C4B93F83C0240
:1026900067E108200FF0FAF94FF00008074B4344B8
:1026A00093F8300208F101080FF0ABF9B8F1080F08
:1026B000F4D1FFF726BA00BFE49B01081C2C0020D0
:1026C0005027002051270020D81A0020E8F7FF1FCC
:1026D000ECF7FF1FF0F7FF1FB43100206C2E002035
:1026E000DFF8BC8310200FF0D1F998F805000FF047
:1026F00088F9D8F808000FF0D5F998F838020FF0EB
:1027000080F9B8F8CC010FF0C4F9B8F8D0010FF097
:10271000C0F9B8F8D4010FF0BCF9B8F816020FF000
:10272000B8F9B8F8180212E1D94BDFF874831878B9
:1027300008F1280AC0EBC000C0B20FF0A7F998F862
:102740009E020023D34AD25C904200F00E810C33EB
:102750003C2BF7D108F10808D045F0D1FFF7D1B9EB
:10276000B8F85C030FF095F998F85E030FF049F99B
:1027700008F1040898F85B030FF043F9D045EFD156
:10278000FFF7BFB9E0200FF081F9DFF8148308F1FB
:10279000800AB8F8DE0208F1040800F03F000FF0EC
:1027A00078F9B8F8DA02C0F386100FF072F998F8E9
:1027B000D80200090FF025F998F8D80200F00F00B0
:1027C0000FF01FF998F8D9020FF01BF9D045E0D1AE
:1027D000FFF797B90D200FF059F90DF0E9F9DFF87F
:1027E000B88240F00200C0B20FF00BF9B8F8000058
:1027F0000FF058F9D8F80C000FF054F90CF000FE67
:102800005BE00FF0F5F8824684200FF03FF9504668
:102810000FF048F9A04B0DF1380BDA680AF180038C
:1028200093428CBFCAEB02084FF080080CF0A2FE66
:102830005046424659460DF0EFF982464FF00008E7
:10284000D045BFF65EA91BF808000FF0DAF808F1D2
:102850000108F5E7DFF8488204200FF017F901209E
:102860000FF0CFF898F8EF040FF0CBF898F8ED04DC
:102870000FF0C7F898F8EE0473E00B200FF006F99C
:1028800000200FF0BEF800200FF0BBF800200FF082
:10289000B8F80EE001200FF0F9F8002061E07F4B5E
:1028A00013F8080008F101080FF0ABF8B8F10B0FAE
:1028B000F5D100200FF0F6F800200FF0F3F8FFF745
:1028C00020B9DFF8DC8108200FF0E0F8B8F8DA0072
:1028D0000FF0DFF8B8F8DC000FF0DBF8B8F8DE0036
:1028E0000FF0D7F8B8F8E00031E0DFF8B48103204A
:1028F0000FF0CCF898F81E020FF083F898F81F023A
:102900000FF07FF898F820022BE0DFF89481032085
:102910000FF0BCF898F8C9010FF073F898F8CA01E5
:102920000FF06FF898F8CB011BE005200FF0AEF820
:102930005B4BDFF8788193F8DF010FF062F8D8F88D
:102940000030188C0FF0A5F8D8F80030588C0FF034
:10295000A0F8FFF7D6B801200FF098F8514B1B688C
:1029600058780FF04EF8FFF7CCB80FF04AF8B8F8E7
:10297000A0020FF08EF898F8A2020FF042F898F833
:10298000A3020FF03EF898F8A5020FF03AF898F875
:10299000A4020FF036F8DDE65B2816D10FF012F82E
:1029A000DFF8FC8088F8DE010FF00CF888F8E4010D
:1029B0000FF008F888F8E7000FF004F888F8E60050
:1029C0000FF00CF8A8F8E2000CE010D9D22840F083
:1029D000A582354B1B7803F0040303F0FF08002B9E
:1029E00000F0838200200FF051F8FFF78AB83728F3
:1029F00038D15B794FF00708B3FBF8F8C8EBC80291
:102A00009B1A13F0FF0F02D005F0AEFBEAE75FFA66
:102A100088F8B8F1000FE5D00EF0D4FF5FFA80FB24
:102A20004FFA8BF00AF032FB82460028ECD080F897
:102A300000B00EF0D3FFAAF802000EF0C3FF8AF830
:102A400004000EF0BFFF8AF805000EF0BBFF8AF805
:102A500007000EF0B7FF08F1FF385FFA88F88AF830
:102A60000600D6E700F233812B2804D10EF0AAFF2E
:102A70000B4B5871B6E700F28280252818D1084B1D
:102A800000229A600EF0B4FF0CF054FAAAE700BFDF
:102A900082220020B41700208C000020D0BC010846
:102AA0001C2C0020600E0020E83100207C27002034
:102AB0003ED8232840F0D2840EF084FF13288046AD
:102AC000A2D80EF07FFF00220C235343D84901EB1C
:102AD000030E9EF838E0864526D10B44DFF864A348
:102AE00093F8303008F588780AEB880888F80330C6
:102AF0000EF068FF88F804000EF064FF88F8050007
:102B00000EF060FFCB4BCC491A680AF1D0030B6082
:102B1000CA4B88F8060000201A6010F0BBFEC84BB4
:102B200080F0010018705DE701321E2ACCD16BE7FE
:102B300027280ED10EF052FFDFF80883C8F8CC0129
:102B40000EF04CFFC8F8D0010EF048FFC8F8D401D1
:102B500048E7292840F082840EF040FFDFF8E48245
:102B6000A8F816020EF03AFFA8F818020EF02AFF95
:102B700088F81A020EF032FFA8F81C0232E731285A
:102B800034D10EF01FFF1F2880463FF63DAF2B6863
:102B90005B79082B7FF438AF0EF020FFA94B08F1CA
:102BA000B60803EB880800F03F00A8F806000EF016
:102BB00015FFB8F80630800100F4FE501843A8F85D
:102BC00006000EF0FFFE000188F804000EF0FAFE89
:102BD00098F8043000F00F00184388F804000EF055
:102BE000F1FE88F805000CF07DFBFBE63DD82D28B2
:102BF00023D10EF0E7FEDFF84C8288F838020EF0A1
:102C0000EDFEA8F844020EF0E9FEA8F840020EF02E
:102C1000E5FEA8F842020EF0D5FE2B6888F83A02CD
:102C20005B79082B7FF6DEAE0EF0D8FEA8F84C02DA
:102C30000EF0D4FEA8F84E02D4E62F2840F00E8401
:102C4000DFF8008208F1400A0EF0C8FEA8F85C0325
:102C50000EF0B8FE88F85E030EF0B4FE08F104082A
:102C600088F85B03D045EFD1BCE6332805D10EF0E0
:102C7000A9FE744B83F83C02B4E6352840F0EE839D
:102C80000EF0A0FE0E2882463FF6BEAE0EF09AFE73
:102C900003283FF6B9AE6B4B4FF0060808FB0A3825
:102CA00088F898040EF08EFE88F893040EF08AFEE1
:102CB00088F894040EF086FE88F895040EF082FEE3
:102CC00088F896040EF07EFE88F897048AE6442879
:102CD00004D15D4B012283F8302083E67ED83E2864
:102CE0000AD10EF06FFEDFF85C8188F887020EF0E3
:102CF00069FE88F8860275E637D8392812D10EF0B9
:102D000061FEDFF8408188F80E020EF05BFE88F865
:102D100012020EF057FE88F811020EF053FE88F8EA
:102D200013025FE63C2840F09983DFF80881D8F869
:102D300000A09AF800B00EF045FE18B10228A8BF16
:102D4000022000E001208AF80000D8F800303F4A55
:102D50001B78022B14BF3E493E499B4511603FF44E
:102D600041AE00200EF0A7FE3CE641280DD14FF009
:102D700000080EF027FE334B434408F10108B8F178
:102D8000080F83F83002F4D12CE6432840F0668324
:102D90000EF018FEDFF8AC800023C8F8083088F881
:102DA00005000EF025FE0CF0C5F80EF00BFE88F8BD
:102DB00038020EF013FEC8F8CC010EF00FFEC8F872
:102DC000D0010EF00BFEC8F8D4010EF007FEA8F8F3
:102DD00016020EF003FEA8F8180203E64C281AD1DA
:102DE0000EF0F0FDDFF85C8088F892020EF0EAFD4C
:102DF00088F893020EF0F2FDA8F894020EF0E2FDBE
:102E000088F896020EF0EAFDA8F898020EF0DAFDB6
:102E100088F89A02E6E51FD8482802D10CF0F8FBA2
:102E2000E0E54A2840F01A830EF0D8FD9AE700BF8B
:102E3000E49B01087C270020640E0020680E00201F
:102E4000020000201C2C00207C0C0020B800002078
:102E5000B92E0108F93101084E282FD10EF0B2FD2C
:102E6000112882463FF6D0AD0EF0ACFDDFF8A0830E
:102E70000AF5947A08F81A000EF0B0FD40F2ED233E
:102E8000984205DD40F6CA039842A8BF184601E003
:102E900040F2EE20A0F2EE20192308EB4A0890FB46
:102EA000F3F008E075D9632840F08A80D64BD3F858
:102EB00000800EF087FD88F8010093E5512840F06E
:102EC000CD82D24B1B78012B3FF68CAD0EF07AFDF4
:102ED000DFF83C8388F8EF040EF074FD88F8ED0409
:102EE0000EF070FD88F8EE047CE50EF06BFDC84B2B
:102EF000012883F842040CD983F8428409E0D028E1
:102F000040F0AC82C34B1B785A073FF56BAD0AF01B
:102F10005FFF0CF05FF80AF08BFD63E500F224819F
:102F2000CA281ED14FF00008DFF804A3DAF800B079
:102F30000EF048FDC3448BF80100DAF800B00EF043
:102F400041FDC3448BF80B00DAF800A00EF03AFD07
:102F5000C24408F10108B8F10A0F8AF81500E3D15C
:102F600040E55CD85F289DD1DFF8C482D8F800A086
:102F70000EF034FDAAF82400D8F800A00EF02EFDC3
:102F8000AAF82600D8F800800EF028FDA8F828003E
:102F900028E55D2840F062820EF014FDDFF8908293
:102FA0009B4BD8F800A083F8DF010EF017FDAAF8BC
:102FB0002000D8F800800EF011FDA8F8220011E5DD
:102FC000C82840F04B8293F805804FEA5808B8F1C2
:102FD000120F3FF619AD4FF0000AC24507D20EF0AE
:102FE000FDFC0EAB23F81A000AF1010AF5E7424690
:102FF0000023434507DA0EA931F81300864921F86A
:1030000013000133F5E7122A05D0834B002123F882
:1030100012100132F7E7814B01221A70E2E4CE2848
:103020000AD17C4B1B785E073FF5DCAC7C4A1378F9
:1030300043F004031370D5E45DD8CC284ED15B79FE
:10304000092B7FF6E1ACDFF8C081D8F800A00EF0C4
:10305000B9FC8AF80000D8F800A00EF0B3FC8AF89A
:1030600002000EF0AFFCD8F800306428A8BF64203E
:1030700058710EF0A7FCD8F800306428A8BF64206F
:1030800098710EF09FFCD8F80030FF28A8BFFF20F1
:10309000D8710EF097FCD8F800A0642828BF6420EF
:1030A0008AF808000EF08EFC8AF80300D8F800A019
:1030B0000EF088FC8AF80400D8F800A00EF08EFC10
:1030C0002B68AAF80A005B790A2B7FF68BACD8F83C
:1030D00000800EF077FC88F8090083E4CD2840F0EA
:1030E000BD814C4B1B785B073FF57CAC4D4B4FF4DF
:1030F000C8721A8076E4CF287FF401AF0EF06EFC20
:103100006FF4AF6143189BB2DFF80481C62B98BF00
:10311000A8F840020EF062FCA8F8D0000EF05EFCA9
:10312000A8F8D2000EF05AFCA8F8D4000EF056FC15
:10313000A8F894020EF046FC0EF044FC0EF042FC9F
:103140000EF040FC88F81B020EF03CFC88F83C02B4
:103150000EF038FC0EF042FC00EB80004000A8F8B6
:10316000EA010EF02FFCCEE5DB283FF43BAC00F289
:103170008A80D6280CD14FF000080EF02FFC2A4B85
:1031800023F8180008F10108B8F1080FF5D129E477
:1031900050D8D32804D10EF021FC244B188021E410
:1031A000D42840F05B815B790F2B7FF42DAC0EF0BF
:1031B00009FC072882463FF627AC0EF00FFC144BA3
:1031C0004FF00E0808FB0A38A8F858010EF006FC6C
:1031D000A8F85A010EF002FCA8F85C010EF0F2FB10
:1031E00088F85E010EF0EEFB88F85F010EF0EAFB56
:1031F00088F860010EF0E6FB88F861010EF0F8FB3C
:10320000C8F86201FFF7EEBB600E00209C22002090
:103210001C2C0020E8310020401900200D26002041
:10322000600F0020180E0020842700206C0E002064
:103230007C270020D92813D10EF0D0FBDFF82083A3
:10324000A8F8DA000EF0CAFBA8F8DC000EF0C6FB06
:10325000A8F8DE000EF0C2FBA8F8E000FFF7C2BB42
:10326000DA2840F0FB800EF0ADFBDFF8F48288F83E
:103270001E020EF0A7FB88F81F020EF0A3FB88F8D1
:103280002002FFF7AFBBF22829D10EF09BFB0F28DD
:1032900080463FF6B9AB0EF095FBB14BC8EBC808C2
:1032A000984488F8E8000EF08DFB88F8E9000EF0ED
:1032B00089FB88F8EA000EF085FB88F8EB000EF039
:1032C00081FB88F8EC000EF07DFB88F8ED000EF035
:1032D00079FB88F8EE000AF0A9FAFFF783BB20D843
:1032E000DC280FD10EF06EFBDFF8748288F8C9017C
:1032F0000EF068FB88F8CA010EF064FB88F8CB0179
:10330000FFF770BBEF2840F0A9800EF067FBDFF8F5
:103310005082A8F8EE010EF061FBA8F8EC01FFF76F
:1033200061BBF52840F0938001200EF0AFFB4FF019
:1033300000088C4BDFF860A2C0228B48414683F81E
:1033400000808AF8008013F099FF52468DF81780AC
:10335000864B9DF8171093F83600884264D99DF883
:10336000171003EBC10191F83910C90755D59DF825
:10337000171003EBC10191F838007D4931F91010A5
:1033800000294ADDDFF8E0B19DF81700D8469DF826
:1033900017E003EBC00003EBCE031178C06BDB6BCF
:1033A000406809011B890BEB010CACF806304BF8A7
:1033B00001009BB24FF0000C4FF0010E0EFA0CFE14
:1033C0001EEA030E05D10CF1010CBCF1100FF3D174
:1033D00000E0E64608EB010CACF8083002238CF85C
:1033E0000B3048238CF80A30DCF808300831CCF870
:1033F0000C30102341448CF80E30ACF804E00192FC
:1034000003F083FF019A137819018844B8F8060085
:103410005BF801100133086113709DF81730013318
:10342000DBB28DF8173093E79AF800000EF0E9FA56
:103430000EF0F8FA386809F03BFF2B6818680AF0BC
:1034400004F92868396806F0ADFCFFF7CBBAFA2812
:1034500004D1484B1B7858077FF55BAD04F084FE20
:10346000FEF74FBB0C2803D143480EF0DFFC49E0C8
:103470000A2801D00D2864D1404D41480EF0D6FCF9
:103480002846232113F02FFF08B1401B206023683A
:103490007BB35A1EA95C202901D11346F8E7374AAD
:1034A00000212360D154374B374FD3F80090D7F821
:1034B00000A0324E504613F024FF054651462A46DE
:1034C000304613F027FF314A20B9735D4B445B78D7
:1034D000580703D010379742E9D306E0974204D249
:1034E000681CFB683044984702E029480EF09EFCB7
:1034F0000023224800213022236013F0BFFE009BEE
:103500001B7853B308F004FBFEF734BA0C28ABD099
:103510007F2804D1FEF72EBA2F2B3EF62BAAA0F15E
:103520002002D2B25E2A3EF625AA13B920283EF424
:1035300021AA5A1C2260114AD0540EF009FBFEF752
:1035400019BA7F28E8D10D4A013B002111482360B8
:10355000D1540EF06BFCFEF70DBA2FB0BDE8F08F22
:103560001C2C002089000020181B00207C0C00204F
:10357000C4220020E8310020C2C00108F01B002056
:103580006FCC0108D803002004B90108F4BA01087F
:10359000CDC00108E9C00108EB1B00202DE9F04F68
:1035A0009D4E9E49326889B002F59C4320330B60E2
:1035B0009B4B01961D788846BDB19A4909688A429D
:1035C00040F2FF80013D1D70FBE0974F072C3B68E8
:1035D0008CBF2146195D954B95481B689847032C75
:1035E00009D908EB4404A080013505F0D1FCECB208
:1035F0008442EAD31FE03A6804F1100302EB83032C
:103600009988DA880028ECD04FF47A73401A58432E
:10361000531A90FBF3F040F6C90300F57A70984214
:1036200005DC40F2EE239842B8BF184601E040F6B0
:10363000CA0080B2D5E742F201097E4B7E4D1B687D
:103640002F6803EA0909B9FA89F94FEA59197B4B3E
:10365000B9F1000F05D198F828201A70784A5178EE
:1036600011701B7823B1764B1B7883F0010600E0C4
:103670001E460F23DFF8E4A188F82930002405F066
:1036800087FC844264DA4FEA440B1EB16D4B33F879
:10369000140000E03046644BDFF8C4E11A68A10072
:1036A000938B8342684B02D8D28B824219D25EF848
:1036B00001105A4A8F4202D233F80B0015E0E0B2F3
:1036C000029300920EF056F8032C029B0DDC009A38
:1036D000012192F829E0A1402EEA010182F8291087
:1036E00003E007F596724EF80120B9F1000F29D1D9
:1036F00098F8BC200323B2FBF3F303EB4303D31A84
:10370000DBB20BEB04010B4408EB4303588598F83C
:10371000BD302BB9022A14D9404B012283F8BD20B9
:10372000BAF800303AF8020C1844BAF802301844DB
:10373000464B80B223F80B0000B2032390FBF3F05A
:1037400080B2414B23F80B0001340AF1060A96E7D8
:1037500098F829203E4BA2F10F014A424A4188F8CD
:10376000D6206AB13B4A1268520109D42A68D96846
:103770009A60521AC82A1FD9012283F821201BE01F
:103780002F4A0121517011702A689968DA605B68CC
:10379000521A9A4282BF2E4B002283F82120002425
:1037A00005F0F6FB844207DAE0B20DF0E3FF264BAA
:1037B00023F814000134F3E798F8BC30013388F89B
:1037C000BC301C4B1A68009312F4805F05D0214B6B
:1037D0001B68DE0701D40EF0D1FE019B1C68124B62
:1037E0001E68307B00283DD0174AB37B013832F881
:1037F00010001BB1C0F53B60083080B200B2A0F5EC
:103800007A70B0F57A7FA8BF4FF47A7020EAE07042
:1038100010F0EEF910495BE0C4310020140D0020D7
:1038200000270020FC260020041B0020B4000020FC
:10383000B4310020F8260020EC26002000100020E3
:1038400000000020180D0020D02B0020D20D0020F9
:10385000042700204C27002000007A44400D00205F
:10386000880D0020009B1B681D043AD5D8F8D8307D
:10387000AA4DE31A002B34DB04F59C432033C5F832
:10388000D830A74B5A79A74B33F812108AB2717B04
:1038900092FBF1F195F8DC20013202F00F0385F87C
:1038A000DC302B4483F8DD1003469F4A825C0130F4
:1038B000134410289BB2F8D11BB293FBF0F000B276
:1038C0006428A8BF642020EAE07010F091F99749BD
:1038D00010F096FA964910F0DFF910F0C9FB954BFD
:1038E0001880009B944D1B68944E13F4807F00F069
:1038F000F880934BDFF84CB29C4205D99BF802301C
:1039000013B901238BF802309BF80230002B00F032
:10391000E8808C4B2A6893F821403378601E44423B
:103920004441C3F3800AC2F380692CB913F0080F35
:103930000CBF0027022700E000279BF82030052B52
:1039400000F2CB80DFE803F0034E628796B2BAF153
:10395000000F39D0D8F8F000B8F8F41009F068FC7E
:10396000012809D1784A794B12681B68D2886421F2
:1039700001FB0233CBF81030B9F1000F0BD0724BC2
:103980001B681B793BB10FF065FE03238BF82030D9
:103990004FF47A7337E0002C40F09F806B4BDBF8DC
:1039A00010201968674B91420AD901930FF052FE1B
:1039B000019B032283F8202040F6B832DA61BCE78D
:1039C000012283F82020B8E74FF48060B9F1000F9E
:1039D00002D00BF097FA01E00BF084FA0023CBF849
:1039E00010307AE0002C56D1574B1B681B7A012B04
:1039F00002D00FF02FFEA0E70FF02CFE03238BF870
:103A0000203040F6B833CBF81C3096E724B10523BC
:103A10008BF82030012100E02146BAF1000F0BD0D5
:103A2000D8F8F03003271A8A494B1A805A809A80B6
:103A3000454A12685288DA80444B1A68DBF8143021
:103A40009A4202D8BAF1000F44D147F23053CBF872
:103A50001C30032320E0337843F0020333700EF070
:103A60008DFD3A4BDBF81C201B681344CBF8183053
:103A7000042311E0354B94B11A68DBF818309A42F0
:103A80002BD9344B9B7813B92B68D90725D43378BD
:103A900023F00203337005238BF820304DE71B68B9
:103AA000DBF81C201344CBF8183016E0264A274BCD
:103AB00012681B68D288642101FB02334FF48060D6
:103AC000CBF8103000238BF820308BF803300BF04C
:103AD00009FA32E700297FF430AF17B1384609F010
:103AE000A1FC1D4C04F50C70B4F8E01009F0A0FB2B
:103AF0002B6882461A0103D4009B1B685B022FD5FA
:103B000033785F072CD5154BB3F90620B4F84A3249
:103B10009A4236DB012388F8F63039E0140D002094
:103B2000BC1A0020CC1A0020F10D00200000C84271
:103B300000C07F445E0F00204C270020E8310020A9
:103B4000404B4C0004270020CC2B0020EC2600200A
:103B5000D02B0020000000201C2C00204E2B002029
:103B6000002388F8F630BAF1000F11D19E499F4B1F
:103B70000020002208601A6048605A6088609A60DD
:103B800006E0BAF1000F06D198F8F630002BEDD020
:103B90003378580736D5009B1B68D90632D5944B2D
:103BA0001B78DA062ED4934B9B7893B194F8873226
:103BB000BAF1000F15D17BB18F4B1A68D8F8F830E5
:103BC0009B1A002B08DA0EF0D9FC8C4B83F8FCA072
:103BD00018E0BAF1000F0DD1102009F023FC0123E9
:103BE0000EE03BB1844A4FF47A71126801FB032363
:103BF000C8F8F83098F8FC3023B109F0FFFB002337
:103C000088F8FC300022134694F88612B4F842E299
:103C1000B4F844C27A4F9B0837F91200013270455C
:103C2000C4BF63F07F03DBB26045B8BF43F040031D
:103C3000042AEFD198F8FD2070489A4205D190F8F7
:103C4000FE20F92A04D8013200E0002280F8FE208C
:103C500088F8FD30674B694A9878994628BB2B68ED
:103C6000DB070AD582F8FF00BAF1000F1DD13378C7
:103C7000DB071AD50EF0BCFA17E03378580714D5D5
:103C8000604B1B788BB1604BDB7873B992F8FF30D7
:103C90000133DBB2032B82F8FF3006D911B10EF0ED
:103CA0006DFC02E0BAF1000FF9D098F8FE30DFF8B1
:103CB0004CA1142B6CD199F802308BB19AF8FD30DD
:103CC0005F2B0DD1337803F0040303F0FF0B13B126
:103CD0000EF054FC04E00B2009F0A4FB8AF8FEB0BF
:103CE000337803F0040303F0FF01002B50D198F860
:103CF000FD30424A572B14D1444B1A684FF47A7363
:103D0000B3FBF2F3C3EB431203EB8203404ADB0045
:103D10001380404B1B685B073AD53F4B0A221A8041
:103D200036E000980068400717D55A2B15D192F855
:103D300000312BB1012382F8001182F8013127E014
:103D400092F8023183F0010382F802310BB10C20AA
:103D500000E00D2009F066FB1AE05D2B00F08B857A
:103D60005B2B00F08A855E2B02D1032000F086BD1C
:103D7000562B01D10BF0E6F999F80230002B00F038
:103D8000838598F8FD306F2B40F07E850EF030FA79
:103D9000009B1B68580750D598F80231174A8BB121
:103DA000337859070ED5B7F90610B4F84232994264
:103DB00008DD2B6813F0010302BF3221A2F81411B1
:103DC00082F802312B68DA0328D598F816210B4BBC
:103DD0002AB993F8002112B93222A3F81421012341
:103DE00088F8163129E000BF302B0020B82B0020C6
:103DF000600F002000000020EC260020140D0020A1
:103E0000D02B00200010002004270020981700204D
:103E1000DC31002090170020E031002098F80031BC
:103E2000BE4A53B1337803F0040303F0FF0123B912
:103E3000012382F8001182F80131B94F00232B6071
:103E400007F1500917F8010C394609F0CBF938B1E0
:103E500017F8022C012303FA02F22B6813432B609C
:103E600004374F45EED1AF4B1B7843B12B68DFF8D9
:103E7000D49213F0020FAC4F40F0D581CCE1AB4FA0
:103E800007F15A0917F8010C394609F0ABF908B3E4
:103E900097F804E00C21BB7801FB0E81A44A013B9A
:103EA00003EB43031344D1F81C2197F803A09A4273
:103EB0009A480FD0C1F81C31002390F84821C1F86E
:103EC0002031012303FA0EF322EA030381F818A13B
:103ED00080F8483106374F45D4D1964BD8F84C710D
:103EE0001B68DFF864B20293934B1B7803930023A3
:103EF0000193DBF80010002900F0858191F8009013
:103F0000B9F1000F00F07F81DBF80430029AD31A78
:103F1000002B0CDB02F5FA73019ACBF80430012375
:103F2000934098F8482122EA030388F84831039B1C
:103F3000002B00F068811BF8042C4B780432D2B2BD
:103F4000002B40F029817D4B33F912207C4BB3F8D4
:103F5000403203F1C800824202DD91F802A015E070
:103F6000C83B9A4203DA8978C1F1000A0EE0019A4F
:103F70000123934098F8482122EA030388F8483146
:103F8000029B03F5FA73CBF804303CE1019B98F8EF
:103F900048211A41D30700F13681BAF1000FCCBF96
:103FA0000220012009F074FA09F1FF32132A00F20D
:103FB0002281DFE812F014001E0028003C005500AA
:103FC0005C0079009600CB00D700E50020013C00A2
:103FD0004B005C00790096006D008A00A6003978DD
:103FE00001205144FA29A8BFFA2121EAE171397070
:103FF000C3E0B978022051446429A8BF642121EAB2
:10400000E171B970B9E097F804903846D144B9F13C
:10401000640FA8BF4FF0640929EAE979D8F8501174
:1040200087F8049009F070F803204946A5E0B979B3
:104030000D2051446429A8BF642121EAE171B971BE
:1040400009F016F9B9F10D0F00F0D58079790E203D
:1040500051446429A8BF642121EAE17179718CE09F
:10406000F9790520514481F30801F97185E0D8F808
:1040700054210F2091785144C829A8BFC82121EAB2
:10408000E171917009F0F4F8B9F10F0F00F0B3800D
:10409000D8F85421122051785144C829A8BFC8210A
:1040A00021EAE171517068E0D8F854211020117BA9
:1040B0005144C829A8BFC82121EAE171117309F050
:1040C000D7F8B9F1100F00F09680D8F854211320DA
:1040D000D17A5144C829A8BFC82121EAE171D1721F
:1040E0004BE0D8F854211120917D5144C829A8BF34
:1040F000C82121EAE171917509F0BAF8B9F1110FFF
:1041000079D0D8F854211420517D5144C829A8BF32
:10411000C82121EAE17151752FE000BF140D002084
:1041200061300020E631002048270020B030002018
:104130007C9D0108EC26002000100020D02B0020E0
:104140001C2C002090170020300E0020D8F854219D
:104150000920D1785144C829A8BFC82121EAE171BA
:10416000D1700AE0D8F854210A20517B5144C82963
:10417000A8BFC82121EAE171517309F079F83AE04A
:10418000D8F854210B20D17D5144C829A8BFC8219B
:1041900021EAE171D175F0E7012B2CD1A84B887889
:1041A00033F91230B3F5617F05DB40F633029342F9
:1041B000A8BF134601E04FF46173B9F10C0F1AD197
:1041C0004FF4966292FBF0F0A3F5617393FBF0F36A
:1041D0009C4ADBB212789A420DD0184604930AF03A
:1041E000DBFE049B4846194609F042F8049B581C24
:1041F000C0B209F04DF9019A0123934098F8482183
:10420000134388F84831019B0BF10C0B0133042B4D
:1042100001937FF46EAE29E6009B1B68D8050ED58E
:10422000894BDB785BB1D9F80030990707D53B881B
:1042300013F0010A08D101200AF064FE04E0012015
:104240000AF050FE012300E000232A6852070AD535
:104250004BB101200AF046FE3B88980706D40220A5
:104260000AF050FE02E002200AF03CFE774B3A884A
:1042700099689B8912F0030F14BF4B610B61D9F849
:10428000003013F00A0F2CD02B68D9060DD5520739
:104290000ED404200AF036FE6D4B0A22B3F9043026
:1042A00093FBF2F3A8F8583102E004200AF01AFE5A
:1042B0002B689B0606D53B88580606D440200AF09A
:1042C00021FE02E040200AF00DFE2B68590641BF96
:1042D0005F4B0A22B3F9043093FBF2F348BFA8F80E
:1042E0005A312B684FF480701A0502D50AF00AFE85
:1042F00001E00AF0F7FD574B5A791F46082A01D012
:104300000E2A02D140200AF0EDFD009B1B685B05E0
:1043100018D597F8C8321BB9337813F0040F02E0B0
:104320002B6813F4002F09D04B4B00221A703C204D
:1043300003F0E8FE30B10DF025FBF8E707F0C8FE0A
:104340000FF0C0FA012388F85C31D8F84C713C4B6F
:104350007A89B3F9065095420FDBB5F5FA6F397AD1
:10436000BFBFAB1A4B43A2F5FA6293FBF2F3ACBFAB
:10437000C1F1640C03F1640C01E04FF0640C94F89B
:104380001E32B4F84092009394F81F320026019335
:1043900094F9D8315B429BB20293304B4FEA460B03
:1043A00006F803C0264B2E4C33F916A040F2E63334
:1043B000C9EB0A0000F2F3129A4259D80028B8BF9C
:1043C0004042022E58D0009B984202DD009BC01A4A
:1043D00000E00020CDF814C00FF00AFC21490FF0D6
:1043E0000FFD0390B8780FF0FFFB039B0490194674
:1043F00018460FF051FC1C490FF044FB049A01468B
:1044000010460FF049FC19490FF03EFB039B19467B
:104410000FF042FC039038780FF0E6FB039B014657
:1044200018460FF039FC11490FF0EAFC0FF0FAFDC5
:10443000CA4524F80B00DDF814C058DB5DE000BF6E
:10444000D02B0020F6260020042700202C27002057
:10445000182B00201C2C0020AC1700202C2B002037
:104460004E2B00200000C8420000C84100401C45FF
:10447000022E4FF4FA70A9D1019BCDF814C09842D6
:10448000CCBFC01A00200FF0B3FBA4490FF0B8FC5A
:104490000390787A0FF0A8FB039B04901946184606
:1044A0000FF0FAFB9E490FF0EDFA049A0146104610
:1044B0000FF0F2FB9B490FF0E7FA039B19460FF050
:1044C000EBFB039078780FF08FFB039B01461846B7
:1044D0000FF0E2FB93490FF093FC0FF0A3FD029B5A
:1044E000CA4500FB03F0DDF814C0A08009DA8E4A4B
:1044F0003BF802305B422BF802300136032E7FF48A
:104500004CAF8A4B8A4E196811F480510DD0B5F525
:104510007A7F05DBB5F5FA6FA8BF4FF4FA6501E0C5
:104520004FF47A75A5F57A7512E0B6F842229542F5
:1045300005DBB5F5FA6FA8BF4FF4FA6500E0154644
:10454000AD1A4FF47A736B43C2F5FA65B3FBF5F518
:10455000642395FBF3F0DFF808E26FF063073EF8A1
:10456000102007FB005501303EF9100017B2C01BA8
:10457000454395FBF3F36C4813449BB2C380B1B140
:104580006C4A1268D50012D56B4AD2787AB9A3F575
:104590007A731BB21A034FF47A7392FBF3F3C9F5E3
:1045A000FA6109B24B4309EB2339A0F80690634D39
:1045B0002B8803F040039FB2002F43D0604B0A20AA
:1045C000B3F9043093FBF0F0B8F85A31C01A00B2D6
:1045D0000FF00EFB5B490FF05FFB5B4980460FF06D
:1045E00053FA0AF00EFC814640460AF00AFC804667
:1045F000B4F902000FF0FCFA8246B4F900000FF0A3
:10460000F7FA494683460FF047FB41460090504673
:104610000FF042FB009B014618460FF033FA0FF0F3
:1046200001FD4946208050460FF036FB4146814649
:1046300058460FF031FB014648460FF025FA0FF0BF
:10464000F1FC608096F8470200285BD0002F59D11A
:104650003E4EDFF8108196F85D31834213D086F824
:104660005D010FF0C5FA37490FF016FB36490746D2
:104670000FF00AFA0AF0C5FBC8F8040038460AF041
:10468000C0FBC6F86001B4F900000FF0B1FA0746AC
:10469000B4F904000FF0ACFAD8F804808146414622
:1046A00038460FF0F9FAD6F860A10646514648465A
:1046B0000FF0F2FA014630460FF0E4F90FF0B2FCC9
:1046C000234EB0F5FA7FA8BF4FF4FA70B042B8BFDE
:1046D00030464146208048460FF0DEFA514680467B
:1046E00038460FF0D9FA014640460FF0CDF90FF0E9
:1046F00099FCB0F5FA7FA8BF4FF4FA70B042B8BF8A
:104700003046A080134B144E1A7812F0040F2BD0B1
:10471000124B1A689B88536167E000BF0000C842D3
:104720000000C84100401C454E2B0020F826002008
:104730001C2C00204C2700200427002048270020A4
:10474000182B002035FA8E3CDB0FC93F140D0020DA
:104750000CFEFFFFE8310020901700202C270020DE
:10476000842200200000002072490968C90703D58F
:10477000714991F8641111B142F001021A706F4A47
:104780006F49127812075EBF1A7822F001021A7080
:10479000326812F0040F02D06A48008878B966487F
:1047A000B0F8040108B1970709D4674A12880032AB
:1047B00018BF01221AB965480088642806D9022268
:1047C0000A701A7822F001021A7005E01B78DC07E3
:1047D00056BF02230A700B7008F0C2FD5C4B1B68C9
:1047E000C01A002801DB0DF011F8336858071CD5FA
:1047F000504B1B68190703D408200AF073FB14E020
:104800002C8804F00804A4B27CB908200AF07AFBD2
:10481000504B1A68504B1A60504BDA88464BA3F83D
:1048200066214F4B1C604F4B1C603368DA067DD508
:10483000404B1B689B0206D44FF4007009B0BDE8E2
:10484000F04F0AF04FBB2C8804F40074A4B2002C83
:104850006CD14FF400700AF055FB3E4B1A683E4B8A
:104860001A603E4BDA88344BA3F866213C4B1C603F
:104870003C4B1C605AE0012000E002200138C0B22D
:104880000AF04EFCFFF784BA98F8FD302A4A972BBD
:1048900005D14FF4C873A2F80431FFF779BAA72BFA
:1048A00006D1264A137843F004031370FFF770BA59
:1048B0000021BB2B079101D1022303E0B72B04D1C8
:1048C0004FF6FE73ADF81E3009E0BE2B01D1022376
:1048D00003E0BD2B18D14FF6FE73ADF81C30BDF8C8
:1048E0001C20B4F8EC311344A4F8EC31BDF81E20C0
:1048F000B4F8EE311344A4F8EE310AF023FC00239F
:1049000088F8FE30FFF744BA792B04D192F80B31C6
:1049100023F0010306E07A2B7FF43AAA92F80B31D8
:1049200043F0010382F80B31FFF732BA09B0BDE85A
:10493000F08F00BF4C270020140D0020600F0020D6
:1049400028270020E0310020DC310020F226002062
:1049500044270020A82A0020B42A0020D02B0020C1
:10496000BC2A0020C02A00209148F0B50368914A73
:104970009C8AA4B2E1B211F0010F2ED0198821F463
:1049800000610904090C1980198889B241F4806119
:10499000198000211170517899B1917811B9D178AD
:1049A000FF290ED1012191701179022901BF1988C7
:1049B00089B241F400611980517941F001011982F5
:1049C000E1E0517901F0FE011982D378FF2B00F06C
:1049D000DA80784BFF211970D5E08E073AD5BFF306
:1049E0005F8F1479E4B2012C13D1517889B1917899
:1049F00079B1198821F480610904090C1980BFF389
:104A00005F8F198B1988947189B241F400711980F4
:104A10001BE0198BBFF35F8F14796649022C0AD112
:104A20004C7844B1897831B1198821F48061090446
:104A3000090C1980A1E014795E49032C05D14C784A
:104A40001CB18978002940F09880998889B241F496
:104A5000806197E04D0756D5012191715178002969
:104A600037D09178002934D011791C880229117827
:104A70001DD924F480642404240C1C801E8A9568AB
:104A8000CCB2F6B249B26E54198889B241F40071C1
:104A900019800168A31C13700B8A0134DBB264B265
:104AA0002B558B889BB243F480638B8026E0A4B2A5
:104AB00044F400741C801D8A9668CCB2EDB249B2F1
:104AC00075541B8A611C49B2DBB2033473541470F1
:104AD00014E09178374C09B9217B41B1198889B22A
:104AE00041F40071198013780133137006E01988BE
:104AF00089B241F4807119800123A37001680B8889
:104B0000DB05FCD43FE001F0400101F0FF05E1B11D
:104B100014781F8A9668E5B2691C64B2FFB23755F3
:104B2000C9B21679117049B2CC1CA64201BF9C884B
:104B300024F480642404240C08BF9C8013798B42E5
:104B400021D11C4B02351D701DE027061BD51178A5
:104B50004CB2661C0AD0156901312C5DC9B21C82A9
:104B60001479117049B28C420DD106E0D1781570DC
:104B70001982517809B9117929B9998821F480618C
:104B80000904090C9980137992F9004001339C4281
:104B900008490CD100238B708B7933B101688B8865
:104BA00023F440731B041B0C8B8000231375F0BD92
:104BB000FC2500207C0E00206B4B6C4A2DE9F04F49
:104BC0005E8994694FEA062AB4EB0A0A9C884FF082
:104BD00000054FEA04481C894FF0000BA4FB0A674C
:104BE00065EB0B0B04FB0B77F40944EA476418EB05
:104BF00004065C884FF000094FEAE7154FEAC43815
:104C0000DC8849EB050787B0CDE90467A4FB0A6798
:104C100004FB0B77340A44EA076418EB04064FEAF6
:104C200027259C894FF0000949EB0507CDE900676E
:104C3000AAFB046704FB0B77F40D44EA472414F540
:104C4000FA664FEAE75545F10007B6F5FA6F77F1D6
:104C50000003CDE90267964666DADDE90489A4FB24
:104C6000046704FB05F34FF0050C07EB4307A6FBB5
:104C70000C230CFB07335F104FEA3206B8EB060833
:104C80004FEA920646EA837669EB07099F10DDE951
:104C90000023921B63EB0703CDE90023DDE90267E4
:104CA000334A4FF0FF33964277EB0303CDE9048993
:104CB00027DA40F6AC520023A4185D4104FB05F34B
:104CC000A4FB04456FF0060205EB4305664202FBB8
:104CD0000566A4FB0223334418EB020649EB0307E5
:104CE000CDE904670B26A4FB062306FB0533DDE9AB
:104CF00000455B104FEA3202A41A65EB0305CDE9CB
:104D00000045DDE902450AFB0BF3AAFB0AAB0BEBFE
:104D1000430B4FEADA7242EA4B02A41A4FEAEB73F2
:104D200065EB0305CDE90245DEF81C40009B019DC3
:104D3000A4FB032304FB05334FEA525848EAC32877
:104D40004FEA6359DDE90423B8EB020269EB030380
:104D50009946D30B43EA494300B1036009B1029B72
:104D60000B6007B0BDE8F08F081700207C0E002014
:104D700024FAFFFF2DE9F04F6D4B6E4C1E6A22881E
:104D800087B0C2EB26135B435200C2EBE602B4F9D4
:104D900002601B135643B4F90420029153439B1342
:104DA00003EBE62606EB860380331B120493624B6B
:104DB000B6F5FA384FEAE6771B6847F1FF39A8FBEA
:104DC00008AB039308FB09F3B4F908200BEB430B82
:104DD000E38905460593D31708FB03F102FB09118C
:104DE000A8FB0223B4F90A000B44C1171F030AFBF6
:104DF00001F300FB0B33AAFB000147EA12571944E9
:104E0000A6611603020A42EA016292194FEA2123BF
:104E1000E6887B410032A2FB060143F5004306FB16
:104E200003114B100093CB170193DDE900231343CB
:104E3000B4F810E0B4F80CC06DD00FFA8EF0C117C2
:104E40000AFB01F1AAFB002300FB0B11BDF9146062
:104E50000B44F71708FB07F106FB0911A8FB0667CF
:104E60000F4479047004801841EAD6315941039BFC
:104E70000FFA8CF8C3F5801E7246D3170022121861
:104E80004FEACE764FEAC3774FEAC8034B4147EA71
:104E90005E07B61A67EB030740F63543A6FB03012E
:104EA00003FB0711DDE900230FF002F9B4F9162026
:104EB0004E1302FB06FE470B47EAC147D31707FB19
:104EC00003EEA2FB07235643734407FB0366A2FBD2
:104ED00007233344560E46EAC3168219B4F9146008
:104EE0004FEA636741EB07037143F71700FB0717AE
:104EF000A6FB00013944C60C46EA413692194FEA36
:104F0000E1474FEA1221B4F912207B4141EA0361E3
:104F100013010B4400E000230DB11B0A2B60029B20
:104F200013B11A46049B136007B0BDE8F08F00BFB1
:104F30007C0E002074170020BC31002070477047A1
:104F40002DE9F041324C334D6289AB8CB4F90480C9
:104F50009A1A2389B4F902E05A43B4F91230D613ED
:104F6000B4F91420DB02324493FBF2F232440A26F5
:104F7000E2615643A2F57A6202FB02F3B4F90EC075
:104F800002FB0EFE02FB08F2B4F90C801B130CFBB3
:104F900003FC03FB08F31B1403EB62320232E388C9
:104FA000921002F5004253434CF25032B4F9207093
:104FB0004FEAEE2EB4F900400EEBEC2C0CEB84041F
:104FC000BC40AD6A0234A5EBA4043A4162434FEA07
:104FD000D3384EBFB2FBF8F35400B4FBF8F340F6FD
:104FE000DE3448BF5B001A12524362430A4C083653
:104FF0005C43241404EB224202F6CF62361103EB29
:10500000221300B1036001B10E60BDE8F08100BF62
:105010001C1700207C0E002043E3FFFF13B50C4B50
:1050200004465B681B20022101AA984770B19DF8D5
:1050300004209DF8053043EA022303F54E53103354
:105040004FF48C7293FBF2F32333238002B010BD34
:10505000F4160020064B93F82C2002F0FF012AB131
:1050600001220270002283F82C20704701707047E3
:105070007C0E002037B5104B04465D681878062179
:105080006A46A847A8B19DF800209DF8013001208C
:1050900043EA022323809DF802209DF8033043EA6F
:1050A000022363809DF804209DF8053043EA022323
:1050B000A38003B030BD00BFF416002013B5104B21
:1050C00004465B683B2006216A469847A8B19DF8D4
:1050D00000209DF80130012043EA022323809DF83F
:1050E00002209DF8033043EA022363809DF80420E8
:1050F0009DF8053043EA0223A38002B010BD00BF33
:10510000F416002010B5224C2368998A89B211F454
:10511000706F1EBF1F4A012082F82D0011F4E06F4E
:105120002BD01A8B9A88890522F480624FEA0242BA
:105130004FEA12429A8020D41A8892051DD41A8808
:10514000D0050FD51A88D105FCD41A8892B242F442
:1051500000721A801A889205FCD40F4B18780AF056
:105160002AFE0AE01A8892B242F400721A809A88E3
:1051700022F440721204120C9A802268938A23F45B
:1051800070631B041B0C9382024B00221A7510BD26
:10519000FC2500207C0E002000260020054A08B5D2
:1051A000138801339BB21380034B18780AF003FE77
:1051B000002008BDF42600200026002008B54FF48A
:1051C000804003F01BFD012801BF044B4FF48042D7
:1051D0005A61034B08BF83F82E0008BD000401404C
:1051E0007C0E002010B5074C2368186903F006FDFB
:1051F00038B123681A69044B5A61044B012283F8C1
:105200002C2010BD00170020000401407C0E00205F
:10521000F8B50E461746084C4FF48055656140F0CE
:1052200080000EF083FA3846002132460EF050FA24
:1052300025610120F8BD00BF000C014070B50E468D
:10524000054C4FF4805565610EF070FA30460EF053
:105250006DFA2561012070BD000C014070B5104C45
:105260000546192008F0A3F8A368152000219847E7
:1052700010B9022008F024F9A36845F0180116209F
:105280009847A368002117209847A36801213D2073
:105290009847A3683E200121BDE87040184700BF31
:1052A000F4160020F0B5284D85B095F82F30002B6E
:1052B00047D1264C2368002B43D01A68244E12B1E4
:1052C000B1690A43B2619A889868ADF80020022259
:1052D0008DF80320694604228DF8022002F015F8AB
:1052E000B369002743F00103B36123680126187BEB
:1052F000197D01F0F5FF2368164993F9150008F0B0
:105300002DF92368144A1B695361029308230DEB9E
:1053100003008DF80D308DF80C708DF80E6003F0E1
:105320003DFC236801A85B7D8DF806708DF8043084
:1053300003238DF805308DF807600EF0ABF985F882
:105340002F6005B0F0BD00BF7C0E002000170020CC
:1053500000100240E55100080004014037B5054641
:10536000FFF7A0FF2C4B1A682C4B9A420ED14FF43A
:105370000053ADF8043002238DF807300423284889
:105380000DEB03018DF8063001F0BFFF254CFFF750
:1053900089FFA36880216B209847642008F007F8F4
:1053A000A368072168209847642008F000F8A368E4
:1053B00000216B209847642007F0F9FFA3680121C2
:1053C0006B2098470F2007F0F2FFA36818211B20DD
:1053D00098470F2007F0EBFFA36818211C2098477F
:1053E0000F2007F0E4FFA36829461A2098470F20F2
:1053F00007F0DDFF0C4AA368117819209847642054
:1054000007F0D5FFA368102137209847A368012132
:105410003820984703B030BD84000020001BB7003F
:1054200000100140F41600209417002008B5FFF783
:1054300039FF024B4FF400621A8008BD08000020BB
:1054400070B50546154CFFF72DFFA36880216B2032
:105450009847642007F0ABFFA36803216B209847AF
:105460000F4AA3681178192098470F2007F09FFF73
:10547000A36829461A209847A36818211B2098473B
:10548000A36818211C209847A36802213720984759
:10549000A36838200121BDE870401847F4160020A9
:1054A0009417002008B5FFF7FDFE074B5B7813B19A
:1054B000012B03D008BD4FF4806201E04FF400627D
:1054C000024B1A8008BD00BFF01600200800002023
:1054D00010B51E4C4000C0B2A36023611C4B60712C
:1054E000E17001200021217360702271207518681D
:1054F00084F82D1040B383889B0515D40388D90503
:105500000DD44FF480530288920502D5013BFAD1A5
:1055100012E08BB103889BB243F4807303808388CD
:105520009BB243F4407383804FF48053227D12B1C9
:10553000013BFBD100E013B9BDE810402EE6034B60
:1055400093F82D0080F0010010BD00BF7C0E0020FC
:10555000FC25002007B5002101AB03227720FFF7CF
:10556000B7FF9DF805309DF804001B0243EA004395
:105570009DF80600184303B05DF804FB08B5FFF77B
:10558000E9FF014BD86108BD7C0E002008B5FFF78C
:10559000E1FF014B986108BD7C0E002007B5F721A3
:1055A0006B4606227620FFF793FF9DF800309DF8AA
:1055B00001201B0343EA02139DF8022043EA121361
:1055C000084A13609DF803309DF804201B0343EA4A
:1055D00002139DF8052043EA1213034A136203B035
:1055E0005DF804FBBC3100207C0E0020104B13B58D
:1055F0001B78104C13B194F82E30B3B1032201ABD9
:105600007720F621FFF764FF9DF805309DF8042010
:105610001B0243EA02439DF806201343064AB2F9EF
:105620002020C2F10802D340A36202B010BD00BF27
:10563000810000207C0E00201C1700200B4B13B5AE
:105640001B780B4C13B194F82E3063B1022201ABDE
:105650007720F621FFF73CFF9DF804209DF80530E8
:1056600043EA0223A38402B010BD00BF81000020E2
:105670007C0E002030B505460C46134629462246CE
:10568000BDE83040682023E713B506220446012117
:105690001C206B46FFF71CFF08B39DF801309DF8F6
:1056A0000020042143EA022242F38D0292FBF1F230
:1056B0009DF8023022809DF8032042EA032242F343
:1056C0008D0292FBF1F29DF8043062809DF8052076
:1056D00042EA032343F38D0393FBF1F3A38002B06B
:1056E00010BD13B506220446022118206B46FFF7B1
:1056F000EFFEB8B19DF800309DF801209B0803EB48
:10570000022323809DF802309DF803209B0803EBC1
:10571000022363809DF804309DF805209B0803EB6D
:105720000223A38002B010BD314B2DE9F3411B7859
:105730000546002B3CD0002426462746A0460134CF
:105740005320322108226B46E4B2FFF7C1FE08B9AC
:1057500000204AE09DF801209DF80030202C03EB4A
:1057600002231BB29DF8032098449DF8023003EBFE
:1057700002231BB21F449DF805209DF8043003EB63
:1057800002231BB21E449DF8073003F07F0301D0B3
:10579000002BD4D198FBF4F897FBF4F796FBF4F6C2
:1057A000144BA5F800806F80AE8083F830401CE079
:1057B0005320322106226B46FFF78AFE0028C7D00D
:1057C0009DF801209DF8003003EB02232B809DF80B
:1057D00003209DF8023003EB02236B809DF8052027
:1057E0009DF8043003EB0223AB8002B0BDE8F081EA
:1057F000061700207C0E002013B5204B400002ACA1
:10580000C0B2587104F8012DD970012200211A7319
:1058100059701A711A751A4A1C6110689C6083F8D5
:105820002D1040B38288920515D40288D4050DD47A
:105830004FF480520188890502D5013AFAD112E06D
:105840008AB1028892B242F480720280828892B257
:1058500042F4407282804FF48052197D11B1013AB6
:10586000FBD100E012B9FFF799FC04E0034B93F879
:105870002D0080F0010002B010BD00BF7C0E0020A2
:10588000FC250020772048210122B5E77720582108
:105890000122B1E77620F4213122ADE7064B002149
:1058A00093F82020054B9201343283F82E10772094
:1058B000F42102F0FC029FE71C1700207C0E002060
:1058C000034B002283F82E207720F4212E2293E729
:1058D0007C0E002003460A46682019468CE713B563
:1058E00000222A211C20FFF787FF0E2102221C2004
:1058F000FFF782FF0F2103221C20FFF77DFF2B21E2
:1059000012221C20FFF778FF164A022493691648DA
:1059100043F0040393612023ADF8043004230DEB1E
:1059200003018DF806308DF8074001F0EEFC2246A9
:105930002C211C20FFF760FF2D2101221C20FFF7E6
:105940005BFF2E2100221C20FFF756FF2A21052293
:105950001C20FFF751FF054B4FF480721A8002B0F4
:1059600010BD00BF001002400008014008000020E8
:1059700008B50F2108221820FFF73EFF0E2218203D
:105980001021FFF739FF024B4FF480521A8008BDF7
:105990000800002008B5134B53201B782D21082246
:1059A0007BB1FFF729FF31210A225320FFF724FFA3
:1059B0002C210C225320FFF71FFF53203821902267
:1059C00009E0FFF719FF31210A225320FFF714FFE6
:1059D00053202C210A22FFF70FFF40F20912024B3D
:1059E0001A8008BD0617002008000020FEF7BCBF83
:1059F000FFF788BBFEF7B8BFFFF784BB2DE9F04F78
:105A000085B006F065FB8F4B1F78002F40F0B885FE
:105A10008D4D2B685A0540F1B3858C4B8C4CB3F8F7
:105A2000E08023788B4E002B00F08581326863681C
:105A3000D31A7C2B40F27F81237A62600133237278
:105A400007F12400DFF80892C0B206F031FB09F13B
:105A50000C0353F827000EF0CBF87F4B82461888D2
:105A60000EF0C6F8014650460EF0CAF97B490EF01A
:105A700013F90EF0D7FA013700B206F007FB032F37
:105A8000DED1302006F014FBB9F9180006F0FEFA5A
:105A900006F006FB99F808309B0732D141F28833B3
:105AA000D9F804209A4219D9102006F001FBD9F840
:105AB0001C00642790FBF7F000B206F0E7FA212003
:105AC00006F0F6FAD9F81C0090FBF7F307FB130079
:105AD0000028B8BF404200B206F0D8FA142006F001
