:020000040800F2
:1000000000A000209D4C0108054D01081939010888
:10001000054D0108054D0108054D010800000000CF
:10002000000000000000000000000000054D010875
:10003000054D010800000000054D010803AE000851
:10004000054D0108054D0108054D0108054D010844
:10005000054D0108054D0108FDAF0008FBAF000884
:10006000F9AF0008F7AF0008F5AF0008054D01082B
:10007000593F0008054D0108392D0108054D0108BB
:10008000054D0108054D0108054D0108054D010804
:10009000054D0108054D0108054D0108F3AF0008A5
:1000A000F9E2000839E30008E9E2000861E300082A
:1000B00029E3000819E3000809E30008054D0108D9
:1000C000054D0108054D0108054D0108054D0108C4
:1000D000054D0108312D0108292D0108212D0108A8
:1000E000F1AF0008054D0108054D0108054D010857
:1000F000054D0108054D0108054D0108054D010894
:10010000000000000000000000000000054D010894
:10011000054D0108054D0108054D0108054D010873
:10012000054D0108054D0108054D0108054D010863
:10013000054D0108054D0108000000000000000009
:10014000054D0108054D0108054D0108000000009E
:10015000000000000000000000000000000000009F
:100160000000000000000000054D0108054D0108D9
:10017000054D010800000000000000000000000024
:0801800000000000054D01081C
:100188002DE9F04F2DED108B95B00AF005FEB14B1F
:100198001B68C01A42F20F73984242F27D80AE4B40
:1001A8001B780E2B9DBFAD4A342101FB032300248D
:1001B80098BF9C6AAA4D0DA8EB6898479DF8343003
:1001C800DBB1A84CA84EDFEDA9AA0AF0E5FD23682B
:1001D8002060C31A3380A64BA648D3ED007AA64BFD
:1001E800F8EE677A67EEAA7AC3ED007A6B689847EB
:1001F8000996A04E00287AD00BE00AF0CDFD9F4B5F
:100208001B68E31A18449E4B1B6864339842D1D389
:10021800D7E79C4B304631461A780FF047F994F8E7
:100228000480B8F1000F67D1974FDFF878923B88C8
:10023800002B51D0A36F1B7808EE103AA9F148089B
:10024800A9F13C054FF0000A3988B1F57A7F02BF61
:100258000023C8F800302B61D8F8002036F91A308E
:100268001A4407EE903A2B69C8F800200133012B95
:100278004FEA4A0BF8EEE77A2B6173D10023C5EDFC
:10028800017AC5ED007AAB600023012926F80B300E
:1002980029F80B3040F08D802B69012BC3BF03F187
:1002A800FF3300EE103AD5ED037A9FED780AC4BF0C
:1002B800B8EEC00A87EE800A17F048FB18EE103A2D
:1002C800002B6CD0F8EEC87AB4EEE70AF1EE10FA1B
:1002D80065DD4FF47A733B80002336F8132039F834
:1002E8001310521A26F813200133032BF5D1684F47
:1002F8003B689D076FD4DAE36379C3B9604A126833
:10030800002A91D0A360A568564F022D0CDC07F196
:100318000C03242101FB053140469FED5C0A0135A1
:1003280007F0B7FEBD60EEE701237B717CE7002391
:10033800A360A5684B4F022D3FF776AF36F915300D
:1003480000EE103A242007F10C0300FB0530B8EE4C
:10035800C00A07F075FE17F073F826F81500013586
:10036800BD60E6E7D5ED006A07EE103A37EEE66ABB
:10037800B8EEC77A86EE077A36EE877AD5ED026A46
:1003880085ED017A77EEC77A85ED007AE6EE276A81
:10039800F0EE667AC5ED036AC5ED026A74E7D8F82F
:1003A80000304FF47A7203F5FA7393FBF2F329F8ED
:1003B8000B300AF1010ABAF1030F08F1040805F13C
:1003C80014057FF441AF3888012801D10AF094FC64
:1003D8003B88013B7FE72F4B1B78002B00F067839E
:1003E8000AF0DAFCD4F8CC30C4F8CC00C31A0FEE0B
:1003F800903A0025D4F8D0A01A4A9AF80030002B79
:1004080052D092F8D43002F1D8088BB1224B33F98C
:10041800153000EE103A242000FB0580B8EEC00A23
:1004280007F00EFE17F00CF81C4B23F8150041E0FE
:100438001D4608EB05019AF800009FED190A2435BE
:1004480007F027FE6C2DF4D1064B012283F8D42047
:1004580003252FE0E01A0020A603002090000020CA
:100468006821002030090020DC190020BD378635BE
:1004780018220020101A002000390020A423002090
:100488001422002098210020983C00200000000041
:100498009C2100207C3C00204C3C00200A1A0020B3
:1004A80000007A44F4090020C34B33F81520C34BED
:1004B80023F815200135022D9CDD3B68C04A13F056
:1004C800080F08D0B2F9001029B1B2F9021011B121
:1004D800B2F9041091BBBB49097801F0100000F093
:1004E800FF0580B313F020052DD001F0020303F0BF
:1004F800FF0543B3B44B1B78042B23D9B34B1B889C
:10050800B3F5967F1ED3B24BB3F9043007EE903A99
:10051800B04B1B88B8EEE77A07EE903AF8EEE77A28
:10052800B2EE048A87EE888A01254FF0000B77EE39
:10053800487A9FEDA98A27EE888A07E000254FF0C0
:10054800010B01E00025AB469FEDA48AB6F9003007
:10055800DFF86892B2F80080978808EE903AB6F90A
:100568000230F8EE6F7A09EE903A67EEAAAAF8EE32
:10057800E99AD4ED517AB6F90430568869EEA79A0B
:10058800F8EEE88A09EE103A68EEA78A29EEA90A79
:10059800B9F90030B8EEC99AA8EEA80A0CEE103ADC
:1005A800B9F9023029EE279A0CEE903AB9F90430DD
:1005B800A9EE090A0DEE103A17F0C8F9B8EECCCA40
:1005C800F8EEECCAB8EECDDAB0EE40EA15B3DFEDDE
:1005D800847AB4EEE78AF1EE10FA04DDDFED817A71
:1005E80038EE678AF3E7DFED807AB4EEE78AF1EE5A
:1005F80010FA04D5DFED7B7A38EE278AF3E7B6EEFA
:10060800000A28EE000A07F0C6FF9FED74BA30EE24
:100618000BBA01E09FED71BA9FED70AADFED73DAB6
:10062800734DF7EE00BABBF1000F53D00FFA88F8FC
:1006380007EE908A33B2B8EEE7FA08EE103A2FEEDA
:100648000F0AB8EEC88A3FB207EE907AA8EE080AF9
:10065800F8EEE7EAAEEEAE0AB4EEED0AF1EE10FA05
:1006680038DD17F073F98BEE800AD5ED017A95ED38
:10067800007A28EE008A2FEE00FA68EE277A6EEEEE
:1006880080EAE7EE0F7A95ED040A95ED027A28EEF6
:10069800008AE7EE2E7A95ED037AA7EE0F8A95ED9C
:1006A800057AA7EE2E8A28EE080AA7EEA70A17F001
:1006B8004DF9D5ED067A20EE480AB0EE4A8AA7EE43
:1006C800808AD5ED077AA7EE80AAD5ED087AA7EE3D
:1006D80080BA01E0B0EE4A8A2CEEAC0AACEE0C0A05
:1006E800ADEE0D0AB4EEED0AF1EE10FA21DD17F0C9
:1006F8002DF98BEE800AD5ED076A95ED087A2DEE77
:1007080000DA6CEE80CA66EECD7A2CEE00CAECEE0A
:10071800877A27EE4C7A38EE278AD5ED067AADEE41
:10072800277A67EEEC7A3AEE07AAECEE267A3BEEE9
:1007380027BADAED017AF5EEC07AF1EE10FA4FF049
:1007480000031FDD9FED2B7AB4EEC7EAF1EE10FA35
:100758001ED567EE886A94ED527AA6EEAA7A67EEFD
:100768008A6A84ED527A94ED537AA6EEAA7A67EEF5
:100778008B7A84ED537A94ED547AA7EEAA7A84EDB5
:10078800547A05E0C4F84831C4F84C31C4F8503103
:10079800194EDAED027A3378580731D4174B1A68B4
:1007A80044F61F639A42F7EE006AB2EE047A88BFF5
:1007B800B0EE667A26E000BF4C3C00200A1A002002
:1007C800161A0020681A0020691A0020761A0020DC
:1007D800481A0020781A002035FA8E3C00000000E4
:1007E800DB0F4940DB0FC940DB0F49C00AD7233C68
:1007F800B8200020C2B8B23EA03C00203C27002010
:10080800B7EE007A27EE877AD4ED527ADFF8448380
:10081800BF4AD8ED005ADFF840B392ED005ABD4FF9
:100828000492E7EE087A97ED006A9FEDBB8A78EEAE
:10083800A78AD4ED537AE7EE0A7A79EEA79AD4ED2F
:10084800547AE7EE0B7AB1EE467A39EE279AF6EE4D
:10085800007A6AEEA77A69EEA79A29EE279A69EED6
:10086800E56A25EE890A68EEA78ADBED007AA5EE2F
:10087800280AE7EEE86AA7EE290AE7EE096A29EEF0
:10088800677A37EE800AA5EE297A67EEA97A75EEBF
:10089800266AA6EE287AE5EE097A8BED000A20EEA4
:1008A800000A35EE877AA6EEA60AE5EEE87AA7EE04
:1008B800070A76EE277AC2ED006AA7EEA70A88ED46
:1008C800007AC7ED007A17F041F88BEE800A049A97
:1008D800D2ED007AD7ED00BA67EE807AC2ED007AE1
:1008E800DBED007A67EE807ACBED007AD8ED007AFE
:1008F80067EE807A2BEE800AC8ED007A87ED000A51
:100908000AF0EAFDD5ED080A95ED070A834F16F0BF
:1009180079FE20EE080A16F093FD95ED060A388058
:10092800B1EE400A16F010FEDFED7D7A37EEC00A10
:1009380020EE080A16F084FDD5ED000A95ED030AAD
:10094800788016F05FFE774BD3ED007AE0EE487AB8
:10095800B0EE670A16F074FD83B2190458BFBB8065
:10096800D5ED085A704BD4ED557A1A7895ED010AF1
:1009780095ED065AF4EEE75A44BF00F56160B88079
:10098800F1EE10FACCBF42F0080222F008021A7009
:10099800B9F90030D5ED007A06EE103AB9F902300F
:1009A80007EE103AB8EEC77AB8EEC66AB9F904305D
:1009B80027EE000A06EE903AA7EE860A9AF801306A
:1009C800F8EEE66AD5ED027AA7EEA60A012BD5ED78
:1009D800077A67EE277AE5EE067AE5EEA67AD5ED90
:1009E800045A27EE257AD5ED035AA5EE867A95EDB9
:1009F800056AA6EE267AF1EE478A18D133785A07A7
:100A08000FD4D4F85831402293FBF2F29B1A07EE28
:100A1800103AB8EEC77A37EE277ABDEEC77A84ED7A
:100A2800567AD4F85831402293FBF2F301E03F4B59
:100A38001B8894ED578A3E4D07EE103AB8EEC77AF8
:100A480077EEC77A94ED587A3AEE877A77EEC87AD5
:100A5800CAEE87AAAAEEA78A84ED578A16F0F0FC98
:100A6800D4F86461317807F087FD2B68B0EE680A26
:100A78001844286016F0E4FC317807F07DFD6B68B7
:100A8800B0EE480A1844686016F0DAFC717807F08E
:100A980073FDAB68274A18441FEE901A1368A860C4
:100AA80019441160244A13680133136004E0234B8E
:100AB80000221A805A809A80214A2249137809789C
:100AC800994203D00133137001F0E6BB0123137080
:100AD8000AF062F9D4F868311B4AC4F86801C31AED
:100AE80053801A4BB3F90620194B1E68708982424D
:100AF80034DBB2F5FA6FF179BDBF131A4B43A0F599
:100B0800FA61C1F16401BCBF93FBF1F1643126E0E5
:100B180028000020B42000204C3D0F44481A002033
:100B2800DB0FC93F28220020681A00200800002097
:100B3800C8230020843C0020C42300204C3C002013
:100B48000000002010220020D61A0020542900207E
:100B5800641A0020B0200020AC20002064219048B6
:100B6800904B0068B3F896C1049093F95E318E48B3
:100B78008E4C076898B25B4205EE903A069007F0F3
:100B8800807700208A4B33F91080CCEB080505F2FA
:100B9800F31940F2E63EF1459ABF85EAE573A3EB07
:100BA800E5734FF4FA730228049D49D095F819515A
:100BB8001DB1AB42CCBF5B1B00232FB307EE903AAD
:100BC80073789FED7C6A06EE903AB8EEE77AF8EE15
:100BD800666ADFED797A87EE066AC6EEA76AF7EEEF
:100BE800007A77EEE67A26EE065A66EE277A25EE42
:100BF800066AE6EE867A67EE277AFDEEE77A17EE62
:100C0800903A238001F01DBBDFF8BCB16FF0630997
:100C18004FF0640A93FBFAF53BF815E009FB05333E
:100C280001350FFA8EF93BF91550C9EB050505FB9F
:100C380003F999FBFAF9CE44A4F800E001F001BBEE
:100C480095F81A511DB1AB42CCBF5B1B0023DFF8EE
:100C58005C914FB307EE903A337A9FED577A9FED48
:100C6800556A06EE903AF8EEE77AF8EE666A87EE8D
:100C7800866AC6EE876AB7EE007A37EE667A26EE9F
:100C8800065A26EE077A25EE066AA6EE867A67EEFB
:100C9800877AB8EEE57A67EE877AFDEEE77A17EE9F
:100CA800903AA9F804301DE0DFF818E16FF0630B03
:100CB800642593FBF5F50EEB450A0BFB05330EEBAC
:100CC8004505BAF96CA1B5F96E51CAEB05056B4338
:100CD80093FBFBF3CAEB030ABDF818301AFB03FABF
:100CE800A9F804A0354B6425E0459D7008DA2388EF
:100CF8005B4223800130032804F102047FF442AFF1
:100D0800284CB4F89801824205DBB2F5FA6FA8BF07
:100D18004FF4FA6200E00246294F4FF47A73121A30
:100D28006FF063065A434FF0640EC0F5FA63B2FBE6
:100D3800F3F292FBFEF537F8151006FB0526013590
:100D48000BB237F91520194DD21A02FB06F393FBA3
:100D5800FEF30B449BB2EB801BB207EE900A07EE42
:100D6800103AB4F89A31F8EE676A07EE903AB8EE9E
:100D7800C77AF8EE677A37EE667A77EEE67AC7EEE4
:100D8800277AF5EEC07AF1EE10FA23D49FED0A7AAD
:100D9800F4EE477AF1EE10FAC8BFF0EE477A1BE09E
:100DA8002C1A0020102A002030270020EC380020C0
:100DB800542900200000FA430000C842FA380020F5
:100DC8006E1D002030090020B81E00200000000021
:100DD800CDCCCC3D5FED037A1FED037AB84BF4EE32
:100DE800C77AF1EE10FAC3ED007A0DDDB54B1B782A
:100DF8005B0709D5B44B1B689F0005D5B34B1B781F
:100E080013B9B34B01221A70B24B1B885E0639D551
:100E1800B14BDFEDB27AB3F904300A2293FBF2F357
:100E2800AF4A12889B1A1BB208EE103AB8EEC88A6D
:100E380028EE278AB0EE480A07F00EFCF0EE408A4A
:100E4800B0EE480A07F0A7FBB5F9023006EE903A73
:100E5800B5F90030F8EEE66A07EE903A20EE667AC9
:100E6800F8EEE77AA7EEA87A67EE807ABDEEC77A41
:100E7800E6EEA87A17EE103AFDEEE77A2B8017EE29
:100E8800903A6B8094F89C31002B71D0954E96F86F
:100E98007C31B6F87A814BB9012006F5C0719FED17
:100EA800920A07F0F6F8012386F87C31099B8D4FEA
:100EB8001B8800EE103A07F5C070B8EE400A07F03C
:100EC800BFF8BCEEC00A8DED040ABDF81030B8FBBF
:100ED800F3F0864B00F1010E1B781FFA8EFEA6F880
:100EE800A4E11BB3B7F8A69100217E4E35F811C0D6
:100EF80006F5D87706F5D47837F8113038F8112088
:100F080027F811C0C3EB0C0A12FB09F20FFA8EF393
:100F180092FBF3F3534428F8113001310429E4D14A
:100F2800724BA6F8A60100221A7004E0B7F8A631A1
:100F3800013BA7F8A6316B4AB2F8A60103B2002B11
:100F48004FF0000312DDB2F9A461694931F81320AA
:100F5800083112FB00F231F8131092FBF6F28A1AEC
:100F680025F813200133042BEFD101E0A2F8A631B4
:100F780094F89D31002B6BD0564A1288500667D4DE
:100F880007EE903A9FED557A5A4C5B4DF8EEE77AAA
:100F980067EE877A17EE900A12F0CEFF41EC100B3D
:100FA80041EC180B16F068F9B4F900005BEC10ABD3
:100FB80012F0B0FFB0EE480AF0EE680A06460F4697
:100FC80016F0AEF9B4F904008DED040B12F0A2FF8F
:100FD8003246804689463B465046594613F000F84B
:100FE80042464B46CDE90601DDE9040112F0F8FF5F
:100FF80002460B46DDE9060112F040FE13F002FA44
:10100800B0F5FA7FA8BF4FF4FA70A842B8BF2846D7
:1010180042464B4620805946504612F0E1FF324680
:10102800804689463B46DDE9040112F0D9FF0246B5
:101038000B464046494612F021FE13F0E3F9B0F59D
:10104800FA7FA8BF4FF4FA70A842B8BF2846A0801C
:101058001C4B2A4C1A781C4E12F0040F03D00120A6
:101068000EF0CCFC67E03168C9075CBF42F00102B2
:101078001A70234A2349127817075EBF1A7822F09C
:1010880001021A70226812F0040F02D01E4800886C
:1010980078B91E48008808B195070AD41C4A1288F6
:1010A800003218BF012222B91A480088B0F57A7FA9
:1010B80032D902220A701A7822F001021A7031E03D
:1010C8007C390020A03C0020E41900200300002007
:1010D800A73C0020E0190020481A002035FA8E3C71
:1010E800B21100203009002000000000401200204A
:1010F800D80A0020EC3800200CFEFFFF9C210020BD
:10110800681A0020642700209A3C00206C110020F7
:10111800983C00208A3A00201B78D80756BF022343
:101128000A700B7009F038FE934B1B68C01A002830
:1011380001DB0EF015FB914B9B680BB1904898476B
:101148002168904B904FDFF88882012211F0080F38
:101158001A7045D08D4A8E48958805F10E039BB2CA
:101168001C2B8C4BB3F9043036D8DFF834E2BEF8C8
:1011780000E01EF0040F2FD000884FF00A0E93FBFA
:10118800FEF31B1A9BB21FFA83FE0FFA8EF0B330E0
:10119800BCBF03F5B4731FFA83FE0FFA8EF3B32BAB
:1011A800C4BFAEF5B4731FFA83FE7B4B97F85E019C
:1011B8001B781B0714D540B240421EFB00F3D8F839
:1011C8000000407A9BB213FB00F36FF01D0093FB05
:1011D800F0F31D44958003E00A2293FBF2F30380A9
:1011E80011F0140F6D4D77D06D4B1B8803F402730B
:1011F800002B71D0684B65491B7803F0100303F08E
:10120800FF0C4BB1674B97F9F021B3F900004B88FD
:1012180000FB02334B805FE0D5F8BC31624AD878D6
:10122800DFF8B0E19B7838B3BEF90000B2F906E008
:10123800C0EB0E0989EAE972A2EBE9729A420EDD67
:101248005A4A8645C2F800C04FF0010285F8C0210D
:10125800C8BF5B42CA889BB21344CB803CE095F878
:10126800C0312BB1524B85F8C0C11A68514B1A6076
:101278004C4B1B68034424E0BEF900E0B2F9062099
:10128800CEEB020282EAE27CACEBE27C9C450ADD12
:10129800022392FBF3F2484B1A60484A0123137069
:1012A80085F8C0310AE095F8C0313BB1404B85F86C
:1012B800C0011A683F4B1A60404B1870394B1B68C5
:1012C8007344D5F8C40102884088934203DB834203
:1012D800A8BF03461A46CA80394B1B78B3B1324BB4
:1012E800B3F90620B7F898319A420FDC264B5B79A0
:1012F800012B01D0192B02D197F8EA2132B90E2B14
:1013080004D0082B1EBF214B00229A80D8F8003049
:1013180093F82091B9F1000F63D0214B1B889907EE
:101328005FD0284BDFED287A93ED080AB4EEE70A80
:10133800F1EE10FA50D916F007F9D5ED727A20EED1
:10134800270A16F07DF8B0F5617FA8BF4FF46170E9
:1013580007EE900AB8EEE70ADFED1C7A80EE270A5E
:1013680007F019F907EE909AF8EEE77A27EE800A67
:1013780016F066F880B230E0682700206821002067
:10138800E80A002041120020102A0020EC38002032
:10139800B0110020481A0020681A002030090020E7
:1013A800E0190020EC23002054290020E823002025
:1013B800501A0020901A0020883C0020F0230020BA
:1013C80003000020B82000208FC2753CEFB6B0445F
:1013D8002C1A0020421200200020C64AD388184444
:1013E800D08023689A0640F1A280C34B1B8803F083
:1013F8003003002B00F09B80C04B1B78DB0740F1CB
:101408009680BF4BDFEDBF7AB3F90430DFF83C9329
:101418000A2293FBF2F308EE103AB8EEC88A28EED7
:10142800278AB0EE480A07F0B6F8F0EE408AB0EE28
:10143800480A07F011F9B44BB44A1B68D978B0EEE2
:10144800409AB2EE048A00294DD0B14CB2F902009C
:10145800B4F802A006910FFA8AF3C01A049206F0B3
:101468000DFA0699049A4B429842A34603DB884238
:10147800A8BF084600E018465044BBF80040069351
:101488001FFA80FAB2F90000049122B2801AABF870
:1014980002A006F0F3F9069B984204DB04998842FF
:1014A8000346A8BF0B461C44A4B2ABF8004024B2C4
:1014B80007EE104A0FFA8AFAB8EEC70A07EE90AAA2
:1014C80028EEC07AF8EEE77A20EE090AA7EE897AC4
:1014D800A7EEA80A87EE087ABDEEC77A17EE103A8B
:1014E800A9F800301BE0B2F9023007EE103AB2F961
:1014F800003000EE103AB8EEC00AB8EEC77A68EECF
:10150800C07A20EE090AE7EE097AA7EE280AC7EEA4
:10151800887AFDEEE77A17EE903AA9F8003080EE67
:10152800080AFDEEC07A17EE903AA9F80230794B16
:101538001B785BB1784B1B7843B9784A13605360CA
:101548009360774B00221A605A609A60754BD8F8FE
:101558000000B7F86C210093734B1C68734B196833
:1015680000F16003A047724B7249DB780493724B19
:101578001C78032C19D9D5F8CC315F88B7F5FA7FD8
:1015880013D25C4BB1F904E0B3F9040080EAE07CC3
:10159800ACEBE07C7A42CCEB02039E4504DB07EB24
:1015A8000C037345A8BF73468B803368634A13F0F6
:1015B800006F0FD01668B1F802E0B1F800C0B1F9B9
:1015C8000490D5F8CC815E4D002106F480560A4679
:1015D800084685E0136813F01D03EBD1594A4E887D
:1015E8001370444A0F88D088D5F8CC51B1F904104B
:1015F800554A9E46A64502F1100280F0978195F95A
:10160800003052ED045ADFF848C15B424B4307EE05
:10161800903A3BB206EE903A03B206EE103A33B275
:10162800B8EEE77A07EE903AF8EEE77AB8EEC66ACF
:1016380067EEA57A52ED065AE6EE257AF8EEE66AE6
:1016480012ED056AE6EE867A52ED036AE7EE267A2F
:10165800FDEEE77A17EE903A2CF81E300EF1010EE7
:10166800C8E798F9003095ED016A5B4209FB03F37E
:1016780007EE903A0FFA8EF306EE903A0FFA8CF3D3
:10168800B8EEE77A07EE903AF8EEE77AF8EEE66A0F
:1016980067EE867A95ED026AE6EE867A0DAFD5EDAD
:1016A800036AE7EE267AFDEEE77ACDED067ABDF815
:1016B800183027F8103036B11BB24FF0020A93FBEE
:1016C800FAF327F810300DAB0FFA82FA33F810301E
:1016D8001FB2574507DD1A460B460130103519462B
:1016E800A042BED336E00FFA81FA5745F5DB134620
:1016F800F1E700BFEC380020E0190020681A00204C
:10170800481A002035FA8E3CB81100203C120020FF
:101718003812002005000020A73C0020E0380020F7
:1017280058390020982B00209C030020641A0020C0
:10173800402700202C390020101F002030270020CF
:10174800000B0020A83C0020080B00209C3C002037
:10175800301A0020B04EB14D3368EF88B048521AA5
:1017680013F4805F92B225D0AE4B1B68B3F804E047
:10177800D9880FFA87F8C1EB0E0CE045DFF8A8C24C
:1017880005DCB3F800E0036801211B8807E0714419
:10179800884501685B88B1F802E003DB00218CF81A
:1017A800901200E01F46ACF892E2ACF89432ACF824
:1017B800967203E001680B88B1F802E0DFF88492C2
:1017C8001FFA8EFE9BB2C3EB0E081FFA88F812B2FE
:1017D8000FFA88FC62454FF0000118DD4FF0010E4A
:1017E80089F800E0A1420BD20DF1340939F811E073
:1017F8001EFB08FE9EFBF2FE29F811E00131F1E71D
:1018080002229CFBF2F213449BB29A460AE089F842
:101818000010022192FBF1F21344C2EB0E029BB2BC
:101828001FFA82FA36680168B5F906C006F0100298
:1018380006927D4AD2F8988292F890220A92794AC2
:10184800D2F80090794A127802F00402D2B206F473
:1018580080500B92764A09900025A54266D20DA8C1
:1018680030F9150007EE900A38B207EE100A7148F1
:1018780000EB0510F8EEE76AB8EEC77AD0ED007A0B
:1018880018B227EE277A07EE900AF8EEE77AB4EE58
:10189800E77AF1EE10FA0CD40FFA8AF007EE900A04
:1018A800F8EEE77AB4EEE77AF1EE10FAD8BFF0EE88
:1018B800477A76EEA77AFDEEE77A17EE900A22F8D5
:1018C800020F069828B1B8F810008445BCBF888874
:1018D8001080049EB2F9000016B1B1F804E00DE0E2
:1018E800099E4EB10A9E26B1B1F800E0B9F800B0E1
:1018F80006E0B9F802E001E0B1F800E0B1F802B0A2
:10190800704503DB5845A8BF584686460698A2F896
:1019180000E048B10B9838B1099828B9B8F8100018
:101928008445BCBF88881080013596E73F490A780E
:1019380002F0040202F0FF038B4612B93E4A127805
:1019480082E03E4BD3F800C01CF0006F08D0364848
:1019580090F89C32013BDBB2182B00F294817DE0B9
:101968002D4B1D6815F01D02F1D115F48059324F29
:10197800334E15D133883A780121914218B207D2F3
:1019880036F911308342B8BF03469BB20131F4E700
:10199800234A126852889042C6BF9A1A92B200220D
:1019A8001E4B3F78B3F906001F4BD3F898821D4BA6
:1019B8001C681B4B1968224B06EB4706B342C6D07E
:1019C800B9F1000F03D11F88BF1A1F8003E01CF074
:1019D800205F00F03D84049FB1F802E0B3F900A055
:1019E8003FB18F88BA4513DBF2455746A8BF774603
:1019F8000EE00F88BA4503DBF2455746A8BF774685
:101A08001F80B8F81070B84203DAEF0601D58F8846
:101A18001F800233D2E700BF30270020542900205E
:101A2800302000202C20002030090020A03C00207D
:101A38002E1A0020000B0020101F0020E41900209F
:101A4800301A0020A83C0020934280D2C24931F8C5
:101A58001300C24921F813000133F5E701229A4027
:101A6800BF4B1340002B00F00E81BE4BBE491B88B4
:101A780013F4807F08D0BD4B1A88ADF834205A88FB
:101A8800ADF836209B8815E0B94B1A88ADF834209C
:101A98005A88ADF83620B74A9B881268ADF83830B6
:101AA800D40409D5D0F89822B1F90640D2899442D5
:101AB80002DA5B42ADF83830AF4DB5F902304FF479
:101AC8007A7203F5E16353434FF4616493FBF4F3D3
:101AD800A3F5FA73ADF84C30B5F9003003F5E163BE
:101AE8005A439E4B92FBF4F21B88A3F2DC53A2F5F7
:101AF800FA72ADF83A30D0F89832ADF84E20DB895A
:101B08000A88D21AADF83C204A88D21AADF83E208D
:101B18008A88D21AADF84020CA88D21AADF8422075
:101B28000A89D21AADF844204A89D21AADF846205B
:101B38008A89D21AADF84820CA89D31AADF84A3032
:101B480000238E4A002122F813100133082BF8D104
:101B58008B4A8C4B126804928B4A1B7812688B490B
:101B680006928B4D072202FB0318414572D00B7871
:101B780033B103F1150201239340049A134065D051
:101B880011F806EC069B11F805AC11F8034C11F896
:101B980001CCCEEBCE0703EB47076420B7F9002052
:101BA800B7F902309B1A9BB211F9022C4FEA53097C
:101BB8005A434FEA4A0692FBF0F214A8C9EB020214
:101BC80092B2064414B936F81C0C0CE0B5F90000C2
:101BD80036F91C6CB04208DA0444844203DBA6429E
:101BE8003046A8BF2046288008E007DD041BB44221
:101BF80003DB8442A8BF044626462E80D7F80A4055
:101C080011F9046C012000FA0AF02042288812B267
:101C180016FB00F014BF4FF0FF340124642690FB3C
:101C2800F6F090420ADB4FFA8CF25A4392FBF6F236
:101C3800C9EB020212B28242A8BF02464F4B33F8E8
:101C48001E9002FB049423F81E4000E02B8002350E
:101C580007318AE74C4B4F4E1F6800250E2202FBC6
:101C6800057236F8023F92F90640E8B214FB03F316
:101C7800642493FBF4F4348009F014FC0135204407
:101C8800082D3080EAD13B4F3C4D3B683E4E13F067
:101C9800200F32D0002009F005FC288004460120DE
:101CA80009F000FC364B68801B68190625D53A4BAD
:101CB800314AD3F8C0321B78012B22D131681388FE
:101CC80091F914E0B2F902201EFB03F34FF0320C35
:101CD80093FBFCF31FFA83FE91F906305B425343F2
:101CE8006FF0310193FBF1F10EEB0102A11893FBA8
:101CF800FCF37344298018446880D6F800E0002378
:101D080018E0D6F800E053889EF9061011FB03F19D
:101D1800322391FBF3F12144298011889EF9142084
:101D280012FB01F292FBF3F21044E5E70133082BB2
:101D38002A5333D00E2101FB03E135F91300B1F921
:101D48000020B1F9021090424FEA4304EEDB0AB2D8
:101D58008242A8BF0246E9E7E4200020301A0020AA
:101D680099209801E019002054290020EC3800201F
:101D78002C39002030270020481A00201C1A002087
:101D8800E419002034200020402100203B200020BE
:101D9800CE0B00201A1A002030090020AA4CD4F8D3
:101DA800CC9199F90830A3B994F89C8208F1FF33D3
:101DB800182B72D8DFE803F03571714F71717148D3
:101DC80071717171715971717171714F6571715959
:101DD8003500DFF894A24FF000089C4B3AF9021F37
:101DE800B9F90620882000FB083009F08DF932681F
:101DF8000E2380B203FB0822AAF80000B2F90030D3
:101E0800B2F9022000B2984203DB13B28342A8BFA2
:101E1800034608F10108B8F1080FAAF80030DCD130
:101E2800C2E799F8043013B10020698908E09BF8EB
:101E3800003003F0040303F0FF00002BF4D1014647
:101E480002F07AF8012629E00020E98802F074F807
:101E58000120298905E00020298902F06DF86989A7
:101E6800012002F069F8022618E00226B01E35F8B3
:101E78001610C0B2013602F05FF8082EF6D1062619
:101E88000CE00326F01E35F81610C0B2013602F039
:101E980053F8072EF6D1042600E000263B689A0680
:101EA80002D4B8F1050F0AD13046298802F044F867
:101EB800701CC0B2698802F03FF80236F6B23B687F
:101EC800DB0205D494F808377BB109F035FA0CE049
:101ED800DFF8988100257019C0B238F8021F02F0A7
:101EE8002BF80D2DEED00135F5E7594B1878002861
:101EF80040F0D2813B681D0340F1CE8194F8093748
:101F0800023B052B20D8534B93F8FE3733B1012BF6
:101F18000AD105F0AFFFC0F17F0005E04A4BD3F8C6
:101F28000C0703689B689847D4F8103794F814276F
:101F38001344B3F5807FA8BF4FF480738342D4BFA6
:101F4800C4F81037C4F8100794F80937023B082B77
:101F580000F27081DFE813F009003F0061008C0097
:101F6800A500B700340152015F013B4B1A68D4F851
:101F78001C3764339A4240F25D8140200EF0A2FA89
:101F8800002840F057814027344BD4F818272E4EAC
:101F9800985C1D4670B109F0ABFBD6F81037013BD1
:101FA800C6F81037D6F81837013F03F10103C6F811
:101FB8001837E9D1D4F81827234BAA5C002A40F037
:101FC8003981C3F818274FF0FF32C3F81C270322C2
:101FD80083F809272EE129230093214B019303F16C
:101FE8000C0202924920A3F10A025021023309F09F
:101FF8006BFF002840F01E813B6813F080034FF010
:10200800FF3205D0C4F81807C4F81C270423D4E00D
:10201800C4F81837C4F81C2741E0124A02230021EB
:10202800009301910291482002F1080309F04CFF46
:10203800002840F0FF804FF0FF33C4F81C37C4F885
:1020480018070523B9E000BF30090020F80B00206D
:10205800A23C0020102A00203C2700208CA6010862
:10206800F6A60108D8A801081A1A00205A29002043
:10207800072300938B4B019303F10C020292472034
:10208800A3F108020021043309F01EFF002840F0E4
:10209800D1804FF0FF33C4F81807C4F81C37062363
:1020A8008BE0814A0523002100930191029153207E
:1020B80002F1080309F008FF002840F0BB80C4F8CB
:1020C8001807072379E040200EF0FCF9002840F0BB
:1020D800B180D4F818370C2B66D8DFE803F0070B6B
:1020E8000E1219252A2F3337455054006F480EF029
:1020F8006BFB53E06E486F4913E06F486F49704AB5
:102108004AE0704B704893F8FC1793F8FD2743E0BA
:102118006C4B6E4893F8D0270E2101FB023393F8DD
:10212800D2170EF051FB39E0664B6948B3F84011FD
:10213800F7E7644B6748B3F84211F2E7664B674824
:102148001969EEE7664B67481988EAE7D4F820373B
:10215800D80404D55B4B644893F87A11E1E7634BE4
:102168000B22C3F8182719E0564B614893F87E11E3
:1021780093F87F2193F87D310EF026FB0EE05D4841
:10218800B4F82417CDE73B68190507D54D4B5A48D5
:10219800B3F88211B3F980210EF016FBD4F8183782
:1021A8000133C4F8183745E00EF0ECF9002841D0A7
:1021B8004FF48053A4F82637092384F8093739E007
:1021C8004E4B1B689A0116D5B4F82837474D93B97A
:1021D800D5F82C370D934A4B0E201B680E930DA98A
:1021E80009F070FB4FF48053A5F82637092385F8CA
:1021F800093709F0BFFB09F047FB1BE094F83037BB
:10220800002BF6D03D4B1B689B01F2D4374B0822BC
:1022180083F80927EFE73B4B1A68D4F81C37C83313
:102228009A4203D90EF094F90123C6E70EF0AAF9F1
:102238000028F7D10EF076F970B3012384F8093736
:102248002AE0314BE0451954FEF651ADFEF752BD78
:10225800B8F80E70B4F806E0CEEB070A504502DD78
:10226800BE44704512DBB842B3F900E0CBBF6788C3
:102278008F88B1F802A0B4F800A0BE45FFF6C8AB3D
:10228800D6457746A8BF5746FFF7C2BBB842CCBF72
:1022980067882788FFF7BCBB15B0BDEC108BBDE87D
:1022A800F08F00BFF0A801083CA9010868CD01081B
:1022B80082CD010897CD01089FCD0108B3CD010853
:1022C800BFCD0108102A0020C8CD0108D9CD0108CA
:1022D800E3CD0108F2CD01086821002001CE0108F4
:1022E8000800002011CE01081BCE0108300900208B
:1022F80028CE010841CE01084CCE0108E41900207F
:10230800A42300203C270020FA3800202DE9F04FB4
:10231800A44FA54C3A6802F59C432DED028B20335F
:102328002360A24B1E7887B0D6B1A14909688A42BA
:1023380040F20A81013E1E7006E1DFF894829D4852
:10234800D8F80030072D98BF595D9B4B88BF2946A8
:102358001B689847032D09D904EB45050136A88069
:102368000DF094F9F5B28542E7D322E0D8F80020C1
:1023780005F1100302EB830E32F82310BEF8022099
:102388000028E9D04FF47A73401A5843531A90FB47
:10239800F3F040F6C90300F57A70984205DC40F284
:1023A800EE239842B8BF184601E040F6CA0080B252
:1023B800D2E7824B824E1B68D6F8008042F2010AAF
:1023C80003EA0A0ABAFA8AFA4FEA5A1A7D4BBAF1AC
:1023D800000F05D194F828201A707B4A51781170A3
:1023E8001B782BB1784B93F8009089F0010900E035
:1023F80099460F23DFF8F0B184F8293000250DF055
:1024080045F9854267DA6B00B9F1000F03D06F4ACE
:1024180032F8150000E048466D4ADFF8D0C111686F
:10242800CA8A82424FEA850E6A4A02D8098B8142DB
:102438001CD25CF80E005C49804501D2D05A19E0E4
:10244800E8B202928DE80A000DF038F9032D019BDD
:10245800029A0FDC00994FF0010E91F829C00EFA8C
:1024680005FE2CEA0E0E81F829E003E008F59671C6
:102478004CF80E10BAF1000F28D194F8BC100322C2
:10248800B1FBF2F202EB42028A1A03EB050E5EFA86
:1024980082F204EB4202508594F8BD202AB9022941
:1024A80013D9414A012182F8BD10BBF800203BF83E
:1024B800020C1044BBF802201044474A80B2D052A4
:1024C80000B2032290FBF2F080B2424AD0520135AA
:1024D8000BF1060B93E794F82920404BA2F10F016A
:1024E8004A424A4184F8D6206AB13D4A12685201EC
:1024F80009D43268D9689A60521AC82A1FD90122A9
:1025080083F821201BE0304A012151701170326894
:102518009968DA605B68521A9A4282BF2F4B002290
:1025280083F8212000250DF0B1F8854207DAE8B2DA
:102538000DF0C4F8274B23F815000135F3E794F89C
:10254800BC30013384F8BC301C4B1A6812F4805F2D
:10255800984605D0224B1B68DE0701D411F09EF97E
:102568001B4B39681868837A002B41D0013B194D01
:10257800027B35F813301AB1C3F53B6308339BB2BD
:102588001BB2A3F57A73B3F57A7FA8BF4FF47A73B9
:1025980023EAE37307EE903A9FED127AF8EEE77AB2
:1025A8005FE000BFA423002064100020382700202B
:1025B80034270020283200208800002030270020FF
:1025C8003C2700206C1E002001000020681000201D
:1025D8002C27002054290020221100204027002009
:1025E800E419002000007A4490100020D810002040
:1025F800D8F80020150440D5D4F8D820934E8A1A6C
:10260800002A3ADB01F59C422032C6F8D820904ACD
:10261800C07A55798F4A32F8152096F8DC50013582
:1026280092B292FBF0F205F00F0086F8DC0030441D
:1026380080F8DD201A468848185C01330244102BC4
:1026480092B2F8D112B292FBF3F31BB2642BA8BF7B
:10265800642323EAE37307EE903A9FED807AF8EE5D
:10266800E77AC7EE877A7E4A9FED7E7A67EE877AA9
:10267800FCEEE77A17EE903A1380D8F800307A4DDE
:1026880013F4807F00F00981784BDFF8E4919942D8
:1026980005D999F8022012B9012289F8022099F87F
:1026A8000220002A00F0F980714A2F7892F8216000
:1026B800704A701E464211684641002EC1F380637D
:1026C800C7F380070093924614BF4FF0000B4FF0FA
:1026D800030B99F82020052A00F2D980DFE802F0E0
:1026E800034D527584A1002F3AD0D4F8F000B4F805
:1026F800F41008F0A6FA012809D15F495F4A096871
:102708001268C988642000FB0122C9F81020009BC8
:102718006BB1594A126812794AB111F07DFA032255
:1027280089F820204FF47A72C9F81C20D1E7002ECE
:1027380040F0AD80514AD9F8101010684C4A8842D0
:102748000AD9019211F068FA019A032182F820103F
:1027580040F6B831D161BCE7012182F82010B8E712
:10276800009B4FF4806013B105F08EFF01E005F087
:102778007BFF0022C9F8102089E0002E46D111F015
:102788004BFAA6E726B1052289F82020012000E0AF
:10279800304667B1D4F8F020D189394A1180518088
:1027A8009180354909684988D1804FF0020B334A36
:1027B8001168D9F81420914201D8002F64D147F24A
:1027C8003052C9F81C20032221E02A7842F0020284
:1027D8002A7011F063F8294AD9F81C1012680A44C3
:1027E800C9F81820042212E0244A9EB11168D9F8C9
:1027F800182091424BD9234A92781AB9DAF8002066
:10280800D10744D42A7822F002022A70052289F8D6
:1028180020205EE71268D9F81C100A44C9F818206D
:1028280035E01549154A09681268C988642000FB13
:102838000122C9F810204FF48060002289F8202076
:1028480089F8032005F010FF43E700BF641000205B
:102858008426002094260020411100200000C84250
:102868005C1A002000C07F44A03C0020404B4C0074
:1028780040270020E4190020803C00203C2700204D
:10288800542900200100002000287FF422AFBBF16A
:10289800000F02D0584608F02FFAA34E06F5C47070
:1028A800B6F84E1108F0CDF9814670BB9F4B1F68F2
:1028B80017F0006A09D09E4BDB7833B90AF0C8FDDF
:1028C8009C4B012818BF002018702B785A070ED58A
:1028D800D8F80030DB060AD4BAF1000F02D0944BC6
:1028E800DB7823B907F02057B7F1205F2ED0924B41
:1028F8008F4A1B6803F57A730121C4F8F8308D4BB1
:102908001171D17000221A7020E0D8F80030884F79
:1029180013F0100F15D12B78580712D5834B1B686D
:1029280019010ED5FB7863B1834B1A68D4F8F830D7
:102938009A4209D90AF08CFD30B97E4BF8701870AC
:1029480002E07C4B00221A7000233B712B785A0757
:1029580036D5D8F80030DB0632D5784B1B78DF0641
:102968002ED4734B9B7893B196F8E431B9F1000FEC
:1029780015D17BB1704B1A68D4F8FC309B1A002B28
:1029880008DA10F08BFF6E4B83F8009118E0B9F16C
:10299800000F0DD1102008F0AFF901230EE03BB174
:1029A800654A12684FF47A7101FB0323C4F8FC30BE
:1029B80094F8003123B108F089F9002384F8003134
:1029C800002296F8E2B196F8E311B6F898E1B6F865
:1029D8009AC113465B4F009737F912009B08704560
:1029E800C4BF63F07F03DBB201326045B8BF43F078
:1029F8004003042AEED194F8012151489A4205D1A6
:102A080090F80221F92A04D8013200E0002280F867
:102A18000221474884F801318378494A434F824666
:102A28002BBB3868C0070AD582F80331B9F1000F0B
:102A38001DD12B78DB071AD510F066FD17E02B782F
:102A4800580714D5404B1B788BB1404BDB7873B9D2
:102A580092F803310133DBB2032B82F8033106D934
:102A680011B110F01BFF02E0B9F1000FF9D094F892
:102A78000231334ADFF8E490142B40F0A8809AF82A
:102A880002301BF1000B18BF4FF0010B6BB392F82B
:102A980001315F2B11D12B7803F0040303F0FF0100
:102AA80013B110F0FBFE08E00B200291019208F030
:102AB80023F9019A029982F80211BBF1000F14D090
:102AC80094F801317D2B10D12B7803F0040303F027
:102AD800FF0213B110F0E2FE07E00B20019208F0AC
:102AE8000BF9174B019A83F802212B7803F00403A2
:102AF80003F0FF01002B6AD194F80131104A572BDB
:102B08002ED1134B4FF47A721A80D8F800301A0677
:102B180001D504F071FF0F4B1B685B0757D50E4BAF
:102B28000A221A8053E000BF102A0020E41900206E
:102B380001000020103900203C270020681A0020DE
:102B480064100020542900206C1E0020402700201B
:102B5800983C00209C2100209A3C00202C1A002040
:102B6800D8F80000400717D55A2B15D192F8043130
:102B78002BB1012382F8041182F8053127E092F87D
:102B8800063183F0010382F806310BB10C2000E016
:102B98000D2008F0B1F81AE05D2B00F02F855B2BB3
:102BA80000F02E855E2B02D1032000F02ABD562BA3
:102BB80003D1019306F040F8019B9AF80220002AFD
:102BC80000F034856F2B40F02B8510F09DFCD8F871
:102BD8000030580736D594F80631B84A93B12B78A7
:102BE80059070FD5009BB3F90610B6F898319942EA
:102BF80008DD3B6813F0010302BF3221A2F80A1175
:102C080082F806313B68DA030DD594F80C21AB4BFA
:102C18002AB993F8042112B93222A3F80A21012310
:102C280084F80C310EE094F80431A44A53B12B789F
:102C380003F0040303F0FF0123B9012382F8041110
:102C480082F80531D9F800A000233B600AF1830916
:102C58000AF1D30B99F8002099F8013019F8010C02
:102C68009A420BD2494607F0A1FF38B119F8022C55
:102C7800012303FA02F23B6813433B6009F104099C
:102C8800D945E7D18E4B1B784BB18E4BDFF850A25C
:102C98001A6812F0020F994640F03B8332E30AF1BA
:102CA800D2070AF58D793A787B7817F8010C9A42A1
:102CB80025D2394607F07AFF08B3BB7897F804E0C5
:102CC800814A97F803A07D480C21013B01FB0E4186
:102CD80003EB43031344D1F814219A420FD0C1F8EF
:102CE8001431002390F84021C1F81831012303FA68
:102CF8000EF322EA030381F810A180F84031063769
:102D08004F45D0D1714B1F68714B1B680293714BB3
:102D18001B780393704B019300230093019B1B685E
:102D2800002B00F0E48293F800A0BAF1000F00F045
:102D3800DE82019A029952688A1A002A0CDB01F590
:102D4800FA7201994A60009901228A4094F8401168
:102D580021EA020284F84021039A002A00F0C7827F
:102D6800019A597812F8042C0432D2B2002940F0A2
:102D78007C825A4931F91210B6F8962102F1C8003E
:102D8800814202DD93F802B015E0C83A914203DAB5
:102D98009978C1F1000B0EE0009A0123934094F852
:102DA800402122EA030384F84031029B019A03F58B
:102DB800FA7353609BE294F84031009A1341DB07A1
:102DC80000F19582BBF1000FCCBF0220012007F073
:102DD800CBFF0AF1FF33DFF8E490132B00F27F8278
:102DE800DFE813F01400250037004B00640086006C
:102DF800E9004C01B301E10111027D024B005A00C8
:102E08008600E9004C01BB001E01830197F8009081
:102E1800D944B9F1FA0FA8BF4FF0FA0929EAE979BC
:102E2800384687F8009007F0ABFE01200FE097F8CE
:102E38000190D944B9F1640FA8BF4FF0640929EA99
:102E4800E979384687F8019007F09AFE022049464A
:102E5800D6E197F803A0DA44BAF1640FA8BF4FF09F
:102E6800640A2AEAEA7A87F803A03846D9F84411AE
:102E780006F02EFD03205146C2E1797959446429B0
:102E8800A8BF642121EAE17179710D2007F00AFFDA
:102E9800BAF10D0F00F02382397959446429A8BF8B
:102EA800642121EAE17139710E20A9E1B979594407
:102EB80081F30801B9710520A2E100BF6410002068
:102EC800A23C0020E419002064A90108641A00202B
:102ED8003C2700206C1E0020781100205429002077
:102EE8009C21002000007A440000C8420000000035
:102EF800D9F848311A78022A20D107EE90BAB8EEEC
:102F0800E70A5FED077A93ED097A80EE270A30EE3B
:102F1800070AB5EEC00AF1EE10FA07D4B4EE670A54
:102F2800F1EE10FAC8BFB0EE670A01E01FED110A12
:102F380083ED090A0F2007F09FFE0AE099785944AB
:102F4800C829A8BFC82121EAE17199700F2007F0AC
:102F5800A9FEBAF10F0F00F0C281D9F848311A78EA
:102F6800022A1ED107EE90BAB8EEE78A5FED227A00
:102F780093ED080A88EE278A38EE000AB5EEC00AF3
:102F8800F1EE10FA07D4B4EE670AF1EE10FAC8BFF2
:102F9800B0EE670A01E01FED2B0A83ED080A122044
:102FA80056E159785944C829A8BFC82121EAE171D6
:102FB8005970122024E1D9F848311A78022A20D110
:102FC80007EE90BAB8EEE70A5FED397A93ED0C7A1E
:102FD80080EE270A30EE070AB5EEC00AF1EE10FAC5
:102FE80007D4B4EE670AF1EE10FAC8BFB0EE670A6C
:102FF80001E01FED420A83ED0C0A102007F03CFEA9
:103008000AE0197B5944C829A8BFC82121EAE171FF
:103018001973102007F046FEBAF1100F00F05F8117
:10302800D9F848311A78022A1ED107EE90BAB8EEBC
:10303800E78A5FED537A93ED0B0A88EE278A38EE1C
:10304800000AB5EEC00AF1EE10FA07D4B4EE670A2A
:10305800F1EE10FAC8BFB0EE670A01E01FED5D0A95
:1030680083ED0B0A1320F3E0D97A5944C829A8BF85
:10307800C82121EAE171D9721320C1E0D9F8483199
:103088001A78022A22D107EE90BA1FED6A0AF8EEE2
:10309800E77A87EE800AD3ED0F7A30EE270AB5EE8D
:1030A800C00AF1EE10FA09D45FED717AB4EE670A3E
:1030B800F1EE10FAC8BFB0EE670A01E01FED750A1D
:1030C80083ED0F0A112007F0D7FD0AE0997D5944D6
:1030D800C829A8BFC82121EAE1719975112007F014
:1030E800E1FDBAF1110F00F0FA80D9F848311A78E9
:1030F800022A20D107EE90BA1FED860AB8EEE78AB9
:1031080088EE008A93ED0E0A38EE000AB5EEC00A82
:10311800F1EE10FA09D45FED8C7AB4EE670AF1EE9D
:1031280010FAC8BFB0EE670A01E01FED900A83ED00
:103138000E0A14208CE0597D5944C829A8BFC8211B
:1031480021EAE171597514205AE0D9F848311A7802
:10315800022A1ED107EE90BAB8EEE78A5FED9E7A92
:1031680093ED0A0A88EE278A38EE000AB5EEC00AFF
:10317800F1EE10FA07D4B4EE670AF1EE10FAC8BF00
:10318800B0EE670A01E01FEDA70A83ED0A0A0920DD
:103198005EE0D9785944C829A8BFC82121EAE1715D
:1031A800D97009202CE0D9F848311A78022A1ED1A2
:1031B80007EE90BAB8EEE78A5FEDB57A93ED0D0A9F
:1031C80088EE278A38EE000AB5EEC00AF1EE10FA4A
:1031D80007D4B4EE670AF1EE10FAC8BFB0EE670A7A
:1031E80001E01FEDBE0A83ED0D0A0A2030E0597B8D
:1031F8005944C829A8BFC82121EAE17159730A2096
:1032080007F050FD6BE0D9F848311A78022A22D12C
:1032180007EE90BA1FEDCD0AB8EEE78A88EE008A6D
:1032280093ED100A38EE000AB5EEC00AF1EE10FA76
:1032380009D45FEDD37AB4EE670AF1EE10FAC8BF8D
:10324800B0EE670A01E01FEDD70A83ED100A0B20E4
:1032580007F012FD43E0D97D5944C829A8BFC82109
:1032680021EAE171D9750B20CAE7012937D198788D
:10327800B44B33F91230B3F5617F05DB40F6330206
:103288009342A8BF134601E04FF46173BAF10C0FE3
:1032980025D14FF4966292FBF0F0AB4AA3F5617327
:1032A80093FBF0F35FFA83F913784B4517D0B9F124
:1032B800040F34BF4B46022313700E2202FB036334
:1032C800A24A03F2D273136005F0C8FA5046494681
:1032D80007F0E8FC09F10100C0B207F045FD009ACB
:1032E8000123934094F84021134384F84031009B14
:1032F80001330093019B0C330193009B042B7FF453
:103308000DADC2E4D8F80030D8050FD5904BDB7866
:1033180063B1DAF80030990708D58E4B1B8813F093
:10332800010708D1012005F0AFF904E0012005F0FC
:103338009BF9012300E00023D9F8002052070BD5A0
:1033480053B1012005F090F9824B1B889B0706D4E6
:10335800022005F099F902E0022005F085F9DAF873
:10336800003013F00A0F32D0D9F80030DF060FD53D
:10337800784B1B8858070ED4042005F085F9764B46
:103388000A22B3F9043093FBF2F3A4F84C3102E0BB
:10339800042005F069F9D9F80030990607D56D4B76
:1033A8001B885A0606D4402005F06EF902E040203A
:1033B80005F05AF9D9F800305B0641BF664BB3F9FE
:1033C80004300A2293FBF2F348BFA4F84E31DAF82E
:1033D80000309F0609D4D9F80030180540F19A80CA
:1033E8004FF4807005F050F998E05C4BDFF864B159
:1033F8001B7813F0020F55D0594B1B78042B51D969
:10340800D9F8003013F400730FD0BBF80030D90698
:103418003CD4102005F038F9202005F025F9514852
:10342800011D04F03DFA02232CE0BBF8007007F000
:103438001007BFB23FB11020009305F015F9009BAB
:1034480084F850310127D9F800305A0512D5D4F83C
:10345800543145495A89B1F90030002BB8BF5B4255
:10346800934207DAB1F90230002BB8BF5B429342AE
:10347800C0F25481BBF800309B0608D5202005F027
:10348800F3F8002384F85031012700E0002794F86E
:103498005831BBB90E2007F02FFC344B012283F8BA
:1034A80058210FE0BBF8003003F03003002B92D016
:1034B800102005F0D9F8202005F0D6F8002384F86C
:1034C800503101E0002F86D0294B002003F1280E4F
:1034D80003F15007274A002122F81010264A5960A4
:1034E80022F810100432CEF8041022F8101000222E
:1034F8001A609A60CEF80020CEF808203A60796009
:10350800BA6014330EF1140E143700287FF463AF39
:103518000120DFE74FF4807005F0A6F87379082BD7
:1035280001D00E2B02D1402005F09EF8D8F80030CB
:103538005F0536D596F8203203BB2B7813F0040FBD
:1035480020E000BF54290020883A0020641A002097
:1035580040270020E0190020481A0020681A00209F
:10356800691A0020801A0020EC380020641000201E
:10357800C01100209C3C002038120020D9F80030EF
:1035880013F4002F09D0734B00221A703C2009F065
:103598002BFF30B10FF014FCF8E706F057FB0CF0E6
:1035A8003EFB012384F8DC3194F8DD31002B00F078
:1035B800CB80DAF800305D0740F18880D9F8003018
:1035C800180703D4082005F04FF87FE0624B1D88E8
:1035D80005F00805ADB2002D78D1082005F054F8A3
:1035E8005E4B1A685E4B1A605E4BDA885E4BA3F836
:1035F800DE215E4B1D605E4B1D6067E0012000E030
:1036080002205FFA80FA0AF1FF3386F8D03705F016
:103618008BF805F047F9504607F0A6FBFFF7D7BA35
:10362800BBF1000F02D07E2B3FF4CFAA972B05D118
:103638004FF4C873A4F80831FFF7C9BAA72B06D10D
:103648004C4A137843F004031370FFF7C0BA002202
:10365800BB2B059201D1022303E0B72B04D14FF60F
:10366800FE73ADF8163009E0BE2B01D1022303E04A
:10367800BD2B1AD14FF6FE73ADF81430D9F80030CF
:10368800BDF81410B3F860200A44A3F86020BDF810
:103698001610B3F862200A44A3F8622005F0CCFAA9
:1036A800002384F80231FFF792BA792B04D1324A09
:1036B800D37823F0010306E07A2B7FF488AA2E4AF8
:1036C800D37843F00103D370FFF781BADAF80030FA
:1036D800DA0639D5D9F80030990208D44FF40070C9
:1036E80007B0BDEC028BBDE8F04F04F0BDBF1A4B2C
:1036F8001D8805F40075ADB235BB4FF4007004F0B9
:10370800C3FF164B1A68164B1A60164BDB88A4F8D1
:10371800DE31164B1D60164B1D6015E0BBF80030FE
:103728009B063FF5B4AE202004F0AEFF1348144BBF
:10373800011D1A685B684360026004F0B1F80A4B27
:10374800012783F85071A2E607B0BDEC028BBDE8F3
:10375800F08F00BF2C220020E0190020501A002012
:10376800901A00205429002064100020E82300202B
:10377800EC230020681A002000210020881A00206D
:103788006C1A002010F80A3C0133DBB20A2B84BF04
:1037980010F8131C044A00F80A3C82BF002322F8E0
:1037A800113000F80A3C704778250020334A136C22
:1037B80090681944081A40F68C23984270B513464D
:1037C8009160D06051603BD9127893F945108A42D4
:1037D80010460BD1111F082908D893F8461018294C
:1037E80001D8013103E083F8442002E0002183F886
:1037F800461093F944402149A24219D191F8474013
:10380800B4B10C310024944206DA1D4D51F8046F0E
:1038180025F814600134F6E70C2805D0184900246F
:1038280021F810400130F7E716480178013101709E
:1038380083F84520002201211A7083F8471070BDD3
:1038480092F84710C9B1A0F2EF2440F2DA518C4245
:1038580008D811780B2905D80B1D0131117042F8D1
:10386800230070BD002283F84720074B03F1300284
:10387800002143F8041F9342FAD170BD3C04002094
:10388800782500208633002048040020024A136C63
:1038980001331944116470473C040020A1F57A7182
:1038A80007EE901A9FED0A7A0A4BF8EEE77A53F87A
:1038B8002030C7EE877A82B01A68FCEEE77ACDED41
:1038C800017ABDF804307833136002B0704700BF46
:1038D80047550540E01E0020024B53F820301B6876
:1038E80019607047E01E0020024B53F820301B6817
:1038F80019607047E01E00200C4B53F820301A68FE
:103908001B89A1F57A7159434FF47A7391FBF3F34C
:1039180007EE903AF8EEE77A82B0FCEEE77ACDED62
:10392800017ABDF80430136002B07047E01E002031
:10393800F0B5046D8668236823F00103236083795A
:10394800054613F0020F40790CBF4FF0000E4FF4FC
:10395800005E13F0040F14BF4FF48067002710F0C7
:10396800010F14BF042100218307206820F0010003
:103978002060626822F440524EEA020262602268C5
:1039880022F4B05323F00C0348BF41F008013B4335
:103998000B432360A36895B023F44073A360684683
:1039A8000BF0DAFB284B9C4201D10C9B0EE0274B15
:1039B8009C4201D10D9B09E0254B9C4201D10E9BF5
:1039C80004E0244B9C420CBF0F9B109B2268A879F3
:1039D800170448BF5B00B3FBF6F206FB1233B3EBE8
:1039E800560F236828BF01321E0441BF4FF6F073FB
:1039F800C2F34201134041EA03026B7992B213F019
:103A0800020FA28100F0010114BF4FF4003200221E
:103A1800DC0748BF42F480322B6D11B159680A4364
:103A280002E0596821EA02025A609A6801074CBF0D
:103A380042F0080222F008029A601A6842F0010275
:103A48001A6015B0F0BD00BF0038014000440040C6
:103A580000480040004C00402DE9F0471E46AB4BA3
:103A68008CB09842894690469DF8505040F08F801F
:103A7800A74BA84A1A60A84A5A6102F580729A614F
:103A88004FF48072DA601A61A44A5A63A2F5484278
:103A9800203ADA6404329A64C3F808801865A04BA7
:103AA8009A6942F480429A615A6942F001025A6165
:103AB80002238DF80830032315F0010A8DF8093028
:103AC8004FF000038DF80A3014BF022301232C079E
:103AD8008DF80B3019D54FF090444FF400770197CB
:103AE8008AF001038DF80A30636A23F0F0036362F9
:103AF800636A43F070036362204601A90BF09AFCE5
:103B0800BAF1000F27D1A76125E0B00710D50CA99D
:103B18004FF4007341F82C3D4FF09040436A23F076
:103B2800F0034362436A43F0700343620BF082FC84
:103B3800F10710D50CA94FF4806341F82C3D4FF0E4
:103B48009040436A23F470634362436A43F4E0633A
:103B580043620BF06FFC01240E23002768468DF8A2
:103B680000308DF801408DF803408DF802700BF09D
:103B78005DFF252368468DF801408DF803408DF8D8
:103B880000308DF80270624C0BF050FF0BE1654B72
:103B9800984276D1644B5F4A1A604FF48072DA60BB
:103BA8001A61624A5A6102F580729A615C4AC3F8E6
:103BB80008801865D36943F40033D36102238DF874
:103BC8000830032315F0010A8DF809304FF000037F
:103BD8008DF80A3014BF022301232A078DF80B3011
:103BE80019D54FF090444FF4804701978AF00103AC
:103BF8008DF80A30636A23F070636362636A43F086
:103C0800E0636362204601A90BF014FCBAF1000FCF
:103C180027D1A76125E0B30710D50CA94FF480433D
:103C280041F82C3D4FF09040436A23F070634362A3
:103C3800436A43F0E06343620BF0FCFBF70710D5DF
:103C48000CA94FF4004341F82C3D4FF09040436AD3
:103C580023F070434362436A43F0E04343620BF04E
:103C6800E9FB26238DF800300022012368468DF8F1
:103C780001308DF802208DF803302B4C0BF0D6FE66
:103C880091E02B4B984240F00F812A4B214A1A6051
:103C98004FF48072DA601A61274A5A6102F580721D
:103CA8009A611F4AC3F808801865D36943F48023D2
:103CB800D36102238DF80830032315F0010A8DF82B
:103CC80009304FF000038DF80A3014BF0223012396
:103CD8002C078DF80B3033D5184C4FF480670197BB
:103CE8008AF001038DF80A30636A23F47063636213
:103CF800636A43F4E0636362204601A90BF09AFB10
:103D0800BAF1000F40D1A7613EE000BF0038014082
:103D1800283A0020A0A901084412002044000240CB
:103D28000010024000440040D43900204414002010
:103D38000048004080390020441600200004004854
:103D4800B0070FD50CA94FF4806341F82C3D5848B3
:103D5800436A23F470634362436A43F4E063436253
:103D68000BF068FBF1070FD50CA94FF4006341F87D
:103D78002C3D4F48436A23F470434362436A43F43B
:103D8800E04343620BF056FB27238DF800300022F6
:103D9800012368468DF801308DF802208DF8033034
:103DA8000BF044FE434CC4F82C900027012384F800
:103DB80044302762E761A76267626671C4F80880C9
:103DC800A5712046FFF7B4FDF20734D5236B002B0D
:103DD8002AD001A809F05EFBE36C01934FF48053ED
:103DE8000A9380230693E368ADF8103020230993E3
:103DF800206B636902930B970597079708970397BA
:103E080009F073FB01A9206B09F051FB236B216DAD
:103E18001A6842F001021A608A6842F040028A6019
:103E28005B689BB2236406E0236D20221A621A683D
:103E380042F020021A60B3072FD5636B43B301A881
:103E480009F028FBA36C01934FF480530A93802355
:103E580006932369ADF8103000251023606B039397
:103E68000B95059507950895099509F03EFB606B3C
:103E780001A909F01CFB636B1A6842F002021A6080
:103E8800226D5D605D60936843F08003936004E099
:103E9800226D136843F080031360226D136843F0AA
:103EA80001031360204600E000200CB0BDE8F08755
:103EB80000040048803900201FB50123ADF8083000
:103EC800ADF80410002301A9ADF80A30ADF80C30A4
:103ED800ADF8062009F096FB05B05DF804FB38B58F
:103EE80010F80E2C50F8043C044652B9012200F890
:103EF8000E2C20F80C1C997A18680222BDE838406C
:103F0800DAE730F80C2C20F80A1C891A89B220F854
:103F1800081C084A10F80F0C002522F8101004F8A5
:103F28000E5C1868997A2A46FFF7C6FF04F8065C03
:103F380038BD00BF78250020044B53F820301BB152
:103F480007289CBF1B681960704700BF64050020E4
:103F5800074A13689B060AD5064B002119700649C3
:103F680008684FF6FE7303400B60202353607047C8
:103F780000000240A13C00201C0002402DE9F0474F
:103F88006B4DD5F800366B490A78581C02F0FF06CD
:103F98008E460AB10346F6E7C5F8003695F80D06D1
:103FA800D5F8083695F80C8695F80E26374639B2B6
:103FB800202900F09B80DFF88CC10CEB81033CF8D2
:103FC8002110DC789B78C3F1FF039BB2002B65D0EE
:103FD800C3F1FF0363434FF03C0C1B12B1FBFCF928
:103FE800B9F1050F5DD8DFE809F0030B1A293A4A41
:103FF800E01ADAB24143B1FBFCF01044C0B251E020
:10400800B1FBFCF00CFB101189B2DAB2C1F13C0132
:10401800E31A4B432046B3FBFCFC94442CE0B1FB71
:10402800FCF00CFB10115FFA83F8E21A89B24A43DC
:10403800B2FBFCF24244D2B2204632E0B1FBFCF9BA
:104048000CFB191189B25FFA83F8E01AC1F13C013F
:104058004843B0FBFCF04044C0B2224621E0B1FB2B
:10406800FCF80CFB1811D8B289B2E31A01FB03F271
:10407800B2FBFCFC224684445FFA8CF412E0B1FBEC
:10408800FCF80CFB181189B2D8B2C1F13C01E31A53
:104098004B43B3FBFCF20244D2B203E02246204673
:1040A80000E044464FEA042C4CEA004C4CEA020C6F
:1040B800172306F117014FF0010808FA03F8C91A87
:1040C80018EA0C0F89B2DFF8808014BF4FF011098D
:1040D8004FF0090913F1FF3308F80190E9D21836B7
:1040E8000137B6B2BFB2144BA04660E785F80E267A
:1040F800C5F80836114AA5F8061601238EF80030CF
:104108000F4985F80C8640F22A3385F80D06A5F884
:104118000466536000234B620B889BB243F0010393
:104128000B80136843F001031360BDE8F08700BFFC
:1041380044120020A13C0020501800201C0002401E
:10414800002C0140DA1D0020C405002073B5064686
:104158000D46002401232A88A34013421AD0AA78C6
:10416800009302F003038DF80430EB78022B03D0A0
:10417800032B0CBF032301238DF805303046C2F30F
:1041880001136946C2F381028DF806308DF80720C5
:104198000BF050F90134102CDCD102B070BD2DE9C0
:1041A800F04F754E96F80F5607460C4687B01146E5
:1041B8009A4600686B1C914622464FF0020B86F81F
:1041C8000F360EF095FC3B897868ADF8043001A9EC
:1041D8008DF806B08DF807B0FFF7B8FF0023ADF8EB
:1041E8000A30ADF81230ADF8163070230193BA7A60
:1041F8003C68CDF80CA0012306F5C2682D01ADF886
:1042080008304FF48073A844ADF810B0ADF81430FE
:104218000C2A7ED8DFE802F0077D7D7D0F7D7D7D4D
:10422800387D7D7D5E00204601A909F070FAA369FA
:1042380043F0080326E0236A504823F01003236262
:10424800236A6168A26922F0807222F4E6428442FD
:1042580042F4E04206D000F50060844202D043F008
:10426800300307E023F0E00321F4406143F030031A
:1042780041F480616160A261C4F838A02362A36937
:1042880043F40063A36144E0236A3C4823F4807349
:104298002362226A6168E369844223F0730343F06E
:1042A800700306D000F50060844202D042F44072E8
:1042B80007E022F4606221F4405142F4407241F474
:1042C80080516160E361C4F83CA02262E36943F075
:1042D80008031DE0236A294823F480532362226AD5
:1042E8006168E369844223F4E64343F4E04342F41B
:1042F800405203D000F50060844201D141F480416E
:104308006160E361C4F840A02262E36943F400639A
:10431800E3613A7B3B681AB15A6C42F400425A6432
:104328001A8892B242F001021A80BA7A0C2A19D875
:10433800DFE802F0071818180B1818180F181818C3
:104348001300721903F134010AE0721903F13801FC
:1043580006E0721903F13C0102E0721903F1400111
:10436800C2F8101635444046A5F81896C5F8143614
:1043780007B0BDE8F08F00BF44120020002C0140B8
:10438800034A138801339BB213800020704700BF93
:10439800DE1900202DE9F04F2DED028BAF4E8DB0C8
:1043A80034780096002C00F0AE80AD4B1A68984621
:1043B800002A01F0D780D8F8000006F03BFD00285D
:1043C80001F0D080A64BA74C186806F030FD0928EC
:1043D80001D03F284AD14FF0000A2668A24D57461F
:1043E8002EB1A2482968324612F084FD10B9AA46B7
:1043F80007B92F469E4B10359D42F1D3C7B1D7F868
:1044080000E0DAF800C023681EF803501CF8030027
:10441800A8420DD15A1C954938B92D2B05D8914D74
:104428002A602025CD54885402E0CD542260EAE762
:1044380023680BB1574510D08E480EF061FE5745E2
:1044480007D857F8100B0EF05BFE09200EF049FD57
:10445800F5E789480EF054FE002623689E42AAD24A
:10446800824B985D0EF03DFD0136F6E72368002B80
:1044780040F0F187042841F05A807C4808F0A2F8FF
:1044880001F070B8DFF824A2DAF8000006F0D2FCD8
:1044980028B3DAF8000006F0CAFCD9F8003093F81F
:1044A80048208346002A3DD1242874D1012283F86C
:1044B8004820D9F80030DFF8D4A193F848B0BBF110
:1044C800060FDFD193F8490001F060F8002800F0EA
:1044D80088800EF0C1FC2B68002283F84820674BC7
:1044E8001B7863B1385905F0A5F806F079FF32203A
:1044F80006F079FC04F0E8F8614B624ADA604C3463
:10450800982C01F02F80604FE31993F84A20012A74
:10451800F5D15E4DDFF894812B60E359C8F800307F
:10452800A946AFE7012A04D14D2814BF0022022270
:10453800BDE7022A04D13C2814BF00220322B6E7B3
:10454800032A0AD140284FF000029FBF1A71DA717E
:104558005871987198BF0422A9E7042A08D19A795A
:1045680083F8490080EA020B83F806B005229EE72B
:10457800052A9ED159791A799142997906D94140EB
:104588009971511C19711344187292E781420CBF3A
:10459800062200228BE73E4E3278530789D423281F
:1045A800DAF8002010D1009B3A48012119702C49F3
:1045B8000A6039490A600EF0A3FD2F480EF0A0FDED
:1045C800327842F002023270344B1B681B785B452C
:1045D80001BF334B334A1A60294B04BF294ADA60BA
:1045E80067E7DAF8002092F849304C2B00F02C8568
:1045F80000F2BC80352B00F0CC8266D82B2B00F063
:10460800FB8421D8252B00F0D08404D8232B00F07C
:10461800848200F01CBF272B00F0CE84292B40F0A9
:1046280016870EF0F7FB204EA6F880010EF0F2FB7D
:10463800A6F882010EF0E4FB86F884010EF0EAFB8E
:10464800A6F8860100F0FEBE2F2B00F095852FD826
:104658002D2B00F0D68400F0FABE00BFA23C00204B
:10466800843A00203C21002014B301080C210020CA
:10467800F4B4010869CF01086ECF010814190020AD
:1046880000ED00E00400FA05782900207C3A0020BB
:10469800A03C00209ECF01082032002030220020BC
:1046A800FC9F0020EFBEADDE102A0020803A0020DB
:1046B800312B00F07485332B40F0C9860EF0A0FB37
:1046C800D14B83F8920100F0BDBE412B00F0F68477
:1046D80019D8392B00F07E8404D8372B00F01885C0
:1046E80000F0B5BE3C2B00F0DC803E2B40F0AF86DE
:1046F8000EF086FBC44E86F8E4010EF081FB86F8C6
:10470800E30100F09FBE442B00F07E8526D8432BA2
:1047180040F09D860EF074FBBB4E0023B3607071B1
:104728000EF082FB03F0C8FF0EF06AFB86F89001DA
:104738000EF070FBA6F858010EF06CFBA6F85A01B3
:104748000EF068FBA6F85C010EF064FBA6F8800189
:104758000EF060FBA6F8820100F074BE482B00F052
:10476800C1834A2B00F06E8600F071BED12B00F099
:10477800E08320D8CC2B00F033820FD8C82B61D02F
:1047880004D84E2B00F06E8400F061BEC92B00F0F7
:10479800AC83CA2B00F09C8000F059BECE2B00F0F1
:1047A8009283C0F08683CF2B00F08382D02B00F059
:1047B800748300F04CBED82B00F03C810BD8D32B6F
:1047C8003AD025D3D42B00F0F982D62B40F03F867F
:1047D8004FF00008D3E2F22B00F0368310D8EF2B0D
:1047E80040F03586894ED6F800900EF013FBA9F8F4
:1047F800620036680EF00EFBA6F8600000F022BEDC
:10480800F32B00F00585FA2B00F0678300F01FBE3C
:104818007F4B1B7803F0040303F0FF08002B40F0E4
:1048280011860EF0EDFA784B022883F8D00740F293
:104838003B8383F8D08737E30EF0ECFA754B18808A
:1048480000F000BE92F805804FEA5808B8F1120F40
:1048580003D908F01BFE00F0F5BD4FF00009C14573
:1048680007D20EF0D7FA03AB23F8190009F10109B2
:10487800F5E742460023434507DA03A931F8130058
:10488800654921F813000133F5E7122A05D0624B78
:10489800002123F812100132F7E701225F4B00F0E4
:1048A800B5BC5A4ED6F800900EF0AAFA18B10228F4
:1048B800A8BF022000E0012089F8000033681B78B7
:1048C800022B574B14BF574A574A1A6000F0BABD1B
:1048D8004E4B1A681278022A4FF00009984673D195
:1048E800D8F800600EF08CFA07EE900AF8EE677AB6
:1048F800B2EE048AC7EE887A06EB890AD8F8006017
:10490800CAED087A0EF07CFA07EE900A9FED477A16
:10491800F8EE677A06EB890AC7EE877AD8F800605E
:10492800CAED0B7A0EF06CFA07EE900A9FED407A0A
:10493800F8EE677A06EB890AC7EE877A09F101096A
:10494800B9F1030FCAED0E7ACAD1B9F1070FD8F839
:1049580000601CD10EF054FA07EE900AF8EE677A60
:10496800C7EE887AC6ED117AD8F800600EF048FADA
:1049780007EE900AF8EE677AC7EE887AC6ED127AE3
:10498800D8F800600EF03CFA86F84C0015E00EF0FE
:1049980037FA06EB090A8AF80100D8F800600EF029
:1049A8002FFA06EB090AD8F800608AF80B000EF017
:1049B80027FA06EB090A8AF8150009F10109B9F185
:1049C8000A0FC2D100F03EBDD8F800600EF018FA08
:1049D80006EB090A8AF80100D8F800600EF010FA10
:1049E80006EB090AD8F800608AF80B000EF008FAFE
:1049F80006EB090A09F10109B9F10A0F8AF815004D
:104A0800E2D100F01FBD00BF102A00202C1A0020A0
:104A1800A03C0020B0110020542500208533002040
:104A28009C030020611F0108992301080000C84267
:104A380000007A448046D74E9FEDD78AD6F800A06A
:104A48000EF0E8F907EE900AF8EE677A0AEB880AA2
:104A5800C7EE887AB146CAED087AD6F800A00EF0FB
:104A6800D9F907EE900AF8EE677A0AEB880AC7EEDA
:104A7800887ACAED0B7AD6F800A00EF0CBF907EECB
:104A8800900AF8EE677A0AEB880AC7EE887A08F186
:104A98000108B8F1030FCAED0E7ACCD1B8F1070FAF
:104AA800D9F800601CD10EF0B5F907EE900AF8EEBF
:104AB800677AC7EE887AC6ED117AD9F800600EF0E9
:104AC800A9F907EE900AF8EE677AC7EE887AC6ED7C
:104AD800127AD9F800600EF09DF986F84C0015E0BE
:104AE8000EF098F906EB080A8AF80100D9F8006078
:104AF8000EF090F906EB080AD9F800608AF80B0066
:104B08000EF088F906EB080A8AF8150008F1010882
:104B1800B8F10A0FC2D100F095BC0EF071F9132854
:104B280081463FF696AEDFF86CA2DAF800600EF028
:104B380067F9002399490C2202FB0312117A81427A
:104B480023D10FFA89F906EB8908137888F88130A0
:104B58000EF056F988F882000EF052F988F88300B2
:104B68000EF04EF98E4B8F4A1A6088F884008E4BEF
:104B7800DAF8000018600021813006F051F88B4BFC
:104B880080F00100187000F05DBC0133222BD1D1F8
:104B98005FE60EF035F90B2880463FF65AAE7D4B9E
:104BA8001E680EF02DF903283FF653AE0BFB086B79
:104BB8008BF8D6000EF024F98BF8D1000EF020F90E
:104BC8008BF8D2000EF01CF98BF8D3000EF018F910
:104BD8008BF8D4000EF014F98BF8D50000F032BC35
:104BE8005379092B7FF635AE714ED6F800900EF04A
:104BF80007F989F80000D6F800900EF001F989F855
:104C080001000EF0FDF833686428A8BF642018710D
:104C18000EF0F6F833686428A8BF642058710EF0C7
:104C2800EFF83368FF28A8BFFF2098710EF0E8F866
:104C3800D6F80090642828BF642089F807000EF091
:104C4800DFF889F80200D6F800900EF0D9F889F854
:104C58000300D6F800900EF0DDF8DAF80030A9F875
:104C68000A005B790A2B05D9D6F800900EF0C8F82F
:104C780089F808002B685B790B2B40F2E3833668D0
:104C88000EF0BEF830730EF0BBF84A4E86F80904F1
:104C98000EF0B6F886F80A043E4ED6F800900EF0EC
:104CA800AFF889F84E0036680EF0AAF886F84F007B
:104CB800C8E30EF0AFF86FF4AF6E00EB0E03DFF849
:104CC800F4803C4E9BB2C62B98BFA8F896010EF014
:104CD800A1F8A8F840010EF09DF8A8F842010EF0DE
:104CE80099F8A8F844010EF095F8A8F8DC010EF040
:104CF80087F888F8F1010EF083F80EF081F888F84B
:104D0800F2010EF07DF888F885010EF079F888F840
:104D180092010EF075F81F4BD3F800A00EF07AF848
:104D280000EB80004000AAF85E000EF069F888F8F1
:104D38007A010EF065F888F87E010EF061F888F8BF
:104D48007D010EF05DF82B6888F87F015B79172BE1
:104D580040F278830EF054F886F861010EF05AF8A4
:104D6800A6F850010EF04CF886F85F010EF048F8EE
:104D780086F86A010EF044F886F8690162E30EF0DD
:104D880049F80D4B23F8180008F10108B8F1080F8D
:104D9800F5D157E32C1A002000007A44F4A9010841
:104DA800A8110020502B0020AC1100200300002087
:104DB800641A0020102A0020E420002053790F2BC9
:104DC8007FF447AD0EF01CF8072880463FF641AD4A
:104DD800C14ED6F800A00EF01DF80E2303FB08F80C
:104DE800C244AAF82101D6F800A00EF013F8C24474
:104DF800AAF82301D6F800A00EF00CF8C244AAF8CD
:104E08002501D6F800A00DF0FBFFC2448AF827015F
:104E1800D6F800A00DF0F4FFC2448AF82801D6F8AD
:104E280000A00DF0EDFFC2448AF82901D6F800A0D1
:104E38000DF0E6FFC24436688AF82A010DF0F4FF47
:104E4800B044C8F82B01FDE20DF0DAFF0F288046C8
:104E58003FF6FFAC0DF0D4FFA04BC8EBC808984450
:104E680088F8D0000DF0CCFF88F8D1000DF0C8FF0D
:104E780088F8D2000DF0C4FF88F8D3000DF0C0FF09
:104E880088F8D4000DF0BCFF88F8D5000DF0B8FF05
:104E980088F8D60006F0DEFAD4E2914B1B785E075C
:104EA80000F1D0820AF0F0FF03F03EFC03F0FAFCB8
:104EB800C8E28B4B1B78580700F1C482894B4FF42A
:104EC800C8721A80BEE2864B1B78590700F1BA8275
:104ED800854A137843F0040329E0814B1B785A076D
:104EE800E2D5B4E202F0D6FFACE20DF089FF7E4BCA
:104EF8001A7810B142F0020201E022F002021A70A0
:104F08000DF07EFF794B7A4E18700DF08DFF3060F2
:104F18000DF08AFF70600DF07DFF764B18800DF064
:104F280079FF754B754A1880137843F002031370A4
:104F380088E20DF065FF83460DF076FF82460DF09E
:104F480073FF81460DF070FF06460DF063FF0DF00C
:104F580061FF0DF055FFBBF1000F12D1684B102017
:104F6800C3F800A0C3F8049003F07EFB5E4A1378F0
:104F780043F001031370002E00F06482614B1E6041
:104F880060E2BBF1100F40F05D825F4BC3F800A0F8
:104F9800C3F804900EB15B4B1E605B485B4B02226A
:104FA800011D1A7002F07CFC4CE24C4B98600DF02D
:104FB8003BFF03F081FB45E20DF02CFF474EA6F8BE
:104FC80058010DF027FFA6F85A010DF023FFA6F8A7
:104FD8005C0137E20DF014FF404E86F87A010DF0BF
:104FE8000FFF86F87E010DF00BFF86F87D010DF0AE
:104FF80007FF86F87F0125E20DF002FF374B587155
:1050080020E20DF0FDFE354E86F890010DF002FF0E
:10501800A6F89A010DF0FEFEA6F896010DF0FAFE2C
:10502800A6F898010DF0ECFE2B6886F891015B79E3
:10503800082B40F207820DF0EDFEA6F89E010DF058
:10504800E9FEA6F8A001FDE10DF0DAFE234E86F890
:10505800DA010DF0D5FE86F8DB010DF0DBFEA6F8CF
:10506800DC01EFE192F805800323B8FBF3F8B8F10F
:10507800120F3FF6EEAB194E4FF0000AC24580F012
:10508800E1810DF0BDFE86F8A3010DF0C3FE40F2EC
:10509800ED23984205DD40F6CA039842A8BF18469A
:1050A80001E040F2EE20A0F2EE2019230AF1010AF5
:1050B80090FBF3F0023686F8A201DFE780460DF098
:1050C8009FFE064B434408F10108B8F1080F83F826
:1050D8008801F4D1B6E100BF2C1A0020102A002064
:1050E800A03C00206C110020681A0020691A0020DA
:1050F8006C1A0020741A0020761A00207E1A0020EC
:10510800801A0020901A0020881A0020B41100206C
:1051180053794FF00708B3FBF8F8C8EBC8029B1A9D
:1051280013F0FF0F7FF495AB5FFA88F808F1FF38AA
:105138005FFA88F8B8F1FF0F00F084810DF060FE87
:105148005FFA80FA4FFA8AF004F0E2FA064600287D
:105158003FF47FAB80F800A00DF05CFE70800DF08E
:105168004FFE30710DF04CFE70710DF049FEF0717C
:105178000DF046FEB071D9E7C64E06F140090DF0B4
:1051880049FEA6F8B0020DF03BFE86F8B2020DF01B
:1051980037FE043686F8AF024E45F0D152E10DF0E5
:1051A8002FFE1F2880463FF654AB2B685B79082BEF
:1051B8007FF44FAB0DF02EFEB64E08F18C0806EBCF
:1051C800880900F03F00A9F802000DF023FEB9F8A5
:1051D8000230800100F4FE501843A9F802000DF0D7
:1051E8000FFE000106F828000DF00AFE16F8283018
:1051F80000F00F00184306F828000DF001FE89F8AA
:1052080001000BF0B1FB1DE1A34B01221A7019E15B
:105218000DF0F6FDFF28DFF8809266D14FF0000808
:1052280009F104004146602289F8018011F015FE59
:105238008DF80B809DF80B3099F86620964E9A42AF
:105248004BD99DF80B3006EBC30393F86930DB07A5
:105258003CD59DF80B3006EBC30393F868208F4BC1
:1052680033F91230002B31DD9DF80B3096F80180B0
:1052780006EBC3034FEAC80EDB6E58689DF80B3087
:1052880006EBC30A06EB0E01DAF86C3048601A899F
:105298004A8192B2002101238B40134003D101318E
:1052A8001029F8D100E00B4609EB0E0108F10108BE
:1052B8000B8104238DF80E3003A90123ADF80C20CF
:1052C8008DF80F30FEF742FF89F801809DF80B300A
:1052D8000133DBB28DF80B30ACE701200DF0ECFDAB
:1052E80070780DF0AAFDFFF7F4B899F80120904204
:1052F800BFF4AFAA019000200DF0DEFD0DF0ACFD6B
:105308002A68106804F096F9D8F800000DF058FDE6
:1053180005F0DCFC72B64FF0904B4FF480614FF40F
:105328000076ABF82810ABF82860ADF80C10042113
:105338004FF0010A8DF80E10584603A98DF80FA0FA
:10534800FEF704FF584603A9ADF80C608DF80EA0CF
:105358008DF80FA0FEF7FAFE019B4FEAC30809EB90
:105368000800416803890A6803FA0AF30AFA03F392
:1053780013430B6043898B61CBF818604FF090435F
:105388001B8A5805FAD409EB08030122D3F804E074
:105398001889DEF80010400082400A43CEF8002049
:1053A8005A685B8913854FF090434FF400721A8551
:1053B80000200AF023FB42F20F7A4FF0904BBBF823
:1053C8001030590505D4BAF1000FF6D00AF1FF3AAA
:1053D800F3E709EB080303A958685B898361ADF813
:1053E8000C3004238DF80E3001238DF80F30FEF7B2
:1053F800ADFEBAF1000F14D04FF090431A8A52054F
:10540800C1D509EB080251685289098A0A424FF44A
:10541800007219BF9A6100201A8501200AF0EEFA7D
:10542800EAE74FF40073CBF8183050460AF0E6FA72
:1054380062B60A2005F0D7FC0AF0F1FB2B68F322CC
:1054480083F8492000200DF037FDFFF742B808F037
:105458001DF8FFF73EB80C2803D111480DF050FE97
:1054680057E00A2801D00D2855D10E4D0E480DF0F1
:1054780047FE2846232111F026FD08B1401B206075
:105488002368002B3CD05A1EA95C20290ED1134654
:10549800F7E700BF102A002014190020301A002056
:1054A80073CF01080C210020D5DF0108304A2360A2
:1054B8000021D1542F4B304DD3F800A0D5F800B0BF
:1054C8002B4E584611F00DFD07463A4630465946D0
:1054D80011F010FD294A20B9F35D53445B78590750
:1054E80003D010359542E9D306E0954204D2781CE2
:1054F800EB683044984702E021480DF001FE002394
:105508001B4823600021302211F0A7FC009B1B7868
:1055180043B31C4807E07F280FD1013B144A1A48BF
:1055280023600021D1540DF0EBFDFEF744BF0C2899
:1055380093D07F2804D1FEF73EBF2F2B3EF63BAF1A
:10554800A0F12002D2B25E2A3EF635AF13B9202868
:105558003EF431AF5A1C2260054AD0540DF0C1FC0C
:10556800FEF729BF0DB0BDEC028BBDE8F08F00BF80
:105578000C210020A803002014B30108F4B401088A
:105588007ECF01086ECF01089ACF01082DE9F04FB0
:105598002DED028B4B28A1B0044600F0918600F255
:1055A800C280302800F0158751D8222800F0C9841D
:1055B80023D8032800F0708114D8012800F06081F6
:1055C800022840F0768704200DF076FC52200DF07A
:1055D80034FC43200DF031FC46200DF02EFC4C200D
:1055E80000F0A3BE042800F06281052840F061871E
:1055F8001A200DF061FC00246BE1282800F02E86AB
:1056080015D8242800F02486262840F05287BD4C5F
:1056180006200DF051FCB4F858010DF050FCB4F818
:105628005A010DF04CFCB4F85C0100F09FBE2C2828
:1056380000F027862E2800F0B6862A2840F0398701
:1056480001200DF039FCAF4B587900F06EBE3D28B3
:1056580000F032832CD8362800F08B860BD83228FD
:1056680000F05D86342840F0248748200DF024FCA3
:10567800002500F088BC3A2800F0DB823B2800F0C7
:105688005984382840F015879E4C04200DF014FCEE
:1056980094F87A010DF0D1FB94F87E010DF0CDFB62
:1056A80094F87D010DF0C9FB94F87F0100F03DBE30
:1056B800452800F0EB8627D8402800F04986422884
:1056C80040F0F7868F4C10200DF0F6FB60790DF056
:1056D800B4FBA0680DF0FCFB94F890010DF0ADFB55
:1056E800B4F858010DF0EBFBB4F85A010DF0E7FBE4
:1056F800B4F85C010DF0E3FBB4F880010DF0DFFBBA
:10570800B4F8820100F032BE472800F09886C0F055
:105718008586492840F0CD8602200DF0CDFB7A4BD6
:10572800188800F023BE702800F019835AD8692819
:1057380000F05A822AD8652800F0FA8015D84D283A
:1057480000F0CD85642840F0B48607200DF0B4FB46
:10575800E7200DF072FB6B4B58790DF06EFB0020C3
:105768000DF06BFB042000F0A0BE672800F0BF819D
:1057780000F22D8212200DF09FFB644B1B88B3F5BD
:10578800806F8CBF08260126002591E16C2800F067
:105798003E8217D86A2800F0DC846B2840F089869E
:1057A8005B4C05200DF088FBB4F89E000DF087FBDC
:1057B800B4F8A0000DF083FB94F8A20000F00100FB
:1057C80000F0B3BD6E28524D00F03A8200F27F829D
:1057D80006200DF071FB686F0DF07AFBB5F87800C4
:1057E80000F0C4BD782800F08F8119D8742800F023
:1057F800F5830BD8722800F04A84732840F0598644
:1058080008200DF059FB012400F09CBC762800F01C
:10581800C18400F21C842F200DF04EFB3D4C81E327
:10582800A42800F0E18414D87B2800F02183A02864
:1058380040F03F860C200DF03FFB374B18680DF009
:1058480047FB364B18680DF043FB354B186800F0E2
:105858002CBEF12800F09481FE2800F0EC84F0289A
:1058680040F027862A4C04200DF026FB236DB3F860
:1058780062000DF024FB236DB3F8600000F076BDE4
:1058880003200DF019FB00200DF0D7FA20460DF08B
:10589800D4FA0E2000F049BD0DF00EFB10200DF0DB
:1058A800CCFA04200DF0C9FA182000F03EBD0620FD
:1058B8000DF002FB53200DF0C0FA52200DF0BDFA96
:1058C80046200DF0BAFA33200DF0B7FA002000F0A8
:1058D8004DBD144B185D01340DF0AFFA0B2CF8D107
:1058E8000024114B185D01340DF0A7FA082CF8D1EB
:1058F80000240E4B185D01340DF09FFA072CF8D1E7
:1059080000F0D5BD102A0020142200200800002035
:10591800DC190020C3A90108ACF7FF1FB0F7FF1F6F
:10592800B4F7FF1FB3CD0108BFCD010897CD01081B
:10593800D44C0B200DF0C0FA20880DF0C0FA608816
:1059480080B20DF0BCFAD04B1B68C3F3C000C3F3A0
:105958008002800040EA4200C3F340021043C3F3D0
:10596800401240EAC20003F0100318430DF0A7FAF2
:10597800A368A288247B02F0080103F4475A4AEA84
:10598800010A03F480414AEA010A03F400414AEAA1
:10599800010A03F480314AEA010A03F400314AEAB1
:1059A800010A03F480214AEA010A03F4002103F4FE
:1059B800801B4AEA010A4AEA0B0A03F0007B4AEA1A
:1059C8000B0A03F0006B4AEA0B0BB04903F0805A4C
:1059D8004BEA0A0A03F0005B4AEA0B0B097803F06A
:1059E800804A4BEA0A0A03F0004312F0010F4AEA20
:1059F8000303C1F3800114BF4FF002094FF00009FF
:105A0800194312F0020F14BF4FF004084FF00008BA
:105A180041EA090112F0040F14BF4FF0100C4FF0C7
:105A2800000C41EA080112F0400F14BF4FF0200E9D
:105A38004FF0000E41EA0C0112F0100F14BF4FF4A2
:105A48000077002741EA0E0112F0200F14BF4FF42F
:105A580080660026394312F4807F14BF4FF4006536
:105A68000025314312F4007F14BF4FF400100020CA
:105A7800294312F4806F41EA000114BF4FF080629D
:105A88000022002011430346A3420AD2804A9D5CAB
:105A9800012202FA05F50D421CBF9A40104301335A
:105AA800F2E70DF015FA7B4B93F8D00700F03DBCF8
:105AB800744C04F12E0333F9150090FBF6F0013510
:105AC80080B20DF0FCF9032DF2D1A08E0DF0F7F99C
