:020000040800F2
:1000000000040020817F0108E1E10008B96A0108CD
:10001000F97F0108F97F0108F97F0108000000005D
:10002000000000000000000000000000DDE100080A
:10003000D9E1000800000000D5E1000869BB000814
:10004000F97F0108F97F0108F97F0108F97F0108AC
:10005000F97F0108F97F0108B1EE0008ADEE000854
:10006000A9EE0008A5EE0008A1EE0008F97F01083E
:10007000F97F010829980008B951010821510108A8
:10008000F97F010865520108F97F0108F97F01082D
:10009000F97F0108F97F0108F97F01089DEE00084A
:1000A000F97F0108A54E0108F97F0108B54E010846
:1000B000F97F0108954E0108854E01086D7600080C
:1000C000717600086576000869760008F97F0108F6
:1000D000F97F01080553010859520108AD51010883
:1000E00099EE0008F97F0108E5E10008F97F0108B1
:1000F000554E0108F97F0108654E0108F97F010896
:10010000F97F0108F97F0108754E0108F97F0108A0
:1001100015510108F97F0108F97F0108F97F0108ED
:10012000F97F0108F97F0108F97F0108F97F0108CB
:10013000F97F0108F97F0108F97F0108F97F0108BB
:10014000F97F0108F97F0108F97F0108B9DC00088F
:10015000F97F0108F97F010811530108F97F0108AF
:100160005D76000861760008F97F0108F97F0108D3
:10017000F97F0108F97F0108F97F0108F97F01087B
:10018000F97F0108F97F01082DE9F04F2DED0E8B65
:100190009FB00BF0CBFC684B1B6842F20F72C01A89
:1001A000904204D81FB0BDEC0E8BBDE8F08F634BBE
:1001B0001B780B2B00F2BD80614A342101FB032325
:1001C0009F6A604C604E614D0DF15C0908E00BF0D8
:1001D000ADFC33682A68FB1A18446432904206D298
:1001E000E368484698479DF85C30002BEFD00BF051
:1001F0009DFC574BDFF878B1D3ED007ADBF80010A7
:100200009FED547A544A554DCBF80000F8EE677ACA
:10021000401A67EE877A524963680880C2ED007A17
:100220002846984700284BD14E4E33689B0713D47D
:100230004D4B00221A805A809A804C4A9BF86C11D0
:1002400013784B4D994200F0A180013313701FB019
:10025000BDEC0E8BBDE8F08F464B1B78002BE7D032
:100260000BF064FCDBF8CC30DBF8D070DFF8F88002
:100270004149DFF810A1CBF8CC00C31A09EE903A3F
:100280003A4608F1060C0F461078002800F0648505
:100290009BF84031002B41F0F08017469A46364BD0
:1002A0009FED360A03EB0A010AF1240AA3F1D408F0
:1002B0000BF012FEBAF16C0F00F0AF873878EEE762
:1002C000284629469BF804200AF0F4FD9BF80560B7
:1002D000E6B19BF80630002B01F08C840BF1080886
:1002E0002F460026B7F9003000EE103A4046B8EE2F
:1002F000C00A0BF0C9FD1AF0D7FB0136032E08F136
:10030000240827F8020BCBF87460EBD1DFF878C033
:10031000BCF80000002841F00A81104918488E1DE1
:100320000B8830F8022B9B1A21F8023BB142F7D11F
:100330007AE7002745E700BFAC1F0020F41100203A
:100340001C0F0020DC360020BC3A0020241F0020B7
:100350006C360020BD3786355C360020CC1E002070
:100360008C1E0020901E00208C4D002001040020D7
:10037000A8140020BC4D00207C15002000007A4409
:100380006C150020C41E0020004E002001231370B5
:100390000BF0CCFBBE4BBF4F1B68D5F870110A9316
:1003A000B7F906A05B89BC4AC5F870019A45A0EB75
:1003B00001005080C0F23982BAF5FA6F81F252839F
:1003C0000A9AD179C3EB0A0202FB01F2A3F5FA63A0
:1003D00092FBF3F364330893B049B14B0F9193F957
:1003E0005E21B04B9FEDB04A1B68DFEDB04A084676
:1003F000AB49B1F89681AE4995B209680491524271
:1004000003F0807311951092069386460027B7EE8D
:10041000005AA04B33F91720C8EB020303F2F31084
:1004200040F2E631884200F2FC86002BB8BF5B4206
:10043000022F40F0FA86049991F81A0118B19842F7
:10044000B4BF1B1A00230699002902F099810A996A
:10045000097A07EE903A06EE101AB8EEE77AB8EE8F
:10046000466AC7EE047A8D4986EE246A67EEA75A7B
:1004700075EE466A67EEA55A67EEA67AE6EE257A2D
:1004800027EE277ADDED107AF8EEE77A67EE277A25
:10049000FDEEE77A17EE903A8B8086494FF06403C1
:1004A00042458B70C0F2F3867D4BB3F898118A45B4
:1004B000C1F27281BAF5FA6FD4BFC1EB0A03C1F57C
:1004C000FA634FF47A7202FB03F275487A4DB0F882
:1004D0009A017A4B07EE900AC1F5FA60B2FBF0F090
:1004E00085FB0027C217C2EB6712571C6FF0630E23
:1004F00033F9177033F812300FFA83FC0EFB020247
:10050000CCEB070707FB02F285FB0205D217C2EB13
:10051000651213449BB21AB207EE102A06EE901A27
:10052000B8EEC77AF8EE666AF8EE677A37EE667A62
:1005300077EEE67A594AC7EE277AD3800023F5EEA4
:10054000C07AF1EE10FA00F1C5879FED587A5C4B46
:10055000F4EEC77AF1EE10FA01F3A2829FED597A18
:10056000C3ED007AF4EEC77AF1EE10FA41F331866A
:10057000554B10931B7813F0040F544B119300F05C
:10058000AF871B68DFF870A1980001F16987504BB5
:100590001B88590601F1D581414B93F89C31002B02
:1005A00041F066813E4B93F89D3123B1484A128851
:1005B000520641F15E85109B43491B785F0701F1AC
:1005C0005181119A1268D507424A12785CBF43F0F4
:1005D00001030B70100703D4109A03F0FE0313708D
:1005E0003268510704D53C490988002941F0A780A9
:1005F0003A49098811B1920701F1A180384A12885D
:10060000002A41F09C8037490988B1F57A7F01F2D0
:10061000968013F0010F344B08BF02221A700BF0C2
:1006200085FA324B1B68C01A002801DB16F0D8FB94
:10063000A3680BB12E48984733682E4A01211F0743
:10064000117001F1C4811A4A176813F0140F06D013
:100650001F4A128802F40272002A41F00A829AF8B4
:100660000020002A4DD00B4A0D48B2F906100C4A62
:10067000B2F89821914244DC4279012A01F09D852B
:10068000192A01F09A850E2A3BD0082A39D035E084
:10069000281F0020304B0020A01F002048360020DB
:1006A00088430020C44D00200000FA430000C842E7
:1006B000EC1E0020503600201F85EB51A0250020A5
:1006C000F0360020CDCCCC3D024E0020981E0020FC
:1006D000941E00202C1F0020184E0020B01C00206B
:1006E000004E0020BE4B0020F44D0020F84D0020AD
:1006F00068160020791D0020040500208D49002285
:100700008A8097F8205125B18B4A1288910741F0D1
:100710007D849A0609D5884B1B8803F0300323B1EA
:10072000864B1B78DB0701F11D86854B1B7823B1B7
:10073000844B1B78002B01F07C84834B8348196821
:10074000834B0568B3F86C2103F5C47300933846F6
:1007500007F16003A8477F4A7F4B1678DB78129336
:10076000032E06D9DBF8D4315B88B3F5FA7FC1F0EC
:100770006B84119B1B6813F0006F784B196857D07E
:10078000002E01F09B86DBF8D431754A93F90030D6
:10079000B2F90400B2F90250B2F900205B4203FB47
:1007A00000F305EE105A05EE902A07EE903A6D4AD6
:1007B0004FF0000E01F48058B8EEE76AB8EEC55A63
:1007C000F8EEE55A02EB061A7546484647460AE037
:1007D000E045C8BF9E4641F3CA871032524500F13A
:1007E000020000F06185D2ED017AD2ED026A92ED4D
:1007F000037A65EEA77AE6EE857AE7EE067AFDEEF5
:10080000E77ACDED047ABDF8103019B21FB101EBD3
:10081000D173C3F34F0329B20FFA83FC6145038000
:100820000FFA8EF8D4DA1D46D7E764230893D3E590
:1008300011F01D03A4D14C4A1370002E3DD0484A3C
:10084000DBF8D431B2F9020093F90010B2F90430A8
:10085000B2F9002004EE902A364A4942B2F9062045
:1008600003FB01F305EE102A04EE100A07EE903A9E
:100870003C4A3E49F8EEE75AB8EEC44AF8EEE44A7C
:10088000B8EEC55A02EB0616D2ED027A92ED006A76
:10089000D2ED016A92ED037A64EE277A1032E6EE29
:1008A000057AB242E6EEA47AE5EE877AFDEEE77AC3
:1008B00017EE903A21F8023BE6D1109B93F800E046
:1008C0000EF0040E5FFA8EF30893089B002B40F0A5
:1008D0008B86204B187848B1254B244A03EB400007
:1008E00033F8021B22F8021B8342F9D19BF8A43291
:1008F0000893013B0693DBB2182B1E4807D8012151
:100900001D4A01FA03F31A40002A41F03582DFF84C
:1009100070A01A4BDAF800E00493104B1B6898069D
:1009200000F1C586049B1B88144D049500212F46B9
:1009300029E000BF48360020941E00202C1F002014
:1009400005040020144E0020281F002090110020D4
:1009500088430020F4360020D04D0020C44D0020F4
:100960008C36002080160020154E0020F01E00203E
:1009700064390020A814002099209801DC1E002072
:10098000B43900203B880EEB01001AB2B0F90030F8
:10099000B0F902009A4201F10E0103DB03B2934267
:1009A000A8BF1346702927F8023BEBD1DBF8D471BE
:1009B00097F9083013B3A44E4FF000083046B7F94A
:1009C0000620B5F900100EF075FADAF8003080B2A2
:1009D00043442880B3F90020B3F9023000B29042BA
:1009E00008F10E0806F1880603DB1AB28242A8BF9E
:1009F0000246B8F1700F25F8022BDFD1069B182BA9
:100A000000F28F80DFE803F0598D8D0D8D8D8D4EB6
:100A10008D8D8D8D8D428D8D8D8D8D0D808D8D4229
:100A20005900049D002029890EF01EFE69890120CD
:100A30000EF01AFE0225854B1B689A0655D4DF027C
:100A400000F1AD869BF81037002B40F0BC87804B3F
:100A50001B78002B7FF4A6AB7C4A126816037FF547
:100A6000A1AB9BF811577B4E023DEAB2052A41F239
:100A70005285082D66D8DFE815F0FF0041012901F5
:100A8000CC00B900A000850077005600724E00200F
:100A9000451CEDB236F8021F0EF0E6FD062D284685
:100AA000F6D11BE0049D0020E9880EF0DDFD2989C8
:100AB00001200EF0D9FD0225BDE73B79002B41F066
:100AC000B883109B1B7803F0040303F0FF00002B96
:100AD00041F0AF8301460EF0C7FD01255B4B1B685B
:100AE0009A0602D4089A052AA9D1049E284631887C
:100AF0000EF0BAFD681C7188C0B20EF0B5FD534B04
:100B00000235EDB21B689AE7544E0325E81EC0B2C9
:100B1000013536F8021F0EF0A7FD072DF6D104258A
:100B200089E70025DAE74E4ADBF824371268C83334
:100B3000934202D312F004FF20B112F0E7FE01232A
:100B40008BF81137474B93F83E37012B7FF42AABD4
:100B5000454ADBF83C17D0683E4A88423FF622AB54
:100B600082F81137FFF71EBB9BF83827394B22B1AB
:100B7000119A1268910141F1FE850CF0DFF90CF039
:100B8000F7FCDFE7119B1B689801F8D5BBF83037FD
:100B9000304C002BF3D1354AD4F834371268189210
:100BA00049460E2017930CF071F94FF48052092337
:100BB000A4F82E2784F81137DFE7402012F078FEE2
:100BC0000028BFD1DBF820370C2B01F27586DFE857
:100BD00013F06F0E6A0E640E5B0E4E0E470E3A0E49
:100BE0009B0E950E8C0E810EB40EA70E204A05208A
:100BF00000218DE8030002F10803029153200CF05C
:100C0000E3FC00289ED10723CBF820078BF811378F
:100C100098E7184B019303F10C020721029200910F
:100C2000A3F108024720043300210CF0CDFC00287A
:100C300088D14FF0FF320623CBF82007CBF82427CA
:100C40008BF811377EE700BF78170020C44D0020D5
:100C5000174E0020A8140020DE1E0020E01E0020F9
:100C600064350020884300200C040020BC3A00209A
:100C700080DF010834DF0108314ADBF824371268CD
:100C8000304C64339342BFF45DAF402012F010FE4D
:100C900000287FF457AFD4F820372B4E40240EE0C5
:100CA0000CF018F8DBF81827DBF82037013A01338D
:100CB000013CCBF81827CBF8203701F04486F35CD1
:100CC000214D1846002BEBD101F041BE1F4A0220F6
:100CD00000218DE8030002F10803029148200CF086
:100CE00073FC00287FF42EAF4FF0FF320523CBF8C2
:100CF0002007CBF824278BF8113723E7144B0193F7
:100D000003F10C02282102920091A3F10A0249206A
:100D1000023350210CF058FC00287FF413AF0D4B28
:100D20001B6813F0800301F063854FF0FF3204234A
:100D3000CBF82007CBF824278BF8113702E700BF48
:100D400064350020A8140020DCDC01081CDF010849
:100D500046DD0108C44D0020B8F80030AAF8003084
:100D600008F10208E04507F124070AF1020A7FF4BE
:100D70008BAA1746E748336801884288808813F0B9
:100D8000080F824600F0F684002900F0F384002A60
:100D900000F0F084002800F0ED84DF4B9FEDDF8A47
:100DA000DFF8B88304934FF0000E0120B5F902304C
:100DB0009BED517ADFEDDA6A08EE903AB5F9003032
:100DC000F8EEE88A0AEE103A67EE288AB5F90430A0
:100DD000D44DB8EECAAA0AEE903A2AEE07AA28EE37
:100DE000A80AF8EEEA7AAAEE0A0AB5F9003067EE28
:100DF00027AA0BEE103AAAEEAA0AB5F902300CEEB9
:100E0000103AF1EEC0CAB5F90430B8EE699A0BEEAB
:100E1000903AF4EE6CCAF1EE10FA29EE269AB8EE8A
:100E2000CBBAB8EECCCAF8EEEBBA41F0C784BEF14B
:100E3000000F00F01386DFEDBC7AB4EEE78AF1EE26
:100E400010FA08DD9FEDB97A38EE478AB4EEE78AEA
:100E5000F1EE10FAF8DCDFEDB67AB4EEE78AF1EEE7
:100E600010FA08D59FEDB17A38EE078AB4EEE78A1A
:100E7000F1EE10FAF8D4B6EE000A28EE000A0A9253
:100E8000089106900BF046FBDFEDA4DA069808996E
:100E90000A9A70EE2DDAE8B109B207EE901A12B292
:100EA00007EE102AB8EEE7DAB8EEC78A6DEE0D7AD3
:100EB0000FFA8AF30EEE103AE8EE087AB8EECEEAB0
:100EC0009FED9C7AEEEE0E7AF4EEC77AF1EE10FA10
:100ED00001F3FB819FED918A974DB0EE48DA6CEEFD
:100EE0000C7A9FED947AEBEE0B7AEBEEAB7AF4EEA4
:100EF000C77AF1EE10FA00F3DF86D7ED017A9FEDA5
:100F0000876AF4EEC67AF1EE10FA40F327879FED78
:100F10008B7AF4EEC7CAF1EE10FA00F128869BED49
:100F2000527A9BED535ADBED546A854B10931A7835
:100F3000D7ED027A520740F10C86F7EE005A67EEC1
:100F4000A55AB6EE006AEDEEA56A7E497E4B91ED9C
:100F5000004AD3ED003A7D487D4A90ED003AD2ED4B
:100F6000004AA8EE255AADEE257A29EE066A7AEEF9
:100F7000A66A78EE858A66EE866A3AEE077A68EEA9
:100F8000867A27EE067A26EE845A64EE675AA7EE32
:100F9000235AE3EE475AA7EEE45A23EE666AE6EEDA
:100FA000E45AA7EEA36A33EE055A67EE837A73EE2E
:100FB000A55A25EE050AA7EE246AE6EEA37AA5EE69
:100FC000A50A74EE066AE7EE447AB0EE407AA6EE21
:100FD000A67A74EEA77A80ED005AA7EEA77AC3ED41
:100FE000005AB1EEC70AC1ED006AB4EE400AF1EE54
:100FF00010FAC2ED007A41F01284F7EE007AC7EEE3
:10100000807ADFF814A1D2ED005A91ED007A93EDC9
:10101000006AD0ED006A9FED4F8A27EE866A67EE80
:10102000A66A27EE877A67EEA57A83ED006AC2ED9D
:10103000007AC0ED006A81ED007A0EF089F9D5EDF5
:10104000080A95ED070A19F011FE20EE080A19F0BA
:101050002BFD95ED060A049BB1EE400A188019F0AD
:10106000A7FDDFED3D7A37EEC00A20EE080A19F041
:101070001BFD049BD5ED000A95ED030A588019F07D
:10108000F5FDDBED557AE0EE487AB0EE670A19F02F
:101090000BFD82B21304234B95ED086ADBED567A03
:1010A000B3F9023095ED048A95ED033A95ED010A06
:1010B000D5ED073A58BFAAF80420B4EEE76A07EE68
:1010C000903A184B98F80020B3F9003095ED054A96
:1010D000D5ED004A95ED065AD5ED025AF8EEE77ABD
:1010E00006EE903A0F4BF8EEE66A27EE888AB3F9DF
:1010F0000430A6EE838A44BF00F56160AAF80400BC
:1011000007EE103A27EE800AB8EEC77A67EEA37AA8
:1011100026E000BFD41E0020081F002000000000B1
:10112000BD378635C41E0020DB0F4940DB0FC940A8
:10113000DB0F49C00AD7233C7C380020C2B8B23E3E
:10114000024E002074380020D8040020703800209F
:10115000783800204C3D0F44DB0FC93F2C1F002086
:10116000F1EE10FACCBF42F0080222F00802A7EE1E
:10117000048A88F800207A78A6EEA40A012AE6EE0E
:10118000857AB1EE488AA7EE250AE6EE077A00F0E6
:10119000BF85C44B1B8807EE103AB8EEC77A77EECE
:1011A000C77A9BED597ADBED588ABF4D39EE077A45
:1011B00077EEE87A89EE079AE9EE278ACBED588A2E
:1011C00019F072FCDBF8687139780BF07FF92B6845
:1011D000B0EE480A1844286019F066FC39780BF024
:1011E00075F96B68B0EE680A1844686019F05CFC29
:1011F0007978AE4F0BF06AF9A968DFF8D4E23B6862
:10120000DEF80020084419EE901A01331144A8605A
:10121000CEF800103B60FFF710B8012388F840318A
:10122000A8E54FF4FA73FFF703B9049890F8190191
:1012300018B19842B4BF1B1A00230698002800F08A
:1012400053810A98417807EE903A06EE101AB8EEEC
:10125000E77AB8EE466AC7EE047A86EE246A67EE4D
:10126000A75A75EE466A67EEA55A67EEA67AE6EECD
:10127000257A27EE277AFDEEC77A17EE903AAEF878
:1012800000308B499DF82030CB55424504DABEF83A
:1012900000305B42AEF800300137032F0EF1020E32
:1012A0007FF4B7A8FFF700B9CEEB0502B84692B2BB
:1012B000804BB3F806E0B8F1000F00F055827E4B8A
:1012C0001B689D88D9880FFA8EF06F1AB84200F318
:1012D00032847A4D19882B680120B3F800C08BF84E
:1012E0009802ABF89A12ABF89CC2ABF89EE28BB2B4
:1012F0001FFA8CFCCCEB030080B212B20FFA80F81C
:10130000904580F225826E4B012119705EB14946ED
:1013100009EB46070B8813FB00F393FBF2F321F86C
:10132000023BB942F6D108EBD8780CEB68081FFAFB
:1013300088F21346002E3FF4C0AA1099614F087836
:101340005D49D7F800C009680F910FFA8EFE07EECD
:1013500090EA12B257492D68B1F90680DBF8A01265
:101360000A91B8EEE75A07EE902A1BB200F004008B
:10137000B8EEE76A07EE903A9BF898120C91C3B268
:101380000CF010000CF4805CCDF818C04E49DDF86C
:1013900048C00893F8EEE75A00224C4B03EB0213C7
:1013A000D3ED006A39F9123065EE267A07EE103A6D
:1013B000F4EEC67AF1EE10FAB8EEC77A3ED4F4EE47
:1013C000657AF1EE10FAC8BFF0EE657A77EE277A0B
:1013D000FDEEE77ACDED047ABDF8103021F8023B3E
:1013E00038B10A9FB7F810E0F045BCBFAB8821F8D0
:1013F000023CBCF1000F14D0B5F804E0B5F802A02F
:101400001BB2734503DB5345A8BF53469E4621F8E4
:1014100002EC08B1089BEBB90132B242BDD1FFF733
:1014200054BA069F0FB30C9F5FB1B5F800E00F9F51
:101430001BB27345B7F800A0E5DAE8E7F0EE467AAC
:10144000C4E70F9FB5F802A0B7F802E01BB27345DE
:10145000D9DADCE7069B002BDED10A9B1B8A984574
:10146000BCBFAB8821F8023CD6E7B5F800E0B5F880
:1014700002A01BB27345C6DAC9E7B8F9003006927C
:1014800000EE103A3846B8EEC00ACDF810C00AF0A7
:10149000FBFC19F009FBDDF810C0AAF80000069A61
:1014A0005EE400BF08040020D83A0020D43A0020AF
:1014B00050360020304B0020F0370020F437002059
:1014C000154E0020C44D0020F01E00208016002084
:1014D0001C4E0020BD4ABE491360BE4B10911193B3
:1014E000DFF834A3FFF753B8BB4880FB031CD817C1
:1014F000C0EB6C1CB94931F81C100CF101000D4611
:10150000B64931F910000C906FF0630000FB0C330A
:101510000C9829B2401A00FB03F3AF4880FB03C0CC
:10152000DB17C3EB60132B44AEF80030A9E6DBF801
:101530007830AB4F1B789FEDAB8A049300264FEABF
:101540008608B0F57A7F08EB060300F0698135F96B
:1015500016103A6906EE901AA34916EE90AA51F8B1
:10156000261001320BEB83030BEB080E5144012ACA
:10157000C3F88C20CEF8B810F8EEE66A00F061816E
:1015800093ED1F7A93ED216A07EE902A76EEC75A03
:10159000F8EEE77AC5EEA77A77EE277AB0EE467ACC
:1015A00076EEE76AC3ED207AA5EEA67AC3ED1F7A40
:1015B00083ED227A83ED217A72000BEB0201002386
:1015C0000128A1F8C43025F8163000F06D820136EC
:1015D000032E07F11407B2D1012800F06C86013800
:1015E000ACF80000FEF799BE119B1A6817013FF591
:1015F0007DA97E4B1F6817F01D087FF477A917F4AB
:10160000805304937A4B93F800C01DD17948BCF104
:10161000010F03880DD90CF10045013D00EB450594
:1016200030F9021F1BB28B42B8BF0B46A8429BB2D7
:10163000F6D171490968498818B28842C6BF5B1A59
:101640001FFA83F84FF00008BCF1000F3FF44EA9D9
:101650006A48694906686A48664B0968B0F906E055
:10166000DBF8A0A2129D02F02052069207F01002B1
:10167000089203EB4C07049A002A41F02A801A884A
:10168000C8EB020292B21A80002D00F0FE82888818
:10169000B1F802C012B2824203DB6245A8BF6246C3
:1016A000104618800233BB42E5D1FFF71FB99EF800
:1016B0000930FF2B00F0D380524A12789A4240F250
:1016C000CE804F4A32F813309EF817200499FF2A33
:1016D0000B8000F0C1804B490978914240F2BC80F8
:1016E000474931F81280119A04991268A1F80280D2
:1016F000110645487FF518A9DBF8C8221278012A9F
:1017000000F0B88641499EF906C04A889EF91470D7
:10171000314D09881CFB02F217FB01F185FB0267C2
:10172000D21785FB0165C2EB2712C9171344C1EB21
:1017300025119BB2414403804180FFF7F5B8344A3C
:10174000109823F00103022103701170FEF767BFA8
:1017500002EBD27250102F490CEB00021B1A00272B
:1017600092B29BB20F70E5E5234D2B68B3F800C031
:101770005988BCE5DFF8A48098F800E00EF010006E
:10178000002840F051824FF0000E204B9FED158A4B
:1017900004937046FFF70ABB0022FEF796BE184B73
:1017A0002846198903F108070DF05EFF0135EDB2F7
:1017B00007F11A0637F8021F28460DF055FF0135CC
:1017C000B742EDB2F6D1FFF73DB900BFF0360020C9
:1017D000024E0020981E00201F85EB51B8250020E6
:1017E000241500200000000060150020C44D0020DA
:1017F000F4360020F01E0020F4370020F0370020DF
:10180000304B0020E84A0020DC1E0020081F00208A
:10181000F44D0020154E0020040500202C1F002050
:1018200035F916200BEB83030021396107EE902A6E
:101830000121C3F88C100BEB0803F8EEE76AC3F83C
:10184000B82008EB06030BEB8303C3ED206AC3ED5E
:101850001F6A83ED218AAFE6BEF8128043E7BEF827
:10186000043031E7002001210DF00AFFFEF7E0BE51
:101870009BF88431CB4DBBF88271002B00F00A85B8
:10188000C94BC84D1B8800EE103A05F5C470B8EE80
:10189000400A0AF0F9FABCEEC00AC44B8DED040A06
:1018A000BDF810001B78B7FBF0F0471CBFB2ABF8D7
:1018B000AC71002B00F04B84B5F8AE31DFF8048337
:1018C000049005F5D87C3FB205F5DC754FF0000EAD
:1018D000184638F8021B2A88BCF8003025F8021B8D
:1018E0008A1A0EF1010E13FB00F3BEF1040F93FBF5
:1018F000F7F313442CF8023BEBD10498AB4A80B2C7
:101900000023ABF8AE01137003B2002B40F3CE847A
:10191000A749BBF9ACE1DDF83CC0A1F1080501F134
:10192000080731F8022B35F8023BB94213FB00F3EC
:1019300093FBFEF3A2EB03032CF8023BF1D1FEF77D
:1019400031BE9C4B9C4AB3F904309C499FED9C7A74
:10195000098882FB0302DB17C3EBA2035B1A1BB2ED
:1019600008EE103AF8EEC87A27EE878AB0EE480AF9
:101970000AF0BCFDF0EE408AB0EE480A0AF0CAFD5B
:10198000904B9049B3F9023007EE103A8D4BB3F902
:101990000030B8EEC77A06EE903A67EE407AF8EE7D
:1019A000E66A20EE260AE8EEA67AA8EE870AFDEEA1
:1019B000E77A17EE902AFDEEC07A0A8017EE903A89
:1019C0004B80FEF7E9BD0DF0DDFBFFF740B87D4A27
:1019D000918801F10E0292B21C2A00F29D807A4A8F
:1019E0001288550740F19880724A734DB2F904206D
:1019F000764F85FB02053F88D017C0EBA502D21BAE
:101A000092B295B228B210F1B30F03DA02F5B472B4
:101A100095B228B2B3286E48C8BFA5F5B472007855
:101A2000C8BF95B26B4A000792F85E217EF50BAEF7
:101A3000694852B207686948524215FB02F27D7A42
:101A400092B212FB05F280FB02501044D217A2EBB7
:101A5000201211445B4A9180FEF7F7BDDFED60DA9A
:101A6000FFF719BA0A9BDB79C3F164030893FEF709
:101A7000B3BC574A127802F0100202F0FF01002AAC
:101A800000F0AF83574A5349B2F900004D4A91F92B
:101A9000F011528800FB01224A494A80FEF7DFBD5F
:101AA00083ED007AFEF764BD3E4908EB060301EBC7
:101AB0008303D3F88C10012940F32985013907EEFF
:101AC000901A93ED227AF8EEE77AC7EE277AB1EE14
:101AD000E70AB4EE400AF1EE10FA40F09486049B57
:101AE0004BB107EE903AF8EEE77AF4EEC07AF1EEF9
:101AF00010FA00F13686D8443B49D8F8B830BCF823
:101B0000000003F5FA7381FB03E15A44DB17C3EBD2
:101B1000A113A2F8C4305AE5264A2748B2F9042096
:101B20002A4980FB0250D217C2EBA0022A480A8041
:101B30000768FEF78ABD29442C4DB3F802C02B6814
:101B40008842C0F24283002059888BF89802FFF740
:101B5000C8BB274A116844F61F629142B7EE006A7B
:101B6000F2EE045A88BFF0EE465AFFF7E8B967EE86
:101B70008D5A9BED527A9BED535ADBED546A27EE5A
:101B8000886A67EEAD7AA9EE257AA9EE065AE9EEE3
:101B9000276A8BED527A8BED535ACBED546AFFF7DF
:101BA000C4B900BFA81400208C1E0020781D00209E
:101BB00060160020081F002067666666EC1C002087
:101BC00035FA8E3C48360020941E0020EA1C002086
:101BD0002C1F002088430020EC1E00208988888864
:101BE00000000000FC3A0020D34D6210F4370020C2
:101BF00064350020A54B1B68002B3EF487AB0BF12E
:101C000008080127414630469FEDA10A0AF064F911
:101C1000CBF874700137042F08F124089D4BF1D1E3
:101C200001229A71FEF772BB13F020033FF4ABADB3
:101C30000EF0020000283FF4A6AD974B1B78042B52
:101C40007FF6A1AD954B1B88B3F5967FC0F07985E3
:101C5000934B94481B889FED948A049007EE103AAA
:101C6000B8EEC77AF2EE046A87EE267AB0F904304D
:101C70004FF0010E002007EE903AF8EEE77A77EE8B
:101C8000C77A27EE888AFFF791B80888B1F802C0B2
:101C900012B2824203DB6245A8BF6246104618803A
:101CA000BAF810209645BFF6FDAC089A002A3FF41A
:101CB000F9AC8A881A80F5E4B1EEE70AB4EE400A7E
:101CC000F1EE10FA40F0B985F7EE007AC7EE807AAF
:101CD00095ED076A95ED085AD5ED065A2BEE27BA11
:101CE0006BEEA7BA2CEE27CA25EE4B7A66EE6B6A2E
:101CF00065EECC7AECEE056AABEEA57AEBEE067AF1
:101D00003DEE26DA38EE078A7DEEA7DAFFF7F5B862
:101D1000109B1B7813F0040FDBF85C3112D1002B01
:101D20001A46B8BF03F13F02A3EBA21307EE103A25
:101D3000B8EEC77A37EE277ABDEEC77A17EE103ABB
:101D40008BED577A002BB8BF3F339B1107EE103A4B
:101D5000B8EEC77A77EEC77AFFF723BAF0EE466A95
:101D6000B0EE465AB0EE467A8BED526A8BED536A6E
:101D70008BED546AFFF7D9B84C4B1B88DE0540F158
:101D800010844B4AD0F8A032518810889288ADF860
:101D90005C00ADF85E10ADF86020D989454BB3F812
:101DA00006C0404A444DB2F90230B2F9002043481F
:101DB000B5F800E03F4D4FF47A7603F5E16302F5A4
:101DC000E16206FB03F306FB02F2C1EB0C0CADF87B
:101DD0006AC080FB038C80FB028010442F886E88D1
:101DE000AD889C44D217DB17C2EBE022C3EBEC2397
:101DF0007F1AA3F5FA73A2F5FA722E48ADF8743083
:101E0000ADF876202B4B2B4AADF86470294F8089B2
:101E10001B895289FF89761AADF86660461A2848F0
:101E2000ADF870605B1A521A6D1AAEF2DC5E791A68
:101E3000ADF86C30ADF86E20ADF862E0ADF86850EA
:101E4000ADF872100346002223F8022F1D498B4281
:101E5000FAD11D4BDFF878A01B780C93002B00F013
:101E60007B84119BDAF800E01B681293A1F10E024B
:101E7000164B04920022CDF83CE0CDF854A0DFF8D8
:101E800054C014909E4692463BE000BF241F0020A1
:101E900000000000A81400202D1F00203A1F002081
:101EA0003C1F0020081F002035FA8E3C941E0020A5
:101EB00048360020304B0020F01E0020C5B3A29110
:101EC000DA1E0020EA1E0020F837002050170020FC
:101ED000B4390020023800200122153302FA03F33E
:101EE000129A134011D1AEF800300AF1010A0C9A8F
:101EF0005FFA8AF39A420CF1070C0EF1020E40F2DF
:101F00002E819CF80030002BE6D11CF8012C1CF827
:101F1000060C0A920F9A1CF9023C1CF8037C1CF870
:101F2000056CC0EBC00102EB4101B1F90220B1F92F
:101F30000050521B92B2C34D02FB03F385FB038595
:101F4000DB17C3EB651355085B1B9BB20895069323
:101F5000BFBB1EAB03EB460535F81C5CAEF800506A
:101F600001231CF9047CD1F80A1003FA06F8B54ED7
:101F700017FB05F586FB0536ED17BDF9183018EA95
:101F8000010FC5EB661514BF4FF0FF3101219D42D3
:101F90000FDB9DF9283003FB02F2AA4B83FB02639F
:101FA000D217C2EB6312089BD31A1BB2AB42A8BF75
:101FB0002B46049D35F8102003FB012325F8103033
:101FC00093E71EAB03EB4608BEF8005038F91C8CB3
:101FD0002BB2434513930DDBC2DD139BDF1B47453B
:101FE00003DBBB42A8BF3B4698461FFA88F5AEF814
:101FF0000050B5E71F44BB421D4603DCB8454546CB
:10200000A8BF3D46ADB2AEF80050A9E78E4ADFED5D
:102010008F7A92ED080AB4EEE70AF1EE10FA00F2B8
:10202000528200208A4A8A49D2880244CA80FEF736
:1020300070BB8848884A0360002143608360116058
:1020400051609160FEF779BB814A8448B2F904106F
:10205000B0F904500029B8BF49425A42521A954279
:1020600004DB0B44AB42A8BF2B461A468280FEF726
:1020700080BB07EE903A9FED7A7ADFF80882744DC4
:10208000F8EEE77A67EE877A17EE900A15F0CAF84D
:1020900041EC100B41EC180B18F022FC6C4BB3F91F
:1020A00000008DED040B15F0ABF8B0EE480AF0EE31
:1020B000680ACDE9060118F067FC654BB3F9040026
:1020C0008DED080B15F09CF8DDE90623CDE90A013A
:1020D000DDE9040115F0FAF8DDE90A23CDE90C0188
:1020E000DDE9080115F0F2F802460B46DDE90C01C6
:1020F00014F03AFF15F0FCFAB0F5FA7F0746A8BFD6
:102100004FF4FA774745B8BF4746DDE90A23DDE9D2
:1021100004012F8015F0DAF8DDE90823CDE9040188
:10212000DDE9060115F0D2F802460B46DDE90401AF
:1021300014F01AFF15F0DCFAB0F5FA7FA8BF4FF4DF
:10214000FA704045B8BF4046A880FEF734BAB5F8EB
:10215000AE01013880B2A5F8AE01FFF7D5BB1498E7
:10216000DDF83CE0DDF854A03E4B364F1D7871465B
:1021700009E03D4E36F81220134403803B4B984251
:1021800001F10E0112D030F8023F91F9062012FB46
:1021900003F287FB0263D217C2EB631303804A7A10
:1021A000FF2A01D0AA42E4D38A88E5E79BF8A4324B
:1021B0000893013B0693FEF7B0BB2D4A92F8EA2143
:1021C000002A3EF49BAAFEF79CBA5988E646FFF720
:1021D00088B8284B1093284B1193DFF8ACA0FEF77A
:1021E000D6B9DBF8C451DFF8A4E0E878002800F0A5
:1021F000AE81224A1C48B2F900C0B0F90600AA78A4
:10220000CCEB0005002DB8BF6D42954240F3FC8138
:102210000F4DB5F806801A4D60452960C8BF52427F
:1022200001218EF8C81192B209494244CA80FEF7D2
:1022300016BA049B002059890DF016FA0125FEF705
:102240004DBC00BF1F85EB517C3800208FC2753C10
:10225000483600203C360020D03600208C36002046
:1022600035FA8E3CE84A0020304B0020EA1E002060
:1022700088430020024E0020981E00207A1D002076
:10228000F83A00200CFEFFFF04050020A8140020EF
:1022900000000000012005F5C4711FED030A09F0DC
:1022A0001BFE012385F88431FFF7EABA0023ABF85F
:1022B000AE31FEF777B9CDF810C009F055FBDDF867
:1022C00010C0BCF80000FFF78AB9B1EEE70AB4EE1F
:1022D000400AF1EE10FA40F08682F7EE007AC7EE7F
:1022E000806AD54D95ED047AD5ED034AD5ED017A96
:1022F00095ED005AD5ED055A95ED026A28EE268A2D
:102300002DEE26DA28EE077A68EE277AADEE247AEB
:102310002EEE26EAEDEE057AB0EE478AAEEE258A7D
:10232000EEEE067A28EE080AA7EEA70AF1EEC07ACA
:10233000F4EE677AF1EE10FA40F0508267EEC87A58
:102340009FEDBE8A95ED086AD5ED066A95ED077A90
:10235000B0EE48DAE7EE86DAA7EEA6DAA7EE878ACD
:10236000FEF7BDBDB64BB74AB3F904309FEDB67A60
:1023700082FB0312DB17C3EBA2031BB208EE103A79
:10238000F8EEC87A27EE878AB0EE480A0AF0C2F85B
:10239000F0EE408AB0EE480A0AF0A8F8AB4B1B6892
:1023A000D878002800F01381A94EAA4AB6F802E0B6
:1023B000B2F902100FFA8EF3CB1A44F250618B423D
:1023C00040F37981A3F50C43A03B4142994200F3CD
:1023D000C1818342A8BF0346B6F800C0B2F90050DD
:1023E00073440FFA8CF21FFA83FEAA1A44F2506368
:1023F0009A42A6F802E040F36581A2F50C42A03AA9
:10240000914203DC8242A8BF0246114601EB0C0256
:1024100092B213B207EE903A0FFA8EF3F8EEE77A23
:1024200006EE903A27EEE87AF8EEE66A60EE277A52
:10243000A0EE267A88493280E8EEA67AB2EE046AE7
:1024400087EE067AC7EE867ABDEEC77AFDEEE77AAA
:1024500017EE102A17EE903A0A804B80FEF765B906
:102460009AF80030002B7EF492A87C4B01221A705F
:10247000FEF78DB8724A9EF90650B2F902C017886D
:102480009EF91410764A6D420CFB05F511FB07F11D
:1024900082FB016C82FB0562C917C1EB2C11121182
:1024A000ED171FFA81FCA91A6144551B0B446544C2
:1024B0009BB2454403804580FEF736BA01F480584C
:1024C0003246FEF7F5BE18F073FBDBED747A20EEB2
:1024D000270A18F0E9FAB0F5617FA8BF4FF46170E0
:1024E00007EE900A9FED5F0AF8EEE77A87EE800A22
:1024F0000AF010F807EE905AF8EEE77A27EE800A15
:1025000018F0D2FA584B80B21F6833688AE5DFEDC5
:102510004B7AFFF7DCBA554A92F83E27002A00F0C2
:102520000781012A40F002810FF0DAFEDBF818374C
:102530009BF81C271344B3F5807FA8BF4FF480732A
:102540008342A8BF0346CBF81837FEF792BA484932
:10255000484AB1F900C0B2F90620A978CCEB0202D2
:1025600082EAE275A5EBE2758D4258DD02EBD2728C
:10257000414842495210026001220A708EF8C82177
:102580003F4ADBF8CC1110680A8849888444944596
:1025900003DB8C456246A8BF0A463A49CA80FEF76B
:1025A0005EB8394A394B12681D885988ADF85C50BD
:1025B0009B88ADF85E10D504ADF860306CD4D0F8CF
:1025C000A0322C4AD989B2F806C0FFF7EABB214BEA
:1025D0002149B3F90020B3F9023007EE902A06EE44
:1025E000903AF8EEE77AF8EEE66A27EEE87A60EEDF
:1025F000277AA0EE267AE8EEA67AF2EE046A87EE53
:10260000267AC7EEA67A1FE79EF8C821002AB7D01F
:102610001F4A8EF8C8111F4912680A60B0E79EF879
:10262000C821002AACD01A491A4A144D09688EF8FC
:10263000C80111602870A3E77C380020000000006A
:10264000081F00206766666635FA8E3CF01C002085
:10265000701D0020741D0020104E0020144E00201C
:102660001F85EB51EFB6B044EC1E002088430020DC
:102670007A1D0020304B0020244E0020003B00201B
:10268000FC3A002048360020C44D00208C36002043
:10269000101F0020581F0020B349D0F8A022B1F825
:1026A00006C0D1890FFA8CF28A42BCBF5B42ADF8FA
:1026B0006030FFF776BBAD498B42BCBF03F50C43DE
:1026C000A03382E6A94B9A42BCBF02F50C42A0326D
:1026D00096E6069A12B11A88FEF7D6BFBAF80E200F
:1026E000F088C0EB020CE64509DD1044864506DAA9
:1026F0009645CCBF728832881A80FEF7D3BF9645C4
:10270000B3F900000BDD7288B1F802C09042FFF609
:10271000D1AA60450246A8BF6246FFF7CBBA8A88B5
:10272000B6F800C09042F4DAFFF7C4BA1846FDE6E6
:10273000D6F8140703689B68984796F81157023D2E
:10274000F4E64FF0000E8A4B9FED8A8A04937046A0
:10275000FEF72CBB0B463FE6874B0493DAF800E00C
:1027600002E54FF47A73ACF80030FDF7D6BD2B4686
:102770001D46FEF732B8082283F81127FEF7FFB98D
:10278000642193FBF1F10BEB410C6046BCF974C181
:10279000B0F976016FF0630505FB0133CCEB000067
:1027A000BDF8441000FB03F393FBF5F3CCEB0303FC
:1027B00013FB01F371498B80FDF76FBE0C920A91F8
:1027C000CDF820E0069018F0F5FB0C9A0A99DDF898
:1027D00020E00698F0EE40CAFEF729BB18F0EAFBAD
:1027E000F0EE407AAAE5B0EE670A18F0E3FB74E574
:1027F0004FF0FF310622CBF82037CBF824178BF8A7
:102800001127FEF79FB9B0EE670ACDF820C00692F7
:1028100018F0D0FBDDF820C0069AFFF760B9B0EEE3
:10282000470A0C930A920891069018F0C3FB0C9B80
:102830000A9A08990698FEF7E0BBB0EE670A18F00E
:10284000B9FBFFF741BA4E4B4E48B3F8421111F0B5
:10285000CDF9DBF820370133CBF82037FEF772B91A
:10286000474B4948B3F8401111F0C0F9F1E7444B28
:10287000434993F8103745480E2202FB031393F89F
:10288000121711F0B3F9E4E73D4B414893F83C17B8
:1028900093F83D2711F0AAF9DBE73E483E493F4A4D
:1028A00011F0A4F9D5E73E483E4911F09FF9D0E771
:1028B0003D4811F09BF9CCE711F042F800283EF4B6
:1028C00041A94FF480520923ABF82E278BF811371A
:1028D000FEF738B92A4B354893F87E1193F87F21DB
:1028E00093F87D3111F082F9B3E7DBF82827304BFC
:1028F000D5040ED40B22C3F82027AAE72D4B2E486F
:10290000198811F073F9A4E721692C4811F06EF9C8
:102910009FE71B4B2A4893F87A1111F067F998E763
:10292000284B1B681C0594D5154B2748B3F882111A
:10293000B3F9802111F05AF98BE72448BBF82C1722
:1029400011F054F985E7EB5C002B7EF4FBA8002125
:102950004FF0FF320323CBF82017CBF824278BF856
:102960001137FEF7EFB800BF304B0020B0B9FFFFC2
:10297000081F002000000000DC1E00204836002058
:1029800088430020340002082400020818000208CE
:1029900004000208D8FF0108ECFF0108F8FF010855
:1029A000B8FF0108D0FF01089CFF01087000020871
:1029B000A814002008040020540002084400020863
:1029C00060000208C44D0020980002088C00020834
:1029D0002DE9F04F944B95481A68954E2DED048BD8
:1029E00002F59C43017820338DB03360002900F05C
:1029F000F683904BDFF880821B68DFF844928E4CA0
:102A00009A4288BF01F1FF3B8C4B88BF80F800B031
:102A10000393D9F800008A4DC70403D52368D9076A
:102A200040F18386804BD8F800101D688B7A002B0C
:102A300040F07983020447D5D6F898207C4FAA1A33
:102A4000002A41DB97F89CE07E4A91F80B8092F8CF
:102A500005C07D4A0EF1010101F00F0132F81C2082
:102A600087F89C1007EB010C05F59C4E0EF1200E2B
:102A700092B2C7F898E092FBF8F207F19F018CF848
:102A8000A020AF3711F8012F1344B9429BB2F9D1FE
:102A90001BB2002BB8BF0F331B11642BA8BF6423DC
:102AA00023EAE37307EE903A684ADFED696AB8EE0D
:102AB000E77ADFED687AC7EE277A67EEA67AFCEE52
:102AC000E77A17EE903A1380C7050AD5624BDFF814
:102AD000ACA19D429AF8022000F25682002A40F0F2
:102AE00057825E4B5E4D0293DFF894B10BF5C470D4
:102AF000BBF84E1108F0D2FE8446002840F0A584B1
:102B0000D4F8008018F0006A04D0564FBB78002B30
:102B100000F02E86029B1A7802F0040202F0FF03F6
:102B2000002A40F089814F4F4F4A504912684FF0B8
:102B3000010E002002F57A72C6F8B820087087F8F6
:102B400003E087F802E0002B40F0938495F800E062
:102B50009BF8E281394A9BF8E331BBF898A1BBF8B6
:102B60009A71019318F1000818BF4FF0010802F1A3
:102B70000800002332F9021B9B085145C4BF63F0D3
:102B80007F03DBB2B942B8BF43F040038242F1D1C8
:102B900096F8C12026499A4200F05585002281F816
:102BA000C22086F8C130224ABEF1000F40F0F48006
:102BB0002368DF0740F1688182F8C3E0BCF1000FB1
:102BC00000F0B88596F8C230194A142B17D12B782B
:102BD0006BB192F8C1305F2B00F0E686B8F1000FC0
:102BE00005D096F8C130124A7D2B00F01587029B64
:102BF0001B7803F00403DBB2002B00F04F81D9F8FF
:102C000000301B4A1B4D019203F00403002B40F0DF
:102C10008181D5F800A000230AF183070AF1D308C7
:102C20002360012531E000BFBC3A0020CC4D0020DC
:102C3000E81B0020C84D0020981E0020304B0020CB
:102C4000C44D0020AC240020BC2400201C1F002008
:102C500000C07F440000C842404B4C00024E0020A0
:102C60000405002002040020643500207036002096
:102C7000901E0020EC1E0020C04D0020D04D0020F2
:102C8000884300200437474514D03A787B7817F8FA
:102C9000010C9A42F6D2394608F0C2FD0028F1D064
:102CA00017F8022C236805FA02F20437134347454C
:102CB0002360EAD1A64B1F78002F00F00E84236812
:102CC000990773D4D9F80030D9056BD4012009F0E5
:102CD0002FFC23689F4D5F0773D5012009F028FC66
:102CE0002988880740F16E8511F003014FF001003B
:102CF00018BF01460CF0C4FC019B1B6813F00A0FBF
:102D00001ED02268944FD10640F1B0842B885B0717
:102D100040F1BE84900640F1A0842B88590640F112
:102D2000C88452065CD58D4B8D49B3F90420019BB4
:102D300081FB0201D217C2EBA1021B68A6F8042195
:102D40009B0651D4236819054FF480703ED509F0D5
:102D5000FFFB9BF80530082B3ED00E2B3CD0D9F85A
:102D600000305A050AD59BF82032002B78D0236812
:102D70001F0379D40FF004FD11F0A2F996F89131F8
:102D8000784F012286F89021002B40F0AC810DB0E5
:102D9000BDEC048BBDE8F08F92F8C220142A7FF4BA
:102DA0002EAF18E7704BDB78002B8FD0019B1B6890
:102DB0009A078BD5674D2B88DB0702D4012009F0D9
:102DC000C7FB022009F0B4FB29888DE709F0B0FBAE
:102DD0009BF80530082BC0D1402009F0A9FBBEE7C5
:102DE000019B1B689B06ADD5604B1B789F0740F18C
:102DF000B8815F4B1B78042B40F2B3812368DFF866
:102E000058812A8813F4007A40F0DB8502F010071D
:102E1000BFB25049002F41F0B880590501F1E88058
:102E2000900601F10F8196F80C21002A00F0D1855F
:102E3000002F40F0A68186E7D9F80020D1063FF5A3
:102E400072AEBAF1000F04D04A4FBA78002A7FF46C
:102E50006BAE08F02058B8F1205F7FF464AE75E6E1
:102E6000029B1B785B0785D5434B00223C201A70E0
:102E700011F060FA002881D012F06CFB3C2011F0B8
:102E800059FA0028F8D179E7029B1B78590700F11D
:102E90007C8492F8C230142B7FF4B1AE96F8C170E6
:102EA000304A572F00F06387D9F80030DFF8D4A0FC
:102EB00013F0040302D05A2F00F0D9855D2F00F0E3
:102EC0007F875B2F00F0C0875E2F00F0C385562FF1
:102ED00001F0CF802B7843B16F2F01F0DB80B8F188
:102EE000000F02D07E2F01F0D580972F01F0B48023
:102EF000A72F40F068871D49D9F800300A781F488D
:102F0000019042F0040203F004031D4D0A70002BEF
:102F10003FF47FAE96F8C630124A002B00F0818352
:102F2000029B1B785F0740F17C83039BB3F906107B
:102F3000BBF89831994240F37483236813F0010081
:102F400040F07083322182F8C600A2F8CA1069E30B
:102F5000174E0020941E0020981E0020081F0020FD
:102F600067666666E81B0020D04D00202C1F0020FD
:102F70002D1F002002040020F04A0020901E002097
:102F8000EC1E0020C44D002012B901228AF8022054
:102F9000B14B9AF8217002931B7820689AF82010A0
:102FA000AE4DDFF8EC820494C3F38003A7F1010770
:102FB000B7FA87F77F09002F0193C0F3806314BF2E
:102FC0004FF0000B4FF0030B0593052900F200842E
:102FD000DFE801F0716A45331903A14B1A68A14B70
:102FE000D2881B68642101FB02334FF48060002209
:102FF000CAF810308AF820208AF8032009F098FADD
:103000009AF82010E1E7002F00F09986954BDAF846
:1030100018201B689A4280F0DB832B7823B9049B2D
:103020001B68D80700F1D483029A1378052123F096
:10303000020313708AF82010C7E7029A137843F04E
:103040000203137013F0FCFC864BDAF81C201B689B
:1030500004211344CAF818308AF82010B5E7002F6D
:1030600000F0148305238AF820300123019A002AF6
:1030700000F00283D6F8B020039CD28978492280E0
:103080006280A280774A08681168DAF814204088C4
:10309000E0808A42C0F06983002B01F0238098F819
:1030A00020104FF0020B90E7002F00F0358405212F
:1030B0008AF8201089E7019B002B40F00D84059BC6
:1030C000049C4FF48060002B40F0FC8209F030FA41
:1030D0000021CAF81010BBF1000F3FF405AD5846AF
:1030E00008F042FC00E5019B1B6858077FF54FAED6
:1030F0002368190740F15C862C8804F00804A4B208
:10310000002C7FF444AE082009F022FA5648039DB3
:103110005649574A574BED880068A7F89251086006
:1031200014601C6033E6013B0A7B039931F81330CD
:103130001AB1C3F53B6308339BB21BB2A3F57A7394
:10314000B3F57A7FA8BF4FF47A7323EAE37307EEEF
:10315000903ADFED496A494AB8EEE77ADFED487AFE
:10316000A9E42B8803F03003002B3FF4EBAD1020D3
:1031700009F0DEF9202009F0DBF9002386F806319A
:103180002368404A049300204FF0000A02F1280E01
:1031900002F1500702F1780802F17C0C01463A4B2B
:1031A000C2F800A05160C2F808A0CEF800A0CEF886
:1031B0000410CEF808A0C7F800A07960C7F808A0EE
:1031C00023F8101028F810102CF8101014320EF1FB
:1031D000140E1437002800F0A583049BB3E5DFF834
:1031E000B480DFF8B4908B46C246374616E0195DCE
:1031F0002648D9F800309847032C63D8DAF8003015
:1032000004F1100203EB820133F822504A880028AF
:1032100044D106EB44040BF1010BA08096F8285032
:103220005FFA8BF45DB9D8F80030184A9B7E1578A8
:10323000DA1CAA42BCBF1D1DEDB287F82850AC4273
:1032400042D2072CD8F80030D1D9D9F800300F4835
:103250002146984780B2DCE7024E0020040500209A
:10326000FC4D002064350020101F0020581F002056
:10327000F83A0020FC3A002000C07F441C1F0020C8
:1032800000007A44F81C0020104E0020E84A00207C
:10329000D04D0020C04D0020080500204FF47A7367
:1032A000401B03FB00F0521B40F6C90390FBF2F0F9
:1032B00000F57A70984200F3088240F2EE239842BB
:1032C000B8BF184680B2A4E7DFF85492874BD9F80C
:1032D00000201B68029342F201031340B3FA83F308
:1032E0005B09002B40F01E82814F96F82A207978E6
:1032F000397086F829201AB17D4F3A7882F00102A0
:1033000096F82C107B48CDF824900C46A0FB04E0E6
:10331000400800EB4000201A77490494C0B20590A1
:10332000029891F800C07549754FD8F800B0039124
:103330000F2400F5967086F82B4006900024019328
:10334000CDF82080E1468A465DBB9BF81A50E81C08
:103350004845C0F27C824846844286F828904D4613
:1033600022DA002A00F036826648BBF816E030F810
:10337000140086454FEA440800F23282BBF818E098
:103380008645C0F02D826049069B41F82430019BA0
:10339000002B00F031822AF8080001340637002D96
:1033A000D3D028468442DCDB96F82B30DDF8208031
:1033B000DDF82490554CA3F10F03B3FA83F35B09B6
:1033C00086F894301BB123685B0140F1C2845048F9
:1033D000464B826819684368454FC1608A1A9A4211
:1033E00084BF002380F82130434BDFF838A10194DB
:1033F0000121797039701F78D8F8003054464FF0A9
:10340000000B9A46ADB99AF81A50EB1CBB42C0F2B9
:103410005B823B469B4586F828703D465FFA8BF001
:103420000CDA13F08DFC0BF1010B24F8020F002DC8
:10343000E9D02B469B455FFA8BF0F2DB019C049BA5
:10344000013386F82C30FFF7E4BAD9F8003013F0D6
:10345000100F029B00F052811B7803F00403DBB2D3
:103460002C4A234F002111700022FA70002B3FF4E8
:103470006DABD9F80030DB067FF568AB264B1B78C7
:1034800003F0100303F0FF07002B7FF45FAB95F808
:1034900000E0DFF89480BEF1000F00F0BD849BF8DF
:1034A000E431BCF1000F40F0458543B10F4AD6F836
:1034B000BC301268194F9B1A002BC0F207861020EF
:1034C000CDF804C008F050FA012386F8C03095F812
:1034D00000E0DDF804C0FFF73BBB0AF1D205DFF8DE
:1034E0003C8004940AF58D7A23E000BF6435002007
:1034F00002040020ABAAAAAAE84A0020304B002010
:10350000181C0020EC1B00207C1D0020981E0020B1
:10351000D04D0020703600202C1F0020E81B00201A
:10352000C44D00202E4B00200405002006355545D3
:103530002DD02A786B7815F8010C9A42F6D22946DC
:1035400008F06EF90028F1D02879AB78C54C95F8D1
:1035500003C000EB400206EB8202013BD2F8D4101C
:1035600003EB430323448B42E0D098F8001182F828
:10357000D0C0012404FA00F0063521EA00015545C7
:10358000C2F8D430C2F8D87088F80011D1D1B64B47
:10359000B64AD3F800A0126896F82930B44D9FEDD2
:1035A000B59ADFEDB58A049C059204930027D046B6
:1035B0002B687BB393F800A0BAF1000F2AD069689A
:1035C000C1EB080100290ADB96F800010121B9408E
:1035D00020EA010108F5FA7086F800116860049A83
:1035E000C2B115F8041C58780431C9B2002840F063
:1035F000AA80039ABBF8960132F9111000F1C80EA7
:10360000714540F3918196F800119B783941CA07C2
:1036100040F117820137042F05F10C05C8D1FFF7DF
:103620004EBB2368D80353D596F8CC20934B2AB9C8
:1036300093F8C42012B93222A3F8CA20012386F8D5
:10364000CC30FFF7E6BA91F8C220F92A3FF6A9AAD2
:10365000013281F8C220FFF7A4BA402008F068FFC9
:10366000226852063FF55FABFFF7BABB042008F0B3
:103670005FFF3A68FFF74EBB7B4B1B6847F2305346
:103680000321CAF81C308AF820109EE43B46EDE482
:10369000042008F05DFF7A4B7A49B3F904303A68A8
:1036A00081FB0301DB17C3EBA103A6F80231FFF78F
:1036B00031BB402008F04CFF226852063FF533AB87
:1036C000FFF78EBB08F044FF02E540F6CA00A0E514
:1036D00096F8C430694A002B3FF49BAA029B1B78E2
:1036E00003F0040303F0FF01002B7FF492AA0123EF
:1036F00082F8C41082F8C530FFF78BBA1A7802F04E
:10370000040202F0FF03002A3FF4AAAE226812016D
:103710007FF5A6AE5C4FBA78002A40F043845B493F
:103720000A70A1E696F82920E5E513F089F92868E2
:10373000FFF778B9029B1B78D8077FF543AA12F0F0
:103740006DFFFFF73FBA012800F0938396F8001150
:103750000123BB4001370B43042F86F8003105F1EC
:103760000C057FF425AFFFF7AABA4FF0020B85E7EF
:10377000019010F019FE454BDDF804C001280CBF84
:10378000187083F800C0FFF7C5B992F82930002BF4
:103790003FF435AA3E4BDB78002B7FF430AA92F839
:1037A000C3300133DBB2032B82F8C3307FF60AAAA1
:1037B000019B1BB9BCF1000F7FF404AA13F040F980
:1037C000FFF700BA022008F0C3FE2988FFF78CBA81
:1037D000049C80E4BBF8160000283ED04FEA440861
:1037E0002C48029B50F82400984259D9019B3AF882
:1037F0000800002B7FF4CFAD059996F878C008EB50
:10380000040E8E4406EB4E0EAEF83000BCF1000FF5
:1038100008D1049B022B7FF6BEAD184B4FF001017F
:1038200083F87810B7F800C0B7F802E0B8881A4BF0
:10383000E64486441FFA8EFE0FFA8EFC83FB0C30A2
:10384000164BA0EBEC7023F808E080B2A3E504353A
:10385000EDB286F828502846A4E510464FEA440801
:1038600091E500BFA8DF010864350020281F002073
:10387000BC1C002000007A440000C842E81B002065
:10388000081F00206766666602040020703600206C
:10389000D04D00207C1D002056555555641C00203D
:1038A000E0B2079213F04CFA032C079A12DCC74BD4
:1038B00093F82BE0012303FA04FCC44B2EEA0C0E10
:1038C00080B283F82BE062E50435EDB286F828502B
:1038D0002B46AFE580B25AE5D6F8B000B6F8B41082
:1038E00007F0DCFF012800F0B282059B2BB1B84B3A
:1038F0001B681B79002B40F08480002F7FF468AF99
:10390000B44BDAF810201B689A42C0F046820121BD
:1039100088F82010FFF759BB13F002FB9AF820102B
:10392000FFF753BB01203AE4C83881425DDA96F8CC
:1039300000119B783941C8073FF56CAE5B4208EE39
:10394000103A012008F052F80AF1FF33132B3FF62A
:10395000FDAE01A252F823F09F3B0008733B000824
:10396000433B0008FF3A0008473C0008ED3B0008D5
:103970005F3C0008CD3A0008EB3C0008C13C000861
:10398000153D00084D370008FF3A0008233B0008AA
:10399000ED3B00085F3C0008CD3A0008BD3C000844
:1039A000B93C0008A33A0008029B1B7803F004030B
:1039B00003F0FF07002B00F0558213F041F8FFF7EA
:1039C0000DB9D00640F1CC8296F80C71002F7FF42F
:1039D000BAA90E2007F0C8FF012386F80C3123682E
:1039E000002F7FF4CEABFFF7AEB996F8003101217E
:1039F000B94023EA010308F5FA7186F800316960DD
:103A000008E613F08DFA03214FF47A738AF8201038
:103A1000CAF81C30FFF7D9BA029B6F4F1B7803F02E
:103A2000040303F0FF0A002B00F0D28213F008F821
:103A30003B7803F00403DBB2002B7FF4E0A8FFF730
:103A40002DBA08EE103A002B3FF47BAF022007F0AE
:103A5000CDFF79E7022303258BF8103708F0B8FD76
:103A600008F082FE284607F0C1FFFFF7C8B892F8B9
:103A7000C410002940F0168392F8C63083F0010389
:103A800082F8C630002B40F00B830D2007F06CFF4E
:103A9000DAF80030514A0192514D03F00403FFF768
:103AA000B5B8504B1B681978022900F05883597D2E
:103AB00018EE102A0A44C82A1146A8BFC82121EAD4
:103AC000E1715975142007F021FF3FE6454B186856
:103AD0000178022900F07B83817D069318EE103A6D
:103AE0001944C829A8BFC82121EAE17181751120B4
:103AF00007F00CFF069BBAF1110FD3D126E6059A09
:103B000018EE103A517919446429A8BF642121EABA
:103B1000E17151710D2007F0F9FEBAF10D0F3FF47C
:103B200015AE059A18EE103A11790B44642B19461C
:103B3000A8BF642121EAE17111710E2007F0E6FEB1
:103B400004E60598284B90F803A018EE101A51448B
:103B500064298A46A8BF4FF0640A2AEAEA7A80F804
:103B600003A0196807F0E2FD5146032007F0CEFEDE
:103B7000ECE5059818EE103A90F801A05344642B38
:103B80009A46A8BF4FF0640A2AEAEA7A80F801A0B0
:103B900007F028FE5146022007F0B8FED6E505984A
:103BA00018EE103A90F800A05344FA2B9A46A8BF9A
:103BB0004FF0FA0A2AEAEA7A80F800A007F012FE2B
:103BC0005146012007F0A2FEC0E500BFE81B00201F
:103BD000FC4D002064350020024E0020901E002085
:103BE000EC1E0020D44A0020D04A0020C64B1868A2
:103BF0000178022900F008838178069318EE103AC4
:103C00001944C829A8BFC82121EAE17181700F2099
:103C100007F07CFE069BBAF10F0F3FF497AD1B68CF
:103C20001978022900F07F82597818EE102A0A4488
:103C3000C82A1146A8BFC82121EAE1715970122093
:103C400007F064FE82E5059A18EE103A91790B446C
:103C500083F308019171052007F058FE76E5AA4B21
:103C600018680178022900F00683017B069318EE9C
:103C7000103A1944C829A8BFC82121EAE17101738B
:103C8000102007F043FE069BBAF1100F3FF45EAD23
:103C90001B681978022900F07E82D97A18EE102A62
:103CA0000A44C82A1146A8BFC82121EAE171D97285
:103CB000132007F02BFE49E5934BE9E7924BAEE763
:103CC000914B1B681978022900F0BA82597B18EED3
:103CD000102A0A44C82A1146A8BFC82121EAE17166
:103CE00059730A2007F012FE30E5874B1B681978DC
:103CF000022900F0F182D97818EE102A0A44C82A65
:103D00001146A8BFC82121EAE171D970092007F046
:103D1000FDFD1BE57C4B1B681978022900F0E7814B
:103D2000D97D18EE102A0A44C82A1146A8BFC82116
:103D300021EAE171D9750B2007F0E8FD06E573492A
:103D4000DAF81C000968049C0144CAF81810FFF74F
:103D5000C2B96F4A6D4BD1681B6893605B1AC82B60
:103D60007FF66DAB012382F82130FFF768BB694A0B
:103D7000D9F800304FF47A7111801A0600F1C18031
:103D8000654B01931B685B0700F1B180D9F80030E7
:103D9000624D03F00403FEF739BF13F0C1F80321AD
:103DA00040F6B83388F82010C8F81C30FFF70DB97A
:103DB00008200DB0BDEC048BBDE8F04F08F0B8BB97
:103DC0000023012548E60023BB2F0B9300F041811F
:103DD000B72F00F05B81BE2F00F06081BD2F7EF415
:103DE0000EAF4FF6FE714D4D4B4A01922A68B2F864
:103DF0006070B2F8620039440344A2F86230A2F85D
:103E0000601008F081FED9F80030002203F00403AE
:103E100086F8C220FEF7FABEBCF1000F3FF44FABAC
:103E200096F8C0E0DFF808A1BEF1000F3EF490AEB6
:103E3000CDF804C007F082FD98F800E08AF8C07061
:103E4000DDF804C0FEF784BE0123022504E6344BEE
:103E50001A682E4BD2881B68642101FB0233CAF812
:103E6000103042E50B2007F07FFD86F8C270FEF7A8
:103E7000B5BE039A93F802E032F91110B1F5617FF3
:103E8000C0F2008140F633038B42A8BF0B46A3F576
:103E90006173BAF10C0F7FF459AC22494FF496606C
:103EA00090FBFEFA087893FBFAF35FFA83FA504529
:103EB0003FF44CACBAF1030F8ABF022353461846B5
:103EC000C3EBC303184A0BEB430398BF504603F2FE
:103ED00012731360087008F01DFC0C20514607F0A7
:103EE00015FD0AF10100C0B207F080FD2EE40F4A73
:103EF000D9F80030094D0A21118003F00403FEF7C0
:103F000085BE05F035FB3BE7D44A00206435002030
:103F1000D04D0020004E0020901E0020EC1E0020FE
:103F2000FC4D0020BC4B0020281F0020184E002014
:103F3000E81B0020002B40F0C08096F8C030DC4F1A
:103F4000002B3EF405AECDF804C007F0F7FC0023CB
:103F500087F8C03095F800E0DDF804C0FEF7F8BD42
:103F6000102008F0F5FA202008F0E2FAD148011DEF
:103F700005F048FA022386F8063196F80C31002B3A
:103F800000F082802368FFF7FCB81020049108F04D
:103F9000CFFA049986F806A10127D8F800300A88DC
:103FA000FEF73BBFC449D6F8B82009688A42BFF47F
:103FB0005BAA0493019010F0F7F9DDF804C0049BAC
:103FC00000287FF451AABD4AB8701070FFF74CBAB0
:103FD0000B20019207F0C8FC3B78019A03F0040320
:103FE000DBB282F8C2A0002B7EF409AEFEF756BF0A
:103FF000DFF8DCE2D6F80811BEF900004989DFF8E5
:10400000B0820028B8BF40428842BEF609AFBEF970
:1040100002000028B8BF404281427EF701AF9206FD
:104020003EF501AF202008F093FAA54BA54A0ACB34
:1040300010461160111D536005F0E4F9012388F862
:1040400006319AE7202008F073FA002386F806313B
:1040500093E719460223C6E69B4AD9F8003001923D
:104060004FF4C872994DA6F8C82003F00403FEF778
:10407000CDBD08F049FD2B78002B7FF4A4AE0B9347
:10408000FEF7BDBD002304E70127A2E419464FF661
:10409000FE73A8E612F0C2FAFEF7B1BD0221A2E655
:1040A0000C20F3E40020012182F8C40082F8C5103E
:1040B000854A0192854DFEF7A9BD7F4A12684FF4EB
:1040C0007A7101FB0323C6F8BC3036E7CDF804C093
:1040D00012F0B6FCDDF804C087F8C0C098F800E024
:1040E000FEF736BD049C4FF0020BFEF7F8BFB8EEAA
:1040F000C80AD3ED107A80EE090A30EE270AB5EE31
:10410000C00AF1EE10FA00F10281B4EE680AF1EE95
:1041100010FAC8BFB0EE680A83ED100A0B2007F052
:10412000DDFBFFF713BBB8EEC80AD3ED087A80EECB
:10413000280A30EE270AB5EEC00AF1EE10FA00F1B7
:10414000E980B4EE680AF1EE10FAC8BFB0EE680A72
:1041500083ED080A122007F0C1FBFFF7F7BAB8EEAB
:10416000C80AD3ED0E7A80EE090A30EE270AB5EEC2
:10417000C00AF1EE10FA00F1D980B4EE680AF1EE4F
:1041800010FAC8BFB0EE680A83ED0E0A142007F0DB
:10419000A5FBFFF7DBBAB8EEC80AD3ED0B7A80EEC9
:1041A000280A30EE270AB5EEC00AF1EE10FA00F147
:1041B000B780B4EE680AF1EE10FAC8BFB0EE680A34
:1041C00083ED0B0A132007F089FBFFF7BFBAB8EEA7
:1041D000C80AD0ED0F7A80EE090A30EE270AB5EE54
:1041E000C00AF1EE10FA00F1A780B4EE680AF1EE11
:1041F00010FAC8BFB0EE680A80ED0F0A11200693CE
:1042000007F06CFB069B76E4B8EEC80AD0ED097A9D
:1042100080EE280A30EE270AB5EEC00AF1EE10FA59
:104220007BD4B4EE680AF1EE10FAC8BFB0EE680AAB
:1042300080ED090A0F20069307F050FB069BEAE485
:10424000B8EEC80AD3ED0D7A80EE280A30EE270AC0
:10425000B5EEC00AF1EE10FA6BD4B4EE680AF1EED6
:1042600010FAC8BFB0EE680A83ED0D0A0A2007F005
:1042700035FBFFF76BBAB8EEC80AD0ED0C7A80EECA
:10428000280A30EE270AB5EEC00AF1EE10FA4AD439
:10429000B4EE680AF1EE10FAC8BFB0EE680A80ED1D
:1042A0000C0A1020069307F019FB069BECE400BFF4
:1042B000E81B0020481F00206435002070360020D5
:1042C000301F0020501F0020901E0020EC1E0020F8
:1042D0004836002000000000B8EEC80AD3ED0A7A84
:1042E00080EE280A30EE270AB5EEC00AF1EE10FA89
:1042F00025D4B4EE680AF1EE10FAC8BFB0EE680A31
:1043000083ED0A0A092007F0E9FAFFF71FBA1FED4B
:104310000F0A01E71FED110A1AE71FED120A87E7DE
:104320001FED140A4CE71FED150AB8E71FED170A39
:104330002AE71FED180A97E71FED1A0A5CE71FED41
:104340001B0ADDE72DE9F04F2DED028B9D4B1B780D
:104350008DB0ABB99FED9C8ADFED9C8A9C4D984651
:1043600095F84A30012B00F022819A4B4C359D4242
:1043700008F10108F4D10DB0BDEC028BBDE8F08F5F
:10438000954E30680028F6D0944DDFF8889207F0FB
:104390000FFC0028EFD0306807F006FC0928014622
:1043A0001ED03F281CD02B688C4A002B74D10428C7
:1043B00000F0D6810C2800F0CB807F290ED0A1F12F
:1043C0002002D2B25E2A09D80BB9202906D0844A2D
:1043D0003068D15401332B6007F0EEFB3068D6E72C
:1043E0004FF0000A2C687F4FD0462CB17C483968CA
:1043F000224616F0B3F818B9BA46B8F1000F49D002
:1044000010374F45F1D3B8F1000F00F09980D8F87C
:104410000000DAF80010035D0A5D9A42204421444E
:1044200040F076816E4F04F1FF3EBE4422460BB948
:104430002D2A3DD90EF8013F01322A6010F8013FC4
:1044400011F801CF9C45F2D00AB1C24512D066489E
:1044500011F090FAC24509D358F8100B11F08AFAFE
:104460003068092107F0A8FBD045F5D95F4811F065
:1044700081FA00242B68A342B0D95D4F27443068ED
:1044800017F8011F07F098FB2B6801349C42F6D304
:1044900030687CE7B846B3E70C2859D00A290DD01C
:1044A0000D290BD07F2900F016812F2B96D886E797
:1044B000511C2020B85429607B54C6E7484F4D4812
:1044C00011F058FA3846232116F029F8002800F098
:1044D0004581C11B296089B14B1E414AF85C2028E7
:1044E00040F04F821A4443B112F8011D202903F114
:1044F000FF3035D10346002BF6D12B60314A3E4BBD
:10450000117800223A6043F80C2C43F8082C43F849
:10451000042C43F8042B43F8042B43F8042B43F8F2
:10452000042B43F8042B43F8042B43F8042B1A60A4
:1045300000293FF420AF2D4811F01CFA306826E71F
:1045400014B1BAF1000F95D0274811F013FA83E7A0
:104550002A4811F00FFA254811F00CFA306816E7D6
:104560002B60274A1F4C1268009711460022FA540C
:104570008A462768DFF868B0384615F0E6FF394606
:1045800080460246584615F0E9FF30B91BF808206E
:1045900052445278570700F0C88010344C45E8D395
:1045A000009F184811F0E6F900232B60A6E7164E8D
:1045B000164F28683D603060B246154CDFF85890C1
:1045C00032E000BF174E002000007A440000C842CD
:1045D000E842002080430020B84B0020B039002082
:1045E000803900202CE20108E8010208F0010208ED
:1045F0007F390020980E020890390020F801020847
:104600000012002004020208B44B0020441F0020C6
:10461000024E0020ECE301088443002024284FD000
:1046200023785B073DD5306807F0C2FA002800F018
:104630008680306807F0B8FA3A6892F848308346C6
:10464000002BEBD0012B3FD0022B4ED0032B53D0AD
:10465000042B5FD0052B74D0062BE4D192F84900CF
:1046600001F0BCFA002800F09980464C10F0C4FF1D
:104670003B68002283F848202378002B3FF475AE76
:1046800042464C2303FB02F33F4AD05811F09EFFF1
:104690000AF0FAFD322007F03DFA07F067FF10F04C
:1046A00019FDBBF1230FDAF8003000F05881D9F87A
:1046B00000301B785B4557D03A6892F84830CBE71A
:1046C000012382F84830AEE74D2814BF00230223AF
:1046D00082F84830C0E7013B2C492D481360002286
:1046E000CA5411F047F9306851E63C2814BF002342
:1046F000032382F84830AFE740284FF0000311D879
:104700000421507190711371D37182F848108AE7B7
:10471000224699E6937982F8490080EA030B82F8F1
:1047200006B0052382F848307DE74C45009FBFF472
:1047300038AF08F101005844E368984734E7114C5A
:104740009AE713795179994200F21D819379834256
:1047500000F02381002382F8483064E72968BAE634
:104760000A480BF0B5FD06E680216B200DF098FCA1
:10477000962007F0CFF9074B074A1A6072B610F07F
:1047800099FC00BFC41D0020E842002080390020B1
:1047900020020208FCFF0120EFBEADDE3B6893F86B
:1047A0004920233AD72A01F26580DFE812F0A602F9
:1047B0006308580863082D086308FC076308F207BC
:1047C00063089D0763086308630863086308770745
:1047D00063083D096308CA086308A0086308630802
:1047E0008E086308860963086308780963089809D6
:1047F0007207630863086308790463085504630853
:10480000BA06630839066308630863086308630827
:104810006308630863086308630863086308630840
:104820006308630863086308630863086308630830
:104830006308630863086308630863086308630820
:104840006308630863086308630863086308630810
:104850006308630863086308630863086308630800
:1048600063086308630863086308630863086308F0
:1048700063086308630863086308630863086308E0
:1048800063086308630863086308630863086308D0
:1048900063086308630863086308630863086308C0
:1048A00063086308630863086308630863086308B0
:1048B00063086308630863086308630863086308A0
:1048C0006308630863086308630863086308630890
:1048D0006308630863086308630863086308630880
:1048E0006308630863086308630863086308630870
:1048F0006308630863086308D9067806010663083D
:104900007C05700563059D047D043C0428041704A0
:10491000B30363088E026308210263086308630817
:10492000630863086308630863086308630863082F
:10493000630863086308630863086308630863081F
:10494000630863086308330363086308CE01090141
:10495000630863086308630863086308FA009B49F7
:104960009B4A0B6013609B4B9B4801221A7011F00D
:1049700001F89A4810F0FEFF237843F002032370F9
:1049800095E60B46EDE59179D0188BEA01010133EC
:104990009171137180F808B045E6062382F848301B
:1049A0005CE68F4B1B785C0700F1648707F010FE14
:1049B0008C4C07F0D9FE0020014610F02DFE55E684
:1049C000DA79884C9918013291F80890DA71B9F1C6
:1049D000FF0F00F0B4816378994580F0AB8100202F
:1049E000014610F019FE10F007FE3B68186811F040
:1049F000EDFD306810F0AEFD06F0A0FF72B6DFF8F6
:104A0000ECB14FF480634FF4007C03AEABF81A3086
:104A10004FF0010AABF81AC0042231465846ADF8EF
:104A20000C308DF80E20CDF800C08DF80FA04FEAA5
:104A3000C9090AF053FEDDF800C0ADF80CC03146DC
:104A400058468DF80EA08DF80FA00AF047FE04EB33
:104A50000903DDF800C019895B6801FA0AF21868D9
:104A60000AFA01F10AFA02FA4AEA000089B2186069
:104A7000DE461983ABF818C0DEF810104805FBD4E9
:104A8000DFF868B100954FF0010A04EB09011868DE
:104A9000B1F808E049680AFA02FC4CEA00000AFA98
:104AA0000EF2186092B24FF4007300204A83014660
:104AB000ABF81A300AF0E4FD012001460AF0E0FDEF
:104AC00042F20F7202E0002A40F0F981DBF8103068
:104AD0005905F8D504EB09054FF0040E29896868DB
:104AE00001920AFA01F189B201836989ADF80C10CB
:104AF00031468DF80EE08DF80FA00AF0EFFD012091
:104B000000210AF0BDFD019A002A00F0E081DBF8E7
:104B100010305A0513D56A682B8910690AFA03F315
:104B200018404FF4007300F0CC810020ABF818302F
:104B300001460AF0A5FDDBF810305A05EBD404EB72
:104B400009031A895B6852009FE7D8791A18411C3B
:104B5000127AC9B20F2AD97100F2EB80224E214C91
:104B60001944C2EBC2023244097A0230D87182F889
:104B7000D010D97958180131007AD97182F8D10052
:104B8000D97958180131007AD97182F8D200D979CF
:104B900058180131007AD97182F8D300D9795818A0
:104BA0000131007AD97182F8D400D97958180131CD
:104BB000007AD97182F8D500D97958180131D971A4
:104BC000037A82F8D6300AF09DFBF4E6E04A002032
:104BD000B84B0020174E002024020208F001020802
:104BE000024E0020C41D0020884300200000024027
:104BF000C24A106800F1200400F12C06DA79511C39
:104C000053FA81F103EB020C91F808E09CF80810CC
:104C100001EB0E2189B207EE901AF8EE677A0232A4
:104C2000C7EE887ADA71E4EC017ADA7902F1010EE2
:104C3000991853FA8EFE097A9EF808E001EB0E21CE
:104C400089B207EE901AF8EE677A0232C7EE887AD8
:104C5000DA71B442C4ED027ADA7902F1010E03EBA3
:104C6000020153FA8EFE097A9EF808E001EB0E214C
:104C700089B207EE901AF8EE677A02F10202C7EEE7
:104C8000887ADA71C4ED057AB8D100F10E040426F1
:104C9000082EDA7900F0DE8099180232097ADA718A
:104CA00004F80A1CDA7999180232097ADA7121704B
:104CB000DA7999180A2E097A02F10202DA71A172E0
:104CC00000F0CA8101360134E2E7DA798C4E02F154
:104CD0001004E4B2511C53FA81F103EB020E087A7E
:104CE0009EF808100232D2B201EB0021A24226F84F
:104CF000021FEFD1DA71834C5DE6D8791918421C96
:104D00000E7AD2B2132EDA7113D87C497E4C096820
:104D10001A44023092F808E0D8710022204690F838
:104D200008C0F44500F0AC850132222A00F10C00E5
:104D3000F5D1744C0120002110F06EFC3BE60026FA
:104D40006022201D3146667015F0B3FB8DF80B60B4
:104D50009DF80B3094F866209A4253D9DFF8B09151
:104D600026469DF80B3004EBC30393F86930DB074C
:104D70003CD59DF80B3006EBC30393F8683039F946
:104D80001330002B32DD9DF80B309DF80B2096F888
:104D900001A006EBC20206EBC303D26EDB6E1289E2
:104DA00058684FEACA0173181FFA82FE58605A8188
:104DB0004FF0010C00230CFA03F212EA0E0240F04D
:104DC0009A800133102BF6D11346214404220B8123
:104DD0000AF1010A012303A9ADF80CE08DF80E20B9
:104DE0008DF80F300AF07AFC84F801A09DF80B30A2
:104DF00094F866200133DBB28DF80B309DF80B3050
:104E00009A42AED80020012110F006FC607810F024
:104E1000E1FB2BE4DA7939493A4C0E68511C53FA1C
:104E200081F103EB020E087A9EF80810023201EBC2
:104E30000021DA71A6F86210DA79501C991853FA39
:104E400080F0097A007A023201EB0021DA71A6F8CB
:104E50006010B0E5511C03EB020C53FA81F10232F1
:104E600091F808E09CF80810DA7101EB0E2189B284
:104E700007EE901AF8EE677AC7EE887AC0ED117ADD
:104E8000DA79511C53FA81F103EB020C91F808E036
:104E90009CF8081001EB0E2189B207EE901AF8EE8B
:104EA000677A0232C7EE887ADA71C0ED127ADA795F
:104EB00099180232097ADA7180F84C1002E7013A47
:104EC00004E6ABF81A3001210AF0DAFB1FE60F49BD
:104ED000009D4FF400730B83104611460AF0D0FB7F
:104EE00062B60A2006F016FE0FF0EAF83B68F322DD
:104EF00083F849205FE59BB267E700BFEC1E002006
:104F000062390020C41D002014E0010800000240A6
:104F1000F01E00205A790F2A7FF40BAFDA79981827
:104F2000511C007AC9B20728D9713FF602AF644E0E
:104F3000644CD6F800C002F1020E194453FA8EFEFA
:104F40000E7A9EF808E0C0EBC0000CEB400006EBC8
:104F50000E260332DA71A0F82161DA7902F1010E2E
:104F60009E1853FA8EFE367A9EF808E0023206EB5F
:104F70000E26DA71A0F82361DA7902F1010E9E188B
:104F800053FA8EFE367A9EF808E0023206EB0E26C1
:104F9000DA71A0F82561DA799E180132367ADA7171
:104FA00080F82761DA799E180132367ADA7180F852
:104FB0002861DA7999180132097ADA7180F82911B1
:104FC000DA7999180132097ADA7180F82A1100F534
:104FD000947610F0DFFAC6F80300ECE4DA793A4888
:104FE000384C511C53FA81F103EB020E0E7A9EF8F5
:104FF0000810023201EB0621DA710180DBE4334A4A
:10500000127802F0040202F0FF042ABBDA79304978
:1050100098180132007ADA71022881F8100788BFE7
:1050200081F81047C2E4DA79511C1A44D97192F818
:1050300008A010F0AFFA814610F0ACFA044610F068
:10504000A9FA3A68D37905330646D371BAF1000F4D
:1050500014D0BAF1100F01D01A4CACE41D4BC3F8B8
:1050600000905C6008B11C4B18601A481B4B154C33
:105070000222011D1A7004F0C5F99CE4184B10209F
:10508000C3F800905C6007F053FA164A137843F0B7
:1050900001031370002EDFD00F4B0A4C1E608AE410
:1050A0000DF096FA074C86E4084B1B785A07D3D4C8
:1050B0000EF096F8034C07F08BFA07F055FB7AE4F4
:1050C000EC1E0020C41D0020EA1C0020024E00201F
:1050D00088430020501F0020581F0020EE1C002095
:1050E000481F00202C1F0020DA79C64E511C9C1846
:1050F00053FA81F1087A217A01EB002080B26FF433
:10510000AF640419911CC62CC9B2D97198BFA6F816
:105110009601D01C194453FA80F0097A007ABA4CEF
:1051200001EB0020A6F84001111D501D53FA80F03C
:1051300053FA81F190F808E0097A206801EB0E2417
:10514000A6F84241911DD41D53FA81F153FA84F41B
:10515000097A247A01EB0424A6F8444102F10801FB
:1051600002F1090453FA81F153FA84F4097A247A9A
:1051700001EB042402F10A0153FA81F1A6F8DC41A3
:1051800002F10C04097A86F8F11153FA84F402F161
:105190000D01247A86F8F24153FA81F10E32097A30
:1051A000DA7186F88511DA7999180132097ADA719B
:1051B00086F89211D9794A1C8C1C53FA82F253FA60
:1051C00084F4127A247A02EB042202EB8202520067
:1051D0000331D971A0F85E20DA798A499818013232
:1051E000007ADA7186F87A01DA7998180132007A51
:1051F000DA7186F87E01DA7998180132007ADA716C
:1052000086F87D01DA7998180132007ADA7186F829
:105210007F015A79172A7FF61FAFDA797B4C9818ED
:105220000132007ADA7181F86101DA79501C53FA9F
:1052300080F003EB020E067A9EF8080000EB0626CB
:10524000901C53FA80F0A1F85061007A0332DA71B1
:1052500081F85F01DA7998180132007ADA7181F801
:105260006A01DA7998180132007ADA7181F86901F5
:10527000FFF7A1BB664B1B785E073FF5EDAE654AB5
:10528000624C137843F004031370FFF794BB604B38
:105290001B785B073FF5E0AE5F4B5C4C4FF4C87288
:1052A0001A80FFF788BB5A79092A7FF642ADDA796E
:1052B0005A4998180968007A0132DA710870DA7967
:1052C00098180132007ADA714870DA799818013248
:1052D000007ADA716428A8BF64200871DA79981816
:1052E0000132007ADA716428A8BF64204871DA7943
:1052F00098180132007ADA71FF28A8BFFF20887160
:10530000DA7998180132007ADA716428024628BFE7
:105310006422CA71DA7998180132007ADA718870D9
:10532000DA7998180132007ADA71C870DA79501C8B
:1053300053FA80F09E18047A307A023200EB04208F
:10534000DA7148815A790A2A7FF686AEDA79981896
:105350000132007ADA7108725A790B2A7FF67CAE34
:10536000DA792948274E9C180132247ADA710C73B5
:10537000DA790168254C98180132007ADA7186F8DA
:105380004903DA7998180132007ADA7186F84A030B
:10539000DA7998180132007ADA7181F84E00DA79F8
:1053A00098180132007ADA7181F84F00FFF703BBD9
:1053B000154A12681178022900F0128102F10A06DA
:1053C000344602F11400D97903EB010E01319EF845
:1053D00008E0D97102F801EFD97903EB010E013130
:1053E0009EF808E0D97104F801EFD97903EB010EBA
:1053F000B2429EF808E001F10101D97100F801EF15
:10540000E1D129E688430020EC1E0020C41D0020C5
:10541000024E00202C1F0020B01C0020281F00205E
:105420005A79A448A0FB0220400812283FF681AC1C
:1054300000283FF411AEA04C40F2ED2E04EB4000EA
:1054400040F6CA0611E0B242A8BF32469B49A2F21A
:10545000EE2281FB02C1D217C2EBE102D2B284F884
:10546000A421023484423FF4F7ADDA79991801326D
:10547000097ADA7184F8A311D9794A1C53FA82F2B5
:1054800003EB010992F808C099F8082002EB0C22FE
:1054900092B202317245D971D5D80022DFE7D979AD
:1054A000874C58184A1C007AD2B2DA71002800F0F2
:1054B000EB80207840F0020020701A4402318148CD
:1054C000127AD971027010F065F87F4E7F4C30600F
:1054D00010F060F83A687060D37903F1010E991CFE
:1054E000D81C52FA8EFE52FA81F152FA80F0D61888
:1054F0009EF808C0097A007ADFF8E8E1367A0433CA
:1055000001EB0020D3719EF80010714B714A06EB3D
:105510000C261E8041F0020310808EF80030FFF749
:105520004ABADA79644E694C99180132097ADA710B
:1055300086F8DA11DA7999180132097ADA7186F87F
:10554000DB11DA79501C991853FA80F0097A007A45
:10555000023201EB0021DA71A6F8DC11FFF72BBA59
:105560005A795208122A3FF6E4AB104672B393F808
:1055700007C003AE10B26146B14606EB400A4C1CB0
:1055800053FA84F403EB010B94F808E09BF808400D
:1055900004EB0E2429F8024B0231D145C9B2EED1F9
:1055A0000CEB420C83F807C082B14B4B06EB400179
:1055B00036F8024B23F8024F8E42F9D1122A05D158
:1055C000464B424C01221A70FFF7F5B9444A0021BC
:1055D00002EB4003243223F8021B9342FBD1EFE796
:1055E00002F1200102F12C04B2EE047AD8791E18DF
:1055F0000130367AD87107EE906AF8EE677AC7EE16
:10560000877AE1EC017AD8791E180130367AD871A0
:1056100007EE906AF8EE677AA142C7EEA87AC1ED6C
:10562000027AD87903EB000600F10100367AD871CE
:1056300007EE906AF8EE677AC7EE887AC1ED057AD0
:10564000D4D102F10E010420B2EE047ADC791E19E5
:10565000082804F10104367A00F09982DC7101F81F
:105660000A6CDC791E190134367ADC710E70DC7933
:105670001E190A28367A04F10104DC718E723FF497
:10568000EBAC01300131E1E7207820F0020020701E
:1056900013E70E4C01232370FFF78DB9DA79064E1C
:1056A0000A4C99180132097ADA7186F89211FFF7DB
:1056B00082B900BFABAAAAAA884300201F85EB517C
:1056C0002C1F00202D1F0020301F0020C41D002093
:1056D000381F00203A1F0020722300208D4B00202D
:1056E00074230020421F0020DA79C749981801323C
:1056F000007ADA7181F89001DA79501C9C1853FA1B
:1057000080F0247A067A901C04EB0626D41C53FA07
:1057100084F453FA80F0A1F89A61007A267A141D75
:1057200000EB0626501D53FA80F053FA84F4A1F8DA
:105730009661067A247A901D04EB062453FA80F0D1
:10574000A1F89841007A0732DA7181F891015A790B
:10575000082A7FF681ACDA79AC4C501C53FA80F001
:1057600003EB020E067A9EF8080000EB0626A1F86D
:105770009E61901CD61C53FA80F053FA86F6007A8C
:10578000367A043200EB0620DA71A1F8A001FFF7A7
:1057900012B9DA799C4E9D4C99180132097A7171CF
:1057A000DA71FFF708B9DA79974E984C511C53FA21
:1057B00081F103EB020E087A9EF8081001EB00203D
:1057C000A6F88001911CD01C53FA81F153FA80F0A5
:1057D000097A007A01EB0021101D53FA80F0A6F837
:1057E0008211007A86F88401511D901D53FA81F1CF
:1057F00053FA80F0097A007A073201EB0021DA715E
:10580000A6F88611FFF7D7B8DA797F4E7F4C511C86
:1058100053FA81F103EB020E087A9EF8081001EBAF
:105820000020A6F85801911CD01C53FA81F153FABC
:1058300080F0097A007A01EB0020A6F85A01111DC8
:10584000501D53FA81F153FA80F0097A007A06323A
:1058500001EB0021DA71A6F85C11FFF7ACB86A4ED3
:105860006A4C0023B3600FF095FEB3681843B06034
:10587000FFF7A1B8012000210FF0CEFEFEF7F5BE24
:1058800002EB420201EB860614F8222086F8812002
:10589000DA795E4C98180132007ADA7186F8820063
:1058A000DA7998180132007ADA7186F88300DA79A9
:1058B0009818013290F808E0DA7101F1810086F859
:1058C00084E00EF0A3FCFFF776B8DA795048991817
:1058D0000132097ADA71036849B302292EDC1970A2
:1058E00027D14C4B4C4A1A60484CFFF764B8DA7920
:1058F000454E464C99180132097ADA7186F87A11C8
:10590000DA7999180132097ADA7186F87E11DA7932
:1059100099180132097ADA7186F87D11DA799918C5
:105920000132097ADA7186F87F11FFF744B8012253
:105930001A70384B394A1A60FFF78EBB02221A7070
:10594000CFE75979364AA1FB02ABCBEB01020BEB57
:1059500052029208C2EBC2028A1A12F0FF0F7FF4C1
:10596000E8A92F4AA2FB0102891A02EB5102C2F3F5
:105970008702002A3FF470AB2A49D1F800E0D979B8
:1059800058180131047AD97166B27046002105E0D9
:105990000131052900F108003FF4CBA990F902C0BC
:1059A000B445F5D10EEBC101881C3FF4C2A98C703F
:1059B000D879441C53FA84F403EB000C267A9CF843
:1059C0000840023004EB0624D8718C80D8791C186A
:1059D0000130247AD8718C71D8791C180130247A5E
:1059E000D871CC71D8791C180130247AD8714C72D6
:1059F000D8791C18013A247A013012F0FF02D871CC
:105A00000C72BCD1FFF728BB88430020C41D0020C6
:105A1000EC1E002090110020C1E7000879E2000888
:105A20002549922484430020D8791918421C097A08
:105A3000D2B20B29DA713FF67CA91A44634C167A6C
:105A400022680230032ED8713FF673A901EB4101A1
:105A500002EB410101F1D00281F8D660D9795C4CAA
:105A600058180131007AD9715070D979581801311C
:105A7000007AD9719070D97958180131007AD971AA
:105A8000D070D97958180131007AD9711071D9794B
:105A900058180131007AD9715071FEF78CBF4D4A08
:105AA00002F10800D9795C180131247AD97102F821
:105AB000014F8242F6D1FFF7CFBADA79464E444C15
:105AC00099180132097ADA7186F8E411DA799918AD
:105AD0000132097ADA7186F8E311FEF76CBFDA79E0
